{
	"contracts/proposals.sol": {
		"Proposals": {
			"abi": [
				{
					"anonymous": false,
					"inputs": [
						{
							"indexed": true,
							"internalType": "address",
							"name": "previousOwner",
							"type": "address"
						},
						{
							"indexed": true,
							"internalType": "address",
							"name": "newOwner",
							"type": "address"
						}
					],
					"name": "OwnershipTransferred",
					"type": "event"
				},
				{
					"inputs": [],
					"name": "USDCTokenInstance",
					"outputs": [
						{
							"internalType": "contract IERC20",
							"name": "",
							"type": "address"
						}
					],
					"stateMutability": "view",
					"type": "function"
				},
				{
					"inputs": [
						{
							"internalType": "uint256",
							"name": "amount",
							"type": "uint256"
						},
						{
							"internalType": "uint256",
							"name": "price",
							"type": "uint256"
						},
						{
							"internalType": "uint256",
							"name": "paymentMethodIndex",
							"type": "uint256"
						},
						{
							"internalType": "string",
							"name": "paymentDetails",
							"type": "string"
						},
						{
							"internalType": "string",
							"name": "comment",
							"type": "string"
						},
						{
							"internalType": "string",
							"name": "username",
							"type": "string"
						}
					],
					"name": "createProposal",
					"outputs": [],
					"stateMutability": "nonpayable",
					"type": "function"
				},
				{
					"inputs": [],
					"name": "owner",
					"outputs": [
						{
							"internalType": "address",
							"name": "",
							"type": "address"
						}
					],
					"stateMutability": "view",
					"type": "function"
				},
				{
					"inputs": [],
					"name": "paymentMethodsContract",
					"outputs": [
						{
							"internalType": "contract IPaymentMethods",
							"name": "",
							"type": "address"
						}
					],
					"stateMutability": "view",
					"type": "function"
				},
				{
					"inputs": [
						{
							"internalType": "uint256",
							"name": "",
							"type": "uint256"
						}
					],
					"name": "proposals",
					"outputs": [
						{
							"internalType": "uint256",
							"name": "amount",
							"type": "uint256"
						},
						{
							"internalType": "uint256",
							"name": "escrowBalance",
							"type": "uint256"
						},
						{
							"internalType": "uint256",
							"name": "price",
							"type": "uint256"
						},
						{
							"internalType": "uint256",
							"name": "date",
							"type": "uint256"
						},
						{
							"internalType": "uint256",
							"name": "paymentMethodIndex",
							"type": "uint256"
						},
						{
							"internalType": "bytes32",
							"name": "paymentDetails",
							"type": "bytes32"
						},
						{
							"internalType": "string",
							"name": "comment",
							"type": "string"
						},
						{
							"internalType": "string",
							"name": "username",
							"type": "string"
						},
						{
							"internalType": "bool",
							"name": "active",
							"type": "bool"
						},
						{
							"internalType": "address",
							"name": "seller",
							"type": "address"
						}
					],
					"stateMutability": "view",
					"type": "function"
				},
				{
					"inputs": [],
					"name": "renounceOwnership",
					"outputs": [],
					"stateMutability": "nonpayable",
					"type": "function"
				},
				{
					"inputs": [
						{
							"internalType": "address",
							"name": "newOwner",
							"type": "address"
						}
					],
					"name": "transferOwnership",
					"outputs": [],
					"stateMutability": "nonpayable",
					"type": "function"
				}
			],
			"devdoc": {
				"kind": "dev",
				"methods": {
					"owner()": {
						"details": "Returns the address of the current owner."
					},
					"renounceOwnership()": {
						"details": "Leaves the contract without owner. It will not be possible to call `onlyOwner` functions anymore. Can only be called by the current owner. NOTE: Renouncing ownership will leave the contract without an owner, thereby removing any functionality that is only available to the owner."
					},
					"transferOwnership(address)": {
						"details": "Transfers ownership of the contract to a new account (`newOwner`). Can only be called by the current owner."
					}
				},
				"version": 1
			},
			"evm": {
				"assembly": "    /* \"contracts/proposals.sol\":260:1900  contract Proposals is Ownable {... */\n  mstore(0x40, 0x80)\n  callvalue\n  dup1\n  iszero\n  tag_1\n  jumpi\n  0x00\n  dup1\n  revert\ntag_1:\n  pop\n    /* \"@openzeppelin/contracts/access/Ownable.sol\":936:968  _transferOwnership(_msgSender()) */\n  tag_4\n    /* \"@openzeppelin/contracts/access/Ownable.sol\":955:967  _msgSender() */\n  tag_5\n    /* \"@openzeppelin/contracts/access/Ownable.sol\":955:965  _msgSender */\n  shl(0x20, tag_6)\n    /* \"@openzeppelin/contracts/access/Ownable.sol\":955:967  _msgSender() */\n  0x20\n  shr\n  jump\t// in\ntag_5:\n    /* \"@openzeppelin/contracts/access/Ownable.sol\":936:954  _transferOwnership */\n  shl(0x20, tag_7)\n    /* \"@openzeppelin/contracts/access/Ownable.sol\":936:968  _transferOwnership(_msgSender()) */\n  0x20\n  shr\n  jump\t// in\ntag_4:\n    /* \"contracts/proposals.sol\":260:1900  contract Proposals is Ownable {... */\n  jump(tag_8)\n    /* \"@openzeppelin/contracts/utils/Context.sol\":640:736  function _msgSender() internal view virtual returns (address) {... */\ntag_6:\n    /* \"@openzeppelin/contracts/utils/Context.sol\":693:700  address */\n  0x00\n    /* \"@openzeppelin/contracts/utils/Context.sol\":719:729  msg.sender */\n  caller\n    /* \"@openzeppelin/contracts/utils/Context.sol\":712:729  return msg.sender */\n  swap1\n  pop\n    /* \"@openzeppelin/contracts/utils/Context.sol\":640:736  function _msgSender() internal view virtual returns (address) {... */\n  swap1\n  jump\t// out\n    /* \"@openzeppelin/contracts/access/Ownable.sol\":2433:2620  function _transferOwnership(address newOwner) internal virtual {... */\ntag_7:\n    /* \"@openzeppelin/contracts/access/Ownable.sol\":2506:2522  address oldOwner */\n  0x00\n    /* \"@openzeppelin/contracts/access/Ownable.sol\":2525:2531  _owner */\n  dup1\n  0x00\n  swap1\n  sload\n  swap1\n  0x0100\n  exp\n  swap1\n  div\n  0xffffffffffffffffffffffffffffffffffffffff\n  and\n    /* \"@openzeppelin/contracts/access/Ownable.sol\":2506:2531  address oldOwner = _owner */\n  swap1\n  pop\n    /* \"@openzeppelin/contracts/access/Ownable.sol\":2550:2558  newOwner */\n  dup2\n    /* \"@openzeppelin/contracts/access/Ownable.sol\":2541:2547  _owner */\n  0x00\n  dup1\n    /* \"@openzeppelin/contracts/access/Ownable.sol\":2541:2558  _owner = newOwner */\n  0x0100\n  exp\n  dup2\n  sload\n  dup2\n  0xffffffffffffffffffffffffffffffffffffffff\n  mul\n  not\n  and\n  swap1\n  dup4\n  0xffffffffffffffffffffffffffffffffffffffff\n  and\n  mul\n  or\n  swap1\n  sstore\n  pop\n    /* \"@openzeppelin/contracts/access/Ownable.sol\":2604:2612  newOwner */\n  dup2\n    /* \"@openzeppelin/contracts/access/Ownable.sol\":2573:2613  OwnershipTransferred(oldOwner, newOwner) */\n  0xffffffffffffffffffffffffffffffffffffffff\n  and\n    /* \"@openzeppelin/contracts/access/Ownable.sol\":2594:2602  oldOwner */\n  dup2\n    /* \"@openzeppelin/contracts/access/Ownable.sol\":2573:2613  OwnershipTransferred(oldOwner, newOwner) */\n  0xffffffffffffffffffffffffffffffffffffffff\n  and\n  0x8be0079c531659141344cd1fd0a4f28419497f9722a3daafe3b4186f6b6457e0\n  mload(0x40)\n  mload(0x40)\n  dup1\n  swap2\n  sub\n  swap1\n  log3\n    /* \"@openzeppelin/contracts/access/Ownable.sol\":2496:2620  {... */\n  pop\n    /* \"@openzeppelin/contracts/access/Ownable.sol\":2433:2620  function _transferOwnership(address newOwner) internal virtual {... */\n  pop\n  jump\t// out\n    /* \"contracts/proposals.sol\":260:1900  contract Proposals is Ownable {... */\ntag_8:\n  dataSize(sub_0)\n  dup1\n  dataOffset(sub_0)\n  0x00\n  codecopy\n  0x00\n  return\nstop\n\nsub_0: assembly {\n        /* \"contracts/proposals.sol\":260:1900  contract Proposals is Ownable {... */\n      mstore(0x40, 0x80)\n      callvalue\n      dup1\n      iszero\n      tag_1\n      jumpi\n      0x00\n      dup1\n      revert\n    tag_1:\n      pop\n      jumpi(tag_2, lt(calldatasize, 0x04))\n      shr(0xe0, calldataload(0x00))\n      dup1\n      0x8da5cb5b\n      gt\n      tag_10\n      jumpi\n      dup1\n      0x8da5cb5b\n      eq\n      tag_6\n      jumpi\n      dup1\n      0x98afca47\n      eq\n      tag_7\n      jumpi\n      dup1\n      0xa3b9131b\n      eq\n      tag_8\n      jumpi\n      dup1\n      0xf2fde38b\n      eq\n      tag_9\n      jumpi\n      jump(tag_2)\n    tag_10:\n      dup1\n      0x013cf08b\n      eq\n      tag_3\n      jumpi\n      dup1\n      0x1601947e\n      eq\n      tag_4\n      jumpi\n      dup1\n      0x715018a6\n      eq\n      tag_5\n      jumpi\n    tag_2:\n      0x00\n      dup1\n      revert\n        /* \"contracts/proposals.sol\":663:690  Proposal[] public proposals */\n    tag_3:\n      tag_11\n      0x04\n      dup1\n      calldatasize\n      sub\n      dup2\n      add\n      swap1\n      tag_12\n      swap2\n      swap1\n      tag_13\n      jump\t// in\n    tag_12:\n      tag_14\n      jump\t// in\n    tag_11:\n      mload(0x40)\n      tag_15\n      swap11\n      swap10\n      swap9\n      swap8\n      swap7\n      swap6\n      swap5\n      swap4\n      swap3\n      swap2\n      swap1\n      tag_16\n      jump\t// in\n    tag_15:\n      mload(0x40)\n      dup1\n      swap2\n      sub\n      swap1\n      return\n        /* \"contracts/proposals.sol\":693:1897  function createProposal(... */\n    tag_4:\n      tag_17\n      0x04\n      dup1\n      calldatasize\n      sub\n      dup2\n      add\n      swap1\n      tag_18\n      swap2\n      swap1\n      tag_19\n      jump\t// in\n    tag_18:\n      tag_20\n      jump\t// in\n    tag_17:\n      stop\n        /* \"@openzeppelin/contracts/access/Ownable.sol\":1831:1932  function renounceOwnership() public virtual onlyOwner {... */\n    tag_5:\n      tag_21\n      tag_22\n      jump\t// in\n    tag_21:\n      stop\n        /* \"@openzeppelin/contracts/access/Ownable.sol\":1201:1286  function owner() public view virtual returns (address) {... */\n    tag_6:\n      tag_23\n      tag_24\n      jump\t// in\n    tag_23:\n      mload(0x40)\n      tag_25\n      swap2\n      swap1\n      tag_26\n      jump\t// in\n    tag_25:\n      mload(0x40)\n      dup1\n      swap2\n      sub\n      swap1\n      return\n        /* \"contracts/proposals.sol\":293:324  IERC20 public USDCTokenInstance */\n    tag_7:\n      tag_27\n      tag_28\n      jump\t// in\n    tag_27:\n      mload(0x40)\n      tag_29\n      swap2\n      swap1\n      tag_30\n      jump\t// in\n    tag_29:\n      mload(0x40)\n      dup1\n      swap2\n      sub\n      swap1\n      return\n        /* \"contracts/proposals.sol\":326:371  IPaymentMethods public paymentMethodsContract */\n    tag_8:\n      tag_31\n      tag_32\n      jump\t// in\n    tag_31:\n      mload(0x40)\n      tag_33\n      swap2\n      swap1\n      tag_34\n      jump\t// in\n    tag_33:\n      mload(0x40)\n      dup1\n      swap2\n      sub\n      swap1\n      return\n        /* \"@openzeppelin/contracts/access/Ownable.sol\":2081:2279  function transferOwnership(address newOwner) public virtual onlyOwner {... */\n    tag_9:\n      tag_35\n      0x04\n      dup1\n      calldatasize\n      sub\n      dup2\n      add\n      swap1\n      tag_36\n      swap2\n      swap1\n      tag_37\n      jump\t// in\n    tag_36:\n      tag_38\n      jump\t// in\n    tag_35:\n      stop\n        /* \"contracts/proposals.sol\":663:690  Proposal[] public proposals */\n    tag_14:\n      0x03\n      dup2\n      dup2\n      sload\n      dup2\n      lt\n      tag_39\n      jumpi\n      0x00\n      dup1\n      revert\n    tag_39:\n      swap1\n      0x00\n      mstore\n      keccak256(0x00, 0x20)\n      swap1\n      0x09\n      mul\n      add\n      0x00\n      swap2\n      pop\n      swap1\n      pop\n      dup1\n      0x00\n      add\n      sload\n      swap1\n      dup1\n      0x01\n      add\n      sload\n      swap1\n      dup1\n      0x02\n      add\n      sload\n      swap1\n      dup1\n      0x03\n      add\n      sload\n      swap1\n      dup1\n      0x04\n      add\n      sload\n      swap1\n      dup1\n      0x05\n      add\n      sload\n      swap1\n      dup1\n      0x06\n      add\n      dup1\n      sload\n      tag_41\n      swap1\n      tag_42\n      jump\t// in\n    tag_41:\n      dup1\n      0x1f\n      add\n      0x20\n      dup1\n      swap2\n      div\n      mul\n      0x20\n      add\n      mload(0x40)\n      swap1\n      dup2\n      add\n      0x40\n      mstore\n      dup1\n      swap3\n      swap2\n      swap1\n      dup2\n      dup2\n      mstore\n      0x20\n      add\n      dup3\n      dup1\n      sload\n      tag_43\n      swap1\n      tag_42\n      jump\t// in\n    tag_43:\n      dup1\n      iszero\n      tag_44\n      jumpi\n      dup1\n      0x1f\n      lt\n      tag_45\n      jumpi\n      0x0100\n      dup1\n      dup4\n      sload\n      div\n      mul\n      dup4\n      mstore\n      swap2\n      0x20\n      add\n      swap2\n      jump(tag_44)\n    tag_45:\n      dup3\n      add\n      swap2\n      swap1\n      0x00\n      mstore\n      keccak256(0x00, 0x20)\n      swap1\n    tag_46:\n      dup2\n      sload\n      dup2\n      mstore\n      swap1\n      0x01\n      add\n      swap1\n      0x20\n      add\n      dup1\n      dup4\n      gt\n      tag_46\n      jumpi\n      dup3\n      swap1\n      sub\n      0x1f\n      and\n      dup3\n      add\n      swap2\n    tag_44:\n      pop\n      pop\n      pop\n      pop\n      pop\n      swap1\n      dup1\n      0x07\n      add\n      dup1\n      sload\n      tag_47\n      swap1\n      tag_42\n      jump\t// in\n    tag_47:\n      dup1\n      0x1f\n      add\n      0x20\n      dup1\n      swap2\n      div\n      mul\n      0x20\n      add\n      mload(0x40)\n      swap1\n      dup2\n      add\n      0x40\n      mstore\n      dup1\n      swap3\n      swap2\n      swap1\n      dup2\n      dup2\n      mstore\n      0x20\n      add\n      dup3\n      dup1\n      sload\n      tag_48\n      swap1\n      tag_42\n      jump\t// in\n    tag_48:\n      dup1\n      iszero\n      tag_49\n      jumpi\n      dup1\n      0x1f\n      lt\n      tag_50\n      jumpi\n      0x0100\n      dup1\n      dup4\n      sload\n      div\n      mul\n      dup4\n      mstore\n      swap2\n      0x20\n      add\n      swap2\n      jump(tag_49)\n    tag_50:\n      dup3\n      add\n      swap2\n      swap1\n      0x00\n      mstore\n      keccak256(0x00, 0x20)\n      swap1\n    tag_51:\n      dup2\n      sload\n      dup2\n      mstore\n      swap1\n      0x01\n      add\n      swap1\n      0x20\n      add\n      dup1\n      dup4\n      gt\n      tag_51\n      jumpi\n      dup3\n      swap1\n      sub\n      0x1f\n      and\n      dup3\n      add\n      swap2\n    tag_49:\n      pop\n      pop\n      pop\n      pop\n      pop\n      swap1\n      dup1\n      0x08\n      add\n      0x00\n      swap1\n      sload\n      swap1\n      0x0100\n      exp\n      swap1\n      div\n      0xff\n      and\n      swap1\n      dup1\n      0x08\n      add\n      0x01\n      swap1\n      sload\n      swap1\n      0x0100\n      exp\n      swap1\n      div\n      0xffffffffffffffffffffffffffffffffffffffff\n      and\n      swap1\n      pop\n      dup11\n      jump\t// out\n        /* \"contracts/proposals.sol\":693:1897  function createProposal(... */\n    tag_20:\n        /* \"contracts/proposals.sol\":942:943  0 */\n      0x00\n        /* \"contracts/proposals.sol\":933:939  amount */\n      dup7\n        /* \"contracts/proposals.sol\":933:943  amount > 0 */\n      gt\n        /* \"contracts/proposals.sol\":925:977  require(amount > 0, \"Amount must be greater than 0\") */\n      tag_53\n      jumpi\n      mload(0x40)\n      0x08c379a000000000000000000000000000000000000000000000000000000000\n      dup2\n      mstore\n      0x04\n      add\n      tag_54\n      swap1\n      tag_55\n      jump\t// in\n    tag_54:\n      mload(0x40)\n      dup1\n      swap2\n      sub\n      swap1\n      revert\n    tag_53:\n        /* \"contracts/proposals.sol\":1038:1044  amount */\n      dup6\n        /* \"contracts/proposals.sol\":996:1013  USDCTokenInstance */\n      0x01\n      0x00\n      swap1\n      sload\n      swap1\n      0x0100\n      exp\n      swap1\n      div\n      0xffffffffffffffffffffffffffffffffffffffff\n      and\n        /* \"contracts/proposals.sol\":996:1023  USDCTokenInstance.balanceOf */\n      0xffffffffffffffffffffffffffffffffffffffff\n      and\n      0x70a08231\n        /* \"contracts/proposals.sol\":1024:1034  msg.sender */\n      caller\n        /* \"contracts/proposals.sol\":996:1035  USDCTokenInstance.balanceOf(msg.sender) */\n      mload(0x40)\n      dup3\n      0xffffffff\n      and\n      0xe0\n      shl\n      dup2\n      mstore\n      0x04\n      add\n      tag_56\n      swap2\n      swap1\n      tag_26\n      jump\t// in\n    tag_56:\n      0x20\n      mload(0x40)\n      dup1\n      dup4\n      sub\n      dup2\n      dup7\n      gas\n      staticcall\n      iszero\n      dup1\n      iszero\n      tag_58\n      jumpi\n      returndatasize\n      0x00\n      dup1\n      returndatacopy\n      revert(0x00, returndatasize)\n    tag_58:\n      pop\n      pop\n      pop\n      pop\n      mload(0x40)\n      returndatasize\n      not(0x1f)\n      0x1f\n      dup3\n      add\n      and\n      dup3\n      add\n      dup1\n      0x40\n      mstore\n      pop\n      dup2\n      add\n      swap1\n      tag_59\n      swap2\n      swap1\n      tag_60\n      jump\t// in\n    tag_59:\n        /* \"contracts/proposals.sol\":996:1044  USDCTokenInstance.balanceOf(msg.sender)>= amount */\n      lt\n      iszero\n        /* \"contracts/proposals.sol\":987:1090  require (USDCTokenInstance.balanceOf(msg.sender)>= amount, \"You don't have enough USDC in this wallet\") */\n      tag_61\n      jumpi\n      mload(0x40)\n      0x08c379a000000000000000000000000000000000000000000000000000000000\n      dup2\n      mstore\n      0x04\n      add\n      tag_62\n      swap1\n      tag_63\n      jump\t// in\n    tag_62:\n      mload(0x40)\n      dup1\n      swap2\n      sub\n      swap1\n      revert\n    tag_61:\n        /* \"contracts/proposals.sol\":1116:1117  0 */\n      0x00\n        /* \"contracts/proposals.sol\":1108:1113  price */\n      dup6\n        /* \"contracts/proposals.sol\":1108:1117  price > 0 */\n      gt\n        /* \"contracts/proposals.sol\":1100:1150  require(price > 0, \"Price must be greater than 0\") */\n      tag_64\n      jumpi\n      mload(0x40)\n      0x08c379a000000000000000000000000000000000000000000000000000000000\n      dup2\n      mstore\n      0x04\n      add\n      tag_65\n      swap1\n      tag_66\n      jump\t// in\n    tag_65:\n      mload(0x40)\n      dup1\n      swap2\n      sub\n      swap1\n      revert\n    tag_64:\n        /* \"contracts/proposals.sol\":1189:1211  paymentMethodsContract */\n      0x02\n      0x00\n      swap1\n      sload\n      swap1\n      0x0100\n      exp\n      swap1\n      div\n      0xffffffffffffffffffffffffffffffffffffffff\n      and\n        /* \"contracts/proposals.sol\":1189:1233  paymentMethodsContract.getPaymentMethodCount */\n      0xffffffffffffffffffffffffffffffffffffffff\n      and\n      0xd60f1c51\n        /* \"contracts/proposals.sol\":1189:1235  paymentMethodsContract.getPaymentMethodCount() */\n      mload(0x40)\n      dup2\n      0xffffffff\n      and\n      0xe0\n      shl\n      dup2\n      mstore\n      0x04\n      add\n      0x20\n      mload(0x40)\n      dup1\n      dup4\n      sub\n      dup2\n      dup7\n      gas\n      staticcall\n      iszero\n      dup1\n      iszero\n      tag_68\n      jumpi\n      returndatasize\n      0x00\n      dup1\n      returndatacopy\n      revert(0x00, returndatasize)\n    tag_68:\n      pop\n      pop\n      pop\n      pop\n      mload(0x40)\n      returndatasize\n      not(0x1f)\n      0x1f\n      dup3\n      add\n      and\n      dup3\n      add\n      dup1\n      0x40\n      mstore\n      pop\n      dup2\n      add\n      swap1\n      tag_69\n      swap2\n      swap1\n      tag_60\n      jump\t// in\n    tag_69:\n        /* \"contracts/proposals.sol\":1168:1186  paymentMethodIndex */\n      dup5\n        /* \"contracts/proposals.sol\":1168:1235  paymentMethodIndex < paymentMethodsContract.getPaymentMethodCount() */\n      lt\n        /* \"contracts/proposals.sol\":1160:1269  require(paymentMethodIndex < paymentMethodsContract.getPaymentMethodCount(), \"Payment method does not exist\") */\n      tag_70\n      jumpi\n      mload(0x40)\n      0x08c379a000000000000000000000000000000000000000000000000000000000\n      dup2\n      mstore\n      0x04\n      add\n      tag_71\n      swap1\n      tag_72\n      jump\t// in\n    tag_71:\n      mload(0x40)\n      dup1\n      swap2\n      sub\n      swap1\n      revert\n    tag_70:\n        /* \"contracts/proposals.sol\":1318:1319  0 */\n      0x00\n        /* \"contracts/proposals.sol\":1293:1307  paymentDetails */\n      dup4\n        /* \"contracts/proposals.sol\":1287:1315  bytes(paymentDetails).length */\n      mload\n        /* \"contracts/proposals.sol\":1287:1319  bytes(paymentDetails).length > 0 */\n      gt\n        /* \"contracts/proposals.sol\":1279:1356  require(bytes(paymentDetails).length > 0, \"paymentDetails must not be empty\") */\n      tag_73\n      jumpi\n      mload(0x40)\n      0x08c379a000000000000000000000000000000000000000000000000000000000\n      dup2\n      mstore\n      0x04\n      add\n      tag_74\n      swap1\n      tag_75\n      jump\t// in\n    tag_74:\n      mload(0x40)\n      dup1\n      swap2\n      sub\n      swap1\n      revert\n    tag_73:\n        /* \"contracts/proposals.sol\":1367:1393  bytes32 paymentDetailsHash */\n      0x00\n        /* \"contracts/proposals.sol\":1423:1437  paymentDetails */\n      dup4\n        /* \"contracts/proposals.sol\":1406:1438  abi.encodePacked(paymentDetails) */\n      add(0x20, mload(0x40))\n      tag_76\n      swap2\n      swap1\n      tag_77\n      jump\t// in\n    tag_76:\n      mload(0x40)\n      0x20\n      dup2\n      dup4\n      sub\n      sub\n      dup2\n      mstore\n      swap1\n      0x40\n      mstore\n        /* \"contracts/proposals.sol\":1396:1439  keccak256(abi.encodePacked(paymentDetails)) */\n      dup1\n      mload\n      swap1\n      0x20\n      add\n      keccak256\n        /* \"contracts/proposals.sol\":1367:1439  bytes32 paymentDetailsHash = keccak256(abi.encodePacked(paymentDetails)) */\n      swap1\n      pop\n        /* \"contracts/proposals.sol\":1449:1458  proposals */\n      0x03\n        /* \"contracts/proposals.sol\":1477:1880  Proposal({... */\n      mload(0x40)\n      dup1\n      0x0140\n      add\n      0x40\n      mstore\n      dup1\n        /* \"contracts/proposals.sol\":1512:1518  amount */\n      dup10\n        /* \"contracts/proposals.sol\":1477:1880  Proposal({... */\n      dup2\n      mstore\n      0x20\n      add\n        /* \"contracts/proposals.sol\":1551:1552  0 */\n      0x00\n        /* \"contracts/proposals.sol\":1477:1880  Proposal({... */\n      dup2\n      mstore\n      0x20\n      add\n        /* \"contracts/proposals.sol\":1577:1582  price */\n      dup9\n        /* \"contracts/proposals.sol\":1477:1880  Proposal({... */\n      dup2\n      mstore\n      0x20\n      add\n        /* \"contracts/proposals.sol\":1606:1621  block.timestamp */\n      timestamp\n        /* \"contracts/proposals.sol\":1477:1880  Proposal({... */\n      dup2\n      mstore\n      0x20\n      add\n        /* \"contracts/proposals.sol\":1659:1677  paymentMethodIndex */\n      dup8\n        /* \"contracts/proposals.sol\":1477:1880  Proposal({... */\n      dup2\n      mstore\n      0x20\n      add\n        /* \"contracts/proposals.sol\":1711:1729  paymentDetailsHash */\n      dup4\n        /* \"contracts/proposals.sol\":1477:1880  Proposal({... */\n      dup2\n      mstore\n      0x20\n      add\n        /* \"contracts/proposals.sol\":1756:1763  comment */\n      dup6\n        /* \"contracts/proposals.sol\":1477:1880  Proposal({... */\n      dup2\n      mstore\n      0x20\n      add\n        /* \"contracts/proposals.sol\":1791:1799  username */\n      dup5\n        /* \"contracts/proposals.sol\":1477:1880  Proposal({... */\n      dup2\n      mstore\n      0x20\n      add\n        /* \"contracts/proposals.sol\":1825:1829  true */\n      0x01\n        /* \"contracts/proposals.sol\":1477:1880  Proposal({... */\n      iszero\n      iszero\n      dup2\n      mstore\n      0x20\n      add\n        /* \"contracts/proposals.sol\":1855:1865  msg.sender */\n      caller\n        /* \"contracts/proposals.sol\":1477:1880  Proposal({... */\n      0xffffffffffffffffffffffffffffffffffffffff\n      and\n      dup2\n      mstore\n      pop\n        /* \"contracts/proposals.sol\":1449:1890  proposals.push(... */\n      swap1\n      dup1\n      0x01\n      dup2\n      sload\n      add\n      dup1\n      dup3\n      sstore\n      dup1\n      swap2\n      pop\n      pop\n      0x01\n      swap1\n      sub\n      swap1\n      0x00\n      mstore\n      keccak256(0x00, 0x20)\n      swap1\n      0x09\n      mul\n      add\n      0x00\n      swap1\n      swap2\n      swap1\n      swap2\n      swap1\n      swap2\n      pop\n      0x00\n      dup3\n      add\n      mload\n      dup2\n      0x00\n      add\n      sstore\n      0x20\n      dup3\n      add\n      mload\n      dup2\n      0x01\n      add\n      sstore\n      0x40\n      dup3\n      add\n      mload\n      dup2\n      0x02\n      add\n      sstore\n      0x60\n      dup3\n      add\n      mload\n      dup2\n      0x03\n      add\n      sstore\n      0x80\n      dup3\n      add\n      mload\n      dup2\n      0x04\n      add\n      sstore\n      0xa0\n      dup3\n      add\n      mload\n      dup2\n      0x05\n      add\n      sstore\n      0xc0\n      dup3\n      add\n      mload\n      dup2\n      0x06\n      add\n      swap1\n      dup2\n      tag_79\n      swap2\n      swap1\n      tag_80\n      jump\t// in\n    tag_79:\n      pop\n      0xe0\n      dup3\n      add\n      mload\n      dup2\n      0x07\n      add\n      swap1\n      dup2\n      tag_81\n      swap2\n      swap1\n      tag_80\n      jump\t// in\n    tag_81:\n      pop\n      0x0100\n      dup3\n      add\n      mload\n      dup2\n      0x08\n      add\n      exp(0x0100, 0x00)\n      dup2\n      sload\n      dup2\n      0xff\n      mul\n      not\n      and\n      swap1\n      dup4\n      iszero\n      iszero\n      mul\n      or\n      swap1\n      sstore\n      pop\n      0x0120\n      dup3\n      add\n      mload\n      dup2\n      0x08\n      add\n      exp(0x0100, 0x01)\n      dup2\n      sload\n      dup2\n      0xffffffffffffffffffffffffffffffffffffffff\n      mul\n      not\n      and\n      swap1\n      dup4\n      0xffffffffffffffffffffffffffffffffffffffff\n      and\n      mul\n      or\n      swap1\n      sstore\n      pop\n      pop\n      pop\n        /* \"contracts/proposals.sol\":915:1897  {... */\n      pop\n        /* \"contracts/proposals.sol\":693:1897  function createProposal(... */\n      pop\n      pop\n      pop\n      pop\n      pop\n      pop\n      jump\t// out\n        /* \"@openzeppelin/contracts/access/Ownable.sol\":1831:1932  function renounceOwnership() public virtual onlyOwner {... */\n    tag_22:\n        /* \"@openzeppelin/contracts/access/Ownable.sol\":1094:1107  _checkOwner() */\n      tag_83\n        /* \"@openzeppelin/contracts/access/Ownable.sol\":1094:1105  _checkOwner */\n      tag_84\n        /* \"@openzeppelin/contracts/access/Ownable.sol\":1094:1107  _checkOwner() */\n      jump\t// in\n    tag_83:\n        /* \"@openzeppelin/contracts/access/Ownable.sol\":1895:1925  _transferOwnership(address(0)) */\n      tag_86\n        /* \"@openzeppelin/contracts/access/Ownable.sol\":1922:1923  0 */\n      0x00\n        /* \"@openzeppelin/contracts/access/Ownable.sol\":1895:1913  _transferOwnership */\n      tag_87\n        /* \"@openzeppelin/contracts/access/Ownable.sol\":1895:1925  _transferOwnership(address(0)) */\n      jump\t// in\n    tag_86:\n        /* \"@openzeppelin/contracts/access/Ownable.sol\":1831:1932  function renounceOwnership() public virtual onlyOwner {... */\n      jump\t// out\n        /* \"@openzeppelin/contracts/access/Ownable.sol\":1201:1286  function owner() public view virtual returns (address) {... */\n    tag_24:\n        /* \"@openzeppelin/contracts/access/Ownable.sol\":1247:1254  address */\n      0x00\n        /* \"@openzeppelin/contracts/access/Ownable.sol\":1273:1279  _owner */\n      dup1\n      0x00\n      swap1\n      sload\n      swap1\n      0x0100\n      exp\n      swap1\n      div\n      0xffffffffffffffffffffffffffffffffffffffff\n      and\n        /* \"@openzeppelin/contracts/access/Ownable.sol\":1266:1279  return _owner */\n      swap1\n      pop\n        /* \"@openzeppelin/contracts/access/Ownable.sol\":1201:1286  function owner() public view virtual returns (address) {... */\n      swap1\n      jump\t// out\n        /* \"contracts/proposals.sol\":293:324  IERC20 public USDCTokenInstance */\n    tag_28:\n      0x01\n      0x00\n      swap1\n      sload\n      swap1\n      0x0100\n      exp\n      swap1\n      div\n      0xffffffffffffffffffffffffffffffffffffffff\n      and\n      dup2\n      jump\t// out\n        /* \"contracts/proposals.sol\":326:371  IPaymentMethods public paymentMethodsContract */\n    tag_32:\n      0x02\n      0x00\n      swap1\n      sload\n      swap1\n      0x0100\n      exp\n      swap1\n      div\n      0xffffffffffffffffffffffffffffffffffffffff\n      and\n      dup2\n      jump\t// out\n        /* \"@openzeppelin/contracts/access/Ownable.sol\":2081:2279  function transferOwnership(address newOwner) public virtual onlyOwner {... */\n    tag_38:\n        /* \"@openzeppelin/contracts/access/Ownable.sol\":1094:1107  _checkOwner() */\n      tag_90\n        /* \"@openzeppelin/contracts/access/Ownable.sol\":1094:1105  _checkOwner */\n      tag_84\n        /* \"@openzeppelin/contracts/access/Ownable.sol\":1094:1107  _checkOwner() */\n      jump\t// in\n    tag_90:\n        /* \"@openzeppelin/contracts/access/Ownable.sol\":2189:2190  0 */\n      0x00\n        /* \"@openzeppelin/contracts/access/Ownable.sol\":2169:2191  newOwner != address(0) */\n      0xffffffffffffffffffffffffffffffffffffffff\n      and\n        /* \"@openzeppelin/contracts/access/Ownable.sol\":2169:2177  newOwner */\n      dup2\n        /* \"@openzeppelin/contracts/access/Ownable.sol\":2169:2191  newOwner != address(0) */\n      0xffffffffffffffffffffffffffffffffffffffff\n      and\n      sub\n        /* \"@openzeppelin/contracts/access/Ownable.sol\":2161:2234  require(newOwner != address(0), \"Ownable: new owner is the zero address\") */\n      tag_92\n      jumpi\n      mload(0x40)\n      0x08c379a000000000000000000000000000000000000000000000000000000000\n      dup2\n      mstore\n      0x04\n      add\n      tag_93\n      swap1\n      tag_94\n      jump\t// in\n    tag_93:\n      mload(0x40)\n      dup1\n      swap2\n      sub\n      swap1\n      revert\n    tag_92:\n        /* \"@openzeppelin/contracts/access/Ownable.sol\":2244:2272  _transferOwnership(newOwner) */\n      tag_95\n        /* \"@openzeppelin/contracts/access/Ownable.sol\":2263:2271  newOwner */\n      dup2\n        /* \"@openzeppelin/contracts/access/Ownable.sol\":2244:2262  _transferOwnership */\n      tag_87\n        /* \"@openzeppelin/contracts/access/Ownable.sol\":2244:2272  _transferOwnership(newOwner) */\n      jump\t// in\n    tag_95:\n        /* \"@openzeppelin/contracts/access/Ownable.sol\":2081:2279  function transferOwnership(address newOwner) public virtual onlyOwner {... */\n      pop\n      jump\t// out\n        /* \"@openzeppelin/contracts/access/Ownable.sol\":1359:1489  function _checkOwner() internal view virtual {... */\n    tag_84:\n        /* \"@openzeppelin/contracts/access/Ownable.sol\":1433:1445  _msgSender() */\n      tag_97\n        /* \"@openzeppelin/contracts/access/Ownable.sol\":1433:1443  _msgSender */\n      tag_98\n        /* \"@openzeppelin/contracts/access/Ownable.sol\":1433:1445  _msgSender() */\n      jump\t// in\n    tag_97:\n        /* \"@openzeppelin/contracts/access/Ownable.sol\":1422:1445  owner() == _msgSender() */\n      0xffffffffffffffffffffffffffffffffffffffff\n      and\n        /* \"@openzeppelin/contracts/access/Ownable.sol\":1422:1429  owner() */\n      tag_99\n        /* \"@openzeppelin/contracts/access/Ownable.sol\":1422:1427  owner */\n      tag_24\n        /* \"@openzeppelin/contracts/access/Ownable.sol\":1422:1429  owner() */\n      jump\t// in\n    tag_99:\n        /* \"@openzeppelin/contracts/access/Ownable.sol\":1422:1445  owner() == _msgSender() */\n      0xffffffffffffffffffffffffffffffffffffffff\n      and\n      eq\n        /* \"@openzeppelin/contracts/access/Ownable.sol\":1414:1482  require(owner() == _msgSender(), \"Ownable: caller is not the owner\") */\n      tag_100\n      jumpi\n      mload(0x40)\n      0x08c379a000000000000000000000000000000000000000000000000000000000\n      dup2\n      mstore\n      0x04\n      add\n      tag_101\n      swap1\n      tag_102\n      jump\t// in\n    tag_101:\n      mload(0x40)\n      dup1\n      swap2\n      sub\n      swap1\n      revert\n    tag_100:\n        /* \"@openzeppelin/contracts/access/Ownable.sol\":1359:1489  function _checkOwner() internal view virtual {... */\n      jump\t// out\n        /* \"@openzeppelin/contracts/access/Ownable.sol\":2433:2620  function _transferOwnership(address newOwner) internal virtual {... */\n    tag_87:\n        /* \"@openzeppelin/contracts/access/Ownable.sol\":2506:2522  address oldOwner */\n      0x00\n        /* \"@openzeppelin/contracts/access/Ownable.sol\":2525:2531  _owner */\n      dup1\n      0x00\n      swap1\n      sload\n      swap1\n      0x0100\n      exp\n      swap1\n      div\n      0xffffffffffffffffffffffffffffffffffffffff\n      and\n        /* \"@openzeppelin/contracts/access/Ownable.sol\":2506:2531  address oldOwner = _owner */\n      swap1\n      pop\n        /* \"@openzeppelin/contracts/access/Ownable.sol\":2550:2558  newOwner */\n      dup2\n        /* \"@openzeppelin/contracts/access/Ownable.sol\":2541:2547  _owner */\n      0x00\n      dup1\n        /* \"@openzeppelin/contracts/access/Ownable.sol\":2541:2558  _owner = newOwner */\n      0x0100\n      exp\n      dup2\n      sload\n      dup2\n      0xffffffffffffffffffffffffffffffffffffffff\n      mul\n      not\n      and\n      swap1\n      dup4\n      0xffffffffffffffffffffffffffffffffffffffff\n      and\n      mul\n      or\n      swap1\n      sstore\n      pop\n        /* \"@openzeppelin/contracts/access/Ownable.sol\":2604:2612  newOwner */\n      dup2\n        /* \"@openzeppelin/contracts/access/Ownable.sol\":2573:2613  OwnershipTransferred(oldOwner, newOwner) */\n      0xffffffffffffffffffffffffffffffffffffffff\n      and\n        /* \"@openzeppelin/contracts/access/Ownable.sol\":2594:2602  oldOwner */\n      dup2\n        /* \"@openzeppelin/contracts/access/Ownable.sol\":2573:2613  OwnershipTransferred(oldOwner, newOwner) */\n      0xffffffffffffffffffffffffffffffffffffffff\n      and\n      0x8be0079c531659141344cd1fd0a4f28419497f9722a3daafe3b4186f6b6457e0\n      mload(0x40)\n      mload(0x40)\n      dup1\n      swap2\n      sub\n      swap1\n      log3\n        /* \"@openzeppelin/contracts/access/Ownable.sol\":2496:2620  {... */\n      pop\n        /* \"@openzeppelin/contracts/access/Ownable.sol\":2433:2620  function _transferOwnership(address newOwner) internal virtual {... */\n      pop\n      jump\t// out\n        /* \"@openzeppelin/contracts/utils/Context.sol\":640:736  function _msgSender() internal view virtual returns (address) {... */\n    tag_98:\n        /* \"@openzeppelin/contracts/utils/Context.sol\":693:700  address */\n      0x00\n        /* \"@openzeppelin/contracts/utils/Context.sol\":719:729  msg.sender */\n      caller\n        /* \"@openzeppelin/contracts/utils/Context.sol\":712:729  return msg.sender */\n      swap1\n      pop\n        /* \"@openzeppelin/contracts/utils/Context.sol\":640:736  function _msgSender() internal view virtual returns (address) {... */\n      swap1\n      jump\t// out\n        /* \"#utility.yul\":7:82   */\n    tag_105:\n        /* \"#utility.yul\":40:46   */\n      0x00\n        /* \"#utility.yul\":73:75   */\n      0x40\n        /* \"#utility.yul\":67:76   */\n      mload\n        /* \"#utility.yul\":57:76   */\n      swap1\n      pop\n        /* \"#utility.yul\":7:82   */\n      swap1\n      jump\t// out\n        /* \"#utility.yul\":88:205   */\n    tag_106:\n        /* \"#utility.yul\":197:198   */\n      0x00\n        /* \"#utility.yul\":194:195   */\n      dup1\n        /* \"#utility.yul\":187:199   */\n      revert\n        /* \"#utility.yul\":211:328   */\n    tag_107:\n        /* \"#utility.yul\":320:321   */\n      0x00\n        /* \"#utility.yul\":317:318   */\n      dup1\n        /* \"#utility.yul\":310:322   */\n      revert\n        /* \"#utility.yul\":334:411   */\n    tag_108:\n        /* \"#utility.yul\":371:378   */\n      0x00\n        /* \"#utility.yul\":400:405   */\n      dup2\n        /* \"#utility.yul\":389:405   */\n      swap1\n      pop\n        /* \"#utility.yul\":334:411   */\n      swap2\n      swap1\n      pop\n      jump\t// out\n        /* \"#utility.yul\":417:539   */\n    tag_109:\n        /* \"#utility.yul\":490:514   */\n      tag_180\n        /* \"#utility.yul\":508:513   */\n      dup2\n        /* \"#utility.yul\":490:514   */\n      tag_108\n      jump\t// in\n    tag_180:\n        /* \"#utility.yul\":483:488   */\n      dup2\n        /* \"#utility.yul\":480:515   */\n      eq\n        /* \"#utility.yul\":470:533   */\n      tag_181\n      jumpi\n        /* \"#utility.yul\":529:530   */\n      0x00\n        /* \"#utility.yul\":526:527   */\n      dup1\n        /* \"#utility.yul\":519:531   */\n      revert\n        /* \"#utility.yul\":470:533   */\n    tag_181:\n        /* \"#utility.yul\":417:539   */\n      pop\n      jump\t// out\n        /* \"#utility.yul\":545:684   */\n    tag_110:\n        /* \"#utility.yul\":591:596   */\n      0x00\n        /* \"#utility.yul\":629:635   */\n      dup2\n        /* \"#utility.yul\":616:636   */\n      calldataload\n        /* \"#utility.yul\":607:636   */\n      swap1\n      pop\n        /* \"#utility.yul\":645:678   */\n      tag_183\n        /* \"#utility.yul\":672:677   */\n      dup2\n        /* \"#utility.yul\":645:678   */\n      tag_109\n      jump\t// in\n    tag_183:\n        /* \"#utility.yul\":545:684   */\n      swap3\n      swap2\n      pop\n      pop\n      jump\t// out\n        /* \"#utility.yul\":690:1019   */\n    tag_13:\n        /* \"#utility.yul\":749:755   */\n      0x00\n        /* \"#utility.yul\":798:800   */\n      0x20\n        /* \"#utility.yul\":786:795   */\n      dup3\n        /* \"#utility.yul\":777:784   */\n      dup5\n        /* \"#utility.yul\":773:796   */\n      sub\n        /* \"#utility.yul\":769:801   */\n      slt\n        /* \"#utility.yul\":766:885   */\n      iszero\n      tag_185\n      jumpi\n        /* \"#utility.yul\":804:883   */\n      tag_186\n      tag_106\n      jump\t// in\n    tag_186:\n        /* \"#utility.yul\":766:885   */\n    tag_185:\n        /* \"#utility.yul\":924:925   */\n      0x00\n        /* \"#utility.yul\":949:1002   */\n      tag_187\n        /* \"#utility.yul\":994:1001   */\n      dup5\n        /* \"#utility.yul\":985:991   */\n      dup3\n        /* \"#utility.yul\":974:983   */\n      dup6\n        /* \"#utility.yul\":970:992   */\n      add\n        /* \"#utility.yul\":949:1002   */\n      tag_110\n      jump\t// in\n    tag_187:\n        /* \"#utility.yul\":939:1002   */\n      swap2\n      pop\n        /* \"#utility.yul\":895:1012   */\n      pop\n        /* \"#utility.yul\":690:1019   */\n      swap3\n      swap2\n      pop\n      pop\n      jump\t// out\n        /* \"#utility.yul\":1025:1143   */\n    tag_111:\n        /* \"#utility.yul\":1112:1136   */\n      tag_189\n        /* \"#utility.yul\":1130:1135   */\n      dup2\n        /* \"#utility.yul\":1112:1136   */\n      tag_108\n      jump\t// in\n    tag_189:\n        /* \"#utility.yul\":1107:1110   */\n      dup3\n        /* \"#utility.yul\":1100:1137   */\n      mstore\n        /* \"#utility.yul\":1025:1143   */\n      pop\n      pop\n      jump\t// out\n        /* \"#utility.yul\":1149:1226   */\n    tag_112:\n        /* \"#utility.yul\":1186:1193   */\n      0x00\n        /* \"#utility.yul\":1215:1220   */\n      dup2\n        /* \"#utility.yul\":1204:1220   */\n      swap1\n      pop\n        /* \"#utility.yul\":1149:1226   */\n      swap2\n      swap1\n      pop\n      jump\t// out\n        /* \"#utility.yul\":1232:1350   */\n    tag_113:\n        /* \"#utility.yul\":1319:1343   */\n      tag_192\n        /* \"#utility.yul\":1337:1342   */\n      dup2\n        /* \"#utility.yul\":1319:1343   */\n      tag_112\n      jump\t// in\n    tag_192:\n        /* \"#utility.yul\":1314:1317   */\n      dup3\n        /* \"#utility.yul\":1307:1344   */\n      mstore\n        /* \"#utility.yul\":1232:1350   */\n      pop\n      pop\n      jump\t// out\n        /* \"#utility.yul\":1356:1455   */\n    tag_114:\n        /* \"#utility.yul\":1408:1414   */\n      0x00\n        /* \"#utility.yul\":1442:1447   */\n      dup2\n        /* \"#utility.yul\":1436:1448   */\n      mload\n        /* \"#utility.yul\":1426:1448   */\n      swap1\n      pop\n        /* \"#utility.yul\":1356:1455   */\n      swap2\n      swap1\n      pop\n      jump\t// out\n        /* \"#utility.yul\":1461:1630   */\n    tag_115:\n        /* \"#utility.yul\":1545:1556   */\n      0x00\n        /* \"#utility.yul\":1579:1585   */\n      dup3\n        /* \"#utility.yul\":1574:1577   */\n      dup3\n        /* \"#utility.yul\":1567:1586   */\n      mstore\n        /* \"#utility.yul\":1619:1623   */\n      0x20\n        /* \"#utility.yul\":1614:1617   */\n      dup3\n        /* \"#utility.yul\":1610:1624   */\n      add\n        /* \"#utility.yul\":1595:1624   */\n      swap1\n      pop\n        /* \"#utility.yul\":1461:1630   */\n      swap3\n      swap2\n      pop\n      pop\n      jump\t// out\n        /* \"#utility.yul\":1636:1882   */\n    tag_116:\n        /* \"#utility.yul\":1717:1718   */\n      0x00\n        /* \"#utility.yul\":1727:1840   */\n    tag_196:\n        /* \"#utility.yul\":1741:1747   */\n      dup4\n        /* \"#utility.yul\":1738:1739   */\n      dup2\n        /* \"#utility.yul\":1735:1748   */\n      lt\n        /* \"#utility.yul\":1727:1840   */\n      iszero\n      tag_198\n      jumpi\n        /* \"#utility.yul\":1826:1827   */\n      dup1\n        /* \"#utility.yul\":1821:1824   */\n      dup3\n        /* \"#utility.yul\":1817:1828   */\n      add\n        /* \"#utility.yul\":1811:1829   */\n      mload\n        /* \"#utility.yul\":1807:1808   */\n      dup2\n        /* \"#utility.yul\":1802:1805   */\n      dup5\n        /* \"#utility.yul\":1798:1809   */\n      add\n        /* \"#utility.yul\":1791:1830   */\n      mstore\n        /* \"#utility.yul\":1763:1765   */\n      0x20\n        /* \"#utility.yul\":1760:1761   */\n      dup2\n        /* \"#utility.yul\":1756:1766   */\n      add\n        /* \"#utility.yul\":1751:1766   */\n      swap1\n      pop\n        /* \"#utility.yul\":1727:1840   */\n      jump(tag_196)\n    tag_198:\n        /* \"#utility.yul\":1874:1875   */\n      0x00\n        /* \"#utility.yul\":1865:1871   */\n      dup5\n        /* \"#utility.yul\":1860:1863   */\n      dup5\n        /* \"#utility.yul\":1856:1872   */\n      add\n        /* \"#utility.yul\":1849:1876   */\n      mstore\n        /* \"#utility.yul\":1698:1882   */\n      pop\n        /* \"#utility.yul\":1636:1882   */\n      pop\n      pop\n      pop\n      jump\t// out\n        /* \"#utility.yul\":1888:1990   */\n    tag_117:\n        /* \"#utility.yul\":1929:1935   */\n      0x00\n        /* \"#utility.yul\":1980:1982   */\n      0x1f\n        /* \"#utility.yul\":1976:1983   */\n      not\n        /* \"#utility.yul\":1971:1973   */\n      0x1f\n        /* \"#utility.yul\":1964:1969   */\n      dup4\n        /* \"#utility.yul\":1960:1974   */\n      add\n        /* \"#utility.yul\":1956:1984   */\n      and\n        /* \"#utility.yul\":1946:1984   */\n      swap1\n      pop\n        /* \"#utility.yul\":1888:1990   */\n      swap2\n      swap1\n      pop\n      jump\t// out\n        /* \"#utility.yul\":1996:2373   */\n    tag_118:\n        /* \"#utility.yul\":2084:2087   */\n      0x00\n        /* \"#utility.yul\":2112:2151   */\n      tag_201\n        /* \"#utility.yul\":2145:2150   */\n      dup3\n        /* \"#utility.yul\":2112:2151   */\n      tag_114\n      jump\t// in\n    tag_201:\n        /* \"#utility.yul\":2167:2238   */\n      tag_202\n        /* \"#utility.yul\":2231:2237   */\n      dup2\n        /* \"#utility.yul\":2226:2229   */\n      dup6\n        /* \"#utility.yul\":2167:2238   */\n      tag_115\n      jump\t// in\n    tag_202:\n        /* \"#utility.yul\":2160:2238   */\n      swap4\n      pop\n        /* \"#utility.yul\":2247:2312   */\n      tag_203\n        /* \"#utility.yul\":2305:2311   */\n      dup2\n        /* \"#utility.yul\":2300:2303   */\n      dup6\n        /* \"#utility.yul\":2293:2297   */\n      0x20\n        /* \"#utility.yul\":2286:2291   */\n      dup7\n        /* \"#utility.yul\":2282:2298   */\n      add\n        /* \"#utility.yul\":2247:2312   */\n      tag_116\n      jump\t// in\n    tag_203:\n        /* \"#utility.yul\":2337:2366   */\n      tag_204\n        /* \"#utility.yul\":2359:2365   */\n      dup2\n        /* \"#utility.yul\":2337:2366   */\n      tag_117\n      jump\t// in\n    tag_204:\n        /* \"#utility.yul\":2332:2335   */\n      dup5\n        /* \"#utility.yul\":2328:2367   */\n      add\n        /* \"#utility.yul\":2321:2367   */\n      swap2\n      pop\n        /* \"#utility.yul\":2088:2373   */\n      pop\n        /* \"#utility.yul\":1996:2373   */\n      swap3\n      swap2\n      pop\n      pop\n      jump\t// out\n        /* \"#utility.yul\":2379:2469   */\n    tag_119:\n        /* \"#utility.yul\":2413:2420   */\n      0x00\n        /* \"#utility.yul\":2456:2461   */\n      dup2\n        /* \"#utility.yul\":2449:2462   */\n      iszero\n        /* \"#utility.yul\":2442:2463   */\n      iszero\n        /* \"#utility.yul\":2431:2463   */\n      swap1\n      pop\n        /* \"#utility.yul\":2379:2469   */\n      swap2\n      swap1\n      pop\n      jump\t// out\n        /* \"#utility.yul\":2475:2584   */\n    tag_120:\n        /* \"#utility.yul\":2556:2577   */\n      tag_207\n        /* \"#utility.yul\":2571:2576   */\n      dup2\n        /* \"#utility.yul\":2556:2577   */\n      tag_119\n      jump\t// in\n    tag_207:\n        /* \"#utility.yul\":2551:2554   */\n      dup3\n        /* \"#utility.yul\":2544:2578   */\n      mstore\n        /* \"#utility.yul\":2475:2584   */\n      pop\n      pop\n      jump\t// out\n        /* \"#utility.yul\":2590:2716   */\n    tag_121:\n        /* \"#utility.yul\":2627:2634   */\n      0x00\n        /* \"#utility.yul\":2667:2709   */\n      0xffffffffffffffffffffffffffffffffffffffff\n        /* \"#utility.yul\":2660:2665   */\n      dup3\n        /* \"#utility.yul\":2656:2710   */\n      and\n        /* \"#utility.yul\":2645:2710   */\n      swap1\n      pop\n        /* \"#utility.yul\":2590:2716   */\n      swap2\n      swap1\n      pop\n      jump\t// out\n        /* \"#utility.yul\":2722:2818   */\n    tag_122:\n        /* \"#utility.yul\":2759:2766   */\n      0x00\n        /* \"#utility.yul\":2788:2812   */\n      tag_210\n        /* \"#utility.yul\":2806:2811   */\n      dup3\n        /* \"#utility.yul\":2788:2812   */\n      tag_121\n      jump\t// in\n    tag_210:\n        /* \"#utility.yul\":2777:2812   */\n      swap1\n      pop\n        /* \"#utility.yul\":2722:2818   */\n      swap2\n      swap1\n      pop\n      jump\t// out\n        /* \"#utility.yul\":2824:2942   */\n    tag_123:\n        /* \"#utility.yul\":2911:2935   */\n      tag_212\n        /* \"#utility.yul\":2929:2934   */\n      dup2\n        /* \"#utility.yul\":2911:2935   */\n      tag_122\n      jump\t// in\n    tag_212:\n        /* \"#utility.yul\":2906:2909   */\n      dup3\n        /* \"#utility.yul\":2899:2936   */\n      mstore\n        /* \"#utility.yul\":2824:2942   */\n      pop\n      pop\n      jump\t// out\n        /* \"#utility.yul\":2948:4337   */\n    tag_16:\n        /* \"#utility.yul\":3327:3331   */\n      0x00\n        /* \"#utility.yul\":3365:3368   */\n      0x0140\n        /* \"#utility.yul\":3354:3363   */\n      dup3\n        /* \"#utility.yul\":3350:3369   */\n      add\n        /* \"#utility.yul\":3342:3369   */\n      swap1\n      pop\n        /* \"#utility.yul\":3379:3450   */\n      tag_214\n        /* \"#utility.yul\":3447:3448   */\n      0x00\n        /* \"#utility.yul\":3436:3445   */\n      dup4\n        /* \"#utility.yul\":3432:3449   */\n      add\n        /* \"#utility.yul\":3423:3429   */\n      dup14\n        /* \"#utility.yul\":3379:3450   */\n      tag_111\n      jump\t// in\n    tag_214:\n        /* \"#utility.yul\":3460:3532   */\n      tag_215\n        /* \"#utility.yul\":3528:3530   */\n      0x20\n        /* \"#utility.yul\":3517:3526   */\n      dup4\n        /* \"#utility.yul\":3513:3531   */\n      add\n        /* \"#utility.yul\":3504:3510   */\n      dup13\n        /* \"#utility.yul\":3460:3532   */\n      tag_111\n      jump\t// in\n    tag_215:\n        /* \"#utility.yul\":3542:3614   */\n      tag_216\n        /* \"#utility.yul\":3610:3612   */\n      0x40\n        /* \"#utility.yul\":3599:3608   */\n      dup4\n        /* \"#utility.yul\":3595:3613   */\n      add\n        /* \"#utility.yul\":3586:3592   */\n      dup12\n        /* \"#utility.yul\":3542:3614   */\n      tag_111\n      jump\t// in\n    tag_216:\n        /* \"#utility.yul\":3624:3696   */\n      tag_217\n        /* \"#utility.yul\":3692:3694   */\n      0x60\n        /* \"#utility.yul\":3681:3690   */\n      dup4\n        /* \"#utility.yul\":3677:3695   */\n      add\n        /* \"#utility.yul\":3668:3674   */\n      dup11\n        /* \"#utility.yul\":3624:3696   */\n      tag_111\n      jump\t// in\n    tag_217:\n        /* \"#utility.yul\":3706:3779   */\n      tag_218\n        /* \"#utility.yul\":3774:3777   */\n      0x80\n        /* \"#utility.yul\":3763:3772   */\n      dup4\n        /* \"#utility.yul\":3759:3778   */\n      add\n        /* \"#utility.yul\":3750:3756   */\n      dup10\n        /* \"#utility.yul\":3706:3779   */\n      tag_111\n      jump\t// in\n    tag_218:\n        /* \"#utility.yul\":3789:3862   */\n      tag_219\n        /* \"#utility.yul\":3857:3860   */\n      0xa0\n        /* \"#utility.yul\":3846:3855   */\n      dup4\n        /* \"#utility.yul\":3842:3861   */\n      add\n        /* \"#utility.yul\":3833:3839   */\n      dup9\n        /* \"#utility.yul\":3789:3862   */\n      tag_113\n      jump\t// in\n    tag_219:\n        /* \"#utility.yul\":3910:3919   */\n      dup2\n        /* \"#utility.yul\":3904:3908   */\n      dup2\n        /* \"#utility.yul\":3900:3920   */\n      sub\n        /* \"#utility.yul\":3894:3897   */\n      0xc0\n        /* \"#utility.yul\":3883:3892   */\n      dup4\n        /* \"#utility.yul\":3879:3898   */\n      add\n        /* \"#utility.yul\":3872:3921   */\n      mstore\n        /* \"#utility.yul\":3938:4016   */\n      tag_220\n        /* \"#utility.yul\":4011:4015   */\n      dup2\n        /* \"#utility.yul\":4002:4008   */\n      dup8\n        /* \"#utility.yul\":3938:4016   */\n      tag_118\n      jump\t// in\n    tag_220:\n        /* \"#utility.yul\":3930:4016   */\n      swap1\n      pop\n        /* \"#utility.yul\":4064:4073   */\n      dup2\n        /* \"#utility.yul\":4058:4062   */\n      dup2\n        /* \"#utility.yul\":4054:4074   */\n      sub\n        /* \"#utility.yul\":4048:4051   */\n      0xe0\n        /* \"#utility.yul\":4037:4046   */\n      dup4\n        /* \"#utility.yul\":4033:4052   */\n      add\n        /* \"#utility.yul\":4026:4075   */\n      mstore\n        /* \"#utility.yul\":4092:4170   */\n      tag_221\n        /* \"#utility.yul\":4165:4169   */\n      dup2\n        /* \"#utility.yul\":4156:4162   */\n      dup7\n        /* \"#utility.yul\":4092:4170   */\n      tag_118\n      jump\t// in\n    tag_221:\n        /* \"#utility.yul\":4084:4170   */\n      swap1\n      pop\n        /* \"#utility.yul\":4180:4247   */\n      tag_222\n        /* \"#utility.yul\":4242:4245   */\n      0x0100\n        /* \"#utility.yul\":4231:4240   */\n      dup4\n        /* \"#utility.yul\":4227:4246   */\n      add\n        /* \"#utility.yul\":4218:4224   */\n      dup6\n        /* \"#utility.yul\":4180:4247   */\n      tag_120\n      jump\t// in\n    tag_222:\n        /* \"#utility.yul\":4257:4330   */\n      tag_223\n        /* \"#utility.yul\":4325:4328   */\n      0x0120\n        /* \"#utility.yul\":4314:4323   */\n      dup4\n        /* \"#utility.yul\":4310:4329   */\n      add\n        /* \"#utility.yul\":4301:4307   */\n      dup5\n        /* \"#utility.yul\":4257:4330   */\n      tag_123\n      jump\t// in\n    tag_223:\n        /* \"#utility.yul\":2948:4337   */\n      swap12\n      swap11\n      pop\n      pop\n      pop\n      pop\n      pop\n      pop\n      pop\n      pop\n      pop\n      pop\n      pop\n      jump\t// out\n        /* \"#utility.yul\":4343:4460   */\n    tag_124:\n        /* \"#utility.yul\":4452:4453   */\n      0x00\n        /* \"#utility.yul\":4449:4450   */\n      dup1\n        /* \"#utility.yul\":4442:4454   */\n      revert\n        /* \"#utility.yul\":4466:4583   */\n    tag_125:\n        /* \"#utility.yul\":4575:4576   */\n      0x00\n        /* \"#utility.yul\":4572:4573   */\n      dup1\n        /* \"#utility.yul\":4565:4577   */\n      revert\n        /* \"#utility.yul\":4589:4769   */\n    tag_126:\n        /* \"#utility.yul\":4637:4714   */\n      0x4e487b7100000000000000000000000000000000000000000000000000000000\n        /* \"#utility.yul\":4634:4635   */\n      0x00\n        /* \"#utility.yul\":4627:4715   */\n      mstore\n        /* \"#utility.yul\":4734:4738   */\n      0x41\n        /* \"#utility.yul\":4731:4732   */\n      0x04\n        /* \"#utility.yul\":4724:4739   */\n      mstore\n        /* \"#utility.yul\":4758:4762   */\n      0x24\n        /* \"#utility.yul\":4755:4756   */\n      0x00\n        /* \"#utility.yul\":4748:4763   */\n      revert\n        /* \"#utility.yul\":4775:5056   */\n    tag_127:\n        /* \"#utility.yul\":4858:4885   */\n      tag_228\n        /* \"#utility.yul\":4880:4884   */\n      dup3\n        /* \"#utility.yul\":4858:4885   */\n      tag_117\n      jump\t// in\n    tag_228:\n        /* \"#utility.yul\":4850:4856   */\n      dup2\n        /* \"#utility.yul\":4846:4886   */\n      add\n        /* \"#utility.yul\":4988:4994   */\n      dup2\n        /* \"#utility.yul\":4976:4986   */\n      dup2\n        /* \"#utility.yul\":4973:4995   */\n      lt\n        /* \"#utility.yul\":4952:4970   */\n      0xffffffffffffffff\n        /* \"#utility.yul\":4940:4950   */\n      dup3\n        /* \"#utility.yul\":4937:4971   */\n      gt\n        /* \"#utility.yul\":4934:4996   */\n      or\n        /* \"#utility.yul\":4931:5019   */\n      iszero\n      tag_229\n      jumpi\n        /* \"#utility.yul\":4999:5017   */\n      tag_230\n      tag_126\n      jump\t// in\n    tag_230:\n        /* \"#utility.yul\":4931:5019   */\n    tag_229:\n        /* \"#utility.yul\":5039:5049   */\n      dup1\n        /* \"#utility.yul\":5035:5037   */\n      0x40\n        /* \"#utility.yul\":5028:5050   */\n      mstore\n        /* \"#utility.yul\":4818:5056   */\n      pop\n        /* \"#utility.yul\":4775:5056   */\n      pop\n      pop\n      jump\t// out\n        /* \"#utility.yul\":5062:5191   */\n    tag_128:\n        /* \"#utility.yul\":5096:5102   */\n      0x00\n        /* \"#utility.yul\":5123:5143   */\n      tag_232\n      tag_105\n      jump\t// in\n    tag_232:\n        /* \"#utility.yul\":5113:5143   */\n      swap1\n      pop\n        /* \"#utility.yul\":5152:5185   */\n      tag_233\n        /* \"#utility.yul\":5180:5184   */\n      dup3\n        /* \"#utility.yul\":5172:5178   */\n      dup3\n        /* \"#utility.yul\":5152:5185   */\n      tag_127\n      jump\t// in\n    tag_233:\n        /* \"#utility.yul\":5062:5191   */\n      swap2\n      swap1\n      pop\n      jump\t// out\n        /* \"#utility.yul\":5197:5505   */\n    tag_129:\n        /* \"#utility.yul\":5259:5263   */\n      0x00\n        /* \"#utility.yul\":5349:5367   */\n      0xffffffffffffffff\n        /* \"#utility.yul\":5341:5347   */\n      dup3\n        /* \"#utility.yul\":5338:5368   */\n      gt\n        /* \"#utility.yul\":5335:5391   */\n      iszero\n      tag_235\n      jumpi\n        /* \"#utility.yul\":5371:5389   */\n      tag_236\n      tag_126\n      jump\t// in\n    tag_236:\n        /* \"#utility.yul\":5335:5391   */\n    tag_235:\n        /* \"#utility.yul\":5409:5438   */\n      tag_237\n        /* \"#utility.yul\":5431:5437   */\n      dup3\n        /* \"#utility.yul\":5409:5438   */\n      tag_117\n      jump\t// in\n    tag_237:\n        /* \"#utility.yul\":5401:5438   */\n      swap1\n      pop\n        /* \"#utility.yul\":5493:5497   */\n      0x20\n        /* \"#utility.yul\":5487:5491   */\n      dup2\n        /* \"#utility.yul\":5483:5498   */\n      add\n        /* \"#utility.yul\":5475:5498   */\n      swap1\n      pop\n        /* \"#utility.yul\":5197:5505   */\n      swap2\n      swap1\n      pop\n      jump\t// out\n        /* \"#utility.yul\":5511:5657   */\n    tag_130:\n        /* \"#utility.yul\":5608:5614   */\n      dup3\n        /* \"#utility.yul\":5603:5606   */\n      dup2\n        /* \"#utility.yul\":5598:5601   */\n      dup4\n        /* \"#utility.yul\":5585:5615   */\n      calldatacopy\n        /* \"#utility.yul\":5649:5650   */\n      0x00\n        /* \"#utility.yul\":5640:5646   */\n      dup4\n        /* \"#utility.yul\":5635:5638   */\n      dup4\n        /* \"#utility.yul\":5631:5647   */\n      add\n        /* \"#utility.yul\":5624:5651   */\n      mstore\n        /* \"#utility.yul\":5511:5657   */\n      pop\n      pop\n      pop\n      jump\t// out\n        /* \"#utility.yul\":5663:6088   */\n    tag_131:\n        /* \"#utility.yul\":5741:5746   */\n      0x00\n        /* \"#utility.yul\":5766:5832   */\n      tag_240\n        /* \"#utility.yul\":5782:5831   */\n      tag_241\n        /* \"#utility.yul\":5824:5830   */\n      dup5\n        /* \"#utility.yul\":5782:5831   */\n      tag_129\n      jump\t// in\n    tag_241:\n        /* \"#utility.yul\":5766:5832   */\n      tag_128\n      jump\t// in\n    tag_240:\n        /* \"#utility.yul\":5757:5832   */\n      swap1\n      pop\n        /* \"#utility.yul\":5855:5861   */\n      dup3\n        /* \"#utility.yul\":5848:5853   */\n      dup2\n        /* \"#utility.yul\":5841:5862   */\n      mstore\n        /* \"#utility.yul\":5893:5897   */\n      0x20\n        /* \"#utility.yul\":5886:5891   */\n      dup2\n        /* \"#utility.yul\":5882:5898   */\n      add\n        /* \"#utility.yul\":5931:5934   */\n      dup5\n        /* \"#utility.yul\":5922:5928   */\n      dup5\n        /* \"#utility.yul\":5917:5920   */\n      dup5\n        /* \"#utility.yul\":5913:5929   */\n      add\n        /* \"#utility.yul\":5910:5935   */\n      gt\n        /* \"#utility.yul\":5907:6019   */\n      iszero\n      tag_242\n      jumpi\n        /* \"#utility.yul\":5938:6017   */\n      tag_243\n      tag_125\n      jump\t// in\n    tag_243:\n        /* \"#utility.yul\":5907:6019   */\n    tag_242:\n        /* \"#utility.yul\":6028:6082   */\n      tag_244\n        /* \"#utility.yul\":6075:6081   */\n      dup5\n        /* \"#utility.yul\":6070:6073   */\n      dup3\n        /* \"#utility.yul\":6065:6068   */\n      dup6\n        /* \"#utility.yul\":6028:6082   */\n      tag_130\n      jump\t// in\n    tag_244:\n        /* \"#utility.yul\":5747:6088   */\n      pop\n        /* \"#utility.yul\":5663:6088   */\n      swap4\n      swap3\n      pop\n      pop\n      pop\n      jump\t// out\n        /* \"#utility.yul\":6108:6448   */\n    tag_132:\n        /* \"#utility.yul\":6164:6169   */\n      0x00\n        /* \"#utility.yul\":6213:6216   */\n      dup3\n        /* \"#utility.yul\":6206:6210   */\n      0x1f\n        /* \"#utility.yul\":6198:6204   */\n      dup4\n        /* \"#utility.yul\":6194:6211   */\n      add\n        /* \"#utility.yul\":6190:6217   */\n      slt\n        /* \"#utility.yul\":6180:6302   */\n      tag_246\n      jumpi\n        /* \"#utility.yul\":6221:6300   */\n      tag_247\n      tag_124\n      jump\t// in\n    tag_247:\n        /* \"#utility.yul\":6180:6302   */\n    tag_246:\n        /* \"#utility.yul\":6338:6344   */\n      dup2\n        /* \"#utility.yul\":6325:6345   */\n      calldataload\n        /* \"#utility.yul\":6363:6442   */\n      tag_248\n        /* \"#utility.yul\":6438:6441   */\n      dup5\n        /* \"#utility.yul\":6430:6436   */\n      dup3\n        /* \"#utility.yul\":6423:6427   */\n      0x20\n        /* \"#utility.yul\":6415:6421   */\n      dup7\n        /* \"#utility.yul\":6411:6428   */\n      add\n        /* \"#utility.yul\":6363:6442   */\n      tag_131\n      jump\t// in\n    tag_248:\n        /* \"#utility.yul\":6354:6442   */\n      swap2\n      pop\n        /* \"#utility.yul\":6170:6448   */\n      pop\n        /* \"#utility.yul\":6108:6448   */\n      swap3\n      swap2\n      pop\n      pop\n      jump\t// out\n        /* \"#utility.yul\":6454:8051   */\n    tag_19:\n        /* \"#utility.yul\":6588:6594   */\n      0x00\n        /* \"#utility.yul\":6596:6602   */\n      dup1\n        /* \"#utility.yul\":6604:6610   */\n      0x00\n        /* \"#utility.yul\":6612:6618   */\n      dup1\n        /* \"#utility.yul\":6620:6626   */\n      0x00\n        /* \"#utility.yul\":6628:6634   */\n      dup1\n        /* \"#utility.yul\":6677:6680   */\n      0xc0\n        /* \"#utility.yul\":6665:6674   */\n      dup8\n        /* \"#utility.yul\":6656:6663   */\n      dup10\n        /* \"#utility.yul\":6652:6675   */\n      sub\n        /* \"#utility.yul\":6648:6681   */\n      slt\n        /* \"#utility.yul\":6645:6765   */\n      iszero\n      tag_250\n      jumpi\n        /* \"#utility.yul\":6684:6763   */\n      tag_251\n      tag_106\n      jump\t// in\n    tag_251:\n        /* \"#utility.yul\":6645:6765   */\n    tag_250:\n        /* \"#utility.yul\":6804:6805   */\n      0x00\n        /* \"#utility.yul\":6829:6882   */\n      tag_252\n        /* \"#utility.yul\":6874:6881   */\n      dup10\n        /* \"#utility.yul\":6865:6871   */\n      dup3\n        /* \"#utility.yul\":6854:6863   */\n      dup11\n        /* \"#utility.yul\":6850:6872   */\n      add\n        /* \"#utility.yul\":6829:6882   */\n      tag_110\n      jump\t// in\n    tag_252:\n        /* \"#utility.yul\":6819:6882   */\n      swap7\n      pop\n        /* \"#utility.yul\":6775:6892   */\n      pop\n        /* \"#utility.yul\":6931:6933   */\n      0x20\n        /* \"#utility.yul\":6957:7010   */\n      tag_253\n        /* \"#utility.yul\":7002:7009   */\n      dup10\n        /* \"#utility.yul\":6993:6999   */\n      dup3\n        /* \"#utility.yul\":6982:6991   */\n      dup11\n        /* \"#utility.yul\":6978:7000   */\n      add\n        /* \"#utility.yul\":6957:7010   */\n      tag_110\n      jump\t// in\n    tag_253:\n        /* \"#utility.yul\":6947:7010   */\n      swap6\n      pop\n        /* \"#utility.yul\":6902:7020   */\n      pop\n        /* \"#utility.yul\":7059:7061   */\n      0x40\n        /* \"#utility.yul\":7085:7138   */\n      tag_254\n        /* \"#utility.yul\":7130:7137   */\n      dup10\n        /* \"#utility.yul\":7121:7127   */\n      dup3\n        /* \"#utility.yul\":7110:7119   */\n      dup11\n        /* \"#utility.yul\":7106:7128   */\n      add\n        /* \"#utility.yul\":7085:7138   */\n      tag_110\n      jump\t// in\n    tag_254:\n        /* \"#utility.yul\":7075:7138   */\n      swap5\n      pop\n        /* \"#utility.yul\":7030:7148   */\n      pop\n        /* \"#utility.yul\":7215:7217   */\n      0x60\n        /* \"#utility.yul\":7204:7213   */\n      dup8\n        /* \"#utility.yul\":7200:7218   */\n      add\n        /* \"#utility.yul\":7187:7219   */\n      calldataload\n        /* \"#utility.yul\":7246:7264   */\n      0xffffffffffffffff\n        /* \"#utility.yul\":7238:7244   */\n      dup2\n        /* \"#utility.yul\":7235:7265   */\n      gt\n        /* \"#utility.yul\":7232:7349   */\n      iszero\n      tag_255\n      jumpi\n        /* \"#utility.yul\":7268:7347   */\n      tag_256\n      tag_107\n      jump\t// in\n    tag_256:\n        /* \"#utility.yul\":7232:7349   */\n    tag_255:\n        /* \"#utility.yul\":7373:7436   */\n      tag_257\n        /* \"#utility.yul\":7428:7435   */\n      dup10\n        /* \"#utility.yul\":7419:7425   */\n      dup3\n        /* \"#utility.yul\":7408:7417   */\n      dup11\n        /* \"#utility.yul\":7404:7426   */\n      add\n        /* \"#utility.yul\":7373:7436   */\n      tag_132\n      jump\t// in\n    tag_257:\n        /* \"#utility.yul\":7363:7436   */\n      swap4\n      pop\n        /* \"#utility.yul\":7158:7446   */\n      pop\n        /* \"#utility.yul\":7513:7516   */\n      0x80\n        /* \"#utility.yul\":7502:7511   */\n      dup8\n        /* \"#utility.yul\":7498:7517   */\n      add\n        /* \"#utility.yul\":7485:7518   */\n      calldataload\n        /* \"#utility.yul\":7545:7563   */\n      0xffffffffffffffff\n        /* \"#utility.yul\":7537:7543   */\n      dup2\n        /* \"#utility.yul\":7534:7564   */\n      gt\n        /* \"#utility.yul\":7531:7648   */\n      iszero\n      tag_258\n      jumpi\n        /* \"#utility.yul\":7567:7646   */\n      tag_259\n      tag_107\n      jump\t// in\n    tag_259:\n        /* \"#utility.yul\":7531:7648   */\n    tag_258:\n        /* \"#utility.yul\":7672:7735   */\n      tag_260\n        /* \"#utility.yul\":7727:7734   */\n      dup10\n        /* \"#utility.yul\":7718:7724   */\n      dup3\n        /* \"#utility.yul\":7707:7716   */\n      dup11\n        /* \"#utility.yul\":7703:7725   */\n      add\n        /* \"#utility.yul\":7672:7735   */\n      tag_132\n      jump\t// in\n    tag_260:\n        /* \"#utility.yul\":7662:7735   */\n      swap3\n      pop\n        /* \"#utility.yul\":7456:7745   */\n      pop\n        /* \"#utility.yul\":7812:7815   */\n      0xa0\n        /* \"#utility.yul\":7801:7810   */\n      dup8\n        /* \"#utility.yul\":7797:7816   */\n      add\n        /* \"#utility.yul\":7784:7817   */\n      calldataload\n        /* \"#utility.yul\":7844:7862   */\n      0xffffffffffffffff\n        /* \"#utility.yul\":7836:7842   */\n      dup2\n        /* \"#utility.yul\":7833:7863   */\n      gt\n        /* \"#utility.yul\":7830:7947   */\n      iszero\n      tag_261\n      jumpi\n        /* \"#utility.yul\":7866:7945   */\n      tag_262\n      tag_107\n      jump\t// in\n    tag_262:\n        /* \"#utility.yul\":7830:7947   */\n    tag_261:\n        /* \"#utility.yul\":7971:8034   */\n      tag_263\n        /* \"#utility.yul\":8026:8033   */\n      dup10\n        /* \"#utility.yul\":8017:8023   */\n      dup3\n        /* \"#utility.yul\":8006:8015   */\n      dup11\n        /* \"#utility.yul\":8002:8024   */\n      add\n        /* \"#utility.yul\":7971:8034   */\n      tag_132\n      jump\t// in\n    tag_263:\n        /* \"#utility.yul\":7961:8034   */\n      swap2\n      pop\n        /* \"#utility.yul\":7755:8044   */\n      pop\n        /* \"#utility.yul\":6454:8051   */\n      swap3\n      swap6\n      pop\n      swap3\n      swap6\n      pop\n      swap3\n      swap6\n      jump\t// out\n        /* \"#utility.yul\":8057:8279   */\n    tag_26:\n        /* \"#utility.yul\":8150:8154   */\n      0x00\n        /* \"#utility.yul\":8188:8190   */\n      0x20\n        /* \"#utility.yul\":8177:8186   */\n      dup3\n        /* \"#utility.yul\":8173:8191   */\n      add\n        /* \"#utility.yul\":8165:8191   */\n      swap1\n      pop\n        /* \"#utility.yul\":8201:8272   */\n      tag_265\n        /* \"#utility.yul\":8269:8270   */\n      0x00\n        /* \"#utility.yul\":8258:8267   */\n      dup4\n        /* \"#utility.yul\":8254:8271   */\n      add\n        /* \"#utility.yul\":8245:8251   */\n      dup5\n        /* \"#utility.yul\":8201:8272   */\n      tag_123\n      jump\t// in\n    tag_265:\n        /* \"#utility.yul\":8057:8279   */\n      swap3\n      swap2\n      pop\n      pop\n      jump\t// out\n        /* \"#utility.yul\":8285:8345   */\n    tag_133:\n        /* \"#utility.yul\":8313:8316   */\n      0x00\n        /* \"#utility.yul\":8334:8339   */\n      dup2\n        /* \"#utility.yul\":8327:8339   */\n      swap1\n      pop\n        /* \"#utility.yul\":8285:8345   */\n      swap2\n      swap1\n      pop\n      jump\t// out\n        /* \"#utility.yul\":8351:8493   */\n    tag_134:\n        /* \"#utility.yul\":8401:8410   */\n      0x00\n        /* \"#utility.yul\":8434:8487   */\n      tag_268\n        /* \"#utility.yul\":8452:8486   */\n      tag_269\n        /* \"#utility.yul\":8461:8485   */\n      tag_270\n        /* \"#utility.yul\":8479:8484   */\n      dup5\n        /* \"#utility.yul\":8461:8485   */\n      tag_121\n      jump\t// in\n    tag_270:\n        /* \"#utility.yul\":8452:8486   */\n      tag_133\n      jump\t// in\n    tag_269:\n        /* \"#utility.yul\":8434:8487   */\n      tag_121\n      jump\t// in\n    tag_268:\n        /* \"#utility.yul\":8421:8487   */\n      swap1\n      pop\n        /* \"#utility.yul\":8351:8493   */\n      swap2\n      swap1\n      pop\n      jump\t// out\n        /* \"#utility.yul\":8499:8625   */\n    tag_135:\n        /* \"#utility.yul\":8549:8558   */\n      0x00\n        /* \"#utility.yul\":8582:8619   */\n      tag_272\n        /* \"#utility.yul\":8613:8618   */\n      dup3\n        /* \"#utility.yul\":8582:8619   */\n      tag_134\n      jump\t// in\n    tag_272:\n        /* \"#utility.yul\":8569:8619   */\n      swap1\n      pop\n        /* \"#utility.yul\":8499:8625   */\n      swap2\n      swap1\n      pop\n      jump\t// out\n        /* \"#utility.yul\":8631:8771   */\n    tag_136:\n        /* \"#utility.yul\":8695:8704   */\n      0x00\n        /* \"#utility.yul\":8728:8765   */\n      tag_274\n        /* \"#utility.yul\":8759:8764   */\n      dup3\n        /* \"#utility.yul\":8728:8765   */\n      tag_135\n      jump\t// in\n    tag_274:\n        /* \"#utility.yul\":8715:8765   */\n      swap1\n      pop\n        /* \"#utility.yul\":8631:8771   */\n      swap2\n      swap1\n      pop\n      jump\t// out\n        /* \"#utility.yul\":8777:8936   */\n    tag_137:\n        /* \"#utility.yul\":8878:8929   */\n      tag_276\n        /* \"#utility.yul\":8923:8928   */\n      dup2\n        /* \"#utility.yul\":8878:8929   */\n      tag_136\n      jump\t// in\n    tag_276:\n        /* \"#utility.yul\":8873:8876   */\n      dup3\n        /* \"#utility.yul\":8866:8930   */\n      mstore\n        /* \"#utility.yul\":8777:8936   */\n      pop\n      pop\n      jump\t// out\n        /* \"#utility.yul\":8942:9192   */\n    tag_30:\n        /* \"#utility.yul\":9049:9053   */\n      0x00\n        /* \"#utility.yul\":9087:9089   */\n      0x20\n        /* \"#utility.yul\":9076:9085   */\n      dup3\n        /* \"#utility.yul\":9072:9090   */\n      add\n        /* \"#utility.yul\":9064:9090   */\n      swap1\n      pop\n        /* \"#utility.yul\":9100:9185   */\n      tag_278\n        /* \"#utility.yul\":9182:9183   */\n      0x00\n        /* \"#utility.yul\":9171:9180   */\n      dup4\n        /* \"#utility.yul\":9167:9184   */\n      add\n        /* \"#utility.yul\":9158:9164   */\n      dup5\n        /* \"#utility.yul\":9100:9185   */\n      tag_137\n      jump\t// in\n    tag_278:\n        /* \"#utility.yul\":8942:9192   */\n      swap3\n      swap2\n      pop\n      pop\n      jump\t// out\n        /* \"#utility.yul\":9198:9347   */\n    tag_138:\n        /* \"#utility.yul\":9271:9280   */\n      0x00\n        /* \"#utility.yul\":9304:9341   */\n      tag_280\n        /* \"#utility.yul\":9335:9340   */\n      dup3\n        /* \"#utility.yul\":9304:9341   */\n      tag_135\n      jump\t// in\n    tag_280:\n        /* \"#utility.yul\":9291:9341   */\n      swap1\n      pop\n        /* \"#utility.yul\":9198:9347   */\n      swap2\n      swap1\n      pop\n      jump\t// out\n        /* \"#utility.yul\":9353:9530   */\n    tag_139:\n        /* \"#utility.yul\":9463:9523   */\n      tag_282\n        /* \"#utility.yul\":9517:9522   */\n      dup2\n        /* \"#utility.yul\":9463:9523   */\n      tag_138\n      jump\t// in\n    tag_282:\n        /* \"#utility.yul\":9458:9461   */\n      dup3\n        /* \"#utility.yul\":9451:9524   */\n      mstore\n        /* \"#utility.yul\":9353:9530   */\n      pop\n      pop\n      jump\t// out\n        /* \"#utility.yul\":9536:9804   */\n    tag_34:\n        /* \"#utility.yul\":9652:9656   */\n      0x00\n        /* \"#utility.yul\":9690:9692   */\n      0x20\n        /* \"#utility.yul\":9679:9688   */\n      dup3\n        /* \"#utility.yul\":9675:9693   */\n      add\n        /* \"#utility.yul\":9667:9693   */\n      swap1\n      pop\n        /* \"#utility.yul\":9703:9797   */\n      tag_284\n        /* \"#utility.yul\":9794:9795   */\n      0x00\n        /* \"#utility.yul\":9783:9792   */\n      dup4\n        /* \"#utility.yul\":9779:9796   */\n      add\n        /* \"#utility.yul\":9770:9776   */\n      dup5\n        /* \"#utility.yul\":9703:9797   */\n      tag_139\n      jump\t// in\n    tag_284:\n        /* \"#utility.yul\":9536:9804   */\n      swap3\n      swap2\n      pop\n      pop\n      jump\t// out\n        /* \"#utility.yul\":9810:9932   */\n    tag_140:\n        /* \"#utility.yul\":9883:9907   */\n      tag_286\n        /* \"#utility.yul\":9901:9906   */\n      dup2\n        /* \"#utility.yul\":9883:9907   */\n      tag_122\n      jump\t// in\n    tag_286:\n        /* \"#utility.yul\":9876:9881   */\n      dup2\n        /* \"#utility.yul\":9873:9908   */\n      eq\n        /* \"#utility.yul\":9863:9926   */\n      tag_287\n      jumpi\n        /* \"#utility.yul\":9922:9923   */\n      0x00\n        /* \"#utility.yul\":9919:9920   */\n      dup1\n        /* \"#utility.yul\":9912:9924   */\n      revert\n        /* \"#utility.yul\":9863:9926   */\n    tag_287:\n        /* \"#utility.yul\":9810:9932   */\n      pop\n      jump\t// out\n        /* \"#utility.yul\":9938:10077   */\n    tag_141:\n        /* \"#utility.yul\":9984:9989   */\n      0x00\n        /* \"#utility.yul\":10022:10028   */\n      dup2\n        /* \"#utility.yul\":10009:10029   */\n      calldataload\n        /* \"#utility.yul\":10000:10029   */\n      swap1\n      pop\n        /* \"#utility.yul\":10038:10071   */\n      tag_289\n        /* \"#utility.yul\":10065:10070   */\n      dup2\n        /* \"#utility.yul\":10038:10071   */\n      tag_140\n      jump\t// in\n    tag_289:\n        /* \"#utility.yul\":9938:10077   */\n      swap3\n      swap2\n      pop\n      pop\n      jump\t// out\n        /* \"#utility.yul\":10083:10412   */\n    tag_37:\n        /* \"#utility.yul\":10142:10148   */\n      0x00\n        /* \"#utility.yul\":10191:10193   */\n      0x20\n        /* \"#utility.yul\":10179:10188   */\n      dup3\n        /* \"#utility.yul\":10170:10177   */\n      dup5\n        /* \"#utility.yul\":10166:10189   */\n      sub\n        /* \"#utility.yul\":10162:10194   */\n      slt\n        /* \"#utility.yul\":10159:10278   */\n      iszero\n      tag_291\n      jumpi\n        /* \"#utility.yul\":10197:10276   */\n      tag_292\n      tag_106\n      jump\t// in\n    tag_292:\n        /* \"#utility.yul\":10159:10278   */\n    tag_291:\n        /* \"#utility.yul\":10317:10318   */\n      0x00\n        /* \"#utility.yul\":10342:10395   */\n      tag_293\n        /* \"#utility.yul\":10387:10394   */\n      dup5\n        /* \"#utility.yul\":10378:10384   */\n      dup3\n        /* \"#utility.yul\":10367:10376   */\n      dup6\n        /* \"#utility.yul\":10363:10385   */\n      add\n        /* \"#utility.yul\":10342:10395   */\n      tag_141\n      jump\t// in\n    tag_293:\n        /* \"#utility.yul\":10332:10395   */\n      swap2\n      pop\n        /* \"#utility.yul\":10288:10405   */\n      pop\n        /* \"#utility.yul\":10083:10412   */\n      swap3\n      swap2\n      pop\n      pop\n      jump\t// out\n        /* \"#utility.yul\":10418:10598   */\n    tag_142:\n        /* \"#utility.yul\":10466:10543   */\n      0x4e487b7100000000000000000000000000000000000000000000000000000000\n        /* \"#utility.yul\":10463:10464   */\n      0x00\n        /* \"#utility.yul\":10456:10544   */\n      mstore\n        /* \"#utility.yul\":10563:10567   */\n      0x22\n        /* \"#utility.yul\":10560:10561   */\n      0x04\n        /* \"#utility.yul\":10553:10568   */\n      mstore\n        /* \"#utility.yul\":10587:10591   */\n      0x24\n        /* \"#utility.yul\":10584:10585   */\n      0x00\n        /* \"#utility.yul\":10577:10592   */\n      revert\n        /* \"#utility.yul\":10604:10924   */\n    tag_42:\n        /* \"#utility.yul\":10648:10654   */\n      0x00\n        /* \"#utility.yul\":10685:10686   */\n      0x02\n        /* \"#utility.yul\":10679:10683   */\n      dup3\n        /* \"#utility.yul\":10675:10687   */\n      div\n        /* \"#utility.yul\":10665:10687   */\n      swap1\n      pop\n        /* \"#utility.yul\":10732:10733   */\n      0x01\n        /* \"#utility.yul\":10726:10730   */\n      dup3\n        /* \"#utility.yul\":10722:10734   */\n      and\n        /* \"#utility.yul\":10753:10771   */\n      dup1\n        /* \"#utility.yul\":10743:10824   */\n      tag_296\n      jumpi\n        /* \"#utility.yul\":10809:10813   */\n      0x7f\n        /* \"#utility.yul\":10801:10807   */\n      dup3\n        /* \"#utility.yul\":10797:10814   */\n      and\n        /* \"#utility.yul\":10787:10814   */\n      swap2\n      pop\n        /* \"#utility.yul\":10743:10824   */\n    tag_296:\n        /* \"#utility.yul\":10871:10873   */\n      0x20\n        /* \"#utility.yul\":10863:10869   */\n      dup3\n        /* \"#utility.yul\":10860:10874   */\n      lt\n        /* \"#utility.yul\":10840:10858   */\n      dup2\n        /* \"#utility.yul\":10837:10875   */\n      sub\n        /* \"#utility.yul\":10834:10918   */\n      tag_297\n      jumpi\n        /* \"#utility.yul\":10890:10908   */\n      tag_298\n      tag_142\n      jump\t// in\n    tag_298:\n        /* \"#utility.yul\":10834:10918   */\n    tag_297:\n        /* \"#utility.yul\":10655:10924   */\n      pop\n        /* \"#utility.yul\":10604:10924   */\n      swap2\n      swap1\n      pop\n      jump\t// out\n        /* \"#utility.yul\":10930:11109   */\n    tag_143:\n        /* \"#utility.yul\":11070:11101   */\n      0x416d6f756e74206d7573742062652067726561746572207468616e2030000000\n        /* \"#utility.yul\":11066:11067   */\n      0x00\n        /* \"#utility.yul\":11058:11064   */\n      dup3\n        /* \"#utility.yul\":11054:11068   */\n      add\n        /* \"#utility.yul\":11047:11102   */\n      mstore\n        /* \"#utility.yul\":10930:11109   */\n      pop\n      jump\t// out\n        /* \"#utility.yul\":11115:11481   */\n    tag_144:\n        /* \"#utility.yul\":11257:11260   */\n      0x00\n        /* \"#utility.yul\":11278:11345   */\n      tag_301\n        /* \"#utility.yul\":11342:11344   */\n      0x1d\n        /* \"#utility.yul\":11337:11340   */\n      dup4\n        /* \"#utility.yul\":11278:11345   */\n      tag_115\n      jump\t// in\n    tag_301:\n        /* \"#utility.yul\":11271:11345   */\n      swap2\n      pop\n        /* \"#utility.yul\":11354:11447   */\n      tag_302\n        /* \"#utility.yul\":11443:11446   */\n      dup3\n        /* \"#utility.yul\":11354:11447   */\n      tag_143\n      jump\t// in\n    tag_302:\n        /* \"#utility.yul\":11472:11474   */\n      0x20\n        /* \"#utility.yul\":11467:11470   */\n      dup3\n        /* \"#utility.yul\":11463:11475   */\n      add\n        /* \"#utility.yul\":11456:11475   */\n      swap1\n      pop\n        /* \"#utility.yul\":11115:11481   */\n      swap2\n      swap1\n      pop\n      jump\t// out\n        /* \"#utility.yul\":11487:11906   */\n    tag_55:\n        /* \"#utility.yul\":11653:11657   */\n      0x00\n        /* \"#utility.yul\":11691:11693   */\n      0x20\n        /* \"#utility.yul\":11680:11689   */\n      dup3\n        /* \"#utility.yul\":11676:11694   */\n      add\n        /* \"#utility.yul\":11668:11694   */\n      swap1\n      pop\n        /* \"#utility.yul\":11740:11749   */\n      dup2\n        /* \"#utility.yul\":11734:11738   */\n      dup2\n        /* \"#utility.yul\":11730:11750   */\n      sub\n        /* \"#utility.yul\":11726:11727   */\n      0x00\n        /* \"#utility.yul\":11715:11724   */\n      dup4\n        /* \"#utility.yul\":11711:11728   */\n      add\n        /* \"#utility.yul\":11704:11751   */\n      mstore\n        /* \"#utility.yul\":11768:11899   */\n      tag_304\n        /* \"#utility.yul\":11894:11898   */\n      dup2\n        /* \"#utility.yul\":11768:11899   */\n      tag_144\n      jump\t// in\n    tag_304:\n        /* \"#utility.yul\":11760:11899   */\n      swap1\n      pop\n        /* \"#utility.yul\":11487:11906   */\n      swap2\n      swap1\n      pop\n      jump\t// out\n        /* \"#utility.yul\":11912:12055   */\n    tag_145:\n        /* \"#utility.yul\":11969:11974   */\n      0x00\n        /* \"#utility.yul\":12000:12006   */\n      dup2\n        /* \"#utility.yul\":11994:12007   */\n      mload\n        /* \"#utility.yul\":11985:12007   */\n      swap1\n      pop\n        /* \"#utility.yul\":12016:12049   */\n      tag_306\n        /* \"#utility.yul\":12043:12048   */\n      dup2\n        /* \"#utility.yul\":12016:12049   */\n      tag_109\n      jump\t// in\n    tag_306:\n        /* \"#utility.yul\":11912:12055   */\n      swap3\n      swap2\n      pop\n      pop\n      jump\t// out\n        /* \"#utility.yul\":12061:12412   */\n    tag_60:\n        /* \"#utility.yul\":12131:12137   */\n      0x00\n        /* \"#utility.yul\":12180:12182   */\n      0x20\n        /* \"#utility.yul\":12168:12177   */\n      dup3\n        /* \"#utility.yul\":12159:12166   */\n      dup5\n        /* \"#utility.yul\":12155:12178   */\n      sub\n        /* \"#utility.yul\":12151:12183   */\n      slt\n        /* \"#utility.yul\":12148:12267   */\n      iszero\n      tag_308\n      jumpi\n        /* \"#utility.yul\":12186:12265   */\n      tag_309\n      tag_106\n      jump\t// in\n    tag_309:\n        /* \"#utility.yul\":12148:12267   */\n    tag_308:\n        /* \"#utility.yul\":12306:12307   */\n      0x00\n        /* \"#utility.yul\":12331:12395   */\n      tag_310\n        /* \"#utility.yul\":12387:12394   */\n      dup5\n        /* \"#utility.yul\":12378:12384   */\n      dup3\n        /* \"#utility.yul\":12367:12376   */\n      dup6\n        /* \"#utility.yul\":12363:12385   */\n      add\n        /* \"#utility.yul\":12331:12395   */\n      tag_145\n      jump\t// in\n    tag_310:\n        /* \"#utility.yul\":12321:12395   */\n      swap2\n      pop\n        /* \"#utility.yul\":12277:12405   */\n      pop\n        /* \"#utility.yul\":12061:12412   */\n      swap3\n      swap2\n      pop\n      pop\n      jump\t// out\n        /* \"#utility.yul\":12418:12646   */\n    tag_146:\n        /* \"#utility.yul\":12558:12592   */\n      0x596f7520646f6e2774206861766520656e6f756768205553444320696e207468\n        /* \"#utility.yul\":12554:12555   */\n      0x00\n        /* \"#utility.yul\":12546:12552   */\n      dup3\n        /* \"#utility.yul\":12542:12556   */\n      add\n        /* \"#utility.yul\":12535:12593   */\n      mstore\n        /* \"#utility.yul\":12627:12638   */\n      0x69732077616c6c65740000000000000000000000000000000000000000000000\n        /* \"#utility.yul\":12622:12624   */\n      0x20\n        /* \"#utility.yul\":12614:12620   */\n      dup3\n        /* \"#utility.yul\":12610:12625   */\n      add\n        /* \"#utility.yul\":12603:12639   */\n      mstore\n        /* \"#utility.yul\":12418:12646   */\n      pop\n      jump\t// out\n        /* \"#utility.yul\":12652:13018   */\n    tag_147:\n        /* \"#utility.yul\":12794:12797   */\n      0x00\n        /* \"#utility.yul\":12815:12882   */\n      tag_313\n        /* \"#utility.yul\":12879:12881   */\n      0x29\n        /* \"#utility.yul\":12874:12877   */\n      dup4\n        /* \"#utility.yul\":12815:12882   */\n      tag_115\n      jump\t// in\n    tag_313:\n        /* \"#utility.yul\":12808:12882   */\n      swap2\n      pop\n        /* \"#utility.yul\":12891:12984   */\n      tag_314\n        /* \"#utility.yul\":12980:12983   */\n      dup3\n        /* \"#utility.yul\":12891:12984   */\n      tag_146\n      jump\t// in\n    tag_314:\n        /* \"#utility.yul\":13009:13011   */\n      0x40\n        /* \"#utility.yul\":13004:13007   */\n      dup3\n        /* \"#utility.yul\":13000:13012   */\n      add\n        /* \"#utility.yul\":12993:13012   */\n      swap1\n      pop\n        /* \"#utility.yul\":12652:13018   */\n      swap2\n      swap1\n      pop\n      jump\t// out\n        /* \"#utility.yul\":13024:13443   */\n    tag_63:\n        /* \"#utility.yul\":13190:13194   */\n      0x00\n        /* \"#utility.yul\":13228:13230   */\n      0x20\n        /* \"#utility.yul\":13217:13226   */\n      dup3\n        /* \"#utility.yul\":13213:13231   */\n      add\n        /* \"#utility.yul\":13205:13231   */\n      swap1\n      pop\n        /* \"#utility.yul\":13277:13286   */\n      dup2\n        /* \"#utility.yul\":13271:13275   */\n      dup2\n        /* \"#utility.yul\":13267:13287   */\n      sub\n        /* \"#utility.yul\":13263:13264   */\n      0x00\n        /* \"#utility.yul\":13252:13261   */\n      dup4\n        /* \"#utility.yul\":13248:13265   */\n      add\n        /* \"#utility.yul\":13241:13288   */\n      mstore\n        /* \"#utility.yul\":13305:13436   */\n      tag_316\n        /* \"#utility.yul\":13431:13435   */\n      dup2\n        /* \"#utility.yul\":13305:13436   */\n      tag_147\n      jump\t// in\n    tag_316:\n        /* \"#utility.yul\":13297:13436   */\n      swap1\n      pop\n        /* \"#utility.yul\":13024:13443   */\n      swap2\n      swap1\n      pop\n      jump\t// out\n        /* \"#utility.yul\":13449:13627   */\n    tag_148:\n        /* \"#utility.yul\":13589:13619   */\n      0x5072696365206d7573742062652067726561746572207468616e203000000000\n        /* \"#utility.yul\":13585:13586   */\n      0x00\n        /* \"#utility.yul\":13577:13583   */\n      dup3\n        /* \"#utility.yul\":13573:13587   */\n      add\n        /* \"#utility.yul\":13566:13620   */\n      mstore\n        /* \"#utility.yul\":13449:13627   */\n      pop\n      jump\t// out\n        /* \"#utility.yul\":13633:13999   */\n    tag_149:\n        /* \"#utility.yul\":13775:13778   */\n      0x00\n        /* \"#utility.yul\":13796:13863   */\n      tag_319\n        /* \"#utility.yul\":13860:13862   */\n      0x1c\n        /* \"#utility.yul\":13855:13858   */\n      dup4\n        /* \"#utility.yul\":13796:13863   */\n      tag_115\n      jump\t// in\n    tag_319:\n        /* \"#utility.yul\":13789:13863   */\n      swap2\n      pop\n        /* \"#utility.yul\":13872:13965   */\n      tag_320\n        /* \"#utility.yul\":13961:13964   */\n      dup3\n        /* \"#utility.yul\":13872:13965   */\n      tag_148\n      jump\t// in\n    tag_320:\n        /* \"#utility.yul\":13990:13992   */\n      0x20\n        /* \"#utility.yul\":13985:13988   */\n      dup3\n        /* \"#utility.yul\":13981:13993   */\n      add\n        /* \"#utility.yul\":13974:13993   */\n      swap1\n      pop\n        /* \"#utility.yul\":13633:13999   */\n      swap2\n      swap1\n      pop\n      jump\t// out\n        /* \"#utility.yul\":14005:14424   */\n    tag_66:\n        /* \"#utility.yul\":14171:14175   */\n      0x00\n        /* \"#utility.yul\":14209:14211   */\n      0x20\n        /* \"#utility.yul\":14198:14207   */\n      dup3\n        /* \"#utility.yul\":14194:14212   */\n      add\n        /* \"#utility.yul\":14186:14212   */\n      swap1\n      pop\n        /* \"#utility.yul\":14258:14267   */\n      dup2\n        /* \"#utility.yul\":14252:14256   */\n      dup2\n        /* \"#utility.yul\":14248:14268   */\n      sub\n        /* \"#utility.yul\":14244:14245   */\n      0x00\n        /* \"#utility.yul\":14233:14242   */\n      dup4\n        /* \"#utility.yul\":14229:14246   */\n      add\n        /* \"#utility.yul\":14222:14269   */\n      mstore\n        /* \"#utility.yul\":14286:14417   */\n      tag_322\n        /* \"#utility.yul\":14412:14416   */\n      dup2\n        /* \"#utility.yul\":14286:14417   */\n      tag_149\n      jump\t// in\n    tag_322:\n        /* \"#utility.yul\":14278:14417   */\n      swap1\n      pop\n        /* \"#utility.yul\":14005:14424   */\n      swap2\n      swap1\n      pop\n      jump\t// out\n        /* \"#utility.yul\":14430:14609   */\n    tag_150:\n        /* \"#utility.yul\":14570:14601   */\n      0x5061796d656e74206d6574686f6420646f6573206e6f74206578697374000000\n        /* \"#utility.yul\":14566:14567   */\n      0x00\n        /* \"#utility.yul\":14558:14564   */\n      dup3\n        /* \"#utility.yul\":14554:14568   */\n      add\n        /* \"#utility.yul\":14547:14602   */\n      mstore\n        /* \"#utility.yul\":14430:14609   */\n      pop\n      jump\t// out\n        /* \"#utility.yul\":14615:14981   */\n    tag_151:\n        /* \"#utility.yul\":14757:14760   */\n      0x00\n        /* \"#utility.yul\":14778:14845   */\n      tag_325\n        /* \"#utility.yul\":14842:14844   */\n      0x1d\n        /* \"#utility.yul\":14837:14840   */\n      dup4\n        /* \"#utility.yul\":14778:14845   */\n      tag_115\n      jump\t// in\n    tag_325:\n        /* \"#utility.yul\":14771:14845   */\n      swap2\n      pop\n        /* \"#utility.yul\":14854:14947   */\n      tag_326\n        /* \"#utility.yul\":14943:14946   */\n      dup3\n        /* \"#utility.yul\":14854:14947   */\n      tag_150\n      jump\t// in\n    tag_326:\n        /* \"#utility.yul\":14972:14974   */\n      0x20\n        /* \"#utility.yul\":14967:14970   */\n      dup3\n        /* \"#utility.yul\":14963:14975   */\n      add\n        /* \"#utility.yul\":14956:14975   */\n      swap1\n      pop\n        /* \"#utility.yul\":14615:14981   */\n      swap2\n      swap1\n      pop\n      jump\t// out\n        /* \"#utility.yul\":14987:15406   */\n    tag_72:\n        /* \"#utility.yul\":15153:15157   */\n      0x00\n        /* \"#utility.yul\":15191:15193   */\n      0x20\n        /* \"#utility.yul\":15180:15189   */\n      dup3\n        /* \"#utility.yul\":15176:15194   */\n      add\n        /* \"#utility.yul\":15168:15194   */\n      swap1\n      pop\n        /* \"#utility.yul\":15240:15249   */\n      dup2\n        /* \"#utility.yul\":15234:15238   */\n      dup2\n        /* \"#utility.yul\":15230:15250   */\n      sub\n        /* \"#utility.yul\":15226:15227   */\n      0x00\n        /* \"#utility.yul\":15215:15224   */\n      dup4\n        /* \"#utility.yul\":15211:15228   */\n      add\n        /* \"#utility.yul\":15204:15251   */\n      mstore\n        /* \"#utility.yul\":15268:15399   */\n      tag_328\n        /* \"#utility.yul\":15394:15398   */\n      dup2\n        /* \"#utility.yul\":15268:15399   */\n      tag_151\n      jump\t// in\n    tag_328:\n        /* \"#utility.yul\":15260:15399   */\n      swap1\n      pop\n        /* \"#utility.yul\":14987:15406   */\n      swap2\n      swap1\n      pop\n      jump\t// out\n        /* \"#utility.yul\":15412:15594   */\n    tag_152:\n        /* \"#utility.yul\":15552:15586   */\n      0x7061796d656e7444657461696c73206d757374206e6f7420626520656d707479\n        /* \"#utility.yul\":15548:15549   */\n      0x00\n        /* \"#utility.yul\":15540:15546   */\n      dup3\n        /* \"#utility.yul\":15536:15550   */\n      add\n        /* \"#utility.yul\":15529:15587   */\n      mstore\n        /* \"#utility.yul\":15412:15594   */\n      pop\n      jump\t// out\n        /* \"#utility.yul\":15600:15966   */\n    tag_153:\n        /* \"#utility.yul\":15742:15745   */\n      0x00\n        /* \"#utility.yul\":15763:15830   */\n      tag_331\n        /* \"#utility.yul\":15827:15829   */\n      0x20\n        /* \"#utility.yul\":15822:15825   */\n      dup4\n        /* \"#utility.yul\":15763:15830   */\n      tag_115\n      jump\t// in\n    tag_331:\n        /* \"#utility.yul\":15756:15830   */\n      swap2\n      pop\n        /* \"#utility.yul\":15839:15932   */\n      tag_332\n        /* \"#utility.yul\":15928:15931   */\n      dup3\n        /* \"#utility.yul\":15839:15932   */\n      tag_152\n      jump\t// in\n    tag_332:\n        /* \"#utility.yul\":15957:15959   */\n      0x20\n        /* \"#utility.yul\":15952:15955   */\n      dup3\n        /* \"#utility.yul\":15948:15960   */\n      add\n        /* \"#utility.yul\":15941:15960   */\n      swap1\n      pop\n        /* \"#utility.yul\":15600:15966   */\n      swap2\n      swap1\n      pop\n      jump\t// out\n        /* \"#utility.yul\":15972:16391   */\n    tag_75:\n        /* \"#utility.yul\":16138:16142   */\n      0x00\n        /* \"#utility.yul\":16176:16178   */\n      0x20\n        /* \"#utility.yul\":16165:16174   */\n      dup3\n        /* \"#utility.yul\":16161:16179   */\n      add\n        /* \"#utility.yul\":16153:16179   */\n      swap1\n      pop\n        /* \"#utility.yul\":16225:16234   */\n      dup2\n        /* \"#utility.yul\":16219:16223   */\n      dup2\n        /* \"#utility.yul\":16215:16235   */\n      sub\n        /* \"#utility.yul\":16211:16212   */\n      0x00\n        /* \"#utility.yul\":16200:16209   */\n      dup4\n        /* \"#utility.yul\":16196:16213   */\n      add\n        /* \"#utility.yul\":16189:16236   */\n      mstore\n        /* \"#utility.yul\":16253:16384   */\n      tag_334\n        /* \"#utility.yul\":16379:16383   */\n      dup2\n        /* \"#utility.yul\":16253:16384   */\n      tag_153\n      jump\t// in\n    tag_334:\n        /* \"#utility.yul\":16245:16384   */\n      swap1\n      pop\n        /* \"#utility.yul\":15972:16391   */\n      swap2\n      swap1\n      pop\n      jump\t// out\n        /* \"#utility.yul\":16397:16545   */\n    tag_154:\n        /* \"#utility.yul\":16499:16510   */\n      0x00\n        /* \"#utility.yul\":16536:16539   */\n      dup2\n        /* \"#utility.yul\":16521:16539   */\n      swap1\n      pop\n        /* \"#utility.yul\":16397:16545   */\n      swap3\n      swap2\n      pop\n      pop\n      jump\t// out\n        /* \"#utility.yul\":16551:16941   */\n    tag_155:\n        /* \"#utility.yul\":16657:16660   */\n      0x00\n        /* \"#utility.yul\":16685:16724   */\n      tag_337\n        /* \"#utility.yul\":16718:16723   */\n      dup3\n        /* \"#utility.yul\":16685:16724   */\n      tag_114\n      jump\t// in\n    tag_337:\n        /* \"#utility.yul\":16740:16829   */\n      tag_338\n        /* \"#utility.yul\":16822:16828   */\n      dup2\n        /* \"#utility.yul\":16817:16820   */\n      dup6\n        /* \"#utility.yul\":16740:16829   */\n      tag_154\n      jump\t// in\n    tag_338:\n        /* \"#utility.yul\":16733:16829   */\n      swap4\n      pop\n        /* \"#utility.yul\":16838:16903   */\n      tag_339\n        /* \"#utility.yul\":16896:16902   */\n      dup2\n        /* \"#utility.yul\":16891:16894   */\n      dup6\n        /* \"#utility.yul\":16884:16888   */\n      0x20\n        /* \"#utility.yul\":16877:16882   */\n      dup7\n        /* \"#utility.yul\":16873:16889   */\n      add\n        /* \"#utility.yul\":16838:16903   */\n      tag_116\n      jump\t// in\n    tag_339:\n        /* \"#utility.yul\":16928:16934   */\n      dup1\n        /* \"#utility.yul\":16923:16926   */\n      dup5\n        /* \"#utility.yul\":16919:16935   */\n      add\n        /* \"#utility.yul\":16912:16935   */\n      swap2\n      pop\n        /* \"#utility.yul\":16661:16941   */\n      pop\n        /* \"#utility.yul\":16551:16941   */\n      swap3\n      swap2\n      pop\n      pop\n      jump\t// out\n        /* \"#utility.yul\":16947:17222   */\n    tag_77:\n        /* \"#utility.yul\":17079:17082   */\n      0x00\n        /* \"#utility.yul\":17101:17196   */\n      tag_341\n        /* \"#utility.yul\":17192:17195   */\n      dup3\n        /* \"#utility.yul\":17183:17189   */\n      dup5\n        /* \"#utility.yul\":17101:17196   */\n      tag_155\n      jump\t// in\n    tag_341:\n        /* \"#utility.yul\":17094:17196   */\n      swap2\n      pop\n        /* \"#utility.yul\":17213:17216   */\n      dup2\n        /* \"#utility.yul\":17206:17216   */\n      swap1\n      pop\n        /* \"#utility.yul\":16947:17222   */\n      swap3\n      swap2\n      pop\n      pop\n      jump\t// out\n        /* \"#utility.yul\":17228:17369   */\n    tag_156:\n        /* \"#utility.yul\":17277:17281   */\n      0x00\n        /* \"#utility.yul\":17300:17303   */\n      dup2\n        /* \"#utility.yul\":17292:17303   */\n      swap1\n      pop\n        /* \"#utility.yul\":17323:17326   */\n      dup2\n        /* \"#utility.yul\":17320:17321   */\n      0x00\n        /* \"#utility.yul\":17313:17327   */\n      mstore\n        /* \"#utility.yul\":17357:17361   */\n      0x20\n        /* \"#utility.yul\":17354:17355   */\n      0x00\n        /* \"#utility.yul\":17344:17362   */\n      keccak256\n        /* \"#utility.yul\":17336:17362   */\n      swap1\n      pop\n        /* \"#utility.yul\":17228:17369   */\n      swap2\n      swap1\n      pop\n      jump\t// out\n        /* \"#utility.yul\":17375:17468   */\n    tag_157:\n        /* \"#utility.yul\":17412:17418   */\n      0x00\n        /* \"#utility.yul\":17459:17461   */\n      0x20\n        /* \"#utility.yul\":17454:17456   */\n      0x1f\n        /* \"#utility.yul\":17447:17452   */\n      dup4\n        /* \"#utility.yul\":17443:17457   */\n      add\n        /* \"#utility.yul\":17439:17462   */\n      div\n        /* \"#utility.yul\":17429:17462   */\n      swap1\n      pop\n        /* \"#utility.yul\":17375:17468   */\n      swap2\n      swap1\n      pop\n      jump\t// out\n        /* \"#utility.yul\":17474:17581   */\n    tag_158:\n        /* \"#utility.yul\":17518:17526   */\n      0x00\n        /* \"#utility.yul\":17568:17573   */\n      dup3\n        /* \"#utility.yul\":17562:17566   */\n      dup3\n        /* \"#utility.yul\":17558:17574   */\n      shl\n        /* \"#utility.yul\":17537:17574   */\n      swap1\n      pop\n        /* \"#utility.yul\":17474:17581   */\n      swap3\n      swap2\n      pop\n      pop\n      jump\t// out\n        /* \"#utility.yul\":17587:17980   */\n    tag_159:\n        /* \"#utility.yul\":17656:17662   */\n      0x00\n        /* \"#utility.yul\":17706:17707   */\n      0x08\n        /* \"#utility.yul\":17694:17704   */\n      dup4\n        /* \"#utility.yul\":17690:17708   */\n      mul\n        /* \"#utility.yul\":17729:17826   */\n      tag_346\n        /* \"#utility.yul\":17759:17825   */\n      0xffffffffffffffffffffffffffffffffffffffffffffffffffffffffffffffff\n        /* \"#utility.yul\":17748:17757   */\n      dup3\n        /* \"#utility.yul\":17729:17826   */\n      tag_158\n      jump\t// in\n    tag_346:\n        /* \"#utility.yul\":17847:17886   */\n      tag_347\n        /* \"#utility.yul\":17877:17885   */\n      dup7\n        /* \"#utility.yul\":17866:17875   */\n      dup4\n        /* \"#utility.yul\":17847:17886   */\n      tag_158\n      jump\t// in\n    tag_347:\n        /* \"#utility.yul\":17835:17886   */\n      swap6\n      pop\n        /* \"#utility.yul\":17919:17923   */\n      dup1\n        /* \"#utility.yul\":17915:17924   */\n      not\n        /* \"#utility.yul\":17908:17913   */\n      dup5\n        /* \"#utility.yul\":17904:17925   */\n      and\n        /* \"#utility.yul\":17895:17925   */\n      swap4\n      pop\n        /* \"#utility.yul\":17968:17972   */\n      dup1\n        /* \"#utility.yul\":17958:17966   */\n      dup7\n        /* \"#utility.yul\":17954:17973   */\n      and\n        /* \"#utility.yul\":17947:17952   */\n      dup5\n        /* \"#utility.yul\":17944:17974   */\n      or\n        /* \"#utility.yul\":17934:17974   */\n      swap3\n      pop\n        /* \"#utility.yul\":17663:17980   */\n      pop\n      pop\n        /* \"#utility.yul\":17587:17980   */\n      swap4\n      swap3\n      pop\n      pop\n      pop\n      jump\t// out\n        /* \"#utility.yul\":17986:18128   */\n    tag_160:\n        /* \"#utility.yul\":18036:18045   */\n      0x00\n        /* \"#utility.yul\":18069:18122   */\n      tag_349\n        /* \"#utility.yul\":18087:18121   */\n      tag_350\n        /* \"#utility.yul\":18096:18120   */\n      tag_351\n        /* \"#utility.yul\":18114:18119   */\n      dup5\n        /* \"#utility.yul\":18096:18120   */\n      tag_108\n      jump\t// in\n    tag_351:\n        /* \"#utility.yul\":18087:18121   */\n      tag_133\n      jump\t// in\n    tag_350:\n        /* \"#utility.yul\":18069:18122   */\n      tag_108\n      jump\t// in\n    tag_349:\n        /* \"#utility.yul\":18056:18122   */\n      swap1\n      pop\n        /* \"#utility.yul\":17986:18128   */\n      swap2\n      swap1\n      pop\n      jump\t// out\n        /* \"#utility.yul\":18134:18209   */\n    tag_161:\n        /* \"#utility.yul\":18177:18180   */\n      0x00\n        /* \"#utility.yul\":18198:18203   */\n      dup2\n        /* \"#utility.yul\":18191:18203   */\n      swap1\n      pop\n        /* \"#utility.yul\":18134:18209   */\n      swap2\n      swap1\n      pop\n      jump\t// out\n        /* \"#utility.yul\":18215:18484   */\n    tag_162:\n        /* \"#utility.yul\":18325:18364   */\n      tag_354\n        /* \"#utility.yul\":18356:18363   */\n      dup4\n        /* \"#utility.yul\":18325:18364   */\n      tag_160\n      jump\t// in\n    tag_354:\n        /* \"#utility.yul\":18386:18477   */\n      tag_355\n        /* \"#utility.yul\":18435:18476   */\n      tag_356\n        /* \"#utility.yul\":18459:18475   */\n      dup3\n        /* \"#utility.yul\":18435:18476   */\n      tag_161\n      jump\t// in\n    tag_356:\n        /* \"#utility.yul\":18427:18433   */\n      dup5\n        /* \"#utility.yul\":18420:18424   */\n      dup5\n        /* \"#utility.yul\":18414:18425   */\n      sload\n        /* \"#utility.yul\":18386:18477   */\n      tag_159\n      jump\t// in\n    tag_355:\n        /* \"#utility.yul\":18380:18384   */\n      dup3\n        /* \"#utility.yul\":18373:18478   */\n      sstore\n        /* \"#utility.yul\":18291:18484   */\n      pop\n        /* \"#utility.yul\":18215:18484   */\n      pop\n      pop\n      pop\n      jump\t// out\n        /* \"#utility.yul\":18490:18563   */\n    tag_163:\n        /* \"#utility.yul\":18535:18538   */\n      0x00\n        /* \"#utility.yul\":18490:18563   */\n      swap1\n      jump\t// out\n        /* \"#utility.yul\":18569:18758   */\n    tag_164:\n        /* \"#utility.yul\":18646:18678   */\n      tag_359\n      tag_163\n      jump\t// in\n    tag_359:\n        /* \"#utility.yul\":18687:18752   */\n      tag_360\n        /* \"#utility.yul\":18745:18751   */\n      dup2\n        /* \"#utility.yul\":18737:18743   */\n      dup5\n        /* \"#utility.yul\":18731:18735   */\n      dup5\n        /* \"#utility.yul\":18687:18752   */\n      tag_162\n      jump\t// in\n    tag_360:\n        /* \"#utility.yul\":18622:18758   */\n      pop\n        /* \"#utility.yul\":18569:18758   */\n      pop\n      pop\n      jump\t// out\n        /* \"#utility.yul\":18764:18950   */\n    tag_165:\n        /* \"#utility.yul\":18824:18944   */\n    tag_362:\n        /* \"#utility.yul\":18841:18844   */\n      dup2\n        /* \"#utility.yul\":18834:18839   */\n      dup2\n        /* \"#utility.yul\":18831:18845   */\n      lt\n        /* \"#utility.yul\":18824:18944   */\n      iszero\n      tag_364\n      jumpi\n        /* \"#utility.yul\":18895:18934   */\n      tag_365\n        /* \"#utility.yul\":18932:18933   */\n      0x00\n        /* \"#utility.yul\":18925:18930   */\n      dup3\n        /* \"#utility.yul\":18895:18934   */\n      tag_164\n      jump\t// in\n    tag_365:\n        /* \"#utility.yul\":18868:18869   */\n      0x01\n        /* \"#utility.yul\":18861:18866   */\n      dup2\n        /* \"#utility.yul\":18857:18870   */\n      add\n        /* \"#utility.yul\":18848:18870   */\n      swap1\n      pop\n        /* \"#utility.yul\":18824:18944   */\n      jump(tag_362)\n    tag_364:\n        /* \"#utility.yul\":18764:18950   */\n      pop\n      pop\n      jump\t// out\n        /* \"#utility.yul\":18956:19499   */\n    tag_166:\n        /* \"#utility.yul\":19057:19059   */\n      0x1f\n        /* \"#utility.yul\":19052:19055   */\n      dup3\n        /* \"#utility.yul\":19049:19060   */\n      gt\n        /* \"#utility.yul\":19046:19492   */\n      iszero\n      tag_367\n      jumpi\n        /* \"#utility.yul\":19091:19129   */\n      tag_368\n        /* \"#utility.yul\":19123:19128   */\n      dup2\n        /* \"#utility.yul\":19091:19129   */\n      tag_156\n      jump\t// in\n    tag_368:\n        /* \"#utility.yul\":19175:19204   */\n      tag_369\n        /* \"#utility.yul\":19193:19203   */\n      dup5\n        /* \"#utility.yul\":19175:19204   */\n      tag_157\n      jump\t// in\n    tag_369:\n        /* \"#utility.yul\":19165:19173   */\n      dup2\n        /* \"#utility.yul\":19161:19205   */\n      add\n        /* \"#utility.yul\":19358:19360   */\n      0x20\n        /* \"#utility.yul\":19346:19356   */\n      dup6\n        /* \"#utility.yul\":19343:19361   */\n      lt\n        /* \"#utility.yul\":19340:19389   */\n      iszero\n      tag_370\n      jumpi\n        /* \"#utility.yul\":19379:19387   */\n      dup2\n        /* \"#utility.yul\":19364:19387   */\n      swap1\n      pop\n        /* \"#utility.yul\":19340:19389   */\n    tag_370:\n        /* \"#utility.yul\":19402:19482   */\n      tag_371\n        /* \"#utility.yul\":19458:19480   */\n      tag_372\n        /* \"#utility.yul\":19476:19479   */\n      dup6\n        /* \"#utility.yul\":19458:19480   */\n      tag_157\n      jump\t// in\n    tag_372:\n        /* \"#utility.yul\":19448:19456   */\n      dup4\n        /* \"#utility.yul\":19444:19481   */\n      add\n        /* \"#utility.yul\":19431:19442   */\n      dup3\n        /* \"#utility.yul\":19402:19482   */\n      tag_165\n      jump\t// in\n    tag_371:\n        /* \"#utility.yul\":19061:19492   */\n      pop\n      pop\n        /* \"#utility.yul\":19046:19492   */\n    tag_367:\n        /* \"#utility.yul\":18956:19499   */\n      pop\n      pop\n      pop\n      jump\t// out\n        /* \"#utility.yul\":19505:19622   */\n    tag_167:\n        /* \"#utility.yul\":19559:19567   */\n      0x00\n        /* \"#utility.yul\":19609:19614   */\n      dup3\n        /* \"#utility.yul\":19603:19607   */\n      dup3\n        /* \"#utility.yul\":19599:19615   */\n      shr\n        /* \"#utility.yul\":19578:19615   */\n      swap1\n      pop\n        /* \"#utility.yul\":19505:19622   */\n      swap3\n      swap2\n      pop\n      pop\n      jump\t// out\n        /* \"#utility.yul\":19628:19797   */\n    tag_168:\n        /* \"#utility.yul\":19672:19678   */\n      0x00\n        /* \"#utility.yul\":19705:19756   */\n      tag_375\n        /* \"#utility.yul\":19753:19754   */\n      0x00\n        /* \"#utility.yul\":19749:19755   */\n      not\n        /* \"#utility.yul\":19741:19746   */\n      dup5\n        /* \"#utility.yul\":19738:19739   */\n      0x08\n        /* \"#utility.yul\":19734:19747   */\n      mul\n        /* \"#utility.yul\":19705:19756   */\n      tag_167\n      jump\t// in\n    tag_375:\n        /* \"#utility.yul\":19701:19757   */\n      not\n        /* \"#utility.yul\":19786:19790   */\n      dup1\n        /* \"#utility.yul\":19780:19784   */\n      dup4\n        /* \"#utility.yul\":19776:19791   */\n      and\n        /* \"#utility.yul\":19766:19791   */\n      swap2\n      pop\n        /* \"#utility.yul\":19679:19797   */\n      pop\n        /* \"#utility.yul\":19628:19797   */\n      swap3\n      swap2\n      pop\n      pop\n      jump\t// out\n        /* \"#utility.yul\":19802:20097   */\n    tag_169:\n        /* \"#utility.yul\":19878:19882   */\n      0x00\n        /* \"#utility.yul\":20024:20053   */\n      tag_377\n        /* \"#utility.yul\":20049:20052   */\n      dup4\n        /* \"#utility.yul\":20043:20047   */\n      dup4\n        /* \"#utility.yul\":20024:20053   */\n      tag_168\n      jump\t// in\n    tag_377:\n        /* \"#utility.yul\":20016:20053   */\n      swap2\n      pop\n        /* \"#utility.yul\":20086:20089   */\n      dup3\n        /* \"#utility.yul\":20083:20084   */\n      0x02\n        /* \"#utility.yul\":20079:20090   */\n      mul\n        /* \"#utility.yul\":20073:20077   */\n      dup3\n        /* \"#utility.yul\":20070:20091   */\n      or\n        /* \"#utility.yul\":20062:20091   */\n      swap1\n      pop\n        /* \"#utility.yul\":19802:20097   */\n      swap3\n      swap2\n      pop\n      pop\n      jump\t// out\n        /* \"#utility.yul\":20102:21497   */\n    tag_80:\n        /* \"#utility.yul\":20219:20256   */\n      tag_379\n        /* \"#utility.yul\":20252:20255   */\n      dup3\n        /* \"#utility.yul\":20219:20256   */\n      tag_114\n      jump\t// in\n    tag_379:\n        /* \"#utility.yul\":20321:20339   */\n      0xffffffffffffffff\n        /* \"#utility.yul\":20313:20319   */\n      dup2\n        /* \"#utility.yul\":20310:20340   */\n      gt\n        /* \"#utility.yul\":20307:20363   */\n      iszero\n      tag_380\n      jumpi\n        /* \"#utility.yul\":20343:20361   */\n      tag_381\n      tag_126\n      jump\t// in\n    tag_381:\n        /* \"#utility.yul\":20307:20363   */\n    tag_380:\n        /* \"#utility.yul\":20387:20425   */\n      tag_382\n        /* \"#utility.yul\":20419:20423   */\n      dup3\n        /* \"#utility.yul\":20413:20424   */\n      sload\n        /* \"#utility.yul\":20387:20425   */\n      tag_42\n      jump\t// in\n    tag_382:\n        /* \"#utility.yul\":20472:20539   */\n      tag_383\n        /* \"#utility.yul\":20532:20538   */\n      dup3\n        /* \"#utility.yul\":20524:20530   */\n      dup3\n        /* \"#utility.yul\":20518:20522   */\n      dup6\n        /* \"#utility.yul\":20472:20539   */\n      tag_166\n      jump\t// in\n    tag_383:\n        /* \"#utility.yul\":20566:20567   */\n      0x00\n        /* \"#utility.yul\":20590:20594   */\n      0x20\n        /* \"#utility.yul\":20577:20594   */\n      swap1\n      pop\n        /* \"#utility.yul\":20622:20624   */\n      0x1f\n        /* \"#utility.yul\":20614:20620   */\n      dup4\n        /* \"#utility.yul\":20611:20625   */\n      gt\n        /* \"#utility.yul\":20639:20640   */\n      0x01\n        /* \"#utility.yul\":20634:21252   */\n      dup2\n      eq\n      tag_385\n      jumpi\n        /* \"#utility.yul\":21296:21297   */\n      0x00\n        /* \"#utility.yul\":21313:21319   */\n      dup5\n        /* \"#utility.yul\":21310:21387   */\n      iszero\n      tag_386\n      jumpi\n        /* \"#utility.yul\":21362:21371   */\n      dup3\n        /* \"#utility.yul\":21357:21360   */\n      dup8\n        /* \"#utility.yul\":21353:21372   */\n      add\n        /* \"#utility.yul\":21347:21373   */\n      mload\n        /* \"#utility.yul\":21338:21373   */\n      swap1\n      pop\n        /* \"#utility.yul\":21310:21387   */\n    tag_386:\n        /* \"#utility.yul\":21413:21480   */\n      tag_387\n        /* \"#utility.yul\":21473:21479   */\n      dup6\n        /* \"#utility.yul\":21466:21471   */\n      dup3\n        /* \"#utility.yul\":21413:21480   */\n      tag_169\n      jump\t// in\n    tag_387:\n        /* \"#utility.yul\":21407:21411   */\n      dup7\n        /* \"#utility.yul\":21400:21481   */\n      sstore\n        /* \"#utility.yul\":21269:21491   */\n      pop\n        /* \"#utility.yul\":20604:21491   */\n      jump(tag_384)\n        /* \"#utility.yul\":20634:21252   */\n    tag_385:\n        /* \"#utility.yul\":20686:20690   */\n      0x1f\n        /* \"#utility.yul\":20682:20691   */\n      not\n        /* \"#utility.yul\":20674:20680   */\n      dup5\n        /* \"#utility.yul\":20670:20692   */\n      and\n        /* \"#utility.yul\":20720:20757   */\n      tag_388\n        /* \"#utility.yul\":20752:20756   */\n      dup7\n        /* \"#utility.yul\":20720:20757   */\n      tag_156\n      jump\t// in\n    tag_388:\n        /* \"#utility.yul\":20779:20780   */\n      0x00\n        /* \"#utility.yul\":20793:21001   */\n    tag_389:\n        /* \"#utility.yul\":20807:20814   */\n      dup3\n        /* \"#utility.yul\":20804:20805   */\n      dup2\n        /* \"#utility.yul\":20801:20815   */\n      lt\n        /* \"#utility.yul\":20793:21001   */\n      iszero\n      tag_391\n      jumpi\n        /* \"#utility.yul\":20886:20895   */\n      dup5\n        /* \"#utility.yul\":20881:20884   */\n      dup10\n        /* \"#utility.yul\":20877:20896   */\n      add\n        /* \"#utility.yul\":20871:20897   */\n      mload\n        /* \"#utility.yul\":20863:20869   */\n      dup3\n        /* \"#utility.yul\":20856:20898   */\n      sstore\n        /* \"#utility.yul\":20937:20938   */\n      0x01\n        /* \"#utility.yul\":20929:20935   */\n      dup3\n        /* \"#utility.yul\":20925:20939   */\n      add\n        /* \"#utility.yul\":20915:20939   */\n      swap2\n      pop\n        /* \"#utility.yul\":20984:20986   */\n      0x20\n        /* \"#utility.yul\":20973:20982   */\n      dup6\n        /* \"#utility.yul\":20969:20987   */\n      add\n        /* \"#utility.yul\":20956:20987   */\n      swap5\n      pop\n        /* \"#utility.yul\":20830:20834   */\n      0x20\n        /* \"#utility.yul\":20827:20828   */\n      dup2\n        /* \"#utility.yul\":20823:20835   */\n      add\n        /* \"#utility.yul\":20818:20835   */\n      swap1\n      pop\n        /* \"#utility.yul\":20793:21001   */\n      jump(tag_389)\n    tag_391:\n        /* \"#utility.yul\":21029:21035   */\n      dup7\n        /* \"#utility.yul\":21020:21027   */\n      dup4\n        /* \"#utility.yul\":21017:21036   */\n      lt\n        /* \"#utility.yul\":21014:21193   */\n      iszero\n      tag_392\n      jumpi\n        /* \"#utility.yul\":21087:21096   */\n      dup5\n        /* \"#utility.yul\":21082:21085   */\n      dup10\n        /* \"#utility.yul\":21078:21097   */\n      add\n        /* \"#utility.yul\":21072:21098   */\n      mload\n        /* \"#utility.yul\":21130:21178   */\n      tag_393\n        /* \"#utility.yul\":21172:21176   */\n      0x1f\n        /* \"#utility.yul\":21164:21170   */\n      dup10\n        /* \"#utility.yul\":21160:21177   */\n      and\n        /* \"#utility.yul\":21149:21158   */\n      dup3\n        /* \"#utility.yul\":21130:21178   */\n      tag_168\n      jump\t// in\n    tag_393:\n        /* \"#utility.yul\":21122:21128   */\n      dup4\n        /* \"#utility.yul\":21115:21179   */\n      sstore\n        /* \"#utility.yul\":21037:21193   */\n      pop\n        /* \"#utility.yul\":21014:21193   */\n    tag_392:\n        /* \"#utility.yul\":21239:21240   */\n      0x01\n        /* \"#utility.yul\":21235:21236   */\n      0x02\n        /* \"#utility.yul\":21227:21233   */\n      dup9\n        /* \"#utility.yul\":21223:21237   */\n      mul\n        /* \"#utility.yul\":21219:21241   */\n      add\n        /* \"#utility.yul\":21213:21217   */\n      dup9\n        /* \"#utility.yul\":21206:21242   */\n      sstore\n        /* \"#utility.yul\":20641:21252   */\n      pop\n      pop\n      pop\n        /* \"#utility.yul\":20604:21491   */\n    tag_384:\n      pop\n        /* \"#utility.yul\":20194:21497   */\n      pop\n      pop\n      pop\n        /* \"#utility.yul\":20102:21497   */\n      pop\n      pop\n      jump\t// out\n        /* \"#utility.yul\":21503:21728   */\n    tag_170:\n        /* \"#utility.yul\":21643:21677   */\n      0x4f776e61626c653a206e6577206f776e657220697320746865207a65726f2061\n        /* \"#utility.yul\":21639:21640   */\n      0x00\n        /* \"#utility.yul\":21631:21637   */\n      dup3\n        /* \"#utility.yul\":21627:21641   */\n      add\n        /* \"#utility.yul\":21620:21678   */\n      mstore\n        /* \"#utility.yul\":21712:21720   */\n      0x6464726573730000000000000000000000000000000000000000000000000000\n        /* \"#utility.yul\":21707:21709   */\n      0x20\n        /* \"#utility.yul\":21699:21705   */\n      dup3\n        /* \"#utility.yul\":21695:21710   */\n      add\n        /* \"#utility.yul\":21688:21721   */\n      mstore\n        /* \"#utility.yul\":21503:21728   */\n      pop\n      jump\t// out\n        /* \"#utility.yul\":21734:22100   */\n    tag_171:\n        /* \"#utility.yul\":21876:21879   */\n      0x00\n        /* \"#utility.yul\":21897:21964   */\n      tag_396\n        /* \"#utility.yul\":21961:21963   */\n      0x26\n        /* \"#utility.yul\":21956:21959   */\n      dup4\n        /* \"#utility.yul\":21897:21964   */\n      tag_115\n      jump\t// in\n    tag_396:\n        /* \"#utility.yul\":21890:21964   */\n      swap2\n      pop\n        /* \"#utility.yul\":21973:22066   */\n      tag_397\n        /* \"#utility.yul\":22062:22065   */\n      dup3\n        /* \"#utility.yul\":21973:22066   */\n      tag_170\n      jump\t// in\n    tag_397:\n        /* \"#utility.yul\":22091:22093   */\n      0x40\n        /* \"#utility.yul\":22086:22089   */\n      dup3\n        /* \"#utility.yul\":22082:22094   */\n      add\n        /* \"#utility.yul\":22075:22094   */\n      swap1\n      pop\n        /* \"#utility.yul\":21734:22100   */\n      swap2\n      swap1\n      pop\n      jump\t// out\n        /* \"#utility.yul\":22106:22525   */\n    tag_94:\n        /* \"#utility.yul\":22272:22276   */\n      0x00\n        /* \"#utility.yul\":22310:22312   */\n      0x20\n        /* \"#utility.yul\":22299:22308   */\n      dup3\n        /* \"#utility.yul\":22295:22313   */\n      add\n        /* \"#utility.yul\":22287:22313   */\n      swap1\n      pop\n        /* \"#utility.yul\":22359:22368   */\n      dup2\n        /* \"#utility.yul\":22353:22357   */\n      dup2\n        /* \"#utility.yul\":22349:22369   */\n      sub\n        /* \"#utility.yul\":22345:22346   */\n      0x00\n        /* \"#utility.yul\":22334:22343   */\n      dup4\n        /* \"#utility.yul\":22330:22347   */\n      add\n        /* \"#utility.yul\":22323:22370   */\n      mstore\n        /* \"#utility.yul\":22387:22518   */\n      tag_399\n        /* \"#utility.yul\":22513:22517   */\n      dup2\n        /* \"#utility.yul\":22387:22518   */\n      tag_171\n      jump\t// in\n    tag_399:\n        /* \"#utility.yul\":22379:22518   */\n      swap1\n      pop\n        /* \"#utility.yul\":22106:22525   */\n      swap2\n      swap1\n      pop\n      jump\t// out\n        /* \"#utility.yul\":22531:22713   */\n    tag_172:\n        /* \"#utility.yul\":22671:22705   */\n      0x4f776e61626c653a2063616c6c6572206973206e6f7420746865206f776e6572\n        /* \"#utility.yul\":22667:22668   */\n      0x00\n        /* \"#utility.yul\":22659:22665   */\n      dup3\n        /* \"#utility.yul\":22655:22669   */\n      add\n        /* \"#utility.yul\":22648:22706   */\n      mstore\n        /* \"#utility.yul\":22531:22713   */\n      pop\n      jump\t// out\n        /* \"#utility.yul\":22719:23085   */\n    tag_173:\n        /* \"#utility.yul\":22861:22864   */\n      0x00\n        /* \"#utility.yul\":22882:22949   */\n      tag_402\n        /* \"#utility.yul\":22946:22948   */\n      0x20\n        /* \"#utility.yul\":22941:22944   */\n      dup4\n        /* \"#utility.yul\":22882:22949   */\n      tag_115\n      jump\t// in\n    tag_402:\n        /* \"#utility.yul\":22875:22949   */\n      swap2\n      pop\n        /* \"#utility.yul\":22958:23051   */\n      tag_403\n        /* \"#utility.yul\":23047:23050   */\n      dup3\n        /* \"#utility.yul\":22958:23051   */\n      tag_172\n      jump\t// in\n    tag_403:\n        /* \"#utility.yul\":23076:23078   */\n      0x20\n        /* \"#utility.yul\":23071:23074   */\n      dup3\n        /* \"#utility.yul\":23067:23079   */\n      add\n        /* \"#utility.yul\":23060:23079   */\n      swap1\n      pop\n        /* \"#utility.yul\":22719:23085   */\n      swap2\n      swap1\n      pop\n      jump\t// out\n        /* \"#utility.yul\":23091:23510   */\n    tag_102:\n        /* \"#utility.yul\":23257:23261   */\n      0x00\n        /* \"#utility.yul\":23295:23297   */\n      0x20\n        /* \"#utility.yul\":23284:23293   */\n      dup3\n        /* \"#utility.yul\":23280:23298   */\n      add\n        /* \"#utility.yul\":23272:23298   */\n      swap1\n      pop\n        /* \"#utility.yul\":23344:23353   */\n      dup2\n        /* \"#utility.yul\":23338:23342   */\n      dup2\n        /* \"#utility.yul\":23334:23354   */\n      sub\n        /* \"#utility.yul\":23330:23331   */\n      0x00\n        /* \"#utility.yul\":23319:23328   */\n      dup4\n        /* \"#utility.yul\":23315:23332   */\n      add\n        /* \"#utility.yul\":23308:23355   */\n      mstore\n        /* \"#utility.yul\":23372:23503   */\n      tag_405\n        /* \"#utility.yul\":23498:23502   */\n      dup2\n        /* \"#utility.yul\":23372:23503   */\n      tag_173\n      jump\t// in\n    tag_405:\n        /* \"#utility.yul\":23364:23503   */\n      swap1\n      pop\n        /* \"#utility.yul\":23091:23510   */\n      swap2\n      swap1\n      pop\n      jump\t// out\n\n    auxdata: 0xa2646970667358221220a1970669d701cf54a5d61ef18352115768ca8e83e4a192ec58961442b098ef3364736f6c63430008120033\n}\n",
				"bytecode": {
					"linkReferences": {},
					"object": "608060405234801561001057600080fd5b5061002d61002261003260201b60201c565b61003a60201b60201c565b6100fe565b600033905090565b60008060009054906101000a900473ffffffffffffffffffffffffffffffffffffffff169050816000806101000a81548173ffffffffffffffffffffffffffffffffffffffff021916908373ffffffffffffffffffffffffffffffffffffffff1602179055508173ffffffffffffffffffffffffffffffffffffffff168173ffffffffffffffffffffffffffffffffffffffff167f8be0079c531659141344cd1fd0a4f28419497f9722a3daafe3b4186f6b6457e060405160405180910390a35050565b6115ae8061010d6000396000f3fe608060405234801561001057600080fd5b506004361061007d5760003560e01c80638da5cb5b1161005b5780638da5cb5b146100e157806398afca47146100ff578063a3b9131b1461011d578063f2fde38b1461013b5761007d565b8063013cf08b146100825780631601947e146100bb578063715018a6146100d7575b600080fd5b61009c600480360381019061009791906109a4565b610157565b6040516100b29a99989796959493929190610ae5565b60405180910390f35b6100d560048036038101906100d09190610cc4565b6102f8565b005b6100df610704565b005b6100e9610718565b6040516100f69190610da5565b60405180910390f35b610107610741565b6040516101149190610e1f565b60405180910390f35b610125610767565b6040516101329190610e5b565b60405180910390f35b61015560048036038101906101509190610ea2565b61078d565b005b6003818154811061016757600080fd5b90600052602060002090600902016000915090508060000154908060010154908060020154908060030154908060040154908060050154908060060180546101ae90610efe565b80601f01602080910402602001604051908101604052809291908181526020018280546101da90610efe565b80156102275780601f106101fc57610100808354040283529160200191610227565b820191906000526020600020905b81548152906001019060200180831161020a57829003601f168201915b50505050509080600701805461023c90610efe565b80601f016020809104026020016040519081016040528092919081815260200182805461026890610efe565b80156102b55780601f1061028a576101008083540402835291602001916102b5565b820191906000526020600020905b81548152906001019060200180831161029857829003601f168201915b5050505050908060080160009054906101000a900460ff16908060080160019054906101000a900473ffffffffffffffffffffffffffffffffffffffff1690508a565b6000861161033b576040517f08c379a000000000000000000000000000000000000000000000000000000000815260040161033290610f7b565b60405180910390fd5b85600160009054906101000a900473ffffffffffffffffffffffffffffffffffffffff1673ffffffffffffffffffffffffffffffffffffffff166370a08231336040518263ffffffff1660e01b81526004016103979190610da5565b602060405180830381865afa1580156103b4573d6000803e3d6000fd5b505050506040513d601f19601f820116820180604052508101906103d89190610fb0565b1015610419576040517f08c379a00000000000000000000000000000000000000000000000000000000081526004016104109061104f565b60405180910390fd5b6000851161045c576040517f08c379a0000000000000000000000000000000000000000000000000000000008152600401610453906110bb565b60405180910390fd5b600260009054906101000a900473ffffffffffffffffffffffffffffffffffffffff1673ffffffffffffffffffffffffffffffffffffffff1663d60f1c516040518163ffffffff1660e01b8152600401602060405180830381865afa1580156104c9573d6000803e3d6000fd5b505050506040513d601f19601f820116820180604052508101906104ed9190610fb0565b841061052e576040517f08c379a000000000000000000000000000000000000000000000000000000000815260040161052590611127565b60405180910390fd5b6000835111610572576040517f08c379a000000000000000000000000000000000000000000000000000000000815260040161056990611193565b60405180910390fd5b60008360405160200161058591906111ef565b6040516020818303038152906040528051906020012090506003604051806101400160405280898152602001600081526020018881526020014281526020018781526020018381526020018581526020018481526020016001151581526020013373ffffffffffffffffffffffffffffffffffffffff168152509080600181540180825580915050600190039060005260206000209060090201600090919091909150600082015181600001556020820151816001015560408201518160020155606082015181600301556080820151816004015560a0820151816005015560c082015181600601908161067991906113a8565b5060e082015181600701908161068f91906113a8565b506101008201518160080160006101000a81548160ff0219169083151502179055506101208201518160080160016101000a81548173ffffffffffffffffffffffffffffffffffffffff021916908373ffffffffffffffffffffffffffffffffffffffff160217905550505050505050505050565b61070c610810565b610716600061088e565b565b60008060009054906101000a900473ffffffffffffffffffffffffffffffffffffffff16905090565b600160009054906101000a900473ffffffffffffffffffffffffffffffffffffffff1681565b600260009054906101000a900473ffffffffffffffffffffffffffffffffffffffff1681565b610795610810565b600073ffffffffffffffffffffffffffffffffffffffff168173ffffffffffffffffffffffffffffffffffffffff1603610804576040517f08c379a00000000000000000000000000000000000000000000000000000000081526004016107fb906114ec565b60405180910390fd5b61080d8161088e565b50565b610818610952565b73ffffffffffffffffffffffffffffffffffffffff16610836610718565b73ffffffffffffffffffffffffffffffffffffffff161461088c576040517f08c379a000000000000000000000000000000000000000000000000000000000815260040161088390611558565b60405180910390fd5b565b60008060009054906101000a900473ffffffffffffffffffffffffffffffffffffffff169050816000806101000a81548173ffffffffffffffffffffffffffffffffffffffff021916908373ffffffffffffffffffffffffffffffffffffffff1602179055508173ffffffffffffffffffffffffffffffffffffffff168173ffffffffffffffffffffffffffffffffffffffff167f8be0079c531659141344cd1fd0a4f28419497f9722a3daafe3b4186f6b6457e060405160405180910390a35050565b600033905090565b6000604051905090565b600080fd5b600080fd5b6000819050919050565b6109818161096e565b811461098c57600080fd5b50565b60008135905061099e81610978565b92915050565b6000602082840312156109ba576109b9610964565b5b60006109c88482850161098f565b91505092915050565b6109da8161096e565b82525050565b6000819050919050565b6109f3816109e0565b82525050565b600081519050919050565b600082825260208201905092915050565b60005b83811015610a33578082015181840152602081019050610a18565b60008484015250505050565b6000601f19601f8301169050919050565b6000610a5b826109f9565b610a658185610a04565b9350610a75818560208601610a15565b610a7e81610a3f565b840191505092915050565b60008115159050919050565b610a9e81610a89565b82525050565b600073ffffffffffffffffffffffffffffffffffffffff82169050919050565b6000610acf82610aa4565b9050919050565b610adf81610ac4565b82525050565b600061014082019050610afb600083018d6109d1565b610b08602083018c6109d1565b610b15604083018b6109d1565b610b22606083018a6109d1565b610b2f60808301896109d1565b610b3c60a08301886109ea565b81810360c0830152610b4e8187610a50565b905081810360e0830152610b628186610a50565b9050610b72610100830185610a95565b610b80610120830184610ad6565b9b9a5050505050505050505050565b600080fd5b600080fd5b7f4e487b7100000000000000000000000000000000000000000000000000000000600052604160045260246000fd5b610bd182610a3f565b810181811067ffffffffffffffff82111715610bf057610bef610b99565b5b80604052505050565b6000610c0361095a565b9050610c0f8282610bc8565b919050565b600067ffffffffffffffff821115610c2f57610c2e610b99565b5b610c3882610a3f565b9050602081019050919050565b82818337600083830152505050565b6000610c67610c6284610c14565b610bf9565b905082815260208101848484011115610c8357610c82610b94565b5b610c8e848285610c45565b509392505050565b600082601f830112610cab57610caa610b8f565b5b8135610cbb848260208601610c54565b91505092915050565b60008060008060008060c08789031215610ce157610ce0610964565b5b6000610cef89828a0161098f565b9650506020610d0089828a0161098f565b9550506040610d1189828a0161098f565b945050606087013567ffffffffffffffff811115610d3257610d31610969565b5b610d3e89828a01610c96565b935050608087013567ffffffffffffffff811115610d5f57610d5e610969565b5b610d6b89828a01610c96565b92505060a087013567ffffffffffffffff811115610d8c57610d8b610969565b5b610d9889828a01610c96565b9150509295509295509295565b6000602082019050610dba6000830184610ad6565b92915050565b6000819050919050565b6000610de5610de0610ddb84610aa4565b610dc0565b610aa4565b9050919050565b6000610df782610dca565b9050919050565b6000610e0982610dec565b9050919050565b610e1981610dfe565b82525050565b6000602082019050610e346000830184610e10565b92915050565b6000610e4582610dec565b9050919050565b610e5581610e3a565b82525050565b6000602082019050610e706000830184610e4c565b92915050565b610e7f81610ac4565b8114610e8a57600080fd5b50565b600081359050610e9c81610e76565b92915050565b600060208284031215610eb857610eb7610964565b5b6000610ec684828501610e8d565b91505092915050565b7f4e487b7100000000000000000000000000000000000000000000000000000000600052602260045260246000fd5b60006002820490506001821680610f1657607f821691505b602082108103610f2957610f28610ecf565b5b50919050565b7f416d6f756e74206d7573742062652067726561746572207468616e2030000000600082015250565b6000610f65601d83610a04565b9150610f7082610f2f565b602082019050919050565b60006020820190508181036000830152610f9481610f58565b9050919050565b600081519050610faa81610978565b92915050565b600060208284031215610fc657610fc5610964565b5b6000610fd484828501610f9b565b91505092915050565b7f596f7520646f6e2774206861766520656e6f756768205553444320696e20746860008201527f69732077616c6c65740000000000000000000000000000000000000000000000602082015250565b6000611039602983610a04565b915061104482610fdd565b604082019050919050565b600060208201905081810360008301526110688161102c565b9050919050565b7f5072696365206d7573742062652067726561746572207468616e203000000000600082015250565b60006110a5601c83610a04565b91506110b08261106f565b602082019050919050565b600060208201905081810360008301526110d481611098565b9050919050565b7f5061796d656e74206d6574686f6420646f6573206e6f74206578697374000000600082015250565b6000611111601d83610a04565b915061111c826110db565b602082019050919050565b6000602082019050818103600083015261114081611104565b9050919050565b7f7061796d656e7444657461696c73206d757374206e6f7420626520656d707479600082015250565b600061117d602083610a04565b915061118882611147565b602082019050919050565b600060208201905081810360008301526111ac81611170565b9050919050565b600081905092915050565b60006111c9826109f9565b6111d381856111b3565b93506111e3818560208601610a15565b80840191505092915050565b60006111fb82846111be565b915081905092915050565b60008190508160005260206000209050919050565b60006020601f8301049050919050565b600082821b905092915050565b6000600883026112687fffffffffffffffffffffffffffffffffffffffffffffffffffffffffffffffff8261122b565b611272868361122b565b95508019841693508086168417925050509392505050565b60006112a56112a061129b8461096e565b610dc0565b61096e565b9050919050565b6000819050919050565b6112bf8361128a565b6112d36112cb826112ac565b848454611238565b825550505050565b600090565b6112e86112db565b6112f38184846112b6565b505050565b5b818110156113175761130c6000826112e0565b6001810190506112f9565b5050565b601f82111561135c5761132d81611206565b6113368461121b565b81016020851015611345578190505b6113596113518561121b565b8301826112f8565b50505b505050565b600082821c905092915050565b600061137f60001984600802611361565b1980831691505092915050565b6000611398838361136e565b9150826002028217905092915050565b6113b1826109f9565b67ffffffffffffffff8111156113ca576113c9610b99565b5b6113d48254610efe565b6113df82828561131b565b600060209050601f8311600181146114125760008415611400578287015190505b61140a858261138c565b865550611472565b601f19841661142086611206565b60005b8281101561144857848901518255600182019150602085019450602081019050611423565b868310156114655784890151611461601f89168261136e565b8355505b6001600288020188555050505b505050505050565b7f4f776e61626c653a206e6577206f776e657220697320746865207a65726f206160008201527f6464726573730000000000000000000000000000000000000000000000000000602082015250565b60006114d6602683610a04565b91506114e18261147a565b604082019050919050565b60006020820190508181036000830152611505816114c9565b9050919050565b7f4f776e61626c653a2063616c6c6572206973206e6f7420746865206f776e6572600082015250565b6000611542602083610a04565b915061154d8261150c565b602082019050919050565b6000602082019050818103600083015261157181611535565b905091905056fea2646970667358221220a1970669d701cf54a5d61ef18352115768ca8e83e4a192ec58961442b098ef3364736f6c63430008120033",
					"opcodes": "PUSH1 0x80 PUSH1 0x40 MSTORE CALLVALUE DUP1 ISZERO PUSH2 0x10 JUMPI PUSH1 0x0 DUP1 REVERT JUMPDEST POP PUSH2 0x2D PUSH2 0x22 PUSH2 0x32 PUSH1 0x20 SHL PUSH1 0x20 SHR JUMP JUMPDEST PUSH2 0x3A PUSH1 0x20 SHL PUSH1 0x20 SHR JUMP JUMPDEST PUSH2 0xFE JUMP JUMPDEST PUSH1 0x0 CALLER SWAP1 POP SWAP1 JUMP JUMPDEST PUSH1 0x0 DUP1 PUSH1 0x0 SWAP1 SLOAD SWAP1 PUSH2 0x100 EXP SWAP1 DIV PUSH20 0xFFFFFFFFFFFFFFFFFFFFFFFFFFFFFFFFFFFFFFFF AND SWAP1 POP DUP2 PUSH1 0x0 DUP1 PUSH2 0x100 EXP DUP2 SLOAD DUP2 PUSH20 0xFFFFFFFFFFFFFFFFFFFFFFFFFFFFFFFFFFFFFFFF MUL NOT AND SWAP1 DUP4 PUSH20 0xFFFFFFFFFFFFFFFFFFFFFFFFFFFFFFFFFFFFFFFF AND MUL OR SWAP1 SSTORE POP DUP2 PUSH20 0xFFFFFFFFFFFFFFFFFFFFFFFFFFFFFFFFFFFFFFFF AND DUP2 PUSH20 0xFFFFFFFFFFFFFFFFFFFFFFFFFFFFFFFFFFFFFFFF AND PUSH32 0x8BE0079C531659141344CD1FD0A4F28419497F9722A3DAAFE3B4186F6B6457E0 PUSH1 0x40 MLOAD PUSH1 0x40 MLOAD DUP1 SWAP2 SUB SWAP1 LOG3 POP POP JUMP JUMPDEST PUSH2 0x15AE DUP1 PUSH2 0x10D PUSH1 0x0 CODECOPY PUSH1 0x0 RETURN INVALID PUSH1 0x80 PUSH1 0x40 MSTORE CALLVALUE DUP1 ISZERO PUSH2 0x10 JUMPI PUSH1 0x0 DUP1 REVERT JUMPDEST POP PUSH1 0x4 CALLDATASIZE LT PUSH2 0x7D JUMPI PUSH1 0x0 CALLDATALOAD PUSH1 0xE0 SHR DUP1 PUSH4 0x8DA5CB5B GT PUSH2 0x5B JUMPI DUP1 PUSH4 0x8DA5CB5B EQ PUSH2 0xE1 JUMPI DUP1 PUSH4 0x98AFCA47 EQ PUSH2 0xFF JUMPI DUP1 PUSH4 0xA3B9131B EQ PUSH2 0x11D JUMPI DUP1 PUSH4 0xF2FDE38B EQ PUSH2 0x13B JUMPI PUSH2 0x7D JUMP JUMPDEST DUP1 PUSH4 0x13CF08B EQ PUSH2 0x82 JUMPI DUP1 PUSH4 0x1601947E EQ PUSH2 0xBB JUMPI DUP1 PUSH4 0x715018A6 EQ PUSH2 0xD7 JUMPI JUMPDEST PUSH1 0x0 DUP1 REVERT JUMPDEST PUSH2 0x9C PUSH1 0x4 DUP1 CALLDATASIZE SUB DUP2 ADD SWAP1 PUSH2 0x97 SWAP2 SWAP1 PUSH2 0x9A4 JUMP JUMPDEST PUSH2 0x157 JUMP JUMPDEST PUSH1 0x40 MLOAD PUSH2 0xB2 SWAP11 SWAP10 SWAP9 SWAP8 SWAP7 SWAP6 SWAP5 SWAP4 SWAP3 SWAP2 SWAP1 PUSH2 0xAE5 JUMP JUMPDEST PUSH1 0x40 MLOAD DUP1 SWAP2 SUB SWAP1 RETURN JUMPDEST PUSH2 0xD5 PUSH1 0x4 DUP1 CALLDATASIZE SUB DUP2 ADD SWAP1 PUSH2 0xD0 SWAP2 SWAP1 PUSH2 0xCC4 JUMP JUMPDEST PUSH2 0x2F8 JUMP JUMPDEST STOP JUMPDEST PUSH2 0xDF PUSH2 0x704 JUMP JUMPDEST STOP JUMPDEST PUSH2 0xE9 PUSH2 0x718 JUMP JUMPDEST PUSH1 0x40 MLOAD PUSH2 0xF6 SWAP2 SWAP1 PUSH2 0xDA5 JUMP JUMPDEST PUSH1 0x40 MLOAD DUP1 SWAP2 SUB SWAP1 RETURN JUMPDEST PUSH2 0x107 PUSH2 0x741 JUMP JUMPDEST PUSH1 0x40 MLOAD PUSH2 0x114 SWAP2 SWAP1 PUSH2 0xE1F JUMP JUMPDEST PUSH1 0x40 MLOAD DUP1 SWAP2 SUB SWAP1 RETURN JUMPDEST PUSH2 0x125 PUSH2 0x767 JUMP JUMPDEST PUSH1 0x40 MLOAD PUSH2 0x132 SWAP2 SWAP1 PUSH2 0xE5B JUMP JUMPDEST PUSH1 0x40 MLOAD DUP1 SWAP2 SUB SWAP1 RETURN JUMPDEST PUSH2 0x155 PUSH1 0x4 DUP1 CALLDATASIZE SUB DUP2 ADD SWAP1 PUSH2 0x150 SWAP2 SWAP1 PUSH2 0xEA2 JUMP JUMPDEST PUSH2 0x78D JUMP JUMPDEST STOP JUMPDEST PUSH1 0x3 DUP2 DUP2 SLOAD DUP2 LT PUSH2 0x167 JUMPI PUSH1 0x0 DUP1 REVERT JUMPDEST SWAP1 PUSH1 0x0 MSTORE PUSH1 0x20 PUSH1 0x0 KECCAK256 SWAP1 PUSH1 0x9 MUL ADD PUSH1 0x0 SWAP2 POP SWAP1 POP DUP1 PUSH1 0x0 ADD SLOAD SWAP1 DUP1 PUSH1 0x1 ADD SLOAD SWAP1 DUP1 PUSH1 0x2 ADD SLOAD SWAP1 DUP1 PUSH1 0x3 ADD SLOAD SWAP1 DUP1 PUSH1 0x4 ADD SLOAD SWAP1 DUP1 PUSH1 0x5 ADD SLOAD SWAP1 DUP1 PUSH1 0x6 ADD DUP1 SLOAD PUSH2 0x1AE SWAP1 PUSH2 0xEFE JUMP JUMPDEST DUP1 PUSH1 0x1F ADD PUSH1 0x20 DUP1 SWAP2 DIV MUL PUSH1 0x20 ADD PUSH1 0x40 MLOAD SWAP1 DUP2 ADD PUSH1 0x40 MSTORE DUP1 SWAP3 SWAP2 SWAP1 DUP2 DUP2 MSTORE PUSH1 0x20 ADD DUP3 DUP1 SLOAD PUSH2 0x1DA SWAP1 PUSH2 0xEFE JUMP JUMPDEST DUP1 ISZERO PUSH2 0x227 JUMPI DUP1 PUSH1 0x1F LT PUSH2 0x1FC JUMPI PUSH2 0x100 DUP1 DUP4 SLOAD DIV MUL DUP4 MSTORE SWAP2 PUSH1 0x20 ADD SWAP2 PUSH2 0x227 JUMP JUMPDEST DUP3 ADD SWAP2 SWAP1 PUSH1 0x0 MSTORE PUSH1 0x20 PUSH1 0x0 KECCAK256 SWAP1 JUMPDEST DUP2 SLOAD DUP2 MSTORE SWAP1 PUSH1 0x1 ADD SWAP1 PUSH1 0x20 ADD DUP1 DUP4 GT PUSH2 0x20A JUMPI DUP3 SWAP1 SUB PUSH1 0x1F AND DUP3 ADD SWAP2 JUMPDEST POP POP POP POP POP SWAP1 DUP1 PUSH1 0x7 ADD DUP1 SLOAD PUSH2 0x23C SWAP1 PUSH2 0xEFE JUMP JUMPDEST DUP1 PUSH1 0x1F ADD PUSH1 0x20 DUP1 SWAP2 DIV MUL PUSH1 0x20 ADD PUSH1 0x40 MLOAD SWAP1 DUP2 ADD PUSH1 0x40 MSTORE DUP1 SWAP3 SWAP2 SWAP1 DUP2 DUP2 MSTORE PUSH1 0x20 ADD DUP3 DUP1 SLOAD PUSH2 0x268 SWAP1 PUSH2 0xEFE JUMP JUMPDEST DUP1 ISZERO PUSH2 0x2B5 JUMPI DUP1 PUSH1 0x1F LT PUSH2 0x28A JUMPI PUSH2 0x100 DUP1 DUP4 SLOAD DIV MUL DUP4 MSTORE SWAP2 PUSH1 0x20 ADD SWAP2 PUSH2 0x2B5 JUMP JUMPDEST DUP3 ADD SWAP2 SWAP1 PUSH1 0x0 MSTORE PUSH1 0x20 PUSH1 0x0 KECCAK256 SWAP1 JUMPDEST DUP2 SLOAD DUP2 MSTORE SWAP1 PUSH1 0x1 ADD SWAP1 PUSH1 0x20 ADD DUP1 DUP4 GT PUSH2 0x298 JUMPI DUP3 SWAP1 SUB PUSH1 0x1F AND DUP3 ADD SWAP2 JUMPDEST POP POP POP POP POP SWAP1 DUP1 PUSH1 0x8 ADD PUSH1 0x0 SWAP1 SLOAD SWAP1 PUSH2 0x100 EXP SWAP1 DIV PUSH1 0xFF AND SWAP1 DUP1 PUSH1 0x8 ADD PUSH1 0x1 SWAP1 SLOAD SWAP1 PUSH2 0x100 EXP SWAP1 DIV PUSH20 0xFFFFFFFFFFFFFFFFFFFFFFFFFFFFFFFFFFFFFFFF AND SWAP1 POP DUP11 JUMP JUMPDEST PUSH1 0x0 DUP7 GT PUSH2 0x33B JUMPI PUSH1 0x40 MLOAD PUSH32 0x8C379A000000000000000000000000000000000000000000000000000000000 DUP2 MSTORE PUSH1 0x4 ADD PUSH2 0x332 SWAP1 PUSH2 0xF7B JUMP JUMPDEST PUSH1 0x40 MLOAD DUP1 SWAP2 SUB SWAP1 REVERT JUMPDEST DUP6 PUSH1 0x1 PUSH1 0x0 SWAP1 SLOAD SWAP1 PUSH2 0x100 EXP SWAP1 DIV PUSH20 0xFFFFFFFFFFFFFFFFFFFFFFFFFFFFFFFFFFFFFFFF AND PUSH20 0xFFFFFFFFFFFFFFFFFFFFFFFFFFFFFFFFFFFFFFFF AND PUSH4 0x70A08231 CALLER PUSH1 0x40 MLOAD DUP3 PUSH4 0xFFFFFFFF AND PUSH1 0xE0 SHL DUP2 MSTORE PUSH1 0x4 ADD PUSH2 0x397 SWAP2 SWAP1 PUSH2 0xDA5 JUMP JUMPDEST PUSH1 0x20 PUSH1 0x40 MLOAD DUP1 DUP4 SUB DUP2 DUP7 GAS STATICCALL ISZERO DUP1 ISZERO PUSH2 0x3B4 JUMPI RETURNDATASIZE PUSH1 0x0 DUP1 RETURNDATACOPY RETURNDATASIZE PUSH1 0x0 REVERT JUMPDEST POP POP POP POP PUSH1 0x40 MLOAD RETURNDATASIZE PUSH1 0x1F NOT PUSH1 0x1F DUP3 ADD AND DUP3 ADD DUP1 PUSH1 0x40 MSTORE POP DUP2 ADD SWAP1 PUSH2 0x3D8 SWAP2 SWAP1 PUSH2 0xFB0 JUMP JUMPDEST LT ISZERO PUSH2 0x419 JUMPI PUSH1 0x40 MLOAD PUSH32 0x8C379A000000000000000000000000000000000000000000000000000000000 DUP2 MSTORE PUSH1 0x4 ADD PUSH2 0x410 SWAP1 PUSH2 0x104F JUMP JUMPDEST PUSH1 0x40 MLOAD DUP1 SWAP2 SUB SWAP1 REVERT JUMPDEST PUSH1 0x0 DUP6 GT PUSH2 0x45C JUMPI PUSH1 0x40 MLOAD PUSH32 0x8C379A000000000000000000000000000000000000000000000000000000000 DUP2 MSTORE PUSH1 0x4 ADD PUSH2 0x453 SWAP1 PUSH2 0x10BB JUMP JUMPDEST PUSH1 0x40 MLOAD DUP1 SWAP2 SUB SWAP1 REVERT JUMPDEST PUSH1 0x2 PUSH1 0x0 SWAP1 SLOAD SWAP1 PUSH2 0x100 EXP SWAP1 DIV PUSH20 0xFFFFFFFFFFFFFFFFFFFFFFFFFFFFFFFFFFFFFFFF AND PUSH20 0xFFFFFFFFFFFFFFFFFFFFFFFFFFFFFFFFFFFFFFFF AND PUSH4 0xD60F1C51 PUSH1 0x40 MLOAD DUP2 PUSH4 0xFFFFFFFF AND PUSH1 0xE0 SHL DUP2 MSTORE PUSH1 0x4 ADD PUSH1 0x20 PUSH1 0x40 MLOAD DUP1 DUP4 SUB DUP2 DUP7 GAS STATICCALL ISZERO DUP1 ISZERO PUSH2 0x4C9 JUMPI RETURNDATASIZE PUSH1 0x0 DUP1 RETURNDATACOPY RETURNDATASIZE PUSH1 0x0 REVERT JUMPDEST POP POP POP POP PUSH1 0x40 MLOAD RETURNDATASIZE PUSH1 0x1F NOT PUSH1 0x1F DUP3 ADD AND DUP3 ADD DUP1 PUSH1 0x40 MSTORE POP DUP2 ADD SWAP1 PUSH2 0x4ED SWAP2 SWAP1 PUSH2 0xFB0 JUMP JUMPDEST DUP5 LT PUSH2 0x52E JUMPI PUSH1 0x40 MLOAD PUSH32 0x8C379A000000000000000000000000000000000000000000000000000000000 DUP2 MSTORE PUSH1 0x4 ADD PUSH2 0x525 SWAP1 PUSH2 0x1127 JUMP JUMPDEST PUSH1 0x40 MLOAD DUP1 SWAP2 SUB SWAP1 REVERT JUMPDEST PUSH1 0x0 DUP4 MLOAD GT PUSH2 0x572 JUMPI PUSH1 0x40 MLOAD PUSH32 0x8C379A000000000000000000000000000000000000000000000000000000000 DUP2 MSTORE PUSH1 0x4 ADD PUSH2 0x569 SWAP1 PUSH2 0x1193 JUMP JUMPDEST PUSH1 0x40 MLOAD DUP1 SWAP2 SUB SWAP1 REVERT JUMPDEST PUSH1 0x0 DUP4 PUSH1 0x40 MLOAD PUSH1 0x20 ADD PUSH2 0x585 SWAP2 SWAP1 PUSH2 0x11EF JUMP JUMPDEST PUSH1 0x40 MLOAD PUSH1 0x20 DUP2 DUP4 SUB SUB DUP2 MSTORE SWAP1 PUSH1 0x40 MSTORE DUP1 MLOAD SWAP1 PUSH1 0x20 ADD KECCAK256 SWAP1 POP PUSH1 0x3 PUSH1 0x40 MLOAD DUP1 PUSH2 0x140 ADD PUSH1 0x40 MSTORE DUP1 DUP10 DUP2 MSTORE PUSH1 0x20 ADD PUSH1 0x0 DUP2 MSTORE PUSH1 0x20 ADD DUP9 DUP2 MSTORE PUSH1 0x20 ADD TIMESTAMP DUP2 MSTORE PUSH1 0x20 ADD DUP8 DUP2 MSTORE PUSH1 0x20 ADD DUP4 DUP2 MSTORE PUSH1 0x20 ADD DUP6 DUP2 MSTORE PUSH1 0x20 ADD DUP5 DUP2 MSTORE PUSH1 0x20 ADD PUSH1 0x1 ISZERO ISZERO DUP2 MSTORE PUSH1 0x20 ADD CALLER PUSH20 0xFFFFFFFFFFFFFFFFFFFFFFFFFFFFFFFFFFFFFFFF AND DUP2 MSTORE POP SWAP1 DUP1 PUSH1 0x1 DUP2 SLOAD ADD DUP1 DUP3 SSTORE DUP1 SWAP2 POP POP PUSH1 0x1 SWAP1 SUB SWAP1 PUSH1 0x0 MSTORE PUSH1 0x20 PUSH1 0x0 KECCAK256 SWAP1 PUSH1 0x9 MUL ADD PUSH1 0x0 SWAP1 SWAP2 SWAP1 SWAP2 SWAP1 SWAP2 POP PUSH1 0x0 DUP3 ADD MLOAD DUP2 PUSH1 0x0 ADD SSTORE PUSH1 0x20 DUP3 ADD MLOAD DUP2 PUSH1 0x1 ADD SSTORE PUSH1 0x40 DUP3 ADD MLOAD DUP2 PUSH1 0x2 ADD SSTORE PUSH1 0x60 DUP3 ADD MLOAD DUP2 PUSH1 0x3 ADD SSTORE PUSH1 0x80 DUP3 ADD MLOAD DUP2 PUSH1 0x4 ADD SSTORE PUSH1 0xA0 DUP3 ADD MLOAD DUP2 PUSH1 0x5 ADD SSTORE PUSH1 0xC0 DUP3 ADD MLOAD DUP2 PUSH1 0x6 ADD SWAP1 DUP2 PUSH2 0x679 SWAP2 SWAP1 PUSH2 0x13A8 JUMP JUMPDEST POP PUSH1 0xE0 DUP3 ADD MLOAD DUP2 PUSH1 0x7 ADD SWAP1 DUP2 PUSH2 0x68F SWAP2 SWAP1 PUSH2 0x13A8 JUMP JUMPDEST POP PUSH2 0x100 DUP3 ADD MLOAD DUP2 PUSH1 0x8 ADD PUSH1 0x0 PUSH2 0x100 EXP DUP2 SLOAD DUP2 PUSH1 0xFF MUL NOT AND SWAP1 DUP4 ISZERO ISZERO MUL OR SWAP1 SSTORE POP PUSH2 0x120 DUP3 ADD MLOAD DUP2 PUSH1 0x8 ADD PUSH1 0x1 PUSH2 0x100 EXP DUP2 SLOAD DUP2 PUSH20 0xFFFFFFFFFFFFFFFFFFFFFFFFFFFFFFFFFFFFFFFF MUL NOT AND SWAP1 DUP4 PUSH20 0xFFFFFFFFFFFFFFFFFFFFFFFFFFFFFFFFFFFFFFFF AND MUL OR SWAP1 SSTORE POP POP POP POP POP POP POP POP POP POP JUMP JUMPDEST PUSH2 0x70C PUSH2 0x810 JUMP JUMPDEST PUSH2 0x716 PUSH1 0x0 PUSH2 0x88E JUMP JUMPDEST JUMP JUMPDEST PUSH1 0x0 DUP1 PUSH1 0x0 SWAP1 SLOAD SWAP1 PUSH2 0x100 EXP SWAP1 DIV PUSH20 0xFFFFFFFFFFFFFFFFFFFFFFFFFFFFFFFFFFFFFFFF AND SWAP1 POP SWAP1 JUMP JUMPDEST PUSH1 0x1 PUSH1 0x0 SWAP1 SLOAD SWAP1 PUSH2 0x100 EXP SWAP1 DIV PUSH20 0xFFFFFFFFFFFFFFFFFFFFFFFFFFFFFFFFFFFFFFFF AND DUP2 JUMP JUMPDEST PUSH1 0x2 PUSH1 0x0 SWAP1 SLOAD SWAP1 PUSH2 0x100 EXP SWAP1 DIV PUSH20 0xFFFFFFFFFFFFFFFFFFFFFFFFFFFFFFFFFFFFFFFF AND DUP2 JUMP JUMPDEST PUSH2 0x795 PUSH2 0x810 JUMP JUMPDEST PUSH1 0x0 PUSH20 0xFFFFFFFFFFFFFFFFFFFFFFFFFFFFFFFFFFFFFFFF AND DUP2 PUSH20 0xFFFFFFFFFFFFFFFFFFFFFFFFFFFFFFFFFFFFFFFF AND SUB PUSH2 0x804 JUMPI PUSH1 0x40 MLOAD PUSH32 0x8C379A000000000000000000000000000000000000000000000000000000000 DUP2 MSTORE PUSH1 0x4 ADD PUSH2 0x7FB SWAP1 PUSH2 0x14EC JUMP JUMPDEST PUSH1 0x40 MLOAD DUP1 SWAP2 SUB SWAP1 REVERT JUMPDEST PUSH2 0x80D DUP2 PUSH2 0x88E JUMP JUMPDEST POP JUMP JUMPDEST PUSH2 0x818 PUSH2 0x952 JUMP JUMPDEST PUSH20 0xFFFFFFFFFFFFFFFFFFFFFFFFFFFFFFFFFFFFFFFF AND PUSH2 0x836 PUSH2 0x718 JUMP JUMPDEST PUSH20 0xFFFFFFFFFFFFFFFFFFFFFFFFFFFFFFFFFFFFFFFF AND EQ PUSH2 0x88C JUMPI PUSH1 0x40 MLOAD PUSH32 0x8C379A000000000000000000000000000000000000000000000000000000000 DUP2 MSTORE PUSH1 0x4 ADD PUSH2 0x883 SWAP1 PUSH2 0x1558 JUMP JUMPDEST PUSH1 0x40 MLOAD DUP1 SWAP2 SUB SWAP1 REVERT JUMPDEST JUMP JUMPDEST PUSH1 0x0 DUP1 PUSH1 0x0 SWAP1 SLOAD SWAP1 PUSH2 0x100 EXP SWAP1 DIV PUSH20 0xFFFFFFFFFFFFFFFFFFFFFFFFFFFFFFFFFFFFFFFF AND SWAP1 POP DUP2 PUSH1 0x0 DUP1 PUSH2 0x100 EXP DUP2 SLOAD DUP2 PUSH20 0xFFFFFFFFFFFFFFFFFFFFFFFFFFFFFFFFFFFFFFFF MUL NOT AND SWAP1 DUP4 PUSH20 0xFFFFFFFFFFFFFFFFFFFFFFFFFFFFFFFFFFFFFFFF AND MUL OR SWAP1 SSTORE POP DUP2 PUSH20 0xFFFFFFFFFFFFFFFFFFFFFFFFFFFFFFFFFFFFFFFF AND DUP2 PUSH20 0xFFFFFFFFFFFFFFFFFFFFFFFFFFFFFFFFFFFFFFFF AND PUSH32 0x8BE0079C531659141344CD1FD0A4F28419497F9722A3DAAFE3B4186F6B6457E0 PUSH1 0x40 MLOAD PUSH1 0x40 MLOAD DUP1 SWAP2 SUB SWAP1 LOG3 POP POP JUMP JUMPDEST PUSH1 0x0 CALLER SWAP1 POP SWAP1 JUMP JUMPDEST PUSH1 0x0 PUSH1 0x40 MLOAD SWAP1 POP SWAP1 JUMP JUMPDEST PUSH1 0x0 DUP1 REVERT JUMPDEST PUSH1 0x0 DUP1 REVERT JUMPDEST PUSH1 0x0 DUP2 SWAP1 POP SWAP2 SWAP1 POP JUMP JUMPDEST PUSH2 0x981 DUP2 PUSH2 0x96E JUMP JUMPDEST DUP2 EQ PUSH2 0x98C JUMPI PUSH1 0x0 DUP1 REVERT JUMPDEST POP JUMP JUMPDEST PUSH1 0x0 DUP2 CALLDATALOAD SWAP1 POP PUSH2 0x99E DUP2 PUSH2 0x978 JUMP JUMPDEST SWAP3 SWAP2 POP POP JUMP JUMPDEST PUSH1 0x0 PUSH1 0x20 DUP3 DUP5 SUB SLT ISZERO PUSH2 0x9BA JUMPI PUSH2 0x9B9 PUSH2 0x964 JUMP JUMPDEST JUMPDEST PUSH1 0x0 PUSH2 0x9C8 DUP5 DUP3 DUP6 ADD PUSH2 0x98F JUMP JUMPDEST SWAP2 POP POP SWAP3 SWAP2 POP POP JUMP JUMPDEST PUSH2 0x9DA DUP2 PUSH2 0x96E JUMP JUMPDEST DUP3 MSTORE POP POP JUMP JUMPDEST PUSH1 0x0 DUP2 SWAP1 POP SWAP2 SWAP1 POP JUMP JUMPDEST PUSH2 0x9F3 DUP2 PUSH2 0x9E0 JUMP JUMPDEST DUP3 MSTORE POP POP JUMP JUMPDEST PUSH1 0x0 DUP2 MLOAD SWAP1 POP SWAP2 SWAP1 POP JUMP JUMPDEST PUSH1 0x0 DUP3 DUP3 MSTORE PUSH1 0x20 DUP3 ADD SWAP1 POP SWAP3 SWAP2 POP POP JUMP JUMPDEST PUSH1 0x0 JUMPDEST DUP4 DUP2 LT ISZERO PUSH2 0xA33 JUMPI DUP1 DUP3 ADD MLOAD DUP2 DUP5 ADD MSTORE PUSH1 0x20 DUP2 ADD SWAP1 POP PUSH2 0xA18 JUMP JUMPDEST PUSH1 0x0 DUP5 DUP5 ADD MSTORE POP POP POP POP JUMP JUMPDEST PUSH1 0x0 PUSH1 0x1F NOT PUSH1 0x1F DUP4 ADD AND SWAP1 POP SWAP2 SWAP1 POP JUMP JUMPDEST PUSH1 0x0 PUSH2 0xA5B DUP3 PUSH2 0x9F9 JUMP JUMPDEST PUSH2 0xA65 DUP2 DUP6 PUSH2 0xA04 JUMP JUMPDEST SWAP4 POP PUSH2 0xA75 DUP2 DUP6 PUSH1 0x20 DUP7 ADD PUSH2 0xA15 JUMP JUMPDEST PUSH2 0xA7E DUP2 PUSH2 0xA3F JUMP JUMPDEST DUP5 ADD SWAP2 POP POP SWAP3 SWAP2 POP POP JUMP JUMPDEST PUSH1 0x0 DUP2 ISZERO ISZERO SWAP1 POP SWAP2 SWAP1 POP JUMP JUMPDEST PUSH2 0xA9E DUP2 PUSH2 0xA89 JUMP JUMPDEST DUP3 MSTORE POP POP JUMP JUMPDEST PUSH1 0x0 PUSH20 0xFFFFFFFFFFFFFFFFFFFFFFFFFFFFFFFFFFFFFFFF DUP3 AND SWAP1 POP SWAP2 SWAP1 POP JUMP JUMPDEST PUSH1 0x0 PUSH2 0xACF DUP3 PUSH2 0xAA4 JUMP JUMPDEST SWAP1 POP SWAP2 SWAP1 POP JUMP JUMPDEST PUSH2 0xADF DUP2 PUSH2 0xAC4 JUMP JUMPDEST DUP3 MSTORE POP POP JUMP JUMPDEST PUSH1 0x0 PUSH2 0x140 DUP3 ADD SWAP1 POP PUSH2 0xAFB PUSH1 0x0 DUP4 ADD DUP14 PUSH2 0x9D1 JUMP JUMPDEST PUSH2 0xB08 PUSH1 0x20 DUP4 ADD DUP13 PUSH2 0x9D1 JUMP JUMPDEST PUSH2 0xB15 PUSH1 0x40 DUP4 ADD DUP12 PUSH2 0x9D1 JUMP JUMPDEST PUSH2 0xB22 PUSH1 0x60 DUP4 ADD DUP11 PUSH2 0x9D1 JUMP JUMPDEST PUSH2 0xB2F PUSH1 0x80 DUP4 ADD DUP10 PUSH2 0x9D1 JUMP JUMPDEST PUSH2 0xB3C PUSH1 0xA0 DUP4 ADD DUP9 PUSH2 0x9EA JUMP JUMPDEST DUP2 DUP2 SUB PUSH1 0xC0 DUP4 ADD MSTORE PUSH2 0xB4E DUP2 DUP8 PUSH2 0xA50 JUMP JUMPDEST SWAP1 POP DUP2 DUP2 SUB PUSH1 0xE0 DUP4 ADD MSTORE PUSH2 0xB62 DUP2 DUP7 PUSH2 0xA50 JUMP JUMPDEST SWAP1 POP PUSH2 0xB72 PUSH2 0x100 DUP4 ADD DUP6 PUSH2 0xA95 JUMP JUMPDEST PUSH2 0xB80 PUSH2 0x120 DUP4 ADD DUP5 PUSH2 0xAD6 JUMP JUMPDEST SWAP12 SWAP11 POP POP POP POP POP POP POP POP POP POP POP JUMP JUMPDEST PUSH1 0x0 DUP1 REVERT JUMPDEST PUSH1 0x0 DUP1 REVERT JUMPDEST PUSH32 0x4E487B7100000000000000000000000000000000000000000000000000000000 PUSH1 0x0 MSTORE PUSH1 0x41 PUSH1 0x4 MSTORE PUSH1 0x24 PUSH1 0x0 REVERT JUMPDEST PUSH2 0xBD1 DUP3 PUSH2 0xA3F JUMP JUMPDEST DUP2 ADD DUP2 DUP2 LT PUSH8 0xFFFFFFFFFFFFFFFF DUP3 GT OR ISZERO PUSH2 0xBF0 JUMPI PUSH2 0xBEF PUSH2 0xB99 JUMP JUMPDEST JUMPDEST DUP1 PUSH1 0x40 MSTORE POP POP POP JUMP JUMPDEST PUSH1 0x0 PUSH2 0xC03 PUSH2 0x95A JUMP JUMPDEST SWAP1 POP PUSH2 0xC0F DUP3 DUP3 PUSH2 0xBC8 JUMP JUMPDEST SWAP2 SWAP1 POP JUMP JUMPDEST PUSH1 0x0 PUSH8 0xFFFFFFFFFFFFFFFF DUP3 GT ISZERO PUSH2 0xC2F JUMPI PUSH2 0xC2E PUSH2 0xB99 JUMP JUMPDEST JUMPDEST PUSH2 0xC38 DUP3 PUSH2 0xA3F JUMP JUMPDEST SWAP1 POP PUSH1 0x20 DUP2 ADD SWAP1 POP SWAP2 SWAP1 POP JUMP JUMPDEST DUP3 DUP2 DUP4 CALLDATACOPY PUSH1 0x0 DUP4 DUP4 ADD MSTORE POP POP POP JUMP JUMPDEST PUSH1 0x0 PUSH2 0xC67 PUSH2 0xC62 DUP5 PUSH2 0xC14 JUMP JUMPDEST PUSH2 0xBF9 JUMP JUMPDEST SWAP1 POP DUP3 DUP2 MSTORE PUSH1 0x20 DUP2 ADD DUP5 DUP5 DUP5 ADD GT ISZERO PUSH2 0xC83 JUMPI PUSH2 0xC82 PUSH2 0xB94 JUMP JUMPDEST JUMPDEST PUSH2 0xC8E DUP5 DUP3 DUP6 PUSH2 0xC45 JUMP JUMPDEST POP SWAP4 SWAP3 POP POP POP JUMP JUMPDEST PUSH1 0x0 DUP3 PUSH1 0x1F DUP4 ADD SLT PUSH2 0xCAB JUMPI PUSH2 0xCAA PUSH2 0xB8F JUMP JUMPDEST JUMPDEST DUP2 CALLDATALOAD PUSH2 0xCBB DUP5 DUP3 PUSH1 0x20 DUP7 ADD PUSH2 0xC54 JUMP JUMPDEST SWAP2 POP POP SWAP3 SWAP2 POP POP JUMP JUMPDEST PUSH1 0x0 DUP1 PUSH1 0x0 DUP1 PUSH1 0x0 DUP1 PUSH1 0xC0 DUP8 DUP10 SUB SLT ISZERO PUSH2 0xCE1 JUMPI PUSH2 0xCE0 PUSH2 0x964 JUMP JUMPDEST JUMPDEST PUSH1 0x0 PUSH2 0xCEF DUP10 DUP3 DUP11 ADD PUSH2 0x98F JUMP JUMPDEST SWAP7 POP POP PUSH1 0x20 PUSH2 0xD00 DUP10 DUP3 DUP11 ADD PUSH2 0x98F JUMP JUMPDEST SWAP6 POP POP PUSH1 0x40 PUSH2 0xD11 DUP10 DUP3 DUP11 ADD PUSH2 0x98F JUMP JUMPDEST SWAP5 POP POP PUSH1 0x60 DUP8 ADD CALLDATALOAD PUSH8 0xFFFFFFFFFFFFFFFF DUP2 GT ISZERO PUSH2 0xD32 JUMPI PUSH2 0xD31 PUSH2 0x969 JUMP JUMPDEST JUMPDEST PUSH2 0xD3E DUP10 DUP3 DUP11 ADD PUSH2 0xC96 JUMP JUMPDEST SWAP4 POP POP PUSH1 0x80 DUP8 ADD CALLDATALOAD PUSH8 0xFFFFFFFFFFFFFFFF DUP2 GT ISZERO PUSH2 0xD5F JUMPI PUSH2 0xD5E PUSH2 0x969 JUMP JUMPDEST JUMPDEST PUSH2 0xD6B DUP10 DUP3 DUP11 ADD PUSH2 0xC96 JUMP JUMPDEST SWAP3 POP POP PUSH1 0xA0 DUP8 ADD CALLDATALOAD PUSH8 0xFFFFFFFFFFFFFFFF DUP2 GT ISZERO PUSH2 0xD8C JUMPI PUSH2 0xD8B PUSH2 0x969 JUMP JUMPDEST JUMPDEST PUSH2 0xD98 DUP10 DUP3 DUP11 ADD PUSH2 0xC96 JUMP JUMPDEST SWAP2 POP POP SWAP3 SWAP6 POP SWAP3 SWAP6 POP SWAP3 SWAP6 JUMP JUMPDEST PUSH1 0x0 PUSH1 0x20 DUP3 ADD SWAP1 POP PUSH2 0xDBA PUSH1 0x0 DUP4 ADD DUP5 PUSH2 0xAD6 JUMP JUMPDEST SWAP3 SWAP2 POP POP JUMP JUMPDEST PUSH1 0x0 DUP2 SWAP1 POP SWAP2 SWAP1 POP JUMP JUMPDEST PUSH1 0x0 PUSH2 0xDE5 PUSH2 0xDE0 PUSH2 0xDDB DUP5 PUSH2 0xAA4 JUMP JUMPDEST PUSH2 0xDC0 JUMP JUMPDEST PUSH2 0xAA4 JUMP JUMPDEST SWAP1 POP SWAP2 SWAP1 POP JUMP JUMPDEST PUSH1 0x0 PUSH2 0xDF7 DUP3 PUSH2 0xDCA JUMP JUMPDEST SWAP1 POP SWAP2 SWAP1 POP JUMP JUMPDEST PUSH1 0x0 PUSH2 0xE09 DUP3 PUSH2 0xDEC JUMP JUMPDEST SWAP1 POP SWAP2 SWAP1 POP JUMP JUMPDEST PUSH2 0xE19 DUP2 PUSH2 0xDFE JUMP JUMPDEST DUP3 MSTORE POP POP JUMP JUMPDEST PUSH1 0x0 PUSH1 0x20 DUP3 ADD SWAP1 POP PUSH2 0xE34 PUSH1 0x0 DUP4 ADD DUP5 PUSH2 0xE10 JUMP JUMPDEST SWAP3 SWAP2 POP POP JUMP JUMPDEST PUSH1 0x0 PUSH2 0xE45 DUP3 PUSH2 0xDEC JUMP JUMPDEST SWAP1 POP SWAP2 SWAP1 POP JUMP JUMPDEST PUSH2 0xE55 DUP2 PUSH2 0xE3A JUMP JUMPDEST DUP3 MSTORE POP POP JUMP JUMPDEST PUSH1 0x0 PUSH1 0x20 DUP3 ADD SWAP1 POP PUSH2 0xE70 PUSH1 0x0 DUP4 ADD DUP5 PUSH2 0xE4C JUMP JUMPDEST SWAP3 SWAP2 POP POP JUMP JUMPDEST PUSH2 0xE7F DUP2 PUSH2 0xAC4 JUMP JUMPDEST DUP2 EQ PUSH2 0xE8A JUMPI PUSH1 0x0 DUP1 REVERT JUMPDEST POP JUMP JUMPDEST PUSH1 0x0 DUP2 CALLDATALOAD SWAP1 POP PUSH2 0xE9C DUP2 PUSH2 0xE76 JUMP JUMPDEST SWAP3 SWAP2 POP POP JUMP JUMPDEST PUSH1 0x0 PUSH1 0x20 DUP3 DUP5 SUB SLT ISZERO PUSH2 0xEB8 JUMPI PUSH2 0xEB7 PUSH2 0x964 JUMP JUMPDEST JUMPDEST PUSH1 0x0 PUSH2 0xEC6 DUP5 DUP3 DUP6 ADD PUSH2 0xE8D JUMP JUMPDEST SWAP2 POP POP SWAP3 SWAP2 POP POP JUMP JUMPDEST PUSH32 0x4E487B7100000000000000000000000000000000000000000000000000000000 PUSH1 0x0 MSTORE PUSH1 0x22 PUSH1 0x4 MSTORE PUSH1 0x24 PUSH1 0x0 REVERT JUMPDEST PUSH1 0x0 PUSH1 0x2 DUP3 DIV SWAP1 POP PUSH1 0x1 DUP3 AND DUP1 PUSH2 0xF16 JUMPI PUSH1 0x7F DUP3 AND SWAP2 POP JUMPDEST PUSH1 0x20 DUP3 LT DUP2 SUB PUSH2 0xF29 JUMPI PUSH2 0xF28 PUSH2 0xECF JUMP JUMPDEST JUMPDEST POP SWAP2 SWAP1 POP JUMP JUMPDEST PUSH32 0x416D6F756E74206D7573742062652067726561746572207468616E2030000000 PUSH1 0x0 DUP3 ADD MSTORE POP JUMP JUMPDEST PUSH1 0x0 PUSH2 0xF65 PUSH1 0x1D DUP4 PUSH2 0xA04 JUMP JUMPDEST SWAP2 POP PUSH2 0xF70 DUP3 PUSH2 0xF2F JUMP JUMPDEST PUSH1 0x20 DUP3 ADD SWAP1 POP SWAP2 SWAP1 POP JUMP JUMPDEST PUSH1 0x0 PUSH1 0x20 DUP3 ADD SWAP1 POP DUP2 DUP2 SUB PUSH1 0x0 DUP4 ADD MSTORE PUSH2 0xF94 DUP2 PUSH2 0xF58 JUMP JUMPDEST SWAP1 POP SWAP2 SWAP1 POP JUMP JUMPDEST PUSH1 0x0 DUP2 MLOAD SWAP1 POP PUSH2 0xFAA DUP2 PUSH2 0x978 JUMP JUMPDEST SWAP3 SWAP2 POP POP JUMP JUMPDEST PUSH1 0x0 PUSH1 0x20 DUP3 DUP5 SUB SLT ISZERO PUSH2 0xFC6 JUMPI PUSH2 0xFC5 PUSH2 0x964 JUMP JUMPDEST JUMPDEST PUSH1 0x0 PUSH2 0xFD4 DUP5 DUP3 DUP6 ADD PUSH2 0xF9B JUMP JUMPDEST SWAP2 POP POP SWAP3 SWAP2 POP POP JUMP JUMPDEST PUSH32 0x596F7520646F6E2774206861766520656E6F756768205553444320696E207468 PUSH1 0x0 DUP3 ADD MSTORE PUSH32 0x69732077616C6C65740000000000000000000000000000000000000000000000 PUSH1 0x20 DUP3 ADD MSTORE POP JUMP JUMPDEST PUSH1 0x0 PUSH2 0x1039 PUSH1 0x29 DUP4 PUSH2 0xA04 JUMP JUMPDEST SWAP2 POP PUSH2 0x1044 DUP3 PUSH2 0xFDD JUMP JUMPDEST PUSH1 0x40 DUP3 ADD SWAP1 POP SWAP2 SWAP1 POP JUMP JUMPDEST PUSH1 0x0 PUSH1 0x20 DUP3 ADD SWAP1 POP DUP2 DUP2 SUB PUSH1 0x0 DUP4 ADD MSTORE PUSH2 0x1068 DUP2 PUSH2 0x102C JUMP JUMPDEST SWAP1 POP SWAP2 SWAP1 POP JUMP JUMPDEST PUSH32 0x5072696365206D7573742062652067726561746572207468616E203000000000 PUSH1 0x0 DUP3 ADD MSTORE POP JUMP JUMPDEST PUSH1 0x0 PUSH2 0x10A5 PUSH1 0x1C DUP4 PUSH2 0xA04 JUMP JUMPDEST SWAP2 POP PUSH2 0x10B0 DUP3 PUSH2 0x106F JUMP JUMPDEST PUSH1 0x20 DUP3 ADD SWAP1 POP SWAP2 SWAP1 POP JUMP JUMPDEST PUSH1 0x0 PUSH1 0x20 DUP3 ADD SWAP1 POP DUP2 DUP2 SUB PUSH1 0x0 DUP4 ADD MSTORE PUSH2 0x10D4 DUP2 PUSH2 0x1098 JUMP JUMPDEST SWAP1 POP SWAP2 SWAP1 POP JUMP JUMPDEST PUSH32 0x5061796D656E74206D6574686F6420646F6573206E6F74206578697374000000 PUSH1 0x0 DUP3 ADD MSTORE POP JUMP JUMPDEST PUSH1 0x0 PUSH2 0x1111 PUSH1 0x1D DUP4 PUSH2 0xA04 JUMP JUMPDEST SWAP2 POP PUSH2 0x111C DUP3 PUSH2 0x10DB JUMP JUMPDEST PUSH1 0x20 DUP3 ADD SWAP1 POP SWAP2 SWAP1 POP JUMP JUMPDEST PUSH1 0x0 PUSH1 0x20 DUP3 ADD SWAP1 POP DUP2 DUP2 SUB PUSH1 0x0 DUP4 ADD MSTORE PUSH2 0x1140 DUP2 PUSH2 0x1104 JUMP JUMPDEST SWAP1 POP SWAP2 SWAP1 POP JUMP JUMPDEST PUSH32 0x7061796D656E7444657461696C73206D757374206E6F7420626520656D707479 PUSH1 0x0 DUP3 ADD MSTORE POP JUMP JUMPDEST PUSH1 0x0 PUSH2 0x117D PUSH1 0x20 DUP4 PUSH2 0xA04 JUMP JUMPDEST SWAP2 POP PUSH2 0x1188 DUP3 PUSH2 0x1147 JUMP JUMPDEST PUSH1 0x20 DUP3 ADD SWAP1 POP SWAP2 SWAP1 POP JUMP JUMPDEST PUSH1 0x0 PUSH1 0x20 DUP3 ADD SWAP1 POP DUP2 DUP2 SUB PUSH1 0x0 DUP4 ADD MSTORE PUSH2 0x11AC DUP2 PUSH2 0x1170 JUMP JUMPDEST SWAP1 POP SWAP2 SWAP1 POP JUMP JUMPDEST PUSH1 0x0 DUP2 SWAP1 POP SWAP3 SWAP2 POP POP JUMP JUMPDEST PUSH1 0x0 PUSH2 0x11C9 DUP3 PUSH2 0x9F9 JUMP JUMPDEST PUSH2 0x11D3 DUP2 DUP6 PUSH2 0x11B3 JUMP JUMPDEST SWAP4 POP PUSH2 0x11E3 DUP2 DUP6 PUSH1 0x20 DUP7 ADD PUSH2 0xA15 JUMP JUMPDEST DUP1 DUP5 ADD SWAP2 POP POP SWAP3 SWAP2 POP POP JUMP JUMPDEST PUSH1 0x0 PUSH2 0x11FB DUP3 DUP5 PUSH2 0x11BE JUMP JUMPDEST SWAP2 POP DUP2 SWAP1 POP SWAP3 SWAP2 POP POP JUMP JUMPDEST PUSH1 0x0 DUP2 SWAP1 POP DUP2 PUSH1 0x0 MSTORE PUSH1 0x20 PUSH1 0x0 KECCAK256 SWAP1 POP SWAP2 SWAP1 POP JUMP JUMPDEST PUSH1 0x0 PUSH1 0x20 PUSH1 0x1F DUP4 ADD DIV SWAP1 POP SWAP2 SWAP1 POP JUMP JUMPDEST PUSH1 0x0 DUP3 DUP3 SHL SWAP1 POP SWAP3 SWAP2 POP POP JUMP JUMPDEST PUSH1 0x0 PUSH1 0x8 DUP4 MUL PUSH2 0x1268 PUSH32 0xFFFFFFFFFFFFFFFFFFFFFFFFFFFFFFFFFFFFFFFFFFFFFFFFFFFFFFFFFFFFFFFF DUP3 PUSH2 0x122B JUMP JUMPDEST PUSH2 0x1272 DUP7 DUP4 PUSH2 0x122B JUMP JUMPDEST SWAP6 POP DUP1 NOT DUP5 AND SWAP4 POP DUP1 DUP7 AND DUP5 OR SWAP3 POP POP POP SWAP4 SWAP3 POP POP POP JUMP JUMPDEST PUSH1 0x0 PUSH2 0x12A5 PUSH2 0x12A0 PUSH2 0x129B DUP5 PUSH2 0x96E JUMP JUMPDEST PUSH2 0xDC0 JUMP JUMPDEST PUSH2 0x96E JUMP JUMPDEST SWAP1 POP SWAP2 SWAP1 POP JUMP JUMPDEST PUSH1 0x0 DUP2 SWAP1 POP SWAP2 SWAP1 POP JUMP JUMPDEST PUSH2 0x12BF DUP4 PUSH2 0x128A JUMP JUMPDEST PUSH2 0x12D3 PUSH2 0x12CB DUP3 PUSH2 0x12AC JUMP JUMPDEST DUP5 DUP5 SLOAD PUSH2 0x1238 JUMP JUMPDEST DUP3 SSTORE POP POP POP POP JUMP JUMPDEST PUSH1 0x0 SWAP1 JUMP JUMPDEST PUSH2 0x12E8 PUSH2 0x12DB JUMP JUMPDEST PUSH2 0x12F3 DUP2 DUP5 DUP5 PUSH2 0x12B6 JUMP JUMPDEST POP POP POP JUMP JUMPDEST JUMPDEST DUP2 DUP2 LT ISZERO PUSH2 0x1317 JUMPI PUSH2 0x130C PUSH1 0x0 DUP3 PUSH2 0x12E0 JUMP JUMPDEST PUSH1 0x1 DUP2 ADD SWAP1 POP PUSH2 0x12F9 JUMP JUMPDEST POP POP JUMP JUMPDEST PUSH1 0x1F DUP3 GT ISZERO PUSH2 0x135C JUMPI PUSH2 0x132D DUP2 PUSH2 0x1206 JUMP JUMPDEST PUSH2 0x1336 DUP5 PUSH2 0x121B JUMP JUMPDEST DUP2 ADD PUSH1 0x20 DUP6 LT ISZERO PUSH2 0x1345 JUMPI DUP2 SWAP1 POP JUMPDEST PUSH2 0x1359 PUSH2 0x1351 DUP6 PUSH2 0x121B JUMP JUMPDEST DUP4 ADD DUP3 PUSH2 0x12F8 JUMP JUMPDEST POP POP JUMPDEST POP POP POP JUMP JUMPDEST PUSH1 0x0 DUP3 DUP3 SHR SWAP1 POP SWAP3 SWAP2 POP POP JUMP JUMPDEST PUSH1 0x0 PUSH2 0x137F PUSH1 0x0 NOT DUP5 PUSH1 0x8 MUL PUSH2 0x1361 JUMP JUMPDEST NOT DUP1 DUP4 AND SWAP2 POP POP SWAP3 SWAP2 POP POP JUMP JUMPDEST PUSH1 0x0 PUSH2 0x1398 DUP4 DUP4 PUSH2 0x136E JUMP JUMPDEST SWAP2 POP DUP3 PUSH1 0x2 MUL DUP3 OR SWAP1 POP SWAP3 SWAP2 POP POP JUMP JUMPDEST PUSH2 0x13B1 DUP3 PUSH2 0x9F9 JUMP JUMPDEST PUSH8 0xFFFFFFFFFFFFFFFF DUP2 GT ISZERO PUSH2 0x13CA JUMPI PUSH2 0x13C9 PUSH2 0xB99 JUMP JUMPDEST JUMPDEST PUSH2 0x13D4 DUP3 SLOAD PUSH2 0xEFE JUMP JUMPDEST PUSH2 0x13DF DUP3 DUP3 DUP6 PUSH2 0x131B JUMP JUMPDEST PUSH1 0x0 PUSH1 0x20 SWAP1 POP PUSH1 0x1F DUP4 GT PUSH1 0x1 DUP2 EQ PUSH2 0x1412 JUMPI PUSH1 0x0 DUP5 ISZERO PUSH2 0x1400 JUMPI DUP3 DUP8 ADD MLOAD SWAP1 POP JUMPDEST PUSH2 0x140A DUP6 DUP3 PUSH2 0x138C JUMP JUMPDEST DUP7 SSTORE POP PUSH2 0x1472 JUMP JUMPDEST PUSH1 0x1F NOT DUP5 AND PUSH2 0x1420 DUP7 PUSH2 0x1206 JUMP JUMPDEST PUSH1 0x0 JUMPDEST DUP3 DUP2 LT ISZERO PUSH2 0x1448 JUMPI DUP5 DUP10 ADD MLOAD DUP3 SSTORE PUSH1 0x1 DUP3 ADD SWAP2 POP PUSH1 0x20 DUP6 ADD SWAP5 POP PUSH1 0x20 DUP2 ADD SWAP1 POP PUSH2 0x1423 JUMP JUMPDEST DUP7 DUP4 LT ISZERO PUSH2 0x1465 JUMPI DUP5 DUP10 ADD MLOAD PUSH2 0x1461 PUSH1 0x1F DUP10 AND DUP3 PUSH2 0x136E JUMP JUMPDEST DUP4 SSTORE POP JUMPDEST PUSH1 0x1 PUSH1 0x2 DUP9 MUL ADD DUP9 SSTORE POP POP POP JUMPDEST POP POP POP POP POP POP JUMP JUMPDEST PUSH32 0x4F776E61626C653A206E6577206F776E657220697320746865207A65726F2061 PUSH1 0x0 DUP3 ADD MSTORE PUSH32 0x6464726573730000000000000000000000000000000000000000000000000000 PUSH1 0x20 DUP3 ADD MSTORE POP JUMP JUMPDEST PUSH1 0x0 PUSH2 0x14D6 PUSH1 0x26 DUP4 PUSH2 0xA04 JUMP JUMPDEST SWAP2 POP PUSH2 0x14E1 DUP3 PUSH2 0x147A JUMP JUMPDEST PUSH1 0x40 DUP3 ADD SWAP1 POP SWAP2 SWAP1 POP JUMP JUMPDEST PUSH1 0x0 PUSH1 0x20 DUP3 ADD SWAP1 POP DUP2 DUP2 SUB PUSH1 0x0 DUP4 ADD MSTORE PUSH2 0x1505 DUP2 PUSH2 0x14C9 JUMP JUMPDEST SWAP1 POP SWAP2 SWAP1 POP JUMP JUMPDEST PUSH32 0x4F776E61626C653A2063616C6C6572206973206E6F7420746865206F776E6572 PUSH1 0x0 DUP3 ADD MSTORE POP JUMP JUMPDEST PUSH1 0x0 PUSH2 0x1542 PUSH1 0x20 DUP4 PUSH2 0xA04 JUMP JUMPDEST SWAP2 POP PUSH2 0x154D DUP3 PUSH2 0x150C JUMP JUMPDEST PUSH1 0x20 DUP3 ADD SWAP1 POP SWAP2 SWAP1 POP JUMP JUMPDEST PUSH1 0x0 PUSH1 0x20 DUP3 ADD SWAP1 POP DUP2 DUP2 SUB PUSH1 0x0 DUP4 ADD MSTORE PUSH2 0x1571 DUP2 PUSH2 0x1535 JUMP JUMPDEST SWAP1 POP SWAP2 SWAP1 POP JUMP INVALID LOG2 PUSH5 0x6970667358 0x22 SLT KECCAK256 LOG1 SWAP8 MOD PUSH10 0xD701CF54A5D61EF18352 GT JUMPI PUSH9 0xCA8E83E4A192EC5896 EQ TIMESTAMP 0xB0 SWAP9 0xEF CALLER PUSH5 0x736F6C6343 STOP ADDMOD SLT STOP CALLER "
				},
				"gasEstimates": {
					"creation": {
						"codeDepositCost": "1110000",
						"executionCost": "infinite",
						"totalCost": "infinite"
					},
					"external": {
						"USDCTokenInstance()": "infinite",
						"createProposal(uint256,uint256,uint256,string,string,string)": "infinite",
						"owner()": "2522",
						"paymentMethodsContract()": "infinite",
						"proposals(uint256)": "infinite",
						"renounceOwnership()": "30443",
						"transferOwnership(address)": "30810"
					}
				},
				"methodIdentifiers": {
					"USDCTokenInstance()": "98afca47",
					"createProposal(uint256,uint256,uint256,string,string,string)": "1601947e",
					"owner()": "8da5cb5b",
					"paymentMethodsContract()": "a3b9131b",
					"proposals(uint256)": "013cf08b",
					"renounceOwnership()": "715018a6",
					"transferOwnership(address)": "f2fde38b"
				}
			},
			"storageLayout": {
				"storage": [
					{
						"astId": 7,
						"contract": "contracts/proposals.sol:Proposals",
						"label": "_owner",
						"offset": 0,
						"slot": "0",
						"type": "t_address"
					},
					{
						"astId": 356,
						"contract": "contracts/proposals.sol:Proposals",
						"label": "USDCTokenInstance",
						"offset": 0,
						"slot": "1",
						"type": "t_contract(IERC20)190"
					},
					{
						"astId": 359,
						"contract": "contracts/proposals.sol:Proposals",
						"label": "paymentMethodsContract",
						"offset": 0,
						"slot": "2",
						"type": "t_contract(IPaymentMethods)344"
					},
					{
						"astId": 384,
						"contract": "contracts/proposals.sol:Proposals",
						"label": "proposals",
						"offset": 0,
						"slot": "3",
						"type": "t_array(t_struct(Proposal)380_storage)dyn_storage"
					}
				],
				"types": {
					"t_address": {
						"encoding": "inplace",
						"label": "address",
						"numberOfBytes": "20"
					},
					"t_array(t_struct(Proposal)380_storage)dyn_storage": {
						"base": "t_struct(Proposal)380_storage",
						"encoding": "dynamic_array",
						"label": "struct Proposals.Proposal[]",
						"numberOfBytes": "32"
					},
					"t_bool": {
						"encoding": "inplace",
						"label": "bool",
						"numberOfBytes": "1"
					},
					"t_bytes32": {
						"encoding": "inplace",
						"label": "bytes32",
						"numberOfBytes": "32"
					},
					"t_contract(IERC20)190": {
						"encoding": "inplace",
						"label": "contract IERC20",
						"numberOfBytes": "20"
					},
					"t_contract(IPaymentMethods)344": {
						"encoding": "inplace",
						"label": "contract IPaymentMethods",
						"numberOfBytes": "20"
					},
					"t_string_storage": {
						"encoding": "bytes",
						"label": "string",
						"numberOfBytes": "32"
					},
					"t_struct(Proposal)380_storage": {
						"encoding": "inplace",
						"label": "struct Proposals.Proposal",
						"members": [
							{
								"astId": 361,
								"contract": "contracts/proposals.sol:Proposals",
								"label": "amount",
								"offset": 0,
								"slot": "0",
								"type": "t_uint256"
							},
							{
								"astId": 363,
								"contract": "contracts/proposals.sol:Proposals",
								"label": "escrowBalance",
								"offset": 0,
								"slot": "1",
								"type": "t_uint256"
							},
							{
								"astId": 365,
								"contract": "contracts/proposals.sol:Proposals",
								"label": "price",
								"offset": 0,
								"slot": "2",
								"type": "t_uint256"
							},
							{
								"astId": 367,
								"contract": "contracts/proposals.sol:Proposals",
								"label": "date",
								"offset": 0,
								"slot": "3",
								"type": "t_uint256"
							},
							{
								"astId": 369,
								"contract": "contracts/proposals.sol:Proposals",
								"label": "paymentMethodIndex",
								"offset": 0,
								"slot": "4",
								"type": "t_uint256"
							},
							{
								"astId": 371,
								"contract": "contracts/proposals.sol:Proposals",
								"label": "paymentDetails",
								"offset": 0,
								"slot": "5",
								"type": "t_bytes32"
							},
							{
								"astId": 373,
								"contract": "contracts/proposals.sol:Proposals",
								"label": "comment",
								"offset": 0,
								"slot": "6",
								"type": "t_string_storage"
							},
							{
								"astId": 375,
								"contract": "contracts/proposals.sol:Proposals",
								"label": "username",
								"offset": 0,
								"slot": "7",
								"type": "t_string_storage"
							},
							{
								"astId": 377,
								"contract": "contracts/proposals.sol:Proposals",
								"label": "active",
								"offset": 0,
								"slot": "8",
								"type": "t_bool"
							},
							{
								"astId": 379,
								"contract": "contracts/proposals.sol:Proposals",
								"label": "seller",
								"offset": 1,
								"slot": "8",
								"type": "t_address"
							}
						],
						"numberOfBytes": "288"
					},
					"t_uint256": {
						"encoding": "inplace",
						"label": "uint256",
						"numberOfBytes": "32"
					}
				}
			},
			"userdoc": {
				"kind": "user",
				"methods": {},
				"version": 1
			}
		}
	}
}