{
	"contracts/dispute.sol": {
		"DisputeResolution": {
			"abi": [
				{
					"inputs": [
						{
							"internalType": "contract IERC20",
							"name": "_finjaTokenInstance",
							"type": "address"
						}
					],
					"stateMutability": "nonpayable",
					"type": "constructor"
				},
				{
					"anonymous": false,
					"inputs": [
						{
							"indexed": true,
							"internalType": "uint256",
							"name": "proposalId",
							"type": "uint256"
						},
						{
							"indexed": true,
							"internalType": "uint256",
							"name": "buyerRequestIndex",
							"type": "uint256"
						},
						{
							"indexed": true,
							"internalType": "uint256",
							"name": "disputeId",
							"type": "uint256"
						},
						{
							"indexed": false,
							"internalType": "address",
							"name": "buyer",
							"type": "address"
						},
						{
							"indexed": false,
							"internalType": "address",
							"name": "seller",
							"type": "address"
						}
					],
					"name": "DisputeCreated",
					"type": "event"
				},
				{
					"anonymous": false,
					"inputs": [
						{
							"indexed": true,
							"internalType": "uint256",
							"name": "disputeId",
							"type": "uint256"
						},
						{
							"indexed": false,
							"internalType": "bool",
							"name": "inFavorOfBuyer",
							"type": "bool"
						}
					],
					"name": "DisputeResolved",
					"type": "event"
				},
				{
					"anonymous": false,
					"inputs": [
						{
							"indexed": true,
							"internalType": "address",
							"name": "previousOwner",
							"type": "address"
						},
						{
							"indexed": true,
							"internalType": "address",
							"name": "newOwner",
							"type": "address"
						}
					],
					"name": "OwnershipTransferred",
					"type": "event"
				},
				{
					"anonymous": false,
					"inputs": [
						{
							"indexed": true,
							"internalType": "uint256",
							"name": "disputeId",
							"type": "uint256"
						},
						{
							"indexed": false,
							"internalType": "address",
							"name": "voter",
							"type": "address"
						},
						{
							"indexed": false,
							"internalType": "bool",
							"name": "inFavorOfBuyer",
							"type": "bool"
						},
						{
							"indexed": false,
							"internalType": "uint256",
							"name": "amount",
							"type": "uint256"
						}
					],
					"name": "VoteSubmitted",
					"type": "event"
				},
				{
					"inputs": [
						{
							"internalType": "uint256",
							"name": "",
							"type": "uint256"
						},
						{
							"internalType": "address",
							"name": "",
							"type": "address"
						}
					],
					"name": "buyerStakedTokens",
					"outputs": [
						{
							"internalType": "uint256",
							"name": "",
							"type": "uint256"
						}
					],
					"stateMutability": "view",
					"type": "function"
				},
				{
					"inputs": [
						{
							"internalType": "uint256",
							"name": "proposalID",
							"type": "uint256"
						},
						{
							"internalType": "uint256",
							"name": "buyerRequestIndex",
							"type": "uint256"
						}
					],
					"name": "canCreateDispute",
					"outputs": [
						{
							"internalType": "bool",
							"name": "",
							"type": "bool"
						}
					],
					"stateMutability": "view",
					"type": "function"
				},
				{
					"inputs": [
						{
							"internalType": "uint256",
							"name": "disputeId",
							"type": "uint256"
						}
					],
					"name": "claimTokens",
					"outputs": [],
					"stateMutability": "nonpayable",
					"type": "function"
				},
				{
					"inputs": [
						{
							"internalType": "address",
							"name": "buyer",
							"type": "address"
						},
						{
							"internalType": "address",
							"name": "seller",
							"type": "address"
						},
						{
							"internalType": "uint256",
							"name": "proposalID",
							"type": "uint256"
						},
						{
							"internalType": "uint256",
							"name": "buyerRequestIndex",
							"type": "uint256"
						},
						{
							"internalType": "uint256",
							"name": "disputedAmount",
							"type": "uint256"
						}
					],
					"name": "createDispute",
					"outputs": [
						{
							"internalType": "uint256",
							"name": "",
							"type": "uint256"
						}
					],
					"stateMutability": "nonpayable",
					"type": "function"
				},
				{
					"inputs": [],
					"name": "disputeCount",
					"outputs": [
						{
							"internalType": "uint256",
							"name": "",
							"type": "uint256"
						}
					],
					"stateMutability": "view",
					"type": "function"
				},
				{
					"inputs": [
						{
							"internalType": "uint256",
							"name": "",
							"type": "uint256"
						}
					],
					"name": "disputes",
					"outputs": [
						{
							"internalType": "address",
							"name": "buyer",
							"type": "address"
						},
						{
							"internalType": "address",
							"name": "seller",
							"type": "address"
						},
						{
							"internalType": "uint256",
							"name": "proposalID",
							"type": "uint256"
						},
						{
							"internalType": "uint256",
							"name": "buyerRequestIndex",
							"type": "uint256"
						},
						{
							"internalType": "uint256",
							"name": "disputedAmount",
							"type": "uint256"
						},
						{
							"internalType": "uint256",
							"name": "buyerVotes",
							"type": "uint256"
						},
						{
							"internalType": "uint256",
							"name": "sellerVotes",
							"type": "uint256"
						},
						{
							"internalType": "uint256",
							"name": "endTime",
							"type": "uint256"
						},
						{
							"internalType": "bool",
							"name": "resolved",
							"type": "bool"
						},
						{
							"internalType": "bool",
							"name": "winnerBuyer",
							"type": "bool"
						}
					],
					"stateMutability": "view",
					"type": "function"
				},
				{
					"inputs": [
						{
							"internalType": "bytes32",
							"name": "",
							"type": "bytes32"
						}
					],
					"name": "disputesForProposalRequest",
					"outputs": [
						{
							"internalType": "uint256",
							"name": "",
							"type": "uint256"
						}
					],
					"stateMutability": "view",
					"type": "function"
				},
				{
					"inputs": [],
					"name": "finjaTokenInstance",
					"outputs": [
						{
							"internalType": "contract IERC20",
							"name": "",
							"type": "address"
						}
					],
					"stateMutability": "view",
					"type": "function"
				},
				{
					"inputs": [
						{
							"internalType": "uint256",
							"name": "disputeId",
							"type": "uint256"
						},
						{
							"internalType": "address",
							"name": "voter",
							"type": "address"
						}
					],
					"name": "getStakedTokens",
					"outputs": [
						{
							"internalType": "uint256",
							"name": "buyerTokens",
							"type": "uint256"
						},
						{
							"internalType": "uint256",
							"name": "sellerTokens",
							"type": "uint256"
						}
					],
					"stateMutability": "view",
					"type": "function"
				},
				{
					"inputs": [
						{
							"internalType": "uint256",
							"name": "",
							"type": "uint256"
						}
					],
					"name": "latestDisputeForProposal",
					"outputs": [
						{
							"internalType": "uint256",
							"name": "",
							"type": "uint256"
						}
					],
					"stateMutability": "view",
					"type": "function"
				},
				{
					"inputs": [],
					"name": "mainContract",
					"outputs": [
						{
							"internalType": "address",
							"name": "",
							"type": "address"
						}
					],
					"stateMutability": "view",
					"type": "function"
				},
				{
					"inputs": [],
					"name": "owner",
					"outputs": [
						{
							"internalType": "address",
							"name": "",
							"type": "address"
						}
					],
					"stateMutability": "view",
					"type": "function"
				},
				{
					"inputs": [],
					"name": "renounceOwnership",
					"outputs": [],
					"stateMutability": "nonpayable",
					"type": "function"
				},
				{
					"inputs": [
						{
							"internalType": "uint256",
							"name": "disputeId",
							"type": "uint256"
						}
					],
					"name": "resolveDispute",
					"outputs": [],
					"stateMutability": "nonpayable",
					"type": "function"
				},
				{
					"inputs": [
						{
							"internalType": "uint256",
							"name": "",
							"type": "uint256"
						},
						{
							"internalType": "address",
							"name": "",
							"type": "address"
						}
					],
					"name": "sellerStakedTokens",
					"outputs": [
						{
							"internalType": "uint256",
							"name": "",
							"type": "uint256"
						}
					],
					"stateMutability": "view",
					"type": "function"
				},
				{
					"inputs": [
						{
							"internalType": "address",
							"name": "_mainContract",
							"type": "address"
						}
					],
					"name": "setMainContract",
					"outputs": [],
					"stateMutability": "nonpayable",
					"type": "function"
				},
				{
					"inputs": [
						{
							"internalType": "uint256",
							"name": "newThreshold",
							"type": "uint256"
						}
					],
					"name": "setWinningThreshold",
					"outputs": [],
					"stateMutability": "nonpayable",
					"type": "function"
				},
				{
					"inputs": [
						{
							"internalType": "uint256",
							"name": "",
							"type": "uint256"
						},
						{
							"internalType": "address",
							"name": "",
							"type": "address"
						}
					],
					"name": "stakedTokens",
					"outputs": [
						{
							"internalType": "uint256",
							"name": "",
							"type": "uint256"
						}
					],
					"stateMutability": "view",
					"type": "function"
				},
				{
					"inputs": [
						{
							"internalType": "address",
							"name": "newOwner",
							"type": "address"
						}
					],
					"name": "transferOwnership",
					"outputs": [],
					"stateMutability": "nonpayable",
					"type": "function"
				},
				{
					"inputs": [
						{
							"internalType": "uint256",
							"name": "disputeId",
							"type": "uint256"
						},
						{
							"internalType": "bool",
							"name": "inFavorOfBuyer",
							"type": "bool"
						},
						{
							"internalType": "uint256",
							"name": "amount",
							"type": "uint256"
						}
					],
					"name": "vote",
					"outputs": [],
					"stateMutability": "nonpayable",
					"type": "function"
				},
				{
					"inputs": [],
					"name": "winningThreshold",
					"outputs": [
						{
							"internalType": "uint256",
							"name": "",
							"type": "uint256"
						}
					],
					"stateMutability": "view",
					"type": "function"
				}
			],
			"devdoc": {
				"kind": "dev",
				"methods": {
					"owner()": {
						"details": "Returns the address of the current owner."
					},
					"renounceOwnership()": {
						"details": "Leaves the contract without owner. It will not be possible to call `onlyOwner` functions anymore. Can only be called by the current owner. NOTE: Renouncing ownership will leave the contract without an owner, thereby removing any functionality that is only available to the owner."
					},
					"transferOwnership(address)": {
						"details": "Transfers ownership of the contract to a new account (`newOwner`). Can only be called by the current owner."
					}
				},
				"version": 1
			},
			"evm": {
				"assembly": "    /* \"contracts/dispute.sol\":271:7555  contract DisputeResolution is Ownable {... */\n  mstore(0x40, 0xa0)\n    /* \"contracts/dispute.sol\":1508:1662  constructor(IERC20 _finjaTokenInstance) {... */\n  callvalue\n  dup1\n  iszero\n  tag_1\n  jumpi\n  0x00\n  dup1\n  revert\ntag_1:\n  pop\n  mload(0x40)\n  sub(codesize, bytecodeSize)\n  dup1\n  bytecodeSize\n  dup4\n  codecopy\n  dup2\n  dup2\n  add\n  0x40\n  mstore\n  dup2\n  add\n  swap1\n  tag_2\n  swap2\n  swap1\n  tag_3\n  jump\t// in\ntag_2:\n    /* \"@openzeppelin/contracts/access/Ownable.sol\":936:968  _transferOwnership(_msgSender()) */\n  tag_7\n    /* \"@openzeppelin/contracts/access/Ownable.sol\":955:967  _msgSender() */\n  tag_8\n    /* \"@openzeppelin/contracts/access/Ownable.sol\":955:965  _msgSender */\n  shl(0x20, tag_9)\n    /* \"@openzeppelin/contracts/access/Ownable.sol\":955:967  _msgSender() */\n  0x20\n  shr\n  jump\t// in\ntag_8:\n    /* \"@openzeppelin/contracts/access/Ownable.sol\":936:954  _transferOwnership */\n  shl(0x20, tag_10)\n    /* \"@openzeppelin/contracts/access/Ownable.sol\":936:968  _transferOwnership(_msgSender()) */\n  0x20\n  shr\n  jump\t// in\ntag_7:\n    /* \"contracts/dispute.sol\":1579:1598  _finjaTokenInstance */\n  dup1\n    /* \"contracts/dispute.sol\":1558:1598  finjaTokenInstance = _finjaTokenInstance */\n  0xffffffffffffffffffffffffffffffffffffffff\n  and\n  0x80\n  dup2\n  0xffffffffffffffffffffffffffffffffffffffff\n  and\n  dup2\n  mstore\n  pop\n  pop\n    /* \"contracts/dispute.sol\":1627:1629  75 */\n  0x4b\n    /* \"contracts/dispute.sol\":1608:1624  winningThreshold */\n  0x08\n    /* \"contracts/dispute.sol\":1608:1629  winningThreshold = 75 */\n  dup2\n  swap1\n  sstore\n  pop\n    /* \"contracts/dispute.sol\":1654:1655  0 */\n  0x00\n    /* \"contracts/dispute.sol\":1639:1651  disputeCount */\n  0x09\n    /* \"contracts/dispute.sol\":1639:1655  disputeCount = 0 */\n  dup2\n  swap1\n  sstore\n  pop\n    /* \"contracts/dispute.sol\":1508:1662  constructor(IERC20 _finjaTokenInstance) {... */\n  pop\n    /* \"contracts/dispute.sol\":271:7555  contract DisputeResolution is Ownable {... */\n  jump(tag_12)\n    /* \"@openzeppelin/contracts/utils/Context.sol\":640:736  function _msgSender() internal view virtual returns (address) {... */\ntag_9:\n    /* \"@openzeppelin/contracts/utils/Context.sol\":693:700  address */\n  0x00\n    /* \"@openzeppelin/contracts/utils/Context.sol\":719:729  msg.sender */\n  caller\n    /* \"@openzeppelin/contracts/utils/Context.sol\":712:729  return msg.sender */\n  swap1\n  pop\n    /* \"@openzeppelin/contracts/utils/Context.sol\":640:736  function _msgSender() internal view virtual returns (address) {... */\n  swap1\n  jump\t// out\n    /* \"@openzeppelin/contracts/access/Ownable.sol\":2433:2620  function _transferOwnership(address newOwner) internal virtual {... */\ntag_10:\n    /* \"@openzeppelin/contracts/access/Ownable.sol\":2506:2522  address oldOwner */\n  0x00\n    /* \"@openzeppelin/contracts/access/Ownable.sol\":2525:2531  _owner */\n  dup1\n  0x00\n  swap1\n  sload\n  swap1\n  0x0100\n  exp\n  swap1\n  div\n  0xffffffffffffffffffffffffffffffffffffffff\n  and\n    /* \"@openzeppelin/contracts/access/Ownable.sol\":2506:2531  address oldOwner = _owner */\n  swap1\n  pop\n    /* \"@openzeppelin/contracts/access/Ownable.sol\":2550:2558  newOwner */\n  dup2\n    /* \"@openzeppelin/contracts/access/Ownable.sol\":2541:2547  _owner */\n  0x00\n  dup1\n    /* \"@openzeppelin/contracts/access/Ownable.sol\":2541:2558  _owner = newOwner */\n  0x0100\n  exp\n  dup2\n  sload\n  dup2\n  0xffffffffffffffffffffffffffffffffffffffff\n  mul\n  not\n  and\n  swap1\n  dup4\n  0xffffffffffffffffffffffffffffffffffffffff\n  and\n  mul\n  or\n  swap1\n  sstore\n  pop\n    /* \"@openzeppelin/contracts/access/Ownable.sol\":2604:2612  newOwner */\n  dup2\n    /* \"@openzeppelin/contracts/access/Ownable.sol\":2573:2613  OwnershipTransferred(oldOwner, newOwner) */\n  0xffffffffffffffffffffffffffffffffffffffff\n  and\n    /* \"@openzeppelin/contracts/access/Ownable.sol\":2594:2602  oldOwner */\n  dup2\n    /* \"@openzeppelin/contracts/access/Ownable.sol\":2573:2613  OwnershipTransferred(oldOwner, newOwner) */\n  0xffffffffffffffffffffffffffffffffffffffff\n  and\n  0x8be0079c531659141344cd1fd0a4f28419497f9722a3daafe3b4186f6b6457e0\n  mload(0x40)\n  mload(0x40)\n  dup1\n  swap2\n  sub\n  swap1\n  log3\n    /* \"@openzeppelin/contracts/access/Ownable.sol\":2496:2620  {... */\n  pop\n    /* \"@openzeppelin/contracts/access/Ownable.sol\":2433:2620  function _transferOwnership(address newOwner) internal virtual {... */\n  pop\n  jump\t// out\n    /* \"#utility.yul\":88:205   */\ntag_16:\n    /* \"#utility.yul\":197:198   */\n  0x00\n    /* \"#utility.yul\":194:195   */\n  dup1\n    /* \"#utility.yul\":187:199   */\n  revert\n    /* \"#utility.yul\":334:460   */\ntag_18:\n    /* \"#utility.yul\":371:378   */\n  0x00\n    /* \"#utility.yul\":411:453   */\n  0xffffffffffffffffffffffffffffffffffffffff\n    /* \"#utility.yul\":404:409   */\n  dup3\n    /* \"#utility.yul\":400:454   */\n  and\n    /* \"#utility.yul\":389:454   */\n  swap1\n  pop\n    /* \"#utility.yul\":334:460   */\n  swap2\n  swap1\n  pop\n  jump\t// out\n    /* \"#utility.yul\":466:562   */\ntag_19:\n    /* \"#utility.yul\":503:510   */\n  0x00\n    /* \"#utility.yul\":532:556   */\n  tag_29\n    /* \"#utility.yul\":550:555   */\n  dup3\n    /* \"#utility.yul\":532:556   */\n  tag_18\n  jump\t// in\ntag_29:\n    /* \"#utility.yul\":521:556   */\n  swap1\n  pop\n    /* \"#utility.yul\":466:562   */\n  swap2\n  swap1\n  pop\n  jump\t// out\n    /* \"#utility.yul\":568:678   */\ntag_20:\n    /* \"#utility.yul\":619:626   */\n  0x00\n    /* \"#utility.yul\":648:672   */\n  tag_31\n    /* \"#utility.yul\":666:671   */\n  dup3\n    /* \"#utility.yul\":648:672   */\n  tag_19\n  jump\t// in\ntag_31:\n    /* \"#utility.yul\":637:672   */\n  swap1\n  pop\n    /* \"#utility.yul\":568:678   */\n  swap2\n  swap1\n  pop\n  jump\t// out\n    /* \"#utility.yul\":684:834   */\ntag_21:\n    /* \"#utility.yul\":771:809   */\n  tag_33\n    /* \"#utility.yul\":803:808   */\n  dup2\n    /* \"#utility.yul\":771:809   */\n  tag_20\n  jump\t// in\ntag_33:\n    /* \"#utility.yul\":764:769   */\n  dup2\n    /* \"#utility.yul\":761:810   */\n  eq\n    /* \"#utility.yul\":751:828   */\n  tag_34\n  jumpi\n    /* \"#utility.yul\":824:825   */\n  0x00\n    /* \"#utility.yul\":821:822   */\n  dup1\n    /* \"#utility.yul\":814:826   */\n  revert\n    /* \"#utility.yul\":751:828   */\ntag_34:\n    /* \"#utility.yul\":684:834   */\n  pop\n  jump\t// out\n    /* \"#utility.yul\":840:1011   */\ntag_22:\n    /* \"#utility.yul\":911:916   */\n  0x00\n    /* \"#utility.yul\":942:948   */\n  dup2\n    /* \"#utility.yul\":936:949   */\n  mload\n    /* \"#utility.yul\":927:949   */\n  swap1\n  pop\n    /* \"#utility.yul\":958:1005   */\n  tag_36\n    /* \"#utility.yul\":999:1004   */\n  dup2\n    /* \"#utility.yul\":958:1005   */\n  tag_21\n  jump\t// in\ntag_36:\n    /* \"#utility.yul\":840:1011   */\n  swap3\n  swap2\n  pop\n  pop\n  jump\t// out\n    /* \"#utility.yul\":1017:1396   */\ntag_3:\n    /* \"#utility.yul\":1101:1107   */\n  0x00\n    /* \"#utility.yul\":1150:1152   */\n  0x20\n    /* \"#utility.yul\":1138:1147   */\n  dup3\n    /* \"#utility.yul\":1129:1136   */\n  dup5\n    /* \"#utility.yul\":1125:1148   */\n  sub\n    /* \"#utility.yul\":1121:1153   */\n  slt\n    /* \"#utility.yul\":1118:1237   */\n  iszero\n  tag_38\n  jumpi\n    /* \"#utility.yul\":1156:1235   */\n  tag_39\n  tag_16\n  jump\t// in\ntag_39:\n    /* \"#utility.yul\":1118:1237   */\ntag_38:\n    /* \"#utility.yul\":1276:1277   */\n  0x00\n    /* \"#utility.yul\":1301:1379   */\n  tag_40\n    /* \"#utility.yul\":1371:1378   */\n  dup5\n    /* \"#utility.yul\":1362:1368   */\n  dup3\n    /* \"#utility.yul\":1351:1360   */\n  dup6\n    /* \"#utility.yul\":1347:1369   */\n  add\n    /* \"#utility.yul\":1301:1379   */\n  tag_22\n  jump\t// in\ntag_40:\n    /* \"#utility.yul\":1291:1379   */\n  swap2\n  pop\n    /* \"#utility.yul\":1247:1389   */\n  pop\n    /* \"#utility.yul\":1017:1396   */\n  swap3\n  swap2\n  pop\n  pop\n  jump\t// out\n    /* \"contracts/dispute.sol\":271:7555  contract DisputeResolution is Ownable {... */\ntag_12:\n  mload(0x80)\n  codecopy(0x00, dataOffset(sub_0), dataSize(sub_0))\n  0x00\n  assignImmutable(\"0x53c7d35966a5a2c857f5b9d0889d9b28894dfc4ea0e7f834f61b293cc983dec7\")\n  return(0x00, dataSize(sub_0))\nstop\n\nsub_0: assembly {\n        /* \"contracts/dispute.sol\":271:7555  contract DisputeResolution is Ownable {... */\n      mstore(0x40, 0x80)\n      callvalue\n      dup1\n      iszero\n      tag_1\n      jumpi\n      0x00\n      dup1\n      revert\n    tag_1:\n      pop\n      jumpi(tag_2, lt(calldatasize, 0x04))\n      shr(0xe0, calldataload(0x00))\n      dup1\n      0x768114a4\n      gt\n      tag_24\n      jumpi\n      dup1\n      0xc2b7b868\n      gt\n      tag_25\n      jumpi\n      dup1\n      0xc2b7b868\n      eq\n      tag_18\n      jumpi\n      dup1\n      0xd270e7ab\n      eq\n      tag_19\n      jumpi\n      dup1\n      0xd46a5d7e\n      eq\n      tag_20\n      jumpi\n      dup1\n      0xf2fde38b\n      eq\n      tag_21\n      jumpi\n      dup1\n      0xfcff13f2\n      eq\n      tag_22\n      jumpi\n      dup1\n      0xffb18516\n      eq\n      tag_23\n      jumpi\n      jump(tag_2)\n    tag_25:\n      dup1\n      0x768114a4\n      eq\n      tag_13\n      jumpi\n      dup1\n      0x87c42c41\n      eq\n      tag_14\n      jumpi\n      dup1\n      0x8da5cb5b\n      eq\n      tag_15\n      jumpi\n      dup1\n      0x9f5f3a66\n      eq\n      tag_16\n      jumpi\n      dup1\n      0xa28889e1\n      eq\n      tag_17\n      jumpi\n      jump(tag_2)\n    tag_24:\n      dup1\n      0x46e04a2f\n      gt\n      tag_26\n      jumpi\n      dup1\n      0x46e04a2f\n      eq\n      tag_8\n      jumpi\n      dup1\n      0x564a565d\n      eq\n      tag_9\n      jumpi\n      dup1\n      0x56eeafd9\n      eq\n      tag_10\n      jumpi\n      dup1\n      0x6e6b2e2d\n      eq\n      tag_11\n      jumpi\n      dup1\n      0x715018a6\n      eq\n      tag_12\n      jumpi\n      jump(tag_2)\n    tag_26:\n      dup1\n      0x03d4d7e7\n      eq\n      tag_3\n      jumpi\n      dup1\n      0x0e7d5d4e\n      eq\n      tag_4\n      jumpi\n      dup1\n      0x2c054503\n      eq\n      tag_5\n      jumpi\n      dup1\n      0x3ded33bc\n      eq\n      tag_6\n      jumpi\n      dup1\n      0x438d649d\n      eq\n      tag_7\n      jumpi\n    tag_2:\n      0x00\n      dup1\n      revert\n        /* \"contracts/dispute.sol\":2711:3470  function createDispute(address buyer, address seller, uint256 proposalID, uint256 buyerRequestIndex, uint256 disputedAmount) public onlyMainContract returns (uint256) {... */\n    tag_3:\n      tag_27\n      0x04\n      dup1\n      calldatasize\n      sub\n      dup2\n      add\n      swap1\n      tag_28\n      swap2\n      swap1\n      tag_29\n      jump\t// in\n    tag_28:\n      tag_30\n      jump\t// in\n    tag_27:\n      mload(0x40)\n      tag_31\n      swap2\n      swap1\n      tag_32\n      jump\t// in\n    tag_31:\n      mload(0x40)\n      dup1\n      swap2\n      sub\n      swap1\n      return\n        /* \"contracts/dispute.sol\":348:390  IERC20 public immutable finjaTokenInstance */\n    tag_4:\n      tag_33\n      tag_34\n      jump\t// in\n    tag_33:\n      mload(0x40)\n      tag_35\n      swap2\n      swap1\n      tag_36\n      jump\t// in\n    tag_35:\n      mload(0x40)\n      dup1\n      swap2\n      sub\n      swap1\n      return\n        /* \"contracts/dispute.sol\":2111:2709  function canCreateDispute(uint256 proposalID, uint256 buyerRequestIndex) public view returns (bool) {... */\n    tag_5:\n      tag_37\n      0x04\n      dup1\n      calldatasize\n      sub\n      dup2\n      add\n      swap1\n      tag_38\n      swap2\n      swap1\n      tag_39\n      jump\t// in\n    tag_38:\n      tag_40\n      jump\t// in\n    tag_37:\n      mload(0x40)\n      tag_41\n      swap2\n      swap1\n      tag_42\n      jump\t// in\n    tag_41:\n      mload(0x40)\n      dup1\n      swap2\n      sub\n      swap1\n      return\n        /* \"contracts/dispute.sol\":1801:1932  function setMainContract (address _mainContract)... */\n    tag_6:\n      tag_43\n      0x04\n      dup1\n      calldatasize\n      sub\n      dup2\n      add\n      swap1\n      tag_44\n      swap2\n      swap1\n      tag_45\n      jump\t// in\n    tag_44:\n      tag_46\n      jump\t// in\n    tag_43:\n      stop\n        /* \"contracts/dispute.sol\":1110:1141  uint256 public winningThreshold */\n    tag_7:\n      tag_47\n      tag_48\n      jump\t// in\n    tag_47:\n      mload(0x40)\n      tag_49\n      swap2\n      swap1\n      tag_32\n      jump\t// in\n    tag_49:\n      mload(0x40)\n      dup1\n      swap2\n      sub\n      swap1\n      return\n        /* \"contracts/dispute.sol\":6127:7552  function claimTokens(uint256 disputeId) public {... */\n    tag_8:\n      tag_50\n      0x04\n      dup1\n      calldatasize\n      sub\n      dup2\n      add\n      swap1\n      tag_51\n      swap2\n      swap1\n      tag_52\n      jump\t// in\n    tag_51:\n      tag_53\n      jump\t// in\n    tag_50:\n      stop\n        /* \"contracts/dispute.sol\":698:741  mapping(uint256 => Dispute) public disputes */\n    tag_9:\n      tag_54\n      0x04\n      dup1\n      calldatasize\n      sub\n      dup2\n      add\n      swap1\n      tag_55\n      swap2\n      swap1\n      tag_52\n      jump\t// in\n    tag_55:\n      tag_56\n      jump\t// in\n    tag_54:\n      mload(0x40)\n      tag_57\n      swap11\n      swap10\n      swap9\n      swap8\n      swap7\n      swap6\n      swap5\n      swap4\n      swap3\n      swap2\n      swap1\n      tag_58\n      jump\t// in\n    tag_57:\n      mload(0x40)\n      dup1\n      swap2\n      sub\n      swap1\n      return\n        /* \"contracts/dispute.sol\":747:814  mapping(uint256 => mapping(address => uint256)) public stakedTokens */\n    tag_10:\n      tag_59\n      0x04\n      dup1\n      calldatasize\n      sub\n      dup2\n      add\n      swap1\n      tag_60\n      swap2\n      swap1\n      tag_61\n      jump\t// in\n    tag_60:\n      tag_62\n      jump\t// in\n    tag_59:\n      mload(0x40)\n      tag_63\n      swap2\n      swap1\n      tag_32\n      jump\t// in\n    tag_63:\n      mload(0x40)\n      dup1\n      swap2\n      sub\n      swap1\n      return\n        /* \"contracts/dispute.sol\":977:1036  mapping(uint256 => uint256) public latestDisputeForProposal */\n    tag_11:\n      tag_64\n      0x04\n      dup1\n      calldatasize\n      sub\n      dup2\n      add\n      swap1\n      tag_65\n      swap2\n      swap1\n      tag_52\n      jump\t// in\n    tag_65:\n      tag_66\n      jump\t// in\n    tag_64:\n      mload(0x40)\n      tag_67\n      swap2\n      swap1\n      tag_32\n      jump\t// in\n    tag_67:\n      mload(0x40)\n      dup1\n      swap2\n      sub\n      swap1\n      return\n        /* \"@openzeppelin/contracts/access/Ownable.sol\":1831:1932  function renounceOwnership() public virtual onlyOwner {... */\n    tag_12:\n      tag_68\n      tag_69\n      jump\t// in\n    tag_68:\n      stop\n        /* \"contracts/dispute.sol\":820:892  mapping(uint256 => mapping(address => uint256)) public buyerStakedTokens */\n    tag_13:\n      tag_70\n      0x04\n      dup1\n      calldatasize\n      sub\n      dup2\n      add\n      swap1\n      tag_71\n      swap2\n      swap1\n      tag_61\n      jump\t// in\n    tag_71:\n      tag_72\n      jump\t// in\n    tag_70:\n      mload(0x40)\n      tag_73\n      swap2\n      swap1\n      tag_32\n      jump\t// in\n    tag_73:\n      mload(0x40)\n      dup1\n      swap2\n      sub\n      swap1\n      return\n        /* \"contracts/dispute.sol\":5605:5920  function getStakedTokens(uint256 disputeId, address voter) public view returns (uint256 buyerTokens, uint256 sellerTokens) {... */\n    tag_14:\n      tag_74\n      0x04\n      dup1\n      calldatasize\n      sub\n      dup2\n      add\n      swap1\n      tag_75\n      swap2\n      swap1\n      tag_61\n      jump\t// in\n    tag_75:\n      tag_76\n      jump\t// in\n    tag_74:\n      mload(0x40)\n      tag_77\n      swap3\n      swap2\n      swap1\n      tag_78\n      jump\t// in\n    tag_77:\n      mload(0x40)\n      dup1\n      swap2\n      sub\n      swap1\n      return\n        /* \"@openzeppelin/contracts/access/Ownable.sol\":1201:1286  function owner() public view virtual returns (address) {... */\n    tag_15:\n      tag_79\n      tag_80\n      jump\t// in\n    tag_79:\n      mload(0x40)\n      tag_81\n      swap2\n      swap1\n      tag_82\n      jump\t// in\n    tag_81:\n      mload(0x40)\n      dup1\n      swap2\n      sub\n      swap1\n      return\n        /* \"contracts/dispute.sol\":5926:6121  function setWinningThreshold(uint256 newThreshold) public onlyOwner {... */\n    tag_16:\n      tag_83\n      0x04\n      dup1\n      calldatasize\n      sub\n      dup2\n      add\n      swap1\n      tag_84\n      swap2\n      swap1\n      tag_52\n      jump\t// in\n    tag_84:\n      tag_85\n      jump\t// in\n    tag_83:\n      stop\n        /* \"contracts/dispute.sol\":1147:1174  uint256 public disputeCount */\n    tag_17:\n      tag_86\n      tag_87\n      jump\t// in\n    tag_86:\n      mload(0x40)\n      tag_88\n      swap2\n      swap1\n      tag_32\n      jump\t// in\n    tag_88:\n      mload(0x40)\n      dup1\n      swap2\n      sub\n      swap1\n      return\n        /* \"contracts/dispute.sol\":4303:5599  function resolveDispute(uint256 disputeId) public {... */\n    tag_18:\n      tag_89\n      0x04\n      dup1\n      calldatasize\n      sub\n      dup2\n      add\n      swap1\n      tag_90\n      swap2\n      swap1\n      tag_52\n      jump\t// in\n    tag_90:\n      tag_91\n      jump\t// in\n    tag_89:\n      stop\n        /* \"contracts/dispute.sol\":315:342  address public mainContract */\n    tag_19:\n      tag_92\n      tag_93\n      jump\t// in\n    tag_92:\n      mload(0x40)\n      tag_94\n      swap2\n      swap1\n      tag_82\n      jump\t// in\n    tag_94:\n      mload(0x40)\n      dup1\n      swap2\n      sub\n      swap1\n      return\n        /* \"contracts/dispute.sol\":3473:4301  function vote(uint256 disputeId, bool inFavorOfBuyer, uint256 amount) public {... */\n    tag_20:\n      tag_95\n      0x04\n      dup1\n      calldatasize\n      sub\n      dup2\n      add\n      swap1\n      tag_96\n      swap2\n      swap1\n      tag_97\n      jump\t// in\n    tag_96:\n      tag_98\n      jump\t// in\n    tag_95:\n      stop\n        /* \"@openzeppelin/contracts/access/Ownable.sol\":2081:2279  function transferOwnership(address newOwner) public virtual onlyOwner {... */\n    tag_21:\n      tag_99\n      0x04\n      dup1\n      calldatasize\n      sub\n      dup2\n      add\n      swap1\n      tag_100\n      swap2\n      swap1\n      tag_45\n      jump\t// in\n    tag_100:\n      tag_101\n      jump\t// in\n    tag_99:\n      stop\n        /* \"contracts/dispute.sol\":898:971  mapping(uint256 => mapping(address => uint256)) public sellerStakedTokens */\n    tag_22:\n      tag_102\n      0x04\n      dup1\n      calldatasize\n      sub\n      dup2\n      add\n      swap1\n      tag_103\n      swap2\n      swap1\n      tag_61\n      jump\t// in\n    tag_103:\n      tag_104\n      jump\t// in\n    tag_102:\n      mload(0x40)\n      tag_105\n      swap2\n      swap1\n      tag_32\n      jump\t// in\n    tag_105:\n      mload(0x40)\n      dup1\n      swap2\n      sub\n      swap1\n      return\n        /* \"contracts/dispute.sol\":1042:1103  mapping(bytes32 => uint256) public disputesForProposalRequest */\n    tag_23:\n      tag_106\n      0x04\n      dup1\n      calldatasize\n      sub\n      dup2\n      add\n      swap1\n      tag_107\n      swap2\n      swap1\n      tag_108\n      jump\t// in\n    tag_107:\n      tag_109\n      jump\t// in\n    tag_106:\n      mload(0x40)\n      tag_110\n      swap2\n      swap1\n      tag_32\n      jump\t// in\n    tag_110:\n      mload(0x40)\n      dup1\n      swap2\n      sub\n      swap1\n      return\n        /* \"contracts/dispute.sol\":2711:3470  function createDispute(address buyer, address seller, uint256 proposalID, uint256 buyerRequestIndex, uint256 disputedAmount) public onlyMainContract returns (uint256) {... */\n    tag_30:\n        /* \"contracts/dispute.sol\":2869:2876  uint256 */\n      0x00\n        /* \"contracts/dispute.sol\":1729:1741  mainContract */\n      0x01\n      0x00\n      swap1\n      sload\n      swap1\n      0x0100\n      exp\n      swap1\n      div\n      0xffffffffffffffffffffffffffffffffffffffff\n      and\n        /* \"contracts/dispute.sol\":1715:1741  msg.sender == mainContract */\n      0xffffffffffffffffffffffffffffffffffffffff\n      and\n        /* \"contracts/dispute.sol\":1715:1725  msg.sender */\n      caller\n        /* \"contracts/dispute.sol\":1715:1741  msg.sender == mainContract */\n      0xffffffffffffffffffffffffffffffffffffffff\n      and\n      eq\n        /* \"contracts/dispute.sol\":1707:1777  require(msg.sender == mainContract, \"Caller is not the main contract\") */\n      tag_112\n      jumpi\n      mload(0x40)\n      0x08c379a000000000000000000000000000000000000000000000000000000000\n      dup2\n      mstore\n      0x04\n      add\n      tag_113\n      swap1\n      tag_114\n      jump\t// in\n    tag_113:\n      mload(0x40)\n      dup1\n      swap2\n      sub\n      swap1\n      revert\n    tag_112:\n        /* \"contracts/dispute.sol\":2892:2939  canCreateDispute(proposalID, buyerRequestIndex) */\n      tag_116\n        /* \"contracts/dispute.sol\":2909:2919  proposalID */\n      dup5\n        /* \"contracts/dispute.sol\":2921:2938  buyerRequestIndex */\n      dup5\n        /* \"contracts/dispute.sol\":2892:2908  canCreateDispute */\n      tag_40\n        /* \"contracts/dispute.sol\":2892:2939  canCreateDispute(proposalID, buyerRequestIndex) */\n      jump\t// in\n    tag_116:\n        /* \"contracts/dispute.sol\":2884:3012  require(canCreateDispute(proposalID, buyerRequestIndex), \"Cannot create a new dispute for the given proposal and buyer request\") */\n      tag_117\n      jumpi\n      mload(0x40)\n      0x08c379a000000000000000000000000000000000000000000000000000000000\n      dup2\n      mstore\n      0x04\n      add\n      tag_118\n      swap1\n      tag_119\n      jump\t// in\n    tag_118:\n      mload(0x40)\n      dup1\n      swap2\n      sub\n      swap1\n      revert\n    tag_117:\n        /* \"contracts/dispute.sol\":3018:3035  uint256 disputeId */\n      0x00\n        /* \"contracts/dispute.sol\":3038:3050  disputeCount */\n      0x09\n      0x00\n        /* \"contracts/dispute.sol\":3038:3052  disputeCount++ */\n      dup2\n      sload\n      dup1\n      swap3\n      swap2\n      swap1\n      tag_120\n      swap1\n      tag_121\n      jump\t// in\n    tag_120:\n      swap2\n      swap1\n      pop\n      sstore\n        /* \"contracts/dispute.sol\":3018:3052  uint256 disputeId = disputeCount++ */\n      swap1\n      pop\n        /* \"contracts/dispute.sol\":3080:3198  Dispute(buyer, seller, proposalID, buyerRequestIndex, disputedAmount, 0, 0, block.timestamp + 0.2 hours, false, false) */\n      mload(0x40)\n      dup1\n      0x0140\n      add\n      0x40\n      mstore\n      dup1\n        /* \"contracts/dispute.sol\":3088:3093  buyer */\n      dup9\n        /* \"contracts/dispute.sol\":3080:3198  Dispute(buyer, seller, proposalID, buyerRequestIndex, disputedAmount, 0, 0, block.timestamp + 0.2 hours, false, false) */\n      0xffffffffffffffffffffffffffffffffffffffff\n      and\n      dup2\n      mstore\n      0x20\n      add\n        /* \"contracts/dispute.sol\":3095:3101  seller */\n      dup8\n        /* \"contracts/dispute.sol\":3080:3198  Dispute(buyer, seller, proposalID, buyerRequestIndex, disputedAmount, 0, 0, block.timestamp + 0.2 hours, false, false) */\n      0xffffffffffffffffffffffffffffffffffffffff\n      and\n      dup2\n      mstore\n      0x20\n      add\n        /* \"contracts/dispute.sol\":3103:3113  proposalID */\n      dup7\n        /* \"contracts/dispute.sol\":3080:3198  Dispute(buyer, seller, proposalID, buyerRequestIndex, disputedAmount, 0, 0, block.timestamp + 0.2 hours, false, false) */\n      dup2\n      mstore\n      0x20\n      add\n        /* \"contracts/dispute.sol\":3115:3132  buyerRequestIndex */\n      dup6\n        /* \"contracts/dispute.sol\":3080:3198  Dispute(buyer, seller, proposalID, buyerRequestIndex, disputedAmount, 0, 0, block.timestamp + 0.2 hours, false, false) */\n      dup2\n      mstore\n      0x20\n      add\n        /* \"contracts/dispute.sol\":3134:3148  disputedAmount */\n      dup5\n        /* \"contracts/dispute.sol\":3080:3198  Dispute(buyer, seller, proposalID, buyerRequestIndex, disputedAmount, 0, 0, block.timestamp + 0.2 hours, false, false) */\n      dup2\n      mstore\n      0x20\n      add\n        /* \"contracts/dispute.sol\":3150:3151  0 */\n      0x00\n        /* \"contracts/dispute.sol\":3080:3198  Dispute(buyer, seller, proposalID, buyerRequestIndex, disputedAmount, 0, 0, block.timestamp + 0.2 hours, false, false) */\n      dup2\n      mstore\n      0x20\n      add\n        /* \"contracts/dispute.sol\":3153:3154  0 */\n      0x00\n        /* \"contracts/dispute.sol\":3080:3198  Dispute(buyer, seller, proposalID, buyerRequestIndex, disputedAmount, 0, 0, block.timestamp + 0.2 hours, false, false) */\n      dup2\n      mstore\n      0x20\n      add\n        /* \"contracts/dispute.sol\":3174:3183  0.2 hours */\n      0x02d0\n        /* \"contracts/dispute.sol\":3156:3171  block.timestamp */\n      timestamp\n        /* \"contracts/dispute.sol\":3156:3183  block.timestamp + 0.2 hours */\n      tag_122\n      swap2\n      swap1\n      tag_123\n      jump\t// in\n    tag_122:\n        /* \"contracts/dispute.sol\":3080:3198  Dispute(buyer, seller, proposalID, buyerRequestIndex, disputedAmount, 0, 0, block.timestamp + 0.2 hours, false, false) */\n      dup2\n      mstore\n      0x20\n      add\n        /* \"contracts/dispute.sol\":3185:3190  false */\n      0x00\n        /* \"contracts/dispute.sol\":3080:3198  Dispute(buyer, seller, proposalID, buyerRequestIndex, disputedAmount, 0, 0, block.timestamp + 0.2 hours, false, false) */\n      iszero\n      iszero\n      dup2\n      mstore\n      0x20\n      add\n        /* \"contracts/dispute.sol\":3192:3197  false */\n      0x00\n        /* \"contracts/dispute.sol\":3080:3198  Dispute(buyer, seller, proposalID, buyerRequestIndex, disputedAmount, 0, 0, block.timestamp + 0.2 hours, false, false) */\n      iszero\n      iszero\n      dup2\n      mstore\n      pop\n        /* \"contracts/dispute.sol\":3058:3066  disputes */\n      0x02\n        /* \"contracts/dispute.sol\":3058:3077  disputes[disputeId] */\n      0x00\n        /* \"contracts/dispute.sol\":3067:3076  disputeId */\n      dup4\n        /* \"contracts/dispute.sol\":3058:3077  disputes[disputeId] */\n      dup2\n      mstore\n      0x20\n      add\n      swap1\n      dup2\n      mstore\n      0x20\n      add\n      0x00\n      keccak256\n        /* \"contracts/dispute.sol\":3058:3198  disputes[disputeId] = Dispute(buyer, seller, proposalID, buyerRequestIndex, disputedAmount, 0, 0, block.timestamp + 0.2 hours, false, false) */\n      0x00\n      dup3\n      add\n      mload\n      dup2\n      0x00\n      add\n      exp(0x0100, 0x00)\n      dup2\n      sload\n      dup2\n      0xffffffffffffffffffffffffffffffffffffffff\n      mul\n      not\n      and\n      swap1\n      dup4\n      0xffffffffffffffffffffffffffffffffffffffff\n      and\n      mul\n      or\n      swap1\n      sstore\n      pop\n      0x20\n      dup3\n      add\n      mload\n      dup2\n      0x01\n      add\n      exp(0x0100, 0x00)\n      dup2\n      sload\n      dup2\n      0xffffffffffffffffffffffffffffffffffffffff\n      mul\n      not\n      and\n      swap1\n      dup4\n      0xffffffffffffffffffffffffffffffffffffffff\n      and\n      mul\n      or\n      swap1\n      sstore\n      pop\n      0x40\n      dup3\n      add\n      mload\n      dup2\n      0x02\n      add\n      sstore\n      0x60\n      dup3\n      add\n      mload\n      dup2\n      0x03\n      add\n      sstore\n      0x80\n      dup3\n      add\n      mload\n      dup2\n      0x04\n      add\n      sstore\n      0xa0\n      dup3\n      add\n      mload\n      dup2\n      0x05\n      add\n      sstore\n      0xc0\n      dup3\n      add\n      mload\n      dup2\n      0x06\n      add\n      sstore\n      0xe0\n      dup3\n      add\n      mload\n      dup2\n      0x07\n      add\n      sstore\n      0x0100\n      dup3\n      add\n      mload\n      dup2\n      0x08\n      add\n      exp(0x0100, 0x00)\n      dup2\n      sload\n      dup2\n      0xff\n      mul\n      not\n      and\n      swap1\n      dup4\n      iszero\n      iszero\n      mul\n      or\n      swap1\n      sstore\n      pop\n      0x0120\n      dup3\n      add\n      mload\n      dup2\n      0x08\n      add\n      exp(0x0100, 0x01)\n      dup2\n      sload\n      dup2\n      0xff\n      mul\n      not\n      and\n      swap1\n      dup4\n      iszero\n      iszero\n      mul\n      or\n      swap1\n      sstore\n      pop\n      swap1\n      pop\n      pop\n        /* \"contracts/dispute.sol\":3204:3215  bytes32 key */\n      0x00\n        /* \"contracts/dispute.sol\":3218:3260  generateKey(proposalID, buyerRequestIndex) */\n      tag_124\n        /* \"contracts/dispute.sol\":3230:3240  proposalID */\n      dup7\n        /* \"contracts/dispute.sol\":3242:3259  buyerRequestIndex */\n      dup7\n        /* \"contracts/dispute.sol\":3218:3229  generateKey */\n      tag_125\n        /* \"contracts/dispute.sol\":3218:3260  generateKey(proposalID, buyerRequestIndex) */\n      jump\t// in\n    tag_124:\n        /* \"contracts/dispute.sol\":3204:3260  bytes32 key = generateKey(proposalID, buyerRequestIndex) */\n      swap1\n      pop\n        /* \"contracts/dispute.sol\":3312:3313  1 */\n      0x01\n        /* \"contracts/dispute.sol\":3300:3309  disputeId */\n      dup3\n        /* \"contracts/dispute.sol\":3300:3313  disputeId + 1 */\n      tag_126\n      swap2\n      swap1\n      tag_123\n      jump\t// in\n    tag_126:\n        /* \"contracts/dispute.sol\":3266:3292  disputesForProposalRequest */\n      0x07\n        /* \"contracts/dispute.sol\":3266:3297  disputesForProposalRequest[key] */\n      0x00\n        /* \"contracts/dispute.sol\":3293:3296  key */\n      dup4\n        /* \"contracts/dispute.sol\":3266:3297  disputesForProposalRequest[key] */\n      dup2\n      mstore\n      0x20\n      add\n      swap1\n      dup2\n      mstore\n      0x20\n      add\n      0x00\n      keccak256\n        /* \"contracts/dispute.sol\":3266:3313  disputesForProposalRequest[key] = disputeId + 1 */\n      dup2\n      swap1\n      sstore\n      pop\n        /* \"contracts/dispute.sol\":3420:3429  disputeId */\n      dup2\n        /* \"contracts/dispute.sol\":3401:3418  buyerRequestIndex */\n      dup6\n        /* \"contracts/dispute.sol\":3389:3399  proposalID */\n      dup8\n        /* \"contracts/dispute.sol\":3374:3445  DisputeCreated(proposalID, buyerRequestIndex, disputeId, buyer, seller) */\n      0xfc7fbf4c318ba42af9b9bbbff385c82e86c3422dbbaf01ff414d0c96fa201ec7\n        /* \"contracts/dispute.sol\":3431:3436  buyer */\n      dup12\n        /* \"contracts/dispute.sol\":3438:3444  seller */\n      dup12\n        /* \"contracts/dispute.sol\":3374:3445  DisputeCreated(proposalID, buyerRequestIndex, disputeId, buyer, seller) */\n      mload(0x40)\n      tag_127\n      swap3\n      swap2\n      swap1\n      tag_128\n      jump\t// in\n    tag_127:\n      mload(0x40)\n      dup1\n      swap2\n      sub\n      swap1\n      log4\n        /* \"contracts/dispute.sol\":3458:3467  disputeId */\n      dup2\n        /* \"contracts/dispute.sol\":3451:3467  return disputeId */\n      swap3\n      pop\n      pop\n      pop\n        /* \"contracts/dispute.sol\":2711:3470  function createDispute(address buyer, address seller, uint256 proposalID, uint256 buyerRequestIndex, uint256 disputedAmount) public onlyMainContract returns (uint256) {... */\n      swap6\n      swap5\n      pop\n      pop\n      pop\n      pop\n      pop\n      jump\t// out\n        /* \"contracts/dispute.sol\":348:390  IERC20 public immutable finjaTokenInstance */\n    tag_34:\n      immutable(\"0x53c7d35966a5a2c857f5b9d0889d9b28894dfc4ea0e7f834f61b293cc983dec7\")\n      dup2\n      jump\t// out\n        /* \"contracts/dispute.sol\":2111:2709  function canCreateDispute(uint256 proposalID, uint256 buyerRequestIndex) public view returns (bool) {... */\n    tag_40:\n        /* \"contracts/dispute.sol\":2205:2209  bool */\n      0x00\n        /* \"contracts/dispute.sol\":2217:2228  bytes32 key */\n      dup1\n        /* \"contracts/dispute.sol\":2231:2273  generateKey(proposalID, buyerRequestIndex) */\n      tag_130\n        /* \"contracts/dispute.sol\":2243:2253  proposalID */\n      dup5\n        /* \"contracts/dispute.sol\":2255:2272  buyerRequestIndex */\n      dup5\n        /* \"contracts/dispute.sol\":2231:2242  generateKey */\n      tag_125\n        /* \"contracts/dispute.sol\":2231:2273  generateKey(proposalID, buyerRequestIndex) */\n      jump\t// in\n    tag_130:\n        /* \"contracts/dispute.sol\":2217:2273  bytes32 key = generateKey(proposalID, buyerRequestIndex) */\n      swap1\n      pop\n        /* \"contracts/dispute.sol\":2279:2302  uint256 latestDisputeId */\n      0x00\n        /* \"contracts/dispute.sol\":2305:2331  disputesForProposalRequest */\n      0x07\n        /* \"contracts/dispute.sol\":2305:2336  disputesForProposalRequest[key] */\n      0x00\n        /* \"contracts/dispute.sol\":2332:2335  key */\n      dup4\n        /* \"contracts/dispute.sol\":2305:2336  disputesForProposalRequest[key] */\n      dup2\n      mstore\n      0x20\n      add\n      swap1\n      dup2\n      mstore\n      0x20\n      add\n      0x00\n      keccak256\n      sload\n        /* \"contracts/dispute.sol\":2279:2336  uint256 latestDisputeId = disputesForProposalRequest[key] */\n      swap1\n      pop\n        /* \"contracts/dispute.sol\":2365:2366  0 */\n      0x00\n        /* \"contracts/dispute.sol\":2346:2361  latestDisputeId */\n      dup2\n        /* \"contracts/dispute.sol\":2346:2366  latestDisputeId == 0 */\n      sub\n        /* \"contracts/dispute.sol\":2342:2473  if (latestDisputeId == 0) {... */\n      tag_131\n      jumpi\n        /* \"contracts/dispute.sol\":2462:2466  true */\n      0x01\n        /* \"contracts/dispute.sol\":2455:2466  return true */\n      swap3\n      pop\n      pop\n      pop\n      jump(tag_129)\n        /* \"contracts/dispute.sol\":2342:2473  if (latestDisputeId == 0) {... */\n    tag_131:\n        /* \"contracts/dispute.sol\":2478:2500  Dispute memory dispute */\n      0x00\n        /* \"contracts/dispute.sol\":2503:2511  disputes */\n      0x02\n        /* \"contracts/dispute.sol\":2503:2532  disputes[latestDisputeId - 1] */\n      0x00\n        /* \"contracts/dispute.sol\":2530:2531  1 */\n      0x01\n        /* \"contracts/dispute.sol\":2512:2527  latestDisputeId */\n      dup5\n        /* \"contracts/dispute.sol\":2512:2531  latestDisputeId - 1 */\n      tag_132\n      swap2\n      swap1\n      tag_133\n      jump\t// in\n    tag_132:\n        /* \"contracts/dispute.sol\":2503:2532  disputes[latestDisputeId - 1] */\n      dup2\n      mstore\n      0x20\n      add\n      swap1\n      dup2\n      mstore\n      0x20\n      add\n      0x00\n      keccak256\n        /* \"contracts/dispute.sol\":2478:2532  Dispute memory dispute = disputes[latestDisputeId - 1] */\n      mload(0x40)\n      dup1\n      0x0140\n      add\n      0x40\n      mstore\n      swap1\n      dup2\n      0x00\n      dup3\n      add\n      0x00\n      swap1\n      sload\n      swap1\n      0x0100\n      exp\n      swap1\n      div\n      0xffffffffffffffffffffffffffffffffffffffff\n      and\n      0xffffffffffffffffffffffffffffffffffffffff\n      and\n      0xffffffffffffffffffffffffffffffffffffffff\n      and\n      dup2\n      mstore\n      0x20\n      add\n      0x01\n      dup3\n      add\n      0x00\n      swap1\n      sload\n      swap1\n      0x0100\n      exp\n      swap1\n      div\n      0xffffffffffffffffffffffffffffffffffffffff\n      and\n      0xffffffffffffffffffffffffffffffffffffffff\n      and\n      0xffffffffffffffffffffffffffffffffffffffff\n      and\n      dup2\n      mstore\n      0x20\n      add\n      0x02\n      dup3\n      add\n      sload\n      dup2\n      mstore\n      0x20\n      add\n      0x03\n      dup3\n      add\n      sload\n      dup2\n      mstore\n      0x20\n      add\n      0x04\n      dup3\n      add\n      sload\n      dup2\n      mstore\n      0x20\n      add\n      0x05\n      dup3\n      add\n      sload\n      dup2\n      mstore\n      0x20\n      add\n      0x06\n      dup3\n      add\n      sload\n      dup2\n      mstore\n      0x20\n      add\n      0x07\n      dup3\n      add\n      sload\n      dup2\n      mstore\n      0x20\n      add\n      0x08\n      dup3\n      add\n      0x00\n      swap1\n      sload\n      swap1\n      0x0100\n      exp\n      swap1\n      div\n      0xff\n      and\n      iszero\n      iszero\n      iszero\n      iszero\n      dup2\n      mstore\n      0x20\n      add\n      0x08\n      dup3\n      add\n      0x01\n      swap1\n      sload\n      swap1\n      0x0100\n      exp\n      swap1\n      div\n      0xff\n      and\n      iszero\n      iszero\n      iszero\n      iszero\n      dup2\n      mstore\n      pop\n      pop\n      swap1\n      pop\n        /* \"contracts/dispute.sol\":2652:2659  dispute */\n      dup1\n        /* \"contracts/dispute.sol\":2652:2668  dispute.resolved */\n      0x0100\n      add\n      mload\n        /* \"contracts/dispute.sol\":2651:2668  !dispute.resolved */\n      iszero\n        /* \"contracts/dispute.sol\":2651:2706  !dispute.resolved && dispute.endTime <= block.timestamp */\n      dup1\n      iszero\n      tag_134\n      jumpi\n      pop\n        /* \"contracts/dispute.sol\":2691:2706  block.timestamp */\n      timestamp\n        /* \"contracts/dispute.sol\":2672:2679  dispute */\n      dup2\n        /* \"contracts/dispute.sol\":2672:2687  dispute.endTime */\n      0xe0\n      add\n      mload\n        /* \"contracts/dispute.sol\":2672:2706  dispute.endTime <= block.timestamp */\n      gt\n      iszero\n        /* \"contracts/dispute.sol\":2651:2706  !dispute.resolved && dispute.endTime <= block.timestamp */\n    tag_134:\n        /* \"contracts/dispute.sol\":2644:2706  return !dispute.resolved && dispute.endTime <= block.timestamp */\n      swap4\n      pop\n      pop\n      pop\n      pop\n        /* \"contracts/dispute.sol\":2111:2709  function canCreateDispute(uint256 proposalID, uint256 buyerRequestIndex) public view returns (bool) {... */\n    tag_129:\n      swap3\n      swap2\n      pop\n      pop\n      jump\t// out\n        /* \"contracts/dispute.sol\":1801:1932  function setMainContract (address _mainContract)... */\n    tag_46:\n        /* \"@openzeppelin/contracts/access/Ownable.sol\":1094:1107  _checkOwner() */\n      tag_136\n        /* \"@openzeppelin/contracts/access/Ownable.sol\":1094:1105  _checkOwner */\n      tag_137\n        /* \"@openzeppelin/contracts/access/Ownable.sol\":1094:1107  _checkOwner() */\n      jump\t// in\n    tag_136:\n        /* \"contracts/dispute.sol\":1912:1925  _mainContract */\n      dup1\n        /* \"contracts/dispute.sol\":1897:1909  mainContract */\n      0x01\n      0x00\n        /* \"contracts/dispute.sol\":1897:1925  mainContract = _mainContract */\n      0x0100\n      exp\n      dup2\n      sload\n      dup2\n      0xffffffffffffffffffffffffffffffffffffffff\n      mul\n      not\n      and\n      swap1\n      dup4\n      0xffffffffffffffffffffffffffffffffffffffff\n      and\n      mul\n      or\n      swap1\n      sstore\n      pop\n        /* \"contracts/dispute.sol\":1801:1932  function setMainContract (address _mainContract)... */\n      pop\n      jump\t// out\n        /* \"contracts/dispute.sol\":1110:1141  uint256 public winningThreshold */\n    tag_48:\n      sload(0x08)\n      dup2\n      jump\t// out\n        /* \"contracts/dispute.sol\":6127:7552  function claimTokens(uint256 disputeId) public {... */\n    tag_53:\n        /* \"contracts/dispute.sol\":6204:6216  disputeCount */\n      sload(0x09)\n        /* \"contracts/dispute.sol\":6192:6201  disputeId */\n      dup2\n        /* \"contracts/dispute.sol\":6192:6216  disputeId < disputeCount */\n      lt\n        /* \"contracts/dispute.sol\":6184:6239  require(disputeId < disputeCount, \"Invalid dispute ID\") */\n      tag_140\n      jumpi\n      mload(0x40)\n      0x08c379a000000000000000000000000000000000000000000000000000000000\n      dup2\n      mstore\n      0x04\n      add\n      tag_141\n      swap1\n      tag_142\n      jump\t// in\n    tag_141:\n      mload(0x40)\n      dup1\n      swap2\n      sub\n      swap1\n      revert\n    tag_140:\n        /* \"contracts/dispute.sol\":6257:6265  disputes */\n      0x02\n        /* \"contracts/dispute.sol\":6257:6276  disputes[disputeId] */\n      0x00\n        /* \"contracts/dispute.sol\":6266:6275  disputeId */\n      dup3\n        /* \"contracts/dispute.sol\":6257:6276  disputes[disputeId] */\n      dup2\n      mstore\n      0x20\n      add\n      swap1\n      dup2\n      mstore\n      0x20\n      add\n      0x00\n      keccak256\n        /* \"contracts/dispute.sol\":6257:6285  disputes[disputeId].resolved */\n      0x08\n      add\n      0x00\n      swap1\n      sload\n      swap1\n      0x0100\n      exp\n      swap1\n      div\n      0xff\n      and\n        /* \"contracts/dispute.sol\":6249:6323  require(disputes[disputeId].resolved, \"Dispute has not been resolved yet\") */\n      tag_143\n      jumpi\n      mload(0x40)\n      0x08c379a000000000000000000000000000000000000000000000000000000000\n      dup2\n      mstore\n      0x04\n      add\n      tag_144\n      swap1\n      tag_145\n      jump\t// in\n    tag_144:\n      mload(0x40)\n      dup1\n      swap2\n      sub\n      swap1\n      revert\n    tag_143:\n        /* \"contracts/dispute.sol\":6334:6348  uint256 amount */\n      0x00\n        /* \"contracts/dispute.sol\":6351:6363  stakedTokens */\n      0x03\n        /* \"contracts/dispute.sol\":6351:6374  stakedTokens[disputeId] */\n      0x00\n        /* \"contracts/dispute.sol\":6364:6373  disputeId */\n      dup4\n        /* \"contracts/dispute.sol\":6351:6374  stakedTokens[disputeId] */\n      dup2\n      mstore\n      0x20\n      add\n      swap1\n      dup2\n      mstore\n      0x20\n      add\n      0x00\n      keccak256\n        /* \"contracts/dispute.sol\":6351:6386  stakedTokens[disputeId][msg.sender] */\n      0x00\n        /* \"contracts/dispute.sol\":6375:6385  msg.sender */\n      caller\n        /* \"contracts/dispute.sol\":6351:6386  stakedTokens[disputeId][msg.sender] */\n      0xffffffffffffffffffffffffffffffffffffffff\n      and\n      0xffffffffffffffffffffffffffffffffffffffff\n      and\n      dup2\n      mstore\n      0x20\n      add\n      swap1\n      dup2\n      mstore\n      0x20\n      add\n      0x00\n      keccak256\n      sload\n        /* \"contracts/dispute.sol\":6334:6386  uint256 amount = stakedTokens[disputeId][msg.sender] */\n      swap1\n      pop\n        /* \"contracts/dispute.sol\":6413:6414  0 */\n      0x00\n        /* \"contracts/dispute.sol\":6404:6410  amount */\n      dup2\n        /* \"contracts/dispute.sol\":6404:6414  amount > 0 */\n      gt\n        /* \"contracts/dispute.sol\":6396:6437  require(amount > 0, \"No tokens to claim\") */\n      tag_146\n      jumpi\n      mload(0x40)\n      0x08c379a000000000000000000000000000000000000000000000000000000000\n      dup2\n      mstore\n      0x04\n      add\n      tag_147\n      swap1\n      tag_148\n      jump\t// in\n    tag_147:\n      mload(0x40)\n      dup1\n      swap2\n      sub\n      swap1\n      revert\n    tag_146:\n        /* \"contracts/dispute.sol\":6448:6467  bool inFavorOfBuyer */\n      0x00\n        /* \"contracts/dispute.sol\":6503:6511  disputes */\n      0x02\n        /* \"contracts/dispute.sol\":6503:6522  disputes[disputeId] */\n      0x00\n        /* \"contracts/dispute.sol\":6512:6521  disputeId */\n      dup5\n        /* \"contracts/dispute.sol\":6503:6522  disputes[disputeId] */\n      dup2\n      mstore\n      0x20\n      add\n      swap1\n      dup2\n      mstore\n      0x20\n      add\n      0x00\n      keccak256\n        /* \"contracts/dispute.sol\":6503:6534  disputes[disputeId].sellerVotes */\n      0x06\n      add\n      sload\n        /* \"contracts/dispute.sol\":6470:6478  disputes */\n      0x02\n        /* \"contracts/dispute.sol\":6470:6489  disputes[disputeId] */\n      0x00\n        /* \"contracts/dispute.sol\":6479:6488  disputeId */\n      dup6\n        /* \"contracts/dispute.sol\":6470:6489  disputes[disputeId] */\n      dup2\n      mstore\n      0x20\n      add\n      swap1\n      dup2\n      mstore\n      0x20\n      add\n      0x00\n      keccak256\n        /* \"contracts/dispute.sol\":6470:6500  disputes[disputeId].buyerVotes */\n      0x05\n      add\n      sload\n        /* \"contracts/dispute.sol\":6470:6534  disputes[disputeId].buyerVotes > disputes[disputeId].sellerVotes */\n      gt\n        /* \"contracts/dispute.sol\":6448:6534  bool inFavorOfBuyer = disputes[disputeId].buyerVotes > disputes[disputeId].sellerVotes */\n      swap1\n      pop\n        /* \"contracts/dispute.sol\":6544:6567  bool voterVotedForBuyer */\n      0x00\n        /* \"contracts/dispute.sol\":6603:6604  0 */\n      dup1\n        /* \"contracts/dispute.sol\":6570:6578  disputes */\n      0x02\n        /* \"contracts/dispute.sol\":6570:6589  disputes[disputeId] */\n      0x00\n        /* \"contracts/dispute.sol\":6579:6588  disputeId */\n      dup7\n        /* \"contracts/dispute.sol\":6570:6589  disputes[disputeId] */\n      dup2\n      mstore\n      0x20\n      add\n      swap1\n      dup2\n      mstore\n      0x20\n      add\n      0x00\n      keccak256\n        /* \"contracts/dispute.sol\":6570:6600  disputes[disputeId].buyerVotes */\n      0x05\n      add\n      sload\n        /* \"contracts/dispute.sol\":6570:6604  disputes[disputeId].buyerVotes > 0 */\n      gt\n        /* \"contracts/dispute.sol\":6544:6604  bool voterVotedForBuyer = disputes[disputeId].buyerVotes > 0 */\n      swap1\n      pop\n        /* \"contracts/dispute.sol\":6614:6638  bool voterVotedForWinner */\n      0x00\n        /* \"contracts/dispute.sol\":6642:6656  inFavorOfBuyer */\n      dup3\n        /* \"contracts/dispute.sol\":6642:6678  inFavorOfBuyer && voterVotedForBuyer */\n      dup1\n      iszero\n      tag_149\n      jumpi\n      pop\n        /* \"contracts/dispute.sol\":6660:6678  voterVotedForBuyer */\n      dup2\n        /* \"contracts/dispute.sol\":6642:6678  inFavorOfBuyer && voterVotedForBuyer */\n    tag_149:\n        /* \"contracts/dispute.sol\":6641:6723  (inFavorOfBuyer && voterVotedForBuyer) || (!inFavorOfBuyer && !voterVotedForBuyer) */\n      dup1\n      tag_150\n      jumpi\n      pop\n        /* \"contracts/dispute.sol\":6685:6699  inFavorOfBuyer */\n      dup3\n        /* \"contracts/dispute.sol\":6684:6699  !inFavorOfBuyer */\n      iszero\n        /* \"contracts/dispute.sol\":6684:6722  !inFavorOfBuyer && !voterVotedForBuyer */\n      dup1\n      iszero\n      tag_151\n      jumpi\n      pop\n        /* \"contracts/dispute.sol\":6704:6722  voterVotedForBuyer */\n      dup2\n        /* \"contracts/dispute.sol\":6703:6722  !voterVotedForBuyer */\n      iszero\n        /* \"contracts/dispute.sol\":6684:6722  !inFavorOfBuyer && !voterVotedForBuyer */\n    tag_151:\n        /* \"contracts/dispute.sol\":6641:6723  (inFavorOfBuyer && voterVotedForBuyer) || (!inFavorOfBuyer && !voterVotedForBuyer) */\n    tag_150:\n        /* \"contracts/dispute.sol\":6614:6723  bool voterVotedForWinner = (inFavorOfBuyer && voterVotedForBuyer) || (!inFavorOfBuyer && !voterVotedForBuyer) */\n      swap1\n      pop\n        /* \"contracts/dispute.sol\":6734:6759  uint256 totalWinnerStakes */\n      0x00\n        /* \"contracts/dispute.sol\":6769:6793  uint256 totalLoserStakes */\n      dup1\n        /* \"contracts/dispute.sol\":6808:6822  inFavorOfBuyer */\n      dup5\n        /* \"contracts/dispute.sol\":6804:7108  if (inFavorOfBuyer) {... */\n      iszero\n      tag_152\n      jumpi\n        /* \"contracts/dispute.sol\":6858:6866  disputes */\n      0x02\n        /* \"contracts/dispute.sol\":6858:6877  disputes[disputeId] */\n      0x00\n        /* \"contracts/dispute.sol\":6867:6876  disputeId */\n      dup9\n        /* \"contracts/dispute.sol\":6858:6877  disputes[disputeId] */\n      dup2\n      mstore\n      0x20\n      add\n      swap1\n      dup2\n      mstore\n      0x20\n      add\n      0x00\n      keccak256\n        /* \"contracts/dispute.sol\":6858:6888  disputes[disputeId].buyerVotes */\n      0x05\n      add\n      sload\n        /* \"contracts/dispute.sol\":6838:6888  totalWinnerStakes = disputes[disputeId].buyerVotes */\n      swap2\n      pop\n        /* \"contracts/dispute.sol\":6921:6929  disputes */\n      0x02\n        /* \"contracts/dispute.sol\":6921:6940  disputes[disputeId] */\n      0x00\n        /* \"contracts/dispute.sol\":6930:6939  disputeId */\n      dup9\n        /* \"contracts/dispute.sol\":6921:6940  disputes[disputeId] */\n      dup2\n      mstore\n      0x20\n      add\n      swap1\n      dup2\n      mstore\n      0x20\n      add\n      0x00\n      keccak256\n        /* \"contracts/dispute.sol\":6921:6952  disputes[disputeId].sellerVotes */\n      0x06\n      add\n      sload\n        /* \"contracts/dispute.sol\":6902:6952  totalLoserStakes = disputes[disputeId].sellerVotes */\n      swap1\n      pop\n        /* \"contracts/dispute.sol\":6804:7108  if (inFavorOfBuyer) {... */\n      jump(tag_153)\n    tag_152:\n        /* \"contracts/dispute.sol\":7003:7011  disputes */\n      0x02\n        /* \"contracts/dispute.sol\":7003:7022  disputes[disputeId] */\n      0x00\n        /* \"contracts/dispute.sol\":7012:7021  disputeId */\n      dup9\n        /* \"contracts/dispute.sol\":7003:7022  disputes[disputeId] */\n      dup2\n      mstore\n      0x20\n      add\n      swap1\n      dup2\n      mstore\n      0x20\n      add\n      0x00\n      keccak256\n        /* \"contracts/dispute.sol\":7003:7034  disputes[disputeId].sellerVotes */\n      0x06\n      add\n      sload\n        /* \"contracts/dispute.sol\":6983:7034  totalWinnerStakes = disputes[disputeId].sellerVotes */\n      swap2\n      pop\n        /* \"contracts/dispute.sol\":7067:7075  disputes */\n      0x02\n        /* \"contracts/dispute.sol\":7067:7086  disputes[disputeId] */\n      0x00\n        /* \"contracts/dispute.sol\":7076:7085  disputeId */\n      dup9\n        /* \"contracts/dispute.sol\":7067:7086  disputes[disputeId] */\n      dup2\n      mstore\n      0x20\n      add\n      swap1\n      dup2\n      mstore\n      0x20\n      add\n      0x00\n      keccak256\n        /* \"contracts/dispute.sol\":7067:7097  disputes[disputeId].buyerVotes */\n      0x05\n      add\n      sload\n        /* \"contracts/dispute.sol\":7048:7097  totalLoserStakes = disputes[disputeId].buyerVotes */\n      swap1\n      pop\n        /* \"contracts/dispute.sol\":6804:7108  if (inFavorOfBuyer) {... */\n    tag_153:\n        /* \"contracts/dispute.sol\":7122:7141  voterVotedForWinner */\n      dup3\n        /* \"contracts/dispute.sol\":7118:7431  if (voterVotedForWinner) {... */\n      iszero\n      tag_154\n      jumpi\n        /* \"contracts/dispute.sol\":7157:7191  uint256 loserTokensToBeDistributed */\n      0x00\n        /* \"contracts/dispute.sol\":7220:7223  100 */\n      0x64\n        /* \"contracts/dispute.sol\":7214:7216  10 */\n      0x0a\n        /* \"contracts/dispute.sol\":7195:7211  totalLoserStakes */\n      dup4\n        /* \"contracts/dispute.sol\":7195:7216  totalLoserStakes * 10 */\n      tag_155\n      swap2\n      swap1\n      tag_156\n      jump\t// in\n    tag_155:\n        /* \"contracts/dispute.sol\":7194:7223  (totalLoserStakes * 10) / 100 */\n      tag_157\n      swap2\n      swap1\n      tag_158\n      jump\t// in\n    tag_157:\n        /* \"contracts/dispute.sol\":7157:7223  uint256 loserTokensToBeDistributed = (totalLoserStakes * 10) / 100 */\n      swap1\n      pop\n        /* \"contracts/dispute.sol\":7237:7261  uint256 additionalTokens */\n      0x00\n        /* \"contracts/dispute.sol\":7304:7321  totalWinnerStakes */\n      dup4\n        /* \"contracts/dispute.sol\":7274:7300  loserTokensToBeDistributed */\n      dup3\n        /* \"contracts/dispute.sol\":7265:7271  amount */\n      dup10\n        /* \"contracts/dispute.sol\":7265:7300  amount * loserTokensToBeDistributed */\n      tag_159\n      swap2\n      swap1\n      tag_156\n      jump\t// in\n    tag_159:\n        /* \"contracts/dispute.sol\":7264:7321  (amount * loserTokensToBeDistributed) / totalWinnerStakes */\n      tag_160\n      swap2\n      swap1\n      tag_158\n      jump\t// in\n    tag_160:\n        /* \"contracts/dispute.sol\":7237:7321  uint256 additionalTokens = (amount * loserTokensToBeDistributed) / totalWinnerStakes */\n      swap1\n      pop\n        /* \"contracts/dispute.sol\":7345:7361  additionalTokens */\n      dup1\n        /* \"contracts/dispute.sol\":7335:7361  amount += additionalTokens */\n      dup9\n      tag_161\n      swap2\n      swap1\n      tag_123\n      jump\t// in\n    tag_161:\n      swap8\n      pop\n        /* \"contracts/dispute.sol\":7143:7372  {... */\n      pop\n      pop\n        /* \"contracts/dispute.sol\":7118:7431  if (voterVotedForWinner) {... */\n      jump(tag_162)\n    tag_154:\n        /* \"contracts/dispute.sol\":7417:7420  100 */\n      0x64\n        /* \"contracts/dispute.sol\":7411:7413  90 */\n      0x5a\n        /* \"contracts/dispute.sol\":7402:7408  amount */\n      dup8\n        /* \"contracts/dispute.sol\":7402:7413  amount * 90 */\n      tag_163\n      swap2\n      swap1\n      tag_156\n      jump\t// in\n    tag_163:\n        /* \"contracts/dispute.sol\":7401:7420  (amount * 90) / 100 */\n      tag_164\n      swap2\n      swap1\n      tag_158\n      jump\t// in\n    tag_164:\n        /* \"contracts/dispute.sol\":7392:7420  amount = (amount * 90) / 100 */\n      swap6\n      pop\n        /* \"contracts/dispute.sol\":7118:7431  if (voterVotedForWinner) {... */\n    tag_162:\n        /* \"contracts/dispute.sol\":7487:7488  0 */\n      0x00\n        /* \"contracts/dispute.sol\":7449:7461  stakedTokens */\n      0x03\n        /* \"contracts/dispute.sol\":7449:7472  stakedTokens[disputeId] */\n      0x00\n        /* \"contracts/dispute.sol\":7462:7471  disputeId */\n      dup10\n        /* \"contracts/dispute.sol\":7449:7472  stakedTokens[disputeId] */\n      dup2\n      mstore\n      0x20\n      add\n      swap1\n      dup2\n      mstore\n      0x20\n      add\n      0x00\n      keccak256\n        /* \"contracts/dispute.sol\":7449:7484  stakedTokens[disputeId][msg.sender] */\n      0x00\n        /* \"contracts/dispute.sol\":7473:7483  msg.sender */\n      caller\n        /* \"contracts/dispute.sol\":7449:7484  stakedTokens[disputeId][msg.sender] */\n      0xffffffffffffffffffffffffffffffffffffffff\n      and\n      0xffffffffffffffffffffffffffffffffffffffff\n      and\n      dup2\n      mstore\n      0x20\n      add\n      swap1\n      dup2\n      mstore\n      0x20\n      add\n      0x00\n      keccak256\n        /* \"contracts/dispute.sol\":7449:7488  stakedTokens[disputeId][msg.sender] = 0 */\n      dup2\n      swap1\n      sstore\n      pop\n        /* \"contracts/dispute.sol\":7498:7516  finjaTokenInstance */\n      immutable(\"0x53c7d35966a5a2c857f5b9d0889d9b28894dfc4ea0e7f834f61b293cc983dec7\")\n        /* \"contracts/dispute.sol\":7498:7525  finjaTokenInstance.transfer */\n      0xffffffffffffffffffffffffffffffffffffffff\n      and\n      0xa9059cbb\n        /* \"contracts/dispute.sol\":7526:7536  msg.sender */\n      caller\n        /* \"contracts/dispute.sol\":7538:7544  amount */\n      dup9\n        /* \"contracts/dispute.sol\":7498:7545  finjaTokenInstance.transfer(msg.sender, amount) */\n      mload(0x40)\n      dup4\n      0xffffffff\n      and\n      0xe0\n      shl\n      dup2\n      mstore\n      0x04\n      add\n      tag_165\n      swap3\n      swap2\n      swap1\n      tag_166\n      jump\t// in\n    tag_165:\n      0x20\n      mload(0x40)\n      dup1\n      dup4\n      sub\n      dup2\n      0x00\n      dup8\n      gas\n      call\n      iszero\n      dup1\n      iszero\n      tag_168\n      jumpi\n      returndatasize\n      0x00\n      dup1\n      returndatacopy\n      revert(0x00, returndatasize)\n    tag_168:\n      pop\n      pop\n      pop\n      pop\n      mload(0x40)\n      returndatasize\n      not(0x1f)\n      0x1f\n      dup3\n      add\n      and\n      dup3\n      add\n      dup1\n      0x40\n      mstore\n      pop\n      dup2\n      add\n      swap1\n      tag_169\n      swap2\n      swap1\n      tag_170\n      jump\t// in\n    tag_169:\n      pop\n        /* \"contracts/dispute.sol\":6174:7552  {... */\n      pop\n      pop\n      pop\n      pop\n      pop\n      pop\n        /* \"contracts/dispute.sol\":6127:7552  function claimTokens(uint256 disputeId) public {... */\n      pop\n      jump\t// out\n        /* \"contracts/dispute.sol\":698:741  mapping(uint256 => Dispute) public disputes */\n    tag_56:\n      mstore(0x20, 0x02)\n      dup1\n      0x00\n      mstore\n      keccak256(0x00, 0x40)\n      0x00\n      swap2\n      pop\n      swap1\n      pop\n      dup1\n      0x00\n      add\n      0x00\n      swap1\n      sload\n      swap1\n      0x0100\n      exp\n      swap1\n      div\n      0xffffffffffffffffffffffffffffffffffffffff\n      and\n      swap1\n      dup1\n      0x01\n      add\n      0x00\n      swap1\n      sload\n      swap1\n      0x0100\n      exp\n      swap1\n      div\n      0xffffffffffffffffffffffffffffffffffffffff\n      and\n      swap1\n      dup1\n      0x02\n      add\n      sload\n      swap1\n      dup1\n      0x03\n      add\n      sload\n      swap1\n      dup1\n      0x04\n      add\n      sload\n      swap1\n      dup1\n      0x05\n      add\n      sload\n      swap1\n      dup1\n      0x06\n      add\n      sload\n      swap1\n      dup1\n      0x07\n      add\n      sload\n      swap1\n      dup1\n      0x08\n      add\n      0x00\n      swap1\n      sload\n      swap1\n      0x0100\n      exp\n      swap1\n      div\n      0xff\n      and\n      swap1\n      dup1\n      0x08\n      add\n      0x01\n      swap1\n      sload\n      swap1\n      0x0100\n      exp\n      swap1\n      div\n      0xff\n      and\n      swap1\n      pop\n      dup11\n      jump\t// out\n        /* \"contracts/dispute.sol\":747:814  mapping(uint256 => mapping(address => uint256)) public stakedTokens */\n    tag_62:\n      mstore(0x20, 0x03)\n      dup2\n      0x00\n      mstore\n      mstore(0x20, keccak256(0x00, 0x40))\n      dup1\n      0x00\n      mstore\n      keccak256(0x00, 0x40)\n      0x00\n      swap2\n      pop\n      swap2\n      pop\n      pop\n      sload\n      dup2\n      jump\t// out\n        /* \"contracts/dispute.sol\":977:1036  mapping(uint256 => uint256) public latestDisputeForProposal */\n    tag_66:\n      mstore(0x20, 0x06)\n      dup1\n      0x00\n      mstore\n      keccak256(0x00, 0x40)\n      0x00\n      swap2\n      pop\n      swap1\n      pop\n      sload\n      dup2\n      jump\t// out\n        /* \"@openzeppelin/contracts/access/Ownable.sol\":1831:1932  function renounceOwnership() public virtual onlyOwner {... */\n    tag_69:\n        /* \"@openzeppelin/contracts/access/Ownable.sol\":1094:1107  _checkOwner() */\n      tag_172\n        /* \"@openzeppelin/contracts/access/Ownable.sol\":1094:1105  _checkOwner */\n      tag_137\n        /* \"@openzeppelin/contracts/access/Ownable.sol\":1094:1107  _checkOwner() */\n      jump\t// in\n    tag_172:\n        /* \"@openzeppelin/contracts/access/Ownable.sol\":1895:1925  _transferOwnership(address(0)) */\n      tag_174\n        /* \"@openzeppelin/contracts/access/Ownable.sol\":1922:1923  0 */\n      0x00\n        /* \"@openzeppelin/contracts/access/Ownable.sol\":1895:1913  _transferOwnership */\n      tag_175\n        /* \"@openzeppelin/contracts/access/Ownable.sol\":1895:1925  _transferOwnership(address(0)) */\n      jump\t// in\n    tag_174:\n        /* \"@openzeppelin/contracts/access/Ownable.sol\":1831:1932  function renounceOwnership() public virtual onlyOwner {... */\n      jump\t// out\n        /* \"contracts/dispute.sol\":820:892  mapping(uint256 => mapping(address => uint256)) public buyerStakedTokens */\n    tag_72:\n      mstore(0x20, 0x04)\n      dup2\n      0x00\n      mstore\n      mstore(0x20, keccak256(0x00, 0x40))\n      dup1\n      0x00\n      mstore\n      keccak256(0x00, 0x40)\n      0x00\n      swap2\n      pop\n      swap2\n      pop\n      pop\n      sload\n      dup2\n      jump\t// out\n        /* \"contracts/dispute.sol\":5605:5920  function getStakedTokens(uint256 disputeId, address voter) public view returns (uint256 buyerTokens, uint256 sellerTokens) {... */\n    tag_76:\n        /* \"contracts/dispute.sol\":5685:5704  uint256 buyerTokens */\n      0x00\n        /* \"contracts/dispute.sol\":5706:5726  uint256 sellerTokens */\n      dup1\n        /* \"contracts/dispute.sol\":5758:5770  disputeCount */\n      sload(0x09)\n        /* \"contracts/dispute.sol\":5746:5755  disputeId */\n      dup5\n        /* \"contracts/dispute.sol\":5746:5770  disputeId < disputeCount */\n      lt\n        /* \"contracts/dispute.sol\":5738:5793  require(disputeId < disputeCount, \"Invalid dispute ID\") */\n      tag_177\n      jumpi\n      mload(0x40)\n      0x08c379a000000000000000000000000000000000000000000000000000000000\n      dup2\n      mstore\n      0x04\n      add\n      tag_178\n      swap1\n      tag_142\n      jump\t// in\n    tag_178:\n      mload(0x40)\n      dup1\n      swap2\n      sub\n      swap1\n      revert\n    tag_177:\n        /* \"contracts/dispute.sol\":5817:5834  buyerStakedTokens */\n      0x04\n        /* \"contracts/dispute.sol\":5817:5845  buyerStakedTokens[disputeId] */\n      0x00\n        /* \"contracts/dispute.sol\":5835:5844  disputeId */\n      dup6\n        /* \"contracts/dispute.sol\":5817:5845  buyerStakedTokens[disputeId] */\n      dup2\n      mstore\n      0x20\n      add\n      swap1\n      dup2\n      mstore\n      0x20\n      add\n      0x00\n      keccak256\n        /* \"contracts/dispute.sol\":5817:5852  buyerStakedTokens[disputeId][voter] */\n      0x00\n        /* \"contracts/dispute.sol\":5846:5851  voter */\n      dup5\n        /* \"contracts/dispute.sol\":5817:5852  buyerStakedTokens[disputeId][voter] */\n      0xffffffffffffffffffffffffffffffffffffffff\n      and\n      0xffffffffffffffffffffffffffffffffffffffff\n      and\n      dup2\n      mstore\n      0x20\n      add\n      swap1\n      dup2\n      mstore\n      0x20\n      add\n      0x00\n      keccak256\n      sload\n        /* \"contracts/dispute.sol\":5803:5852  buyerTokens = buyerStakedTokens[disputeId][voter] */\n      swap2\n      pop\n        /* \"contracts/dispute.sol\":5877:5895  sellerStakedTokens */\n      0x05\n        /* \"contracts/dispute.sol\":5877:5906  sellerStakedTokens[disputeId] */\n      0x00\n        /* \"contracts/dispute.sol\":5896:5905  disputeId */\n      dup6\n        /* \"contracts/dispute.sol\":5877:5906  sellerStakedTokens[disputeId] */\n      dup2\n      mstore\n      0x20\n      add\n      swap1\n      dup2\n      mstore\n      0x20\n      add\n      0x00\n      keccak256\n        /* \"contracts/dispute.sol\":5877:5913  sellerStakedTokens[disputeId][voter] */\n      0x00\n        /* \"contracts/dispute.sol\":5907:5912  voter */\n      dup5\n        /* \"contracts/dispute.sol\":5877:5913  sellerStakedTokens[disputeId][voter] */\n      0xffffffffffffffffffffffffffffffffffffffff\n      and\n      0xffffffffffffffffffffffffffffffffffffffff\n      and\n      dup2\n      mstore\n      0x20\n      add\n      swap1\n      dup2\n      mstore\n      0x20\n      add\n      0x00\n      keccak256\n      sload\n        /* \"contracts/dispute.sol\":5862:5913  sellerTokens = sellerStakedTokens[disputeId][voter] */\n      swap1\n      pop\n        /* \"contracts/dispute.sol\":5605:5920  function getStakedTokens(uint256 disputeId, address voter) public view returns (uint256 buyerTokens, uint256 sellerTokens) {... */\n      swap3\n      pop\n      swap3\n      swap1\n      pop\n      jump\t// out\n        /* \"@openzeppelin/contracts/access/Ownable.sol\":1201:1286  function owner() public view virtual returns (address) {... */\n    tag_80:\n        /* \"@openzeppelin/contracts/access/Ownable.sol\":1247:1254  address */\n      0x00\n        /* \"@openzeppelin/contracts/access/Ownable.sol\":1273:1279  _owner */\n      dup1\n      0x00\n      swap1\n      sload\n      swap1\n      0x0100\n      exp\n      swap1\n      div\n      0xffffffffffffffffffffffffffffffffffffffff\n      and\n        /* \"@openzeppelin/contracts/access/Ownable.sol\":1266:1279  return _owner */\n      swap1\n      pop\n        /* \"@openzeppelin/contracts/access/Ownable.sol\":1201:1286  function owner() public view virtual returns (address) {... */\n      swap1\n      jump\t// out\n        /* \"contracts/dispute.sol\":5926:6121  function setWinningThreshold(uint256 newThreshold) public onlyOwner {... */\n    tag_85:\n        /* \"@openzeppelin/contracts/access/Ownable.sol\":1094:1107  _checkOwner() */\n      tag_181\n        /* \"@openzeppelin/contracts/access/Ownable.sol\":1094:1105  _checkOwner */\n      tag_137\n        /* \"@openzeppelin/contracts/access/Ownable.sol\":1094:1107  _checkOwner() */\n      jump\t// in\n    tag_181:\n        /* \"contracts/dispute.sol\":6027:6028  0 */\n      0x00\n        /* \"contracts/dispute.sol\":6012:6024  newThreshold */\n      dup2\n        /* \"contracts/dispute.sol\":6012:6028  newThreshold > 0 */\n      gt\n        /* \"contracts/dispute.sol\":6012:6051  newThreshold > 0 && newThreshold <= 100 */\n      dup1\n      iszero\n      tag_183\n      jumpi\n      pop\n        /* \"contracts/dispute.sol\":6048:6051  100 */\n      0x64\n        /* \"contracts/dispute.sol\":6032:6044  newThreshold */\n      dup2\n        /* \"contracts/dispute.sol\":6032:6051  newThreshold <= 100 */\n      gt\n      iszero\n        /* \"contracts/dispute.sol\":6012:6051  newThreshold > 0 && newThreshold <= 100 */\n    tag_183:\n        /* \"contracts/dispute.sol\":6004:6073  require(newThreshold > 0 && newThreshold <= 100, \"Invalid threshold\") */\n      tag_184\n      jumpi\n      mload(0x40)\n      0x08c379a000000000000000000000000000000000000000000000000000000000\n      dup2\n      mstore\n      0x04\n      add\n      tag_185\n      swap1\n      tag_186\n      jump\t// in\n    tag_185:\n      mload(0x40)\n      dup1\n      swap2\n      sub\n      swap1\n      revert\n    tag_184:\n        /* \"contracts/dispute.sol\":6102:6114  newThreshold */\n      dup1\n        /* \"contracts/dispute.sol\":6083:6099  winningThreshold */\n      0x08\n        /* \"contracts/dispute.sol\":6083:6114  winningThreshold = newThreshold */\n      dup2\n      swap1\n      sstore\n      pop\n        /* \"contracts/dispute.sol\":5926:6121  function setWinningThreshold(uint256 newThreshold) public onlyOwner {... */\n      pop\n      jump\t// out\n        /* \"contracts/dispute.sol\":1147:1174  uint256 public disputeCount */\n    tag_87:\n      sload(0x09)\n      dup2\n      jump\t// out\n        /* \"contracts/dispute.sol\":4303:5599  function resolveDispute(uint256 disputeId) public {... */\n    tag_91:\n        /* \"contracts/dispute.sol\":4368:4376  disputes */\n      0x02\n        /* \"contracts/dispute.sol\":4368:4387  disputes[disputeId] */\n      0x00\n        /* \"contracts/dispute.sol\":4377:4386  disputeId */\n      dup3\n        /* \"contracts/dispute.sol\":4368:4387  disputes[disputeId] */\n      dup2\n      mstore\n      0x20\n      add\n      swap1\n      dup2\n      mstore\n      0x20\n      add\n      0x00\n      keccak256\n        /* \"contracts/dispute.sol\":4368:4396  disputes[disputeId].resolved */\n      0x08\n      add\n      0x00\n      swap1\n      sload\n      swap1\n      0x0100\n      exp\n      swap1\n      div\n      0xff\n      and\n        /* \"contracts/dispute.sol\":4367:4396  !disputes[disputeId].resolved */\n      iszero\n        /* \"contracts/dispute.sol\":4359:4434  require(!disputes[disputeId].resolved, \"Dispute has already been resolved\") */\n      tag_188\n      jumpi\n      mload(0x40)\n      0x08c379a000000000000000000000000000000000000000000000000000000000\n      dup2\n      mstore\n      0x04\n      add\n      tag_189\n      swap1\n      tag_190\n      jump\t// in\n    tag_189:\n      mload(0x40)\n      dup1\n      swap2\n      sub\n      swap1\n      revert\n    tag_188:\n        /* \"contracts/dispute.sol\":4467:4475  disputes */\n      0x02\n        /* \"contracts/dispute.sol\":4467:4486  disputes[disputeId] */\n      0x00\n        /* \"contracts/dispute.sol\":4476:4485  disputeId */\n      dup3\n        /* \"contracts/dispute.sol\":4467:4486  disputes[disputeId] */\n      dup2\n      mstore\n      0x20\n      add\n      swap1\n      dup2\n      mstore\n      0x20\n      add\n      0x00\n      keccak256\n        /* \"contracts/dispute.sol\":4467:4494  disputes[disputeId].endTime */\n      0x07\n      add\n      sload\n        /* \"contracts/dispute.sol\":4449:4464  block.timestamp */\n      timestamp\n        /* \"contracts/dispute.sol\":4449:4494  block.timestamp > disputes[disputeId].endTime */\n      gt\n        /* \"contracts/dispute.sol\":4440:4533  require (block.timestamp > disputes[disputeId].endTime, \"The voting period is not over yet!\") */\n      tag_191\n      jumpi\n      mload(0x40)\n      0x08c379a000000000000000000000000000000000000000000000000000000000\n      dup2\n      mstore\n      0x04\n      add\n      tag_192\n      swap1\n      tag_193\n      jump\t// in\n    tag_192:\n      mload(0x40)\n      dup1\n      swap2\n      sub\n      swap1\n      revert\n    tag_191:\n        /* \"contracts/dispute.sol\":4539:4558  bool inFavorOfBuyer */\n      0x00\n        /* \"contracts/dispute.sol\":4564:4582  uint256 totalVotes */\n      dup1\n        /* \"contracts/dispute.sol\":4618:4626  disputes */\n      0x02\n        /* \"contracts/dispute.sol\":4618:4637  disputes[disputeId] */\n      0x00\n        /* \"contracts/dispute.sol\":4627:4636  disputeId */\n      dup5\n        /* \"contracts/dispute.sol\":4618:4637  disputes[disputeId] */\n      dup2\n      mstore\n      0x20\n      add\n      swap1\n      dup2\n      mstore\n      0x20\n      add\n      0x00\n      keccak256\n        /* \"contracts/dispute.sol\":4618:4649  disputes[disputeId].sellerVotes */\n      0x06\n      add\n      sload\n        /* \"contracts/dispute.sol\":4585:4593  disputes */\n      0x02\n        /* \"contracts/dispute.sol\":4585:4604  disputes[disputeId] */\n      0x00\n        /* \"contracts/dispute.sol\":4594:4603  disputeId */\n      dup6\n        /* \"contracts/dispute.sol\":4585:4604  disputes[disputeId] */\n      dup2\n      mstore\n      0x20\n      add\n      swap1\n      dup2\n      mstore\n      0x20\n      add\n      0x00\n      keccak256\n        /* \"contracts/dispute.sol\":4585:4615  disputes[disputeId].buyerVotes */\n      0x05\n      add\n      sload\n        /* \"contracts/dispute.sol\":4585:4649  disputes[disputeId].buyerVotes + disputes[disputeId].sellerVotes */\n      tag_194\n      swap2\n      swap1\n      tag_123\n      jump\t// in\n    tag_194:\n        /* \"contracts/dispute.sol\":4564:4649  uint256 totalVotes = disputes[disputeId].buyerVotes + disputes[disputeId].sellerVotes */\n      swap1\n      pop\n        /* \"contracts/dispute.sol\":4720:4736  winningThreshold */\n      sload(0x08)\n        /* \"contracts/dispute.sol\":4707:4717  totalVotes */\n      dup2\n        /* \"contracts/dispute.sol\":4707:4736  totalVotes * winningThreshold */\n      tag_195\n      swap2\n      swap1\n      tag_156\n      jump\t// in\n    tag_195:\n        /* \"contracts/dispute.sol\":4700:4703  100 */\n      0x64\n        /* \"contracts/dispute.sol\":4667:4675  disputes */\n      0x02\n        /* \"contracts/dispute.sol\":4667:4686  disputes[disputeId] */\n      0x00\n        /* \"contracts/dispute.sol\":4676:4685  disputeId */\n      dup7\n        /* \"contracts/dispute.sol\":4667:4686  disputes[disputeId] */\n      dup2\n      mstore\n      0x20\n      add\n      swap1\n      dup2\n      mstore\n      0x20\n      add\n      0x00\n      keccak256\n        /* \"contracts/dispute.sol\":4667:4697  disputes[disputeId].buyerVotes */\n      0x05\n      add\n      sload\n        /* \"contracts/dispute.sol\":4667:4703  disputes[disputeId].buyerVotes * 100 */\n      tag_196\n      swap2\n      swap1\n      tag_156\n      jump\t// in\n    tag_196:\n        /* \"contracts/dispute.sol\":4667:4736  disputes[disputeId].buyerVotes * 100 >= totalVotes * winningThreshold */\n      lt\n        /* \"contracts/dispute.sol\":4663:4929  if (disputes[disputeId].buyerVotes * 100 >= totalVotes * winningThreshold) {... */\n      tag_197\n      jumpi\n        /* \"contracts/dispute.sol\":4773:4777  true */\n      0x01\n        /* \"contracts/dispute.sol\":4756:4777  inFavorOfBuyer = true */\n      swap2\n      pop\n        /* \"contracts/dispute.sol\":4663:4929  if (disputes[disputeId].buyerVotes * 100 >= totalVotes * winningThreshold) {... */\n      jump(tag_198)\n    tag_197:\n        /* \"contracts/dispute.sol\":4856:4872  winningThreshold */\n      sload(0x08)\n        /* \"contracts/dispute.sol\":4843:4853  totalVotes */\n      dup2\n        /* \"contracts/dispute.sol\":4843:4872  totalVotes * winningThreshold */\n      tag_199\n      swap2\n      swap1\n      tag_156\n      jump\t// in\n    tag_199:\n        /* \"contracts/dispute.sol\":4836:4839  100 */\n      0x64\n        /* \"contracts/dispute.sol\":4802:4810  disputes */\n      0x02\n        /* \"contracts/dispute.sol\":4802:4821  disputes[disputeId] */\n      0x00\n        /* \"contracts/dispute.sol\":4811:4820  disputeId */\n      dup7\n        /* \"contracts/dispute.sol\":4802:4821  disputes[disputeId] */\n      dup2\n      mstore\n      0x20\n      add\n      swap1\n      dup2\n      mstore\n      0x20\n      add\n      0x00\n      keccak256\n        /* \"contracts/dispute.sol\":4802:4833  disputes[disputeId].sellerVotes */\n      0x06\n      add\n      sload\n        /* \"contracts/dispute.sol\":4802:4839  disputes[disputeId].sellerVotes * 100 */\n      tag_200\n      swap2\n      swap1\n      tag_156\n      jump\t// in\n    tag_200:\n        /* \"contracts/dispute.sol\":4802:4872  disputes[disputeId].sellerVotes * 100 >= totalVotes * winningThreshold */\n      lt\n        /* \"contracts/dispute.sol\":4798:4929  if (disputes[disputeId].sellerVotes * 100 >= totalVotes * winningThreshold) {... */\n      tag_201\n      jumpi\n        /* \"contracts/dispute.sol\":4909:4914  false */\n      0x00\n        /* \"contracts/dispute.sol\":4892:4914  inFavorOfBuyer = false */\n      swap2\n      pop\n        /* \"contracts/dispute.sol\":4798:4929  if (disputes[disputeId].sellerVotes * 100 >= totalVotes * winningThreshold) {... */\n    tag_201:\n        /* \"contracts/dispute.sol\":4663:4929  if (disputes[disputeId].buyerVotes * 100 >= totalVotes * winningThreshold) {... */\n    tag_198:\n        /* \"contracts/dispute.sol\":4947:4961  inFavorOfBuyer */\n      dup2\n        /* \"contracts/dispute.sol\":4943:5498  if (inFavorOfBuyer) {... */\n      iszero\n      tag_202\n      jumpi\n        /* \"contracts/dispute.sol\":5007:5011  true */\n      0x01\n        /* \"contracts/dispute.sol\":4973:4981  disputes */\n      0x02\n        /* \"contracts/dispute.sol\":4973:4992  disputes[disputeId] */\n      0x00\n        /* \"contracts/dispute.sol\":4982:4991  disputeId */\n      dup6\n        /* \"contracts/dispute.sol\":4973:4992  disputes[disputeId] */\n      dup2\n      mstore\n      0x20\n      add\n      swap1\n      dup2\n      mstore\n      0x20\n      add\n      0x00\n      keccak256\n        /* \"contracts/dispute.sol\":4973:5004  disputes[disputeId].winnerBuyer */\n      0x08\n      add\n      0x01\n        /* \"contracts/dispute.sol\":4973:5011  disputes[disputeId].winnerBuyer = true */\n      0x0100\n      exp\n      dup2\n      sload\n      dup2\n      0xff\n      mul\n      not\n      and\n      swap1\n      dup4\n      iszero\n      iszero\n      mul\n      or\n      swap1\n      sstore\n      pop\n        /* \"contracts/dispute.sol\":5035:5047  mainContract */\n      0x01\n      0x00\n      swap1\n      sload\n      swap1\n      0x0100\n      exp\n      swap1\n      div\n      0xffffffffffffffffffffffffffffffffffffffff\n      and\n        /* \"contracts/dispute.sol\":5021:5074  IMainContract(mainContract).releaseEscrowAfterDispute */\n      0xffffffffffffffffffffffffffffffffffffffff\n      and\n      0x7a30bde6\n        /* \"contracts/dispute.sol\":5075:5083  disputes */\n      0x02\n        /* \"contracts/dispute.sol\":5075:5094  disputes[disputeId] */\n      0x00\n        /* \"contracts/dispute.sol\":5084:5093  disputeId */\n      dup7\n        /* \"contracts/dispute.sol\":5075:5094  disputes[disputeId] */\n      dup2\n      mstore\n      0x20\n      add\n      swap1\n      dup2\n      mstore\n      0x20\n      add\n      0x00\n      keccak256\n        /* \"contracts/dispute.sol\":5075:5105  disputes[disputeId].proposalID */\n      0x02\n      add\n      sload\n        /* \"contracts/dispute.sol\":5107:5115  disputes */\n      0x02\n        /* \"contracts/dispute.sol\":5107:5126  disputes[disputeId] */\n      0x00\n        /* \"contracts/dispute.sol\":5116:5125  disputeId */\n      dup8\n        /* \"contracts/dispute.sol\":5107:5126  disputes[disputeId] */\n      dup2\n      mstore\n      0x20\n      add\n      swap1\n      dup2\n      mstore\n      0x20\n      add\n      0x00\n      keccak256\n        /* \"contracts/dispute.sol\":5107:5144  disputes[disputeId].buyerRequestIndex */\n      0x03\n      add\n      sload\n        /* \"contracts/dispute.sol\":5154:5162  disputes */\n      0x02\n        /* \"contracts/dispute.sol\":5154:5173  disputes[disputeId] */\n      0x00\n        /* \"contracts/dispute.sol\":5163:5172  disputeId */\n      dup9\n        /* \"contracts/dispute.sol\":5154:5173  disputes[disputeId] */\n      dup2\n      mstore\n      0x20\n      add\n      swap1\n      dup2\n      mstore\n      0x20\n      add\n      0x00\n      keccak256\n        /* \"contracts/dispute.sol\":5154:5179  disputes[disputeId].buyer */\n      0x00\n      add\n      0x00\n      swap1\n      sload\n      swap1\n      0x0100\n      exp\n      swap1\n      div\n      0xffffffffffffffffffffffffffffffffffffffff\n      and\n        /* \"contracts/dispute.sol\":5182:5190  disputes */\n      0x02\n        /* \"contracts/dispute.sol\":5182:5201  disputes[disputeId] */\n      0x00\n        /* \"contracts/dispute.sol\":5191:5200  disputeId */\n      dup10\n        /* \"contracts/dispute.sol\":5182:5201  disputes[disputeId] */\n      dup2\n      mstore\n      0x20\n      add\n      swap1\n      dup2\n      mstore\n      0x20\n      add\n      0x00\n      keccak256\n        /* \"contracts/dispute.sol\":5182:5216  disputes[disputeId].disputedAmount */\n      0x04\n      add\n      sload\n        /* \"contracts/dispute.sol\":5021:5217  IMainContract(mainContract).releaseEscrowAfterDispute(disputes[disputeId].proposalID, disputes[disputeId].buyerRequestIndex, payable(disputes[disputeId].buyer), disputes[disputeId].disputedAmount) */\n      mload(0x40)\n      dup6\n      0xffffffff\n      and\n      0xe0\n      shl\n      dup2\n      mstore\n      0x04\n      add\n      tag_203\n      swap5\n      swap4\n      swap3\n      swap2\n      swap1\n      tag_204\n      jump\t// in\n    tag_203:\n      0x00\n      mload(0x40)\n      dup1\n      dup4\n      sub\n      dup2\n      0x00\n      dup8\n      dup1\n      extcodesize\n      iszero\n      dup1\n      iszero\n      tag_205\n      jumpi\n      0x00\n      dup1\n      revert\n    tag_205:\n      pop\n      gas\n      call\n      iszero\n      dup1\n      iszero\n      tag_207\n      jumpi\n      returndatasize\n      0x00\n      dup1\n      returndatacopy\n      revert(0x00, returndatasize)\n    tag_207:\n      pop\n      pop\n      pop\n      pop\n        /* \"contracts/dispute.sol\":4943:5498  if (inFavorOfBuyer) {... */\n      jump(tag_208)\n    tag_202:\n        /* \"contracts/dispute.sol\":5278:5283  false */\n      0x00\n        /* \"contracts/dispute.sol\":5244:5252  disputes */\n      0x02\n        /* \"contracts/dispute.sol\":5244:5263  disputes[disputeId] */\n      0x00\n        /* \"contracts/dispute.sol\":5253:5262  disputeId */\n      dup6\n        /* \"contracts/dispute.sol\":5244:5263  disputes[disputeId] */\n      dup2\n      mstore\n      0x20\n      add\n      swap1\n      dup2\n      mstore\n      0x20\n      add\n      0x00\n      keccak256\n        /* \"contracts/dispute.sol\":5244:5275  disputes[disputeId].winnerBuyer */\n      0x08\n      add\n      0x01\n        /* \"contracts/dispute.sol\":5244:5283  disputes[disputeId].winnerBuyer = false */\n      0x0100\n      exp\n      dup2\n      sload\n      dup2\n      0xff\n      mul\n      not\n      and\n      swap1\n      dup4\n      iszero\n      iszero\n      mul\n      or\n      swap1\n      sstore\n      pop\n        /* \"contracts/dispute.sol\":5307:5319  mainContract */\n      0x01\n      0x00\n      swap1\n      sload\n      swap1\n      0x0100\n      exp\n      swap1\n      div\n      0xffffffffffffffffffffffffffffffffffffffff\n      and\n        /* \"contracts/dispute.sol\":5293:5346  IMainContract(mainContract).releaseEscrowAfterDispute */\n      0xffffffffffffffffffffffffffffffffffffffff\n      and\n      0x7a30bde6\n        /* \"contracts/dispute.sol\":5347:5355  disputes */\n      0x02\n        /* \"contracts/dispute.sol\":5347:5366  disputes[disputeId] */\n      0x00\n        /* \"contracts/dispute.sol\":5356:5365  disputeId */\n      dup7\n        /* \"contracts/dispute.sol\":5347:5366  disputes[disputeId] */\n      dup2\n      mstore\n      0x20\n      add\n      swap1\n      dup2\n      mstore\n      0x20\n      add\n      0x00\n      keccak256\n        /* \"contracts/dispute.sol\":5347:5377  disputes[disputeId].proposalID */\n      0x02\n      add\n      sload\n        /* \"contracts/dispute.sol\":5379:5387  disputes */\n      0x02\n        /* \"contracts/dispute.sol\":5379:5398  disputes[disputeId] */\n      0x00\n        /* \"contracts/dispute.sol\":5388:5397  disputeId */\n      dup8\n        /* \"contracts/dispute.sol\":5379:5398  disputes[disputeId] */\n      dup2\n      mstore\n      0x20\n      add\n      swap1\n      dup2\n      mstore\n      0x20\n      add\n      0x00\n      keccak256\n        /* \"contracts/dispute.sol\":5379:5416  disputes[disputeId].buyerRequestIndex */\n      0x03\n      add\n      sload\n        /* \"contracts/dispute.sol\":5427:5435  disputes */\n      0x02\n        /* \"contracts/dispute.sol\":5427:5446  disputes[disputeId] */\n      0x00\n        /* \"contracts/dispute.sol\":5436:5445  disputeId */\n      dup9\n        /* \"contracts/dispute.sol\":5427:5446  disputes[disputeId] */\n      dup2\n      mstore\n      0x20\n      add\n      swap1\n      dup2\n      mstore\n      0x20\n      add\n      0x00\n      keccak256\n        /* \"contracts/dispute.sol\":5427:5453  disputes[disputeId].seller */\n      0x01\n      add\n      0x00\n      swap1\n      sload\n      swap1\n      0x0100\n      exp\n      swap1\n      div\n      0xffffffffffffffffffffffffffffffffffffffff\n      and\n        /* \"contracts/dispute.sol\":5456:5464  disputes */\n      0x02\n        /* \"contracts/dispute.sol\":5456:5475  disputes[disputeId] */\n      0x00\n        /* \"contracts/dispute.sol\":5465:5474  disputeId */\n      dup10\n        /* \"contracts/dispute.sol\":5456:5475  disputes[disputeId] */\n      dup2\n      mstore\n      0x20\n      add\n      swap1\n      dup2\n      mstore\n      0x20\n      add\n      0x00\n      keccak256\n        /* \"contracts/dispute.sol\":5456:5490  disputes[disputeId].disputedAmount */\n      0x04\n      add\n      sload\n        /* \"contracts/dispute.sol\":5293:5491  IMainContract(mainContract).releaseEscrowAfterDispute(disputes[disputeId].proposalID, disputes[disputeId].buyerRequestIndex, payable (disputes[disputeId].seller), disputes[disputeId].disputedAmount) */\n      mload(0x40)\n      dup6\n      0xffffffff\n      and\n      0xe0\n      shl\n      dup2\n      mstore\n      0x04\n      add\n      tag_209\n      swap5\n      swap4\n      swap3\n      swap2\n      swap1\n      tag_204\n      jump\t// in\n    tag_209:\n      0x00\n      mload(0x40)\n      dup1\n      dup4\n      sub\n      dup2\n      0x00\n      dup8\n      dup1\n      extcodesize\n      iszero\n      dup1\n      iszero\n      tag_210\n      jumpi\n      0x00\n      dup1\n      revert\n    tag_210:\n      pop\n      gas\n      call\n      iszero\n      dup1\n      iszero\n      tag_212\n      jumpi\n      returndatasize\n      0x00\n      dup1\n      returndatacopy\n      revert(0x00, returndatasize)\n    tag_212:\n      pop\n      pop\n      pop\n      pop\n        /* \"contracts/dispute.sol\":4943:5498  if (inFavorOfBuyer) {... */\n    tag_208:\n        /* \"contracts/dispute.sol\":5539:5543  true */\n      0x01\n        /* \"contracts/dispute.sol\":5508:5516  disputes */\n      0x02\n        /* \"contracts/dispute.sol\":5508:5527  disputes[disputeId] */\n      0x00\n        /* \"contracts/dispute.sol\":5517:5526  disputeId */\n      dup6\n        /* \"contracts/dispute.sol\":5508:5527  disputes[disputeId] */\n      dup2\n      mstore\n      0x20\n      add\n      swap1\n      dup2\n      mstore\n      0x20\n      add\n      0x00\n      keccak256\n        /* \"contracts/dispute.sol\":5508:5536  disputes[disputeId].resolved */\n      0x08\n      add\n      0x00\n        /* \"contracts/dispute.sol\":5508:5543  disputes[disputeId].resolved = true */\n      0x0100\n      exp\n      dup2\n      sload\n      dup2\n      0xff\n      mul\n      not\n      and\n      swap1\n      dup4\n      iszero\n      iszero\n      mul\n      or\n      swap1\n      sstore\n      pop\n        /* \"contracts/dispute.sol\":5570:5579  disputeId */\n      dup3\n        /* \"contracts/dispute.sol\":5554:5596  DisputeResolved(disputeId, inFavorOfBuyer) */\n      0x5a87909bff68caaaaf0b3fd9c74eeccc928832f879315e5c6fb7a73612f26c0c\n        /* \"contracts/dispute.sol\":5581:5595  inFavorOfBuyer */\n      dup4\n        /* \"contracts/dispute.sol\":5554:5596  DisputeResolved(disputeId, inFavorOfBuyer) */\n      mload(0x40)\n      tag_213\n      swap2\n      swap1\n      tag_42\n      jump\t// in\n    tag_213:\n      mload(0x40)\n      dup1\n      swap2\n      sub\n      swap1\n      log2\n        /* \"contracts/dispute.sol\":4353:5599  {... */\n      pop\n      pop\n        /* \"contracts/dispute.sol\":4303:5599  function resolveDispute(uint256 disputeId) public {... */\n      pop\n      jump\t// out\n        /* \"contracts/dispute.sol\":315:342  address public mainContract */\n    tag_93:\n      0x01\n      0x00\n      swap1\n      sload\n      swap1\n      0x0100\n      exp\n      swap1\n      div\n      0xffffffffffffffffffffffffffffffffffffffff\n      and\n      dup2\n      jump\t// out\n        /* \"contracts/dispute.sol\":3473:4301  function vote(uint256 disputeId, bool inFavorOfBuyer, uint256 amount) public {... */\n    tag_98:\n        /* \"contracts/dispute.sol\":3580:3592  disputeCount */\n      sload(0x09)\n        /* \"contracts/dispute.sol\":3568:3577  disputeId */\n      dup4\n        /* \"contracts/dispute.sol\":3568:3592  disputeId < disputeCount */\n      lt\n        /* \"contracts/dispute.sol\":3560:3615  require(disputeId < disputeCount, \"Invalid dispute ID\") */\n      tag_215\n      jumpi\n      mload(0x40)\n      0x08c379a000000000000000000000000000000000000000000000000000000000\n      dup2\n      mstore\n      0x04\n      add\n      tag_216\n      swap1\n      tag_142\n      jump\t// in\n    tag_216:\n      mload(0x40)\n      dup1\n      swap2\n      sub\n      swap1\n      revert\n    tag_215:\n        /* \"contracts/dispute.sol\":3651:3659  disputes */\n      0x02\n        /* \"contracts/dispute.sol\":3651:3670  disputes[disputeId] */\n      0x00\n        /* \"contracts/dispute.sol\":3660:3669  disputeId */\n      dup5\n        /* \"contracts/dispute.sol\":3651:3670  disputes[disputeId] */\n      dup2\n      mstore\n      0x20\n      add\n      swap1\n      dup2\n      mstore\n      0x20\n      add\n      0x00\n      keccak256\n        /* \"contracts/dispute.sol\":3651:3678  disputes[disputeId].endTime */\n      0x07\n      add\n      sload\n        /* \"contracts/dispute.sol\":3633:3648  block.timestamp */\n      timestamp\n        /* \"contracts/dispute.sol\":3633:3678  block.timestamp < disputes[disputeId].endTime */\n      lt\n        /* \"contracts/dispute.sol\":3625:3704  require(block.timestamp < disputes[disputeId].endTime, \"Voting period is over\") */\n      tag_217\n      jumpi\n      mload(0x40)\n      0x08c379a000000000000000000000000000000000000000000000000000000000\n      dup2\n      mstore\n      0x04\n      add\n      tag_218\n      swap1\n      tag_219\n      jump\t// in\n    tag_218:\n      mload(0x40)\n      dup1\n      swap2\n      sub\n      swap1\n      revert\n    tag_217:\n        /* \"contracts/dispute.sol\":3723:3731  disputes */\n      0x02\n        /* \"contracts/dispute.sol\":3723:3742  disputes[disputeId] */\n      0x00\n        /* \"contracts/dispute.sol\":3732:3741  disputeId */\n      dup5\n        /* \"contracts/dispute.sol\":3723:3742  disputes[disputeId] */\n      dup2\n      mstore\n      0x20\n      add\n      swap1\n      dup2\n      mstore\n      0x20\n      add\n      0x00\n      keccak256\n        /* \"contracts/dispute.sol\":3723:3751  disputes[disputeId].resolved */\n      0x08\n      add\n      0x00\n      swap1\n      sload\n      swap1\n      0x0100\n      exp\n      swap1\n      div\n      0xff\n      and\n        /* \"contracts/dispute.sol\":3722:3751  !disputes[disputeId].resolved */\n      iszero\n        /* \"contracts/dispute.sol\":3714:3789  require(!disputes[disputeId].resolved, \"Dispute has already been resolved\") */\n      tag_220\n      jumpi\n      mload(0x40)\n      0x08c379a000000000000000000000000000000000000000000000000000000000\n      dup2\n      mstore\n      0x04\n      add\n      tag_221\n      swap1\n      tag_190\n      jump\t// in\n    tag_221:\n      mload(0x40)\n      dup1\n      swap2\n      sub\n      swap1\n      revert\n    tag_220:\n        /* \"contracts/dispute.sol\":3800:3818  finjaTokenInstance */\n      immutable(\"0x53c7d35966a5a2c857f5b9d0889d9b28894dfc4ea0e7f834f61b293cc983dec7\")\n        /* \"contracts/dispute.sol\":3800:3831  finjaTokenInstance.transferFrom */\n      0xffffffffffffffffffffffffffffffffffffffff\n      and\n      0x23b872dd\n        /* \"contracts/dispute.sol\":3832:3842  msg.sender */\n      caller\n        /* \"contracts/dispute.sol\":3852:3856  this */\n      address\n        /* \"contracts/dispute.sol\":3859:3865  amount */\n      dup5\n        /* \"contracts/dispute.sol\":3800:3866  finjaTokenInstance.transferFrom(msg.sender, address(this), amount) */\n      mload(0x40)\n      dup5\n      0xffffffff\n      and\n      0xe0\n      shl\n      dup2\n      mstore\n      0x04\n      add\n      tag_222\n      swap4\n      swap3\n      swap2\n      swap1\n      tag_223\n      jump\t// in\n    tag_222:\n      0x20\n      mload(0x40)\n      dup1\n      dup4\n      sub\n      dup2\n      0x00\n      dup8\n      gas\n      call\n      iszero\n      dup1\n      iszero\n      tag_225\n      jumpi\n      returndatasize\n      0x00\n      dup1\n      returndatacopy\n      revert(0x00, returndatasize)\n    tag_225:\n      pop\n      pop\n      pop\n      pop\n      mload(0x40)\n      returndatasize\n      not(0x1f)\n      0x1f\n      dup3\n      add\n      and\n      dup3\n      add\n      dup1\n      0x40\n      mstore\n      pop\n      dup2\n      add\n      swap1\n      tag_226\n      swap2\n      swap1\n      tag_170\n      jump\t// in\n    tag_226:\n      pop\n        /* \"contracts/dispute.sol\":3915:3921  amount */\n      dup1\n        /* \"contracts/dispute.sol\":3876:3888  stakedTokens */\n      0x03\n        /* \"contracts/dispute.sol\":3876:3899  stakedTokens[disputeId] */\n      0x00\n        /* \"contracts/dispute.sol\":3889:3898  disputeId */\n      dup6\n        /* \"contracts/dispute.sol\":3876:3899  stakedTokens[disputeId] */\n      dup2\n      mstore\n      0x20\n      add\n      swap1\n      dup2\n      mstore\n      0x20\n      add\n      0x00\n      keccak256\n        /* \"contracts/dispute.sol\":3876:3911  stakedTokens[disputeId][msg.sender] */\n      0x00\n        /* \"contracts/dispute.sol\":3900:3910  msg.sender */\n      caller\n        /* \"contracts/dispute.sol\":3876:3911  stakedTokens[disputeId][msg.sender] */\n      0xffffffffffffffffffffffffffffffffffffffff\n      and\n      0xffffffffffffffffffffffffffffffffffffffff\n      and\n      dup2\n      mstore\n      0x20\n      add\n      swap1\n      dup2\n      mstore\n      0x20\n      add\n      0x00\n      keccak256\n      0x00\n        /* \"contracts/dispute.sol\":3876:3921  stakedTokens[disputeId][msg.sender] += amount */\n      dup3\n      dup3\n      sload\n      tag_227\n      swap2\n      swap1\n      tag_123\n      jump\t// in\n    tag_227:\n      swap3\n      pop\n      pop\n      dup2\n      swap1\n      sstore\n      pop\n        /* \"contracts/dispute.sol\":3936:3950  inFavorOfBuyer */\n      dup2\n        /* \"contracts/dispute.sol\":3932:4218  if (inFavorOfBuyer) {... */\n      iszero\n      tag_228\n      jumpi\n        /* \"contracts/dispute.sol\":4000:4006  amount */\n      dup1\n        /* \"contracts/dispute.sol\":3966:3974  disputes */\n      0x02\n        /* \"contracts/dispute.sol\":3966:3985  disputes[disputeId] */\n      0x00\n        /* \"contracts/dispute.sol\":3975:3984  disputeId */\n      dup6\n        /* \"contracts/dispute.sol\":3966:3985  disputes[disputeId] */\n      dup2\n      mstore\n      0x20\n      add\n      swap1\n      dup2\n      mstore\n      0x20\n      add\n      0x00\n      keccak256\n        /* \"contracts/dispute.sol\":3966:3996  disputes[disputeId].buyerVotes */\n      0x05\n      add\n      0x00\n        /* \"contracts/dispute.sol\":3966:4006  disputes[disputeId].buyerVotes += amount */\n      dup3\n      dup3\n      sload\n      tag_229\n      swap2\n      swap1\n      tag_123\n      jump\t// in\n    tag_229:\n      swap3\n      pop\n      pop\n      dup2\n      swap1\n      sstore\n      pop\n        /* \"contracts/dispute.sol\":4064:4070  amount */\n      dup1\n        /* \"contracts/dispute.sol\":4020:4037  buyerStakedTokens */\n      0x04\n        /* \"contracts/dispute.sol\":4020:4048  buyerStakedTokens[disputeId] */\n      0x00\n        /* \"contracts/dispute.sol\":4038:4047  disputeId */\n      dup6\n        /* \"contracts/dispute.sol\":4020:4048  buyerStakedTokens[disputeId] */\n      dup2\n      mstore\n      0x20\n      add\n      swap1\n      dup2\n      mstore\n      0x20\n      add\n      0x00\n      keccak256\n        /* \"contracts/dispute.sol\":4020:4060  buyerStakedTokens[disputeId][msg.sender] */\n      0x00\n        /* \"contracts/dispute.sol\":4049:4059  msg.sender */\n      caller\n        /* \"contracts/dispute.sol\":4020:4060  buyerStakedTokens[disputeId][msg.sender] */\n      0xffffffffffffffffffffffffffffffffffffffff\n      and\n      0xffffffffffffffffffffffffffffffffffffffff\n      and\n      dup2\n      mstore\n      0x20\n      add\n      swap1\n      dup2\n      mstore\n      0x20\n      add\n      0x00\n      keccak256\n      0x00\n        /* \"contracts/dispute.sol\":4020:4070  buyerStakedTokens[disputeId][msg.sender] += amount */\n      dup3\n      dup3\n      sload\n      tag_230\n      swap2\n      swap1\n      tag_123\n      jump\t// in\n    tag_230:\n      swap3\n      pop\n      pop\n      dup2\n      swap1\n      sstore\n      pop\n        /* \"contracts/dispute.sol\":3932:4218  if (inFavorOfBuyer) {... */\n      jump(tag_231)\n    tag_228:\n        /* \"contracts/dispute.sol\":4136:4142  amount */\n      dup1\n        /* \"contracts/dispute.sol\":4101:4109  disputes */\n      0x02\n        /* \"contracts/dispute.sol\":4101:4120  disputes[disputeId] */\n      0x00\n        /* \"contracts/dispute.sol\":4110:4119  disputeId */\n      dup6\n        /* \"contracts/dispute.sol\":4101:4120  disputes[disputeId] */\n      dup2\n      mstore\n      0x20\n      add\n      swap1\n      dup2\n      mstore\n      0x20\n      add\n      0x00\n      keccak256\n        /* \"contracts/dispute.sol\":4101:4132  disputes[disputeId].sellerVotes */\n      0x06\n      add\n      0x00\n        /* \"contracts/dispute.sol\":4101:4142  disputes[disputeId].sellerVotes += amount */\n      dup3\n      dup3\n      sload\n      tag_232\n      swap2\n      swap1\n      tag_123\n      jump\t// in\n    tag_232:\n      swap3\n      pop\n      pop\n      dup2\n      swap1\n      sstore\n      pop\n        /* \"contracts/dispute.sol\":4201:4207  amount */\n      dup1\n        /* \"contracts/dispute.sol\":4156:4174  sellerStakedTokens */\n      0x05\n        /* \"contracts/dispute.sol\":4156:4185  sellerStakedTokens[disputeId] */\n      0x00\n        /* \"contracts/dispute.sol\":4175:4184  disputeId */\n      dup6\n        /* \"contracts/dispute.sol\":4156:4185  sellerStakedTokens[disputeId] */\n      dup2\n      mstore\n      0x20\n      add\n      swap1\n      dup2\n      mstore\n      0x20\n      add\n      0x00\n      keccak256\n        /* \"contracts/dispute.sol\":4156:4197  sellerStakedTokens[disputeId][msg.sender] */\n      0x00\n        /* \"contracts/dispute.sol\":4186:4196  msg.sender */\n      caller\n        /* \"contracts/dispute.sol\":4156:4197  sellerStakedTokens[disputeId][msg.sender] */\n      0xffffffffffffffffffffffffffffffffffffffff\n      and\n      0xffffffffffffffffffffffffffffffffffffffff\n      and\n      dup2\n      mstore\n      0x20\n      add\n      swap1\n      dup2\n      mstore\n      0x20\n      add\n      0x00\n      keccak256\n      0x00\n        /* \"contracts/dispute.sol\":4156:4207  sellerStakedTokens[disputeId][msg.sender] += amount */\n      dup3\n      dup3\n      sload\n      tag_233\n      swap2\n      swap1\n      tag_123\n      jump\t// in\n    tag_233:\n      swap3\n      pop\n      pop\n      dup2\n      swap1\n      sstore\n      pop\n        /* \"contracts/dispute.sol\":3932:4218  if (inFavorOfBuyer) {... */\n    tag_231:\n        /* \"contracts/dispute.sol\":4247:4256  disputeId */\n      dup3\n        /* \"contracts/dispute.sol\":4233:4293  VoteSubmitted(disputeId, msg.sender, inFavorOfBuyer, amount) */\n      0xd5fbdad2a4bb43b8c8ee1becc8085bb21684241593a04bf8795a83f56436b43d\n        /* \"contracts/dispute.sol\":4258:4268  msg.sender */\n      caller\n        /* \"contracts/dispute.sol\":4270:4284  inFavorOfBuyer */\n      dup5\n        /* \"contracts/dispute.sol\":4286:4292  amount */\n      dup5\n        /* \"contracts/dispute.sol\":4233:4293  VoteSubmitted(disputeId, msg.sender, inFavorOfBuyer, amount) */\n      mload(0x40)\n      tag_234\n      swap4\n      swap3\n      swap2\n      swap1\n      tag_235\n      jump\t// in\n    tag_234:\n      mload(0x40)\n      dup1\n      swap2\n      sub\n      swap1\n      log2\n        /* \"contracts/dispute.sol\":3473:4301  function vote(uint256 disputeId, bool inFavorOfBuyer, uint256 amount) public {... */\n      pop\n      pop\n      pop\n      jump\t// out\n        /* \"@openzeppelin/contracts/access/Ownable.sol\":2081:2279  function transferOwnership(address newOwner) public virtual onlyOwner {... */\n    tag_101:\n        /* \"@openzeppelin/contracts/access/Ownable.sol\":1094:1107  _checkOwner() */\n      tag_237\n        /* \"@openzeppelin/contracts/access/Ownable.sol\":1094:1105  _checkOwner */\n      tag_137\n        /* \"@openzeppelin/contracts/access/Ownable.sol\":1094:1107  _checkOwner() */\n      jump\t// in\n    tag_237:\n        /* \"@openzeppelin/contracts/access/Ownable.sol\":2189:2190  0 */\n      0x00\n        /* \"@openzeppelin/contracts/access/Ownable.sol\":2169:2191  newOwner != address(0) */\n      0xffffffffffffffffffffffffffffffffffffffff\n      and\n        /* \"@openzeppelin/contracts/access/Ownable.sol\":2169:2177  newOwner */\n      dup2\n        /* \"@openzeppelin/contracts/access/Ownable.sol\":2169:2191  newOwner != address(0) */\n      0xffffffffffffffffffffffffffffffffffffffff\n      and\n      sub\n        /* \"@openzeppelin/contracts/access/Ownable.sol\":2161:2234  require(newOwner != address(0), \"Ownable: new owner is the zero address\") */\n      tag_239\n      jumpi\n      mload(0x40)\n      0x08c379a000000000000000000000000000000000000000000000000000000000\n      dup2\n      mstore\n      0x04\n      add\n      tag_240\n      swap1\n      tag_241\n      jump\t// in\n    tag_240:\n      mload(0x40)\n      dup1\n      swap2\n      sub\n      swap1\n      revert\n    tag_239:\n        /* \"@openzeppelin/contracts/access/Ownable.sol\":2244:2272  _transferOwnership(newOwner) */\n      tag_242\n        /* \"@openzeppelin/contracts/access/Ownable.sol\":2263:2271  newOwner */\n      dup2\n        /* \"@openzeppelin/contracts/access/Ownable.sol\":2244:2262  _transferOwnership */\n      tag_175\n        /* \"@openzeppelin/contracts/access/Ownable.sol\":2244:2272  _transferOwnership(newOwner) */\n      jump\t// in\n    tag_242:\n        /* \"@openzeppelin/contracts/access/Ownable.sol\":2081:2279  function transferOwnership(address newOwner) public virtual onlyOwner {... */\n      pop\n      jump\t// out\n        /* \"contracts/dispute.sol\":898:971  mapping(uint256 => mapping(address => uint256)) public sellerStakedTokens */\n    tag_104:\n      mstore(0x20, 0x05)\n      dup2\n      0x00\n      mstore\n      mstore(0x20, keccak256(0x00, 0x40))\n      dup1\n      0x00\n      mstore\n      keccak256(0x00, 0x40)\n      0x00\n      swap2\n      pop\n      swap2\n      pop\n      pop\n      sload\n      dup2\n      jump\t// out\n        /* \"contracts/dispute.sol\":1042:1103  mapping(bytes32 => uint256) public disputesForProposalRequest */\n    tag_109:\n      mstore(0x20, 0x07)\n      dup1\n      0x00\n      mstore\n      keccak256(0x00, 0x40)\n      0x00\n      swap2\n      pop\n      swap1\n      pop\n      sload\n      dup2\n      jump\t// out\n        /* \"contracts/dispute.sol\":1935:2109  function generateKey(uint256 proposalID, uint256 buyerRequestIndex) internal pure returns (bytes32) {... */\n    tag_125:\n        /* \"contracts/dispute.sol\":2026:2033  bytes32 */\n      0x00\n        /* \"contracts/dispute.sol\":2075:2085  proposalID */\n      dup3\n        /* \"contracts/dispute.sol\":2087:2104  buyerRequestIndex */\n      dup3\n        /* \"contracts/dispute.sol\":2058:2105  abi.encodePacked(proposalID, buyerRequestIndex) */\n      add(0x20, mload(0x40))\n      tag_244\n      swap3\n      swap2\n      swap1\n      tag_245\n      jump\t// in\n    tag_244:\n      mload(0x40)\n      0x20\n      dup2\n      dup4\n      sub\n      sub\n      dup2\n      mstore\n      swap1\n      0x40\n      mstore\n        /* \"contracts/dispute.sol\":2048:2106  keccak256(abi.encodePacked(proposalID, buyerRequestIndex)) */\n      dup1\n      mload\n      swap1\n      0x20\n      add\n      keccak256\n        /* \"contracts/dispute.sol\":2041:2106  return keccak256(abi.encodePacked(proposalID, buyerRequestIndex)) */\n      swap1\n      pop\n        /* \"contracts/dispute.sol\":1935:2109  function generateKey(uint256 proposalID, uint256 buyerRequestIndex) internal pure returns (bytes32) {... */\n      swap3\n      swap2\n      pop\n      pop\n      jump\t// out\n        /* \"@openzeppelin/contracts/access/Ownable.sol\":1359:1489  function _checkOwner() internal view virtual {... */\n    tag_137:\n        /* \"@openzeppelin/contracts/access/Ownable.sol\":1433:1445  _msgSender() */\n      tag_247\n        /* \"@openzeppelin/contracts/access/Ownable.sol\":1433:1443  _msgSender */\n      tag_248\n        /* \"@openzeppelin/contracts/access/Ownable.sol\":1433:1445  _msgSender() */\n      jump\t// in\n    tag_247:\n        /* \"@openzeppelin/contracts/access/Ownable.sol\":1422:1445  owner() == _msgSender() */\n      0xffffffffffffffffffffffffffffffffffffffff\n      and\n        /* \"@openzeppelin/contracts/access/Ownable.sol\":1422:1429  owner() */\n      tag_249\n        /* \"@openzeppelin/contracts/access/Ownable.sol\":1422:1427  owner */\n      tag_80\n        /* \"@openzeppelin/contracts/access/Ownable.sol\":1422:1429  owner() */\n      jump\t// in\n    tag_249:\n        /* \"@openzeppelin/contracts/access/Ownable.sol\":1422:1445  owner() == _msgSender() */\n      0xffffffffffffffffffffffffffffffffffffffff\n      and\n      eq\n        /* \"@openzeppelin/contracts/access/Ownable.sol\":1414:1482  require(owner() == _msgSender(), \"Ownable: caller is not the owner\") */\n      tag_250\n      jumpi\n      mload(0x40)\n      0x08c379a000000000000000000000000000000000000000000000000000000000\n      dup2\n      mstore\n      0x04\n      add\n      tag_251\n      swap1\n      tag_252\n      jump\t// in\n    tag_251:\n      mload(0x40)\n      dup1\n      swap2\n      sub\n      swap1\n      revert\n    tag_250:\n        /* \"@openzeppelin/contracts/access/Ownable.sol\":1359:1489  function _checkOwner() internal view virtual {... */\n      jump\t// out\n        /* \"@openzeppelin/contracts/access/Ownable.sol\":2433:2620  function _transferOwnership(address newOwner) internal virtual {... */\n    tag_175:\n        /* \"@openzeppelin/contracts/access/Ownable.sol\":2506:2522  address oldOwner */\n      0x00\n        /* \"@openzeppelin/contracts/access/Ownable.sol\":2525:2531  _owner */\n      dup1\n      0x00\n      swap1\n      sload\n      swap1\n      0x0100\n      exp\n      swap1\n      div\n      0xffffffffffffffffffffffffffffffffffffffff\n      and\n        /* \"@openzeppelin/contracts/access/Ownable.sol\":2506:2531  address oldOwner = _owner */\n      swap1\n      pop\n        /* \"@openzeppelin/contracts/access/Ownable.sol\":2550:2558  newOwner */\n      dup2\n        /* \"@openzeppelin/contracts/access/Ownable.sol\":2541:2547  _owner */\n      0x00\n      dup1\n        /* \"@openzeppelin/contracts/access/Ownable.sol\":2541:2558  _owner = newOwner */\n      0x0100\n      exp\n      dup2\n      sload\n      dup2\n      0xffffffffffffffffffffffffffffffffffffffff\n      mul\n      not\n      and\n      swap1\n      dup4\n      0xffffffffffffffffffffffffffffffffffffffff\n      and\n      mul\n      or\n      swap1\n      sstore\n      pop\n        /* \"@openzeppelin/contracts/access/Ownable.sol\":2604:2612  newOwner */\n      dup2\n        /* \"@openzeppelin/contracts/access/Ownable.sol\":2573:2613  OwnershipTransferred(oldOwner, newOwner) */\n      0xffffffffffffffffffffffffffffffffffffffff\n      and\n        /* \"@openzeppelin/contracts/access/Ownable.sol\":2594:2602  oldOwner */\n      dup2\n        /* \"@openzeppelin/contracts/access/Ownable.sol\":2573:2613  OwnershipTransferred(oldOwner, newOwner) */\n      0xffffffffffffffffffffffffffffffffffffffff\n      and\n      0x8be0079c531659141344cd1fd0a4f28419497f9722a3daafe3b4186f6b6457e0\n      mload(0x40)\n      mload(0x40)\n      dup1\n      swap2\n      sub\n      swap1\n      log3\n        /* \"@openzeppelin/contracts/access/Ownable.sol\":2496:2620  {... */\n      pop\n        /* \"@openzeppelin/contracts/access/Ownable.sol\":2433:2620  function _transferOwnership(address newOwner) internal virtual {... */\n      pop\n      jump\t// out\n        /* \"@openzeppelin/contracts/utils/Context.sol\":640:736  function _msgSender() internal view virtual returns (address) {... */\n    tag_248:\n        /* \"@openzeppelin/contracts/utils/Context.sol\":693:700  address */\n      0x00\n        /* \"@openzeppelin/contracts/utils/Context.sol\":719:729  msg.sender */\n      caller\n        /* \"@openzeppelin/contracts/utils/Context.sol\":712:729  return msg.sender */\n      swap1\n      pop\n        /* \"@openzeppelin/contracts/utils/Context.sol\":640:736  function _msgSender() internal view virtual returns (address) {... */\n      swap1\n      jump\t// out\n        /* \"#utility.yul\":88:205   */\n    tag_256:\n        /* \"#utility.yul\":197:198   */\n      0x00\n        /* \"#utility.yul\":194:195   */\n      dup1\n        /* \"#utility.yul\":187:199   */\n      revert\n        /* \"#utility.yul\":334:460   */\n    tag_258:\n        /* \"#utility.yul\":371:378   */\n      0x00\n        /* \"#utility.yul\":411:453   */\n      0xffffffffffffffffffffffffffffffffffffffff\n        /* \"#utility.yul\":404:409   */\n      dup3\n        /* \"#utility.yul\":400:454   */\n      and\n        /* \"#utility.yul\":389:454   */\n      swap1\n      pop\n        /* \"#utility.yul\":334:460   */\n      swap2\n      swap1\n      pop\n      jump\t// out\n        /* \"#utility.yul\":466:562   */\n    tag_259:\n        /* \"#utility.yul\":503:510   */\n      0x00\n        /* \"#utility.yul\":532:556   */\n      tag_315\n        /* \"#utility.yul\":550:555   */\n      dup3\n        /* \"#utility.yul\":532:556   */\n      tag_258\n      jump\t// in\n    tag_315:\n        /* \"#utility.yul\":521:556   */\n      swap1\n      pop\n        /* \"#utility.yul\":466:562   */\n      swap2\n      swap1\n      pop\n      jump\t// out\n        /* \"#utility.yul\":568:690   */\n    tag_260:\n        /* \"#utility.yul\":641:665   */\n      tag_317\n        /* \"#utility.yul\":659:664   */\n      dup2\n        /* \"#utility.yul\":641:665   */\n      tag_259\n      jump\t// in\n    tag_317:\n        /* \"#utility.yul\":634:639   */\n      dup2\n        /* \"#utility.yul\":631:666   */\n      eq\n        /* \"#utility.yul\":621:684   */\n      tag_318\n      jumpi\n        /* \"#utility.yul\":680:681   */\n      0x00\n        /* \"#utility.yul\":677:678   */\n      dup1\n        /* \"#utility.yul\":670:682   */\n      revert\n        /* \"#utility.yul\":621:684   */\n    tag_318:\n        /* \"#utility.yul\":568:690   */\n      pop\n      jump\t// out\n        /* \"#utility.yul\":696:835   */\n    tag_261:\n        /* \"#utility.yul\":742:747   */\n      0x00\n        /* \"#utility.yul\":780:786   */\n      dup2\n        /* \"#utility.yul\":767:787   */\n      calldataload\n        /* \"#utility.yul\":758:787   */\n      swap1\n      pop\n        /* \"#utility.yul\":796:829   */\n      tag_320\n        /* \"#utility.yul\":823:828   */\n      dup2\n        /* \"#utility.yul\":796:829   */\n      tag_260\n      jump\t// in\n    tag_320:\n        /* \"#utility.yul\":696:835   */\n      swap3\n      swap2\n      pop\n      pop\n      jump\t// out\n        /* \"#utility.yul\":841:918   */\n    tag_262:\n        /* \"#utility.yul\":878:885   */\n      0x00\n        /* \"#utility.yul\":907:912   */\n      dup2\n        /* \"#utility.yul\":896:912   */\n      swap1\n      pop\n        /* \"#utility.yul\":841:918   */\n      swap2\n      swap1\n      pop\n      jump\t// out\n        /* \"#utility.yul\":924:1046   */\n    tag_263:\n        /* \"#utility.yul\":997:1021   */\n      tag_323\n        /* \"#utility.yul\":1015:1020   */\n      dup2\n        /* \"#utility.yul\":997:1021   */\n      tag_262\n      jump\t// in\n    tag_323:\n        /* \"#utility.yul\":990:995   */\n      dup2\n        /* \"#utility.yul\":987:1022   */\n      eq\n        /* \"#utility.yul\":977:1040   */\n      tag_324\n      jumpi\n        /* \"#utility.yul\":1036:1037   */\n      0x00\n        /* \"#utility.yul\":1033:1034   */\n      dup1\n        /* \"#utility.yul\":1026:1038   */\n      revert\n        /* \"#utility.yul\":977:1040   */\n    tag_324:\n        /* \"#utility.yul\":924:1046   */\n      pop\n      jump\t// out\n        /* \"#utility.yul\":1052:1191   */\n    tag_264:\n        /* \"#utility.yul\":1098:1103   */\n      0x00\n        /* \"#utility.yul\":1136:1142   */\n      dup2\n        /* \"#utility.yul\":1123:1143   */\n      calldataload\n        /* \"#utility.yul\":1114:1143   */\n      swap1\n      pop\n        /* \"#utility.yul\":1152:1185   */\n      tag_326\n        /* \"#utility.yul\":1179:1184   */\n      dup2\n        /* \"#utility.yul\":1152:1185   */\n      tag_263\n      jump\t// in\n    tag_326:\n        /* \"#utility.yul\":1052:1191   */\n      swap3\n      swap2\n      pop\n      pop\n      jump\t// out\n        /* \"#utility.yul\":1197:2108   */\n    tag_29:\n        /* \"#utility.yul\":1292:1298   */\n      0x00\n        /* \"#utility.yul\":1300:1306   */\n      dup1\n        /* \"#utility.yul\":1308:1314   */\n      0x00\n        /* \"#utility.yul\":1316:1322   */\n      dup1\n        /* \"#utility.yul\":1324:1330   */\n      0x00\n        /* \"#utility.yul\":1373:1376   */\n      0xa0\n        /* \"#utility.yul\":1361:1370   */\n      dup7\n        /* \"#utility.yul\":1352:1359   */\n      dup9\n        /* \"#utility.yul\":1348:1371   */\n      sub\n        /* \"#utility.yul\":1344:1377   */\n      slt\n        /* \"#utility.yul\":1341:1461   */\n      iszero\n      tag_328\n      jumpi\n        /* \"#utility.yul\":1380:1459   */\n      tag_329\n      tag_256\n      jump\t// in\n    tag_329:\n        /* \"#utility.yul\":1341:1461   */\n    tag_328:\n        /* \"#utility.yul\":1500:1501   */\n      0x00\n        /* \"#utility.yul\":1525:1578   */\n      tag_330\n        /* \"#utility.yul\":1570:1577   */\n      dup9\n        /* \"#utility.yul\":1561:1567   */\n      dup3\n        /* \"#utility.yul\":1550:1559   */\n      dup10\n        /* \"#utility.yul\":1546:1568   */\n      add\n        /* \"#utility.yul\":1525:1578   */\n      tag_261\n      jump\t// in\n    tag_330:\n        /* \"#utility.yul\":1515:1578   */\n      swap6\n      pop\n        /* \"#utility.yul\":1471:1588   */\n      pop\n        /* \"#utility.yul\":1627:1629   */\n      0x20\n        /* \"#utility.yul\":1653:1706   */\n      tag_331\n        /* \"#utility.yul\":1698:1705   */\n      dup9\n        /* \"#utility.yul\":1689:1695   */\n      dup3\n        /* \"#utility.yul\":1678:1687   */\n      dup10\n        /* \"#utility.yul\":1674:1696   */\n      add\n        /* \"#utility.yul\":1653:1706   */\n      tag_261\n      jump\t// in\n    tag_331:\n        /* \"#utility.yul\":1643:1706   */\n      swap5\n      pop\n        /* \"#utility.yul\":1598:1716   */\n      pop\n        /* \"#utility.yul\":1755:1757   */\n      0x40\n        /* \"#utility.yul\":1781:1834   */\n      tag_332\n        /* \"#utility.yul\":1826:1833   */\n      dup9\n        /* \"#utility.yul\":1817:1823   */\n      dup3\n        /* \"#utility.yul\":1806:1815   */\n      dup10\n        /* \"#utility.yul\":1802:1824   */\n      add\n        /* \"#utility.yul\":1781:1834   */\n      tag_264\n      jump\t// in\n    tag_332:\n        /* \"#utility.yul\":1771:1834   */\n      swap4\n      pop\n        /* \"#utility.yul\":1726:1844   */\n      pop\n        /* \"#utility.yul\":1883:1885   */\n      0x60\n        /* \"#utility.yul\":1909:1962   */\n      tag_333\n        /* \"#utility.yul\":1954:1961   */\n      dup9\n        /* \"#utility.yul\":1945:1951   */\n      dup3\n        /* \"#utility.yul\":1934:1943   */\n      dup10\n        /* \"#utility.yul\":1930:1952   */\n      add\n        /* \"#utility.yul\":1909:1962   */\n      tag_264\n      jump\t// in\n    tag_333:\n        /* \"#utility.yul\":1899:1962   */\n      swap3\n      pop\n        /* \"#utility.yul\":1854:1972   */\n      pop\n        /* \"#utility.yul\":2011:2014   */\n      0x80\n        /* \"#utility.yul\":2038:2091   */\n      tag_334\n        /* \"#utility.yul\":2083:2090   */\n      dup9\n        /* \"#utility.yul\":2074:2080   */\n      dup3\n        /* \"#utility.yul\":2063:2072   */\n      dup10\n        /* \"#utility.yul\":2059:2081   */\n      add\n        /* \"#utility.yul\":2038:2091   */\n      tag_264\n      jump\t// in\n    tag_334:\n        /* \"#utility.yul\":2028:2091   */\n      swap2\n      pop\n        /* \"#utility.yul\":1982:2101   */\n      pop\n        /* \"#utility.yul\":1197:2108   */\n      swap3\n      swap6\n      pop\n      swap3\n      swap6\n      swap1\n      swap4\n      pop\n      jump\t// out\n        /* \"#utility.yul\":2114:2232   */\n    tag_265:\n        /* \"#utility.yul\":2201:2225   */\n      tag_336\n        /* \"#utility.yul\":2219:2224   */\n      dup2\n        /* \"#utility.yul\":2201:2225   */\n      tag_262\n      jump\t// in\n    tag_336:\n        /* \"#utility.yul\":2196:2199   */\n      dup3\n        /* \"#utility.yul\":2189:2226   */\n      mstore\n        /* \"#utility.yul\":2114:2232   */\n      pop\n      pop\n      jump\t// out\n        /* \"#utility.yul\":2238:2460   */\n    tag_32:\n        /* \"#utility.yul\":2331:2335   */\n      0x00\n        /* \"#utility.yul\":2369:2371   */\n      0x20\n        /* \"#utility.yul\":2358:2367   */\n      dup3\n        /* \"#utility.yul\":2354:2372   */\n      add\n        /* \"#utility.yul\":2346:2372   */\n      swap1\n      pop\n        /* \"#utility.yul\":2382:2453   */\n      tag_338\n        /* \"#utility.yul\":2450:2451   */\n      0x00\n        /* \"#utility.yul\":2439:2448   */\n      dup4\n        /* \"#utility.yul\":2435:2452   */\n      add\n        /* \"#utility.yul\":2426:2432   */\n      dup5\n        /* \"#utility.yul\":2382:2453   */\n      tag_265\n      jump\t// in\n    tag_338:\n        /* \"#utility.yul\":2238:2460   */\n      swap3\n      swap2\n      pop\n      pop\n      jump\t// out\n        /* \"#utility.yul\":2466:2526   */\n    tag_266:\n        /* \"#utility.yul\":2494:2497   */\n      0x00\n        /* \"#utility.yul\":2515:2520   */\n      dup2\n        /* \"#utility.yul\":2508:2520   */\n      swap1\n      pop\n        /* \"#utility.yul\":2466:2526   */\n      swap2\n      swap1\n      pop\n      jump\t// out\n        /* \"#utility.yul\":2532:2674   */\n    tag_267:\n        /* \"#utility.yul\":2582:2591   */\n      0x00\n        /* \"#utility.yul\":2615:2668   */\n      tag_341\n        /* \"#utility.yul\":2633:2667   */\n      tag_342\n        /* \"#utility.yul\":2642:2666   */\n      tag_343\n        /* \"#utility.yul\":2660:2665   */\n      dup5\n        /* \"#utility.yul\":2642:2666   */\n      tag_258\n      jump\t// in\n    tag_343:\n        /* \"#utility.yul\":2633:2667   */\n      tag_266\n      jump\t// in\n    tag_342:\n        /* \"#utility.yul\":2615:2668   */\n      tag_258\n      jump\t// in\n    tag_341:\n        /* \"#utility.yul\":2602:2668   */\n      swap1\n      pop\n        /* \"#utility.yul\":2532:2674   */\n      swap2\n      swap1\n      pop\n      jump\t// out\n        /* \"#utility.yul\":2680:2806   */\n    tag_268:\n        /* \"#utility.yul\":2730:2739   */\n      0x00\n        /* \"#utility.yul\":2763:2800   */\n      tag_345\n        /* \"#utility.yul\":2794:2799   */\n      dup3\n        /* \"#utility.yul\":2763:2800   */\n      tag_267\n      jump\t// in\n    tag_345:\n        /* \"#utility.yul\":2750:2800   */\n      swap1\n      pop\n        /* \"#utility.yul\":2680:2806   */\n      swap2\n      swap1\n      pop\n      jump\t// out\n        /* \"#utility.yul\":2812:2952   */\n    tag_269:\n        /* \"#utility.yul\":2876:2885   */\n      0x00\n        /* \"#utility.yul\":2909:2946   */\n      tag_347\n        /* \"#utility.yul\":2940:2945   */\n      dup3\n        /* \"#utility.yul\":2909:2946   */\n      tag_268\n      jump\t// in\n    tag_347:\n        /* \"#utility.yul\":2896:2946   */\n      swap1\n      pop\n        /* \"#utility.yul\":2812:2952   */\n      swap2\n      swap1\n      pop\n      jump\t// out\n        /* \"#utility.yul\":2958:3117   */\n    tag_270:\n        /* \"#utility.yul\":3059:3110   */\n      tag_349\n        /* \"#utility.yul\":3104:3109   */\n      dup2\n        /* \"#utility.yul\":3059:3110   */\n      tag_269\n      jump\t// in\n    tag_349:\n        /* \"#utility.yul\":3054:3057   */\n      dup3\n        /* \"#utility.yul\":3047:3111   */\n      mstore\n        /* \"#utility.yul\":2958:3117   */\n      pop\n      pop\n      jump\t// out\n        /* \"#utility.yul\":3123:3373   */\n    tag_36:\n        /* \"#utility.yul\":3230:3234   */\n      0x00\n        /* \"#utility.yul\":3268:3270   */\n      0x20\n        /* \"#utility.yul\":3257:3266   */\n      dup3\n        /* \"#utility.yul\":3253:3271   */\n      add\n        /* \"#utility.yul\":3245:3271   */\n      swap1\n      pop\n        /* \"#utility.yul\":3281:3366   */\n      tag_351\n        /* \"#utility.yul\":3363:3364   */\n      0x00\n        /* \"#utility.yul\":3352:3361   */\n      dup4\n        /* \"#utility.yul\":3348:3365   */\n      add\n        /* \"#utility.yul\":3339:3345   */\n      dup5\n        /* \"#utility.yul\":3281:3366   */\n      tag_270\n      jump\t// in\n    tag_351:\n        /* \"#utility.yul\":3123:3373   */\n      swap3\n      swap2\n      pop\n      pop\n      jump\t// out\n        /* \"#utility.yul\":3379:3853   */\n    tag_39:\n        /* \"#utility.yul\":3447:3453   */\n      0x00\n        /* \"#utility.yul\":3455:3461   */\n      dup1\n        /* \"#utility.yul\":3504:3506   */\n      0x40\n        /* \"#utility.yul\":3492:3501   */\n      dup4\n        /* \"#utility.yul\":3483:3490   */\n      dup6\n        /* \"#utility.yul\":3479:3502   */\n      sub\n        /* \"#utility.yul\":3475:3507   */\n      slt\n        /* \"#utility.yul\":3472:3591   */\n      iszero\n      tag_353\n      jumpi\n        /* \"#utility.yul\":3510:3589   */\n      tag_354\n      tag_256\n      jump\t// in\n    tag_354:\n        /* \"#utility.yul\":3472:3591   */\n    tag_353:\n        /* \"#utility.yul\":3630:3631   */\n      0x00\n        /* \"#utility.yul\":3655:3708   */\n      tag_355\n        /* \"#utility.yul\":3700:3707   */\n      dup6\n        /* \"#utility.yul\":3691:3697   */\n      dup3\n        /* \"#utility.yul\":3680:3689   */\n      dup7\n        /* \"#utility.yul\":3676:3698   */\n      add\n        /* \"#utility.yul\":3655:3708   */\n      tag_264\n      jump\t// in\n    tag_355:\n        /* \"#utility.yul\":3645:3708   */\n      swap3\n      pop\n        /* \"#utility.yul\":3601:3718   */\n      pop\n        /* \"#utility.yul\":3757:3759   */\n      0x20\n        /* \"#utility.yul\":3783:3836   */\n      tag_356\n        /* \"#utility.yul\":3828:3835   */\n      dup6\n        /* \"#utility.yul\":3819:3825   */\n      dup3\n        /* \"#utility.yul\":3808:3817   */\n      dup7\n        /* \"#utility.yul\":3804:3826   */\n      add\n        /* \"#utility.yul\":3783:3836   */\n      tag_264\n      jump\t// in\n    tag_356:\n        /* \"#utility.yul\":3773:3836   */\n      swap2\n      pop\n        /* \"#utility.yul\":3728:3846   */\n      pop\n        /* \"#utility.yul\":3379:3853   */\n      swap3\n      pop\n      swap3\n      swap1\n      pop\n      jump\t// out\n        /* \"#utility.yul\":3859:3949   */\n    tag_271:\n        /* \"#utility.yul\":3893:3900   */\n      0x00\n        /* \"#utility.yul\":3936:3941   */\n      dup2\n        /* \"#utility.yul\":3929:3942   */\n      iszero\n        /* \"#utility.yul\":3922:3943   */\n      iszero\n        /* \"#utility.yul\":3911:3943   */\n      swap1\n      pop\n        /* \"#utility.yul\":3859:3949   */\n      swap2\n      swap1\n      pop\n      jump\t// out\n        /* \"#utility.yul\":3955:4064   */\n    tag_272:\n        /* \"#utility.yul\":4036:4057   */\n      tag_359\n        /* \"#utility.yul\":4051:4056   */\n      dup2\n        /* \"#utility.yul\":4036:4057   */\n      tag_271\n      jump\t// in\n    tag_359:\n        /* \"#utility.yul\":4031:4034   */\n      dup3\n        /* \"#utility.yul\":4024:4058   */\n      mstore\n        /* \"#utility.yul\":3955:4064   */\n      pop\n      pop\n      jump\t// out\n        /* \"#utility.yul\":4070:4280   */\n    tag_42:\n        /* \"#utility.yul\":4157:4161   */\n      0x00\n        /* \"#utility.yul\":4195:4197   */\n      0x20\n        /* \"#utility.yul\":4184:4193   */\n      dup3\n        /* \"#utility.yul\":4180:4198   */\n      add\n        /* \"#utility.yul\":4172:4198   */\n      swap1\n      pop\n        /* \"#utility.yul\":4208:4273   */\n      tag_361\n        /* \"#utility.yul\":4270:4271   */\n      0x00\n        /* \"#utility.yul\":4259:4268   */\n      dup4\n        /* \"#utility.yul\":4255:4272   */\n      add\n        /* \"#utility.yul\":4246:4252   */\n      dup5\n        /* \"#utility.yul\":4208:4273   */\n      tag_272\n      jump\t// in\n    tag_361:\n        /* \"#utility.yul\":4070:4280   */\n      swap3\n      swap2\n      pop\n      pop\n      jump\t// out\n        /* \"#utility.yul\":4286:4615   */\n    tag_45:\n        /* \"#utility.yul\":4345:4351   */\n      0x00\n        /* \"#utility.yul\":4394:4396   */\n      0x20\n        /* \"#utility.yul\":4382:4391   */\n      dup3\n        /* \"#utility.yul\":4373:4380   */\n      dup5\n        /* \"#utility.yul\":4369:4392   */\n      sub\n        /* \"#utility.yul\":4365:4397   */\n      slt\n        /* \"#utility.yul\":4362:4481   */\n      iszero\n      tag_363\n      jumpi\n        /* \"#utility.yul\":4400:4479   */\n      tag_364\n      tag_256\n      jump\t// in\n    tag_364:\n        /* \"#utility.yul\":4362:4481   */\n    tag_363:\n        /* \"#utility.yul\":4520:4521   */\n      0x00\n        /* \"#utility.yul\":4545:4598   */\n      tag_365\n        /* \"#utility.yul\":4590:4597   */\n      dup5\n        /* \"#utility.yul\":4581:4587   */\n      dup3\n        /* \"#utility.yul\":4570:4579   */\n      dup6\n        /* \"#utility.yul\":4566:4588   */\n      add\n        /* \"#utility.yul\":4545:4598   */\n      tag_261\n      jump\t// in\n    tag_365:\n        /* \"#utility.yul\":4535:4598   */\n      swap2\n      pop\n        /* \"#utility.yul\":4491:4608   */\n      pop\n        /* \"#utility.yul\":4286:4615   */\n      swap3\n      swap2\n      pop\n      pop\n      jump\t// out\n        /* \"#utility.yul\":4621:4950   */\n    tag_52:\n        /* \"#utility.yul\":4680:4686   */\n      0x00\n        /* \"#utility.yul\":4729:4731   */\n      0x20\n        /* \"#utility.yul\":4717:4726   */\n      dup3\n        /* \"#utility.yul\":4708:4715   */\n      dup5\n        /* \"#utility.yul\":4704:4727   */\n      sub\n        /* \"#utility.yul\":4700:4732   */\n      slt\n        /* \"#utility.yul\":4697:4816   */\n      iszero\n      tag_367\n      jumpi\n        /* \"#utility.yul\":4735:4814   */\n      tag_368\n      tag_256\n      jump\t// in\n    tag_368:\n        /* \"#utility.yul\":4697:4816   */\n    tag_367:\n        /* \"#utility.yul\":4855:4856   */\n      0x00\n        /* \"#utility.yul\":4880:4933   */\n      tag_369\n        /* \"#utility.yul\":4925:4932   */\n      dup5\n        /* \"#utility.yul\":4916:4922   */\n      dup3\n        /* \"#utility.yul\":4905:4914   */\n      dup6\n        /* \"#utility.yul\":4901:4923   */\n      add\n        /* \"#utility.yul\":4880:4933   */\n      tag_264\n      jump\t// in\n    tag_369:\n        /* \"#utility.yul\":4870:4933   */\n      swap2\n      pop\n        /* \"#utility.yul\":4826:4943   */\n      pop\n        /* \"#utility.yul\":4621:4950   */\n      swap3\n      swap2\n      pop\n      pop\n      jump\t// out\n        /* \"#utility.yul\":4956:5074   */\n    tag_273:\n        /* \"#utility.yul\":5043:5067   */\n      tag_371\n        /* \"#utility.yul\":5061:5066   */\n      dup2\n        /* \"#utility.yul\":5043:5067   */\n      tag_259\n      jump\t// in\n    tag_371:\n        /* \"#utility.yul\":5038:5041   */\n      dup3\n        /* \"#utility.yul\":5031:5068   */\n      mstore\n        /* \"#utility.yul\":4956:5074   */\n      pop\n      pop\n      jump\t// out\n        /* \"#utility.yul\":5080:6275   */\n    tag_58:\n        /* \"#utility.yul\":5413:5417   */\n      0x00\n        /* \"#utility.yul\":5451:5454   */\n      0x0140\n        /* \"#utility.yul\":5440:5449   */\n      dup3\n        /* \"#utility.yul\":5436:5455   */\n      add\n        /* \"#utility.yul\":5428:5455   */\n      swap1\n      pop\n        /* \"#utility.yul\":5465:5536   */\n      tag_373\n        /* \"#utility.yul\":5533:5534   */\n      0x00\n        /* \"#utility.yul\":5522:5531   */\n      dup4\n        /* \"#utility.yul\":5518:5535   */\n      add\n        /* \"#utility.yul\":5509:5515   */\n      dup14\n        /* \"#utility.yul\":5465:5536   */\n      tag_273\n      jump\t// in\n    tag_373:\n        /* \"#utility.yul\":5546:5618   */\n      tag_374\n        /* \"#utility.yul\":5614:5616   */\n      0x20\n        /* \"#utility.yul\":5603:5612   */\n      dup4\n        /* \"#utility.yul\":5599:5617   */\n      add\n        /* \"#utility.yul\":5590:5596   */\n      dup13\n        /* \"#utility.yul\":5546:5618   */\n      tag_273\n      jump\t// in\n    tag_374:\n        /* \"#utility.yul\":5628:5700   */\n      tag_375\n        /* \"#utility.yul\":5696:5698   */\n      0x40\n        /* \"#utility.yul\":5685:5694   */\n      dup4\n        /* \"#utility.yul\":5681:5699   */\n      add\n        /* \"#utility.yul\":5672:5678   */\n      dup12\n        /* \"#utility.yul\":5628:5700   */\n      tag_265\n      jump\t// in\n    tag_375:\n        /* \"#utility.yul\":5710:5782   */\n      tag_376\n        /* \"#utility.yul\":5778:5780   */\n      0x60\n        /* \"#utility.yul\":5767:5776   */\n      dup4\n        /* \"#utility.yul\":5763:5781   */\n      add\n        /* \"#utility.yul\":5754:5760   */\n      dup11\n        /* \"#utility.yul\":5710:5782   */\n      tag_265\n      jump\t// in\n    tag_376:\n        /* \"#utility.yul\":5792:5865   */\n      tag_377\n        /* \"#utility.yul\":5860:5863   */\n      0x80\n        /* \"#utility.yul\":5849:5858   */\n      dup4\n        /* \"#utility.yul\":5845:5864   */\n      add\n        /* \"#utility.yul\":5836:5842   */\n      dup10\n        /* \"#utility.yul\":5792:5865   */\n      tag_265\n      jump\t// in\n    tag_377:\n        /* \"#utility.yul\":5875:5948   */\n      tag_378\n        /* \"#utility.yul\":5943:5946   */\n      0xa0\n        /* \"#utility.yul\":5932:5941   */\n      dup4\n        /* \"#utility.yul\":5928:5947   */\n      add\n        /* \"#utility.yul\":5919:5925   */\n      dup9\n        /* \"#utility.yul\":5875:5948   */\n      tag_265\n      jump\t// in\n    tag_378:\n        /* \"#utility.yul\":5958:6031   */\n      tag_379\n        /* \"#utility.yul\":6026:6029   */\n      0xc0\n        /* \"#utility.yul\":6015:6024   */\n      dup4\n        /* \"#utility.yul\":6011:6030   */\n      add\n        /* \"#utility.yul\":6002:6008   */\n      dup8\n        /* \"#utility.yul\":5958:6031   */\n      tag_265\n      jump\t// in\n    tag_379:\n        /* \"#utility.yul\":6041:6114   */\n      tag_380\n        /* \"#utility.yul\":6109:6112   */\n      0xe0\n        /* \"#utility.yul\":6098:6107   */\n      dup4\n        /* \"#utility.yul\":6094:6113   */\n      add\n        /* \"#utility.yul\":6085:6091   */\n      dup7\n        /* \"#utility.yul\":6041:6114   */\n      tag_265\n      jump\t// in\n    tag_380:\n        /* \"#utility.yul\":6124:6191   */\n      tag_381\n        /* \"#utility.yul\":6186:6189   */\n      0x0100\n        /* \"#utility.yul\":6175:6184   */\n      dup4\n        /* \"#utility.yul\":6171:6190   */\n      add\n        /* \"#utility.yul\":6162:6168   */\n      dup6\n        /* \"#utility.yul\":6124:6191   */\n      tag_272\n      jump\t// in\n    tag_381:\n        /* \"#utility.yul\":6201:6268   */\n      tag_382\n        /* \"#utility.yul\":6263:6266   */\n      0x0120\n        /* \"#utility.yul\":6252:6261   */\n      dup4\n        /* \"#utility.yul\":6248:6267   */\n      add\n        /* \"#utility.yul\":6239:6245   */\n      dup5\n        /* \"#utility.yul\":6201:6268   */\n      tag_272\n      jump\t// in\n    tag_382:\n        /* \"#utility.yul\":5080:6275   */\n      swap12\n      swap11\n      pop\n      pop\n      pop\n      pop\n      pop\n      pop\n      pop\n      pop\n      pop\n      pop\n      pop\n      jump\t// out\n        /* \"#utility.yul\":6281:6755   */\n    tag_61:\n        /* \"#utility.yul\":6349:6355   */\n      0x00\n        /* \"#utility.yul\":6357:6363   */\n      dup1\n        /* \"#utility.yul\":6406:6408   */\n      0x40\n        /* \"#utility.yul\":6394:6403   */\n      dup4\n        /* \"#utility.yul\":6385:6392   */\n      dup6\n        /* \"#utility.yul\":6381:6404   */\n      sub\n        /* \"#utility.yul\":6377:6409   */\n      slt\n        /* \"#utility.yul\":6374:6493   */\n      iszero\n      tag_384\n      jumpi\n        /* \"#utility.yul\":6412:6491   */\n      tag_385\n      tag_256\n      jump\t// in\n    tag_385:\n        /* \"#utility.yul\":6374:6493   */\n    tag_384:\n        /* \"#utility.yul\":6532:6533   */\n      0x00\n        /* \"#utility.yul\":6557:6610   */\n      tag_386\n        /* \"#utility.yul\":6602:6609   */\n      dup6\n        /* \"#utility.yul\":6593:6599   */\n      dup3\n        /* \"#utility.yul\":6582:6591   */\n      dup7\n        /* \"#utility.yul\":6578:6600   */\n      add\n        /* \"#utility.yul\":6557:6610   */\n      tag_264\n      jump\t// in\n    tag_386:\n        /* \"#utility.yul\":6547:6610   */\n      swap3\n      pop\n        /* \"#utility.yul\":6503:6620   */\n      pop\n        /* \"#utility.yul\":6659:6661   */\n      0x20\n        /* \"#utility.yul\":6685:6738   */\n      tag_387\n        /* \"#utility.yul\":6730:6737   */\n      dup6\n        /* \"#utility.yul\":6721:6727   */\n      dup3\n        /* \"#utility.yul\":6710:6719   */\n      dup7\n        /* \"#utility.yul\":6706:6728   */\n      add\n        /* \"#utility.yul\":6685:6738   */\n      tag_261\n      jump\t// in\n    tag_387:\n        /* \"#utility.yul\":6675:6738   */\n      swap2\n      pop\n        /* \"#utility.yul\":6630:6748   */\n      pop\n        /* \"#utility.yul\":6281:6755   */\n      swap3\n      pop\n      swap3\n      swap1\n      pop\n      jump\t// out\n        /* \"#utility.yul\":6761:7093   */\n    tag_78:\n        /* \"#utility.yul\":6882:6886   */\n      0x00\n        /* \"#utility.yul\":6920:6922   */\n      0x40\n        /* \"#utility.yul\":6909:6918   */\n      dup3\n        /* \"#utility.yul\":6905:6923   */\n      add\n        /* \"#utility.yul\":6897:6923   */\n      swap1\n      pop\n        /* \"#utility.yul\":6933:7004   */\n      tag_389\n        /* \"#utility.yul\":7001:7002   */\n      0x00\n        /* \"#utility.yul\":6990:6999   */\n      dup4\n        /* \"#utility.yul\":6986:7003   */\n      add\n        /* \"#utility.yul\":6977:6983   */\n      dup6\n        /* \"#utility.yul\":6933:7004   */\n      tag_265\n      jump\t// in\n    tag_389:\n        /* \"#utility.yul\":7014:7086   */\n      tag_390\n        /* \"#utility.yul\":7082:7084   */\n      0x20\n        /* \"#utility.yul\":7071:7080   */\n      dup4\n        /* \"#utility.yul\":7067:7085   */\n      add\n        /* \"#utility.yul\":7058:7064   */\n      dup5\n        /* \"#utility.yul\":7014:7086   */\n      tag_265\n      jump\t// in\n    tag_390:\n        /* \"#utility.yul\":6761:7093   */\n      swap4\n      swap3\n      pop\n      pop\n      pop\n      jump\t// out\n        /* \"#utility.yul\":7099:7321   */\n    tag_82:\n        /* \"#utility.yul\":7192:7196   */\n      0x00\n        /* \"#utility.yul\":7230:7232   */\n      0x20\n        /* \"#utility.yul\":7219:7228   */\n      dup3\n        /* \"#utility.yul\":7215:7233   */\n      add\n        /* \"#utility.yul\":7207:7233   */\n      swap1\n      pop\n        /* \"#utility.yul\":7243:7314   */\n      tag_392\n        /* \"#utility.yul\":7311:7312   */\n      0x00\n        /* \"#utility.yul\":7300:7309   */\n      dup4\n        /* \"#utility.yul\":7296:7313   */\n      add\n        /* \"#utility.yul\":7287:7293   */\n      dup5\n        /* \"#utility.yul\":7243:7314   */\n      tag_273\n      jump\t// in\n    tag_392:\n        /* \"#utility.yul\":7099:7321   */\n      swap3\n      swap2\n      pop\n      pop\n      jump\t// out\n        /* \"#utility.yul\":7327:7443   */\n    tag_274:\n        /* \"#utility.yul\":7397:7418   */\n      tag_394\n        /* \"#utility.yul\":7412:7417   */\n      dup2\n        /* \"#utility.yul\":7397:7418   */\n      tag_271\n      jump\t// in\n    tag_394:\n        /* \"#utility.yul\":7390:7395   */\n      dup2\n        /* \"#utility.yul\":7387:7419   */\n      eq\n        /* \"#utility.yul\":7377:7437   */\n      tag_395\n      jumpi\n        /* \"#utility.yul\":7433:7434   */\n      0x00\n        /* \"#utility.yul\":7430:7431   */\n      dup1\n        /* \"#utility.yul\":7423:7435   */\n      revert\n        /* \"#utility.yul\":7377:7437   */\n    tag_395:\n        /* \"#utility.yul\":7327:7443   */\n      pop\n      jump\t// out\n        /* \"#utility.yul\":7449:7582   */\n    tag_275:\n        /* \"#utility.yul\":7492:7497   */\n      0x00\n        /* \"#utility.yul\":7530:7536   */\n      dup2\n        /* \"#utility.yul\":7517:7537   */\n      calldataload\n        /* \"#utility.yul\":7508:7537   */\n      swap1\n      pop\n        /* \"#utility.yul\":7546:7576   */\n      tag_397\n        /* \"#utility.yul\":7570:7575   */\n      dup2\n        /* \"#utility.yul\":7546:7576   */\n      tag_274\n      jump\t// in\n    tag_397:\n        /* \"#utility.yul\":7449:7582   */\n      swap3\n      swap2\n      pop\n      pop\n      jump\t// out\n        /* \"#utility.yul\":7588:8201   */\n    tag_97:\n        /* \"#utility.yul\":7662:7668   */\n      0x00\n        /* \"#utility.yul\":7670:7676   */\n      dup1\n        /* \"#utility.yul\":7678:7684   */\n      0x00\n        /* \"#utility.yul\":7727:7729   */\n      0x60\n        /* \"#utility.yul\":7715:7724   */\n      dup5\n        /* \"#utility.yul\":7706:7713   */\n      dup7\n        /* \"#utility.yul\":7702:7725   */\n      sub\n        /* \"#utility.yul\":7698:7730   */\n      slt\n        /* \"#utility.yul\":7695:7814   */\n      iszero\n      tag_399\n      jumpi\n        /* \"#utility.yul\":7733:7812   */\n      tag_400\n      tag_256\n      jump\t// in\n    tag_400:\n        /* \"#utility.yul\":7695:7814   */\n    tag_399:\n        /* \"#utility.yul\":7853:7854   */\n      0x00\n        /* \"#utility.yul\":7878:7931   */\n      tag_401\n        /* \"#utility.yul\":7923:7930   */\n      dup7\n        /* \"#utility.yul\":7914:7920   */\n      dup3\n        /* \"#utility.yul\":7903:7912   */\n      dup8\n        /* \"#utility.yul\":7899:7921   */\n      add\n        /* \"#utility.yul\":7878:7931   */\n      tag_264\n      jump\t// in\n    tag_401:\n        /* \"#utility.yul\":7868:7931   */\n      swap4\n      pop\n        /* \"#utility.yul\":7824:7941   */\n      pop\n        /* \"#utility.yul\":7980:7982   */\n      0x20\n        /* \"#utility.yul\":8006:8056   */\n      tag_402\n        /* \"#utility.yul\":8048:8055   */\n      dup7\n        /* \"#utility.yul\":8039:8045   */\n      dup3\n        /* \"#utility.yul\":8028:8037   */\n      dup8\n        /* \"#utility.yul\":8024:8046   */\n      add\n        /* \"#utility.yul\":8006:8056   */\n      tag_275\n      jump\t// in\n    tag_402:\n        /* \"#utility.yul\":7996:8056   */\n      swap3\n      pop\n        /* \"#utility.yul\":7951:8066   */\n      pop\n        /* \"#utility.yul\":8105:8107   */\n      0x40\n        /* \"#utility.yul\":8131:8184   */\n      tag_403\n        /* \"#utility.yul\":8176:8183   */\n      dup7\n        /* \"#utility.yul\":8167:8173   */\n      dup3\n        /* \"#utility.yul\":8156:8165   */\n      dup8\n        /* \"#utility.yul\":8152:8174   */\n      add\n        /* \"#utility.yul\":8131:8184   */\n      tag_264\n      jump\t// in\n    tag_403:\n        /* \"#utility.yul\":8121:8184   */\n      swap2\n      pop\n        /* \"#utility.yul\":8076:8194   */\n      pop\n        /* \"#utility.yul\":7588:8201   */\n      swap3\n      pop\n      swap3\n      pop\n      swap3\n      jump\t// out\n        /* \"#utility.yul\":8207:8284   */\n    tag_276:\n        /* \"#utility.yul\":8244:8251   */\n      0x00\n        /* \"#utility.yul\":8273:8278   */\n      dup2\n        /* \"#utility.yul\":8262:8278   */\n      swap1\n      pop\n        /* \"#utility.yul\":8207:8284   */\n      swap2\n      swap1\n      pop\n      jump\t// out\n        /* \"#utility.yul\":8290:8412   */\n    tag_277:\n        /* \"#utility.yul\":8363:8387   */\n      tag_406\n        /* \"#utility.yul\":8381:8386   */\n      dup2\n        /* \"#utility.yul\":8363:8387   */\n      tag_276\n      jump\t// in\n    tag_406:\n        /* \"#utility.yul\":8356:8361   */\n      dup2\n        /* \"#utility.yul\":8353:8388   */\n      eq\n        /* \"#utility.yul\":8343:8406   */\n      tag_407\n      jumpi\n        /* \"#utility.yul\":8402:8403   */\n      0x00\n        /* \"#utility.yul\":8399:8400   */\n      dup1\n        /* \"#utility.yul\":8392:8404   */\n      revert\n        /* \"#utility.yul\":8343:8406   */\n    tag_407:\n        /* \"#utility.yul\":8290:8412   */\n      pop\n      jump\t// out\n        /* \"#utility.yul\":8418:8557   */\n    tag_278:\n        /* \"#utility.yul\":8464:8469   */\n      0x00\n        /* \"#utility.yul\":8502:8508   */\n      dup2\n        /* \"#utility.yul\":8489:8509   */\n      calldataload\n        /* \"#utility.yul\":8480:8509   */\n      swap1\n      pop\n        /* \"#utility.yul\":8518:8551   */\n      tag_409\n        /* \"#utility.yul\":8545:8550   */\n      dup2\n        /* \"#utility.yul\":8518:8551   */\n      tag_277\n      jump\t// in\n    tag_409:\n        /* \"#utility.yul\":8418:8557   */\n      swap3\n      swap2\n      pop\n      pop\n      jump\t// out\n        /* \"#utility.yul\":8563:8892   */\n    tag_108:\n        /* \"#utility.yul\":8622:8628   */\n      0x00\n        /* \"#utility.yul\":8671:8673   */\n      0x20\n        /* \"#utility.yul\":8659:8668   */\n      dup3\n        /* \"#utility.yul\":8650:8657   */\n      dup5\n        /* \"#utility.yul\":8646:8669   */\n      sub\n        /* \"#utility.yul\":8642:8674   */\n      slt\n        /* \"#utility.yul\":8639:8758   */\n      iszero\n      tag_411\n      jumpi\n        /* \"#utility.yul\":8677:8756   */\n      tag_412\n      tag_256\n      jump\t// in\n    tag_412:\n        /* \"#utility.yul\":8639:8758   */\n    tag_411:\n        /* \"#utility.yul\":8797:8798   */\n      0x00\n        /* \"#utility.yul\":8822:8875   */\n      tag_413\n        /* \"#utility.yul\":8867:8874   */\n      dup5\n        /* \"#utility.yul\":8858:8864   */\n      dup3\n        /* \"#utility.yul\":8847:8856   */\n      dup6\n        /* \"#utility.yul\":8843:8865   */\n      add\n        /* \"#utility.yul\":8822:8875   */\n      tag_278\n      jump\t// in\n    tag_413:\n        /* \"#utility.yul\":8812:8875   */\n      swap2\n      pop\n        /* \"#utility.yul\":8768:8885   */\n      pop\n        /* \"#utility.yul\":8563:8892   */\n      swap3\n      swap2\n      pop\n      pop\n      jump\t// out\n        /* \"#utility.yul\":8898:9067   */\n    tag_279:\n        /* \"#utility.yul\":8982:8993   */\n      0x00\n        /* \"#utility.yul\":9016:9022   */\n      dup3\n        /* \"#utility.yul\":9011:9014   */\n      dup3\n        /* \"#utility.yul\":9004:9023   */\n      mstore\n        /* \"#utility.yul\":9056:9060   */\n      0x20\n        /* \"#utility.yul\":9051:9054   */\n      dup3\n        /* \"#utility.yul\":9047:9061   */\n      add\n        /* \"#utility.yul\":9032:9061   */\n      swap1\n      pop\n        /* \"#utility.yul\":8898:9067   */\n      swap3\n      swap2\n      pop\n      pop\n      jump\t// out\n        /* \"#utility.yul\":9073:9254   */\n    tag_280:\n        /* \"#utility.yul\":9213:9246   */\n      0x43616c6c6572206973206e6f7420746865206d61696e20636f6e747261637400\n        /* \"#utility.yul\":9209:9210   */\n      0x00\n        /* \"#utility.yul\":9201:9207   */\n      dup3\n        /* \"#utility.yul\":9197:9211   */\n      add\n        /* \"#utility.yul\":9190:9247   */\n      mstore\n        /* \"#utility.yul\":9073:9254   */\n      pop\n      jump\t// out\n        /* \"#utility.yul\":9260:9626   */\n    tag_281:\n        /* \"#utility.yul\":9402:9405   */\n      0x00\n        /* \"#utility.yul\":9423:9490   */\n      tag_417\n        /* \"#utility.yul\":9487:9489   */\n      0x1f\n        /* \"#utility.yul\":9482:9485   */\n      dup4\n        /* \"#utility.yul\":9423:9490   */\n      tag_279\n      jump\t// in\n    tag_417:\n        /* \"#utility.yul\":9416:9490   */\n      swap2\n      pop\n        /* \"#utility.yul\":9499:9592   */\n      tag_418\n        /* \"#utility.yul\":9588:9591   */\n      dup3\n        /* \"#utility.yul\":9499:9592   */\n      tag_280\n      jump\t// in\n    tag_418:\n        /* \"#utility.yul\":9617:9619   */\n      0x20\n        /* \"#utility.yul\":9612:9615   */\n      dup3\n        /* \"#utility.yul\":9608:9620   */\n      add\n        /* \"#utility.yul\":9601:9620   */\n      swap1\n      pop\n        /* \"#utility.yul\":9260:9626   */\n      swap2\n      swap1\n      pop\n      jump\t// out\n        /* \"#utility.yul\":9632:10051   */\n    tag_114:\n        /* \"#utility.yul\":9798:9802   */\n      0x00\n        /* \"#utility.yul\":9836:9838   */\n      0x20\n        /* \"#utility.yul\":9825:9834   */\n      dup3\n        /* \"#utility.yul\":9821:9839   */\n      add\n        /* \"#utility.yul\":9813:9839   */\n      swap1\n      pop\n        /* \"#utility.yul\":9885:9894   */\n      dup2\n        /* \"#utility.yul\":9879:9883   */\n      dup2\n        /* \"#utility.yul\":9875:9895   */\n      sub\n        /* \"#utility.yul\":9871:9872   */\n      0x00\n        /* \"#utility.yul\":9860:9869   */\n      dup4\n        /* \"#utility.yul\":9856:9873   */\n      add\n        /* \"#utility.yul\":9849:9896   */\n      mstore\n        /* \"#utility.yul\":9913:10044   */\n      tag_420\n        /* \"#utility.yul\":10039:10043   */\n      dup2\n        /* \"#utility.yul\":9913:10044   */\n      tag_281\n      jump\t// in\n    tag_420:\n        /* \"#utility.yul\":9905:10044   */\n      swap1\n      pop\n        /* \"#utility.yul\":9632:10051   */\n      swap2\n      swap1\n      pop\n      jump\t// out\n        /* \"#utility.yul\":10057:10349   */\n    tag_282:\n        /* \"#utility.yul\":10197:10231   */\n      0x43616e6e6f74206372656174652061206e6577206469737075746520666f7220\n        /* \"#utility.yul\":10193:10194   */\n      0x00\n        /* \"#utility.yul\":10185:10191   */\n      dup3\n        /* \"#utility.yul\":10181:10195   */\n      add\n        /* \"#utility.yul\":10174:10232   */\n      mstore\n        /* \"#utility.yul\":10266:10300   */\n      0x74686520676976656e2070726f706f73616c20616e6420627579657220726571\n        /* \"#utility.yul\":10261:10263   */\n      0x20\n        /* \"#utility.yul\":10253:10259   */\n      dup3\n        /* \"#utility.yul\":10249:10264   */\n      add\n        /* \"#utility.yul\":10242:10301   */\n      mstore\n        /* \"#utility.yul\":10335:10341   */\n      0x7565737400000000000000000000000000000000000000000000000000000000\n        /* \"#utility.yul\":10330:10332   */\n      0x40\n        /* \"#utility.yul\":10322:10328   */\n      dup3\n        /* \"#utility.yul\":10318:10333   */\n      add\n        /* \"#utility.yul\":10311:10342   */\n      mstore\n        /* \"#utility.yul\":10057:10349   */\n      pop\n      jump\t// out\n        /* \"#utility.yul\":10355:10721   */\n    tag_283:\n        /* \"#utility.yul\":10497:10500   */\n      0x00\n        /* \"#utility.yul\":10518:10585   */\n      tag_423\n        /* \"#utility.yul\":10582:10584   */\n      0x44\n        /* \"#utility.yul\":10577:10580   */\n      dup4\n        /* \"#utility.yul\":10518:10585   */\n      tag_279\n      jump\t// in\n    tag_423:\n        /* \"#utility.yul\":10511:10585   */\n      swap2\n      pop\n        /* \"#utility.yul\":10594:10687   */\n      tag_424\n        /* \"#utility.yul\":10683:10686   */\n      dup3\n        /* \"#utility.yul\":10594:10687   */\n      tag_282\n      jump\t// in\n    tag_424:\n        /* \"#utility.yul\":10712:10714   */\n      0x60\n        /* \"#utility.yul\":10707:10710   */\n      dup3\n        /* \"#utility.yul\":10703:10715   */\n      add\n        /* \"#utility.yul\":10696:10715   */\n      swap1\n      pop\n        /* \"#utility.yul\":10355:10721   */\n      swap2\n      swap1\n      pop\n      jump\t// out\n        /* \"#utility.yul\":10727:11146   */\n    tag_119:\n        /* \"#utility.yul\":10893:10897   */\n      0x00\n        /* \"#utility.yul\":10931:10933   */\n      0x20\n        /* \"#utility.yul\":10920:10929   */\n      dup3\n        /* \"#utility.yul\":10916:10934   */\n      add\n        /* \"#utility.yul\":10908:10934   */\n      swap1\n      pop\n        /* \"#utility.yul\":10980:10989   */\n      dup2\n        /* \"#utility.yul\":10974:10978   */\n      dup2\n        /* \"#utility.yul\":10970:10990   */\n      sub\n        /* \"#utility.yul\":10966:10967   */\n      0x00\n        /* \"#utility.yul\":10955:10964   */\n      dup4\n        /* \"#utility.yul\":10951:10968   */\n      add\n        /* \"#utility.yul\":10944:10991   */\n      mstore\n        /* \"#utility.yul\":11008:11139   */\n      tag_426\n        /* \"#utility.yul\":11134:11138   */\n      dup2\n        /* \"#utility.yul\":11008:11139   */\n      tag_283\n      jump\t// in\n    tag_426:\n        /* \"#utility.yul\":11000:11139   */\n      swap1\n      pop\n        /* \"#utility.yul\":10727:11146   */\n      swap2\n      swap1\n      pop\n      jump\t// out\n        /* \"#utility.yul\":11152:11332   */\n    tag_284:\n        /* \"#utility.yul\":11200:11277   */\n      0x4e487b7100000000000000000000000000000000000000000000000000000000\n        /* \"#utility.yul\":11197:11198   */\n      0x00\n        /* \"#utility.yul\":11190:11278   */\n      mstore\n        /* \"#utility.yul\":11297:11301   */\n      0x11\n        /* \"#utility.yul\":11294:11295   */\n      0x04\n        /* \"#utility.yul\":11287:11302   */\n      mstore\n        /* \"#utility.yul\":11321:11325   */\n      0x24\n        /* \"#utility.yul\":11318:11319   */\n      0x00\n        /* \"#utility.yul\":11311:11326   */\n      revert\n        /* \"#utility.yul\":11338:11571   */\n    tag_121:\n        /* \"#utility.yul\":11377:11380   */\n      0x00\n        /* \"#utility.yul\":11400:11424   */\n      tag_429\n        /* \"#utility.yul\":11418:11423   */\n      dup3\n        /* \"#utility.yul\":11400:11424   */\n      tag_262\n      jump\t// in\n    tag_429:\n        /* \"#utility.yul\":11391:11424   */\n      swap2\n      pop\n        /* \"#utility.yul\":11446:11512   */\n      0xffffffffffffffffffffffffffffffffffffffffffffffffffffffffffffffff\n        /* \"#utility.yul\":11439:11444   */\n      dup3\n        /* \"#utility.yul\":11436:11513   */\n      sub\n        /* \"#utility.yul\":11433:11536   */\n      tag_430\n      jumpi\n        /* \"#utility.yul\":11516:11534   */\n      tag_431\n      tag_284\n      jump\t// in\n    tag_431:\n        /* \"#utility.yul\":11433:11536   */\n    tag_430:\n        /* \"#utility.yul\":11563:11564   */\n      0x01\n        /* \"#utility.yul\":11556:11561   */\n      dup3\n        /* \"#utility.yul\":11552:11565   */\n      add\n        /* \"#utility.yul\":11545:11565   */\n      swap1\n      pop\n        /* \"#utility.yul\":11338:11571   */\n      swap2\n      swap1\n      pop\n      jump\t// out\n        /* \"#utility.yul\":11577:11768   */\n    tag_123:\n        /* \"#utility.yul\":11617:11620   */\n      0x00\n        /* \"#utility.yul\":11636:11656   */\n      tag_433\n        /* \"#utility.yul\":11654:11655   */\n      dup3\n        /* \"#utility.yul\":11636:11656   */\n      tag_262\n      jump\t// in\n    tag_433:\n        /* \"#utility.yul\":11631:11656   */\n      swap2\n      pop\n        /* \"#utility.yul\":11670:11690   */\n      tag_434\n        /* \"#utility.yul\":11688:11689   */\n      dup4\n        /* \"#utility.yul\":11670:11690   */\n      tag_262\n      jump\t// in\n    tag_434:\n        /* \"#utility.yul\":11665:11690   */\n      swap3\n      pop\n        /* \"#utility.yul\":11713:11714   */\n      dup3\n        /* \"#utility.yul\":11710:11711   */\n      dup3\n        /* \"#utility.yul\":11706:11715   */\n      add\n        /* \"#utility.yul\":11699:11715   */\n      swap1\n      pop\n        /* \"#utility.yul\":11734:11737   */\n      dup1\n        /* \"#utility.yul\":11731:11732   */\n      dup3\n        /* \"#utility.yul\":11728:11738   */\n      gt\n        /* \"#utility.yul\":11725:11761   */\n      iszero\n      tag_435\n      jumpi\n        /* \"#utility.yul\":11741:11759   */\n      tag_436\n      tag_284\n      jump\t// in\n    tag_436:\n        /* \"#utility.yul\":11725:11761   */\n    tag_435:\n        /* \"#utility.yul\":11577:11768   */\n      swap3\n      swap2\n      pop\n      pop\n      jump\t// out\n        /* \"#utility.yul\":11774:12106   */\n    tag_128:\n        /* \"#utility.yul\":11895:11899   */\n      0x00\n        /* \"#utility.yul\":11933:11935   */\n      0x40\n        /* \"#utility.yul\":11922:11931   */\n      dup3\n        /* \"#utility.yul\":11918:11936   */\n      add\n        /* \"#utility.yul\":11910:11936   */\n      swap1\n      pop\n        /* \"#utility.yul\":11946:12017   */\n      tag_438\n        /* \"#utility.yul\":12014:12015   */\n      0x00\n        /* \"#utility.yul\":12003:12012   */\n      dup4\n        /* \"#utility.yul\":11999:12016   */\n      add\n        /* \"#utility.yul\":11990:11996   */\n      dup6\n        /* \"#utility.yul\":11946:12017   */\n      tag_273\n      jump\t// in\n    tag_438:\n        /* \"#utility.yul\":12027:12099   */\n      tag_439\n        /* \"#utility.yul\":12095:12097   */\n      0x20\n        /* \"#utility.yul\":12084:12093   */\n      dup4\n        /* \"#utility.yul\":12080:12098   */\n      add\n        /* \"#utility.yul\":12071:12077   */\n      dup5\n        /* \"#utility.yul\":12027:12099   */\n      tag_273\n      jump\t// in\n    tag_439:\n        /* \"#utility.yul\":11774:12106   */\n      swap4\n      swap3\n      pop\n      pop\n      pop\n      jump\t// out\n        /* \"#utility.yul\":12112:12306   */\n    tag_133:\n        /* \"#utility.yul\":12152:12156   */\n      0x00\n        /* \"#utility.yul\":12172:12192   */\n      tag_441\n        /* \"#utility.yul\":12190:12191   */\n      dup3\n        /* \"#utility.yul\":12172:12192   */\n      tag_262\n      jump\t// in\n    tag_441:\n        /* \"#utility.yul\":12167:12192   */\n      swap2\n      pop\n        /* \"#utility.yul\":12206:12226   */\n      tag_442\n        /* \"#utility.yul\":12224:12225   */\n      dup4\n        /* \"#utility.yul\":12206:12226   */\n      tag_262\n      jump\t// in\n    tag_442:\n        /* \"#utility.yul\":12201:12226   */\n      swap3\n      pop\n        /* \"#utility.yul\":12250:12251   */\n      dup3\n        /* \"#utility.yul\":12247:12248   */\n      dup3\n        /* \"#utility.yul\":12243:12252   */\n      sub\n        /* \"#utility.yul\":12235:12252   */\n      swap1\n      pop\n        /* \"#utility.yul\":12274:12275   */\n      dup2\n        /* \"#utility.yul\":12268:12272   */\n      dup2\n        /* \"#utility.yul\":12265:12276   */\n      gt\n        /* \"#utility.yul\":12262:12299   */\n      iszero\n      tag_443\n      jumpi\n        /* \"#utility.yul\":12279:12297   */\n      tag_444\n      tag_284\n      jump\t// in\n    tag_444:\n        /* \"#utility.yul\":12262:12299   */\n    tag_443:\n        /* \"#utility.yul\":12112:12306   */\n      swap3\n      swap2\n      pop\n      pop\n      jump\t// out\n        /* \"#utility.yul\":12312:12480   */\n    tag_285:\n        /* \"#utility.yul\":12452:12472   */\n      0x496e76616c696420646973707574652049440000000000000000000000000000\n        /* \"#utility.yul\":12448:12449   */\n      0x00\n        /* \"#utility.yul\":12440:12446   */\n      dup3\n        /* \"#utility.yul\":12436:12450   */\n      add\n        /* \"#utility.yul\":12429:12473   */\n      mstore\n        /* \"#utility.yul\":12312:12480   */\n      pop\n      jump\t// out\n        /* \"#utility.yul\":12486:12852   */\n    tag_286:\n        /* \"#utility.yul\":12628:12631   */\n      0x00\n        /* \"#utility.yul\":12649:12716   */\n      tag_447\n        /* \"#utility.yul\":12713:12715   */\n      0x12\n        /* \"#utility.yul\":12708:12711   */\n      dup4\n        /* \"#utility.yul\":12649:12716   */\n      tag_279\n      jump\t// in\n    tag_447:\n        /* \"#utility.yul\":12642:12716   */\n      swap2\n      pop\n        /* \"#utility.yul\":12725:12818   */\n      tag_448\n        /* \"#utility.yul\":12814:12817   */\n      dup3\n        /* \"#utility.yul\":12725:12818   */\n      tag_285\n      jump\t// in\n    tag_448:\n        /* \"#utility.yul\":12843:12845   */\n      0x20\n        /* \"#utility.yul\":12838:12841   */\n      dup3\n        /* \"#utility.yul\":12834:12846   */\n      add\n        /* \"#utility.yul\":12827:12846   */\n      swap1\n      pop\n        /* \"#utility.yul\":12486:12852   */\n      swap2\n      swap1\n      pop\n      jump\t// out\n        /* \"#utility.yul\":12858:13277   */\n    tag_142:\n        /* \"#utility.yul\":13024:13028   */\n      0x00\n        /* \"#utility.yul\":13062:13064   */\n      0x20\n        /* \"#utility.yul\":13051:13060   */\n      dup3\n        /* \"#utility.yul\":13047:13065   */\n      add\n        /* \"#utility.yul\":13039:13065   */\n      swap1\n      pop\n        /* \"#utility.yul\":13111:13120   */\n      dup2\n        /* \"#utility.yul\":13105:13109   */\n      dup2\n        /* \"#utility.yul\":13101:13121   */\n      sub\n        /* \"#utility.yul\":13097:13098   */\n      0x00\n        /* \"#utility.yul\":13086:13095   */\n      dup4\n        /* \"#utility.yul\":13082:13099   */\n      add\n        /* \"#utility.yul\":13075:13122   */\n      mstore\n        /* \"#utility.yul\":13139:13270   */\n      tag_450\n        /* \"#utility.yul\":13265:13269   */\n      dup2\n        /* \"#utility.yul\":13139:13270   */\n      tag_286\n      jump\t// in\n    tag_450:\n        /* \"#utility.yul\":13131:13270   */\n      swap1\n      pop\n        /* \"#utility.yul\":12858:13277   */\n      swap2\n      swap1\n      pop\n      jump\t// out\n        /* \"#utility.yul\":13283:13503   */\n    tag_287:\n        /* \"#utility.yul\":13423:13457   */\n      0x4469737075746520686173206e6f74206265656e207265736f6c766564207965\n        /* \"#utility.yul\":13419:13420   */\n      0x00\n        /* \"#utility.yul\":13411:13417   */\n      dup3\n        /* \"#utility.yul\":13407:13421   */\n      add\n        /* \"#utility.yul\":13400:13458   */\n      mstore\n        /* \"#utility.yul\":13492:13495   */\n      0x7400000000000000000000000000000000000000000000000000000000000000\n        /* \"#utility.yul\":13487:13489   */\n      0x20\n        /* \"#utility.yul\":13479:13485   */\n      dup3\n        /* \"#utility.yul\":13475:13490   */\n      add\n        /* \"#utility.yul\":13468:13496   */\n      mstore\n        /* \"#utility.yul\":13283:13503   */\n      pop\n      jump\t// out\n        /* \"#utility.yul\":13509:13875   */\n    tag_288:\n        /* \"#utility.yul\":13651:13654   */\n      0x00\n        /* \"#utility.yul\":13672:13739   */\n      tag_453\n        /* \"#utility.yul\":13736:13738   */\n      0x21\n        /* \"#utility.yul\":13731:13734   */\n      dup4\n        /* \"#utility.yul\":13672:13739   */\n      tag_279\n      jump\t// in\n    tag_453:\n        /* \"#utility.yul\":13665:13739   */\n      swap2\n      pop\n        /* \"#utility.yul\":13748:13841   */\n      tag_454\n        /* \"#utility.yul\":13837:13840   */\n      dup3\n        /* \"#utility.yul\":13748:13841   */\n      tag_287\n      jump\t// in\n    tag_454:\n        /* \"#utility.yul\":13866:13868   */\n      0x40\n        /* \"#utility.yul\":13861:13864   */\n      dup3\n        /* \"#utility.yul\":13857:13869   */\n      add\n        /* \"#utility.yul\":13850:13869   */\n      swap1\n      pop\n        /* \"#utility.yul\":13509:13875   */\n      swap2\n      swap1\n      pop\n      jump\t// out\n        /* \"#utility.yul\":13881:14300   */\n    tag_145:\n        /* \"#utility.yul\":14047:14051   */\n      0x00\n        /* \"#utility.yul\":14085:14087   */\n      0x20\n        /* \"#utility.yul\":14074:14083   */\n      dup3\n        /* \"#utility.yul\":14070:14088   */\n      add\n        /* \"#utility.yul\":14062:14088   */\n      swap1\n      pop\n        /* \"#utility.yul\":14134:14143   */\n      dup2\n        /* \"#utility.yul\":14128:14132   */\n      dup2\n        /* \"#utility.yul\":14124:14144   */\n      sub\n        /* \"#utility.yul\":14120:14121   */\n      0x00\n        /* \"#utility.yul\":14109:14118   */\n      dup4\n        /* \"#utility.yul\":14105:14122   */\n      add\n        /* \"#utility.yul\":14098:14145   */\n      mstore\n        /* \"#utility.yul\":14162:14293   */\n      tag_456\n        /* \"#utility.yul\":14288:14292   */\n      dup2\n        /* \"#utility.yul\":14162:14293   */\n      tag_288\n      jump\t// in\n    tag_456:\n        /* \"#utility.yul\":14154:14293   */\n      swap1\n      pop\n        /* \"#utility.yul\":13881:14300   */\n      swap2\n      swap1\n      pop\n      jump\t// out\n        /* \"#utility.yul\":14306:14474   */\n    tag_289:\n        /* \"#utility.yul\":14446:14466   */\n      0x4e6f20746f6b656e7320746f20636c61696d0000000000000000000000000000\n        /* \"#utility.yul\":14442:14443   */\n      0x00\n        /* \"#utility.yul\":14434:14440   */\n      dup3\n        /* \"#utility.yul\":14430:14444   */\n      add\n        /* \"#utility.yul\":14423:14467   */\n      mstore\n        /* \"#utility.yul\":14306:14474   */\n      pop\n      jump\t// out\n        /* \"#utility.yul\":14480:14846   */\n    tag_290:\n        /* \"#utility.yul\":14622:14625   */\n      0x00\n        /* \"#utility.yul\":14643:14710   */\n      tag_459\n        /* \"#utility.yul\":14707:14709   */\n      0x12\n        /* \"#utility.yul\":14702:14705   */\n      dup4\n        /* \"#utility.yul\":14643:14710   */\n      tag_279\n      jump\t// in\n    tag_459:\n        /* \"#utility.yul\":14636:14710   */\n      swap2\n      pop\n        /* \"#utility.yul\":14719:14812   */\n      tag_460\n        /* \"#utility.yul\":14808:14811   */\n      dup3\n        /* \"#utility.yul\":14719:14812   */\n      tag_289\n      jump\t// in\n    tag_460:\n        /* \"#utility.yul\":14837:14839   */\n      0x20\n        /* \"#utility.yul\":14832:14835   */\n      dup3\n        /* \"#utility.yul\":14828:14840   */\n      add\n        /* \"#utility.yul\":14821:14840   */\n      swap1\n      pop\n        /* \"#utility.yul\":14480:14846   */\n      swap2\n      swap1\n      pop\n      jump\t// out\n        /* \"#utility.yul\":14852:15271   */\n    tag_148:\n        /* \"#utility.yul\":15018:15022   */\n      0x00\n        /* \"#utility.yul\":15056:15058   */\n      0x20\n        /* \"#utility.yul\":15045:15054   */\n      dup3\n        /* \"#utility.yul\":15041:15059   */\n      add\n        /* \"#utility.yul\":15033:15059   */\n      swap1\n      pop\n        /* \"#utility.yul\":15105:15114   */\n      dup2\n        /* \"#utility.yul\":15099:15103   */\n      dup2\n        /* \"#utility.yul\":15095:15115   */\n      sub\n        /* \"#utility.yul\":15091:15092   */\n      0x00\n        /* \"#utility.yul\":15080:15089   */\n      dup4\n        /* \"#utility.yul\":15076:15093   */\n      add\n        /* \"#utility.yul\":15069:15116   */\n      mstore\n        /* \"#utility.yul\":15133:15264   */\n      tag_462\n        /* \"#utility.yul\":15259:15263   */\n      dup2\n        /* \"#utility.yul\":15133:15264   */\n      tag_290\n      jump\t// in\n    tag_462:\n        /* \"#utility.yul\":15125:15264   */\n      swap1\n      pop\n        /* \"#utility.yul\":14852:15271   */\n      swap2\n      swap1\n      pop\n      jump\t// out\n        /* \"#utility.yul\":15277:15687   */\n    tag_156:\n        /* \"#utility.yul\":15317:15324   */\n      0x00\n        /* \"#utility.yul\":15340:15360   */\n      tag_464\n        /* \"#utility.yul\":15358:15359   */\n      dup3\n        /* \"#utility.yul\":15340:15360   */\n      tag_262\n      jump\t// in\n    tag_464:\n        /* \"#utility.yul\":15335:15360   */\n      swap2\n      pop\n        /* \"#utility.yul\":15374:15394   */\n      tag_465\n        /* \"#utility.yul\":15392:15393   */\n      dup4\n        /* \"#utility.yul\":15374:15394   */\n      tag_262\n      jump\t// in\n    tag_465:\n        /* \"#utility.yul\":15369:15394   */\n      swap3\n      pop\n        /* \"#utility.yul\":15429:15430   */\n      dup3\n        /* \"#utility.yul\":15426:15427   */\n      dup3\n        /* \"#utility.yul\":15422:15431   */\n      mul\n        /* \"#utility.yul\":15451:15481   */\n      tag_466\n        /* \"#utility.yul\":15469:15480   */\n      dup2\n        /* \"#utility.yul\":15451:15481   */\n      tag_262\n      jump\t// in\n    tag_466:\n        /* \"#utility.yul\":15440:15481   */\n      swap2\n      pop\n        /* \"#utility.yul\":15630:15631   */\n      dup3\n        /* \"#utility.yul\":15621:15628   */\n      dup3\n        /* \"#utility.yul\":15617:15632   */\n      div\n        /* \"#utility.yul\":15614:15615   */\n      dup5\n        /* \"#utility.yul\":15611:15633   */\n      eq\n        /* \"#utility.yul\":15591:15592   */\n      dup4\n        /* \"#utility.yul\":15584:15593   */\n      iszero\n        /* \"#utility.yul\":15564:15647   */\n      or\n        /* \"#utility.yul\":15541:15680   */\n      tag_467\n      jumpi\n        /* \"#utility.yul\":15660:15678   */\n      tag_468\n      tag_284\n      jump\t// in\n    tag_468:\n        /* \"#utility.yul\":15541:15680   */\n    tag_467:\n        /* \"#utility.yul\":15325:15687   */\n      pop\n        /* \"#utility.yul\":15277:15687   */\n      swap3\n      swap2\n      pop\n      pop\n      jump\t// out\n        /* \"#utility.yul\":15693:15873   */\n    tag_291:\n        /* \"#utility.yul\":15741:15818   */\n      0x4e487b7100000000000000000000000000000000000000000000000000000000\n        /* \"#utility.yul\":15738:15739   */\n      0x00\n        /* \"#utility.yul\":15731:15819   */\n      mstore\n        /* \"#utility.yul\":15838:15842   */\n      0x12\n        /* \"#utility.yul\":15835:15836   */\n      0x04\n        /* \"#utility.yul\":15828:15843   */\n      mstore\n        /* \"#utility.yul\":15862:15866   */\n      0x24\n        /* \"#utility.yul\":15859:15860   */\n      0x00\n        /* \"#utility.yul\":15852:15867   */\n      revert\n        /* \"#utility.yul\":15879:16064   */\n    tag_158:\n        /* \"#utility.yul\":15919:15920   */\n      0x00\n        /* \"#utility.yul\":15936:15956   */\n      tag_471\n        /* \"#utility.yul\":15954:15955   */\n      dup3\n        /* \"#utility.yul\":15936:15956   */\n      tag_262\n      jump\t// in\n    tag_471:\n        /* \"#utility.yul\":15931:15956   */\n      swap2\n      pop\n        /* \"#utility.yul\":15970:15990   */\n      tag_472\n        /* \"#utility.yul\":15988:15989   */\n      dup4\n        /* \"#utility.yul\":15970:15990   */\n      tag_262\n      jump\t// in\n    tag_472:\n        /* \"#utility.yul\":15965:15990   */\n      swap3\n      pop\n        /* \"#utility.yul\":16009:16010   */\n      dup3\n        /* \"#utility.yul\":15999:16034   */\n      tag_473\n      jumpi\n        /* \"#utility.yul\":16014:16032   */\n      tag_474\n      tag_291\n      jump\t// in\n    tag_474:\n        /* \"#utility.yul\":15999:16034   */\n    tag_473:\n        /* \"#utility.yul\":16056:16057   */\n      dup3\n        /* \"#utility.yul\":16053:16054   */\n      dup3\n        /* \"#utility.yul\":16049:16058   */\n      div\n        /* \"#utility.yul\":16044:16058   */\n      swap1\n      pop\n        /* \"#utility.yul\":15879:16064   */\n      swap3\n      swap2\n      pop\n      pop\n      jump\t// out\n        /* \"#utility.yul\":16070:16402   */\n    tag_166:\n        /* \"#utility.yul\":16191:16195   */\n      0x00\n        /* \"#utility.yul\":16229:16231   */\n      0x40\n        /* \"#utility.yul\":16218:16227   */\n      dup3\n        /* \"#utility.yul\":16214:16232   */\n      add\n        /* \"#utility.yul\":16206:16232   */\n      swap1\n      pop\n        /* \"#utility.yul\":16242:16313   */\n      tag_476\n        /* \"#utility.yul\":16310:16311   */\n      0x00\n        /* \"#utility.yul\":16299:16308   */\n      dup4\n        /* \"#utility.yul\":16295:16312   */\n      add\n        /* \"#utility.yul\":16286:16292   */\n      dup6\n        /* \"#utility.yul\":16242:16313   */\n      tag_273\n      jump\t// in\n    tag_476:\n        /* \"#utility.yul\":16323:16395   */\n      tag_477\n        /* \"#utility.yul\":16391:16393   */\n      0x20\n        /* \"#utility.yul\":16380:16389   */\n      dup4\n        /* \"#utility.yul\":16376:16394   */\n      add\n        /* \"#utility.yul\":16367:16373   */\n      dup5\n        /* \"#utility.yul\":16323:16395   */\n      tag_265\n      jump\t// in\n    tag_477:\n        /* \"#utility.yul\":16070:16402   */\n      swap4\n      swap3\n      pop\n      pop\n      pop\n      jump\t// out\n        /* \"#utility.yul\":16408:16545   */\n    tag_292:\n        /* \"#utility.yul\":16462:16467   */\n      0x00\n        /* \"#utility.yul\":16493:16499   */\n      dup2\n        /* \"#utility.yul\":16487:16500   */\n      mload\n        /* \"#utility.yul\":16478:16500   */\n      swap1\n      pop\n        /* \"#utility.yul\":16509:16539   */\n      tag_479\n        /* \"#utility.yul\":16533:16538   */\n      dup2\n        /* \"#utility.yul\":16509:16539   */\n      tag_274\n      jump\t// in\n    tag_479:\n        /* \"#utility.yul\":16408:16545   */\n      swap3\n      swap2\n      pop\n      pop\n      jump\t// out\n        /* \"#utility.yul\":16551:16896   */\n    tag_170:\n        /* \"#utility.yul\":16618:16624   */\n      0x00\n        /* \"#utility.yul\":16667:16669   */\n      0x20\n        /* \"#utility.yul\":16655:16664   */\n      dup3\n        /* \"#utility.yul\":16646:16653   */\n      dup5\n        /* \"#utility.yul\":16642:16665   */\n      sub\n        /* \"#utility.yul\":16638:16670   */\n      slt\n        /* \"#utility.yul\":16635:16754   */\n      iszero\n      tag_481\n      jumpi\n        /* \"#utility.yul\":16673:16752   */\n      tag_482\n      tag_256\n      jump\t// in\n    tag_482:\n        /* \"#utility.yul\":16635:16754   */\n    tag_481:\n        /* \"#utility.yul\":16793:16794   */\n      0x00\n        /* \"#utility.yul\":16818:16879   */\n      tag_483\n        /* \"#utility.yul\":16871:16878   */\n      dup5\n        /* \"#utility.yul\":16862:16868   */\n      dup3\n        /* \"#utility.yul\":16851:16860   */\n      dup6\n        /* \"#utility.yul\":16847:16869   */\n      add\n        /* \"#utility.yul\":16818:16879   */\n      tag_292\n      jump\t// in\n    tag_483:\n        /* \"#utility.yul\":16808:16879   */\n      swap2\n      pop\n        /* \"#utility.yul\":16764:16889   */\n      pop\n        /* \"#utility.yul\":16551:16896   */\n      swap3\n      swap2\n      pop\n      pop\n      jump\t// out\n        /* \"#utility.yul\":16902:17069   */\n    tag_293:\n        /* \"#utility.yul\":17042:17061   */\n      0x496e76616c6964207468726573686f6c64000000000000000000000000000000\n        /* \"#utility.yul\":17038:17039   */\n      0x00\n        /* \"#utility.yul\":17030:17036   */\n      dup3\n        /* \"#utility.yul\":17026:17040   */\n      add\n        /* \"#utility.yul\":17019:17062   */\n      mstore\n        /* \"#utility.yul\":16902:17069   */\n      pop\n      jump\t// out\n        /* \"#utility.yul\":17075:17441   */\n    tag_294:\n        /* \"#utility.yul\":17217:17220   */\n      0x00\n        /* \"#utility.yul\":17238:17305   */\n      tag_486\n        /* \"#utility.yul\":17302:17304   */\n      0x11\n        /* \"#utility.yul\":17297:17300   */\n      dup4\n        /* \"#utility.yul\":17238:17305   */\n      tag_279\n      jump\t// in\n    tag_486:\n        /* \"#utility.yul\":17231:17305   */\n      swap2\n      pop\n        /* \"#utility.yul\":17314:17407   */\n      tag_487\n        /* \"#utility.yul\":17403:17406   */\n      dup3\n        /* \"#utility.yul\":17314:17407   */\n      tag_293\n      jump\t// in\n    tag_487:\n        /* \"#utility.yul\":17432:17434   */\n      0x20\n        /* \"#utility.yul\":17427:17430   */\n      dup3\n        /* \"#utility.yul\":17423:17435   */\n      add\n        /* \"#utility.yul\":17416:17435   */\n      swap1\n      pop\n        /* \"#utility.yul\":17075:17441   */\n      swap2\n      swap1\n      pop\n      jump\t// out\n        /* \"#utility.yul\":17447:17866   */\n    tag_186:\n        /* \"#utility.yul\":17613:17617   */\n      0x00\n        /* \"#utility.yul\":17651:17653   */\n      0x20\n        /* \"#utility.yul\":17640:17649   */\n      dup3\n        /* \"#utility.yul\":17636:17654   */\n      add\n        /* \"#utility.yul\":17628:17654   */\n      swap1\n      pop\n        /* \"#utility.yul\":17700:17709   */\n      dup2\n        /* \"#utility.yul\":17694:17698   */\n      dup2\n        /* \"#utility.yul\":17690:17710   */\n      sub\n        /* \"#utility.yul\":17686:17687   */\n      0x00\n        /* \"#utility.yul\":17675:17684   */\n      dup4\n        /* \"#utility.yul\":17671:17688   */\n      add\n        /* \"#utility.yul\":17664:17711   */\n      mstore\n        /* \"#utility.yul\":17728:17859   */\n      tag_489\n        /* \"#utility.yul\":17854:17858   */\n      dup2\n        /* \"#utility.yul\":17728:17859   */\n      tag_294\n      jump\t// in\n    tag_489:\n        /* \"#utility.yul\":17720:17859   */\n      swap1\n      pop\n        /* \"#utility.yul\":17447:17866   */\n      swap2\n      swap1\n      pop\n      jump\t// out\n        /* \"#utility.yul\":17872:18092   */\n    tag_295:\n        /* \"#utility.yul\":18012:18046   */\n      0x446973707574652068617320616c7265616479206265656e207265736f6c7665\n        /* \"#utility.yul\":18008:18009   */\n      0x00\n        /* \"#utility.yul\":18000:18006   */\n      dup3\n        /* \"#utility.yul\":17996:18010   */\n      add\n        /* \"#utility.yul\":17989:18047   */\n      mstore\n        /* \"#utility.yul\":18081:18084   */\n      0x6400000000000000000000000000000000000000000000000000000000000000\n        /* \"#utility.yul\":18076:18078   */\n      0x20\n        /* \"#utility.yul\":18068:18074   */\n      dup3\n        /* \"#utility.yul\":18064:18079   */\n      add\n        /* \"#utility.yul\":18057:18085   */\n      mstore\n        /* \"#utility.yul\":17872:18092   */\n      pop\n      jump\t// out\n        /* \"#utility.yul\":18098:18464   */\n    tag_296:\n        /* \"#utility.yul\":18240:18243   */\n      0x00\n        /* \"#utility.yul\":18261:18328   */\n      tag_492\n        /* \"#utility.yul\":18325:18327   */\n      0x21\n        /* \"#utility.yul\":18320:18323   */\n      dup4\n        /* \"#utility.yul\":18261:18328   */\n      tag_279\n      jump\t// in\n    tag_492:\n        /* \"#utility.yul\":18254:18328   */\n      swap2\n      pop\n        /* \"#utility.yul\":18337:18430   */\n      tag_493\n        /* \"#utility.yul\":18426:18429   */\n      dup3\n        /* \"#utility.yul\":18337:18430   */\n      tag_295\n      jump\t// in\n    tag_493:\n        /* \"#utility.yul\":18455:18457   */\n      0x40\n        /* \"#utility.yul\":18450:18453   */\n      dup3\n        /* \"#utility.yul\":18446:18458   */\n      add\n        /* \"#utility.yul\":18439:18458   */\n      swap1\n      pop\n        /* \"#utility.yul\":18098:18464   */\n      swap2\n      swap1\n      pop\n      jump\t// out\n        /* \"#utility.yul\":18470:18889   */\n    tag_190:\n        /* \"#utility.yul\":18636:18640   */\n      0x00\n        /* \"#utility.yul\":18674:18676   */\n      0x20\n        /* \"#utility.yul\":18663:18672   */\n      dup3\n        /* \"#utility.yul\":18659:18677   */\n      add\n        /* \"#utility.yul\":18651:18677   */\n      swap1\n      pop\n        /* \"#utility.yul\":18723:18732   */\n      dup2\n        /* \"#utility.yul\":18717:18721   */\n      dup2\n        /* \"#utility.yul\":18713:18733   */\n      sub\n        /* \"#utility.yul\":18709:18710   */\n      0x00\n        /* \"#utility.yul\":18698:18707   */\n      dup4\n        /* \"#utility.yul\":18694:18711   */\n      add\n        /* \"#utility.yul\":18687:18734   */\n      mstore\n        /* \"#utility.yul\":18751:18882   */\n      tag_495\n        /* \"#utility.yul\":18877:18881   */\n      dup2\n        /* \"#utility.yul\":18751:18882   */\n      tag_296\n      jump\t// in\n    tag_495:\n        /* \"#utility.yul\":18743:18882   */\n      swap1\n      pop\n        /* \"#utility.yul\":18470:18889   */\n      swap2\n      swap1\n      pop\n      jump\t// out\n        /* \"#utility.yul\":18895:19116   */\n    tag_297:\n        /* \"#utility.yul\":19035:19069   */\n      0x54686520766f74696e6720706572696f64206973206e6f74206f766572207965\n        /* \"#utility.yul\":19031:19032   */\n      0x00\n        /* \"#utility.yul\":19023:19029   */\n      dup3\n        /* \"#utility.yul\":19019:19033   */\n      add\n        /* \"#utility.yul\":19012:19070   */\n      mstore\n        /* \"#utility.yul\":19104:19108   */\n      0x7421000000000000000000000000000000000000000000000000000000000000\n        /* \"#utility.yul\":19099:19101   */\n      0x20\n        /* \"#utility.yul\":19091:19097   */\n      dup3\n        /* \"#utility.yul\":19087:19102   */\n      add\n        /* \"#utility.yul\":19080:19109   */\n      mstore\n        /* \"#utility.yul\":18895:19116   */\n      pop\n      jump\t// out\n        /* \"#utility.yul\":19122:19488   */\n    tag_298:\n        /* \"#utility.yul\":19264:19267   */\n      0x00\n        /* \"#utility.yul\":19285:19352   */\n      tag_498\n        /* \"#utility.yul\":19349:19351   */\n      0x22\n        /* \"#utility.yul\":19344:19347   */\n      dup4\n        /* \"#utility.yul\":19285:19352   */\n      tag_279\n      jump\t// in\n    tag_498:\n        /* \"#utility.yul\":19278:19352   */\n      swap2\n      pop\n        /* \"#utility.yul\":19361:19454   */\n      tag_499\n        /* \"#utility.yul\":19450:19453   */\n      dup3\n        /* \"#utility.yul\":19361:19454   */\n      tag_297\n      jump\t// in\n    tag_499:\n        /* \"#utility.yul\":19479:19481   */\n      0x40\n        /* \"#utility.yul\":19474:19477   */\n      dup3\n        /* \"#utility.yul\":19470:19482   */\n      add\n        /* \"#utility.yul\":19463:19482   */\n      swap1\n      pop\n        /* \"#utility.yul\":19122:19488   */\n      swap2\n      swap1\n      pop\n      jump\t// out\n        /* \"#utility.yul\":19494:19913   */\n    tag_193:\n        /* \"#utility.yul\":19660:19664   */\n      0x00\n        /* \"#utility.yul\":19698:19700   */\n      0x20\n        /* \"#utility.yul\":19687:19696   */\n      dup3\n        /* \"#utility.yul\":19683:19701   */\n      add\n        /* \"#utility.yul\":19675:19701   */\n      swap1\n      pop\n        /* \"#utility.yul\":19747:19756   */\n      dup2\n        /* \"#utility.yul\":19741:19745   */\n      dup2\n        /* \"#utility.yul\":19737:19757   */\n      sub\n        /* \"#utility.yul\":19733:19734   */\n      0x00\n        /* \"#utility.yul\":19722:19731   */\n      dup4\n        /* \"#utility.yul\":19718:19735   */\n      add\n        /* \"#utility.yul\":19711:19758   */\n      mstore\n        /* \"#utility.yul\":19775:19906   */\n      tag_501\n        /* \"#utility.yul\":19901:19905   */\n      dup2\n        /* \"#utility.yul\":19775:19906   */\n      tag_298\n      jump\t// in\n    tag_501:\n        /* \"#utility.yul\":19767:19906   */\n      swap1\n      pop\n        /* \"#utility.yul\":19494:19913   */\n      swap2\n      swap1\n      pop\n      jump\t// out\n        /* \"#utility.yul\":19919:20023   */\n    tag_299:\n        /* \"#utility.yul\":19964:19971   */\n      0x00\n        /* \"#utility.yul\":19993:20017   */\n      tag_503\n        /* \"#utility.yul\":20011:20016   */\n      dup3\n        /* \"#utility.yul\":19993:20017   */\n      tag_258\n      jump\t// in\n    tag_503:\n        /* \"#utility.yul\":19982:20017   */\n      swap1\n      pop\n        /* \"#utility.yul\":19919:20023   */\n      swap2\n      swap1\n      pop\n      jump\t// out\n        /* \"#utility.yul\":20029:20171   */\n    tag_300:\n        /* \"#utility.yul\":20132:20164   */\n      tag_505\n        /* \"#utility.yul\":20158:20163   */\n      dup2\n        /* \"#utility.yul\":20132:20164   */\n      tag_299\n      jump\t// in\n    tag_505:\n        /* \"#utility.yul\":20127:20130   */\n      dup3\n        /* \"#utility.yul\":20120:20165   */\n      mstore\n        /* \"#utility.yul\":20029:20171   */\n      pop\n      pop\n      jump\t// out\n        /* \"#utility.yul\":20177:20762   */\n    tag_204:\n        /* \"#utility.yul\":20370:20374   */\n      0x00\n        /* \"#utility.yul\":20408:20411   */\n      0x80\n        /* \"#utility.yul\":20397:20406   */\n      dup3\n        /* \"#utility.yul\":20393:20412   */\n      add\n        /* \"#utility.yul\":20385:20412   */\n      swap1\n      pop\n        /* \"#utility.yul\":20422:20493   */\n      tag_507\n        /* \"#utility.yul\":20490:20491   */\n      0x00\n        /* \"#utility.yul\":20479:20488   */\n      dup4\n        /* \"#utility.yul\":20475:20492   */\n      add\n        /* \"#utility.yul\":20466:20472   */\n      dup8\n        /* \"#utility.yul\":20422:20493   */\n      tag_265\n      jump\t// in\n    tag_507:\n        /* \"#utility.yul\":20503:20575   */\n      tag_508\n        /* \"#utility.yul\":20571:20573   */\n      0x20\n        /* \"#utility.yul\":20560:20569   */\n      dup4\n        /* \"#utility.yul\":20556:20574   */\n      add\n        /* \"#utility.yul\":20547:20553   */\n      dup7\n        /* \"#utility.yul\":20503:20575   */\n      tag_265\n      jump\t// in\n    tag_508:\n        /* \"#utility.yul\":20585:20673   */\n      tag_509\n        /* \"#utility.yul\":20669:20671   */\n      0x40\n        /* \"#utility.yul\":20658:20667   */\n      dup4\n        /* \"#utility.yul\":20654:20672   */\n      add\n        /* \"#utility.yul\":20645:20651   */\n      dup6\n        /* \"#utility.yul\":20585:20673   */\n      tag_300\n      jump\t// in\n    tag_509:\n        /* \"#utility.yul\":20683:20755   */\n      tag_510\n        /* \"#utility.yul\":20751:20753   */\n      0x60\n        /* \"#utility.yul\":20740:20749   */\n      dup4\n        /* \"#utility.yul\":20736:20754   */\n      add\n        /* \"#utility.yul\":20727:20733   */\n      dup5\n        /* \"#utility.yul\":20683:20755   */\n      tag_265\n      jump\t// in\n    tag_510:\n        /* \"#utility.yul\":20177:20762   */\n      swap6\n      swap5\n      pop\n      pop\n      pop\n      pop\n      pop\n      jump\t// out\n        /* \"#utility.yul\":20768:20939   */\n    tag_301:\n        /* \"#utility.yul\":20908:20931   */\n      0x566f74696e6720706572696f64206973206f7665720000000000000000000000\n        /* \"#utility.yul\":20904:20905   */\n      0x00\n        /* \"#utility.yul\":20896:20902   */\n      dup3\n        /* \"#utility.yul\":20892:20906   */\n      add\n        /* \"#utility.yul\":20885:20932   */\n      mstore\n        /* \"#utility.yul\":20768:20939   */\n      pop\n      jump\t// out\n        /* \"#utility.yul\":20945:21311   */\n    tag_302:\n        /* \"#utility.yul\":21087:21090   */\n      0x00\n        /* \"#utility.yul\":21108:21175   */\n      tag_513\n        /* \"#utility.yul\":21172:21174   */\n      0x15\n        /* \"#utility.yul\":21167:21170   */\n      dup4\n        /* \"#utility.yul\":21108:21175   */\n      tag_279\n      jump\t// in\n    tag_513:\n        /* \"#utility.yul\":21101:21175   */\n      swap2\n      pop\n        /* \"#utility.yul\":21184:21277   */\n      tag_514\n        /* \"#utility.yul\":21273:21276   */\n      dup3\n        /* \"#utility.yul\":21184:21277   */\n      tag_301\n      jump\t// in\n    tag_514:\n        /* \"#utility.yul\":21302:21304   */\n      0x20\n        /* \"#utility.yul\":21297:21300   */\n      dup3\n        /* \"#utility.yul\":21293:21305   */\n      add\n        /* \"#utility.yul\":21286:21305   */\n      swap1\n      pop\n        /* \"#utility.yul\":20945:21311   */\n      swap2\n      swap1\n      pop\n      jump\t// out\n        /* \"#utility.yul\":21317:21736   */\n    tag_219:\n        /* \"#utility.yul\":21483:21487   */\n      0x00\n        /* \"#utility.yul\":21521:21523   */\n      0x20\n        /* \"#utility.yul\":21510:21519   */\n      dup3\n        /* \"#utility.yul\":21506:21524   */\n      add\n        /* \"#utility.yul\":21498:21524   */\n      swap1\n      pop\n        /* \"#utility.yul\":21570:21579   */\n      dup2\n        /* \"#utility.yul\":21564:21568   */\n      dup2\n        /* \"#utility.yul\":21560:21580   */\n      sub\n        /* \"#utility.yul\":21556:21557   */\n      0x00\n        /* \"#utility.yul\":21545:21554   */\n      dup4\n        /* \"#utility.yul\":21541:21558   */\n      add\n        /* \"#utility.yul\":21534:21581   */\n      mstore\n        /* \"#utility.yul\":21598:21729   */\n      tag_516\n        /* \"#utility.yul\":21724:21728   */\n      dup2\n        /* \"#utility.yul\":21598:21729   */\n      tag_302\n      jump\t// in\n    tag_516:\n        /* \"#utility.yul\":21590:21729   */\n      swap1\n      pop\n        /* \"#utility.yul\":21317:21736   */\n      swap2\n      swap1\n      pop\n      jump\t// out\n        /* \"#utility.yul\":21742:22184   */\n    tag_223:\n        /* \"#utility.yul\":21891:21895   */\n      0x00\n        /* \"#utility.yul\":21929:21931   */\n      0x60\n        /* \"#utility.yul\":21918:21927   */\n      dup3\n        /* \"#utility.yul\":21914:21932   */\n      add\n        /* \"#utility.yul\":21906:21932   */\n      swap1\n      pop\n        /* \"#utility.yul\":21942:22013   */\n      tag_518\n        /* \"#utility.yul\":22010:22011   */\n      0x00\n        /* \"#utility.yul\":21999:22008   */\n      dup4\n        /* \"#utility.yul\":21995:22012   */\n      add\n        /* \"#utility.yul\":21986:21992   */\n      dup7\n        /* \"#utility.yul\":21942:22013   */\n      tag_273\n      jump\t// in\n    tag_518:\n        /* \"#utility.yul\":22023:22095   */\n      tag_519\n        /* \"#utility.yul\":22091:22093   */\n      0x20\n        /* \"#utility.yul\":22080:22089   */\n      dup4\n        /* \"#utility.yul\":22076:22094   */\n      add\n        /* \"#utility.yul\":22067:22073   */\n      dup6\n        /* \"#utility.yul\":22023:22095   */\n      tag_273\n      jump\t// in\n    tag_519:\n        /* \"#utility.yul\":22105:22177   */\n      tag_520\n        /* \"#utility.yul\":22173:22175   */\n      0x40\n        /* \"#utility.yul\":22162:22171   */\n      dup4\n        /* \"#utility.yul\":22158:22176   */\n      add\n        /* \"#utility.yul\":22149:22155   */\n      dup5\n        /* \"#utility.yul\":22105:22177   */\n      tag_265\n      jump\t// in\n    tag_520:\n        /* \"#utility.yul\":21742:22184   */\n      swap5\n      swap4\n      pop\n      pop\n      pop\n      pop\n      jump\t// out\n        /* \"#utility.yul\":22190:22620   */\n    tag_235:\n        /* \"#utility.yul\":22333:22337   */\n      0x00\n        /* \"#utility.yul\":22371:22373   */\n      0x60\n        /* \"#utility.yul\":22360:22369   */\n      dup3\n        /* \"#utility.yul\":22356:22374   */\n      add\n        /* \"#utility.yul\":22348:22374   */\n      swap1\n      pop\n        /* \"#utility.yul\":22384:22455   */\n      tag_522\n        /* \"#utility.yul\":22452:22453   */\n      0x00\n        /* \"#utility.yul\":22441:22450   */\n      dup4\n        /* \"#utility.yul\":22437:22454   */\n      add\n        /* \"#utility.yul\":22428:22434   */\n      dup7\n        /* \"#utility.yul\":22384:22455   */\n      tag_273\n      jump\t// in\n    tag_522:\n        /* \"#utility.yul\":22465:22531   */\n      tag_523\n        /* \"#utility.yul\":22527:22529   */\n      0x20\n        /* \"#utility.yul\":22516:22525   */\n      dup4\n        /* \"#utility.yul\":22512:22530   */\n      add\n        /* \"#utility.yul\":22503:22509   */\n      dup6\n        /* \"#utility.yul\":22465:22531   */\n      tag_272\n      jump\t// in\n    tag_523:\n        /* \"#utility.yul\":22541:22613   */\n      tag_524\n        /* \"#utility.yul\":22609:22611   */\n      0x40\n        /* \"#utility.yul\":22598:22607   */\n      dup4\n        /* \"#utility.yul\":22594:22612   */\n      add\n        /* \"#utility.yul\":22585:22591   */\n      dup5\n        /* \"#utility.yul\":22541:22613   */\n      tag_265\n      jump\t// in\n    tag_524:\n        /* \"#utility.yul\":22190:22620   */\n      swap5\n      swap4\n      pop\n      pop\n      pop\n      pop\n      jump\t// out\n        /* \"#utility.yul\":22626:22851   */\n    tag_303:\n        /* \"#utility.yul\":22766:22800   */\n      0x4f776e61626c653a206e6577206f776e657220697320746865207a65726f2061\n        /* \"#utility.yul\":22762:22763   */\n      0x00\n        /* \"#utility.yul\":22754:22760   */\n      dup3\n        /* \"#utility.yul\":22750:22764   */\n      add\n        /* \"#utility.yul\":22743:22801   */\n      mstore\n        /* \"#utility.yul\":22835:22843   */\n      0x6464726573730000000000000000000000000000000000000000000000000000\n        /* \"#utility.yul\":22830:22832   */\n      0x20\n        /* \"#utility.yul\":22822:22828   */\n      dup3\n        /* \"#utility.yul\":22818:22833   */\n      add\n        /* \"#utility.yul\":22811:22844   */\n      mstore\n        /* \"#utility.yul\":22626:22851   */\n      pop\n      jump\t// out\n        /* \"#utility.yul\":22857:23223   */\n    tag_304:\n        /* \"#utility.yul\":22999:23002   */\n      0x00\n        /* \"#utility.yul\":23020:23087   */\n      tag_527\n        /* \"#utility.yul\":23084:23086   */\n      0x26\n        /* \"#utility.yul\":23079:23082   */\n      dup4\n        /* \"#utility.yul\":23020:23087   */\n      tag_279\n      jump\t// in\n    tag_527:\n        /* \"#utility.yul\":23013:23087   */\n      swap2\n      pop\n        /* \"#utility.yul\":23096:23189   */\n      tag_528\n        /* \"#utility.yul\":23185:23188   */\n      dup3\n        /* \"#utility.yul\":23096:23189   */\n      tag_303\n      jump\t// in\n    tag_528:\n        /* \"#utility.yul\":23214:23216   */\n      0x40\n        /* \"#utility.yul\":23209:23212   */\n      dup3\n        /* \"#utility.yul\":23205:23217   */\n      add\n        /* \"#utility.yul\":23198:23217   */\n      swap1\n      pop\n        /* \"#utility.yul\":22857:23223   */\n      swap2\n      swap1\n      pop\n      jump\t// out\n        /* \"#utility.yul\":23229:23648   */\n    tag_241:\n        /* \"#utility.yul\":23395:23399   */\n      0x00\n        /* \"#utility.yul\":23433:23435   */\n      0x20\n        /* \"#utility.yul\":23422:23431   */\n      dup3\n        /* \"#utility.yul\":23418:23436   */\n      add\n        /* \"#utility.yul\":23410:23436   */\n      swap1\n      pop\n        /* \"#utility.yul\":23482:23491   */\n      dup2\n        /* \"#utility.yul\":23476:23480   */\n      dup2\n        /* \"#utility.yul\":23472:23492   */\n      sub\n        /* \"#utility.yul\":23468:23469   */\n      0x00\n        /* \"#utility.yul\":23457:23466   */\n      dup4\n        /* \"#utility.yul\":23453:23470   */\n      add\n        /* \"#utility.yul\":23446:23493   */\n      mstore\n        /* \"#utility.yul\":23510:23641   */\n      tag_530\n        /* \"#utility.yul\":23636:23640   */\n      dup2\n        /* \"#utility.yul\":23510:23641   */\n      tag_304\n      jump\t// in\n    tag_530:\n        /* \"#utility.yul\":23502:23641   */\n      swap1\n      pop\n        /* \"#utility.yul\":23229:23648   */\n      swap2\n      swap1\n      pop\n      jump\t// out\n        /* \"#utility.yul\":23654:23733   */\n    tag_305:\n        /* \"#utility.yul\":23693:23700   */\n      0x00\n        /* \"#utility.yul\":23722:23727   */\n      dup2\n        /* \"#utility.yul\":23711:23727   */\n      swap1\n      pop\n        /* \"#utility.yul\":23654:23733   */\n      swap2\n      swap1\n      pop\n      jump\t// out\n        /* \"#utility.yul\":23739:23896   */\n    tag_306:\n        /* \"#utility.yul\":23844:23889   */\n      tag_533\n        /* \"#utility.yul\":23864:23888   */\n      tag_534\n        /* \"#utility.yul\":23882:23887   */\n      dup3\n        /* \"#utility.yul\":23864:23888   */\n      tag_262\n      jump\t// in\n    tag_534:\n        /* \"#utility.yul\":23844:23889   */\n      tag_305\n      jump\t// in\n    tag_533:\n        /* \"#utility.yul\":23839:23842   */\n      dup3\n        /* \"#utility.yul\":23832:23890   */\n      mstore\n        /* \"#utility.yul\":23739:23896   */\n      pop\n      pop\n      jump\t// out\n        /* \"#utility.yul\":23902:24299   */\n    tag_245:\n        /* \"#utility.yul\":24042:24045   */\n      0x00\n        /* \"#utility.yul\":24057:24132   */\n      tag_536\n        /* \"#utility.yul\":24128:24131   */\n      dup3\n        /* \"#utility.yul\":24119:24125   */\n      dup6\n        /* \"#utility.yul\":24057:24132   */\n      tag_306\n      jump\t// in\n    tag_536:\n        /* \"#utility.yul\":24157:24159   */\n      0x20\n        /* \"#utility.yul\":24152:24155   */\n      dup3\n        /* \"#utility.yul\":24148:24160   */\n      add\n        /* \"#utility.yul\":24141:24160   */\n      swap2\n      pop\n        /* \"#utility.yul\":24170:24245   */\n      tag_537\n        /* \"#utility.yul\":24241:24244   */\n      dup3\n        /* \"#utility.yul\":24232:24238   */\n      dup5\n        /* \"#utility.yul\":24170:24245   */\n      tag_306\n      jump\t// in\n    tag_537:\n        /* \"#utility.yul\":24270:24272   */\n      0x20\n        /* \"#utility.yul\":24265:24268   */\n      dup3\n        /* \"#utility.yul\":24261:24273   */\n      add\n        /* \"#utility.yul\":24254:24273   */\n      swap2\n      pop\n        /* \"#utility.yul\":24290:24293   */\n      dup2\n        /* \"#utility.yul\":24283:24293   */\n      swap1\n      pop\n        /* \"#utility.yul\":23902:24299   */\n      swap4\n      swap3\n      pop\n      pop\n      pop\n      jump\t// out\n        /* \"#utility.yul\":24305:24487   */\n    tag_307:\n        /* \"#utility.yul\":24445:24479   */\n      0x4f776e61626c653a2063616c6c6572206973206e6f7420746865206f776e6572\n        /* \"#utility.yul\":24441:24442   */\n      0x00\n        /* \"#utility.yul\":24433:24439   */\n      dup3\n        /* \"#utility.yul\":24429:24443   */\n      add\n        /* \"#utility.yul\":24422:24480   */\n      mstore\n        /* \"#utility.yul\":24305:24487   */\n      pop\n      jump\t// out\n        /* \"#utility.yul\":24493:24859   */\n    tag_308:\n        /* \"#utility.yul\":24635:24638   */\n      0x00\n        /* \"#utility.yul\":24656:24723   */\n      tag_540\n        /* \"#utility.yul\":24720:24722   */\n      0x20\n        /* \"#utility.yul\":24715:24718   */\n      dup4\n        /* \"#utility.yul\":24656:24723   */\n      tag_279\n      jump\t// in\n    tag_540:\n        /* \"#utility.yul\":24649:24723   */\n      swap2\n      pop\n        /* \"#utility.yul\":24732:24825   */\n      tag_541\n        /* \"#utility.yul\":24821:24824   */\n      dup3\n        /* \"#utility.yul\":24732:24825   */\n      tag_307\n      jump\t// in\n    tag_541:\n        /* \"#utility.yul\":24850:24852   */\n      0x20\n        /* \"#utility.yul\":24845:24848   */\n      dup3\n        /* \"#utility.yul\":24841:24853   */\n      add\n        /* \"#utility.yul\":24834:24853   */\n      swap1\n      pop\n        /* \"#utility.yul\":24493:24859   */\n      swap2\n      swap1\n      pop\n      jump\t// out\n        /* \"#utility.yul\":24865:25284   */\n    tag_252:\n        /* \"#utility.yul\":25031:25035   */\n      0x00\n        /* \"#utility.yul\":25069:25071   */\n      0x20\n        /* \"#utility.yul\":25058:25067   */\n      dup3\n        /* \"#utility.yul\":25054:25072   */\n      add\n        /* \"#utility.yul\":25046:25072   */\n      swap1\n      pop\n        /* \"#utility.yul\":25118:25127   */\n      dup2\n        /* \"#utility.yul\":25112:25116   */\n      dup2\n        /* \"#utility.yul\":25108:25128   */\n      sub\n        /* \"#utility.yul\":25104:25105   */\n      0x00\n        /* \"#utility.yul\":25093:25102   */\n      dup4\n        /* \"#utility.yul\":25089:25106   */\n      add\n        /* \"#utility.yul\":25082:25129   */\n      mstore\n        /* \"#utility.yul\":25146:25277   */\n      tag_543\n        /* \"#utility.yul\":25272:25276   */\n      dup2\n        /* \"#utility.yul\":25146:25277   */\n      tag_308\n      jump\t// in\n    tag_543:\n        /* \"#utility.yul\":25138:25277   */\n      swap1\n      pop\n        /* \"#utility.yul\":24865:25284   */\n      swap2\n      swap1\n      pop\n      jump\t// out\n\n    auxdata: 0xa264697066735822122037539230ad6d40cbbca5d400267af28f3ce4cefb611827dd8f0ed315fe7c34a364736f6c63430008120033\n}\n",
				"bytecode": {
					"linkReferences": {},
					"object": "60a06040523480156200001157600080fd5b50604051620029d8380380620029d88339818101604052810190620000379190620001ec565b620000576200004b620000a260201b60201c565b620000aa60201b60201c565b8073ffffffffffffffffffffffffffffffffffffffff1660808173ffffffffffffffffffffffffffffffffffffffff1681525050604b6008819055506000600981905550506200021e565b600033905090565b60008060009054906101000a900473ffffffffffffffffffffffffffffffffffffffff169050816000806101000a81548173ffffffffffffffffffffffffffffffffffffffff021916908373ffffffffffffffffffffffffffffffffffffffff1602179055508173ffffffffffffffffffffffffffffffffffffffff168173ffffffffffffffffffffffffffffffffffffffff167f8be0079c531659141344cd1fd0a4f28419497f9722a3daafe3b4186f6b6457e060405160405180910390a35050565b600080fd5b600073ffffffffffffffffffffffffffffffffffffffff82169050919050565b6000620001a08262000173565b9050919050565b6000620001b48262000193565b9050919050565b620001c681620001a7565b8114620001d257600080fd5b50565b600081519050620001e681620001bb565b92915050565b6000602082840312156200020557620002046200016e565b5b60006200021584828501620001d5565b91505092915050565b608051612790620002486000396000818161075b01528181610c63015261153a01526127906000f3fe608060405234801561001057600080fd5b50600436106101375760003560e01c8063768114a4116100b8578063c2b7b8681161007c578063c2b7b8681461036c578063d270e7ab14610388578063d46a5d7e146103a6578063f2fde38b146103c2578063fcff13f2146103de578063ffb185161461040e57610137565b8063768114a4146102b357806387c42c41146102e35780638da5cb5b146103145780639f5f3a6614610332578063a28889e11461034e57610137565b806346e04a2f116100ff57806346e04a2f146101f4578063564a565d1461021057806356eeafd9146102495780636e6b2e2d14610279578063715018a6146102a957610137565b806303d4d7e71461013c5780630e7d5d4e1461016c5780632c0545031461018a5780633ded33bc146101ba578063438d649d146101d6575b600080fd5b61015660048036038101906101519190611a8b565b61043e565b6040516101639190611b15565b60405180910390f35b610174610759565b6040516101819190611b8f565b60405180910390f35b6101a4600480360381019061019f9190611baa565b61077d565b6040516101b19190611c05565b60405180910390f35b6101d460048036038101906101cf9190611c20565b610927565b005b6101de610973565b6040516101eb9190611b15565b60405180910390f35b61020e60048036038101906102099190611c4d565b610979565b005b61022a60048036038101906102259190611c4d565b610d09565b6040516102409a99989796959493929190611c89565b60405180910390f35b610263600480360381019061025e9190611d25565b610db7565b6040516102709190611b15565b60405180910390f35b610293600480360381019061028e9190611c4d565b610ddc565b6040516102a09190611b15565b60405180910390f35b6102b1610df4565b005b6102cd60048036038101906102c89190611d25565b610e08565b6040516102da9190611b15565b60405180910390f35b6102fd60048036038101906102f89190611d25565b610e2d565b60405161030b929190611d65565b60405180910390f35b61031c610f21565b6040516103299190611d8e565b60405180910390f35b61034c60048036038101906103479190611c4d565b610f4a565b005b610356610fac565b6040516103639190611b15565b60405180910390f35b61038660048036038101906103819190611c4d565b610fb2565b005b610390611412565b60405161039d9190611d8e565b60405180910390f35b6103c060048036038101906103bb9190611dd5565b611438565b005b6103dc60048036038101906103d79190611c20565b6117b5565b005b6103f860048036038101906103f39190611d25565b611838565b6040516104059190611b15565b60405180910390f35b61042860048036038101906104239190611e5e565b61185d565b6040516104359190611b15565b60405180910390f35b6000600160009054906101000a900473ffffffffffffffffffffffffffffffffffffffff1673ffffffffffffffffffffffffffffffffffffffff163373ffffffffffffffffffffffffffffffffffffffff16146104d0576040517f08c379a00000000000000000000000000000000000000000000000000000000081526004016104c790611ee8565b60405180910390fd5b6104da848461077d565b610519576040517f08c379a000000000000000000000000000000000000000000000000000000000815260040161051090611fa0565b60405180910390fd5b60006009600081548092919061052e90611fef565b9190505590506040518061014001604052808873ffffffffffffffffffffffffffffffffffffffff1681526020018773ffffffffffffffffffffffffffffffffffffffff16815260200186815260200185815260200184815260200160008152602001600081526020016102d0426105a69190612037565b8152602001600015158152602001600015158152506002600083815260200190815260200160002060008201518160000160006101000a81548173ffffffffffffffffffffffffffffffffffffffff021916908373ffffffffffffffffffffffffffffffffffffffff16021790555060208201518160010160006101000a81548173ffffffffffffffffffffffffffffffffffffffff021916908373ffffffffffffffffffffffffffffffffffffffff16021790555060408201518160020155606082015181600301556080820151816004015560a0820151816005015560c0820151816006015560e082015181600701556101008201518160080160006101000a81548160ff0219169083151502179055506101208201518160080160016101000a81548160ff02191690831515021790555090505060006106e98686611875565b90506001826106f89190612037565b60076000838152602001908152602001600020819055508185877ffc7fbf4c318ba42af9b9bbbff385c82e86c3422dbbaf01ff414d0c96fa201ec78b8b60405161074392919061206b565b60405180910390a4819250505095945050505050565b7f000000000000000000000000000000000000000000000000000000000000000081565b60008061078a8484611875565b9050600060076000838152602001908152602001600020549050600081036107b757600192505050610921565b6000600260006001846107ca9190612094565b8152602001908152602001600020604051806101400160405290816000820160009054906101000a900473ffffffffffffffffffffffffffffffffffffffff1673ffffffffffffffffffffffffffffffffffffffff1673ffffffffffffffffffffffffffffffffffffffff1681526020016001820160009054906101000a900473ffffffffffffffffffffffffffffffffffffffff1673ffffffffffffffffffffffffffffffffffffffff1673ffffffffffffffffffffffffffffffffffffffff1681526020016002820154815260200160038201548152602001600482015481526020016005820154815260200160068201548152602001600782015481526020016008820160009054906101000a900460ff161515151581526020016008820160019054906101000a900460ff161515151581525050905080610100015115801561091b5750428160e0015111155b93505050505b92915050565b61092f6118a8565b80600160006101000a81548173ffffffffffffffffffffffffffffffffffffffff021916908373ffffffffffffffffffffffffffffffffffffffff16021790555050565b60085481565b60095481106109bd576040517f08c379a00000000000000000000000000000000000000000000000000000000081526004016109b490612114565b60405180910390fd5b6002600082815260200190815260200160002060080160009054906101000a900460ff16610a20576040517f08c379a0000000000000000000000000000000000000000000000000000000008152600401610a17906121a6565b60405180910390fd5b60006003600083815260200190815260200160002060003373ffffffffffffffffffffffffffffffffffffffff1673ffffffffffffffffffffffffffffffffffffffff16815260200190815260200160002054905060008111610ab8576040517f08c379a0000000000000000000000000000000000000000000000000000000008152600401610aaf90612212565b60405180910390fd5b60006002600084815260200190815260200160002060060154600260008581526020019081526020016000206005015411905060008060026000868152602001908152602001600020600501541190506000828015610b145750815b80610b27575082158015610b26575081155b5b90506000808415610b69576002600088815260200190815260200160002060050154915060026000888152602001908152602001600020600601549050610b9c565b60026000888152602001908152602001600020600601549150600260008881526020019081526020016000206005015490505b8215610bef5760006064600a83610bb39190612232565b610bbd91906122a3565b90506000838289610bce9190612232565b610bd891906122a3565b90508088610be69190612037565b97505050610c0b565b6064605a87610bfe9190612232565b610c0891906122a3565b95505b60006003600089815260200190815260200160002060003373ffffffffffffffffffffffffffffffffffffffff1673ffffffffffffffffffffffffffffffffffffffff168152602001908152602001600020819055507f000000000000000000000000000000000000000000000000000000000000000073ffffffffffffffffffffffffffffffffffffffff1663a9059cbb33886040518363ffffffff1660e01b8152600401610cbc9291906122d4565b6020604051808303816000875af1158015610cdb573d6000803e3d6000fd5b505050506040513d601f19601f82011682018060405250810190610cff9190612312565b5050505050505050565b60026020528060005260406000206000915090508060000160009054906101000a900473ffffffffffffffffffffffffffffffffffffffff16908060010160009054906101000a900473ffffffffffffffffffffffffffffffffffffffff16908060020154908060030154908060040154908060050154908060060154908060070154908060080160009054906101000a900460ff16908060080160019054906101000a900460ff1690508a565b6003602052816000526040600020602052806000526040600020600091509150505481565b60066020528060005260406000206000915090505481565b610dfc6118a8565b610e066000611926565b565b6004602052816000526040600020602052806000526040600020600091509150505481565b6000806009548410610e74576040517f08c379a0000000000000000000000000000000000000000000000000000000008152600401610e6b90612114565b60405180910390fd5b6004600085815260200190815260200160002060008473ffffffffffffffffffffffffffffffffffffffff1673ffffffffffffffffffffffffffffffffffffffff1681526020019081526020016000205491506005600085815260200190815260200160002060008473ffffffffffffffffffffffffffffffffffffffff1673ffffffffffffffffffffffffffffffffffffffff1681526020019081526020016000205490509250929050565b60008060009054906101000a900473ffffffffffffffffffffffffffffffffffffffff16905090565b610f526118a8565b600081118015610f63575060648111155b610fa2576040517f08c379a0000000000000000000000000000000000000000000000000000000008152600401610f999061238b565b60405180910390fd5b8060088190555050565b60095481565b6002600082815260200190815260200160002060080160009054906101000a900460ff1615611016576040517f08c379a000000000000000000000000000000000000000000000000000000000815260040161100d9061241d565b60405180910390fd5b6002600082815260200190815260200160002060070154421161106e576040517f08c379a0000000000000000000000000000000000000000000000000000000008152600401611065906124af565b60405180910390fd5b600080600260008481526020019081526020016000206006015460026000858152602001908152602001600020600501546110a99190612037565b9050600854816110b99190612232565b606460026000868152602001908152602001600020600501546110dc9190612232565b106110ea5760019150611126565b600854816110f89190612232565b6064600260008681526020019081526020016000206006015461111b9190612232565b1061112557600091505b5b811561126b5760016002600085815260200190815260200160002060080160016101000a81548160ff021916908315150217905550600160009054906101000a900473ffffffffffffffffffffffffffffffffffffffff1673ffffffffffffffffffffffffffffffffffffffff16637a30bde6600260008681526020019081526020016000206002015460026000878152602001908152602001600020600301546002600088815260200190815260200160002060000160009054906101000a900473ffffffffffffffffffffffffffffffffffffffff1660026000898152602001908152602001600020600401546040518563ffffffff1660e01b815260040161123494939291906124f0565b600060405180830381600087803b15801561124e57600080fd5b505af1158015611262573d6000803e3d6000fd5b505050506113a6565b60006002600085815260200190815260200160002060080160016101000a81548160ff021916908315150217905550600160009054906101000a900473ffffffffffffffffffffffffffffffffffffffff1673ffffffffffffffffffffffffffffffffffffffff16637a30bde6600260008681526020019081526020016000206002015460026000878152602001908152602001600020600301546002600088815260200190815260200160002060010160009054906101000a900473ffffffffffffffffffffffffffffffffffffffff1660026000898152602001908152602001600020600401546040518563ffffffff1660e01b815260040161137394939291906124f0565b600060405180830381600087803b15801561138d57600080fd5b505af11580156113a1573d6000803e3d6000fd5b505050505b60016002600085815260200190815260200160002060080160006101000a81548160ff021916908315150217905550827f5a87909bff68caaaaf0b3fd9c74eeccc928832f879315e5c6fb7a73612f26c0c836040516114059190611c05565b60405180910390a2505050565b600160009054906101000a900473ffffffffffffffffffffffffffffffffffffffff1681565b600954831061147c576040517f08c379a000000000000000000000000000000000000000000000000000000000815260040161147390612114565b60405180910390fd5b600260008481526020019081526020016000206007015442106114d4576040517f08c379a00000000000000000000000000000000000000000000000000000000081526004016114cb90612581565b60405180910390fd5b6002600084815260200190815260200160002060080160009054906101000a900460ff1615611538576040517f08c379a000000000000000000000000000000000000000000000000000000000815260040161152f9061241d565b60405180910390fd5b7f000000000000000000000000000000000000000000000000000000000000000073ffffffffffffffffffffffffffffffffffffffff166323b872dd3330846040518463ffffffff1660e01b8152600401611595939291906125a1565b6020604051808303816000875af11580156115b4573d6000803e3d6000fd5b505050506040513d601f19601f820116820180604052508101906115d89190612312565b50806003600085815260200190815260200160002060003373ffffffffffffffffffffffffffffffffffffffff1673ffffffffffffffffffffffffffffffffffffffff16815260200190815260200160002060008282546116399190612037565b9250508190555081156116df578060026000858152602001908152602001600020600501600082825461166c9190612037565b92505081905550806004600085815260200190815260200160002060003373ffffffffffffffffffffffffffffffffffffffff1673ffffffffffffffffffffffffffffffffffffffff16815260200190815260200160002060008282546116d39190612037565b92505081905550611774565b806002600085815260200190815260200160002060060160008282546117059190612037565b92505081905550806005600085815260200190815260200160002060003373ffffffffffffffffffffffffffffffffffffffff1673ffffffffffffffffffffffffffffffffffffffff168152602001908152602001600020600082825461176c9190612037565b925050819055505b827fd5fbdad2a4bb43b8c8ee1becc8085bb21684241593a04bf8795a83f56436b43d3384846040516117a8939291906125d8565b60405180910390a2505050565b6117bd6118a8565b600073ffffffffffffffffffffffffffffffffffffffff168173ffffffffffffffffffffffffffffffffffffffff160361182c576040517f08c379a000000000000000000000000000000000000000000000000000000000815260040161182390612681565b60405180910390fd5b61183581611926565b50565b6005602052816000526040600020602052806000526040600020600091509150505481565b60076020528060005260406000206000915090505481565b6000828260405160200161188a9291906126c2565b60405160208183030381529060405280519060200120905092915050565b6118b06119ea565b73ffffffffffffffffffffffffffffffffffffffff166118ce610f21565b73ffffffffffffffffffffffffffffffffffffffff1614611924576040517f08c379a000000000000000000000000000000000000000000000000000000000815260040161191b9061273a565b60405180910390fd5b565b60008060009054906101000a900473ffffffffffffffffffffffffffffffffffffffff169050816000806101000a81548173ffffffffffffffffffffffffffffffffffffffff021916908373ffffffffffffffffffffffffffffffffffffffff1602179055508173ffffffffffffffffffffffffffffffffffffffff168173ffffffffffffffffffffffffffffffffffffffff167f8be0079c531659141344cd1fd0a4f28419497f9722a3daafe3b4186f6b6457e060405160405180910390a35050565b600033905090565b600080fd5b600073ffffffffffffffffffffffffffffffffffffffff82169050919050565b6000611a22826119f7565b9050919050565b611a3281611a17565b8114611a3d57600080fd5b50565b600081359050611a4f81611a29565b92915050565b6000819050919050565b611a6881611a55565b8114611a7357600080fd5b50565b600081359050611a8581611a5f565b92915050565b600080600080600060a08688031215611aa757611aa66119f2565b5b6000611ab588828901611a40565b9550506020611ac688828901611a40565b9450506040611ad788828901611a76565b9350506060611ae888828901611a76565b9250506080611af988828901611a76565b9150509295509295909350565b611b0f81611a55565b82525050565b6000602082019050611b2a6000830184611b06565b92915050565b6000819050919050565b6000611b55611b50611b4b846119f7565b611b30565b6119f7565b9050919050565b6000611b6782611b3a565b9050919050565b6000611b7982611b5c565b9050919050565b611b8981611b6e565b82525050565b6000602082019050611ba46000830184611b80565b92915050565b60008060408385031215611bc157611bc06119f2565b5b6000611bcf85828601611a76565b9250506020611be085828601611a76565b9150509250929050565b60008115159050919050565b611bff81611bea565b82525050565b6000602082019050611c1a6000830184611bf6565b92915050565b600060208284031215611c3657611c356119f2565b5b6000611c4484828501611a40565b91505092915050565b600060208284031215611c6357611c626119f2565b5b6000611c7184828501611a76565b91505092915050565b611c8381611a17565b82525050565b600061014082019050611c9f600083018d611c7a565b611cac602083018c611c7a565b611cb9604083018b611b06565b611cc6606083018a611b06565b611cd36080830189611b06565b611ce060a0830188611b06565b611ced60c0830187611b06565b611cfa60e0830186611b06565b611d08610100830185611bf6565b611d16610120830184611bf6565b9b9a5050505050505050505050565b60008060408385031215611d3c57611d3b6119f2565b5b6000611d4a85828601611a76565b9250506020611d5b85828601611a40565b9150509250929050565b6000604082019050611d7a6000830185611b06565b611d876020830184611b06565b9392505050565b6000602082019050611da36000830184611c7a565b92915050565b611db281611bea565b8114611dbd57600080fd5b50565b600081359050611dcf81611da9565b92915050565b600080600060608486031215611dee57611ded6119f2565b5b6000611dfc86828701611a76565b9350506020611e0d86828701611dc0565b9250506040611e1e86828701611a76565b9150509250925092565b6000819050919050565b611e3b81611e28565b8114611e4657600080fd5b50565b600081359050611e5881611e32565b92915050565b600060208284031215611e7457611e736119f2565b5b6000611e8284828501611e49565b91505092915050565b600082825260208201905092915050565b7f43616c6c6572206973206e6f7420746865206d61696e20636f6e747261637400600082015250565b6000611ed2601f83611e8b565b9150611edd82611e9c565b602082019050919050565b60006020820190508181036000830152611f0181611ec5565b9050919050565b7f43616e6e6f74206372656174652061206e6577206469737075746520666f722060008201527f74686520676976656e2070726f706f73616c20616e642062757965722072657160208201527f7565737400000000000000000000000000000000000000000000000000000000604082015250565b6000611f8a604483611e8b565b9150611f9582611f08565b606082019050919050565b60006020820190508181036000830152611fb981611f7d565b9050919050565b7f4e487b7100000000000000000000000000000000000000000000000000000000600052601160045260246000fd5b6000611ffa82611a55565b91507fffffffffffffffffffffffffffffffffffffffffffffffffffffffffffffffff820361202c5761202b611fc0565b5b600182019050919050565b600061204282611a55565b915061204d83611a55565b925082820190508082111561206557612064611fc0565b5b92915050565b60006040820190506120806000830185611c7a565b61208d6020830184611c7a565b9392505050565b600061209f82611a55565b91506120aa83611a55565b92508282039050818111156120c2576120c1611fc0565b5b92915050565b7f496e76616c696420646973707574652049440000000000000000000000000000600082015250565b60006120fe601283611e8b565b9150612109826120c8565b602082019050919050565b6000602082019050818103600083015261212d816120f1565b9050919050565b7f4469737075746520686173206e6f74206265656e207265736f6c76656420796560008201527f7400000000000000000000000000000000000000000000000000000000000000602082015250565b6000612190602183611e8b565b915061219b82612134565b604082019050919050565b600060208201905081810360008301526121bf81612183565b9050919050565b7f4e6f20746f6b656e7320746f20636c61696d0000000000000000000000000000600082015250565b60006121fc601283611e8b565b9150612207826121c6565b602082019050919050565b6000602082019050818103600083015261222b816121ef565b9050919050565b600061223d82611a55565b915061224883611a55565b925082820261225681611a55565b9150828204841483151761226d5761226c611fc0565b5b5092915050565b7f4e487b7100000000000000000000000000000000000000000000000000000000600052601260045260246000fd5b60006122ae82611a55565b91506122b983611a55565b9250826122c9576122c8612274565b5b828204905092915050565b60006040820190506122e96000830185611c7a565b6122f66020830184611b06565b9392505050565b60008151905061230c81611da9565b92915050565b600060208284031215612328576123276119f2565b5b6000612336848285016122fd565b91505092915050565b7f496e76616c6964207468726573686f6c64000000000000000000000000000000600082015250565b6000612375601183611e8b565b91506123808261233f565b602082019050919050565b600060208201905081810360008301526123a481612368565b9050919050565b7f446973707574652068617320616c7265616479206265656e207265736f6c766560008201527f6400000000000000000000000000000000000000000000000000000000000000602082015250565b6000612407602183611e8b565b9150612412826123ab565b604082019050919050565b60006020820190508181036000830152612436816123fa565b9050919050565b7f54686520766f74696e6720706572696f64206973206e6f74206f76657220796560008201527f7421000000000000000000000000000000000000000000000000000000000000602082015250565b6000612499602283611e8b565b91506124a48261243d565b604082019050919050565b600060208201905081810360008301526124c88161248c565b9050919050565b60006124da826119f7565b9050919050565b6124ea816124cf565b82525050565b60006080820190506125056000830187611b06565b6125126020830186611b06565b61251f60408301856124e1565b61252c6060830184611b06565b95945050505050565b7f566f74696e6720706572696f64206973206f7665720000000000000000000000600082015250565b600061256b601583611e8b565b915061257682612535565b602082019050919050565b6000602082019050818103600083015261259a8161255e565b9050919050565b60006060820190506125b66000830186611c7a565b6125c36020830185611c7a565b6125d06040830184611b06565b949350505050565b60006060820190506125ed6000830186611c7a565b6125fa6020830185611bf6565b6126076040830184611b06565b949350505050565b7f4f776e61626c653a206e6577206f776e657220697320746865207a65726f206160008201527f6464726573730000000000000000000000000000000000000000000000000000602082015250565b600061266b602683611e8b565b91506126768261260f565b604082019050919050565b6000602082019050818103600083015261269a8161265e565b9050919050565b6000819050919050565b6126bc6126b782611a55565b6126a1565b82525050565b60006126ce82856126ab565b6020820191506126de82846126ab565b6020820191508190509392505050565b7f4f776e61626c653a2063616c6c6572206973206e6f7420746865206f776e6572600082015250565b6000612724602083611e8b565b915061272f826126ee565b602082019050919050565b6000602082019050818103600083015261275381612717565b905091905056fea264697066735822122037539230ad6d40cbbca5d400267af28f3ce4cefb611827dd8f0ed315fe7c34a364736f6c63430008120033",
					"opcodes": "PUSH1 0xA0 PUSH1 0x40 MSTORE CALLVALUE DUP1 ISZERO PUSH3 0x11 JUMPI PUSH1 0x0 DUP1 REVERT JUMPDEST POP PUSH1 0x40 MLOAD PUSH3 0x29D8 CODESIZE SUB DUP1 PUSH3 0x29D8 DUP4 CODECOPY DUP2 DUP2 ADD PUSH1 0x40 MSTORE DUP2 ADD SWAP1 PUSH3 0x37 SWAP2 SWAP1 PUSH3 0x1EC JUMP JUMPDEST PUSH3 0x57 PUSH3 0x4B PUSH3 0xA2 PUSH1 0x20 SHL PUSH1 0x20 SHR JUMP JUMPDEST PUSH3 0xAA PUSH1 0x20 SHL PUSH1 0x20 SHR JUMP JUMPDEST DUP1 PUSH20 0xFFFFFFFFFFFFFFFFFFFFFFFFFFFFFFFFFFFFFFFF AND PUSH1 0x80 DUP2 PUSH20 0xFFFFFFFFFFFFFFFFFFFFFFFFFFFFFFFFFFFFFFFF AND DUP2 MSTORE POP POP PUSH1 0x4B PUSH1 0x8 DUP2 SWAP1 SSTORE POP PUSH1 0x0 PUSH1 0x9 DUP2 SWAP1 SSTORE POP POP PUSH3 0x21E JUMP JUMPDEST PUSH1 0x0 CALLER SWAP1 POP SWAP1 JUMP JUMPDEST PUSH1 0x0 DUP1 PUSH1 0x0 SWAP1 SLOAD SWAP1 PUSH2 0x100 EXP SWAP1 DIV PUSH20 0xFFFFFFFFFFFFFFFFFFFFFFFFFFFFFFFFFFFFFFFF AND SWAP1 POP DUP2 PUSH1 0x0 DUP1 PUSH2 0x100 EXP DUP2 SLOAD DUP2 PUSH20 0xFFFFFFFFFFFFFFFFFFFFFFFFFFFFFFFFFFFFFFFF MUL NOT AND SWAP1 DUP4 PUSH20 0xFFFFFFFFFFFFFFFFFFFFFFFFFFFFFFFFFFFFFFFF AND MUL OR SWAP1 SSTORE POP DUP2 PUSH20 0xFFFFFFFFFFFFFFFFFFFFFFFFFFFFFFFFFFFFFFFF AND DUP2 PUSH20 0xFFFFFFFFFFFFFFFFFFFFFFFFFFFFFFFFFFFFFFFF AND PUSH32 0x8BE0079C531659141344CD1FD0A4F28419497F9722A3DAAFE3B4186F6B6457E0 PUSH1 0x40 MLOAD PUSH1 0x40 MLOAD DUP1 SWAP2 SUB SWAP1 LOG3 POP POP JUMP JUMPDEST PUSH1 0x0 DUP1 REVERT JUMPDEST PUSH1 0x0 PUSH20 0xFFFFFFFFFFFFFFFFFFFFFFFFFFFFFFFFFFFFFFFF DUP3 AND SWAP1 POP SWAP2 SWAP1 POP JUMP JUMPDEST PUSH1 0x0 PUSH3 0x1A0 DUP3 PUSH3 0x173 JUMP JUMPDEST SWAP1 POP SWAP2 SWAP1 POP JUMP JUMPDEST PUSH1 0x0 PUSH3 0x1B4 DUP3 PUSH3 0x193 JUMP JUMPDEST SWAP1 POP SWAP2 SWAP1 POP JUMP JUMPDEST PUSH3 0x1C6 DUP2 PUSH3 0x1A7 JUMP JUMPDEST DUP2 EQ PUSH3 0x1D2 JUMPI PUSH1 0x0 DUP1 REVERT JUMPDEST POP JUMP JUMPDEST PUSH1 0x0 DUP2 MLOAD SWAP1 POP PUSH3 0x1E6 DUP2 PUSH3 0x1BB JUMP JUMPDEST SWAP3 SWAP2 POP POP JUMP JUMPDEST PUSH1 0x0 PUSH1 0x20 DUP3 DUP5 SUB SLT ISZERO PUSH3 0x205 JUMPI PUSH3 0x204 PUSH3 0x16E JUMP JUMPDEST JUMPDEST PUSH1 0x0 PUSH3 0x215 DUP5 DUP3 DUP6 ADD PUSH3 0x1D5 JUMP JUMPDEST SWAP2 POP POP SWAP3 SWAP2 POP POP JUMP JUMPDEST PUSH1 0x80 MLOAD PUSH2 0x2790 PUSH3 0x248 PUSH1 0x0 CODECOPY PUSH1 0x0 DUP2 DUP2 PUSH2 0x75B ADD MSTORE DUP2 DUP2 PUSH2 0xC63 ADD MSTORE PUSH2 0x153A ADD MSTORE PUSH2 0x2790 PUSH1 0x0 RETURN INVALID PUSH1 0x80 PUSH1 0x40 MSTORE CALLVALUE DUP1 ISZERO PUSH2 0x10 JUMPI PUSH1 0x0 DUP1 REVERT JUMPDEST POP PUSH1 0x4 CALLDATASIZE LT PUSH2 0x137 JUMPI PUSH1 0x0 CALLDATALOAD PUSH1 0xE0 SHR DUP1 PUSH4 0x768114A4 GT PUSH2 0xB8 JUMPI DUP1 PUSH4 0xC2B7B868 GT PUSH2 0x7C JUMPI DUP1 PUSH4 0xC2B7B868 EQ PUSH2 0x36C JUMPI DUP1 PUSH4 0xD270E7AB EQ PUSH2 0x388 JUMPI DUP1 PUSH4 0xD46A5D7E EQ PUSH2 0x3A6 JUMPI DUP1 PUSH4 0xF2FDE38B EQ PUSH2 0x3C2 JUMPI DUP1 PUSH4 0xFCFF13F2 EQ PUSH2 0x3DE JUMPI DUP1 PUSH4 0xFFB18516 EQ PUSH2 0x40E JUMPI PUSH2 0x137 JUMP JUMPDEST DUP1 PUSH4 0x768114A4 EQ PUSH2 0x2B3 JUMPI DUP1 PUSH4 0x87C42C41 EQ PUSH2 0x2E3 JUMPI DUP1 PUSH4 0x8DA5CB5B EQ PUSH2 0x314 JUMPI DUP1 PUSH4 0x9F5F3A66 EQ PUSH2 0x332 JUMPI DUP1 PUSH4 0xA28889E1 EQ PUSH2 0x34E JUMPI PUSH2 0x137 JUMP JUMPDEST DUP1 PUSH4 0x46E04A2F GT PUSH2 0xFF JUMPI DUP1 PUSH4 0x46E04A2F EQ PUSH2 0x1F4 JUMPI DUP1 PUSH4 0x564A565D EQ PUSH2 0x210 JUMPI DUP1 PUSH4 0x56EEAFD9 EQ PUSH2 0x249 JUMPI DUP1 PUSH4 0x6E6B2E2D EQ PUSH2 0x279 JUMPI DUP1 PUSH4 0x715018A6 EQ PUSH2 0x2A9 JUMPI PUSH2 0x137 JUMP JUMPDEST DUP1 PUSH4 0x3D4D7E7 EQ PUSH2 0x13C JUMPI DUP1 PUSH4 0xE7D5D4E EQ PUSH2 0x16C JUMPI DUP1 PUSH4 0x2C054503 EQ PUSH2 0x18A JUMPI DUP1 PUSH4 0x3DED33BC EQ PUSH2 0x1BA JUMPI DUP1 PUSH4 0x438D649D EQ PUSH2 0x1D6 JUMPI JUMPDEST PUSH1 0x0 DUP1 REVERT JUMPDEST PUSH2 0x156 PUSH1 0x4 DUP1 CALLDATASIZE SUB DUP2 ADD SWAP1 PUSH2 0x151 SWAP2 SWAP1 PUSH2 0x1A8B JUMP JUMPDEST PUSH2 0x43E JUMP JUMPDEST PUSH1 0x40 MLOAD PUSH2 0x163 SWAP2 SWAP1 PUSH2 0x1B15 JUMP JUMPDEST PUSH1 0x40 MLOAD DUP1 SWAP2 SUB SWAP1 RETURN JUMPDEST PUSH2 0x174 PUSH2 0x759 JUMP JUMPDEST PUSH1 0x40 MLOAD PUSH2 0x181 SWAP2 SWAP1 PUSH2 0x1B8F JUMP JUMPDEST PUSH1 0x40 MLOAD DUP1 SWAP2 SUB SWAP1 RETURN JUMPDEST PUSH2 0x1A4 PUSH1 0x4 DUP1 CALLDATASIZE SUB DUP2 ADD SWAP1 PUSH2 0x19F SWAP2 SWAP1 PUSH2 0x1BAA JUMP JUMPDEST PUSH2 0x77D JUMP JUMPDEST PUSH1 0x40 MLOAD PUSH2 0x1B1 SWAP2 SWAP1 PUSH2 0x1C05 JUMP JUMPDEST PUSH1 0x40 MLOAD DUP1 SWAP2 SUB SWAP1 RETURN JUMPDEST PUSH2 0x1D4 PUSH1 0x4 DUP1 CALLDATASIZE SUB DUP2 ADD SWAP1 PUSH2 0x1CF SWAP2 SWAP1 PUSH2 0x1C20 JUMP JUMPDEST PUSH2 0x927 JUMP JUMPDEST STOP JUMPDEST PUSH2 0x1DE PUSH2 0x973 JUMP JUMPDEST PUSH1 0x40 MLOAD PUSH2 0x1EB SWAP2 SWAP1 PUSH2 0x1B15 JUMP JUMPDEST PUSH1 0x40 MLOAD DUP1 SWAP2 SUB SWAP1 RETURN JUMPDEST PUSH2 0x20E PUSH1 0x4 DUP1 CALLDATASIZE SUB DUP2 ADD SWAP1 PUSH2 0x209 SWAP2 SWAP1 PUSH2 0x1C4D JUMP JUMPDEST PUSH2 0x979 JUMP JUMPDEST STOP JUMPDEST PUSH2 0x22A PUSH1 0x4 DUP1 CALLDATASIZE SUB DUP2 ADD SWAP1 PUSH2 0x225 SWAP2 SWAP1 PUSH2 0x1C4D JUMP JUMPDEST PUSH2 0xD09 JUMP JUMPDEST PUSH1 0x40 MLOAD PUSH2 0x240 SWAP11 SWAP10 SWAP9 SWAP8 SWAP7 SWAP6 SWAP5 SWAP4 SWAP3 SWAP2 SWAP1 PUSH2 0x1C89 JUMP JUMPDEST PUSH1 0x40 MLOAD DUP1 SWAP2 SUB SWAP1 RETURN JUMPDEST PUSH2 0x263 PUSH1 0x4 DUP1 CALLDATASIZE SUB DUP2 ADD SWAP1 PUSH2 0x25E SWAP2 SWAP1 PUSH2 0x1D25 JUMP JUMPDEST PUSH2 0xDB7 JUMP JUMPDEST PUSH1 0x40 MLOAD PUSH2 0x270 SWAP2 SWAP1 PUSH2 0x1B15 JUMP JUMPDEST PUSH1 0x40 MLOAD DUP1 SWAP2 SUB SWAP1 RETURN JUMPDEST PUSH2 0x293 PUSH1 0x4 DUP1 CALLDATASIZE SUB DUP2 ADD SWAP1 PUSH2 0x28E SWAP2 SWAP1 PUSH2 0x1C4D JUMP JUMPDEST PUSH2 0xDDC JUMP JUMPDEST PUSH1 0x40 MLOAD PUSH2 0x2A0 SWAP2 SWAP1 PUSH2 0x1B15 JUMP JUMPDEST PUSH1 0x40 MLOAD DUP1 SWAP2 SUB SWAP1 RETURN JUMPDEST PUSH2 0x2B1 PUSH2 0xDF4 JUMP JUMPDEST STOP JUMPDEST PUSH2 0x2CD PUSH1 0x4 DUP1 CALLDATASIZE SUB DUP2 ADD SWAP1 PUSH2 0x2C8 SWAP2 SWAP1 PUSH2 0x1D25 JUMP JUMPDEST PUSH2 0xE08 JUMP JUMPDEST PUSH1 0x40 MLOAD PUSH2 0x2DA SWAP2 SWAP1 PUSH2 0x1B15 JUMP JUMPDEST PUSH1 0x40 MLOAD DUP1 SWAP2 SUB SWAP1 RETURN JUMPDEST PUSH2 0x2FD PUSH1 0x4 DUP1 CALLDATASIZE SUB DUP2 ADD SWAP1 PUSH2 0x2F8 SWAP2 SWAP1 PUSH2 0x1D25 JUMP JUMPDEST PUSH2 0xE2D JUMP JUMPDEST PUSH1 0x40 MLOAD PUSH2 0x30B SWAP3 SWAP2 SWAP1 PUSH2 0x1D65 JUMP JUMPDEST PUSH1 0x40 MLOAD DUP1 SWAP2 SUB SWAP1 RETURN JUMPDEST PUSH2 0x31C PUSH2 0xF21 JUMP JUMPDEST PUSH1 0x40 MLOAD PUSH2 0x329 SWAP2 SWAP1 PUSH2 0x1D8E JUMP JUMPDEST PUSH1 0x40 MLOAD DUP1 SWAP2 SUB SWAP1 RETURN JUMPDEST PUSH2 0x34C PUSH1 0x4 DUP1 CALLDATASIZE SUB DUP2 ADD SWAP1 PUSH2 0x347 SWAP2 SWAP1 PUSH2 0x1C4D JUMP JUMPDEST PUSH2 0xF4A JUMP JUMPDEST STOP JUMPDEST PUSH2 0x356 PUSH2 0xFAC JUMP JUMPDEST PUSH1 0x40 MLOAD PUSH2 0x363 SWAP2 SWAP1 PUSH2 0x1B15 JUMP JUMPDEST PUSH1 0x40 MLOAD DUP1 SWAP2 SUB SWAP1 RETURN JUMPDEST PUSH2 0x386 PUSH1 0x4 DUP1 CALLDATASIZE SUB DUP2 ADD SWAP1 PUSH2 0x381 SWAP2 SWAP1 PUSH2 0x1C4D JUMP JUMPDEST PUSH2 0xFB2 JUMP JUMPDEST STOP JUMPDEST PUSH2 0x390 PUSH2 0x1412 JUMP JUMPDEST PUSH1 0x40 MLOAD PUSH2 0x39D SWAP2 SWAP1 PUSH2 0x1D8E JUMP JUMPDEST PUSH1 0x40 MLOAD DUP1 SWAP2 SUB SWAP1 RETURN JUMPDEST PUSH2 0x3C0 PUSH1 0x4 DUP1 CALLDATASIZE SUB DUP2 ADD SWAP1 PUSH2 0x3BB SWAP2 SWAP1 PUSH2 0x1DD5 JUMP JUMPDEST PUSH2 0x1438 JUMP JUMPDEST STOP JUMPDEST PUSH2 0x3DC PUSH1 0x4 DUP1 CALLDATASIZE SUB DUP2 ADD SWAP1 PUSH2 0x3D7 SWAP2 SWAP1 PUSH2 0x1C20 JUMP JUMPDEST PUSH2 0x17B5 JUMP JUMPDEST STOP JUMPDEST PUSH2 0x3F8 PUSH1 0x4 DUP1 CALLDATASIZE SUB DUP2 ADD SWAP1 PUSH2 0x3F3 SWAP2 SWAP1 PUSH2 0x1D25 JUMP JUMPDEST PUSH2 0x1838 JUMP JUMPDEST PUSH1 0x40 MLOAD PUSH2 0x405 SWAP2 SWAP1 PUSH2 0x1B15 JUMP JUMPDEST PUSH1 0x40 MLOAD DUP1 SWAP2 SUB SWAP1 RETURN JUMPDEST PUSH2 0x428 PUSH1 0x4 DUP1 CALLDATASIZE SUB DUP2 ADD SWAP1 PUSH2 0x423 SWAP2 SWAP1 PUSH2 0x1E5E JUMP JUMPDEST PUSH2 0x185D JUMP JUMPDEST PUSH1 0x40 MLOAD PUSH2 0x435 SWAP2 SWAP1 PUSH2 0x1B15 JUMP JUMPDEST PUSH1 0x40 MLOAD DUP1 SWAP2 SUB SWAP1 RETURN JUMPDEST PUSH1 0x0 PUSH1 0x1 PUSH1 0x0 SWAP1 SLOAD SWAP1 PUSH2 0x100 EXP SWAP1 DIV PUSH20 0xFFFFFFFFFFFFFFFFFFFFFFFFFFFFFFFFFFFFFFFF AND PUSH20 0xFFFFFFFFFFFFFFFFFFFFFFFFFFFFFFFFFFFFFFFF AND CALLER PUSH20 0xFFFFFFFFFFFFFFFFFFFFFFFFFFFFFFFFFFFFFFFF AND EQ PUSH2 0x4D0 JUMPI PUSH1 0x40 MLOAD PUSH32 0x8C379A000000000000000000000000000000000000000000000000000000000 DUP2 MSTORE PUSH1 0x4 ADD PUSH2 0x4C7 SWAP1 PUSH2 0x1EE8 JUMP JUMPDEST PUSH1 0x40 MLOAD DUP1 SWAP2 SUB SWAP1 REVERT JUMPDEST PUSH2 0x4DA DUP5 DUP5 PUSH2 0x77D JUMP JUMPDEST PUSH2 0x519 JUMPI PUSH1 0x40 MLOAD PUSH32 0x8C379A000000000000000000000000000000000000000000000000000000000 DUP2 MSTORE PUSH1 0x4 ADD PUSH2 0x510 SWAP1 PUSH2 0x1FA0 JUMP JUMPDEST PUSH1 0x40 MLOAD DUP1 SWAP2 SUB SWAP1 REVERT JUMPDEST PUSH1 0x0 PUSH1 0x9 PUSH1 0x0 DUP2 SLOAD DUP1 SWAP3 SWAP2 SWAP1 PUSH2 0x52E SWAP1 PUSH2 0x1FEF JUMP JUMPDEST SWAP2 SWAP1 POP SSTORE SWAP1 POP PUSH1 0x40 MLOAD DUP1 PUSH2 0x140 ADD PUSH1 0x40 MSTORE DUP1 DUP9 PUSH20 0xFFFFFFFFFFFFFFFFFFFFFFFFFFFFFFFFFFFFFFFF AND DUP2 MSTORE PUSH1 0x20 ADD DUP8 PUSH20 0xFFFFFFFFFFFFFFFFFFFFFFFFFFFFFFFFFFFFFFFF AND DUP2 MSTORE PUSH1 0x20 ADD DUP7 DUP2 MSTORE PUSH1 0x20 ADD DUP6 DUP2 MSTORE PUSH1 0x20 ADD DUP5 DUP2 MSTORE PUSH1 0x20 ADD PUSH1 0x0 DUP2 MSTORE PUSH1 0x20 ADD PUSH1 0x0 DUP2 MSTORE PUSH1 0x20 ADD PUSH2 0x2D0 TIMESTAMP PUSH2 0x5A6 SWAP2 SWAP1 PUSH2 0x2037 JUMP JUMPDEST DUP2 MSTORE PUSH1 0x20 ADD PUSH1 0x0 ISZERO ISZERO DUP2 MSTORE PUSH1 0x20 ADD PUSH1 0x0 ISZERO ISZERO DUP2 MSTORE POP PUSH1 0x2 PUSH1 0x0 DUP4 DUP2 MSTORE PUSH1 0x20 ADD SWAP1 DUP2 MSTORE PUSH1 0x20 ADD PUSH1 0x0 KECCAK256 PUSH1 0x0 DUP3 ADD MLOAD DUP2 PUSH1 0x0 ADD PUSH1 0x0 PUSH2 0x100 EXP DUP2 SLOAD DUP2 PUSH20 0xFFFFFFFFFFFFFFFFFFFFFFFFFFFFFFFFFFFFFFFF MUL NOT AND SWAP1 DUP4 PUSH20 0xFFFFFFFFFFFFFFFFFFFFFFFFFFFFFFFFFFFFFFFF AND MUL OR SWAP1 SSTORE POP PUSH1 0x20 DUP3 ADD MLOAD DUP2 PUSH1 0x1 ADD PUSH1 0x0 PUSH2 0x100 EXP DUP2 SLOAD DUP2 PUSH20 0xFFFFFFFFFFFFFFFFFFFFFFFFFFFFFFFFFFFFFFFF MUL NOT AND SWAP1 DUP4 PUSH20 0xFFFFFFFFFFFFFFFFFFFFFFFFFFFFFFFFFFFFFFFF AND MUL OR SWAP1 SSTORE POP PUSH1 0x40 DUP3 ADD MLOAD DUP2 PUSH1 0x2 ADD SSTORE PUSH1 0x60 DUP3 ADD MLOAD DUP2 PUSH1 0x3 ADD SSTORE PUSH1 0x80 DUP3 ADD MLOAD DUP2 PUSH1 0x4 ADD SSTORE PUSH1 0xA0 DUP3 ADD MLOAD DUP2 PUSH1 0x5 ADD SSTORE PUSH1 0xC0 DUP3 ADD MLOAD DUP2 PUSH1 0x6 ADD SSTORE PUSH1 0xE0 DUP3 ADD MLOAD DUP2 PUSH1 0x7 ADD SSTORE PUSH2 0x100 DUP3 ADD MLOAD DUP2 PUSH1 0x8 ADD PUSH1 0x0 PUSH2 0x100 EXP DUP2 SLOAD DUP2 PUSH1 0xFF MUL NOT AND SWAP1 DUP4 ISZERO ISZERO MUL OR SWAP1 SSTORE POP PUSH2 0x120 DUP3 ADD MLOAD DUP2 PUSH1 0x8 ADD PUSH1 0x1 PUSH2 0x100 EXP DUP2 SLOAD DUP2 PUSH1 0xFF MUL NOT AND SWAP1 DUP4 ISZERO ISZERO MUL OR SWAP1 SSTORE POP SWAP1 POP POP PUSH1 0x0 PUSH2 0x6E9 DUP7 DUP7 PUSH2 0x1875 JUMP JUMPDEST SWAP1 POP PUSH1 0x1 DUP3 PUSH2 0x6F8 SWAP2 SWAP1 PUSH2 0x2037 JUMP JUMPDEST PUSH1 0x7 PUSH1 0x0 DUP4 DUP2 MSTORE PUSH1 0x20 ADD SWAP1 DUP2 MSTORE PUSH1 0x20 ADD PUSH1 0x0 KECCAK256 DUP2 SWAP1 SSTORE POP DUP2 DUP6 DUP8 PUSH32 0xFC7FBF4C318BA42AF9B9BBBFF385C82E86C3422DBBAF01FF414D0C96FA201EC7 DUP12 DUP12 PUSH1 0x40 MLOAD PUSH2 0x743 SWAP3 SWAP2 SWAP1 PUSH2 0x206B JUMP JUMPDEST PUSH1 0x40 MLOAD DUP1 SWAP2 SUB SWAP1 LOG4 DUP2 SWAP3 POP POP POP SWAP6 SWAP5 POP POP POP POP POP JUMP JUMPDEST PUSH32 0x0 DUP2 JUMP JUMPDEST PUSH1 0x0 DUP1 PUSH2 0x78A DUP5 DUP5 PUSH2 0x1875 JUMP JUMPDEST SWAP1 POP PUSH1 0x0 PUSH1 0x7 PUSH1 0x0 DUP4 DUP2 MSTORE PUSH1 0x20 ADD SWAP1 DUP2 MSTORE PUSH1 0x20 ADD PUSH1 0x0 KECCAK256 SLOAD SWAP1 POP PUSH1 0x0 DUP2 SUB PUSH2 0x7B7 JUMPI PUSH1 0x1 SWAP3 POP POP POP PUSH2 0x921 JUMP JUMPDEST PUSH1 0x0 PUSH1 0x2 PUSH1 0x0 PUSH1 0x1 DUP5 PUSH2 0x7CA SWAP2 SWAP1 PUSH2 0x2094 JUMP JUMPDEST DUP2 MSTORE PUSH1 0x20 ADD SWAP1 DUP2 MSTORE PUSH1 0x20 ADD PUSH1 0x0 KECCAK256 PUSH1 0x40 MLOAD DUP1 PUSH2 0x140 ADD PUSH1 0x40 MSTORE SWAP1 DUP2 PUSH1 0x0 DUP3 ADD PUSH1 0x0 SWAP1 SLOAD SWAP1 PUSH2 0x100 EXP SWAP1 DIV PUSH20 0xFFFFFFFFFFFFFFFFFFFFFFFFFFFFFFFFFFFFFFFF AND PUSH20 0xFFFFFFFFFFFFFFFFFFFFFFFFFFFFFFFFFFFFFFFF AND PUSH20 0xFFFFFFFFFFFFFFFFFFFFFFFFFFFFFFFFFFFFFFFF AND DUP2 MSTORE PUSH1 0x20 ADD PUSH1 0x1 DUP3 ADD PUSH1 0x0 SWAP1 SLOAD SWAP1 PUSH2 0x100 EXP SWAP1 DIV PUSH20 0xFFFFFFFFFFFFFFFFFFFFFFFFFFFFFFFFFFFFFFFF AND PUSH20 0xFFFFFFFFFFFFFFFFFFFFFFFFFFFFFFFFFFFFFFFF AND PUSH20 0xFFFFFFFFFFFFFFFFFFFFFFFFFFFFFFFFFFFFFFFF AND DUP2 MSTORE PUSH1 0x20 ADD PUSH1 0x2 DUP3 ADD SLOAD DUP2 MSTORE PUSH1 0x20 ADD PUSH1 0x3 DUP3 ADD SLOAD DUP2 MSTORE PUSH1 0x20 ADD PUSH1 0x4 DUP3 ADD SLOAD DUP2 MSTORE PUSH1 0x20 ADD PUSH1 0x5 DUP3 ADD SLOAD DUP2 MSTORE PUSH1 0x20 ADD PUSH1 0x6 DUP3 ADD SLOAD DUP2 MSTORE PUSH1 0x20 ADD PUSH1 0x7 DUP3 ADD SLOAD DUP2 MSTORE PUSH1 0x20 ADD PUSH1 0x8 DUP3 ADD PUSH1 0x0 SWAP1 SLOAD SWAP1 PUSH2 0x100 EXP SWAP1 DIV PUSH1 0xFF AND ISZERO ISZERO ISZERO ISZERO DUP2 MSTORE PUSH1 0x20 ADD PUSH1 0x8 DUP3 ADD PUSH1 0x1 SWAP1 SLOAD SWAP1 PUSH2 0x100 EXP SWAP1 DIV PUSH1 0xFF AND ISZERO ISZERO ISZERO ISZERO DUP2 MSTORE POP POP SWAP1 POP DUP1 PUSH2 0x100 ADD MLOAD ISZERO DUP1 ISZERO PUSH2 0x91B JUMPI POP TIMESTAMP DUP2 PUSH1 0xE0 ADD MLOAD GT ISZERO JUMPDEST SWAP4 POP POP POP POP JUMPDEST SWAP3 SWAP2 POP POP JUMP JUMPDEST PUSH2 0x92F PUSH2 0x18A8 JUMP JUMPDEST DUP1 PUSH1 0x1 PUSH1 0x0 PUSH2 0x100 EXP DUP2 SLOAD DUP2 PUSH20 0xFFFFFFFFFFFFFFFFFFFFFFFFFFFFFFFFFFFFFFFF MUL NOT AND SWAP1 DUP4 PUSH20 0xFFFFFFFFFFFFFFFFFFFFFFFFFFFFFFFFFFFFFFFF AND MUL OR SWAP1 SSTORE POP POP JUMP JUMPDEST PUSH1 0x8 SLOAD DUP2 JUMP JUMPDEST PUSH1 0x9 SLOAD DUP2 LT PUSH2 0x9BD JUMPI PUSH1 0x40 MLOAD PUSH32 0x8C379A000000000000000000000000000000000000000000000000000000000 DUP2 MSTORE PUSH1 0x4 ADD PUSH2 0x9B4 SWAP1 PUSH2 0x2114 JUMP JUMPDEST PUSH1 0x40 MLOAD DUP1 SWAP2 SUB SWAP1 REVERT JUMPDEST PUSH1 0x2 PUSH1 0x0 DUP3 DUP2 MSTORE PUSH1 0x20 ADD SWAP1 DUP2 MSTORE PUSH1 0x20 ADD PUSH1 0x0 KECCAK256 PUSH1 0x8 ADD PUSH1 0x0 SWAP1 SLOAD SWAP1 PUSH2 0x100 EXP SWAP1 DIV PUSH1 0xFF AND PUSH2 0xA20 JUMPI PUSH1 0x40 MLOAD PUSH32 0x8C379A000000000000000000000000000000000000000000000000000000000 DUP2 MSTORE PUSH1 0x4 ADD PUSH2 0xA17 SWAP1 PUSH2 0x21A6 JUMP JUMPDEST PUSH1 0x40 MLOAD DUP1 SWAP2 SUB SWAP1 REVERT JUMPDEST PUSH1 0x0 PUSH1 0x3 PUSH1 0x0 DUP4 DUP2 MSTORE PUSH1 0x20 ADD SWAP1 DUP2 MSTORE PUSH1 0x20 ADD PUSH1 0x0 KECCAK256 PUSH1 0x0 CALLER PUSH20 0xFFFFFFFFFFFFFFFFFFFFFFFFFFFFFFFFFFFFFFFF AND PUSH20 0xFFFFFFFFFFFFFFFFFFFFFFFFFFFFFFFFFFFFFFFF AND DUP2 MSTORE PUSH1 0x20 ADD SWAP1 DUP2 MSTORE PUSH1 0x20 ADD PUSH1 0x0 KECCAK256 SLOAD SWAP1 POP PUSH1 0x0 DUP2 GT PUSH2 0xAB8 JUMPI PUSH1 0x40 MLOAD PUSH32 0x8C379A000000000000000000000000000000000000000000000000000000000 DUP2 MSTORE PUSH1 0x4 ADD PUSH2 0xAAF SWAP1 PUSH2 0x2212 JUMP JUMPDEST PUSH1 0x40 MLOAD DUP1 SWAP2 SUB SWAP1 REVERT JUMPDEST PUSH1 0x0 PUSH1 0x2 PUSH1 0x0 DUP5 DUP2 MSTORE PUSH1 0x20 ADD SWAP1 DUP2 MSTORE PUSH1 0x20 ADD PUSH1 0x0 KECCAK256 PUSH1 0x6 ADD SLOAD PUSH1 0x2 PUSH1 0x0 DUP6 DUP2 MSTORE PUSH1 0x20 ADD SWAP1 DUP2 MSTORE PUSH1 0x20 ADD PUSH1 0x0 KECCAK256 PUSH1 0x5 ADD SLOAD GT SWAP1 POP PUSH1 0x0 DUP1 PUSH1 0x2 PUSH1 0x0 DUP7 DUP2 MSTORE PUSH1 0x20 ADD SWAP1 DUP2 MSTORE PUSH1 0x20 ADD PUSH1 0x0 KECCAK256 PUSH1 0x5 ADD SLOAD GT SWAP1 POP PUSH1 0x0 DUP3 DUP1 ISZERO PUSH2 0xB14 JUMPI POP DUP2 JUMPDEST DUP1 PUSH2 0xB27 JUMPI POP DUP3 ISZERO DUP1 ISZERO PUSH2 0xB26 JUMPI POP DUP2 ISZERO JUMPDEST JUMPDEST SWAP1 POP PUSH1 0x0 DUP1 DUP5 ISZERO PUSH2 0xB69 JUMPI PUSH1 0x2 PUSH1 0x0 DUP9 DUP2 MSTORE PUSH1 0x20 ADD SWAP1 DUP2 MSTORE PUSH1 0x20 ADD PUSH1 0x0 KECCAK256 PUSH1 0x5 ADD SLOAD SWAP2 POP PUSH1 0x2 PUSH1 0x0 DUP9 DUP2 MSTORE PUSH1 0x20 ADD SWAP1 DUP2 MSTORE PUSH1 0x20 ADD PUSH1 0x0 KECCAK256 PUSH1 0x6 ADD SLOAD SWAP1 POP PUSH2 0xB9C JUMP JUMPDEST PUSH1 0x2 PUSH1 0x0 DUP9 DUP2 MSTORE PUSH1 0x20 ADD SWAP1 DUP2 MSTORE PUSH1 0x20 ADD PUSH1 0x0 KECCAK256 PUSH1 0x6 ADD SLOAD SWAP2 POP PUSH1 0x2 PUSH1 0x0 DUP9 DUP2 MSTORE PUSH1 0x20 ADD SWAP1 DUP2 MSTORE PUSH1 0x20 ADD PUSH1 0x0 KECCAK256 PUSH1 0x5 ADD SLOAD SWAP1 POP JUMPDEST DUP3 ISZERO PUSH2 0xBEF JUMPI PUSH1 0x0 PUSH1 0x64 PUSH1 0xA DUP4 PUSH2 0xBB3 SWAP2 SWAP1 PUSH2 0x2232 JUMP JUMPDEST PUSH2 0xBBD SWAP2 SWAP1 PUSH2 0x22A3 JUMP JUMPDEST SWAP1 POP PUSH1 0x0 DUP4 DUP3 DUP10 PUSH2 0xBCE SWAP2 SWAP1 PUSH2 0x2232 JUMP JUMPDEST PUSH2 0xBD8 SWAP2 SWAP1 PUSH2 0x22A3 JUMP JUMPDEST SWAP1 POP DUP1 DUP9 PUSH2 0xBE6 SWAP2 SWAP1 PUSH2 0x2037 JUMP JUMPDEST SWAP8 POP POP POP PUSH2 0xC0B JUMP JUMPDEST PUSH1 0x64 PUSH1 0x5A DUP8 PUSH2 0xBFE SWAP2 SWAP1 PUSH2 0x2232 JUMP JUMPDEST PUSH2 0xC08 SWAP2 SWAP1 PUSH2 0x22A3 JUMP JUMPDEST SWAP6 POP JUMPDEST PUSH1 0x0 PUSH1 0x3 PUSH1 0x0 DUP10 DUP2 MSTORE PUSH1 0x20 ADD SWAP1 DUP2 MSTORE PUSH1 0x20 ADD PUSH1 0x0 KECCAK256 PUSH1 0x0 CALLER PUSH20 0xFFFFFFFFFFFFFFFFFFFFFFFFFFFFFFFFFFFFFFFF AND PUSH20 0xFFFFFFFFFFFFFFFFFFFFFFFFFFFFFFFFFFFFFFFF AND DUP2 MSTORE PUSH1 0x20 ADD SWAP1 DUP2 MSTORE PUSH1 0x20 ADD PUSH1 0x0 KECCAK256 DUP2 SWAP1 SSTORE POP PUSH32 0x0 PUSH20 0xFFFFFFFFFFFFFFFFFFFFFFFFFFFFFFFFFFFFFFFF AND PUSH4 0xA9059CBB CALLER DUP9 PUSH1 0x40 MLOAD DUP4 PUSH4 0xFFFFFFFF AND PUSH1 0xE0 SHL DUP2 MSTORE PUSH1 0x4 ADD PUSH2 0xCBC SWAP3 SWAP2 SWAP1 PUSH2 0x22D4 JUMP JUMPDEST PUSH1 0x20 PUSH1 0x40 MLOAD DUP1 DUP4 SUB DUP2 PUSH1 0x0 DUP8 GAS CALL ISZERO DUP1 ISZERO PUSH2 0xCDB JUMPI RETURNDATASIZE PUSH1 0x0 DUP1 RETURNDATACOPY RETURNDATASIZE PUSH1 0x0 REVERT JUMPDEST POP POP POP POP PUSH1 0x40 MLOAD RETURNDATASIZE PUSH1 0x1F NOT PUSH1 0x1F DUP3 ADD AND DUP3 ADD DUP1 PUSH1 0x40 MSTORE POP DUP2 ADD SWAP1 PUSH2 0xCFF SWAP2 SWAP1 PUSH2 0x2312 JUMP JUMPDEST POP POP POP POP POP POP POP POP JUMP JUMPDEST PUSH1 0x2 PUSH1 0x20 MSTORE DUP1 PUSH1 0x0 MSTORE PUSH1 0x40 PUSH1 0x0 KECCAK256 PUSH1 0x0 SWAP2 POP SWAP1 POP DUP1 PUSH1 0x0 ADD PUSH1 0x0 SWAP1 SLOAD SWAP1 PUSH2 0x100 EXP SWAP1 DIV PUSH20 0xFFFFFFFFFFFFFFFFFFFFFFFFFFFFFFFFFFFFFFFF AND SWAP1 DUP1 PUSH1 0x1 ADD PUSH1 0x0 SWAP1 SLOAD SWAP1 PUSH2 0x100 EXP SWAP1 DIV PUSH20 0xFFFFFFFFFFFFFFFFFFFFFFFFFFFFFFFFFFFFFFFF AND SWAP1 DUP1 PUSH1 0x2 ADD SLOAD SWAP1 DUP1 PUSH1 0x3 ADD SLOAD SWAP1 DUP1 PUSH1 0x4 ADD SLOAD SWAP1 DUP1 PUSH1 0x5 ADD SLOAD SWAP1 DUP1 PUSH1 0x6 ADD SLOAD SWAP1 DUP1 PUSH1 0x7 ADD SLOAD SWAP1 DUP1 PUSH1 0x8 ADD PUSH1 0x0 SWAP1 SLOAD SWAP1 PUSH2 0x100 EXP SWAP1 DIV PUSH1 0xFF AND SWAP1 DUP1 PUSH1 0x8 ADD PUSH1 0x1 SWAP1 SLOAD SWAP1 PUSH2 0x100 EXP SWAP1 DIV PUSH1 0xFF AND SWAP1 POP DUP11 JUMP JUMPDEST PUSH1 0x3 PUSH1 0x20 MSTORE DUP2 PUSH1 0x0 MSTORE PUSH1 0x40 PUSH1 0x0 KECCAK256 PUSH1 0x20 MSTORE DUP1 PUSH1 0x0 MSTORE PUSH1 0x40 PUSH1 0x0 KECCAK256 PUSH1 0x0 SWAP2 POP SWAP2 POP POP SLOAD DUP2 JUMP JUMPDEST PUSH1 0x6 PUSH1 0x20 MSTORE DUP1 PUSH1 0x0 MSTORE PUSH1 0x40 PUSH1 0x0 KECCAK256 PUSH1 0x0 SWAP2 POP SWAP1 POP SLOAD DUP2 JUMP JUMPDEST PUSH2 0xDFC PUSH2 0x18A8 JUMP JUMPDEST PUSH2 0xE06 PUSH1 0x0 PUSH2 0x1926 JUMP JUMPDEST JUMP JUMPDEST PUSH1 0x4 PUSH1 0x20 MSTORE DUP2 PUSH1 0x0 MSTORE PUSH1 0x40 PUSH1 0x0 KECCAK256 PUSH1 0x20 MSTORE DUP1 PUSH1 0x0 MSTORE PUSH1 0x40 PUSH1 0x0 KECCAK256 PUSH1 0x0 SWAP2 POP SWAP2 POP POP SLOAD DUP2 JUMP JUMPDEST PUSH1 0x0 DUP1 PUSH1 0x9 SLOAD DUP5 LT PUSH2 0xE74 JUMPI PUSH1 0x40 MLOAD PUSH32 0x8C379A000000000000000000000000000000000000000000000000000000000 DUP2 MSTORE PUSH1 0x4 ADD PUSH2 0xE6B SWAP1 PUSH2 0x2114 JUMP JUMPDEST PUSH1 0x40 MLOAD DUP1 SWAP2 SUB SWAP1 REVERT JUMPDEST PUSH1 0x4 PUSH1 0x0 DUP6 DUP2 MSTORE PUSH1 0x20 ADD SWAP1 DUP2 MSTORE PUSH1 0x20 ADD PUSH1 0x0 KECCAK256 PUSH1 0x0 DUP5 PUSH20 0xFFFFFFFFFFFFFFFFFFFFFFFFFFFFFFFFFFFFFFFF AND PUSH20 0xFFFFFFFFFFFFFFFFFFFFFFFFFFFFFFFFFFFFFFFF AND DUP2 MSTORE PUSH1 0x20 ADD SWAP1 DUP2 MSTORE PUSH1 0x20 ADD PUSH1 0x0 KECCAK256 SLOAD SWAP2 POP PUSH1 0x5 PUSH1 0x0 DUP6 DUP2 MSTORE PUSH1 0x20 ADD SWAP1 DUP2 MSTORE PUSH1 0x20 ADD PUSH1 0x0 KECCAK256 PUSH1 0x0 DUP5 PUSH20 0xFFFFFFFFFFFFFFFFFFFFFFFFFFFFFFFFFFFFFFFF AND PUSH20 0xFFFFFFFFFFFFFFFFFFFFFFFFFFFFFFFFFFFFFFFF AND DUP2 MSTORE PUSH1 0x20 ADD SWAP1 DUP2 MSTORE PUSH1 0x20 ADD PUSH1 0x0 KECCAK256 SLOAD SWAP1 POP SWAP3 POP SWAP3 SWAP1 POP JUMP JUMPDEST PUSH1 0x0 DUP1 PUSH1 0x0 SWAP1 SLOAD SWAP1 PUSH2 0x100 EXP SWAP1 DIV PUSH20 0xFFFFFFFFFFFFFFFFFFFFFFFFFFFFFFFFFFFFFFFF AND SWAP1 POP SWAP1 JUMP JUMPDEST PUSH2 0xF52 PUSH2 0x18A8 JUMP JUMPDEST PUSH1 0x0 DUP2 GT DUP1 ISZERO PUSH2 0xF63 JUMPI POP PUSH1 0x64 DUP2 GT ISZERO JUMPDEST PUSH2 0xFA2 JUMPI PUSH1 0x40 MLOAD PUSH32 0x8C379A000000000000000000000000000000000000000000000000000000000 DUP2 MSTORE PUSH1 0x4 ADD PUSH2 0xF99 SWAP1 PUSH2 0x238B JUMP JUMPDEST PUSH1 0x40 MLOAD DUP1 SWAP2 SUB SWAP1 REVERT JUMPDEST DUP1 PUSH1 0x8 DUP2 SWAP1 SSTORE POP POP JUMP JUMPDEST PUSH1 0x9 SLOAD DUP2 JUMP JUMPDEST PUSH1 0x2 PUSH1 0x0 DUP3 DUP2 MSTORE PUSH1 0x20 ADD SWAP1 DUP2 MSTORE PUSH1 0x20 ADD PUSH1 0x0 KECCAK256 PUSH1 0x8 ADD PUSH1 0x0 SWAP1 SLOAD SWAP1 PUSH2 0x100 EXP SWAP1 DIV PUSH1 0xFF AND ISZERO PUSH2 0x1016 JUMPI PUSH1 0x40 MLOAD PUSH32 0x8C379A000000000000000000000000000000000000000000000000000000000 DUP2 MSTORE PUSH1 0x4 ADD PUSH2 0x100D SWAP1 PUSH2 0x241D JUMP JUMPDEST PUSH1 0x40 MLOAD DUP1 SWAP2 SUB SWAP1 REVERT JUMPDEST PUSH1 0x2 PUSH1 0x0 DUP3 DUP2 MSTORE PUSH1 0x20 ADD SWAP1 DUP2 MSTORE PUSH1 0x20 ADD PUSH1 0x0 KECCAK256 PUSH1 0x7 ADD SLOAD TIMESTAMP GT PUSH2 0x106E JUMPI PUSH1 0x40 MLOAD PUSH32 0x8C379A000000000000000000000000000000000000000000000000000000000 DUP2 MSTORE PUSH1 0x4 ADD PUSH2 0x1065 SWAP1 PUSH2 0x24AF JUMP JUMPDEST PUSH1 0x40 MLOAD DUP1 SWAP2 SUB SWAP1 REVERT JUMPDEST PUSH1 0x0 DUP1 PUSH1 0x2 PUSH1 0x0 DUP5 DUP2 MSTORE PUSH1 0x20 ADD SWAP1 DUP2 MSTORE PUSH1 0x20 ADD PUSH1 0x0 KECCAK256 PUSH1 0x6 ADD SLOAD PUSH1 0x2 PUSH1 0x0 DUP6 DUP2 MSTORE PUSH1 0x20 ADD SWAP1 DUP2 MSTORE PUSH1 0x20 ADD PUSH1 0x0 KECCAK256 PUSH1 0x5 ADD SLOAD PUSH2 0x10A9 SWAP2 SWAP1 PUSH2 0x2037 JUMP JUMPDEST SWAP1 POP PUSH1 0x8 SLOAD DUP2 PUSH2 0x10B9 SWAP2 SWAP1 PUSH2 0x2232 JUMP JUMPDEST PUSH1 0x64 PUSH1 0x2 PUSH1 0x0 DUP7 DUP2 MSTORE PUSH1 0x20 ADD SWAP1 DUP2 MSTORE PUSH1 0x20 ADD PUSH1 0x0 KECCAK256 PUSH1 0x5 ADD SLOAD PUSH2 0x10DC SWAP2 SWAP1 PUSH2 0x2232 JUMP JUMPDEST LT PUSH2 0x10EA JUMPI PUSH1 0x1 SWAP2 POP PUSH2 0x1126 JUMP JUMPDEST PUSH1 0x8 SLOAD DUP2 PUSH2 0x10F8 SWAP2 SWAP1 PUSH2 0x2232 JUMP JUMPDEST PUSH1 0x64 PUSH1 0x2 PUSH1 0x0 DUP7 DUP2 MSTORE PUSH1 0x20 ADD SWAP1 DUP2 MSTORE PUSH1 0x20 ADD PUSH1 0x0 KECCAK256 PUSH1 0x6 ADD SLOAD PUSH2 0x111B SWAP2 SWAP1 PUSH2 0x2232 JUMP JUMPDEST LT PUSH2 0x1125 JUMPI PUSH1 0x0 SWAP2 POP JUMPDEST JUMPDEST DUP2 ISZERO PUSH2 0x126B JUMPI PUSH1 0x1 PUSH1 0x2 PUSH1 0x0 DUP6 DUP2 MSTORE PUSH1 0x20 ADD SWAP1 DUP2 MSTORE PUSH1 0x20 ADD PUSH1 0x0 KECCAK256 PUSH1 0x8 ADD PUSH1 0x1 PUSH2 0x100 EXP DUP2 SLOAD DUP2 PUSH1 0xFF MUL NOT AND SWAP1 DUP4 ISZERO ISZERO MUL OR SWAP1 SSTORE POP PUSH1 0x1 PUSH1 0x0 SWAP1 SLOAD SWAP1 PUSH2 0x100 EXP SWAP1 DIV PUSH20 0xFFFFFFFFFFFFFFFFFFFFFFFFFFFFFFFFFFFFFFFF AND PUSH20 0xFFFFFFFFFFFFFFFFFFFFFFFFFFFFFFFFFFFFFFFF AND PUSH4 0x7A30BDE6 PUSH1 0x2 PUSH1 0x0 DUP7 DUP2 MSTORE PUSH1 0x20 ADD SWAP1 DUP2 MSTORE PUSH1 0x20 ADD PUSH1 0x0 KECCAK256 PUSH1 0x2 ADD SLOAD PUSH1 0x2 PUSH1 0x0 DUP8 DUP2 MSTORE PUSH1 0x20 ADD SWAP1 DUP2 MSTORE PUSH1 0x20 ADD PUSH1 0x0 KECCAK256 PUSH1 0x3 ADD SLOAD PUSH1 0x2 PUSH1 0x0 DUP9 DUP2 MSTORE PUSH1 0x20 ADD SWAP1 DUP2 MSTORE PUSH1 0x20 ADD PUSH1 0x0 KECCAK256 PUSH1 0x0 ADD PUSH1 0x0 SWAP1 SLOAD SWAP1 PUSH2 0x100 EXP SWAP1 DIV PUSH20 0xFFFFFFFFFFFFFFFFFFFFFFFFFFFFFFFFFFFFFFFF AND PUSH1 0x2 PUSH1 0x0 DUP10 DUP2 MSTORE PUSH1 0x20 ADD SWAP1 DUP2 MSTORE PUSH1 0x20 ADD PUSH1 0x0 KECCAK256 PUSH1 0x4 ADD SLOAD PUSH1 0x40 MLOAD DUP6 PUSH4 0xFFFFFFFF AND PUSH1 0xE0 SHL DUP2 MSTORE PUSH1 0x4 ADD PUSH2 0x1234 SWAP5 SWAP4 SWAP3 SWAP2 SWAP1 PUSH2 0x24F0 JUMP JUMPDEST PUSH1 0x0 PUSH1 0x40 MLOAD DUP1 DUP4 SUB DUP2 PUSH1 0x0 DUP8 DUP1 EXTCODESIZE ISZERO DUP1 ISZERO PUSH2 0x124E JUMPI PUSH1 0x0 DUP1 REVERT JUMPDEST POP GAS CALL ISZERO DUP1 ISZERO PUSH2 0x1262 JUMPI RETURNDATASIZE PUSH1 0x0 DUP1 RETURNDATACOPY RETURNDATASIZE PUSH1 0x0 REVERT JUMPDEST POP POP POP POP PUSH2 0x13A6 JUMP JUMPDEST PUSH1 0x0 PUSH1 0x2 PUSH1 0x0 DUP6 DUP2 MSTORE PUSH1 0x20 ADD SWAP1 DUP2 MSTORE PUSH1 0x20 ADD PUSH1 0x0 KECCAK256 PUSH1 0x8 ADD PUSH1 0x1 PUSH2 0x100 EXP DUP2 SLOAD DUP2 PUSH1 0xFF MUL NOT AND SWAP1 DUP4 ISZERO ISZERO MUL OR SWAP1 SSTORE POP PUSH1 0x1 PUSH1 0x0 SWAP1 SLOAD SWAP1 PUSH2 0x100 EXP SWAP1 DIV PUSH20 0xFFFFFFFFFFFFFFFFFFFFFFFFFFFFFFFFFFFFFFFF AND PUSH20 0xFFFFFFFFFFFFFFFFFFFFFFFFFFFFFFFFFFFFFFFF AND PUSH4 0x7A30BDE6 PUSH1 0x2 PUSH1 0x0 DUP7 DUP2 MSTORE PUSH1 0x20 ADD SWAP1 DUP2 MSTORE PUSH1 0x20 ADD PUSH1 0x0 KECCAK256 PUSH1 0x2 ADD SLOAD PUSH1 0x2 PUSH1 0x0 DUP8 DUP2 MSTORE PUSH1 0x20 ADD SWAP1 DUP2 MSTORE PUSH1 0x20 ADD PUSH1 0x0 KECCAK256 PUSH1 0x3 ADD SLOAD PUSH1 0x2 PUSH1 0x0 DUP9 DUP2 MSTORE PUSH1 0x20 ADD SWAP1 DUP2 MSTORE PUSH1 0x20 ADD PUSH1 0x0 KECCAK256 PUSH1 0x1 ADD PUSH1 0x0 SWAP1 SLOAD SWAP1 PUSH2 0x100 EXP SWAP1 DIV PUSH20 0xFFFFFFFFFFFFFFFFFFFFFFFFFFFFFFFFFFFFFFFF AND PUSH1 0x2 PUSH1 0x0 DUP10 DUP2 MSTORE PUSH1 0x20 ADD SWAP1 DUP2 MSTORE PUSH1 0x20 ADD PUSH1 0x0 KECCAK256 PUSH1 0x4 ADD SLOAD PUSH1 0x40 MLOAD DUP6 PUSH4 0xFFFFFFFF AND PUSH1 0xE0 SHL DUP2 MSTORE PUSH1 0x4 ADD PUSH2 0x1373 SWAP5 SWAP4 SWAP3 SWAP2 SWAP1 PUSH2 0x24F0 JUMP JUMPDEST PUSH1 0x0 PUSH1 0x40 MLOAD DUP1 DUP4 SUB DUP2 PUSH1 0x0 DUP8 DUP1 EXTCODESIZE ISZERO DUP1 ISZERO PUSH2 0x138D JUMPI PUSH1 0x0 DUP1 REVERT JUMPDEST POP GAS CALL ISZERO DUP1 ISZERO PUSH2 0x13A1 JUMPI RETURNDATASIZE PUSH1 0x0 DUP1 RETURNDATACOPY RETURNDATASIZE PUSH1 0x0 REVERT JUMPDEST POP POP POP POP JUMPDEST PUSH1 0x1 PUSH1 0x2 PUSH1 0x0 DUP6 DUP2 MSTORE PUSH1 0x20 ADD SWAP1 DUP2 MSTORE PUSH1 0x20 ADD PUSH1 0x0 KECCAK256 PUSH1 0x8 ADD PUSH1 0x0 PUSH2 0x100 EXP DUP2 SLOAD DUP2 PUSH1 0xFF MUL NOT AND SWAP1 DUP4 ISZERO ISZERO MUL OR SWAP1 SSTORE POP DUP3 PUSH32 0x5A87909BFF68CAAAAF0B3FD9C74EECCC928832F879315E5C6FB7A73612F26C0C DUP4 PUSH1 0x40 MLOAD PUSH2 0x1405 SWAP2 SWAP1 PUSH2 0x1C05 JUMP JUMPDEST PUSH1 0x40 MLOAD DUP1 SWAP2 SUB SWAP1 LOG2 POP POP POP JUMP JUMPDEST PUSH1 0x1 PUSH1 0x0 SWAP1 SLOAD SWAP1 PUSH2 0x100 EXP SWAP1 DIV PUSH20 0xFFFFFFFFFFFFFFFFFFFFFFFFFFFFFFFFFFFFFFFF AND DUP2 JUMP JUMPDEST PUSH1 0x9 SLOAD DUP4 LT PUSH2 0x147C JUMPI PUSH1 0x40 MLOAD PUSH32 0x8C379A000000000000000000000000000000000000000000000000000000000 DUP2 MSTORE PUSH1 0x4 ADD PUSH2 0x1473 SWAP1 PUSH2 0x2114 JUMP JUMPDEST PUSH1 0x40 MLOAD DUP1 SWAP2 SUB SWAP1 REVERT JUMPDEST PUSH1 0x2 PUSH1 0x0 DUP5 DUP2 MSTORE PUSH1 0x20 ADD SWAP1 DUP2 MSTORE PUSH1 0x20 ADD PUSH1 0x0 KECCAK256 PUSH1 0x7 ADD SLOAD TIMESTAMP LT PUSH2 0x14D4 JUMPI PUSH1 0x40 MLOAD PUSH32 0x8C379A000000000000000000000000000000000000000000000000000000000 DUP2 MSTORE PUSH1 0x4 ADD PUSH2 0x14CB SWAP1 PUSH2 0x2581 JUMP JUMPDEST PUSH1 0x40 MLOAD DUP1 SWAP2 SUB SWAP1 REVERT JUMPDEST PUSH1 0x2 PUSH1 0x0 DUP5 DUP2 MSTORE PUSH1 0x20 ADD SWAP1 DUP2 MSTORE PUSH1 0x20 ADD PUSH1 0x0 KECCAK256 PUSH1 0x8 ADD PUSH1 0x0 SWAP1 SLOAD SWAP1 PUSH2 0x100 EXP SWAP1 DIV PUSH1 0xFF AND ISZERO PUSH2 0x1538 JUMPI PUSH1 0x40 MLOAD PUSH32 0x8C379A000000000000000000000000000000000000000000000000000000000 DUP2 MSTORE PUSH1 0x4 ADD PUSH2 0x152F SWAP1 PUSH2 0x241D JUMP JUMPDEST PUSH1 0x40 MLOAD DUP1 SWAP2 SUB SWAP1 REVERT JUMPDEST PUSH32 0x0 PUSH20 0xFFFFFFFFFFFFFFFFFFFFFFFFFFFFFFFFFFFFFFFF AND PUSH4 0x23B872DD CALLER ADDRESS DUP5 PUSH1 0x40 MLOAD DUP5 PUSH4 0xFFFFFFFF AND PUSH1 0xE0 SHL DUP2 MSTORE PUSH1 0x4 ADD PUSH2 0x1595 SWAP4 SWAP3 SWAP2 SWAP1 PUSH2 0x25A1 JUMP JUMPDEST PUSH1 0x20 PUSH1 0x40 MLOAD DUP1 DUP4 SUB DUP2 PUSH1 0x0 DUP8 GAS CALL ISZERO DUP1 ISZERO PUSH2 0x15B4 JUMPI RETURNDATASIZE PUSH1 0x0 DUP1 RETURNDATACOPY RETURNDATASIZE PUSH1 0x0 REVERT JUMPDEST POP POP POP POP PUSH1 0x40 MLOAD RETURNDATASIZE PUSH1 0x1F NOT PUSH1 0x1F DUP3 ADD AND DUP3 ADD DUP1 PUSH1 0x40 MSTORE POP DUP2 ADD SWAP1 PUSH2 0x15D8 SWAP2 SWAP1 PUSH2 0x2312 JUMP JUMPDEST POP DUP1 PUSH1 0x3 PUSH1 0x0 DUP6 DUP2 MSTORE PUSH1 0x20 ADD SWAP1 DUP2 MSTORE PUSH1 0x20 ADD PUSH1 0x0 KECCAK256 PUSH1 0x0 CALLER PUSH20 0xFFFFFFFFFFFFFFFFFFFFFFFFFFFFFFFFFFFFFFFF AND PUSH20 0xFFFFFFFFFFFFFFFFFFFFFFFFFFFFFFFFFFFFFFFF AND DUP2 MSTORE PUSH1 0x20 ADD SWAP1 DUP2 MSTORE PUSH1 0x20 ADD PUSH1 0x0 KECCAK256 PUSH1 0x0 DUP3 DUP3 SLOAD PUSH2 0x1639 SWAP2 SWAP1 PUSH2 0x2037 JUMP JUMPDEST SWAP3 POP POP DUP2 SWAP1 SSTORE POP DUP2 ISZERO PUSH2 0x16DF JUMPI DUP1 PUSH1 0x2 PUSH1 0x0 DUP6 DUP2 MSTORE PUSH1 0x20 ADD SWAP1 DUP2 MSTORE PUSH1 0x20 ADD PUSH1 0x0 KECCAK256 PUSH1 0x5 ADD PUSH1 0x0 DUP3 DUP3 SLOAD PUSH2 0x166C SWAP2 SWAP1 PUSH2 0x2037 JUMP JUMPDEST SWAP3 POP POP DUP2 SWAP1 SSTORE POP DUP1 PUSH1 0x4 PUSH1 0x0 DUP6 DUP2 MSTORE PUSH1 0x20 ADD SWAP1 DUP2 MSTORE PUSH1 0x20 ADD PUSH1 0x0 KECCAK256 PUSH1 0x0 CALLER PUSH20 0xFFFFFFFFFFFFFFFFFFFFFFFFFFFFFFFFFFFFFFFF AND PUSH20 0xFFFFFFFFFFFFFFFFFFFFFFFFFFFFFFFFFFFFFFFF AND DUP2 MSTORE PUSH1 0x20 ADD SWAP1 DUP2 MSTORE PUSH1 0x20 ADD PUSH1 0x0 KECCAK256 PUSH1 0x0 DUP3 DUP3 SLOAD PUSH2 0x16D3 SWAP2 SWAP1 PUSH2 0x2037 JUMP JUMPDEST SWAP3 POP POP DUP2 SWAP1 SSTORE POP PUSH2 0x1774 JUMP JUMPDEST DUP1 PUSH1 0x2 PUSH1 0x0 DUP6 DUP2 MSTORE PUSH1 0x20 ADD SWAP1 DUP2 MSTORE PUSH1 0x20 ADD PUSH1 0x0 KECCAK256 PUSH1 0x6 ADD PUSH1 0x0 DUP3 DUP3 SLOAD PUSH2 0x1705 SWAP2 SWAP1 PUSH2 0x2037 JUMP JUMPDEST SWAP3 POP POP DUP2 SWAP1 SSTORE POP DUP1 PUSH1 0x5 PUSH1 0x0 DUP6 DUP2 MSTORE PUSH1 0x20 ADD SWAP1 DUP2 MSTORE PUSH1 0x20 ADD PUSH1 0x0 KECCAK256 PUSH1 0x0 CALLER PUSH20 0xFFFFFFFFFFFFFFFFFFFFFFFFFFFFFFFFFFFFFFFF AND PUSH20 0xFFFFFFFFFFFFFFFFFFFFFFFFFFFFFFFFFFFFFFFF AND DUP2 MSTORE PUSH1 0x20 ADD SWAP1 DUP2 MSTORE PUSH1 0x20 ADD PUSH1 0x0 KECCAK256 PUSH1 0x0 DUP3 DUP3 SLOAD PUSH2 0x176C SWAP2 SWAP1 PUSH2 0x2037 JUMP JUMPDEST SWAP3 POP POP DUP2 SWAP1 SSTORE POP JUMPDEST DUP3 PUSH32 0xD5FBDAD2A4BB43B8C8EE1BECC8085BB21684241593A04BF8795A83F56436B43D CALLER DUP5 DUP5 PUSH1 0x40 MLOAD PUSH2 0x17A8 SWAP4 SWAP3 SWAP2 SWAP1 PUSH2 0x25D8 JUMP JUMPDEST PUSH1 0x40 MLOAD DUP1 SWAP2 SUB SWAP1 LOG2 POP POP POP JUMP JUMPDEST PUSH2 0x17BD PUSH2 0x18A8 JUMP JUMPDEST PUSH1 0x0 PUSH20 0xFFFFFFFFFFFFFFFFFFFFFFFFFFFFFFFFFFFFFFFF AND DUP2 PUSH20 0xFFFFFFFFFFFFFFFFFFFFFFFFFFFFFFFFFFFFFFFF AND SUB PUSH2 0x182C JUMPI PUSH1 0x40 MLOAD PUSH32 0x8C379A000000000000000000000000000000000000000000000000000000000 DUP2 MSTORE PUSH1 0x4 ADD PUSH2 0x1823 SWAP1 PUSH2 0x2681 JUMP JUMPDEST PUSH1 0x40 MLOAD DUP1 SWAP2 SUB SWAP1 REVERT JUMPDEST PUSH2 0x1835 DUP2 PUSH2 0x1926 JUMP JUMPDEST POP JUMP JUMPDEST PUSH1 0x5 PUSH1 0x20 MSTORE DUP2 PUSH1 0x0 MSTORE PUSH1 0x40 PUSH1 0x0 KECCAK256 PUSH1 0x20 MSTORE DUP1 PUSH1 0x0 MSTORE PUSH1 0x40 PUSH1 0x0 KECCAK256 PUSH1 0x0 SWAP2 POP SWAP2 POP POP SLOAD DUP2 JUMP JUMPDEST PUSH1 0x7 PUSH1 0x20 MSTORE DUP1 PUSH1 0x0 MSTORE PUSH1 0x40 PUSH1 0x0 KECCAK256 PUSH1 0x0 SWAP2 POP SWAP1 POP SLOAD DUP2 JUMP JUMPDEST PUSH1 0x0 DUP3 DUP3 PUSH1 0x40 MLOAD PUSH1 0x20 ADD PUSH2 0x188A SWAP3 SWAP2 SWAP1 PUSH2 0x26C2 JUMP JUMPDEST PUSH1 0x40 MLOAD PUSH1 0x20 DUP2 DUP4 SUB SUB DUP2 MSTORE SWAP1 PUSH1 0x40 MSTORE DUP1 MLOAD SWAP1 PUSH1 0x20 ADD KECCAK256 SWAP1 POP SWAP3 SWAP2 POP POP JUMP JUMPDEST PUSH2 0x18B0 PUSH2 0x19EA JUMP JUMPDEST PUSH20 0xFFFFFFFFFFFFFFFFFFFFFFFFFFFFFFFFFFFFFFFF AND PUSH2 0x18CE PUSH2 0xF21 JUMP JUMPDEST PUSH20 0xFFFFFFFFFFFFFFFFFFFFFFFFFFFFFFFFFFFFFFFF AND EQ PUSH2 0x1924 JUMPI PUSH1 0x40 MLOAD PUSH32 0x8C379A000000000000000000000000000000000000000000000000000000000 DUP2 MSTORE PUSH1 0x4 ADD PUSH2 0x191B SWAP1 PUSH2 0x273A JUMP JUMPDEST PUSH1 0x40 MLOAD DUP1 SWAP2 SUB SWAP1 REVERT JUMPDEST JUMP JUMPDEST PUSH1 0x0 DUP1 PUSH1 0x0 SWAP1 SLOAD SWAP1 PUSH2 0x100 EXP SWAP1 DIV PUSH20 0xFFFFFFFFFFFFFFFFFFFFFFFFFFFFFFFFFFFFFFFF AND SWAP1 POP DUP2 PUSH1 0x0 DUP1 PUSH2 0x100 EXP DUP2 SLOAD DUP2 PUSH20 0xFFFFFFFFFFFFFFFFFFFFFFFFFFFFFFFFFFFFFFFF MUL NOT AND SWAP1 DUP4 PUSH20 0xFFFFFFFFFFFFFFFFFFFFFFFFFFFFFFFFFFFFFFFF AND MUL OR SWAP1 SSTORE POP DUP2 PUSH20 0xFFFFFFFFFFFFFFFFFFFFFFFFFFFFFFFFFFFFFFFF AND DUP2 PUSH20 0xFFFFFFFFFFFFFFFFFFFFFFFFFFFFFFFFFFFFFFFF AND PUSH32 0x8BE0079C531659141344CD1FD0A4F28419497F9722A3DAAFE3B4186F6B6457E0 PUSH1 0x40 MLOAD PUSH1 0x40 MLOAD DUP1 SWAP2 SUB SWAP1 LOG3 POP POP JUMP JUMPDEST PUSH1 0x0 CALLER SWAP1 POP SWAP1 JUMP JUMPDEST PUSH1 0x0 DUP1 REVERT JUMPDEST PUSH1 0x0 PUSH20 0xFFFFFFFFFFFFFFFFFFFFFFFFFFFFFFFFFFFFFFFF DUP3 AND SWAP1 POP SWAP2 SWAP1 POP JUMP JUMPDEST PUSH1 0x0 PUSH2 0x1A22 DUP3 PUSH2 0x19F7 JUMP JUMPDEST SWAP1 POP SWAP2 SWAP1 POP JUMP JUMPDEST PUSH2 0x1A32 DUP2 PUSH2 0x1A17 JUMP JUMPDEST DUP2 EQ PUSH2 0x1A3D JUMPI PUSH1 0x0 DUP1 REVERT JUMPDEST POP JUMP JUMPDEST PUSH1 0x0 DUP2 CALLDATALOAD SWAP1 POP PUSH2 0x1A4F DUP2 PUSH2 0x1A29 JUMP JUMPDEST SWAP3 SWAP2 POP POP JUMP JUMPDEST PUSH1 0x0 DUP2 SWAP1 POP SWAP2 SWAP1 POP JUMP JUMPDEST PUSH2 0x1A68 DUP2 PUSH2 0x1A55 JUMP JUMPDEST DUP2 EQ PUSH2 0x1A73 JUMPI PUSH1 0x0 DUP1 REVERT JUMPDEST POP JUMP JUMPDEST PUSH1 0x0 DUP2 CALLDATALOAD SWAP1 POP PUSH2 0x1A85 DUP2 PUSH2 0x1A5F JUMP JUMPDEST SWAP3 SWAP2 POP POP JUMP JUMPDEST PUSH1 0x0 DUP1 PUSH1 0x0 DUP1 PUSH1 0x0 PUSH1 0xA0 DUP7 DUP9 SUB SLT ISZERO PUSH2 0x1AA7 JUMPI PUSH2 0x1AA6 PUSH2 0x19F2 JUMP JUMPDEST JUMPDEST PUSH1 0x0 PUSH2 0x1AB5 DUP9 DUP3 DUP10 ADD PUSH2 0x1A40 JUMP JUMPDEST SWAP6 POP POP PUSH1 0x20 PUSH2 0x1AC6 DUP9 DUP3 DUP10 ADD PUSH2 0x1A40 JUMP JUMPDEST SWAP5 POP POP PUSH1 0x40 PUSH2 0x1AD7 DUP9 DUP3 DUP10 ADD PUSH2 0x1A76 JUMP JUMPDEST SWAP4 POP POP PUSH1 0x60 PUSH2 0x1AE8 DUP9 DUP3 DUP10 ADD PUSH2 0x1A76 JUMP JUMPDEST SWAP3 POP POP PUSH1 0x80 PUSH2 0x1AF9 DUP9 DUP3 DUP10 ADD PUSH2 0x1A76 JUMP JUMPDEST SWAP2 POP POP SWAP3 SWAP6 POP SWAP3 SWAP6 SWAP1 SWAP4 POP JUMP JUMPDEST PUSH2 0x1B0F DUP2 PUSH2 0x1A55 JUMP JUMPDEST DUP3 MSTORE POP POP JUMP JUMPDEST PUSH1 0x0 PUSH1 0x20 DUP3 ADD SWAP1 POP PUSH2 0x1B2A PUSH1 0x0 DUP4 ADD DUP5 PUSH2 0x1B06 JUMP JUMPDEST SWAP3 SWAP2 POP POP JUMP JUMPDEST PUSH1 0x0 DUP2 SWAP1 POP SWAP2 SWAP1 POP JUMP JUMPDEST PUSH1 0x0 PUSH2 0x1B55 PUSH2 0x1B50 PUSH2 0x1B4B DUP5 PUSH2 0x19F7 JUMP JUMPDEST PUSH2 0x1B30 JUMP JUMPDEST PUSH2 0x19F7 JUMP JUMPDEST SWAP1 POP SWAP2 SWAP1 POP JUMP JUMPDEST PUSH1 0x0 PUSH2 0x1B67 DUP3 PUSH2 0x1B3A JUMP JUMPDEST SWAP1 POP SWAP2 SWAP1 POP JUMP JUMPDEST PUSH1 0x0 PUSH2 0x1B79 DUP3 PUSH2 0x1B5C JUMP JUMPDEST SWAP1 POP SWAP2 SWAP1 POP JUMP JUMPDEST PUSH2 0x1B89 DUP2 PUSH2 0x1B6E JUMP JUMPDEST DUP3 MSTORE POP POP JUMP JUMPDEST PUSH1 0x0 PUSH1 0x20 DUP3 ADD SWAP1 POP PUSH2 0x1BA4 PUSH1 0x0 DUP4 ADD DUP5 PUSH2 0x1B80 JUMP JUMPDEST SWAP3 SWAP2 POP POP JUMP JUMPDEST PUSH1 0x0 DUP1 PUSH1 0x40 DUP4 DUP6 SUB SLT ISZERO PUSH2 0x1BC1 JUMPI PUSH2 0x1BC0 PUSH2 0x19F2 JUMP JUMPDEST JUMPDEST PUSH1 0x0 PUSH2 0x1BCF DUP6 DUP3 DUP7 ADD PUSH2 0x1A76 JUMP JUMPDEST SWAP3 POP POP PUSH1 0x20 PUSH2 0x1BE0 DUP6 DUP3 DUP7 ADD PUSH2 0x1A76 JUMP JUMPDEST SWAP2 POP POP SWAP3 POP SWAP3 SWAP1 POP JUMP JUMPDEST PUSH1 0x0 DUP2 ISZERO ISZERO SWAP1 POP SWAP2 SWAP1 POP JUMP JUMPDEST PUSH2 0x1BFF DUP2 PUSH2 0x1BEA JUMP JUMPDEST DUP3 MSTORE POP POP JUMP JUMPDEST PUSH1 0x0 PUSH1 0x20 DUP3 ADD SWAP1 POP PUSH2 0x1C1A PUSH1 0x0 DUP4 ADD DUP5 PUSH2 0x1BF6 JUMP JUMPDEST SWAP3 SWAP2 POP POP JUMP JUMPDEST PUSH1 0x0 PUSH1 0x20 DUP3 DUP5 SUB SLT ISZERO PUSH2 0x1C36 JUMPI PUSH2 0x1C35 PUSH2 0x19F2 JUMP JUMPDEST JUMPDEST PUSH1 0x0 PUSH2 0x1C44 DUP5 DUP3 DUP6 ADD PUSH2 0x1A40 JUMP JUMPDEST SWAP2 POP POP SWAP3 SWAP2 POP POP JUMP JUMPDEST PUSH1 0x0 PUSH1 0x20 DUP3 DUP5 SUB SLT ISZERO PUSH2 0x1C63 JUMPI PUSH2 0x1C62 PUSH2 0x19F2 JUMP JUMPDEST JUMPDEST PUSH1 0x0 PUSH2 0x1C71 DUP5 DUP3 DUP6 ADD PUSH2 0x1A76 JUMP JUMPDEST SWAP2 POP POP SWAP3 SWAP2 POP POP JUMP JUMPDEST PUSH2 0x1C83 DUP2 PUSH2 0x1A17 JUMP JUMPDEST DUP3 MSTORE POP POP JUMP JUMPDEST PUSH1 0x0 PUSH2 0x140 DUP3 ADD SWAP1 POP PUSH2 0x1C9F PUSH1 0x0 DUP4 ADD DUP14 PUSH2 0x1C7A JUMP JUMPDEST PUSH2 0x1CAC PUSH1 0x20 DUP4 ADD DUP13 PUSH2 0x1C7A JUMP JUMPDEST PUSH2 0x1CB9 PUSH1 0x40 DUP4 ADD DUP12 PUSH2 0x1B06 JUMP JUMPDEST PUSH2 0x1CC6 PUSH1 0x60 DUP4 ADD DUP11 PUSH2 0x1B06 JUMP JUMPDEST PUSH2 0x1CD3 PUSH1 0x80 DUP4 ADD DUP10 PUSH2 0x1B06 JUMP JUMPDEST PUSH2 0x1CE0 PUSH1 0xA0 DUP4 ADD DUP9 PUSH2 0x1B06 JUMP JUMPDEST PUSH2 0x1CED PUSH1 0xC0 DUP4 ADD DUP8 PUSH2 0x1B06 JUMP JUMPDEST PUSH2 0x1CFA PUSH1 0xE0 DUP4 ADD DUP7 PUSH2 0x1B06 JUMP JUMPDEST PUSH2 0x1D08 PUSH2 0x100 DUP4 ADD DUP6 PUSH2 0x1BF6 JUMP JUMPDEST PUSH2 0x1D16 PUSH2 0x120 DUP4 ADD DUP5 PUSH2 0x1BF6 JUMP JUMPDEST SWAP12 SWAP11 POP POP POP POP POP POP POP POP POP POP POP JUMP JUMPDEST PUSH1 0x0 DUP1 PUSH1 0x40 DUP4 DUP6 SUB SLT ISZERO PUSH2 0x1D3C JUMPI PUSH2 0x1D3B PUSH2 0x19F2 JUMP JUMPDEST JUMPDEST PUSH1 0x0 PUSH2 0x1D4A DUP6 DUP3 DUP7 ADD PUSH2 0x1A76 JUMP JUMPDEST SWAP3 POP POP PUSH1 0x20 PUSH2 0x1D5B DUP6 DUP3 DUP7 ADD PUSH2 0x1A40 JUMP JUMPDEST SWAP2 POP POP SWAP3 POP SWAP3 SWAP1 POP JUMP JUMPDEST PUSH1 0x0 PUSH1 0x40 DUP3 ADD SWAP1 POP PUSH2 0x1D7A PUSH1 0x0 DUP4 ADD DUP6 PUSH2 0x1B06 JUMP JUMPDEST PUSH2 0x1D87 PUSH1 0x20 DUP4 ADD DUP5 PUSH2 0x1B06 JUMP JUMPDEST SWAP4 SWAP3 POP POP POP JUMP JUMPDEST PUSH1 0x0 PUSH1 0x20 DUP3 ADD SWAP1 POP PUSH2 0x1DA3 PUSH1 0x0 DUP4 ADD DUP5 PUSH2 0x1C7A JUMP JUMPDEST SWAP3 SWAP2 POP POP JUMP JUMPDEST PUSH2 0x1DB2 DUP2 PUSH2 0x1BEA JUMP JUMPDEST DUP2 EQ PUSH2 0x1DBD JUMPI PUSH1 0x0 DUP1 REVERT JUMPDEST POP JUMP JUMPDEST PUSH1 0x0 DUP2 CALLDATALOAD SWAP1 POP PUSH2 0x1DCF DUP2 PUSH2 0x1DA9 JUMP JUMPDEST SWAP3 SWAP2 POP POP JUMP JUMPDEST PUSH1 0x0 DUP1 PUSH1 0x0 PUSH1 0x60 DUP5 DUP7 SUB SLT ISZERO PUSH2 0x1DEE JUMPI PUSH2 0x1DED PUSH2 0x19F2 JUMP JUMPDEST JUMPDEST PUSH1 0x0 PUSH2 0x1DFC DUP7 DUP3 DUP8 ADD PUSH2 0x1A76 JUMP JUMPDEST SWAP4 POP POP PUSH1 0x20 PUSH2 0x1E0D DUP7 DUP3 DUP8 ADD PUSH2 0x1DC0 JUMP JUMPDEST SWAP3 POP POP PUSH1 0x40 PUSH2 0x1E1E DUP7 DUP3 DUP8 ADD PUSH2 0x1A76 JUMP JUMPDEST SWAP2 POP POP SWAP3 POP SWAP3 POP SWAP3 JUMP JUMPDEST PUSH1 0x0 DUP2 SWAP1 POP SWAP2 SWAP1 POP JUMP JUMPDEST PUSH2 0x1E3B DUP2 PUSH2 0x1E28 JUMP JUMPDEST DUP2 EQ PUSH2 0x1E46 JUMPI PUSH1 0x0 DUP1 REVERT JUMPDEST POP JUMP JUMPDEST PUSH1 0x0 DUP2 CALLDATALOAD SWAP1 POP PUSH2 0x1E58 DUP2 PUSH2 0x1E32 JUMP JUMPDEST SWAP3 SWAP2 POP POP JUMP JUMPDEST PUSH1 0x0 PUSH1 0x20 DUP3 DUP5 SUB SLT ISZERO PUSH2 0x1E74 JUMPI PUSH2 0x1E73 PUSH2 0x19F2 JUMP JUMPDEST JUMPDEST PUSH1 0x0 PUSH2 0x1E82 DUP5 DUP3 DUP6 ADD PUSH2 0x1E49 JUMP JUMPDEST SWAP2 POP POP SWAP3 SWAP2 POP POP JUMP JUMPDEST PUSH1 0x0 DUP3 DUP3 MSTORE PUSH1 0x20 DUP3 ADD SWAP1 POP SWAP3 SWAP2 POP POP JUMP JUMPDEST PUSH32 0x43616C6C6572206973206E6F7420746865206D61696E20636F6E747261637400 PUSH1 0x0 DUP3 ADD MSTORE POP JUMP JUMPDEST PUSH1 0x0 PUSH2 0x1ED2 PUSH1 0x1F DUP4 PUSH2 0x1E8B JUMP JUMPDEST SWAP2 POP PUSH2 0x1EDD DUP3 PUSH2 0x1E9C JUMP JUMPDEST PUSH1 0x20 DUP3 ADD SWAP1 POP SWAP2 SWAP1 POP JUMP JUMPDEST PUSH1 0x0 PUSH1 0x20 DUP3 ADD SWAP1 POP DUP2 DUP2 SUB PUSH1 0x0 DUP4 ADD MSTORE PUSH2 0x1F01 DUP2 PUSH2 0x1EC5 JUMP JUMPDEST SWAP1 POP SWAP2 SWAP1 POP JUMP JUMPDEST PUSH32 0x43616E6E6F74206372656174652061206E6577206469737075746520666F7220 PUSH1 0x0 DUP3 ADD MSTORE PUSH32 0x74686520676976656E2070726F706F73616C20616E6420627579657220726571 PUSH1 0x20 DUP3 ADD MSTORE PUSH32 0x7565737400000000000000000000000000000000000000000000000000000000 PUSH1 0x40 DUP3 ADD MSTORE POP JUMP JUMPDEST PUSH1 0x0 PUSH2 0x1F8A PUSH1 0x44 DUP4 PUSH2 0x1E8B JUMP JUMPDEST SWAP2 POP PUSH2 0x1F95 DUP3 PUSH2 0x1F08 JUMP JUMPDEST PUSH1 0x60 DUP3 ADD SWAP1 POP SWAP2 SWAP1 POP JUMP JUMPDEST PUSH1 0x0 PUSH1 0x20 DUP3 ADD SWAP1 POP DUP2 DUP2 SUB PUSH1 0x0 DUP4 ADD MSTORE PUSH2 0x1FB9 DUP2 PUSH2 0x1F7D JUMP JUMPDEST SWAP1 POP SWAP2 SWAP1 POP JUMP JUMPDEST PUSH32 0x4E487B7100000000000000000000000000000000000000000000000000000000 PUSH1 0x0 MSTORE PUSH1 0x11 PUSH1 0x4 MSTORE PUSH1 0x24 PUSH1 0x0 REVERT JUMPDEST PUSH1 0x0 PUSH2 0x1FFA DUP3 PUSH2 0x1A55 JUMP JUMPDEST SWAP2 POP PUSH32 0xFFFFFFFFFFFFFFFFFFFFFFFFFFFFFFFFFFFFFFFFFFFFFFFFFFFFFFFFFFFFFFFF DUP3 SUB PUSH2 0x202C JUMPI PUSH2 0x202B PUSH2 0x1FC0 JUMP JUMPDEST JUMPDEST PUSH1 0x1 DUP3 ADD SWAP1 POP SWAP2 SWAP1 POP JUMP JUMPDEST PUSH1 0x0 PUSH2 0x2042 DUP3 PUSH2 0x1A55 JUMP JUMPDEST SWAP2 POP PUSH2 0x204D DUP4 PUSH2 0x1A55 JUMP JUMPDEST SWAP3 POP DUP3 DUP3 ADD SWAP1 POP DUP1 DUP3 GT ISZERO PUSH2 0x2065 JUMPI PUSH2 0x2064 PUSH2 0x1FC0 JUMP JUMPDEST JUMPDEST SWAP3 SWAP2 POP POP JUMP JUMPDEST PUSH1 0x0 PUSH1 0x40 DUP3 ADD SWAP1 POP PUSH2 0x2080 PUSH1 0x0 DUP4 ADD DUP6 PUSH2 0x1C7A JUMP JUMPDEST PUSH2 0x208D PUSH1 0x20 DUP4 ADD DUP5 PUSH2 0x1C7A JUMP JUMPDEST SWAP4 SWAP3 POP POP POP JUMP JUMPDEST PUSH1 0x0 PUSH2 0x209F DUP3 PUSH2 0x1A55 JUMP JUMPDEST SWAP2 POP PUSH2 0x20AA DUP4 PUSH2 0x1A55 JUMP JUMPDEST SWAP3 POP DUP3 DUP3 SUB SWAP1 POP DUP2 DUP2 GT ISZERO PUSH2 0x20C2 JUMPI PUSH2 0x20C1 PUSH2 0x1FC0 JUMP JUMPDEST JUMPDEST SWAP3 SWAP2 POP POP JUMP JUMPDEST PUSH32 0x496E76616C696420646973707574652049440000000000000000000000000000 PUSH1 0x0 DUP3 ADD MSTORE POP JUMP JUMPDEST PUSH1 0x0 PUSH2 0x20FE PUSH1 0x12 DUP4 PUSH2 0x1E8B JUMP JUMPDEST SWAP2 POP PUSH2 0x2109 DUP3 PUSH2 0x20C8 JUMP JUMPDEST PUSH1 0x20 DUP3 ADD SWAP1 POP SWAP2 SWAP1 POP JUMP JUMPDEST PUSH1 0x0 PUSH1 0x20 DUP3 ADD SWAP1 POP DUP2 DUP2 SUB PUSH1 0x0 DUP4 ADD MSTORE PUSH2 0x212D DUP2 PUSH2 0x20F1 JUMP JUMPDEST SWAP1 POP SWAP2 SWAP1 POP JUMP JUMPDEST PUSH32 0x4469737075746520686173206E6F74206265656E207265736F6C766564207965 PUSH1 0x0 DUP3 ADD MSTORE PUSH32 0x7400000000000000000000000000000000000000000000000000000000000000 PUSH1 0x20 DUP3 ADD MSTORE POP JUMP JUMPDEST PUSH1 0x0 PUSH2 0x2190 PUSH1 0x21 DUP4 PUSH2 0x1E8B JUMP JUMPDEST SWAP2 POP PUSH2 0x219B DUP3 PUSH2 0x2134 JUMP JUMPDEST PUSH1 0x40 DUP3 ADD SWAP1 POP SWAP2 SWAP1 POP JUMP JUMPDEST PUSH1 0x0 PUSH1 0x20 DUP3 ADD SWAP1 POP DUP2 DUP2 SUB PUSH1 0x0 DUP4 ADD MSTORE PUSH2 0x21BF DUP2 PUSH2 0x2183 JUMP JUMPDEST SWAP1 POP SWAP2 SWAP1 POP JUMP JUMPDEST PUSH32 0x4E6F20746F6B656E7320746F20636C61696D0000000000000000000000000000 PUSH1 0x0 DUP3 ADD MSTORE POP JUMP JUMPDEST PUSH1 0x0 PUSH2 0x21FC PUSH1 0x12 DUP4 PUSH2 0x1E8B JUMP JUMPDEST SWAP2 POP PUSH2 0x2207 DUP3 PUSH2 0x21C6 JUMP JUMPDEST PUSH1 0x20 DUP3 ADD SWAP1 POP SWAP2 SWAP1 POP JUMP JUMPDEST PUSH1 0x0 PUSH1 0x20 DUP3 ADD SWAP1 POP DUP2 DUP2 SUB PUSH1 0x0 DUP4 ADD MSTORE PUSH2 0x222B DUP2 PUSH2 0x21EF JUMP JUMPDEST SWAP1 POP SWAP2 SWAP1 POP JUMP JUMPDEST PUSH1 0x0 PUSH2 0x223D DUP3 PUSH2 0x1A55 JUMP JUMPDEST SWAP2 POP PUSH2 0x2248 DUP4 PUSH2 0x1A55 JUMP JUMPDEST SWAP3 POP DUP3 DUP3 MUL PUSH2 0x2256 DUP2 PUSH2 0x1A55 JUMP JUMPDEST SWAP2 POP DUP3 DUP3 DIV DUP5 EQ DUP4 ISZERO OR PUSH2 0x226D JUMPI PUSH2 0x226C PUSH2 0x1FC0 JUMP JUMPDEST JUMPDEST POP SWAP3 SWAP2 POP POP JUMP JUMPDEST PUSH32 0x4E487B7100000000000000000000000000000000000000000000000000000000 PUSH1 0x0 MSTORE PUSH1 0x12 PUSH1 0x4 MSTORE PUSH1 0x24 PUSH1 0x0 REVERT JUMPDEST PUSH1 0x0 PUSH2 0x22AE DUP3 PUSH2 0x1A55 JUMP JUMPDEST SWAP2 POP PUSH2 0x22B9 DUP4 PUSH2 0x1A55 JUMP JUMPDEST SWAP3 POP DUP3 PUSH2 0x22C9 JUMPI PUSH2 0x22C8 PUSH2 0x2274 JUMP JUMPDEST JUMPDEST DUP3 DUP3 DIV SWAP1 POP SWAP3 SWAP2 POP POP JUMP JUMPDEST PUSH1 0x0 PUSH1 0x40 DUP3 ADD SWAP1 POP PUSH2 0x22E9 PUSH1 0x0 DUP4 ADD DUP6 PUSH2 0x1C7A JUMP JUMPDEST PUSH2 0x22F6 PUSH1 0x20 DUP4 ADD DUP5 PUSH2 0x1B06 JUMP JUMPDEST SWAP4 SWAP3 POP POP POP JUMP JUMPDEST PUSH1 0x0 DUP2 MLOAD SWAP1 POP PUSH2 0x230C DUP2 PUSH2 0x1DA9 JUMP JUMPDEST SWAP3 SWAP2 POP POP JUMP JUMPDEST PUSH1 0x0 PUSH1 0x20 DUP3 DUP5 SUB SLT ISZERO PUSH2 0x2328 JUMPI PUSH2 0x2327 PUSH2 0x19F2 JUMP JUMPDEST JUMPDEST PUSH1 0x0 PUSH2 0x2336 DUP5 DUP3 DUP6 ADD PUSH2 0x22FD JUMP JUMPDEST SWAP2 POP POP SWAP3 SWAP2 POP POP JUMP JUMPDEST PUSH32 0x496E76616C6964207468726573686F6C64000000000000000000000000000000 PUSH1 0x0 DUP3 ADD MSTORE POP JUMP JUMPDEST PUSH1 0x0 PUSH2 0x2375 PUSH1 0x11 DUP4 PUSH2 0x1E8B JUMP JUMPDEST SWAP2 POP PUSH2 0x2380 DUP3 PUSH2 0x233F JUMP JUMPDEST PUSH1 0x20 DUP3 ADD SWAP1 POP SWAP2 SWAP1 POP JUMP JUMPDEST PUSH1 0x0 PUSH1 0x20 DUP3 ADD SWAP1 POP DUP2 DUP2 SUB PUSH1 0x0 DUP4 ADD MSTORE PUSH2 0x23A4 DUP2 PUSH2 0x2368 JUMP JUMPDEST SWAP1 POP SWAP2 SWAP1 POP JUMP JUMPDEST PUSH32 0x446973707574652068617320616C7265616479206265656E207265736F6C7665 PUSH1 0x0 DUP3 ADD MSTORE PUSH32 0x6400000000000000000000000000000000000000000000000000000000000000 PUSH1 0x20 DUP3 ADD MSTORE POP JUMP JUMPDEST PUSH1 0x0 PUSH2 0x2407 PUSH1 0x21 DUP4 PUSH2 0x1E8B JUMP JUMPDEST SWAP2 POP PUSH2 0x2412 DUP3 PUSH2 0x23AB JUMP JUMPDEST PUSH1 0x40 DUP3 ADD SWAP1 POP SWAP2 SWAP1 POP JUMP JUMPDEST PUSH1 0x0 PUSH1 0x20 DUP3 ADD SWAP1 POP DUP2 DUP2 SUB PUSH1 0x0 DUP4 ADD MSTORE PUSH2 0x2436 DUP2 PUSH2 0x23FA JUMP JUMPDEST SWAP1 POP SWAP2 SWAP1 POP JUMP JUMPDEST PUSH32 0x54686520766F74696E6720706572696F64206973206E6F74206F766572207965 PUSH1 0x0 DUP3 ADD MSTORE PUSH32 0x7421000000000000000000000000000000000000000000000000000000000000 PUSH1 0x20 DUP3 ADD MSTORE POP JUMP JUMPDEST PUSH1 0x0 PUSH2 0x2499 PUSH1 0x22 DUP4 PUSH2 0x1E8B JUMP JUMPDEST SWAP2 POP PUSH2 0x24A4 DUP3 PUSH2 0x243D JUMP JUMPDEST PUSH1 0x40 DUP3 ADD SWAP1 POP SWAP2 SWAP1 POP JUMP JUMPDEST PUSH1 0x0 PUSH1 0x20 DUP3 ADD SWAP1 POP DUP2 DUP2 SUB PUSH1 0x0 DUP4 ADD MSTORE PUSH2 0x24C8 DUP2 PUSH2 0x248C JUMP JUMPDEST SWAP1 POP SWAP2 SWAP1 POP JUMP JUMPDEST PUSH1 0x0 PUSH2 0x24DA DUP3 PUSH2 0x19F7 JUMP JUMPDEST SWAP1 POP SWAP2 SWAP1 POP JUMP JUMPDEST PUSH2 0x24EA DUP2 PUSH2 0x24CF JUMP JUMPDEST DUP3 MSTORE POP POP JUMP JUMPDEST PUSH1 0x0 PUSH1 0x80 DUP3 ADD SWAP1 POP PUSH2 0x2505 PUSH1 0x0 DUP4 ADD DUP8 PUSH2 0x1B06 JUMP JUMPDEST PUSH2 0x2512 PUSH1 0x20 DUP4 ADD DUP7 PUSH2 0x1B06 JUMP JUMPDEST PUSH2 0x251F PUSH1 0x40 DUP4 ADD DUP6 PUSH2 0x24E1 JUMP JUMPDEST PUSH2 0x252C PUSH1 0x60 DUP4 ADD DUP5 PUSH2 0x1B06 JUMP JUMPDEST SWAP6 SWAP5 POP POP POP POP POP JUMP JUMPDEST PUSH32 0x566F74696E6720706572696F64206973206F7665720000000000000000000000 PUSH1 0x0 DUP3 ADD MSTORE POP JUMP JUMPDEST PUSH1 0x0 PUSH2 0x256B PUSH1 0x15 DUP4 PUSH2 0x1E8B JUMP JUMPDEST SWAP2 POP PUSH2 0x2576 DUP3 PUSH2 0x2535 JUMP JUMPDEST PUSH1 0x20 DUP3 ADD SWAP1 POP SWAP2 SWAP1 POP JUMP JUMPDEST PUSH1 0x0 PUSH1 0x20 DUP3 ADD SWAP1 POP DUP2 DUP2 SUB PUSH1 0x0 DUP4 ADD MSTORE PUSH2 0x259A DUP2 PUSH2 0x255E JUMP JUMPDEST SWAP1 POP SWAP2 SWAP1 POP JUMP JUMPDEST PUSH1 0x0 PUSH1 0x60 DUP3 ADD SWAP1 POP PUSH2 0x25B6 PUSH1 0x0 DUP4 ADD DUP7 PUSH2 0x1C7A JUMP JUMPDEST PUSH2 0x25C3 PUSH1 0x20 DUP4 ADD DUP6 PUSH2 0x1C7A JUMP JUMPDEST PUSH2 0x25D0 PUSH1 0x40 DUP4 ADD DUP5 PUSH2 0x1B06 JUMP JUMPDEST SWAP5 SWAP4 POP POP POP POP JUMP JUMPDEST PUSH1 0x0 PUSH1 0x60 DUP3 ADD SWAP1 POP PUSH2 0x25ED PUSH1 0x0 DUP4 ADD DUP7 PUSH2 0x1C7A JUMP JUMPDEST PUSH2 0x25FA PUSH1 0x20 DUP4 ADD DUP6 PUSH2 0x1BF6 JUMP JUMPDEST PUSH2 0x2607 PUSH1 0x40 DUP4 ADD DUP5 PUSH2 0x1B06 JUMP JUMPDEST SWAP5 SWAP4 POP POP POP POP JUMP JUMPDEST PUSH32 0x4F776E61626C653A206E6577206F776E657220697320746865207A65726F2061 PUSH1 0x0 DUP3 ADD MSTORE PUSH32 0x6464726573730000000000000000000000000000000000000000000000000000 PUSH1 0x20 DUP3 ADD MSTORE POP JUMP JUMPDEST PUSH1 0x0 PUSH2 0x266B PUSH1 0x26 DUP4 PUSH2 0x1E8B JUMP JUMPDEST SWAP2 POP PUSH2 0x2676 DUP3 PUSH2 0x260F JUMP JUMPDEST PUSH1 0x40 DUP3 ADD SWAP1 POP SWAP2 SWAP1 POP JUMP JUMPDEST PUSH1 0x0 PUSH1 0x20 DUP3 ADD SWAP1 POP DUP2 DUP2 SUB PUSH1 0x0 DUP4 ADD MSTORE PUSH2 0x269A DUP2 PUSH2 0x265E JUMP JUMPDEST SWAP1 POP SWAP2 SWAP1 POP JUMP JUMPDEST PUSH1 0x0 DUP2 SWAP1 POP SWAP2 SWAP1 POP JUMP JUMPDEST PUSH2 0x26BC PUSH2 0x26B7 DUP3 PUSH2 0x1A55 JUMP JUMPDEST PUSH2 0x26A1 JUMP JUMPDEST DUP3 MSTORE POP POP JUMP JUMPDEST PUSH1 0x0 PUSH2 0x26CE DUP3 DUP6 PUSH2 0x26AB JUMP JUMPDEST PUSH1 0x20 DUP3 ADD SWAP2 POP PUSH2 0x26DE DUP3 DUP5 PUSH2 0x26AB JUMP JUMPDEST PUSH1 0x20 DUP3 ADD SWAP2 POP DUP2 SWAP1 POP SWAP4 SWAP3 POP POP POP JUMP JUMPDEST PUSH32 0x4F776E61626C653A2063616C6C6572206973206E6F7420746865206F776E6572 PUSH1 0x0 DUP3 ADD MSTORE POP JUMP JUMPDEST PUSH1 0x0 PUSH2 0x2724 PUSH1 0x20 DUP4 PUSH2 0x1E8B JUMP JUMPDEST SWAP2 POP PUSH2 0x272F DUP3 PUSH2 0x26EE JUMP JUMPDEST PUSH1 0x20 DUP3 ADD SWAP1 POP SWAP2 SWAP1 POP JUMP JUMPDEST PUSH1 0x0 PUSH1 0x20 DUP3 ADD SWAP1 POP DUP2 DUP2 SUB PUSH1 0x0 DUP4 ADD MSTORE PUSH2 0x2753 DUP2 PUSH2 0x2717 JUMP JUMPDEST SWAP1 POP SWAP2 SWAP1 POP JUMP INVALID LOG2 PUSH5 0x6970667358 0x22 SLT KECCAK256 CALLDATACOPY MSTORE8 SWAP3 ADDRESS 0xAD PUSH14 0x40CBBCA5D400267AF28F3CE4CEFB PUSH2 0x1827 0xDD DUP16 0xE 0xD3 ISZERO INVALID PUSH29 0x34A364736F6C6343000812003300000000000000000000000000000000 "
				},
				"gasEstimates": {
					"creation": {
						"codeDepositCost": "2025600",
						"executionCost": "infinite",
						"totalCost": "infinite"
					},
					"external": {
						"buyerStakedTokens(uint256,address)": "infinite",
						"canCreateDispute(uint256,uint256)": "infinite",
						"claimTokens(uint256)": "infinite",
						"createDispute(address,address,uint256,uint256,uint256)": "infinite",
						"disputeCount()": "2540",
						"disputes(uint256)": "infinite",
						"disputesForProposalRequest(bytes32)": "2897",
						"finjaTokenInstance()": "infinite",
						"getStakedTokens(uint256,address)": "infinite",
						"latestDisputeForProposal(uint256)": "infinite",
						"mainContract()": "2558",
						"owner()": "2589",
						"renounceOwnership()": "30509",
						"resolveDispute(uint256)": "infinite",
						"sellerStakedTokens(uint256,address)": "infinite",
						"setMainContract(address)": "27076",
						"setWinningThreshold(uint256)": "24930",
						"stakedTokens(uint256,address)": "infinite",
						"transferOwnership(address)": "30832",
						"vote(uint256,bool,uint256)": "infinite",
						"winningThreshold()": "2541"
					},
					"internal": {
						"generateKey(uint256,uint256)": "infinite"
					}
				},
				"methodIdentifiers": {
					"buyerStakedTokens(uint256,address)": "768114a4",
					"canCreateDispute(uint256,uint256)": "2c054503",
					"claimTokens(uint256)": "46e04a2f",
					"createDispute(address,address,uint256,uint256,uint256)": "03d4d7e7",
					"disputeCount()": "a28889e1",
					"disputes(uint256)": "564a565d",
					"disputesForProposalRequest(bytes32)": "ffb18516",
					"finjaTokenInstance()": "0e7d5d4e",
					"getStakedTokens(uint256,address)": "87c42c41",
					"latestDisputeForProposal(uint256)": "6e6b2e2d",
					"mainContract()": "d270e7ab",
					"owner()": "8da5cb5b",
					"renounceOwnership()": "715018a6",
					"resolveDispute(uint256)": "c2b7b868",
					"sellerStakedTokens(uint256,address)": "fcff13f2",
					"setMainContract(address)": "3ded33bc",
					"setWinningThreshold(uint256)": "9f5f3a66",
					"stakedTokens(uint256,address)": "56eeafd9",
					"transferOwnership(address)": "f2fde38b",
					"vote(uint256,bool,uint256)": "d46a5d7e",
					"winningThreshold()": "438d649d"
				}
			},
			"storageLayout": {
				"storage": [
					{
						"astId": 7,
						"contract": "contracts/dispute.sol:DisputeResolution",
						"label": "_owner",
						"offset": 0,
						"slot": "0",
						"type": "t_address"
					},
					{
						"astId": 221,
						"contract": "contracts/dispute.sol:DisputeResolution",
						"label": "mainContract",
						"offset": 0,
						"slot": "1",
						"type": "t_address"
					},
					{
						"astId": 250,
						"contract": "contracts/dispute.sol:DisputeResolution",
						"label": "disputes",
						"offset": 0,
						"slot": "2",
						"type": "t_mapping(t_uint256,t_struct(Dispute)245_storage)"
					},
					{
						"astId": 256,
						"contract": "contracts/dispute.sol:DisputeResolution",
						"label": "stakedTokens",
						"offset": 0,
						"slot": "3",
						"type": "t_mapping(t_uint256,t_mapping(t_address,t_uint256))"
					},
					{
						"astId": 262,
						"contract": "contracts/dispute.sol:DisputeResolution",
						"label": "buyerStakedTokens",
						"offset": 0,
						"slot": "4",
						"type": "t_mapping(t_uint256,t_mapping(t_address,t_uint256))"
					},
					{
						"astId": 268,
						"contract": "contracts/dispute.sol:DisputeResolution",
						"label": "sellerStakedTokens",
						"offset": 0,
						"slot": "5",
						"type": "t_mapping(t_uint256,t_mapping(t_address,t_uint256))"
					},
					{
						"astId": 272,
						"contract": "contracts/dispute.sol:DisputeResolution",
						"label": "latestDisputeForProposal",
						"offset": 0,
						"slot": "6",
						"type": "t_mapping(t_uint256,t_uint256)"
					},
					{
						"astId": 276,
						"contract": "contracts/dispute.sol:DisputeResolution",
						"label": "disputesForProposalRequest",
						"offset": 0,
						"slot": "7",
						"type": "t_mapping(t_bytes32,t_uint256)"
					},
					{
						"astId": 278,
						"contract": "contracts/dispute.sol:DisputeResolution",
						"label": "winningThreshold",
						"offset": 0,
						"slot": "8",
						"type": "t_uint256"
					},
					{
						"astId": 280,
						"contract": "contracts/dispute.sol:DisputeResolution",
						"label": "disputeCount",
						"offset": 0,
						"slot": "9",
						"type": "t_uint256"
					}
				],
				"types": {
					"t_address": {
						"encoding": "inplace",
						"label": "address",
						"numberOfBytes": "20"
					},
					"t_bool": {
						"encoding": "inplace",
						"label": "bool",
						"numberOfBytes": "1"
					},
					"t_bytes32": {
						"encoding": "inplace",
						"label": "bytes32",
						"numberOfBytes": "32"
					},
					"t_mapping(t_address,t_uint256)": {
						"encoding": "mapping",
						"key": "t_address",
						"label": "mapping(address => uint256)",
						"numberOfBytes": "32",
						"value": "t_uint256"
					},
					"t_mapping(t_bytes32,t_uint256)": {
						"encoding": "mapping",
						"key": "t_bytes32",
						"label": "mapping(bytes32 => uint256)",
						"numberOfBytes": "32",
						"value": "t_uint256"
					},
					"t_mapping(t_uint256,t_mapping(t_address,t_uint256))": {
						"encoding": "mapping",
						"key": "t_uint256",
						"label": "mapping(uint256 => mapping(address => uint256))",
						"numberOfBytes": "32",
						"value": "t_mapping(t_address,t_uint256)"
					},
					"t_mapping(t_uint256,t_struct(Dispute)245_storage)": {
						"encoding": "mapping",
						"key": "t_uint256",
						"label": "mapping(uint256 => struct DisputeResolution.Dispute)",
						"numberOfBytes": "32",
						"value": "t_struct(Dispute)245_storage"
					},
					"t_mapping(t_uint256,t_uint256)": {
						"encoding": "mapping",
						"key": "t_uint256",
						"label": "mapping(uint256 => uint256)",
						"numberOfBytes": "32",
						"value": "t_uint256"
					},
					"t_struct(Dispute)245_storage": {
						"encoding": "inplace",
						"label": "struct DisputeResolution.Dispute",
						"members": [
							{
								"astId": 226,
								"contract": "contracts/dispute.sol:DisputeResolution",
								"label": "buyer",
								"offset": 0,
								"slot": "0",
								"type": "t_address"
							},
							{
								"astId": 228,
								"contract": "contracts/dispute.sol:DisputeResolution",
								"label": "seller",
								"offset": 0,
								"slot": "1",
								"type": "t_address"
							},
							{
								"astId": 230,
								"contract": "contracts/dispute.sol:DisputeResolution",
								"label": "proposalID",
								"offset": 0,
								"slot": "2",
								"type": "t_uint256"
							},
							{
								"astId": 232,
								"contract": "contracts/dispute.sol:DisputeResolution",
								"label": "buyerRequestIndex",
								"offset": 0,
								"slot": "3",
								"type": "t_uint256"
							},
							{
								"astId": 234,
								"contract": "contracts/dispute.sol:DisputeResolution",
								"label": "disputedAmount",
								"offset": 0,
								"slot": "4",
								"type": "t_uint256"
							},
							{
								"astId": 236,
								"contract": "contracts/dispute.sol:DisputeResolution",
								"label": "buyerVotes",
								"offset": 0,
								"slot": "5",
								"type": "t_uint256"
							},
							{
								"astId": 238,
								"contract": "contracts/dispute.sol:DisputeResolution",
								"label": "sellerVotes",
								"offset": 0,
								"slot": "6",
								"type": "t_uint256"
							},
							{
								"astId": 240,
								"contract": "contracts/dispute.sol:DisputeResolution",
								"label": "endTime",
								"offset": 0,
								"slot": "7",
								"type": "t_uint256"
							},
							{
								"astId": 242,
								"contract": "contracts/dispute.sol:DisputeResolution",
								"label": "resolved",
								"offset": 0,
								"slot": "8",
								"type": "t_bool"
							},
							{
								"astId": 244,
								"contract": "contracts/dispute.sol:DisputeResolution",
								"label": "winnerBuyer",
								"offset": 1,
								"slot": "8",
								"type": "t_bool"
							}
						],
						"numberOfBytes": "288"
					},
					"t_uint256": {
						"encoding": "inplace",
						"label": "uint256",
						"numberOfBytes": "32"
					}
				}
			},
			"userdoc": {
				"kind": "user",
				"methods": {},
				"version": 1
			}
		}
	}
}