{
	"contracts/disputeResolution.sol": {
		"DisputeResolution": {
			"abi": [
				{
					"inputs": [
						{
							"internalType": "contract IERC20",
							"name": "_finjaTokenInstance",
							"type": "address"
						}
					],
					"stateMutability": "nonpayable",
					"type": "constructor"
				},
				{
					"anonymous": false,
					"inputs": [
						{
							"indexed": true,
							"internalType": "uint256",
							"name": "proposalId",
							"type": "uint256"
						},
						{
							"indexed": true,
							"internalType": "uint256",
							"name": "buyerRequestIndex",
							"type": "uint256"
						},
						{
							"indexed": true,
							"internalType": "uint256",
							"name": "disputeId",
							"type": "uint256"
						},
						{
							"indexed": false,
							"internalType": "address",
							"name": "buyer",
							"type": "address"
						},
						{
							"indexed": false,
							"internalType": "address",
							"name": "seller",
							"type": "address"
						}
					],
					"name": "DisputeCreated",
					"type": "event"
				},
				{
					"anonymous": false,
					"inputs": [
						{
							"indexed": true,
							"internalType": "uint256",
							"name": "disputeId",
							"type": "uint256"
						}
					],
					"name": "DisputeReresolveDisputeFunctionTriggered",
					"type": "event"
				},
				{
					"anonymous": false,
					"inputs": [
						{
							"indexed": true,
							"internalType": "uint256",
							"name": "disputeId",
							"type": "uint256"
						},
						{
							"indexed": false,
							"internalType": "bool",
							"name": "inFavorOfBuyer",
							"type": "bool"
						}
					],
					"name": "DisputeResolved",
					"type": "event"
				},
				{
					"anonymous": false,
					"inputs": [
						{
							"indexed": true,
							"internalType": "address",
							"name": "previousOwner",
							"type": "address"
						},
						{
							"indexed": true,
							"internalType": "address",
							"name": "newOwner",
							"type": "address"
						}
					],
					"name": "OwnershipTransferred",
					"type": "event"
				},
				{
					"anonymous": false,
					"inputs": [
						{
							"indexed": true,
							"internalType": "uint256",
							"name": "disputeId",
							"type": "uint256"
						},
						{
							"indexed": false,
							"internalType": "address",
							"name": "voter",
							"type": "address"
						},
						{
							"indexed": false,
							"internalType": "bool",
							"name": "inFavorOfBuyer",
							"type": "bool"
						},
						{
							"indexed": false,
							"internalType": "uint256",
							"name": "amount",
							"type": "uint256"
						}
					],
					"name": "VoteSubmitted",
					"type": "event"
				},
				{
					"inputs": [
						{
							"internalType": "uint256",
							"name": "",
							"type": "uint256"
						},
						{
							"internalType": "address",
							"name": "",
							"type": "address"
						}
					],
					"name": "buyerStakedTokens",
					"outputs": [
						{
							"internalType": "uint256",
							"name": "",
							"type": "uint256"
						}
					],
					"stateMutability": "view",
					"type": "function"
				},
				{
					"inputs": [
						{
							"internalType": "uint256",
							"name": "proposalID",
							"type": "uint256"
						},
						{
							"internalType": "uint256",
							"name": "buyerRequestIndex",
							"type": "uint256"
						}
					],
					"name": "canCreateDispute",
					"outputs": [
						{
							"internalType": "bool",
							"name": "",
							"type": "bool"
						}
					],
					"stateMutability": "view",
					"type": "function"
				},
				{
					"inputs": [
						{
							"internalType": "uint256",
							"name": "disputeId",
							"type": "uint256"
						}
					],
					"name": "claimTokens",
					"outputs": [],
					"stateMutability": "nonpayable",
					"type": "function"
				},
				{
					"inputs": [
						{
							"internalType": "address",
							"name": "buyer",
							"type": "address"
						},
						{
							"internalType": "address",
							"name": "seller",
							"type": "address"
						},
						{
							"internalType": "uint256",
							"name": "proposalID",
							"type": "uint256"
						},
						{
							"internalType": "uint256",
							"name": "buyerRequestIndex",
							"type": "uint256"
						},
						{
							"internalType": "uint256",
							"name": "disputedAmount",
							"type": "uint256"
						}
					],
					"name": "createDispute",
					"outputs": [
						{
							"internalType": "uint256",
							"name": "",
							"type": "uint256"
						}
					],
					"stateMutability": "nonpayable",
					"type": "function"
				},
				{
					"inputs": [],
					"name": "disputeCount",
					"outputs": [
						{
							"internalType": "uint256",
							"name": "",
							"type": "uint256"
						}
					],
					"stateMutability": "view",
					"type": "function"
				},
				{
					"inputs": [
						{
							"internalType": "uint256",
							"name": "",
							"type": "uint256"
						}
					],
					"name": "disputes",
					"outputs": [
						{
							"internalType": "address",
							"name": "buyer",
							"type": "address"
						},
						{
							"internalType": "address",
							"name": "seller",
							"type": "address"
						},
						{
							"internalType": "uint256",
							"name": "proposalID",
							"type": "uint256"
						},
						{
							"internalType": "uint256",
							"name": "buyerRequestIndex",
							"type": "uint256"
						},
						{
							"internalType": "uint256",
							"name": "disputedAmount",
							"type": "uint256"
						},
						{
							"internalType": "uint256",
							"name": "buyerVotes",
							"type": "uint256"
						},
						{
							"internalType": "uint256",
							"name": "sellerVotes",
							"type": "uint256"
						},
						{
							"internalType": "uint256",
							"name": "endTime",
							"type": "uint256"
						},
						{
							"internalType": "bool",
							"name": "resolveDisputeFunctionTriggered",
							"type": "bool"
						},
						{
							"internalType": "bool",
							"name": "resolved",
							"type": "bool"
						},
						{
							"internalType": "bool",
							"name": "winnerBuyer",
							"type": "bool"
						}
					],
					"stateMutability": "view",
					"type": "function"
				},
				{
					"inputs": [
						{
							"internalType": "bytes32",
							"name": "",
							"type": "bytes32"
						}
					],
					"name": "disputesForProposalRequest",
					"outputs": [
						{
							"internalType": "uint256",
							"name": "",
							"type": "uint256"
						}
					],
					"stateMutability": "view",
					"type": "function"
				},
				{
					"inputs": [],
					"name": "finjaTokenInstance",
					"outputs": [
						{
							"internalType": "contract IERC20",
							"name": "",
							"type": "address"
						}
					],
					"stateMutability": "view",
					"type": "function"
				},
				{
					"inputs": [
						{
							"internalType": "uint256",
							"name": "disputeId",
							"type": "uint256"
						},
						{
							"internalType": "address",
							"name": "voter",
							"type": "address"
						}
					],
					"name": "getStakedTokens",
					"outputs": [
						{
							"internalType": "uint256",
							"name": "buyerTokens",
							"type": "uint256"
						},
						{
							"internalType": "uint256",
							"name": "sellerTokens",
							"type": "uint256"
						}
					],
					"stateMutability": "view",
					"type": "function"
				},
				{
					"inputs": [
						{
							"internalType": "uint256",
							"name": "",
							"type": "uint256"
						}
					],
					"name": "latestDisputeForProposal",
					"outputs": [
						{
							"internalType": "uint256",
							"name": "",
							"type": "uint256"
						}
					],
					"stateMutability": "view",
					"type": "function"
				},
				{
					"inputs": [],
					"name": "mainContract",
					"outputs": [
						{
							"internalType": "address",
							"name": "",
							"type": "address"
						}
					],
					"stateMutability": "view",
					"type": "function"
				},
				{
					"inputs": [],
					"name": "owner",
					"outputs": [
						{
							"internalType": "address",
							"name": "",
							"type": "address"
						}
					],
					"stateMutability": "view",
					"type": "function"
				},
				{
					"inputs": [],
					"name": "renounceOwnership",
					"outputs": [],
					"stateMutability": "nonpayable",
					"type": "function"
				},
				{
					"inputs": [
						{
							"internalType": "uint256",
							"name": "disputeId",
							"type": "uint256"
						}
					],
					"name": "resolveDispute",
					"outputs": [],
					"stateMutability": "nonpayable",
					"type": "function"
				},
				{
					"inputs": [
						{
							"internalType": "uint256",
							"name": "",
							"type": "uint256"
						},
						{
							"internalType": "address",
							"name": "",
							"type": "address"
						}
					],
					"name": "sellerStakedTokens",
					"outputs": [
						{
							"internalType": "uint256",
							"name": "",
							"type": "uint256"
						}
					],
					"stateMutability": "view",
					"type": "function"
				},
				{
					"inputs": [
						{
							"internalType": "address",
							"name": "_mainContract",
							"type": "address"
						}
					],
					"name": "setMainContract",
					"outputs": [],
					"stateMutability": "nonpayable",
					"type": "function"
				},
				{
					"inputs": [
						{
							"internalType": "uint256",
							"name": "_votingPeriod",
							"type": "uint256"
						}
					],
					"name": "setVotingPeriod",
					"outputs": [],
					"stateMutability": "nonpayable",
					"type": "function"
				},
				{
					"inputs": [
						{
							"internalType": "uint256",
							"name": "newThreshold",
							"type": "uint256"
						}
					],
					"name": "setWinningThreshold",
					"outputs": [],
					"stateMutability": "nonpayable",
					"type": "function"
				},
				{
					"inputs": [
						{
							"internalType": "uint256",
							"name": "",
							"type": "uint256"
						},
						{
							"internalType": "address",
							"name": "",
							"type": "address"
						}
					],
					"name": "stakedTokens",
					"outputs": [
						{
							"internalType": "uint256",
							"name": "",
							"type": "uint256"
						}
					],
					"stateMutability": "view",
					"type": "function"
				},
				{
					"inputs": [
						{
							"internalType": "address",
							"name": "newOwner",
							"type": "address"
						}
					],
					"name": "transferOwnership",
					"outputs": [],
					"stateMutability": "nonpayable",
					"type": "function"
				},
				{
					"inputs": [
						{
							"internalType": "uint256",
							"name": "disputeId",
							"type": "uint256"
						},
						{
							"internalType": "bool",
							"name": "inFavorOfBuyer",
							"type": "bool"
						},
						{
							"internalType": "uint256",
							"name": "amount",
							"type": "uint256"
						}
					],
					"name": "vote",
					"outputs": [],
					"stateMutability": "nonpayable",
					"type": "function"
				},
				{
					"inputs": [],
					"name": "votingPeriod",
					"outputs": [
						{
							"internalType": "uint256",
							"name": "",
							"type": "uint256"
						}
					],
					"stateMutability": "view",
					"type": "function"
				},
				{
					"inputs": [],
					"name": "winningThreshold",
					"outputs": [
						{
							"internalType": "uint256",
							"name": "",
							"type": "uint256"
						}
					],
					"stateMutability": "view",
					"type": "function"
				}
			],
			"devdoc": {
				"kind": "dev",
				"methods": {
					"owner()": {
						"details": "Returns the address of the current owner."
					},
					"renounceOwnership()": {
						"details": "Leaves the contract without owner. It will not be possible to call `onlyOwner` functions anymore. Can only be called by the current owner. NOTE: Renouncing ownership will leave the contract without an owner, thereby removing any functionality that is only available to the owner."
					},
					"transferOwnership(address)": {
						"details": "Transfers ownership of the contract to a new account (`newOwner`). Can only be called by the current owner."
					}
				},
				"version": 1
			},
			"evm": {
				"assembly": "    /* \"contracts/disputeResolution.sol\":216:8509  contract DisputeResolution is Ownable {... */\n  mstore(0x40, 0xa0)\n    /* \"contracts/disputeResolution.sol\":1611:1765  constructor(IERC20 _finjaTokenInstance) {... */\n  callvalue\n  dup1\n  iszero\n  tag_1\n  jumpi\n  0x00\n  dup1\n  revert\ntag_1:\n  pop\n  mload(0x40)\n  sub(codesize, bytecodeSize)\n  dup1\n  bytecodeSize\n  dup4\n  codecopy\n  dup2\n  dup2\n  add\n  0x40\n  mstore\n  dup2\n  add\n  swap1\n  tag_2\n  swap2\n  swap1\n  tag_3\n  jump\t// in\ntag_2:\n    /* \"@openzeppelin/contracts/access/Ownable.sol\":936:968  _transferOwnership(_msgSender()) */\n  tag_7\n    /* \"@openzeppelin/contracts/access/Ownable.sol\":955:967  _msgSender() */\n  tag_8\n    /* \"@openzeppelin/contracts/access/Ownable.sol\":955:965  _msgSender */\n  shl(0x20, tag_9)\n    /* \"@openzeppelin/contracts/access/Ownable.sol\":955:967  _msgSender() */\n  0x20\n  shr\n  jump\t// in\ntag_8:\n    /* \"@openzeppelin/contracts/access/Ownable.sol\":936:954  _transferOwnership */\n  shl(0x20, tag_10)\n    /* \"@openzeppelin/contracts/access/Ownable.sol\":936:968  _transferOwnership(_msgSender()) */\n  0x20\n  shr\n  jump\t// in\ntag_7:\n    /* \"contracts/disputeResolution.sol\":1682:1701  _finjaTokenInstance */\n  dup1\n    /* \"contracts/disputeResolution.sol\":1661:1701  finjaTokenInstance = _finjaTokenInstance */\n  0xffffffffffffffffffffffffffffffffffffffff\n  and\n  0x80\n  dup2\n  0xffffffffffffffffffffffffffffffffffffffff\n  and\n  dup2\n  mstore\n  pop\n  pop\n    /* \"contracts/disputeResolution.sol\":1730:1732  75 */\n  0x4b\n    /* \"contracts/disputeResolution.sol\":1711:1727  winningThreshold */\n  0x08\n    /* \"contracts/disputeResolution.sol\":1711:1732  winningThreshold = 75 */\n  dup2\n  swap1\n  sstore\n  pop\n    /* \"contracts/disputeResolution.sol\":1757:1758  0 */\n  0x00\n    /* \"contracts/disputeResolution.sol\":1742:1754  disputeCount */\n  0x09\n    /* \"contracts/disputeResolution.sol\":1742:1758  disputeCount = 0 */\n  dup2\n  swap1\n  sstore\n  pop\n    /* \"contracts/disputeResolution.sol\":1611:1765  constructor(IERC20 _finjaTokenInstance) {... */\n  pop\n    /* \"contracts/disputeResolution.sol\":216:8509  contract DisputeResolution is Ownable {... */\n  jump(tag_12)\n    /* \"@openzeppelin/contracts/utils/Context.sol\":640:736  function _msgSender() internal view virtual returns (address) {... */\ntag_9:\n    /* \"@openzeppelin/contracts/utils/Context.sol\":693:700  address */\n  0x00\n    /* \"@openzeppelin/contracts/utils/Context.sol\":719:729  msg.sender */\n  caller\n    /* \"@openzeppelin/contracts/utils/Context.sol\":712:729  return msg.sender */\n  swap1\n  pop\n    /* \"@openzeppelin/contracts/utils/Context.sol\":640:736  function _msgSender() internal view virtual returns (address) {... */\n  swap1\n  jump\t// out\n    /* \"@openzeppelin/contracts/access/Ownable.sol\":2433:2620  function _transferOwnership(address newOwner) internal virtual {... */\ntag_10:\n    /* \"@openzeppelin/contracts/access/Ownable.sol\":2506:2522  address oldOwner */\n  0x00\n    /* \"@openzeppelin/contracts/access/Ownable.sol\":2525:2531  _owner */\n  dup1\n  0x00\n  swap1\n  sload\n  swap1\n  0x0100\n  exp\n  swap1\n  div\n  0xffffffffffffffffffffffffffffffffffffffff\n  and\n    /* \"@openzeppelin/contracts/access/Ownable.sol\":2506:2531  address oldOwner = _owner */\n  swap1\n  pop\n    /* \"@openzeppelin/contracts/access/Ownable.sol\":2550:2558  newOwner */\n  dup2\n    /* \"@openzeppelin/contracts/access/Ownable.sol\":2541:2547  _owner */\n  0x00\n  dup1\n    /* \"@openzeppelin/contracts/access/Ownable.sol\":2541:2558  _owner = newOwner */\n  0x0100\n  exp\n  dup2\n  sload\n  dup2\n  0xffffffffffffffffffffffffffffffffffffffff\n  mul\n  not\n  and\n  swap1\n  dup4\n  0xffffffffffffffffffffffffffffffffffffffff\n  and\n  mul\n  or\n  swap1\n  sstore\n  pop\n    /* \"@openzeppelin/contracts/access/Ownable.sol\":2604:2612  newOwner */\n  dup2\n    /* \"@openzeppelin/contracts/access/Ownable.sol\":2573:2613  OwnershipTransferred(oldOwner, newOwner) */\n  0xffffffffffffffffffffffffffffffffffffffff\n  and\n    /* \"@openzeppelin/contracts/access/Ownable.sol\":2594:2602  oldOwner */\n  dup2\n    /* \"@openzeppelin/contracts/access/Ownable.sol\":2573:2613  OwnershipTransferred(oldOwner, newOwner) */\n  0xffffffffffffffffffffffffffffffffffffffff\n  and\n  0x8be0079c531659141344cd1fd0a4f28419497f9722a3daafe3b4186f6b6457e0\n  mload(0x40)\n  mload(0x40)\n  dup1\n  swap2\n  sub\n  swap1\n  log3\n    /* \"@openzeppelin/contracts/access/Ownable.sol\":2496:2620  {... */\n  pop\n    /* \"@openzeppelin/contracts/access/Ownable.sol\":2433:2620  function _transferOwnership(address newOwner) internal virtual {... */\n  pop\n  jump\t// out\n    /* \"#utility.yul\":88:205   */\ntag_16:\n    /* \"#utility.yul\":197:198   */\n  0x00\n    /* \"#utility.yul\":194:195   */\n  dup1\n    /* \"#utility.yul\":187:199   */\n  revert\n    /* \"#utility.yul\":334:460   */\ntag_18:\n    /* \"#utility.yul\":371:378   */\n  0x00\n    /* \"#utility.yul\":411:453   */\n  0xffffffffffffffffffffffffffffffffffffffff\n    /* \"#utility.yul\":404:409   */\n  dup3\n    /* \"#utility.yul\":400:454   */\n  and\n    /* \"#utility.yul\":389:454   */\n  swap1\n  pop\n    /* \"#utility.yul\":334:460   */\n  swap2\n  swap1\n  pop\n  jump\t// out\n    /* \"#utility.yul\":466:562   */\ntag_19:\n    /* \"#utility.yul\":503:510   */\n  0x00\n    /* \"#utility.yul\":532:556   */\n  tag_29\n    /* \"#utility.yul\":550:555   */\n  dup3\n    /* \"#utility.yul\":532:556   */\n  tag_18\n  jump\t// in\ntag_29:\n    /* \"#utility.yul\":521:556   */\n  swap1\n  pop\n    /* \"#utility.yul\":466:562   */\n  swap2\n  swap1\n  pop\n  jump\t// out\n    /* \"#utility.yul\":568:678   */\ntag_20:\n    /* \"#utility.yul\":619:626   */\n  0x00\n    /* \"#utility.yul\":648:672   */\n  tag_31\n    /* \"#utility.yul\":666:671   */\n  dup3\n    /* \"#utility.yul\":648:672   */\n  tag_19\n  jump\t// in\ntag_31:\n    /* \"#utility.yul\":637:672   */\n  swap1\n  pop\n    /* \"#utility.yul\":568:678   */\n  swap2\n  swap1\n  pop\n  jump\t// out\n    /* \"#utility.yul\":684:834   */\ntag_21:\n    /* \"#utility.yul\":771:809   */\n  tag_33\n    /* \"#utility.yul\":803:808   */\n  dup2\n    /* \"#utility.yul\":771:809   */\n  tag_20\n  jump\t// in\ntag_33:\n    /* \"#utility.yul\":764:769   */\n  dup2\n    /* \"#utility.yul\":761:810   */\n  eq\n    /* \"#utility.yul\":751:828   */\n  tag_34\n  jumpi\n    /* \"#utility.yul\":824:825   */\n  0x00\n    /* \"#utility.yul\":821:822   */\n  dup1\n    /* \"#utility.yul\":814:826   */\n  revert\n    /* \"#utility.yul\":751:828   */\ntag_34:\n    /* \"#utility.yul\":684:834   */\n  pop\n  jump\t// out\n    /* \"#utility.yul\":840:1011   */\ntag_22:\n    /* \"#utility.yul\":911:916   */\n  0x00\n    /* \"#utility.yul\":942:948   */\n  dup2\n    /* \"#utility.yul\":936:949   */\n  mload\n    /* \"#utility.yul\":927:949   */\n  swap1\n  pop\n    /* \"#utility.yul\":958:1005   */\n  tag_36\n    /* \"#utility.yul\":999:1004   */\n  dup2\n    /* \"#utility.yul\":958:1005   */\n  tag_21\n  jump\t// in\ntag_36:\n    /* \"#utility.yul\":840:1011   */\n  swap3\n  swap2\n  pop\n  pop\n  jump\t// out\n    /* \"#utility.yul\":1017:1396   */\ntag_3:\n    /* \"#utility.yul\":1101:1107   */\n  0x00\n    /* \"#utility.yul\":1150:1152   */\n  0x20\n    /* \"#utility.yul\":1138:1147   */\n  dup3\n    /* \"#utility.yul\":1129:1136   */\n  dup5\n    /* \"#utility.yul\":1125:1148   */\n  sub\n    /* \"#utility.yul\":1121:1153   */\n  slt\n    /* \"#utility.yul\":1118:1237   */\n  iszero\n  tag_38\n  jumpi\n    /* \"#utility.yul\":1156:1235   */\n  tag_39\n  tag_16\n  jump\t// in\ntag_39:\n    /* \"#utility.yul\":1118:1237   */\ntag_38:\n    /* \"#utility.yul\":1276:1277   */\n  0x00\n    /* \"#utility.yul\":1301:1379   */\n  tag_40\n    /* \"#utility.yul\":1371:1378   */\n  dup5\n    /* \"#utility.yul\":1362:1368   */\n  dup3\n    /* \"#utility.yul\":1351:1360   */\n  dup6\n    /* \"#utility.yul\":1347:1369   */\n  add\n    /* \"#utility.yul\":1301:1379   */\n  tag_22\n  jump\t// in\ntag_40:\n    /* \"#utility.yul\":1291:1379   */\n  swap2\n  pop\n    /* \"#utility.yul\":1247:1389   */\n  pop\n    /* \"#utility.yul\":1017:1396   */\n  swap3\n  swap2\n  pop\n  pop\n  jump\t// out\n    /* \"contracts/disputeResolution.sol\":216:8509  contract DisputeResolution is Ownable {... */\ntag_12:\n  mload(0x80)\n  codecopy(0x00, dataOffset(sub_0), dataSize(sub_0))\n  0x00\n  assignImmutable(\"0x53c7d35966a5a2c857f5b9d0889d9b28894dfc4ea0e7f834f61b293cc983dec7\")\n  return(0x00, dataSize(sub_0))\nstop\n\nsub_0: assembly {\n        /* \"contracts/disputeResolution.sol\":216:8509  contract DisputeResolution is Ownable {... */\n      mstore(0x40, 0x80)\n      callvalue\n      dup1\n      iszero\n      tag_1\n      jumpi\n      0x00\n      dup1\n      revert\n    tag_1:\n      pop\n      jumpi(tag_2, lt(calldatasize, 0x04))\n      shr(0xe0, calldataload(0x00))\n      dup1\n      0x768114a4\n      gt\n      tag_26\n      jumpi\n      dup1\n      0xd270e7ab\n      gt\n      tag_27\n      jumpi\n      dup1\n      0xd270e7ab\n      eq\n      tag_20\n      jumpi\n      dup1\n      0xd46a5d7e\n      eq\n      tag_21\n      jumpi\n      dup1\n      0xea0217cf\n      eq\n      tag_22\n      jumpi\n      dup1\n      0xf2fde38b\n      eq\n      tag_23\n      jumpi\n      dup1\n      0xfcff13f2\n      eq\n      tag_24\n      jumpi\n      dup1\n      0xffb18516\n      eq\n      tag_25\n      jumpi\n      jump(tag_2)\n    tag_27:\n      dup1\n      0x768114a4\n      eq\n      tag_14\n      jumpi\n      dup1\n      0x87c42c41\n      eq\n      tag_15\n      jumpi\n      dup1\n      0x8da5cb5b\n      eq\n      tag_16\n      jumpi\n      dup1\n      0x9f5f3a66\n      eq\n      tag_17\n      jumpi\n      dup1\n      0xa28889e1\n      eq\n      tag_18\n      jumpi\n      dup1\n      0xc2b7b868\n      eq\n      tag_19\n      jumpi\n      jump(tag_2)\n    tag_26:\n      dup1\n      0x438d649d\n      gt\n      tag_28\n      jumpi\n      dup1\n      0x438d649d\n      eq\n      tag_8\n      jumpi\n      dup1\n      0x46e04a2f\n      eq\n      tag_9\n      jumpi\n      dup1\n      0x564a565d\n      eq\n      tag_10\n      jumpi\n      dup1\n      0x56eeafd9\n      eq\n      tag_11\n      jumpi\n      dup1\n      0x6e6b2e2d\n      eq\n      tag_12\n      jumpi\n      dup1\n      0x715018a6\n      eq\n      tag_13\n      jumpi\n      jump(tag_2)\n    tag_28:\n      dup1\n      0x02a251a3\n      eq\n      tag_3\n      jumpi\n      dup1\n      0x03d4d7e7\n      eq\n      tag_4\n      jumpi\n      dup1\n      0x0e7d5d4e\n      eq\n      tag_5\n      jumpi\n      dup1\n      0x2c054503\n      eq\n      tag_6\n      jumpi\n      dup1\n      0x3ded33bc\n      eq\n      tag_7\n      jumpi\n    tag_2:\n      0x00\n      dup1\n      revert\n        /* \"contracts/disputeResolution.sol\":1171:1198  uint256 public votingPeriod */\n    tag_3:\n      tag_29\n      tag_30\n      jump\t// in\n    tag_29:\n      mload(0x40)\n      tag_31\n      swap2\n      swap1\n      tag_32\n      jump\t// in\n    tag_31:\n      mload(0x40)\n      dup1\n      swap2\n      sub\n      swap1\n      return\n        /* \"contracts/disputeResolution.sol\":2908:3623  function createDispute(address buyer, address seller, uint256 proposalID, uint256 buyerRequestIndex, uint256 disputedAmount) public onlyMainContract returns (uint256) {... */\n    tag_4:\n      tag_33\n      0x04\n      dup1\n      calldatasize\n      sub\n      dup2\n      add\n      swap1\n      tag_34\n      swap2\n      swap1\n      tag_35\n      jump\t// in\n    tag_34:\n      tag_36\n      jump\t// in\n    tag_33:\n      mload(0x40)\n      tag_37\n      swap2\n      swap1\n      tag_32\n      jump\t// in\n    tag_37:\n      mload(0x40)\n      dup1\n      swap2\n      sub\n      swap1\n      return\n        /* \"contracts/disputeResolution.sol\":293:335  IERC20 public immutable finjaTokenInstance */\n    tag_5:\n      tag_38\n      tag_39\n      jump\t// in\n    tag_38:\n      mload(0x40)\n      tag_40\n      swap2\n      swap1\n      tag_41\n      jump\t// in\n    tag_40:\n      mload(0x40)\n      dup1\n      swap2\n      sub\n      swap1\n      return\n        /* \"contracts/disputeResolution.sol\":2318:2906  function canCreateDispute(uint256 proposalID, uint256 buyerRequestIndex) public view returns (bool) {... */\n    tag_6:\n      tag_42\n      0x04\n      dup1\n      calldatasize\n      sub\n      dup2\n      add\n      swap1\n      tag_43\n      swap2\n      swap1\n      tag_44\n      jump\t// in\n    tag_43:\n      tag_45\n      jump\t// in\n    tag_42:\n      mload(0x40)\n      tag_46\n      swap2\n      swap1\n      tag_47\n      jump\t// in\n    tag_46:\n      mload(0x40)\n      dup1\n      swap2\n      sub\n      swap1\n      return\n        /* \"contracts/disputeResolution.sol\":1904:2035  function setMainContract (address _mainContract)... */\n    tag_7:\n      tag_48\n      0x04\n      dup1\n      calldatasize\n      sub\n      dup2\n      add\n      swap1\n      tag_49\n      swap2\n      swap1\n      tag_50\n      jump\t// in\n    tag_49:\n      tag_51\n      jump\t// in\n    tag_48:\n      stop\n        /* \"contracts/disputeResolution.sol\":1101:1132  uint256 public winningThreshold */\n    tag_8:\n      tag_52\n      tag_53\n      jump\t// in\n    tag_52:\n      mload(0x40)\n      tag_54\n      swap2\n      swap1\n      tag_32\n      jump\t// in\n    tag_54:\n      mload(0x40)\n      dup1\n      swap2\n      sub\n      swap1\n      return\n        /* \"contracts/disputeResolution.sol\":6878:8505  function claimTokens(uint256 disputeId) public {... */\n    tag_9:\n      tag_55\n      0x04\n      dup1\n      calldatasize\n      sub\n      dup2\n      add\n      swap1\n      tag_56\n      swap2\n      swap1\n      tag_57\n      jump\t// in\n    tag_56:\n      tag_58\n      jump\t// in\n    tag_55:\n      stop\n        /* \"contracts/disputeResolution.sol\":689:732  mapping(uint256 => Dispute) public disputes */\n    tag_10:\n      tag_59\n      0x04\n      dup1\n      calldatasize\n      sub\n      dup2\n      add\n      swap1\n      tag_60\n      swap2\n      swap1\n      tag_57\n      jump\t// in\n    tag_60:\n      tag_61\n      jump\t// in\n    tag_59:\n      mload(0x40)\n      tag_62\n      swap12\n      swap11\n      swap10\n      swap9\n      swap8\n      swap7\n      swap6\n      swap5\n      swap4\n      swap3\n      swap2\n      swap1\n      tag_63\n      jump\t// in\n    tag_62:\n      mload(0x40)\n      dup1\n      swap2\n      sub\n      swap1\n      return\n        /* \"contracts/disputeResolution.sol\":738:805  mapping(uint256 => mapping(address => uint256)) public stakedTokens */\n    tag_11:\n      tag_64\n      0x04\n      dup1\n      calldatasize\n      sub\n      dup2\n      add\n      swap1\n      tag_65\n      swap2\n      swap1\n      tag_66\n      jump\t// in\n    tag_65:\n      tag_67\n      jump\t// in\n    tag_64:\n      mload(0x40)\n      tag_68\n      swap2\n      swap1\n      tag_32\n      jump\t// in\n    tag_68:\n      mload(0x40)\n      dup1\n      swap2\n      sub\n      swap1\n      return\n        /* \"contracts/disputeResolution.sol\":968:1027  mapping(uint256 => uint256) public latestDisputeForProposal */\n    tag_12:\n      tag_69\n      0x04\n      dup1\n      calldatasize\n      sub\n      dup2\n      add\n      swap1\n      tag_70\n      swap2\n      swap1\n      tag_57\n      jump\t// in\n    tag_70:\n      tag_71\n      jump\t// in\n    tag_69:\n      mload(0x40)\n      tag_72\n      swap2\n      swap1\n      tag_32\n      jump\t// in\n    tag_72:\n      mload(0x40)\n      dup1\n      swap2\n      sub\n      swap1\n      return\n        /* \"@openzeppelin/contracts/access/Ownable.sol\":1831:1932  function renounceOwnership() public virtual onlyOwner {... */\n    tag_13:\n      tag_73\n      tag_74\n      jump\t// in\n    tag_73:\n      stop\n        /* \"contracts/disputeResolution.sol\":811:883  mapping(uint256 => mapping(address => uint256)) public buyerStakedTokens */\n    tag_14:\n      tag_75\n      0x04\n      dup1\n      calldatasize\n      sub\n      dup2\n      add\n      swap1\n      tag_76\n      swap2\n      swap1\n      tag_66\n      jump\t// in\n    tag_76:\n      tag_77\n      jump\t// in\n    tag_75:\n      mload(0x40)\n      tag_78\n      swap2\n      swap1\n      tag_32\n      jump\t// in\n    tag_78:\n      mload(0x40)\n      dup1\n      swap2\n      sub\n      swap1\n      return\n        /* \"contracts/disputeResolution.sol\":6356:6671  function getStakedTokens(uint256 disputeId, address voter) public view returns (uint256 buyerTokens, uint256 sellerTokens) {... */\n    tag_15:\n      tag_79\n      0x04\n      dup1\n      calldatasize\n      sub\n      dup2\n      add\n      swap1\n      tag_80\n      swap2\n      swap1\n      tag_66\n      jump\t// in\n    tag_80:\n      tag_81\n      jump\t// in\n    tag_79:\n      mload(0x40)\n      tag_82\n      swap3\n      swap2\n      swap1\n      tag_83\n      jump\t// in\n    tag_82:\n      mload(0x40)\n      dup1\n      swap2\n      sub\n      swap1\n      return\n        /* \"@openzeppelin/contracts/access/Ownable.sol\":1201:1286  function owner() public view virtual returns (address) {... */\n    tag_16:\n      tag_84\n      tag_85\n      jump\t// in\n    tag_84:\n      mload(0x40)\n      tag_86\n      swap2\n      swap1\n      tag_87\n      jump\t// in\n    tag_86:\n      mload(0x40)\n      dup1\n      swap2\n      sub\n      swap1\n      return\n        /* \"contracts/disputeResolution.sol\":6677:6872  function setWinningThreshold(uint256 newThreshold) public onlyOwner {... */\n    tag_17:\n      tag_88\n      0x04\n      dup1\n      calldatasize\n      sub\n      dup2\n      add\n      swap1\n      tag_89\n      swap2\n      swap1\n      tag_57\n      jump\t// in\n    tag_89:\n      tag_90\n      jump\t// in\n    tag_88:\n      stop\n        /* \"contracts/disputeResolution.sol\":1138:1165  uint256 public disputeCount */\n    tag_18:\n      tag_91\n      tag_92\n      jump\t// in\n    tag_91:\n      mload(0x40)\n      tag_93\n      swap2\n      swap1\n      tag_32\n      jump\t// in\n    tag_93:\n      mload(0x40)\n      dup1\n      swap2\n      sub\n      swap1\n      return\n        /* \"contracts/disputeResolution.sol\":4661:6348  function resolveDispute(uint256 disputeId) public {... */\n    tag_19:\n      tag_94\n      0x04\n      dup1\n      calldatasize\n      sub\n      dup2\n      add\n      swap1\n      tag_95\n      swap2\n      swap1\n      tag_57\n      jump\t// in\n    tag_95:\n      tag_96\n      jump\t// in\n    tag_94:\n      stop\n        /* \"contracts/disputeResolution.sol\":260:287  address public mainContract */\n    tag_20:\n      tag_97\n      tag_98\n      jump\t// in\n    tag_97:\n      mload(0x40)\n      tag_99\n      swap2\n      swap1\n      tag_87\n      jump\t// in\n    tag_99:\n      mload(0x40)\n      dup1\n      swap2\n      sub\n      swap1\n      return\n        /* \"contracts/disputeResolution.sol\":3625:4658  function vote(uint256 disputeId, bool inFavorOfBuyer, uint256 amount) public {... */\n    tag_21:\n      tag_100\n      0x04\n      dup1\n      calldatasize\n      sub\n      dup2\n      add\n      swap1\n      tag_101\n      swap2\n      swap1\n      tag_102\n      jump\t// in\n    tag_101:\n      tag_103\n      jump\t// in\n    tag_100:\n      stop\n        /* \"contracts/disputeResolution.sol\":2037:2140  function setVotingPeriod (uint256 _votingPeriod) public onlyOwner {... */\n    tag_22:\n      tag_104\n      0x04\n      dup1\n      calldatasize\n      sub\n      dup2\n      add\n      swap1\n      tag_105\n      swap2\n      swap1\n      tag_57\n      jump\t// in\n    tag_105:\n      tag_106\n      jump\t// in\n    tag_104:\n      stop\n        /* \"@openzeppelin/contracts/access/Ownable.sol\":2081:2279  function transferOwnership(address newOwner) public virtual onlyOwner {... */\n    tag_23:\n      tag_107\n      0x04\n      dup1\n      calldatasize\n      sub\n      dup2\n      add\n      swap1\n      tag_108\n      swap2\n      swap1\n      tag_50\n      jump\t// in\n    tag_108:\n      tag_109\n      jump\t// in\n    tag_107:\n      stop\n        /* \"contracts/disputeResolution.sol\":889:962  mapping(uint256 => mapping(address => uint256)) public sellerStakedTokens */\n    tag_24:\n      tag_110\n      0x04\n      dup1\n      calldatasize\n      sub\n      dup2\n      add\n      swap1\n      tag_111\n      swap2\n      swap1\n      tag_66\n      jump\t// in\n    tag_111:\n      tag_112\n      jump\t// in\n    tag_110:\n      mload(0x40)\n      tag_113\n      swap2\n      swap1\n      tag_32\n      jump\t// in\n    tag_113:\n      mload(0x40)\n      dup1\n      swap2\n      sub\n      swap1\n      return\n        /* \"contracts/disputeResolution.sol\":1033:1094  mapping(bytes32 => uint256) public disputesForProposalRequest */\n    tag_25:\n      tag_114\n      0x04\n      dup1\n      calldatasize\n      sub\n      dup2\n      add\n      swap1\n      tag_115\n      swap2\n      swap1\n      tag_116\n      jump\t// in\n    tag_115:\n      tag_117\n      jump\t// in\n    tag_114:\n      mload(0x40)\n      tag_118\n      swap2\n      swap1\n      tag_32\n      jump\t// in\n    tag_118:\n      mload(0x40)\n      dup1\n      swap2\n      sub\n      swap1\n      return\n        /* \"contracts/disputeResolution.sol\":1171:1198  uint256 public votingPeriod */\n    tag_30:\n      sload(0x0a)\n      dup2\n      jump\t// out\n        /* \"contracts/disputeResolution.sol\":2908:3623  function createDispute(address buyer, address seller, uint256 proposalID, uint256 buyerRequestIndex, uint256 disputedAmount) public onlyMainContract returns (uint256) {... */\n    tag_36:\n        /* \"contracts/disputeResolution.sol\":3066:3073  uint256 */\n      0x00\n        /* \"contracts/disputeResolution.sol\":1832:1844  mainContract */\n      0x01\n      0x00\n      swap1\n      sload\n      swap1\n      0x0100\n      exp\n      swap1\n      div\n      0xffffffffffffffffffffffffffffffffffffffff\n      and\n        /* \"contracts/disputeResolution.sol\":1818:1844  msg.sender == mainContract */\n      0xffffffffffffffffffffffffffffffffffffffff\n      and\n        /* \"contracts/disputeResolution.sol\":1818:1828  msg.sender */\n      caller\n        /* \"contracts/disputeResolution.sol\":1818:1844  msg.sender == mainContract */\n      0xffffffffffffffffffffffffffffffffffffffff\n      and\n      eq\n        /* \"contracts/disputeResolution.sol\":1810:1880  require(msg.sender == mainContract, \"Caller is not the main contract\") */\n      tag_120\n      jumpi\n      mload(0x40)\n      0x08c379a000000000000000000000000000000000000000000000000000000000\n      dup2\n      mstore\n      0x04\n      add\n      tag_121\n      swap1\n      tag_122\n      jump\t// in\n    tag_121:\n      mload(0x40)\n      dup1\n      swap2\n      sub\n      swap1\n      revert\n    tag_120:\n        /* \"contracts/disputeResolution.sol\":3089:3136  canCreateDispute(proposalID, buyerRequestIndex) */\n      tag_124\n        /* \"contracts/disputeResolution.sol\":3106:3116  proposalID */\n      dup5\n        /* \"contracts/disputeResolution.sol\":3118:3135  buyerRequestIndex */\n      dup5\n        /* \"contracts/disputeResolution.sol\":3089:3105  canCreateDispute */\n      tag_45\n        /* \"contracts/disputeResolution.sol\":3089:3136  canCreateDispute(proposalID, buyerRequestIndex) */\n      jump\t// in\n    tag_124:\n        /* \"contracts/disputeResolution.sol\":3081:3209  require(canCreateDispute(proposalID, buyerRequestIndex), \"Cannot create a new dispute for the given proposal and buyer request\") */\n      tag_125\n      jumpi\n      mload(0x40)\n      0x08c379a000000000000000000000000000000000000000000000000000000000\n      dup2\n      mstore\n      0x04\n      add\n      tag_126\n      swap1\n      tag_127\n      jump\t// in\n    tag_126:\n      mload(0x40)\n      dup1\n      swap2\n      sub\n      swap1\n      revert\n    tag_125:\n        /* \"contracts/disputeResolution.sol\":3215:3232  uint256 disputeId */\n      0x00\n        /* \"contracts/disputeResolution.sol\":3235:3247  disputeCount */\n      0x09\n      0x00\n        /* \"contracts/disputeResolution.sol\":3235:3249  disputeCount++ */\n      dup2\n      sload\n      dup1\n      swap3\n      swap2\n      swap1\n      tag_128\n      swap1\n      tag_129\n      jump\t// in\n    tag_128:\n      swap2\n      swap1\n      pop\n      sstore\n        /* \"contracts/disputeResolution.sol\":3215:3249  uint256 disputeId = disputeCount++ */\n      swap1\n      pop\n        /* \"contracts/disputeResolution.sol\":3277:3405  Dispute(buyer, seller, proposalID, buyerRequestIndex, disputedAmount, 0, 0, block.timestamp + votingPeriod, false, false, false) */\n      mload(0x40)\n      dup1\n      0x0160\n      add\n      0x40\n      mstore\n      dup1\n        /* \"contracts/disputeResolution.sol\":3285:3290  buyer */\n      dup9\n        /* \"contracts/disputeResolution.sol\":3277:3405  Dispute(buyer, seller, proposalID, buyerRequestIndex, disputedAmount, 0, 0, block.timestamp + votingPeriod, false, false, false) */\n      0xffffffffffffffffffffffffffffffffffffffff\n      and\n      dup2\n      mstore\n      0x20\n      add\n        /* \"contracts/disputeResolution.sol\":3292:3298  seller */\n      dup8\n        /* \"contracts/disputeResolution.sol\":3277:3405  Dispute(buyer, seller, proposalID, buyerRequestIndex, disputedAmount, 0, 0, block.timestamp + votingPeriod, false, false, false) */\n      0xffffffffffffffffffffffffffffffffffffffff\n      and\n      dup2\n      mstore\n      0x20\n      add\n        /* \"contracts/disputeResolution.sol\":3300:3310  proposalID */\n      dup7\n        /* \"contracts/disputeResolution.sol\":3277:3405  Dispute(buyer, seller, proposalID, buyerRequestIndex, disputedAmount, 0, 0, block.timestamp + votingPeriod, false, false, false) */\n      dup2\n      mstore\n      0x20\n      add\n        /* \"contracts/disputeResolution.sol\":3312:3329  buyerRequestIndex */\n      dup6\n        /* \"contracts/disputeResolution.sol\":3277:3405  Dispute(buyer, seller, proposalID, buyerRequestIndex, disputedAmount, 0, 0, block.timestamp + votingPeriod, false, false, false) */\n      dup2\n      mstore\n      0x20\n      add\n        /* \"contracts/disputeResolution.sol\":3331:3345  disputedAmount */\n      dup5\n        /* \"contracts/disputeResolution.sol\":3277:3405  Dispute(buyer, seller, proposalID, buyerRequestIndex, disputedAmount, 0, 0, block.timestamp + votingPeriod, false, false, false) */\n      dup2\n      mstore\n      0x20\n      add\n        /* \"contracts/disputeResolution.sol\":3347:3348  0 */\n      0x00\n        /* \"contracts/disputeResolution.sol\":3277:3405  Dispute(buyer, seller, proposalID, buyerRequestIndex, disputedAmount, 0, 0, block.timestamp + votingPeriod, false, false, false) */\n      dup2\n      mstore\n      0x20\n      add\n        /* \"contracts/disputeResolution.sol\":3350:3351  0 */\n      0x00\n        /* \"contracts/disputeResolution.sol\":3277:3405  Dispute(buyer, seller, proposalID, buyerRequestIndex, disputedAmount, 0, 0, block.timestamp + votingPeriod, false, false, false) */\n      dup2\n      mstore\n      0x20\n      add\n        /* \"contracts/disputeResolution.sol\":3371:3383  votingPeriod */\n      sload(0x0a)\n        /* \"contracts/disputeResolution.sol\":3353:3368  block.timestamp */\n      timestamp\n        /* \"contracts/disputeResolution.sol\":3353:3383  block.timestamp + votingPeriod */\n      tag_130\n      swap2\n      swap1\n      tag_131\n      jump\t// in\n    tag_130:\n        /* \"contracts/disputeResolution.sol\":3277:3405  Dispute(buyer, seller, proposalID, buyerRequestIndex, disputedAmount, 0, 0, block.timestamp + votingPeriod, false, false, false) */\n      dup2\n      mstore\n      0x20\n      add\n        /* \"contracts/disputeResolution.sol\":3385:3390  false */\n      0x00\n        /* \"contracts/disputeResolution.sol\":3277:3405  Dispute(buyer, seller, proposalID, buyerRequestIndex, disputedAmount, 0, 0, block.timestamp + votingPeriod, false, false, false) */\n      iszero\n      iszero\n      dup2\n      mstore\n      0x20\n      add\n        /* \"contracts/disputeResolution.sol\":3392:3397  false */\n      0x00\n        /* \"contracts/disputeResolution.sol\":3277:3405  Dispute(buyer, seller, proposalID, buyerRequestIndex, disputedAmount, 0, 0, block.timestamp + votingPeriod, false, false, false) */\n      iszero\n      iszero\n      dup2\n      mstore\n      0x20\n      add\n        /* \"contracts/disputeResolution.sol\":3399:3404  false */\n      0x00\n        /* \"contracts/disputeResolution.sol\":3277:3405  Dispute(buyer, seller, proposalID, buyerRequestIndex, disputedAmount, 0, 0, block.timestamp + votingPeriod, false, false, false) */\n      iszero\n      iszero\n      dup2\n      mstore\n      pop\n        /* \"contracts/disputeResolution.sol\":3255:3263  disputes */\n      0x02\n        /* \"contracts/disputeResolution.sol\":3255:3274  disputes[disputeId] */\n      0x00\n        /* \"contracts/disputeResolution.sol\":3264:3273  disputeId */\n      dup4\n        /* \"contracts/disputeResolution.sol\":3255:3274  disputes[disputeId] */\n      dup2\n      mstore\n      0x20\n      add\n      swap1\n      dup2\n      mstore\n      0x20\n      add\n      0x00\n      keccak256\n        /* \"contracts/disputeResolution.sol\":3255:3405  disputes[disputeId] = Dispute(buyer, seller, proposalID, buyerRequestIndex, disputedAmount, 0, 0, block.timestamp + votingPeriod, false, false, false) */\n      0x00\n      dup3\n      add\n      mload\n      dup2\n      0x00\n      add\n      exp(0x0100, 0x00)\n      dup2\n      sload\n      dup2\n      0xffffffffffffffffffffffffffffffffffffffff\n      mul\n      not\n      and\n      swap1\n      dup4\n      0xffffffffffffffffffffffffffffffffffffffff\n      and\n      mul\n      or\n      swap1\n      sstore\n      pop\n      0x20\n      dup3\n      add\n      mload\n      dup2\n      0x01\n      add\n      exp(0x0100, 0x00)\n      dup2\n      sload\n      dup2\n      0xffffffffffffffffffffffffffffffffffffffff\n      mul\n      not\n      and\n      swap1\n      dup4\n      0xffffffffffffffffffffffffffffffffffffffff\n      and\n      mul\n      or\n      swap1\n      sstore\n      pop\n      0x40\n      dup3\n      add\n      mload\n      dup2\n      0x02\n      add\n      sstore\n      0x60\n      dup3\n      add\n      mload\n      dup2\n      0x03\n      add\n      sstore\n      0x80\n      dup3\n      add\n      mload\n      dup2\n      0x04\n      add\n      sstore\n      0xa0\n      dup3\n      add\n      mload\n      dup2\n      0x05\n      add\n      sstore\n      0xc0\n      dup3\n      add\n      mload\n      dup2\n      0x06\n      add\n      sstore\n      0xe0\n      dup3\n      add\n      mload\n      dup2\n      0x07\n      add\n      sstore\n      0x0100\n      dup3\n      add\n      mload\n      dup2\n      0x08\n      add\n      exp(0x0100, 0x00)\n      dup2\n      sload\n      dup2\n      0xff\n      mul\n      not\n      and\n      swap1\n      dup4\n      iszero\n      iszero\n      mul\n      or\n      swap1\n      sstore\n      pop\n      0x0120\n      dup3\n      add\n      mload\n      dup2\n      0x08\n      add\n      exp(0x0100, 0x01)\n      dup2\n      sload\n      dup2\n      0xff\n      mul\n      not\n      and\n      swap1\n      dup4\n      iszero\n      iszero\n      mul\n      or\n      swap1\n      sstore\n      pop\n      0x0140\n      dup3\n      add\n      mload\n      dup2\n      0x08\n      add\n      exp(0x0100, 0x02)\n      dup2\n      sload\n      dup2\n      0xff\n      mul\n      not\n      and\n      swap1\n      dup4\n      iszero\n      iszero\n      mul\n      or\n      swap1\n      sstore\n      pop\n      swap1\n      pop\n      pop\n        /* \"contracts/disputeResolution.sol\":3411:3422  bytes32 key */\n      0x00\n        /* \"contracts/disputeResolution.sol\":3425:3467  generateKey(proposalID, buyerRequestIndex) */\n      tag_132\n        /* \"contracts/disputeResolution.sol\":3437:3447  proposalID */\n      dup7\n        /* \"contracts/disputeResolution.sol\":3449:3466  buyerRequestIndex */\n      dup7\n        /* \"contracts/disputeResolution.sol\":3425:3436  generateKey */\n      tag_133\n        /* \"contracts/disputeResolution.sol\":3425:3467  generateKey(proposalID, buyerRequestIndex) */\n      jump\t// in\n    tag_132:\n        /* \"contracts/disputeResolution.sol\":3411:3467  bytes32 key = generateKey(proposalID, buyerRequestIndex) */\n      swap1\n      pop\n        /* \"contracts/disputeResolution.sol\":3507:3516  disputeId */\n      dup2\n        /* \"contracts/disputeResolution.sol\":3473:3499  disputesForProposalRequest */\n      0x07\n        /* \"contracts/disputeResolution.sol\":3473:3504  disputesForProposalRequest[key] */\n      0x00\n        /* \"contracts/disputeResolution.sol\":3500:3503  key */\n      dup4\n        /* \"contracts/disputeResolution.sol\":3473:3504  disputesForProposalRequest[key] */\n      dup2\n      mstore\n      0x20\n      add\n      swap1\n      dup2\n      mstore\n      0x20\n      add\n      0x00\n      keccak256\n        /* \"contracts/disputeResolution.sol\":3473:3516  disputesForProposalRequest[key] = disputeId */\n      dup2\n      swap1\n      sstore\n      pop\n        /* \"contracts/disputeResolution.sol\":3573:3582  disputeId */\n      dup2\n        /* \"contracts/disputeResolution.sol\":3554:3571  buyerRequestIndex */\n      dup6\n        /* \"contracts/disputeResolution.sol\":3542:3552  proposalID */\n      dup8\n        /* \"contracts/disputeResolution.sol\":3527:3598  DisputeCreated(proposalID, buyerRequestIndex, disputeId, buyer, seller) */\n      0xfc7fbf4c318ba42af9b9bbbff385c82e86c3422dbbaf01ff414d0c96fa201ec7\n        /* \"contracts/disputeResolution.sol\":3584:3589  buyer */\n      dup12\n        /* \"contracts/disputeResolution.sol\":3591:3597  seller */\n      dup12\n        /* \"contracts/disputeResolution.sol\":3527:3598  DisputeCreated(proposalID, buyerRequestIndex, disputeId, buyer, seller) */\n      mload(0x40)\n      tag_134\n      swap3\n      swap2\n      swap1\n      tag_135\n      jump\t// in\n    tag_134:\n      mload(0x40)\n      dup1\n      swap2\n      sub\n      swap1\n      log4\n        /* \"contracts/disputeResolution.sol\":3611:3620  disputeId */\n      dup2\n        /* \"contracts/disputeResolution.sol\":3604:3620  return disputeId */\n      swap3\n      pop\n      pop\n      pop\n        /* \"contracts/disputeResolution.sol\":2908:3623  function createDispute(address buyer, address seller, uint256 proposalID, uint256 buyerRequestIndex, uint256 disputedAmount) public onlyMainContract returns (uint256) {... */\n      swap6\n      swap5\n      pop\n      pop\n      pop\n      pop\n      pop\n      jump\t// out\n        /* \"contracts/disputeResolution.sol\":293:335  IERC20 public immutable finjaTokenInstance */\n    tag_39:\n      immutable(\"0x53c7d35966a5a2c857f5b9d0889d9b28894dfc4ea0e7f834f61b293cc983dec7\")\n      dup2\n      jump\t// out\n        /* \"contracts/disputeResolution.sol\":2318:2906  function canCreateDispute(uint256 proposalID, uint256 buyerRequestIndex) public view returns (bool) {... */\n    tag_45:\n        /* \"contracts/disputeResolution.sol\":2412:2416  bool */\n      0x00\n        /* \"contracts/disputeResolution.sol\":2424:2435  bytes32 key */\n      dup1\n        /* \"contracts/disputeResolution.sol\":2438:2480  generateKey(proposalID, buyerRequestIndex) */\n      tag_137\n        /* \"contracts/disputeResolution.sol\":2450:2460  proposalID */\n      dup5\n        /* \"contracts/disputeResolution.sol\":2462:2479  buyerRequestIndex */\n      dup5\n        /* \"contracts/disputeResolution.sol\":2438:2449  generateKey */\n      tag_133\n        /* \"contracts/disputeResolution.sol\":2438:2480  generateKey(proposalID, buyerRequestIndex) */\n      jump\t// in\n    tag_137:\n        /* \"contracts/disputeResolution.sol\":2424:2480  bytes32 key = generateKey(proposalID, buyerRequestIndex) */\n      swap1\n      pop\n        /* \"contracts/disputeResolution.sol\":2486:2509  uint256 latestDisputeId */\n      0x00\n        /* \"contracts/disputeResolution.sol\":2512:2538  disputesForProposalRequest */\n      0x07\n        /* \"contracts/disputeResolution.sol\":2512:2543  disputesForProposalRequest[key] */\n      0x00\n        /* \"contracts/disputeResolution.sol\":2539:2542  key */\n      dup4\n        /* \"contracts/disputeResolution.sol\":2512:2543  disputesForProposalRequest[key] */\n      dup2\n      mstore\n      0x20\n      add\n      swap1\n      dup2\n      mstore\n      0x20\n      add\n      0x00\n      keccak256\n      sload\n        /* \"contracts/disputeResolution.sol\":2486:2543  uint256 latestDisputeId = disputesForProposalRequest[key] */\n      swap1\n      pop\n        /* \"contracts/disputeResolution.sol\":2572:2573  0 */\n      0x00\n        /* \"contracts/disputeResolution.sol\":2553:2568  latestDisputeId */\n      dup2\n        /* \"contracts/disputeResolution.sol\":2553:2573  latestDisputeId == 0 */\n      sub\n        /* \"contracts/disputeResolution.sol\":2549:2680  if (latestDisputeId == 0) {... */\n      tag_138\n      jumpi\n        /* \"contracts/disputeResolution.sol\":2669:2673  true */\n      0x01\n        /* \"contracts/disputeResolution.sol\":2662:2673  return true */\n      swap3\n      pop\n      pop\n      pop\n      jump(tag_136)\n        /* \"contracts/disputeResolution.sol\":2549:2680  if (latestDisputeId == 0) {... */\n    tag_138:\n        /* \"contracts/disputeResolution.sol\":2685:2707  Dispute memory dispute */\n      0x00\n        /* \"contracts/disputeResolution.sol\":2710:2718  disputes */\n      0x02\n        /* \"contracts/disputeResolution.sol\":2710:2735  disputes[latestDisputeId] */\n      0x00\n        /* \"contracts/disputeResolution.sol\":2719:2734  latestDisputeId */\n      dup4\n        /* \"contracts/disputeResolution.sol\":2710:2735  disputes[latestDisputeId] */\n      dup2\n      mstore\n      0x20\n      add\n      swap1\n      dup2\n      mstore\n      0x20\n      add\n      0x00\n      keccak256\n        /* \"contracts/disputeResolution.sol\":2685:2735  Dispute memory dispute = disputes[latestDisputeId] */\n      mload(0x40)\n      dup1\n      0x0160\n      add\n      0x40\n      mstore\n      swap1\n      dup2\n      0x00\n      dup3\n      add\n      0x00\n      swap1\n      sload\n      swap1\n      0x0100\n      exp\n      swap1\n      div\n      0xffffffffffffffffffffffffffffffffffffffff\n      and\n      0xffffffffffffffffffffffffffffffffffffffff\n      and\n      0xffffffffffffffffffffffffffffffffffffffff\n      and\n      dup2\n      mstore\n      0x20\n      add\n      0x01\n      dup3\n      add\n      0x00\n      swap1\n      sload\n      swap1\n      0x0100\n      exp\n      swap1\n      div\n      0xffffffffffffffffffffffffffffffffffffffff\n      and\n      0xffffffffffffffffffffffffffffffffffffffff\n      and\n      0xffffffffffffffffffffffffffffffffffffffff\n      and\n      dup2\n      mstore\n      0x20\n      add\n      0x02\n      dup3\n      add\n      sload\n      dup2\n      mstore\n      0x20\n      add\n      0x03\n      dup3\n      add\n      sload\n      dup2\n      mstore\n      0x20\n      add\n      0x04\n      dup3\n      add\n      sload\n      dup2\n      mstore\n      0x20\n      add\n      0x05\n      dup3\n      add\n      sload\n      dup2\n      mstore\n      0x20\n      add\n      0x06\n      dup3\n      add\n      sload\n      dup2\n      mstore\n      0x20\n      add\n      0x07\n      dup3\n      add\n      sload\n      dup2\n      mstore\n      0x20\n      add\n      0x08\n      dup3\n      add\n      0x00\n      swap1\n      sload\n      swap1\n      0x0100\n      exp\n      swap1\n      div\n      0xff\n      and\n      iszero\n      iszero\n      iszero\n      iszero\n      dup2\n      mstore\n      0x20\n      add\n      0x08\n      dup3\n      add\n      0x01\n      swap1\n      sload\n      swap1\n      0x0100\n      exp\n      swap1\n      div\n      0xff\n      and\n      iszero\n      iszero\n      iszero\n      iszero\n      dup2\n      mstore\n      0x20\n      add\n      0x08\n      dup3\n      add\n      0x02\n      swap1\n      sload\n      swap1\n      0x0100\n      exp\n      swap1\n      div\n      0xff\n      and\n      iszero\n      iszero\n      iszero\n      iszero\n      dup2\n      mstore\n      pop\n      pop\n      swap1\n      pop\n        /* \"contracts/disputeResolution.sol\":2806:2813  dispute */\n      dup1\n        /* \"contracts/disputeResolution.sol\":2806:2822  dispute.resolved */\n      0x0120\n      add\n      mload\n        /* \"contracts/disputeResolution.sol\":2805:2822  !dispute.resolved */\n      iszero\n        /* \"contracts/disputeResolution.sol\":2805:2860  !dispute.resolved && dispute.endTime <= block.timestamp */\n      dup1\n      iszero\n      tag_139\n      jumpi\n      pop\n        /* \"contracts/disputeResolution.sol\":2845:2860  block.timestamp */\n      timestamp\n        /* \"contracts/disputeResolution.sol\":2826:2833  dispute */\n      dup2\n        /* \"contracts/disputeResolution.sol\":2826:2841  dispute.endTime */\n      0xe0\n      add\n      mload\n        /* \"contracts/disputeResolution.sol\":2826:2860  dispute.endTime <= block.timestamp */\n      gt\n      iszero\n        /* \"contracts/disputeResolution.sol\":2805:2860  !dispute.resolved && dispute.endTime <= block.timestamp */\n    tag_139:\n        /* \"contracts/disputeResolution.sol\":2805:2903  !dispute.resolved && dispute.endTime <= block.timestamp && dispute.resolveDisputeFunctionTriggered */\n      dup1\n      iszero\n      tag_140\n      jumpi\n      pop\n        /* \"contracts/disputeResolution.sol\":2864:2871  dispute */\n      dup1\n        /* \"contracts/disputeResolution.sol\":2864:2903  dispute.resolveDisputeFunctionTriggered */\n      0x0100\n      add\n      mload\n        /* \"contracts/disputeResolution.sol\":2805:2903  !dispute.resolved && dispute.endTime <= block.timestamp && dispute.resolveDisputeFunctionTriggered */\n    tag_140:\n        /* \"contracts/disputeResolution.sol\":2798:2903  return !dispute.resolved && dispute.endTime <= block.timestamp && dispute.resolveDisputeFunctionTriggered */\n      swap4\n      pop\n      pop\n      pop\n      pop\n        /* \"contracts/disputeResolution.sol\":2318:2906  function canCreateDispute(uint256 proposalID, uint256 buyerRequestIndex) public view returns (bool) {... */\n    tag_136:\n      swap3\n      swap2\n      pop\n      pop\n      jump\t// out\n        /* \"contracts/disputeResolution.sol\":1904:2035  function setMainContract (address _mainContract)... */\n    tag_51:\n        /* \"@openzeppelin/contracts/access/Ownable.sol\":1094:1107  _checkOwner() */\n      tag_142\n        /* \"@openzeppelin/contracts/access/Ownable.sol\":1094:1105  _checkOwner */\n      tag_143\n        /* \"@openzeppelin/contracts/access/Ownable.sol\":1094:1107  _checkOwner() */\n      jump\t// in\n    tag_142:\n        /* \"contracts/disputeResolution.sol\":2015:2028  _mainContract */\n      dup1\n        /* \"contracts/disputeResolution.sol\":2000:2012  mainContract */\n      0x01\n      0x00\n        /* \"contracts/disputeResolution.sol\":2000:2028  mainContract = _mainContract */\n      0x0100\n      exp\n      dup2\n      sload\n      dup2\n      0xffffffffffffffffffffffffffffffffffffffff\n      mul\n      not\n      and\n      swap1\n      dup4\n      0xffffffffffffffffffffffffffffffffffffffff\n      and\n      mul\n      or\n      swap1\n      sstore\n      pop\n        /* \"contracts/disputeResolution.sol\":1904:2035  function setMainContract (address _mainContract)... */\n      pop\n      jump\t// out\n        /* \"contracts/disputeResolution.sol\":1101:1132  uint256 public winningThreshold */\n    tag_53:\n      sload(0x08)\n      dup2\n      jump\t// out\n        /* \"contracts/disputeResolution.sol\":6878:8505  function claimTokens(uint256 disputeId) public {... */\n    tag_58:\n        /* \"contracts/disputeResolution.sol\":6951:6963  disputeCount */\n      sload(0x09)\n        /* \"contracts/disputeResolution.sol\":6939:6948  disputeId */\n      dup2\n        /* \"contracts/disputeResolution.sol\":6939:6963  disputeId < disputeCount */\n      lt\n        /* \"contracts/disputeResolution.sol\":6931:6986  require(disputeId < disputeCount, \"Invalid dispute ID\") */\n      tag_146\n      jumpi\n      mload(0x40)\n      0x08c379a000000000000000000000000000000000000000000000000000000000\n      dup2\n      mstore\n      0x04\n      add\n      tag_147\n      swap1\n      tag_148\n      jump\t// in\n    tag_147:\n      mload(0x40)\n      dup1\n      swap2\n      sub\n      swap1\n      revert\n    tag_146:\n        /* \"contracts/disputeResolution.sol\":7000:7008  disputes */\n      0x02\n        /* \"contracts/disputeResolution.sol\":7000:7019  disputes[disputeId] */\n      0x00\n        /* \"contracts/disputeResolution.sol\":7009:7018  disputeId */\n      dup3\n        /* \"contracts/disputeResolution.sol\":7000:7019  disputes[disputeId] */\n      dup2\n      mstore\n      0x20\n      add\n      swap1\n      dup2\n      mstore\n      0x20\n      add\n      0x00\n      keccak256\n        /* \"contracts/disputeResolution.sol\":7000:7051  disputes[disputeId].resolveDisputeFunctionTriggered */\n      0x08\n      add\n      0x00\n      swap1\n      sload\n      swap1\n      0x0100\n      exp\n      swap1\n      div\n      0xff\n      and\n        /* \"contracts/disputeResolution.sol\":6992:7101  require(disputes[disputeId].resolveDisputeFunctionTriggered, \"Dispute resolution has not been attempted yet\") */\n      tag_149\n      jumpi\n      mload(0x40)\n      0x08c379a000000000000000000000000000000000000000000000000000000000\n      dup2\n      mstore\n      0x04\n      add\n      tag_150\n      swap1\n      tag_151\n      jump\t// in\n    tag_150:\n      mload(0x40)\n      dup1\n      swap2\n      sub\n      swap1\n      revert\n    tag_149:\n        /* \"contracts/disputeResolution.sol\":7108:7122  uint256 amount */\n      0x00\n        /* \"contracts/disputeResolution.sol\":7125:7137  stakedTokens */\n      0x03\n        /* \"contracts/disputeResolution.sol\":7125:7148  stakedTokens[disputeId] */\n      0x00\n        /* \"contracts/disputeResolution.sol\":7138:7147  disputeId */\n      dup4\n        /* \"contracts/disputeResolution.sol\":7125:7148  stakedTokens[disputeId] */\n      dup2\n      mstore\n      0x20\n      add\n      swap1\n      dup2\n      mstore\n      0x20\n      add\n      0x00\n      keccak256\n        /* \"contracts/disputeResolution.sol\":7125:7160  stakedTokens[disputeId][msg.sender] */\n      0x00\n        /* \"contracts/disputeResolution.sol\":7149:7159  msg.sender */\n      caller\n        /* \"contracts/disputeResolution.sol\":7125:7160  stakedTokens[disputeId][msg.sender] */\n      0xffffffffffffffffffffffffffffffffffffffff\n      and\n      0xffffffffffffffffffffffffffffffffffffffff\n      and\n      dup2\n      mstore\n      0x20\n      add\n      swap1\n      dup2\n      mstore\n      0x20\n      add\n      0x00\n      keccak256\n      sload\n        /* \"contracts/disputeResolution.sol\":7108:7160  uint256 amount = stakedTokens[disputeId][msg.sender] */\n      swap1\n      pop\n        /* \"contracts/disputeResolution.sol\":7183:7184  0 */\n      0x00\n        /* \"contracts/disputeResolution.sol\":7174:7180  amount */\n      dup2\n        /* \"contracts/disputeResolution.sol\":7174:7184  amount > 0 */\n      gt\n        /* \"contracts/disputeResolution.sol\":7166:7207  require(amount > 0, \"No tokens to claim\") */\n      tag_152\n      jumpi\n      mload(0x40)\n      0x08c379a000000000000000000000000000000000000000000000000000000000\n      dup2\n      mstore\n      0x04\n      add\n      tag_153\n      swap1\n      tag_154\n      jump\t// in\n    tag_153:\n      mload(0x40)\n      dup1\n      swap2\n      sub\n      swap1\n      revert\n    tag_152:\n        /* \"contracts/disputeResolution.sol\":7214:7232  uint256 totalVotes */\n      0x00\n        /* \"contracts/disputeResolution.sol\":7268:7276  disputes */\n      0x02\n        /* \"contracts/disputeResolution.sol\":7268:7287  disputes[disputeId] */\n      0x00\n        /* \"contracts/disputeResolution.sol\":7277:7286  disputeId */\n      dup5\n        /* \"contracts/disputeResolution.sol\":7268:7287  disputes[disputeId] */\n      dup2\n      mstore\n      0x20\n      add\n      swap1\n      dup2\n      mstore\n      0x20\n      add\n      0x00\n      keccak256\n        /* \"contracts/disputeResolution.sol\":7268:7299  disputes[disputeId].sellerVotes */\n      0x06\n      add\n      sload\n        /* \"contracts/disputeResolution.sol\":7235:7243  disputes */\n      0x02\n        /* \"contracts/disputeResolution.sol\":7235:7254  disputes[disputeId] */\n      0x00\n        /* \"contracts/disputeResolution.sol\":7244:7253  disputeId */\n      dup6\n        /* \"contracts/disputeResolution.sol\":7235:7254  disputes[disputeId] */\n      dup2\n      mstore\n      0x20\n      add\n      swap1\n      dup2\n      mstore\n      0x20\n      add\n      0x00\n      keccak256\n        /* \"contracts/disputeResolution.sol\":7235:7265  disputes[disputeId].buyerVotes */\n      0x05\n      add\n      sload\n        /* \"contracts/disputeResolution.sol\":7235:7299  disputes[disputeId].buyerVotes + disputes[disputeId].sellerVotes */\n      tag_155\n      swap2\n      swap1\n      tag_131\n      jump\t// in\n    tag_155:\n        /* \"contracts/disputeResolution.sol\":7214:7299  uint256 totalVotes = disputes[disputeId].buyerVotes + disputes[disputeId].sellerVotes */\n      swap1\n      pop\n        /* \"contracts/disputeResolution.sol\":7305:7331  bool buyerReachedThreshold */\n      0x00\n        /* \"contracts/disputeResolution.sol\":7387:7403  winningThreshold */\n      sload(0x08)\n        /* \"contracts/disputeResolution.sol\":7374:7384  totalVotes */\n      dup3\n        /* \"contracts/disputeResolution.sol\":7374:7403  totalVotes * winningThreshold */\n      tag_156\n      swap2\n      swap1\n      tag_157\n      jump\t// in\n    tag_156:\n        /* \"contracts/disputeResolution.sol\":7367:7370  100 */\n      0x64\n        /* \"contracts/disputeResolution.sol\":7334:7342  disputes */\n      0x02\n        /* \"contracts/disputeResolution.sol\":7334:7353  disputes[disputeId] */\n      0x00\n        /* \"contracts/disputeResolution.sol\":7343:7352  disputeId */\n      dup8\n        /* \"contracts/disputeResolution.sol\":7334:7353  disputes[disputeId] */\n      dup2\n      mstore\n      0x20\n      add\n      swap1\n      dup2\n      mstore\n      0x20\n      add\n      0x00\n      keccak256\n        /* \"contracts/disputeResolution.sol\":7334:7364  disputes[disputeId].buyerVotes */\n      0x05\n      add\n      sload\n        /* \"contracts/disputeResolution.sol\":7334:7370  disputes[disputeId].buyerVotes * 100 */\n      tag_158\n      swap2\n      swap1\n      tag_157\n      jump\t// in\n    tag_158:\n        /* \"contracts/disputeResolution.sol\":7334:7403  disputes[disputeId].buyerVotes * 100 >= totalVotes * winningThreshold */\n      lt\n      iszero\n        /* \"contracts/disputeResolution.sol\":7305:7403  bool buyerReachedThreshold = disputes[disputeId].buyerVotes * 100 >= totalVotes * winningThreshold */\n      swap1\n      pop\n        /* \"contracts/disputeResolution.sol\":7409:7436  bool sellerReachedThreshold */\n      0x00\n        /* \"contracts/disputeResolution.sol\":7493:7509  winningThreshold */\n      sload(0x08)\n        /* \"contracts/disputeResolution.sol\":7480:7490  totalVotes */\n      dup4\n        /* \"contracts/disputeResolution.sol\":7480:7509  totalVotes * winningThreshold */\n      tag_159\n      swap2\n      swap1\n      tag_157\n      jump\t// in\n    tag_159:\n        /* \"contracts/disputeResolution.sol\":7473:7476  100 */\n      0x64\n        /* \"contracts/disputeResolution.sol\":7439:7447  disputes */\n      0x02\n        /* \"contracts/disputeResolution.sol\":7439:7458  disputes[disputeId] */\n      0x00\n        /* \"contracts/disputeResolution.sol\":7448:7457  disputeId */\n      dup9\n        /* \"contracts/disputeResolution.sol\":7439:7458  disputes[disputeId] */\n      dup2\n      mstore\n      0x20\n      add\n      swap1\n      dup2\n      mstore\n      0x20\n      add\n      0x00\n      keccak256\n        /* \"contracts/disputeResolution.sol\":7439:7470  disputes[disputeId].sellerVotes */\n      0x06\n      add\n      sload\n        /* \"contracts/disputeResolution.sol\":7439:7476  disputes[disputeId].sellerVotes * 100 */\n      tag_160\n      swap2\n      swap1\n      tag_157\n      jump\t// in\n    tag_160:\n        /* \"contracts/disputeResolution.sol\":7439:7509  disputes[disputeId].sellerVotes * 100 >= totalVotes * winningThreshold */\n      lt\n      iszero\n        /* \"contracts/disputeResolution.sol\":7409:7509  bool sellerReachedThreshold = disputes[disputeId].sellerVotes * 100 >= totalVotes * winningThreshold */\n      swap1\n      pop\n        /* \"contracts/disputeResolution.sol\":7516:7533  bool thresholdMet */\n      0x00\n        /* \"contracts/disputeResolution.sol\":7536:7557  buyerReachedThreshold */\n      dup3\n        /* \"contracts/disputeResolution.sol\":7536:7583  buyerReachedThreshold || sellerReachedThreshold */\n      dup1\n      tag_161\n      jumpi\n      pop\n        /* \"contracts/disputeResolution.sol\":7561:7583  sellerReachedThreshold */\n      dup2\n        /* \"contracts/disputeResolution.sol\":7536:7583  buyerReachedThreshold || sellerReachedThreshold */\n    tag_161:\n        /* \"contracts/disputeResolution.sol\":7516:7583  bool thresholdMet = buyerReachedThreshold || sellerReachedThreshold */\n      swap1\n      pop\n        /* \"contracts/disputeResolution.sol\":7594:7606  thresholdMet */\n      dup1\n        /* \"contracts/disputeResolution.sol\":7590:8404  if (thresholdMet) {... */\n      iszero\n      tag_162\n      jumpi\n        /* \"contracts/disputeResolution.sol\":7618:7641  bool voterVotedForBuyer */\n      0x00\n        /* \"contracts/disputeResolution.sol\":7687:7688  0 */\n      dup1\n        /* \"contracts/disputeResolution.sol\":7644:7661  buyerStakedTokens */\n      0x04\n        /* \"contracts/disputeResolution.sol\":7644:7672  buyerStakedTokens[disputeId] */\n      0x00\n        /* \"contracts/disputeResolution.sol\":7662:7671  disputeId */\n      dup10\n        /* \"contracts/disputeResolution.sol\":7644:7672  buyerStakedTokens[disputeId] */\n      dup2\n      mstore\n      0x20\n      add\n      swap1\n      dup2\n      mstore\n      0x20\n      add\n      0x00\n      keccak256\n        /* \"contracts/disputeResolution.sol\":7644:7684  buyerStakedTokens[disputeId][msg.sender] */\n      0x00\n        /* \"contracts/disputeResolution.sol\":7673:7683  msg.sender */\n      caller\n        /* \"contracts/disputeResolution.sol\":7644:7684  buyerStakedTokens[disputeId][msg.sender] */\n      0xffffffffffffffffffffffffffffffffffffffff\n      and\n      0xffffffffffffffffffffffffffffffffffffffff\n      and\n      dup2\n      mstore\n      0x20\n      add\n      swap1\n      dup2\n      mstore\n      0x20\n      add\n      0x00\n      keccak256\n      sload\n        /* \"contracts/disputeResolution.sol\":7644:7688  buyerStakedTokens[disputeId][msg.sender] > 0 */\n      gt\n        /* \"contracts/disputeResolution.sol\":7618:7688  bool voterVotedForBuyer = buyerStakedTokens[disputeId][msg.sender] > 0 */\n      swap1\n      pop\n        /* \"contracts/disputeResolution.sol\":7698:7722  bool voterVotedForWinner */\n      0x00\n        /* \"contracts/disputeResolution.sol\":7726:7747  buyerReachedThreshold */\n      dup5\n        /* \"contracts/disputeResolution.sol\":7726:7769  buyerReachedThreshold && voterVotedForBuyer */\n      dup1\n      iszero\n      tag_163\n      jumpi\n      pop\n        /* \"contracts/disputeResolution.sol\":7751:7769  voterVotedForBuyer */\n      dup2\n        /* \"contracts/disputeResolution.sol\":7726:7769  buyerReachedThreshold && voterVotedForBuyer */\n    tag_163:\n        /* \"contracts/disputeResolution.sol\":7725:7821  (buyerReachedThreshold && voterVotedForBuyer) || (sellerReachedThreshold && !voterVotedForBuyer) */\n      dup1\n      tag_164\n      jumpi\n      pop\n        /* \"contracts/disputeResolution.sol\":7775:7797  sellerReachedThreshold */\n      dup4\n        /* \"contracts/disputeResolution.sol\":7775:7820  sellerReachedThreshold && !voterVotedForBuyer */\n      dup1\n      iszero\n      tag_165\n      jumpi\n      pop\n        /* \"contracts/disputeResolution.sol\":7802:7820  voterVotedForBuyer */\n      dup2\n        /* \"contracts/disputeResolution.sol\":7801:7820  !voterVotedForBuyer */\n      iszero\n        /* \"contracts/disputeResolution.sol\":7775:7820  sellerReachedThreshold && !voterVotedForBuyer */\n    tag_165:\n        /* \"contracts/disputeResolution.sol\":7725:7821  (buyerReachedThreshold && voterVotedForBuyer) || (sellerReachedThreshold && !voterVotedForBuyer) */\n    tag_164:\n        /* \"contracts/disputeResolution.sol\":7698:7821  bool voterVotedForWinner = (buyerReachedThreshold && voterVotedForBuyer) || (sellerReachedThreshold && !voterVotedForBuyer) */\n      swap1\n      pop\n        /* \"contracts/disputeResolution.sol\":7832:7857  uint256 totalWinnerStakes */\n      0x00\n        /* \"contracts/disputeResolution.sol\":7860:7881  buyerReachedThreshold */\n      dup6\n        /* \"contracts/disputeResolution.sol\":7860:7948  buyerReachedThreshold ? disputes[disputeId].buyerVotes : disputes[disputeId].sellerVotes */\n      tag_166\n      jumpi\n        /* \"contracts/disputeResolution.sol\":7917:7925  disputes */\n      0x02\n        /* \"contracts/disputeResolution.sol\":7917:7936  disputes[disputeId] */\n      0x00\n        /* \"contracts/disputeResolution.sol\":7926:7935  disputeId */\n      dup11\n        /* \"contracts/disputeResolution.sol\":7917:7936  disputes[disputeId] */\n      dup2\n      mstore\n      0x20\n      add\n      swap1\n      dup2\n      mstore\n      0x20\n      add\n      0x00\n      keccak256\n        /* \"contracts/disputeResolution.sol\":7917:7948  disputes[disputeId].sellerVotes */\n      0x06\n      add\n      sload\n        /* \"contracts/disputeResolution.sol\":7860:7948  buyerReachedThreshold ? disputes[disputeId].buyerVotes : disputes[disputeId].sellerVotes */\n      jump(tag_167)\n    tag_166:\n        /* \"contracts/disputeResolution.sol\":7884:7892  disputes */\n      0x02\n        /* \"contracts/disputeResolution.sol\":7884:7903  disputes[disputeId] */\n      0x00\n        /* \"contracts/disputeResolution.sol\":7893:7902  disputeId */\n      dup11\n        /* \"contracts/disputeResolution.sol\":7884:7903  disputes[disputeId] */\n      dup2\n      mstore\n      0x20\n      add\n      swap1\n      dup2\n      mstore\n      0x20\n      add\n      0x00\n      keccak256\n        /* \"contracts/disputeResolution.sol\":7884:7914  disputes[disputeId].buyerVotes */\n      0x05\n      add\n      sload\n        /* \"contracts/disputeResolution.sol\":7860:7948  buyerReachedThreshold ? disputes[disputeId].buyerVotes : disputes[disputeId].sellerVotes */\n    tag_167:\n        /* \"contracts/disputeResolution.sol\":7832:7948  uint256 totalWinnerStakes = buyerReachedThreshold ? disputes[disputeId].buyerVotes : disputes[disputeId].sellerVotes */\n      swap1\n      pop\n        /* \"contracts/disputeResolution.sol\":7958:7982  uint256 totalLoserStakes */\n      0x00\n        /* \"contracts/disputeResolution.sol\":7985:8007  sellerReachedThreshold */\n      dup6\n        /* \"contracts/disputeResolution.sol\":7985:8074  sellerReachedThreshold ? disputes[disputeId].buyerVotes : disputes[disputeId].sellerVotes */\n      tag_168\n      jumpi\n        /* \"contracts/disputeResolution.sol\":8043:8051  disputes */\n      0x02\n        /* \"contracts/disputeResolution.sol\":8043:8062  disputes[disputeId] */\n      0x00\n        /* \"contracts/disputeResolution.sol\":8052:8061  disputeId */\n      dup12\n        /* \"contracts/disputeResolution.sol\":8043:8062  disputes[disputeId] */\n      dup2\n      mstore\n      0x20\n      add\n      swap1\n      dup2\n      mstore\n      0x20\n      add\n      0x00\n      keccak256\n        /* \"contracts/disputeResolution.sol\":8043:8074  disputes[disputeId].sellerVotes */\n      0x06\n      add\n      sload\n        /* \"contracts/disputeResolution.sol\":7985:8074  sellerReachedThreshold ? disputes[disputeId].buyerVotes : disputes[disputeId].sellerVotes */\n      jump(tag_169)\n    tag_168:\n        /* \"contracts/disputeResolution.sol\":8010:8018  disputes */\n      0x02\n        /* \"contracts/disputeResolution.sol\":8010:8029  disputes[disputeId] */\n      0x00\n        /* \"contracts/disputeResolution.sol\":8019:8028  disputeId */\n      dup12\n        /* \"contracts/disputeResolution.sol\":8010:8029  disputes[disputeId] */\n      dup2\n      mstore\n      0x20\n      add\n      swap1\n      dup2\n      mstore\n      0x20\n      add\n      0x00\n      keccak256\n        /* \"contracts/disputeResolution.sol\":8010:8040  disputes[disputeId].buyerVotes */\n      0x05\n      add\n      sload\n        /* \"contracts/disputeResolution.sol\":7985:8074  sellerReachedThreshold ? disputes[disputeId].buyerVotes : disputes[disputeId].sellerVotes */\n    tag_169:\n        /* \"contracts/disputeResolution.sol\":7958:8074  uint256 totalLoserStakes = sellerReachedThreshold ? disputes[disputeId].buyerVotes : disputes[disputeId].sellerVotes */\n      swap1\n      pop\n        /* \"contracts/disputeResolution.sol\":8089:8108  voterVotedForWinner */\n      dup3\n        /* \"contracts/disputeResolution.sol\":8085:8398  if (voterVotedForWinner) {... */\n      iszero\n      tag_170\n      jumpi\n        /* \"contracts/disputeResolution.sol\":8124:8158  uint256 loserTokensToBeDistributed */\n      0x00\n        /* \"contracts/disputeResolution.sol\":8187:8190  100 */\n      0x64\n        /* \"contracts/disputeResolution.sol\":8181:8183  10 */\n      0x0a\n        /* \"contracts/disputeResolution.sol\":8162:8178  totalLoserStakes */\n      dup4\n        /* \"contracts/disputeResolution.sol\":8162:8183  totalLoserStakes * 10 */\n      tag_171\n      swap2\n      swap1\n      tag_157\n      jump\t// in\n    tag_171:\n        /* \"contracts/disputeResolution.sol\":8161:8190  (totalLoserStakes * 10) / 100 */\n      tag_172\n      swap2\n      swap1\n      tag_173\n      jump\t// in\n    tag_172:\n        /* \"contracts/disputeResolution.sol\":8124:8190  uint256 loserTokensToBeDistributed = (totalLoserStakes * 10) / 100 */\n      swap1\n      pop\n        /* \"contracts/disputeResolution.sol\":8204:8228  uint256 additionalTokens */\n      0x00\n        /* \"contracts/disputeResolution.sol\":8271:8288  totalWinnerStakes */\n      dup4\n        /* \"contracts/disputeResolution.sol\":8241:8267  loserTokensToBeDistributed */\n      dup3\n        /* \"contracts/disputeResolution.sol\":8232:8238  amount */\n      dup13\n        /* \"contracts/disputeResolution.sol\":8232:8267  amount * loserTokensToBeDistributed */\n      tag_174\n      swap2\n      swap1\n      tag_157\n      jump\t// in\n    tag_174:\n        /* \"contracts/disputeResolution.sol\":8231:8288  (amount * loserTokensToBeDistributed) / totalWinnerStakes */\n      tag_175\n      swap2\n      swap1\n      tag_173\n      jump\t// in\n    tag_175:\n        /* \"contracts/disputeResolution.sol\":8204:8288  uint256 additionalTokens = (amount * loserTokensToBeDistributed) / totalWinnerStakes */\n      swap1\n      pop\n        /* \"contracts/disputeResolution.sol\":8312:8328  additionalTokens */\n      dup1\n        /* \"contracts/disputeResolution.sol\":8302:8328  amount += additionalTokens */\n      dup12\n      tag_176\n      swap2\n      swap1\n      tag_131\n      jump\t// in\n    tag_176:\n      swap11\n      pop\n        /* \"contracts/disputeResolution.sol\":8110:8339  {... */\n      pop\n      pop\n        /* \"contracts/disputeResolution.sol\":8085:8398  if (voterVotedForWinner) {... */\n      jump(tag_177)\n    tag_170:\n        /* \"contracts/disputeResolution.sol\":8384:8387  100 */\n      0x64\n        /* \"contracts/disputeResolution.sol\":8378:8380  90 */\n      0x5a\n        /* \"contracts/disputeResolution.sol\":8369:8375  amount */\n      dup11\n        /* \"contracts/disputeResolution.sol\":8369:8380  amount * 90 */\n      tag_178\n      swap2\n      swap1\n      tag_157\n      jump\t// in\n    tag_178:\n        /* \"contracts/disputeResolution.sol\":8368:8387  (amount * 90) / 100 */\n      tag_179\n      swap2\n      swap1\n      tag_173\n      jump\t// in\n    tag_179:\n        /* \"contracts/disputeResolution.sol\":8359:8387  amount = (amount * 90) / 100 */\n      swap9\n      pop\n        /* \"contracts/disputeResolution.sol\":8085:8398  if (voterVotedForWinner) {... */\n    tag_177:\n        /* \"contracts/disputeResolution.sol\":7608:8404  {... */\n      pop\n      pop\n      pop\n      pop\n        /* \"contracts/disputeResolution.sol\":7590:8404  if (thresholdMet) {... */\n    tag_162:\n        /* \"contracts/disputeResolution.sol\":8448:8449  0 */\n      0x00\n        /* \"contracts/disputeResolution.sol\":8410:8422  stakedTokens */\n      0x03\n        /* \"contracts/disputeResolution.sol\":8410:8433  stakedTokens[disputeId] */\n      0x00\n        /* \"contracts/disputeResolution.sol\":8423:8432  disputeId */\n      dup9\n        /* \"contracts/disputeResolution.sol\":8410:8433  stakedTokens[disputeId] */\n      dup2\n      mstore\n      0x20\n      add\n      swap1\n      dup2\n      mstore\n      0x20\n      add\n      0x00\n      keccak256\n        /* \"contracts/disputeResolution.sol\":8410:8445  stakedTokens[disputeId][msg.sender] */\n      0x00\n        /* \"contracts/disputeResolution.sol\":8434:8444  msg.sender */\n      caller\n        /* \"contracts/disputeResolution.sol\":8410:8445  stakedTokens[disputeId][msg.sender] */\n      0xffffffffffffffffffffffffffffffffffffffff\n      and\n      0xffffffffffffffffffffffffffffffffffffffff\n      and\n      dup2\n      mstore\n      0x20\n      add\n      swap1\n      dup2\n      mstore\n      0x20\n      add\n      0x00\n      keccak256\n        /* \"contracts/disputeResolution.sol\":8410:8449  stakedTokens[disputeId][msg.sender] = 0 */\n      dup2\n      swap1\n      sstore\n      pop\n        /* \"contracts/disputeResolution.sol\":8455:8473  finjaTokenInstance */\n      immutable(\"0x53c7d35966a5a2c857f5b9d0889d9b28894dfc4ea0e7f834f61b293cc983dec7\")\n        /* \"contracts/disputeResolution.sol\":8455:8482  finjaTokenInstance.transfer */\n      0xffffffffffffffffffffffffffffffffffffffff\n      and\n      0xa9059cbb\n        /* \"contracts/disputeResolution.sol\":8483:8493  msg.sender */\n      caller\n        /* \"contracts/disputeResolution.sol\":8495:8501  amount */\n      dup8\n        /* \"contracts/disputeResolution.sol\":8455:8502  finjaTokenInstance.transfer(msg.sender, amount) */\n      mload(0x40)\n      dup4\n      0xffffffff\n      and\n      0xe0\n      shl\n      dup2\n      mstore\n      0x04\n      add\n      tag_180\n      swap3\n      swap2\n      swap1\n      tag_181\n      jump\t// in\n    tag_180:\n      0x20\n      mload(0x40)\n      dup1\n      dup4\n      sub\n      dup2\n      0x00\n      dup8\n      gas\n      call\n      iszero\n      dup1\n      iszero\n      tag_183\n      jumpi\n      returndatasize\n      0x00\n      dup1\n      returndatacopy\n      revert(0x00, returndatasize)\n    tag_183:\n      pop\n      pop\n      pop\n      pop\n      mload(0x40)\n      returndatasize\n      not(0x1f)\n      0x1f\n      dup3\n      add\n      and\n      dup3\n      add\n      dup1\n      0x40\n      mstore\n      pop\n      dup2\n      add\n      swap1\n      tag_184\n      swap2\n      swap1\n      tag_185\n      jump\t// in\n    tag_184:\n      pop\n        /* \"contracts/disputeResolution.sol\":6925:8505  {... */\n      pop\n      pop\n      pop\n      pop\n      pop\n        /* \"contracts/disputeResolution.sol\":6878:8505  function claimTokens(uint256 disputeId) public {... */\n      pop\n      jump\t// out\n        /* \"contracts/disputeResolution.sol\":689:732  mapping(uint256 => Dispute) public disputes */\n    tag_61:\n      mstore(0x20, 0x02)\n      dup1\n      0x00\n      mstore\n      keccak256(0x00, 0x40)\n      0x00\n      swap2\n      pop\n      swap1\n      pop\n      dup1\n      0x00\n      add\n      0x00\n      swap1\n      sload\n      swap1\n      0x0100\n      exp\n      swap1\n      div\n      0xffffffffffffffffffffffffffffffffffffffff\n      and\n      swap1\n      dup1\n      0x01\n      add\n      0x00\n      swap1\n      sload\n      swap1\n      0x0100\n      exp\n      swap1\n      div\n      0xffffffffffffffffffffffffffffffffffffffff\n      and\n      swap1\n      dup1\n      0x02\n      add\n      sload\n      swap1\n      dup1\n      0x03\n      add\n      sload\n      swap1\n      dup1\n      0x04\n      add\n      sload\n      swap1\n      dup1\n      0x05\n      add\n      sload\n      swap1\n      dup1\n      0x06\n      add\n      sload\n      swap1\n      dup1\n      0x07\n      add\n      sload\n      swap1\n      dup1\n      0x08\n      add\n      0x00\n      swap1\n      sload\n      swap1\n      0x0100\n      exp\n      swap1\n      div\n      0xff\n      and\n      swap1\n      dup1\n      0x08\n      add\n      0x01\n      swap1\n      sload\n      swap1\n      0x0100\n      exp\n      swap1\n      div\n      0xff\n      and\n      swap1\n      dup1\n      0x08\n      add\n      0x02\n      swap1\n      sload\n      swap1\n      0x0100\n      exp\n      swap1\n      div\n      0xff\n      and\n      swap1\n      pop\n      dup12\n      jump\t// out\n        /* \"contracts/disputeResolution.sol\":738:805  mapping(uint256 => mapping(address => uint256)) public stakedTokens */\n    tag_67:\n      mstore(0x20, 0x03)\n      dup2\n      0x00\n      mstore\n      mstore(0x20, keccak256(0x00, 0x40))\n      dup1\n      0x00\n      mstore\n      keccak256(0x00, 0x40)\n      0x00\n      swap2\n      pop\n      swap2\n      pop\n      pop\n      sload\n      dup2\n      jump\t// out\n        /* \"contracts/disputeResolution.sol\":968:1027  mapping(uint256 => uint256) public latestDisputeForProposal */\n    tag_71:\n      mstore(0x20, 0x06)\n      dup1\n      0x00\n      mstore\n      keccak256(0x00, 0x40)\n      0x00\n      swap2\n      pop\n      swap1\n      pop\n      sload\n      dup2\n      jump\t// out\n        /* \"@openzeppelin/contracts/access/Ownable.sol\":1831:1932  function renounceOwnership() public virtual onlyOwner {... */\n    tag_74:\n        /* \"@openzeppelin/contracts/access/Ownable.sol\":1094:1107  _checkOwner() */\n      tag_187\n        /* \"@openzeppelin/contracts/access/Ownable.sol\":1094:1105  _checkOwner */\n      tag_143\n        /* \"@openzeppelin/contracts/access/Ownable.sol\":1094:1107  _checkOwner() */\n      jump\t// in\n    tag_187:\n        /* \"@openzeppelin/contracts/access/Ownable.sol\":1895:1925  _transferOwnership(address(0)) */\n      tag_189\n        /* \"@openzeppelin/contracts/access/Ownable.sol\":1922:1923  0 */\n      0x00\n        /* \"@openzeppelin/contracts/access/Ownable.sol\":1895:1913  _transferOwnership */\n      tag_190\n        /* \"@openzeppelin/contracts/access/Ownable.sol\":1895:1925  _transferOwnership(address(0)) */\n      jump\t// in\n    tag_189:\n        /* \"@openzeppelin/contracts/access/Ownable.sol\":1831:1932  function renounceOwnership() public virtual onlyOwner {... */\n      jump\t// out\n        /* \"contracts/disputeResolution.sol\":811:883  mapping(uint256 => mapping(address => uint256)) public buyerStakedTokens */\n    tag_77:\n      mstore(0x20, 0x04)\n      dup2\n      0x00\n      mstore\n      mstore(0x20, keccak256(0x00, 0x40))\n      dup1\n      0x00\n      mstore\n      keccak256(0x00, 0x40)\n      0x00\n      swap2\n      pop\n      swap2\n      pop\n      pop\n      sload\n      dup2\n      jump\t// out\n        /* \"contracts/disputeResolution.sol\":6356:6671  function getStakedTokens(uint256 disputeId, address voter) public view returns (uint256 buyerTokens, uint256 sellerTokens) {... */\n    tag_81:\n        /* \"contracts/disputeResolution.sol\":6436:6455  uint256 buyerTokens */\n      0x00\n        /* \"contracts/disputeResolution.sol\":6457:6477  uint256 sellerTokens */\n      dup1\n        /* \"contracts/disputeResolution.sol\":6509:6521  disputeCount */\n      sload(0x09)\n        /* \"contracts/disputeResolution.sol\":6497:6506  disputeId */\n      dup5\n        /* \"contracts/disputeResolution.sol\":6497:6521  disputeId < disputeCount */\n      lt\n        /* \"contracts/disputeResolution.sol\":6489:6544  require(disputeId < disputeCount, \"Invalid dispute ID\") */\n      tag_192\n      jumpi\n      mload(0x40)\n      0x08c379a000000000000000000000000000000000000000000000000000000000\n      dup2\n      mstore\n      0x04\n      add\n      tag_193\n      swap1\n      tag_148\n      jump\t// in\n    tag_193:\n      mload(0x40)\n      dup1\n      swap2\n      sub\n      swap1\n      revert\n    tag_192:\n        /* \"contracts/disputeResolution.sol\":6568:6585  buyerStakedTokens */\n      0x04\n        /* \"contracts/disputeResolution.sol\":6568:6596  buyerStakedTokens[disputeId] */\n      0x00\n        /* \"contracts/disputeResolution.sol\":6586:6595  disputeId */\n      dup6\n        /* \"contracts/disputeResolution.sol\":6568:6596  buyerStakedTokens[disputeId] */\n      dup2\n      mstore\n      0x20\n      add\n      swap1\n      dup2\n      mstore\n      0x20\n      add\n      0x00\n      keccak256\n        /* \"contracts/disputeResolution.sol\":6568:6603  buyerStakedTokens[disputeId][voter] */\n      0x00\n        /* \"contracts/disputeResolution.sol\":6597:6602  voter */\n      dup5\n        /* \"contracts/disputeResolution.sol\":6568:6603  buyerStakedTokens[disputeId][voter] */\n      0xffffffffffffffffffffffffffffffffffffffff\n      and\n      0xffffffffffffffffffffffffffffffffffffffff\n      and\n      dup2\n      mstore\n      0x20\n      add\n      swap1\n      dup2\n      mstore\n      0x20\n      add\n      0x00\n      keccak256\n      sload\n        /* \"contracts/disputeResolution.sol\":6554:6603  buyerTokens = buyerStakedTokens[disputeId][voter] */\n      swap2\n      pop\n        /* \"contracts/disputeResolution.sol\":6628:6646  sellerStakedTokens */\n      0x05\n        /* \"contracts/disputeResolution.sol\":6628:6657  sellerStakedTokens[disputeId] */\n      0x00\n        /* \"contracts/disputeResolution.sol\":6647:6656  disputeId */\n      dup6\n        /* \"contracts/disputeResolution.sol\":6628:6657  sellerStakedTokens[disputeId] */\n      dup2\n      mstore\n      0x20\n      add\n      swap1\n      dup2\n      mstore\n      0x20\n      add\n      0x00\n      keccak256\n        /* \"contracts/disputeResolution.sol\":6628:6664  sellerStakedTokens[disputeId][voter] */\n      0x00\n        /* \"contracts/disputeResolution.sol\":6658:6663  voter */\n      dup5\n        /* \"contracts/disputeResolution.sol\":6628:6664  sellerStakedTokens[disputeId][voter] */\n      0xffffffffffffffffffffffffffffffffffffffff\n      and\n      0xffffffffffffffffffffffffffffffffffffffff\n      and\n      dup2\n      mstore\n      0x20\n      add\n      swap1\n      dup2\n      mstore\n      0x20\n      add\n      0x00\n      keccak256\n      sload\n        /* \"contracts/disputeResolution.sol\":6613:6664  sellerTokens = sellerStakedTokens[disputeId][voter] */\n      swap1\n      pop\n        /* \"contracts/disputeResolution.sol\":6356:6671  function getStakedTokens(uint256 disputeId, address voter) public view returns (uint256 buyerTokens, uint256 sellerTokens) {... */\n      swap3\n      pop\n      swap3\n      swap1\n      pop\n      jump\t// out\n        /* \"@openzeppelin/contracts/access/Ownable.sol\":1201:1286  function owner() public view virtual returns (address) {... */\n    tag_85:\n        /* \"@openzeppelin/contracts/access/Ownable.sol\":1247:1254  address */\n      0x00\n        /* \"@openzeppelin/contracts/access/Ownable.sol\":1273:1279  _owner */\n      dup1\n      0x00\n      swap1\n      sload\n      swap1\n      0x0100\n      exp\n      swap1\n      div\n      0xffffffffffffffffffffffffffffffffffffffff\n      and\n        /* \"@openzeppelin/contracts/access/Ownable.sol\":1266:1279  return _owner */\n      swap1\n      pop\n        /* \"@openzeppelin/contracts/access/Ownable.sol\":1201:1286  function owner() public view virtual returns (address) {... */\n      swap1\n      jump\t// out\n        /* \"contracts/disputeResolution.sol\":6677:6872  function setWinningThreshold(uint256 newThreshold) public onlyOwner {... */\n    tag_90:\n        /* \"@openzeppelin/contracts/access/Ownable.sol\":1094:1107  _checkOwner() */\n      tag_196\n        /* \"@openzeppelin/contracts/access/Ownable.sol\":1094:1105  _checkOwner */\n      tag_143\n        /* \"@openzeppelin/contracts/access/Ownable.sol\":1094:1107  _checkOwner() */\n      jump\t// in\n    tag_196:\n        /* \"contracts/disputeResolution.sol\":6778:6779  0 */\n      0x00\n        /* \"contracts/disputeResolution.sol\":6763:6775  newThreshold */\n      dup2\n        /* \"contracts/disputeResolution.sol\":6763:6779  newThreshold > 0 */\n      gt\n        /* \"contracts/disputeResolution.sol\":6763:6802  newThreshold > 0 && newThreshold <= 100 */\n      dup1\n      iszero\n      tag_198\n      jumpi\n      pop\n        /* \"contracts/disputeResolution.sol\":6799:6802  100 */\n      0x64\n        /* \"contracts/disputeResolution.sol\":6783:6795  newThreshold */\n      dup2\n        /* \"contracts/disputeResolution.sol\":6783:6802  newThreshold <= 100 */\n      gt\n      iszero\n        /* \"contracts/disputeResolution.sol\":6763:6802  newThreshold > 0 && newThreshold <= 100 */\n    tag_198:\n        /* \"contracts/disputeResolution.sol\":6755:6824  require(newThreshold > 0 && newThreshold <= 100, \"Invalid threshold\") */\n      tag_199\n      jumpi\n      mload(0x40)\n      0x08c379a000000000000000000000000000000000000000000000000000000000\n      dup2\n      mstore\n      0x04\n      add\n      tag_200\n      swap1\n      tag_201\n      jump\t// in\n    tag_200:\n      mload(0x40)\n      dup1\n      swap2\n      sub\n      swap1\n      revert\n    tag_199:\n        /* \"contracts/disputeResolution.sol\":6853:6865  newThreshold */\n      dup1\n        /* \"contracts/disputeResolution.sol\":6834:6850  winningThreshold */\n      0x08\n        /* \"contracts/disputeResolution.sol\":6834:6865  winningThreshold = newThreshold */\n      dup2\n      swap1\n      sstore\n      pop\n        /* \"contracts/disputeResolution.sol\":6677:6872  function setWinningThreshold(uint256 newThreshold) public onlyOwner {... */\n      pop\n      jump\t// out\n        /* \"contracts/disputeResolution.sol\":1138:1165  uint256 public disputeCount */\n    tag_92:\n      sload(0x09)\n      dup2\n      jump\t// out\n        /* \"contracts/disputeResolution.sol\":4661:6348  function resolveDispute(uint256 disputeId) public {... */\n    tag_96:\n        /* \"contracts/disputeResolution.sol\":4726:4734  disputes */\n      0x02\n        /* \"contracts/disputeResolution.sol\":4726:4745  disputes[disputeId] */\n      0x00\n        /* \"contracts/disputeResolution.sol\":4735:4744  disputeId */\n      dup3\n        /* \"contracts/disputeResolution.sol\":4726:4745  disputes[disputeId] */\n      dup2\n      mstore\n      0x20\n      add\n      swap1\n      dup2\n      mstore\n      0x20\n      add\n      0x00\n      keccak256\n        /* \"contracts/disputeResolution.sol\":4726:4754  disputes[disputeId].resolved */\n      0x08\n      add\n      0x01\n      swap1\n      sload\n      swap1\n      0x0100\n      exp\n      swap1\n      div\n      0xff\n      and\n        /* \"contracts/disputeResolution.sol\":4725:4754  !disputes[disputeId].resolved */\n      iszero\n        /* \"contracts/disputeResolution.sol\":4717:4792  require(!disputes[disputeId].resolved, \"Dispute has already been resolved\") */\n      tag_203\n      jumpi\n      mload(0x40)\n      0x08c379a000000000000000000000000000000000000000000000000000000000\n      dup2\n      mstore\n      0x04\n      add\n      tag_204\n      swap1\n      tag_205\n      jump\t// in\n    tag_204:\n      mload(0x40)\n      dup1\n      swap2\n      sub\n      swap1\n      revert\n    tag_203:\n        /* \"contracts/disputeResolution.sol\":4824:4832  disputes */\n      0x02\n        /* \"contracts/disputeResolution.sol\":4824:4843  disputes[disputeId] */\n      0x00\n        /* \"contracts/disputeResolution.sol\":4833:4842  disputeId */\n      dup3\n        /* \"contracts/disputeResolution.sol\":4824:4843  disputes[disputeId] */\n      dup2\n      mstore\n      0x20\n      add\n      swap1\n      dup2\n      mstore\n      0x20\n      add\n      0x00\n      keccak256\n        /* \"contracts/disputeResolution.sol\":4824:4851  disputes[disputeId].endTime */\n      0x07\n      add\n      sload\n        /* \"contracts/disputeResolution.sol\":4806:4821  block.timestamp */\n      timestamp\n        /* \"contracts/disputeResolution.sol\":4806:4851  block.timestamp > disputes[disputeId].endTime */\n      gt\n        /* \"contracts/disputeResolution.sol\":4798:4890  require(block.timestamp > disputes[disputeId].endTime, \"The voting period is not over yet!\") */\n      tag_206\n      jumpi\n      mload(0x40)\n      0x08c379a000000000000000000000000000000000000000000000000000000000\n      dup2\n      mstore\n      0x04\n      add\n      tag_207\n      swap1\n      tag_208\n      jump\t// in\n    tag_207:\n      mload(0x40)\n      dup1\n      swap2\n      sub\n      swap1\n      revert\n    tag_206:\n        /* \"contracts/disputeResolution.sol\":4995:4999  true */\n      0x01\n        /* \"contracts/disputeResolution.sol\":4941:4949  disputes */\n      0x02\n        /* \"contracts/disputeResolution.sol\":4941:4960  disputes[disputeId] */\n      0x00\n        /* \"contracts/disputeResolution.sol\":4950:4959  disputeId */\n      dup4\n        /* \"contracts/disputeResolution.sol\":4941:4960  disputes[disputeId] */\n      dup2\n      mstore\n      0x20\n      add\n      swap1\n      dup2\n      mstore\n      0x20\n      add\n      0x00\n      keccak256\n        /* \"contracts/disputeResolution.sol\":4941:4992  disputes[disputeId].resolveDisputeFunctionTriggered */\n      0x08\n      add\n      0x00\n        /* \"contracts/disputeResolution.sol\":4941:4999  disputes[disputeId].resolveDisputeFunctionTriggered = true */\n      0x0100\n      exp\n      dup2\n      sload\n      dup2\n      0xff\n      mul\n      not\n      and\n      swap1\n      dup4\n      iszero\n      iszero\n      mul\n      or\n      swap1\n      sstore\n      pop\n        /* \"contracts/disputeResolution.sol\":5051:5060  disputeId */\n      dup1\n        /* \"contracts/disputeResolution.sol\":5010:5061  DisputeReresolveDisputeFunctionTriggered(disputeId) */\n      0xe93bcea3fb8025890223c57613673081d7dfd54d4cd3bd40265281b2f0e699fb\n      mload(0x40)\n      mload(0x40)\n      dup1\n      swap2\n      sub\n      swap1\n      log2\n        /* \"contracts/disputeResolution.sol\":5068:5086  uint256 totalVotes */\n      0x00\n        /* \"contracts/disputeResolution.sol\":5122:5130  disputes */\n      0x02\n        /* \"contracts/disputeResolution.sol\":5122:5141  disputes[disputeId] */\n      0x00\n        /* \"contracts/disputeResolution.sol\":5131:5140  disputeId */\n      dup4\n        /* \"contracts/disputeResolution.sol\":5122:5141  disputes[disputeId] */\n      dup2\n      mstore\n      0x20\n      add\n      swap1\n      dup2\n      mstore\n      0x20\n      add\n      0x00\n      keccak256\n        /* \"contracts/disputeResolution.sol\":5122:5153  disputes[disputeId].sellerVotes */\n      0x06\n      add\n      sload\n        /* \"contracts/disputeResolution.sol\":5089:5097  disputes */\n      0x02\n        /* \"contracts/disputeResolution.sol\":5089:5108  disputes[disputeId] */\n      0x00\n        /* \"contracts/disputeResolution.sol\":5098:5107  disputeId */\n      dup5\n        /* \"contracts/disputeResolution.sol\":5089:5108  disputes[disputeId] */\n      dup2\n      mstore\n      0x20\n      add\n      swap1\n      dup2\n      mstore\n      0x20\n      add\n      0x00\n      keccak256\n        /* \"contracts/disputeResolution.sol\":5089:5119  disputes[disputeId].buyerVotes */\n      0x05\n      add\n      sload\n        /* \"contracts/disputeResolution.sol\":5089:5153  disputes[disputeId].buyerVotes + disputes[disputeId].sellerVotes */\n      tag_209\n      swap2\n      swap1\n      tag_131\n      jump\t// in\n    tag_209:\n        /* \"contracts/disputeResolution.sol\":5068:5153  uint256 totalVotes = disputes[disputeId].buyerVotes + disputes[disputeId].sellerVotes */\n      swap1\n      pop\n        /* \"contracts/disputeResolution.sol\":5159:5176  bool thresholdMet */\n      0x00\n        /* \"contracts/disputeResolution.sol\":5259:5260  0 */\n      dup1\n        /* \"contracts/disputeResolution.sol\":5246:5256  totalVotes */\n      dup3\n        /* \"contracts/disputeResolution.sol\":5246:5260  totalVotes > 0 */\n      gt\n        /* \"contracts/disputeResolution.sol\":5246:5426  totalVotes > 0 && ... */\n      dup1\n      iszero\n      tag_210\n      jumpi\n      pop\n        /* \"contracts/disputeResolution.sol\":5327:5343  winningThreshold */\n      sload(0x08)\n        /* \"contracts/disputeResolution.sol\":5314:5324  totalVotes */\n      dup3\n        /* \"contracts/disputeResolution.sol\":5314:5343  totalVotes * winningThreshold */\n      tag_211\n      swap2\n      swap1\n      tag_157\n      jump\t// in\n    tag_211:\n        /* \"contracts/disputeResolution.sol\":5307:5310  100 */\n      0x64\n        /* \"contracts/disputeResolution.sol\":5274:5282  disputes */\n      0x02\n        /* \"contracts/disputeResolution.sol\":5274:5293  disputes[disputeId] */\n      0x00\n        /* \"contracts/disputeResolution.sol\":5283:5292  disputeId */\n      dup7\n        /* \"contracts/disputeResolution.sol\":5274:5293  disputes[disputeId] */\n      dup2\n      mstore\n      0x20\n      add\n      swap1\n      dup2\n      mstore\n      0x20\n      add\n      0x00\n      keccak256\n        /* \"contracts/disputeResolution.sol\":5274:5304  disputes[disputeId].buyerVotes */\n      0x05\n      add\n      sload\n        /* \"contracts/disputeResolution.sol\":5274:5310  disputes[disputeId].buyerVotes * 100 */\n      tag_212\n      swap2\n      swap1\n      tag_157\n      jump\t// in\n    tag_212:\n        /* \"contracts/disputeResolution.sol\":5274:5343  disputes[disputeId].buyerVotes * 100 >= totalVotes * winningThreshold */\n      lt\n      iszero\n        /* \"contracts/disputeResolution.sol\":5274:5425  disputes[disputeId].buyerVotes * 100 >= totalVotes * winningThreshold ||... */\n      dup1\n      tag_213\n      jumpi\n      pop\n        /* \"contracts/disputeResolution.sol\":5409:5425  winningThreshold */\n      sload(0x08)\n        /* \"contracts/disputeResolution.sol\":5396:5406  totalVotes */\n      dup3\n        /* \"contracts/disputeResolution.sol\":5396:5425  totalVotes * winningThreshold */\n      tag_214\n      swap2\n      swap1\n      tag_157\n      jump\t// in\n    tag_214:\n        /* \"contracts/disputeResolution.sol\":5389:5392  100 */\n      0x64\n        /* \"contracts/disputeResolution.sol\":5355:5363  disputes */\n      0x02\n        /* \"contracts/disputeResolution.sol\":5355:5374  disputes[disputeId] */\n      0x00\n        /* \"contracts/disputeResolution.sol\":5364:5373  disputeId */\n      dup7\n        /* \"contracts/disputeResolution.sol\":5355:5374  disputes[disputeId] */\n      dup2\n      mstore\n      0x20\n      add\n      swap1\n      dup2\n      mstore\n      0x20\n      add\n      0x00\n      keccak256\n        /* \"contracts/disputeResolution.sol\":5355:5386  disputes[disputeId].sellerVotes */\n      0x06\n      add\n      sload\n        /* \"contracts/disputeResolution.sol\":5355:5392  disputes[disputeId].sellerVotes * 100 */\n      tag_215\n      swap2\n      swap1\n      tag_157\n      jump\t// in\n    tag_215:\n        /* \"contracts/disputeResolution.sol\":5355:5425  disputes[disputeId].sellerVotes * 100 >= totalVotes * winningThreshold */\n      lt\n      iszero\n        /* \"contracts/disputeResolution.sol\":5274:5425  disputes[disputeId].buyerVotes * 100 >= totalVotes * winningThreshold ||... */\n    tag_213:\n        /* \"contracts/disputeResolution.sol\":5246:5426  totalVotes > 0 && ... */\n    tag_210:\n        /* \"contracts/disputeResolution.sol\":5242:5507  if (totalVotes > 0 && ... */\n      iszero\n      tag_216\n      jumpi\n        /* \"contracts/disputeResolution.sol\":5453:5457  true */\n      0x01\n        /* \"contracts/disputeResolution.sol\":5438:5457  thresholdMet = true */\n      swap1\n      pop\n        /* \"contracts/disputeResolution.sol\":5242:5507  if (totalVotes > 0 && ... */\n      jump(tag_217)\n    tag_216:\n        /* \"contracts/disputeResolution.sol\":5495:5500  false */\n      0x00\n        /* \"contracts/disputeResolution.sol\":5480:5500  thresholdMet = false */\n      swap1\n      pop\n        /* \"contracts/disputeResolution.sol\":5242:5507  if (totalVotes > 0 && ... */\n    tag_217:\n        /* \"contracts/disputeResolution.sol\":5513:5532  bool inFavorOfBuyer */\n      0x00\n        /* \"contracts/disputeResolution.sol\":5542:5554  thresholdMet */\n      dup2\n        /* \"contracts/disputeResolution.sol\":5538:6345  if (thresholdMet) {... */\n      iszero\n      tag_218\n      jumpi\n        /* \"contracts/disputeResolution.sol\":5636:5652  winningThreshold */\n      sload(0x08)\n        /* \"contracts/disputeResolution.sol\":5623:5633  totalVotes */\n      dup4\n        /* \"contracts/disputeResolution.sol\":5623:5652  totalVotes * winningThreshold */\n      tag_219\n      swap2\n      swap1\n      tag_157\n      jump\t// in\n    tag_219:\n        /* \"contracts/disputeResolution.sol\":5616:5619  100 */\n      0x64\n        /* \"contracts/disputeResolution.sol\":5583:5591  disputes */\n      0x02\n        /* \"contracts/disputeResolution.sol\":5583:5602  disputes[disputeId] */\n      0x00\n        /* \"contracts/disputeResolution.sol\":5592:5601  disputeId */\n      dup8\n        /* \"contracts/disputeResolution.sol\":5583:5602  disputes[disputeId] */\n      dup2\n      mstore\n      0x20\n      add\n      swap1\n      dup2\n      mstore\n      0x20\n      add\n      0x00\n      keccak256\n        /* \"contracts/disputeResolution.sol\":5583:5613  disputes[disputeId].buyerVotes */\n      0x05\n      add\n      sload\n        /* \"contracts/disputeResolution.sol\":5583:5619  disputes[disputeId].buyerVotes * 100 */\n      tag_220\n      swap2\n      swap1\n      tag_157\n      jump\t// in\n    tag_220:\n        /* \"contracts/disputeResolution.sol\":5583:5652  disputes[disputeId].buyerVotes * 100 >= totalVotes * winningThreshold */\n      lt\n      iszero\n        /* \"contracts/disputeResolution.sol\":5566:5652  inFavorOfBuyer = disputes[disputeId].buyerVotes * 100 >= totalVotes * winningThreshold */\n      swap1\n      pop\n        /* \"contracts/disputeResolution.sol\":5667:5681  inFavorOfBuyer */\n      dup1\n        /* \"contracts/disputeResolution.sol\":5663:6237  if (inFavorOfBuyer) {... */\n      iszero\n      tag_221\n      jumpi\n        /* \"contracts/disputeResolution.sol\":5731:5735  true */\n      0x01\n        /* \"contracts/disputeResolution.sol\":5697:5705  disputes */\n      0x02\n        /* \"contracts/disputeResolution.sol\":5697:5716  disputes[disputeId] */\n      0x00\n        /* \"contracts/disputeResolution.sol\":5706:5715  disputeId */\n      dup7\n        /* \"contracts/disputeResolution.sol\":5697:5716  disputes[disputeId] */\n      dup2\n      mstore\n      0x20\n      add\n      swap1\n      dup2\n      mstore\n      0x20\n      add\n      0x00\n      keccak256\n        /* \"contracts/disputeResolution.sol\":5697:5728  disputes[disputeId].winnerBuyer */\n      0x08\n      add\n      0x02\n        /* \"contracts/disputeResolution.sol\":5697:5735  disputes[disputeId].winnerBuyer = true */\n      0x0100\n      exp\n      dup2\n      sload\n      dup2\n      0xff\n      mul\n      not\n      and\n      swap1\n      dup4\n      iszero\n      iszero\n      mul\n      or\n      swap1\n      sstore\n      pop\n        /* \"contracts/disputeResolution.sol\":5763:5775  mainContract */\n      0x01\n      0x00\n      swap1\n      sload\n      swap1\n      0x0100\n      exp\n      swap1\n      div\n      0xffffffffffffffffffffffffffffffffffffffff\n      and\n        /* \"contracts/disputeResolution.sol\":5749:5802  IMainContract(mainContract).releaseEscrowAfterDispute */\n      0xffffffffffffffffffffffffffffffffffffffff\n      and\n      0x7a30bde6\n        /* \"contracts/disputeResolution.sol\":5803:5811  disputes */\n      0x02\n        /* \"contracts/disputeResolution.sol\":5803:5822  disputes[disputeId] */\n      0x00\n        /* \"contracts/disputeResolution.sol\":5812:5821  disputeId */\n      dup8\n        /* \"contracts/disputeResolution.sol\":5803:5822  disputes[disputeId] */\n      dup2\n      mstore\n      0x20\n      add\n      swap1\n      dup2\n      mstore\n      0x20\n      add\n      0x00\n      keccak256\n        /* \"contracts/disputeResolution.sol\":5803:5833  disputes[disputeId].proposalID */\n      0x02\n      add\n      sload\n        /* \"contracts/disputeResolution.sol\":5835:5843  disputes */\n      0x02\n        /* \"contracts/disputeResolution.sol\":5835:5854  disputes[disputeId] */\n      0x00\n        /* \"contracts/disputeResolution.sol\":5844:5853  disputeId */\n      dup9\n        /* \"contracts/disputeResolution.sol\":5835:5854  disputes[disputeId] */\n      dup2\n      mstore\n      0x20\n      add\n      swap1\n      dup2\n      mstore\n      0x20\n      add\n      0x00\n      keccak256\n        /* \"contracts/disputeResolution.sol\":5835:5872  disputes[disputeId].buyerRequestIndex */\n      0x03\n      add\n      sload\n        /* \"contracts/disputeResolution.sol\":5882:5890  disputes */\n      0x02\n        /* \"contracts/disputeResolution.sol\":5882:5901  disputes[disputeId] */\n      0x00\n        /* \"contracts/disputeResolution.sol\":5891:5900  disputeId */\n      dup10\n        /* \"contracts/disputeResolution.sol\":5882:5901  disputes[disputeId] */\n      dup2\n      mstore\n      0x20\n      add\n      swap1\n      dup2\n      mstore\n      0x20\n      add\n      0x00\n      keccak256\n        /* \"contracts/disputeResolution.sol\":5882:5907  disputes[disputeId].buyer */\n      0x00\n      add\n      0x00\n      swap1\n      sload\n      swap1\n      0x0100\n      exp\n      swap1\n      div\n      0xffffffffffffffffffffffffffffffffffffffff\n      and\n        /* \"contracts/disputeResolution.sol\":5910:5918  disputes */\n      0x02\n        /* \"contracts/disputeResolution.sol\":5910:5929  disputes[disputeId] */\n      0x00\n        /* \"contracts/disputeResolution.sol\":5919:5928  disputeId */\n      dup11\n        /* \"contracts/disputeResolution.sol\":5910:5929  disputes[disputeId] */\n      dup2\n      mstore\n      0x20\n      add\n      swap1\n      dup2\n      mstore\n      0x20\n      add\n      0x00\n      keccak256\n        /* \"contracts/disputeResolution.sol\":5910:5944  disputes[disputeId].disputedAmount */\n      0x04\n      add\n      sload\n        /* \"contracts/disputeResolution.sol\":5749:5945  IMainContract(mainContract).releaseEscrowAfterDispute(disputes[disputeId].proposalID, disputes[disputeId].buyerRequestIndex, payable(disputes[disputeId].buyer), disputes[disputeId].disputedAmount) */\n      mload(0x40)\n      dup6\n      0xffffffff\n      and\n      0xe0\n      shl\n      dup2\n      mstore\n      0x04\n      add\n      tag_222\n      swap5\n      swap4\n      swap3\n      swap2\n      swap1\n      tag_223\n      jump\t// in\n    tag_222:\n      0x00\n      mload(0x40)\n      dup1\n      dup4\n      sub\n      dup2\n      0x00\n      dup8\n      dup1\n      extcodesize\n      iszero\n      dup1\n      iszero\n      tag_224\n      jumpi\n      0x00\n      dup1\n      revert\n    tag_224:\n      pop\n      gas\n      call\n      iszero\n      dup1\n      iszero\n      tag_226\n      jumpi\n      returndatasize\n      0x00\n      dup1\n      returndatacopy\n      revert(0x00, returndatasize)\n    tag_226:\n      pop\n      pop\n      pop\n      pop\n        /* \"contracts/disputeResolution.sol\":5663:6237  if (inFavorOfBuyer) {... */\n      jump(tag_227)\n    tag_221:\n        /* \"contracts/disputeResolution.sol\":6010:6015  false */\n      0x00\n        /* \"contracts/disputeResolution.sol\":5976:5984  disputes */\n      0x02\n        /* \"contracts/disputeResolution.sol\":5976:5995  disputes[disputeId] */\n      0x00\n        /* \"contracts/disputeResolution.sol\":5985:5994  disputeId */\n      dup7\n        /* \"contracts/disputeResolution.sol\":5976:5995  disputes[disputeId] */\n      dup2\n      mstore\n      0x20\n      add\n      swap1\n      dup2\n      mstore\n      0x20\n      add\n      0x00\n      keccak256\n        /* \"contracts/disputeResolution.sol\":5976:6007  disputes[disputeId].winnerBuyer */\n      0x08\n      add\n      0x02\n        /* \"contracts/disputeResolution.sol\":5976:6015  disputes[disputeId].winnerBuyer = false */\n      0x0100\n      exp\n      dup2\n      sload\n      dup2\n      0xff\n      mul\n      not\n      and\n      swap1\n      dup4\n      iszero\n      iszero\n      mul\n      or\n      swap1\n      sstore\n      pop\n        /* \"contracts/disputeResolution.sol\":6043:6055  mainContract */\n      0x01\n      0x00\n      swap1\n      sload\n      swap1\n      0x0100\n      exp\n      swap1\n      div\n      0xffffffffffffffffffffffffffffffffffffffff\n      and\n        /* \"contracts/disputeResolution.sol\":6029:6082  IMainContract(mainContract).releaseEscrowAfterDispute */\n      0xffffffffffffffffffffffffffffffffffffffff\n      and\n      0x7a30bde6\n        /* \"contracts/disputeResolution.sol\":6083:6091  disputes */\n      0x02\n        /* \"contracts/disputeResolution.sol\":6083:6102  disputes[disputeId] */\n      0x00\n        /* \"contracts/disputeResolution.sol\":6092:6101  disputeId */\n      dup8\n        /* \"contracts/disputeResolution.sol\":6083:6102  disputes[disputeId] */\n      dup2\n      mstore\n      0x20\n      add\n      swap1\n      dup2\n      mstore\n      0x20\n      add\n      0x00\n      keccak256\n        /* \"contracts/disputeResolution.sol\":6083:6113  disputes[disputeId].proposalID */\n      0x02\n      add\n      sload\n        /* \"contracts/disputeResolution.sol\":6115:6123  disputes */\n      0x02\n        /* \"contracts/disputeResolution.sol\":6115:6134  disputes[disputeId] */\n      0x00\n        /* \"contracts/disputeResolution.sol\":6124:6133  disputeId */\n      dup9\n        /* \"contracts/disputeResolution.sol\":6115:6134  disputes[disputeId] */\n      dup2\n      mstore\n      0x20\n      add\n      swap1\n      dup2\n      mstore\n      0x20\n      add\n      0x00\n      keccak256\n        /* \"contracts/disputeResolution.sol\":6115:6152  disputes[disputeId].buyerRequestIndex */\n      0x03\n      add\n      sload\n        /* \"contracts/disputeResolution.sol\":6162:6170  disputes */\n      0x02\n        /* \"contracts/disputeResolution.sol\":6162:6181  disputes[disputeId] */\n      0x00\n        /* \"contracts/disputeResolution.sol\":6171:6180  disputeId */\n      dup10\n        /* \"contracts/disputeResolution.sol\":6162:6181  disputes[disputeId] */\n      dup2\n      mstore\n      0x20\n      add\n      swap1\n      dup2\n      mstore\n      0x20\n      add\n      0x00\n      keccak256\n        /* \"contracts/disputeResolution.sol\":6162:6188  disputes[disputeId].seller */\n      0x01\n      add\n      0x00\n      swap1\n      sload\n      swap1\n      0x0100\n      exp\n      swap1\n      div\n      0xffffffffffffffffffffffffffffffffffffffff\n      and\n        /* \"contracts/disputeResolution.sol\":6191:6199  disputes */\n      0x02\n        /* \"contracts/disputeResolution.sol\":6191:6210  disputes[disputeId] */\n      0x00\n        /* \"contracts/disputeResolution.sol\":6200:6209  disputeId */\n      dup11\n        /* \"contracts/disputeResolution.sol\":6191:6210  disputes[disputeId] */\n      dup2\n      mstore\n      0x20\n      add\n      swap1\n      dup2\n      mstore\n      0x20\n      add\n      0x00\n      keccak256\n        /* \"contracts/disputeResolution.sol\":6191:6225  disputes[disputeId].disputedAmount */\n      0x04\n      add\n      sload\n        /* \"contracts/disputeResolution.sol\":6029:6226  IMainContract(mainContract).releaseEscrowAfterDispute(disputes[disputeId].proposalID, disputes[disputeId].buyerRequestIndex, payable(disputes[disputeId].seller), disputes[disputeId].disputedAmount) */\n      mload(0x40)\n      dup6\n      0xffffffff\n      and\n      0xe0\n      shl\n      dup2\n      mstore\n      0x04\n      add\n      tag_228\n      swap5\n      swap4\n      swap3\n      swap2\n      swap1\n      tag_223\n      jump\t// in\n    tag_228:\n      0x00\n      mload(0x40)\n      dup1\n      dup4\n      sub\n      dup2\n      0x00\n      dup8\n      dup1\n      extcodesize\n      iszero\n      dup1\n      iszero\n      tag_229\n      jumpi\n      0x00\n      dup1\n      revert\n    tag_229:\n      pop\n      gas\n      call\n      iszero\n      dup1\n      iszero\n      tag_231\n      jumpi\n      returndatasize\n      0x00\n      dup1\n      returndatacopy\n      revert(0x00, returndatasize)\n    tag_231:\n      pop\n      pop\n      pop\n      pop\n        /* \"contracts/disputeResolution.sol\":5663:6237  if (inFavorOfBuyer) {... */\n    tag_227:\n        /* \"contracts/disputeResolution.sol\":6277:6281  true */\n      0x01\n        /* \"contracts/disputeResolution.sol\":6246:6254  disputes */\n      0x02\n        /* \"contracts/disputeResolution.sol\":6246:6265  disputes[disputeId] */\n      0x00\n        /* \"contracts/disputeResolution.sol\":6255:6264  disputeId */\n      dup7\n        /* \"contracts/disputeResolution.sol\":6246:6265  disputes[disputeId] */\n      dup2\n      mstore\n      0x20\n      add\n      swap1\n      dup2\n      mstore\n      0x20\n      add\n      0x00\n      keccak256\n        /* \"contracts/disputeResolution.sol\":6246:6274  disputes[disputeId].resolved */\n      0x08\n      add\n      0x01\n        /* \"contracts/disputeResolution.sol\":6246:6281  disputes[disputeId].resolved = true */\n      0x0100\n      exp\n      dup2\n      sload\n      dup2\n      0xff\n      mul\n      not\n      and\n      swap1\n      dup4\n      iszero\n      iszero\n      mul\n      or\n      swap1\n      sstore\n      pop\n        /* \"contracts/disputeResolution.sol\":6312:6321  disputeId */\n      dup4\n        /* \"contracts/disputeResolution.sol\":6296:6338  DisputeResolved(disputeId, inFavorOfBuyer) */\n      0x5a87909bff68caaaaf0b3fd9c74eeccc928832f879315e5c6fb7a73612f26c0c\n        /* \"contracts/disputeResolution.sol\":6323:6337  inFavorOfBuyer */\n      dup3\n        /* \"contracts/disputeResolution.sol\":6296:6338  DisputeResolved(disputeId, inFavorOfBuyer) */\n      mload(0x40)\n      tag_232\n      swap2\n      swap1\n      tag_47\n      jump\t// in\n    tag_232:\n      mload(0x40)\n      dup1\n      swap2\n      sub\n      swap1\n      log2\n        /* \"contracts/disputeResolution.sol\":5538:6345  if (thresholdMet) {... */\n    tag_218:\n        /* \"contracts/disputeResolution.sol\":4711:6348  {... */\n      pop\n      pop\n      pop\n        /* \"contracts/disputeResolution.sol\":4661:6348  function resolveDispute(uint256 disputeId) public {... */\n      pop\n      jump\t// out\n        /* \"contracts/disputeResolution.sol\":260:287  address public mainContract */\n    tag_98:\n      0x01\n      0x00\n      swap1\n      sload\n      swap1\n      0x0100\n      exp\n      swap1\n      div\n      0xffffffffffffffffffffffffffffffffffffffff\n      and\n      dup2\n      jump\t// out\n        /* \"contracts/disputeResolution.sol\":3625:4658  function vote(uint256 disputeId, bool inFavorOfBuyer, uint256 amount) public {... */\n    tag_103:\n        /* \"contracts/disputeResolution.sol\":3728:3740  disputeCount */\n      sload(0x09)\n        /* \"contracts/disputeResolution.sol\":3716:3725  disputeId */\n      dup4\n        /* \"contracts/disputeResolution.sol\":3716:3740  disputeId < disputeCount */\n      lt\n        /* \"contracts/disputeResolution.sol\":3708:3763  require(disputeId < disputeCount, \"Invalid dispute ID\") */\n      tag_234\n      jumpi\n      mload(0x40)\n      0x08c379a000000000000000000000000000000000000000000000000000000000\n      dup2\n      mstore\n      0x04\n      add\n      tag_235\n      swap1\n      tag_148\n      jump\t// in\n    tag_235:\n      mload(0x40)\n      dup1\n      swap2\n      sub\n      swap1\n      revert\n    tag_234:\n        /* \"contracts/disputeResolution.sol\":3795:3803  disputes */\n      0x02\n        /* \"contracts/disputeResolution.sol\":3795:3814  disputes[disputeId] */\n      0x00\n        /* \"contracts/disputeResolution.sol\":3804:3813  disputeId */\n      dup5\n        /* \"contracts/disputeResolution.sol\":3795:3814  disputes[disputeId] */\n      dup2\n      mstore\n      0x20\n      add\n      swap1\n      dup2\n      mstore\n      0x20\n      add\n      0x00\n      keccak256\n        /* \"contracts/disputeResolution.sol\":3795:3822  disputes[disputeId].endTime */\n      0x07\n      add\n      sload\n        /* \"contracts/disputeResolution.sol\":3777:3792  block.timestamp */\n      timestamp\n        /* \"contracts/disputeResolution.sol\":3777:3822  block.timestamp < disputes[disputeId].endTime */\n      lt\n        /* \"contracts/disputeResolution.sol\":3769:3848  require(block.timestamp < disputes[disputeId].endTime, \"Voting period is over\") */\n      tag_236\n      jumpi\n      mload(0x40)\n      0x08c379a000000000000000000000000000000000000000000000000000000000\n      dup2\n      mstore\n      0x04\n      add\n      tag_237\n      swap1\n      tag_238\n      jump\t// in\n    tag_237:\n      mload(0x40)\n      dup1\n      swap2\n      sub\n      swap1\n      revert\n    tag_236:\n        /* \"contracts/disputeResolution.sol\":3863:3871  disputes */\n      0x02\n        /* \"contracts/disputeResolution.sol\":3863:3882  disputes[disputeId] */\n      0x00\n        /* \"contracts/disputeResolution.sol\":3872:3881  disputeId */\n      dup5\n        /* \"contracts/disputeResolution.sol\":3863:3882  disputes[disputeId] */\n      dup2\n      mstore\n      0x20\n      add\n      swap1\n      dup2\n      mstore\n      0x20\n      add\n      0x00\n      keccak256\n        /* \"contracts/disputeResolution.sol\":3863:3891  disputes[disputeId].resolved */\n      0x08\n      add\n      0x01\n      swap1\n      sload\n      swap1\n      0x0100\n      exp\n      swap1\n      div\n      0xff\n      and\n        /* \"contracts/disputeResolution.sol\":3862:3891  !disputes[disputeId].resolved */\n      iszero\n        /* \"contracts/disputeResolution.sol\":3854:3929  require(!disputes[disputeId].resolved, \"Dispute has already been resolved\") */\n      tag_239\n      jumpi\n      mload(0x40)\n      0x08c379a000000000000000000000000000000000000000000000000000000000\n      dup2\n      mstore\n      0x04\n      add\n      tag_240\n      swap1\n      tag_205\n      jump\t// in\n    tag_240:\n      mload(0x40)\n      dup1\n      swap2\n      sub\n      swap1\n      revert\n    tag_239:\n        /* \"contracts/disputeResolution.sol\":3943:3957  inFavorOfBuyer */\n      dup2\n        /* \"contracts/disputeResolution.sol\":3940:4191  if(inFavorOfBuyer) {... */\n      iszero\n      tag_241\n      jumpi\n        /* \"contracts/disputeResolution.sol\":4022:4023  0 */\n      0x00\n        /* \"contracts/disputeResolution.sol\":3977:3995  sellerStakedTokens */\n      0x05\n        /* \"contracts/disputeResolution.sol\":3977:4006  sellerStakedTokens[disputeId] */\n      0x00\n        /* \"contracts/disputeResolution.sol\":3996:4005  disputeId */\n      dup6\n        /* \"contracts/disputeResolution.sol\":3977:4006  sellerStakedTokens[disputeId] */\n      dup2\n      mstore\n      0x20\n      add\n      swap1\n      dup2\n      mstore\n      0x20\n      add\n      0x00\n      keccak256\n        /* \"contracts/disputeResolution.sol\":3977:4018  sellerStakedTokens[disputeId][msg.sender] */\n      0x00\n        /* \"contracts/disputeResolution.sol\":4007:4017  msg.sender */\n      caller\n        /* \"contracts/disputeResolution.sol\":3977:4018  sellerStakedTokens[disputeId][msg.sender] */\n      0xffffffffffffffffffffffffffffffffffffffff\n      and\n      0xffffffffffffffffffffffffffffffffffffffff\n      and\n      dup2\n      mstore\n      0x20\n      add\n      swap1\n      dup2\n      mstore\n      0x20\n      add\n      0x00\n      keccak256\n      sload\n        /* \"contracts/disputeResolution.sol\":3977:4023  sellerStakedTokens[disputeId][msg.sender] == 0 */\n      eq\n        /* \"contracts/disputeResolution.sol\":3969:4066  require(sellerStakedTokens[disputeId][msg.sender] == 0, \"Voter has already voted for the seller\") */\n      tag_242\n      jumpi\n      mload(0x40)\n      0x08c379a000000000000000000000000000000000000000000000000000000000\n      dup2\n      mstore\n      0x04\n      add\n      tag_243\n      swap1\n      tag_244\n      jump\t// in\n    tag_243:\n      mload(0x40)\n      dup1\n      swap2\n      sub\n      swap1\n      revert\n    tag_242:\n        /* \"contracts/disputeResolution.sol\":3940:4191  if(inFavorOfBuyer) {... */\n      jump(tag_245)\n    tag_241:\n        /* \"contracts/disputeResolution.sol\":4141:4142  0 */\n      0x00\n        /* \"contracts/disputeResolution.sol\":4097:4114  buyerStakedTokens */\n      0x04\n        /* \"contracts/disputeResolution.sol\":4097:4125  buyerStakedTokens[disputeId] */\n      0x00\n        /* \"contracts/disputeResolution.sol\":4115:4124  disputeId */\n      dup6\n        /* \"contracts/disputeResolution.sol\":4097:4125  buyerStakedTokens[disputeId] */\n      dup2\n      mstore\n      0x20\n      add\n      swap1\n      dup2\n      mstore\n      0x20\n      add\n      0x00\n      keccak256\n        /* \"contracts/disputeResolution.sol\":4097:4137  buyerStakedTokens[disputeId][msg.sender] */\n      0x00\n        /* \"contracts/disputeResolution.sol\":4126:4136  msg.sender */\n      caller\n        /* \"contracts/disputeResolution.sol\":4097:4137  buyerStakedTokens[disputeId][msg.sender] */\n      0xffffffffffffffffffffffffffffffffffffffff\n      and\n      0xffffffffffffffffffffffffffffffffffffffff\n      and\n      dup2\n      mstore\n      0x20\n      add\n      swap1\n      dup2\n      mstore\n      0x20\n      add\n      0x00\n      keccak256\n      sload\n        /* \"contracts/disputeResolution.sol\":4097:4142  buyerStakedTokens[disputeId][msg.sender] == 0 */\n      eq\n        /* \"contracts/disputeResolution.sol\":4089:4184  require(buyerStakedTokens[disputeId][msg.sender] == 0, \"Voter has already voted for the buyer\") */\n      tag_246\n      jumpi\n      mload(0x40)\n      0x08c379a000000000000000000000000000000000000000000000000000000000\n      dup2\n      mstore\n      0x04\n      add\n      tag_247\n      swap1\n      tag_248\n      jump\t// in\n    tag_247:\n      mload(0x40)\n      dup1\n      swap2\n      sub\n      swap1\n      revert\n    tag_246:\n        /* \"contracts/disputeResolution.sol\":3940:4191  if(inFavorOfBuyer) {... */\n    tag_245:\n        /* \"contracts/disputeResolution.sol\":4197:4215  finjaTokenInstance */\n      immutable(\"0x53c7d35966a5a2c857f5b9d0889d9b28894dfc4ea0e7f834f61b293cc983dec7\")\n        /* \"contracts/disputeResolution.sol\":4197:4228  finjaTokenInstance.transferFrom */\n      0xffffffffffffffffffffffffffffffffffffffff\n      and\n      0x23b872dd\n        /* \"contracts/disputeResolution.sol\":4229:4239  msg.sender */\n      caller\n        /* \"contracts/disputeResolution.sol\":4249:4253  this */\n      address\n        /* \"contracts/disputeResolution.sol\":4256:4262  amount */\n      dup5\n        /* \"contracts/disputeResolution.sol\":4197:4263  finjaTokenInstance.transferFrom(msg.sender, address(this), amount) */\n      mload(0x40)\n      dup5\n      0xffffffff\n      and\n      0xe0\n      shl\n      dup2\n      mstore\n      0x04\n      add\n      tag_249\n      swap4\n      swap3\n      swap2\n      swap1\n      tag_250\n      jump\t// in\n    tag_249:\n      0x20\n      mload(0x40)\n      dup1\n      dup4\n      sub\n      dup2\n      0x00\n      dup8\n      gas\n      call\n      iszero\n      dup1\n      iszero\n      tag_252\n      jumpi\n      returndatasize\n      0x00\n      dup1\n      returndatacopy\n      revert(0x00, returndatasize)\n    tag_252:\n      pop\n      pop\n      pop\n      pop\n      mload(0x40)\n      returndatasize\n      not(0x1f)\n      0x1f\n      dup3\n      add\n      and\n      dup3\n      add\n      dup1\n      0x40\n      mstore\n      pop\n      dup2\n      add\n      swap1\n      tag_253\n      swap2\n      swap1\n      tag_185\n      jump\t// in\n    tag_253:\n      pop\n        /* \"contracts/disputeResolution.sol\":4308:4314  amount */\n      dup1\n        /* \"contracts/disputeResolution.sol\":4269:4281  stakedTokens */\n      0x03\n        /* \"contracts/disputeResolution.sol\":4269:4292  stakedTokens[disputeId] */\n      0x00\n        /* \"contracts/disputeResolution.sol\":4282:4291  disputeId */\n      dup6\n        /* \"contracts/disputeResolution.sol\":4269:4292  stakedTokens[disputeId] */\n      dup2\n      mstore\n      0x20\n      add\n      swap1\n      dup2\n      mstore\n      0x20\n      add\n      0x00\n      keccak256\n        /* \"contracts/disputeResolution.sol\":4269:4304  stakedTokens[disputeId][msg.sender] */\n      0x00\n        /* \"contracts/disputeResolution.sol\":4293:4303  msg.sender */\n      caller\n        /* \"contracts/disputeResolution.sol\":4269:4304  stakedTokens[disputeId][msg.sender] */\n      0xffffffffffffffffffffffffffffffffffffffff\n      and\n      0xffffffffffffffffffffffffffffffffffffffff\n      and\n      dup2\n      mstore\n      0x20\n      add\n      swap1\n      dup2\n      mstore\n      0x20\n      add\n      0x00\n      keccak256\n      0x00\n        /* \"contracts/disputeResolution.sol\":4269:4314  stakedTokens[disputeId][msg.sender] += amount */\n      dup3\n      dup3\n      sload\n      tag_254\n      swap2\n      swap1\n      tag_131\n      jump\t// in\n    tag_254:\n      swap3\n      pop\n      pop\n      dup2\n      swap1\n      sstore\n      pop\n        /* \"contracts/disputeResolution.sol\":4325:4339  inFavorOfBuyer */\n      dup2\n        /* \"contracts/disputeResolution.sol\":4321:4583  if (inFavorOfBuyer) {... */\n      iszero\n      tag_255\n      jumpi\n        /* \"contracts/disputeResolution.sol\":4385:4391  amount */\n      dup1\n        /* \"contracts/disputeResolution.sol\":4351:4359  disputes */\n      0x02\n        /* \"contracts/disputeResolution.sol\":4351:4370  disputes[disputeId] */\n      0x00\n        /* \"contracts/disputeResolution.sol\":4360:4369  disputeId */\n      dup6\n        /* \"contracts/disputeResolution.sol\":4351:4370  disputes[disputeId] */\n      dup2\n      mstore\n      0x20\n      add\n      swap1\n      dup2\n      mstore\n      0x20\n      add\n      0x00\n      keccak256\n        /* \"contracts/disputeResolution.sol\":4351:4381  disputes[disputeId].buyerVotes */\n      0x05\n      add\n      0x00\n        /* \"contracts/disputeResolution.sol\":4351:4391  disputes[disputeId].buyerVotes += amount */\n      dup3\n      dup3\n      sload\n      tag_256\n      swap2\n      swap1\n      tag_131\n      jump\t// in\n    tag_256:\n      swap3\n      pop\n      pop\n      dup2\n      swap1\n      sstore\n      pop\n        /* \"contracts/disputeResolution.sol\":4445:4451  amount */\n      dup1\n        /* \"contracts/disputeResolution.sol\":4401:4418  buyerStakedTokens */\n      0x04\n        /* \"contracts/disputeResolution.sol\":4401:4429  buyerStakedTokens[disputeId] */\n      0x00\n        /* \"contracts/disputeResolution.sol\":4419:4428  disputeId */\n      dup6\n        /* \"contracts/disputeResolution.sol\":4401:4429  buyerStakedTokens[disputeId] */\n      dup2\n      mstore\n      0x20\n      add\n      swap1\n      dup2\n      mstore\n      0x20\n      add\n      0x00\n      keccak256\n        /* \"contracts/disputeResolution.sol\":4401:4441  buyerStakedTokens[disputeId][msg.sender] */\n      0x00\n        /* \"contracts/disputeResolution.sol\":4430:4440  msg.sender */\n      caller\n        /* \"contracts/disputeResolution.sol\":4401:4441  buyerStakedTokens[disputeId][msg.sender] */\n      0xffffffffffffffffffffffffffffffffffffffff\n      and\n      0xffffffffffffffffffffffffffffffffffffffff\n      and\n      dup2\n      mstore\n      0x20\n      add\n      swap1\n      dup2\n      mstore\n      0x20\n      add\n      0x00\n      keccak256\n      0x00\n        /* \"contracts/disputeResolution.sol\":4401:4451  buyerStakedTokens[disputeId][msg.sender] += amount */\n      dup3\n      dup3\n      sload\n      tag_257\n      swap2\n      swap1\n      tag_131\n      jump\t// in\n    tag_257:\n      swap3\n      pop\n      pop\n      dup2\n      swap1\n      sstore\n      pop\n        /* \"contracts/disputeResolution.sol\":4321:4583  if (inFavorOfBuyer) {... */\n      jump(tag_258)\n    tag_255:\n        /* \"contracts/disputeResolution.sol\":4509:4515  amount */\n      dup1\n        /* \"contracts/disputeResolution.sol\":4474:4482  disputes */\n      0x02\n        /* \"contracts/disputeResolution.sol\":4474:4493  disputes[disputeId] */\n      0x00\n        /* \"contracts/disputeResolution.sol\":4483:4492  disputeId */\n      dup6\n        /* \"contracts/disputeResolution.sol\":4474:4493  disputes[disputeId] */\n      dup2\n      mstore\n      0x20\n      add\n      swap1\n      dup2\n      mstore\n      0x20\n      add\n      0x00\n      keccak256\n        /* \"contracts/disputeResolution.sol\":4474:4505  disputes[disputeId].sellerVotes */\n      0x06\n      add\n      0x00\n        /* \"contracts/disputeResolution.sol\":4474:4515  disputes[disputeId].sellerVotes += amount */\n      dup3\n      dup3\n      sload\n      tag_259\n      swap2\n      swap1\n      tag_131\n      jump\t// in\n    tag_259:\n      swap3\n      pop\n      pop\n      dup2\n      swap1\n      sstore\n      pop\n        /* \"contracts/disputeResolution.sol\":4570:4576  amount */\n      dup1\n        /* \"contracts/disputeResolution.sol\":4525:4543  sellerStakedTokens */\n      0x05\n        /* \"contracts/disputeResolution.sol\":4525:4554  sellerStakedTokens[disputeId] */\n      0x00\n        /* \"contracts/disputeResolution.sol\":4544:4553  disputeId */\n      dup6\n        /* \"contracts/disputeResolution.sol\":4525:4554  sellerStakedTokens[disputeId] */\n      dup2\n      mstore\n      0x20\n      add\n      swap1\n      dup2\n      mstore\n      0x20\n      add\n      0x00\n      keccak256\n        /* \"contracts/disputeResolution.sol\":4525:4566  sellerStakedTokens[disputeId][msg.sender] */\n      0x00\n        /* \"contracts/disputeResolution.sol\":4555:4565  msg.sender */\n      caller\n        /* \"contracts/disputeResolution.sol\":4525:4566  sellerStakedTokens[disputeId][msg.sender] */\n      0xffffffffffffffffffffffffffffffffffffffff\n      and\n      0xffffffffffffffffffffffffffffffffffffffff\n      and\n      dup2\n      mstore\n      0x20\n      add\n      swap1\n      dup2\n      mstore\n      0x20\n      add\n      0x00\n      keccak256\n      0x00\n        /* \"contracts/disputeResolution.sol\":4525:4576  sellerStakedTokens[disputeId][msg.sender] += amount */\n      dup3\n      dup3\n      sload\n      tag_260\n      swap2\n      swap1\n      tag_131\n      jump\t// in\n    tag_260:\n      swap3\n      pop\n      pop\n      dup2\n      swap1\n      sstore\n      pop\n        /* \"contracts/disputeResolution.sol\":4321:4583  if (inFavorOfBuyer) {... */\n    tag_258:\n        /* \"contracts/disputeResolution.sol\":4608:4617  disputeId */\n      dup3\n        /* \"contracts/disputeResolution.sol\":4594:4654  VoteSubmitted(disputeId, msg.sender, inFavorOfBuyer, amount) */\n      0xd5fbdad2a4bb43b8c8ee1becc8085bb21684241593a04bf8795a83f56436b43d\n        /* \"contracts/disputeResolution.sol\":4619:4629  msg.sender */\n      caller\n        /* \"contracts/disputeResolution.sol\":4631:4645  inFavorOfBuyer */\n      dup5\n        /* \"contracts/disputeResolution.sol\":4647:4653  amount */\n      dup5\n        /* \"contracts/disputeResolution.sol\":4594:4654  VoteSubmitted(disputeId, msg.sender, inFavorOfBuyer, amount) */\n      mload(0x40)\n      tag_261\n      swap4\n      swap3\n      swap2\n      swap1\n      tag_262\n      jump\t// in\n    tag_261:\n      mload(0x40)\n      dup1\n      swap2\n      sub\n      swap1\n      log2\n        /* \"contracts/disputeResolution.sol\":3625:4658  function vote(uint256 disputeId, bool inFavorOfBuyer, uint256 amount) public {... */\n      pop\n      pop\n      pop\n      jump\t// out\n        /* \"contracts/disputeResolution.sol\":2037:2140  function setVotingPeriod (uint256 _votingPeriod) public onlyOwner {... */\n    tag_106:\n        /* \"@openzeppelin/contracts/access/Ownable.sol\":1094:1107  _checkOwner() */\n      tag_264\n        /* \"@openzeppelin/contracts/access/Ownable.sol\":1094:1105  _checkOwner */\n      tag_143\n        /* \"@openzeppelin/contracts/access/Ownable.sol\":1094:1107  _checkOwner() */\n      jump\t// in\n    tag_264:\n        /* \"contracts/disputeResolution.sol\":2124:2137  _votingPeriod */\n      dup1\n        /* \"contracts/disputeResolution.sol\":2109:2121  votingPeriod */\n      0x0a\n        /* \"contracts/disputeResolution.sol\":2109:2137  votingPeriod = _votingPeriod */\n      dup2\n      swap1\n      sstore\n      pop\n        /* \"contracts/disputeResolution.sol\":2037:2140  function setVotingPeriod (uint256 _votingPeriod) public onlyOwner {... */\n      pop\n      jump\t// out\n        /* \"@openzeppelin/contracts/access/Ownable.sol\":2081:2279  function transferOwnership(address newOwner) public virtual onlyOwner {... */\n    tag_109:\n        /* \"@openzeppelin/contracts/access/Ownable.sol\":1094:1107  _checkOwner() */\n      tag_267\n        /* \"@openzeppelin/contracts/access/Ownable.sol\":1094:1105  _checkOwner */\n      tag_143\n        /* \"@openzeppelin/contracts/access/Ownable.sol\":1094:1107  _checkOwner() */\n      jump\t// in\n    tag_267:\n        /* \"@openzeppelin/contracts/access/Ownable.sol\":2189:2190  0 */\n      0x00\n        /* \"@openzeppelin/contracts/access/Ownable.sol\":2169:2191  newOwner != address(0) */\n      0xffffffffffffffffffffffffffffffffffffffff\n      and\n        /* \"@openzeppelin/contracts/access/Ownable.sol\":2169:2177  newOwner */\n      dup2\n        /* \"@openzeppelin/contracts/access/Ownable.sol\":2169:2191  newOwner != address(0) */\n      0xffffffffffffffffffffffffffffffffffffffff\n      and\n      sub\n        /* \"@openzeppelin/contracts/access/Ownable.sol\":2161:2234  require(newOwner != address(0), \"Ownable: new owner is the zero address\") */\n      tag_269\n      jumpi\n      mload(0x40)\n      0x08c379a000000000000000000000000000000000000000000000000000000000\n      dup2\n      mstore\n      0x04\n      add\n      tag_270\n      swap1\n      tag_271\n      jump\t// in\n    tag_270:\n      mload(0x40)\n      dup1\n      swap2\n      sub\n      swap1\n      revert\n    tag_269:\n        /* \"@openzeppelin/contracts/access/Ownable.sol\":2244:2272  _transferOwnership(newOwner) */\n      tag_272\n        /* \"@openzeppelin/contracts/access/Ownable.sol\":2263:2271  newOwner */\n      dup2\n        /* \"@openzeppelin/contracts/access/Ownable.sol\":2244:2262  _transferOwnership */\n      tag_190\n        /* \"@openzeppelin/contracts/access/Ownable.sol\":2244:2272  _transferOwnership(newOwner) */\n      jump\t// in\n    tag_272:\n        /* \"@openzeppelin/contracts/access/Ownable.sol\":2081:2279  function transferOwnership(address newOwner) public virtual onlyOwner {... */\n      pop\n      jump\t// out\n        /* \"contracts/disputeResolution.sol\":889:962  mapping(uint256 => mapping(address => uint256)) public sellerStakedTokens */\n    tag_112:\n      mstore(0x20, 0x05)\n      dup2\n      0x00\n      mstore\n      mstore(0x20, keccak256(0x00, 0x40))\n      dup1\n      0x00\n      mstore\n      keccak256(0x00, 0x40)\n      0x00\n      swap2\n      pop\n      swap2\n      pop\n      pop\n      sload\n      dup2\n      jump\t// out\n        /* \"contracts/disputeResolution.sol\":1033:1094  mapping(bytes32 => uint256) public disputesForProposalRequest */\n    tag_117:\n      mstore(0x20, 0x07)\n      dup1\n      0x00\n      mstore\n      keccak256(0x00, 0x40)\n      0x00\n      swap2\n      pop\n      swap1\n      pop\n      sload\n      dup2\n      jump\t// out\n        /* \"contracts/disputeResolution.sol\":2142:2316  function generateKey(uint256 proposalID, uint256 buyerRequestIndex) internal pure returns (bytes32) {... */\n    tag_133:\n        /* \"contracts/disputeResolution.sol\":2233:2240  bytes32 */\n      0x00\n        /* \"contracts/disputeResolution.sol\":2282:2292  proposalID */\n      dup3\n        /* \"contracts/disputeResolution.sol\":2294:2311  buyerRequestIndex */\n      dup3\n        /* \"contracts/disputeResolution.sol\":2265:2312  abi.encodePacked(proposalID, buyerRequestIndex) */\n      add(0x20, mload(0x40))\n      tag_274\n      swap3\n      swap2\n      swap1\n      tag_275\n      jump\t// in\n    tag_274:\n      mload(0x40)\n      0x20\n      dup2\n      dup4\n      sub\n      sub\n      dup2\n      mstore\n      swap1\n      0x40\n      mstore\n        /* \"contracts/disputeResolution.sol\":2255:2313  keccak256(abi.encodePacked(proposalID, buyerRequestIndex)) */\n      dup1\n      mload\n      swap1\n      0x20\n      add\n      keccak256\n        /* \"contracts/disputeResolution.sol\":2248:2313  return keccak256(abi.encodePacked(proposalID, buyerRequestIndex)) */\n      swap1\n      pop\n        /* \"contracts/disputeResolution.sol\":2142:2316  function generateKey(uint256 proposalID, uint256 buyerRequestIndex) internal pure returns (bytes32) {... */\n      swap3\n      swap2\n      pop\n      pop\n      jump\t// out\n        /* \"@openzeppelin/contracts/access/Ownable.sol\":1359:1489  function _checkOwner() internal view virtual {... */\n    tag_143:\n        /* \"@openzeppelin/contracts/access/Ownable.sol\":1433:1445  _msgSender() */\n      tag_277\n        /* \"@openzeppelin/contracts/access/Ownable.sol\":1433:1443  _msgSender */\n      tag_278\n        /* \"@openzeppelin/contracts/access/Ownable.sol\":1433:1445  _msgSender() */\n      jump\t// in\n    tag_277:\n        /* \"@openzeppelin/contracts/access/Ownable.sol\":1422:1445  owner() == _msgSender() */\n      0xffffffffffffffffffffffffffffffffffffffff\n      and\n        /* \"@openzeppelin/contracts/access/Ownable.sol\":1422:1429  owner() */\n      tag_279\n        /* \"@openzeppelin/contracts/access/Ownable.sol\":1422:1427  owner */\n      tag_85\n        /* \"@openzeppelin/contracts/access/Ownable.sol\":1422:1429  owner() */\n      jump\t// in\n    tag_279:\n        /* \"@openzeppelin/contracts/access/Ownable.sol\":1422:1445  owner() == _msgSender() */\n      0xffffffffffffffffffffffffffffffffffffffff\n      and\n      eq\n        /* \"@openzeppelin/contracts/access/Ownable.sol\":1414:1482  require(owner() == _msgSender(), \"Ownable: caller is not the owner\") */\n      tag_280\n      jumpi\n      mload(0x40)\n      0x08c379a000000000000000000000000000000000000000000000000000000000\n      dup2\n      mstore\n      0x04\n      add\n      tag_281\n      swap1\n      tag_282\n      jump\t// in\n    tag_281:\n      mload(0x40)\n      dup1\n      swap2\n      sub\n      swap1\n      revert\n    tag_280:\n        /* \"@openzeppelin/contracts/access/Ownable.sol\":1359:1489  function _checkOwner() internal view virtual {... */\n      jump\t// out\n        /* \"@openzeppelin/contracts/access/Ownable.sol\":2433:2620  function _transferOwnership(address newOwner) internal virtual {... */\n    tag_190:\n        /* \"@openzeppelin/contracts/access/Ownable.sol\":2506:2522  address oldOwner */\n      0x00\n        /* \"@openzeppelin/contracts/access/Ownable.sol\":2525:2531  _owner */\n      dup1\n      0x00\n      swap1\n      sload\n      swap1\n      0x0100\n      exp\n      swap1\n      div\n      0xffffffffffffffffffffffffffffffffffffffff\n      and\n        /* \"@openzeppelin/contracts/access/Ownable.sol\":2506:2531  address oldOwner = _owner */\n      swap1\n      pop\n        /* \"@openzeppelin/contracts/access/Ownable.sol\":2550:2558  newOwner */\n      dup2\n        /* \"@openzeppelin/contracts/access/Ownable.sol\":2541:2547  _owner */\n      0x00\n      dup1\n        /* \"@openzeppelin/contracts/access/Ownable.sol\":2541:2558  _owner = newOwner */\n      0x0100\n      exp\n      dup2\n      sload\n      dup2\n      0xffffffffffffffffffffffffffffffffffffffff\n      mul\n      not\n      and\n      swap1\n      dup4\n      0xffffffffffffffffffffffffffffffffffffffff\n      and\n      mul\n      or\n      swap1\n      sstore\n      pop\n        /* \"@openzeppelin/contracts/access/Ownable.sol\":2604:2612  newOwner */\n      dup2\n        /* \"@openzeppelin/contracts/access/Ownable.sol\":2573:2613  OwnershipTransferred(oldOwner, newOwner) */\n      0xffffffffffffffffffffffffffffffffffffffff\n      and\n        /* \"@openzeppelin/contracts/access/Ownable.sol\":2594:2602  oldOwner */\n      dup2\n        /* \"@openzeppelin/contracts/access/Ownable.sol\":2573:2613  OwnershipTransferred(oldOwner, newOwner) */\n      0xffffffffffffffffffffffffffffffffffffffff\n      and\n      0x8be0079c531659141344cd1fd0a4f28419497f9722a3daafe3b4186f6b6457e0\n      mload(0x40)\n      mload(0x40)\n      dup1\n      swap2\n      sub\n      swap1\n      log3\n        /* \"@openzeppelin/contracts/access/Ownable.sol\":2496:2620  {... */\n      pop\n        /* \"@openzeppelin/contracts/access/Ownable.sol\":2433:2620  function _transferOwnership(address newOwner) internal virtual {... */\n      pop\n      jump\t// out\n        /* \"@openzeppelin/contracts/utils/Context.sol\":640:736  function _msgSender() internal view virtual returns (address) {... */\n    tag_278:\n        /* \"@openzeppelin/contracts/utils/Context.sol\":693:700  address */\n      0x00\n        /* \"@openzeppelin/contracts/utils/Context.sol\":719:729  msg.sender */\n      caller\n        /* \"@openzeppelin/contracts/utils/Context.sol\":712:729  return msg.sender */\n      swap1\n      pop\n        /* \"@openzeppelin/contracts/utils/Context.sol\":640:736  function _msgSender() internal view virtual returns (address) {... */\n      swap1\n      jump\t// out\n        /* \"#utility.yul\":7:84   */\n    tag_285:\n        /* \"#utility.yul\":44:51   */\n      0x00\n        /* \"#utility.yul\":73:78   */\n      dup2\n        /* \"#utility.yul\":62:78   */\n      swap1\n      pop\n        /* \"#utility.yul\":7:84   */\n      swap2\n      swap1\n      pop\n      jump\t// out\n        /* \"#utility.yul\":90:208   */\n    tag_286:\n        /* \"#utility.yul\":177:201   */\n      tag_346\n        /* \"#utility.yul\":195:200   */\n      dup2\n        /* \"#utility.yul\":177:201   */\n      tag_285\n      jump\t// in\n    tag_346:\n        /* \"#utility.yul\":172:175   */\n      dup3\n        /* \"#utility.yul\":165:202   */\n      mstore\n        /* \"#utility.yul\":90:208   */\n      pop\n      pop\n      jump\t// out\n        /* \"#utility.yul\":214:436   */\n    tag_32:\n        /* \"#utility.yul\":307:311   */\n      0x00\n        /* \"#utility.yul\":345:347   */\n      0x20\n        /* \"#utility.yul\":334:343   */\n      dup3\n        /* \"#utility.yul\":330:348   */\n      add\n        /* \"#utility.yul\":322:348   */\n      swap1\n      pop\n        /* \"#utility.yul\":358:429   */\n      tag_348\n        /* \"#utility.yul\":426:427   */\n      0x00\n        /* \"#utility.yul\":415:424   */\n      dup4\n        /* \"#utility.yul\":411:428   */\n      add\n        /* \"#utility.yul\":402:408   */\n      dup5\n        /* \"#utility.yul\":358:429   */\n      tag_286\n      jump\t// in\n    tag_348:\n        /* \"#utility.yul\":214:436   */\n      swap3\n      swap2\n      pop\n      pop\n      jump\t// out\n        /* \"#utility.yul\":523:640   */\n    tag_288:\n        /* \"#utility.yul\":632:633   */\n      0x00\n        /* \"#utility.yul\":629:630   */\n      dup1\n        /* \"#utility.yul\":622:634   */\n      revert\n        /* \"#utility.yul\":769:895   */\n    tag_290:\n        /* \"#utility.yul\":806:813   */\n      0x00\n        /* \"#utility.yul\":846:888   */\n      0xffffffffffffffffffffffffffffffffffffffff\n        /* \"#utility.yul\":839:844   */\n      dup3\n        /* \"#utility.yul\":835:889   */\n      and\n        /* \"#utility.yul\":824:889   */\n      swap1\n      pop\n        /* \"#utility.yul\":769:895   */\n      swap2\n      swap1\n      pop\n      jump\t// out\n        /* \"#utility.yul\":901:997   */\n    tag_291:\n        /* \"#utility.yul\":938:945   */\n      0x00\n        /* \"#utility.yul\":967:991   */\n      tag_354\n        /* \"#utility.yul\":985:990   */\n      dup3\n        /* \"#utility.yul\":967:991   */\n      tag_290\n      jump\t// in\n    tag_354:\n        /* \"#utility.yul\":956:991   */\n      swap1\n      pop\n        /* \"#utility.yul\":901:997   */\n      swap2\n      swap1\n      pop\n      jump\t// out\n        /* \"#utility.yul\":1003:1125   */\n    tag_292:\n        /* \"#utility.yul\":1076:1100   */\n      tag_356\n        /* \"#utility.yul\":1094:1099   */\n      dup2\n        /* \"#utility.yul\":1076:1100   */\n      tag_291\n      jump\t// in\n    tag_356:\n        /* \"#utility.yul\":1069:1074   */\n      dup2\n        /* \"#utility.yul\":1066:1101   */\n      eq\n        /* \"#utility.yul\":1056:1119   */\n      tag_357\n      jumpi\n        /* \"#utility.yul\":1115:1116   */\n      0x00\n        /* \"#utility.yul\":1112:1113   */\n      dup1\n        /* \"#utility.yul\":1105:1117   */\n      revert\n        /* \"#utility.yul\":1056:1119   */\n    tag_357:\n        /* \"#utility.yul\":1003:1125   */\n      pop\n      jump\t// out\n        /* \"#utility.yul\":1131:1270   */\n    tag_293:\n        /* \"#utility.yul\":1177:1182   */\n      0x00\n        /* \"#utility.yul\":1215:1221   */\n      dup2\n        /* \"#utility.yul\":1202:1222   */\n      calldataload\n        /* \"#utility.yul\":1193:1222   */\n      swap1\n      pop\n        /* \"#utility.yul\":1231:1264   */\n      tag_359\n        /* \"#utility.yul\":1258:1263   */\n      dup2\n        /* \"#utility.yul\":1231:1264   */\n      tag_292\n      jump\t// in\n    tag_359:\n        /* \"#utility.yul\":1131:1270   */\n      swap3\n      swap2\n      pop\n      pop\n      jump\t// out\n        /* \"#utility.yul\":1276:1398   */\n    tag_294:\n        /* \"#utility.yul\":1349:1373   */\n      tag_361\n        /* \"#utility.yul\":1367:1372   */\n      dup2\n        /* \"#utility.yul\":1349:1373   */\n      tag_285\n      jump\t// in\n    tag_361:\n        /* \"#utility.yul\":1342:1347   */\n      dup2\n        /* \"#utility.yul\":1339:1374   */\n      eq\n        /* \"#utility.yul\":1329:1392   */\n      tag_362\n      jumpi\n        /* \"#utility.yul\":1388:1389   */\n      0x00\n        /* \"#utility.yul\":1385:1386   */\n      dup1\n        /* \"#utility.yul\":1378:1390   */\n      revert\n        /* \"#utility.yul\":1329:1392   */\n    tag_362:\n        /* \"#utility.yul\":1276:1398   */\n      pop\n      jump\t// out\n        /* \"#utility.yul\":1404:1543   */\n    tag_295:\n        /* \"#utility.yul\":1450:1455   */\n      0x00\n        /* \"#utility.yul\":1488:1494   */\n      dup2\n        /* \"#utility.yul\":1475:1495   */\n      calldataload\n        /* \"#utility.yul\":1466:1495   */\n      swap1\n      pop\n        /* \"#utility.yul\":1504:1537   */\n      tag_364\n        /* \"#utility.yul\":1531:1536   */\n      dup2\n        /* \"#utility.yul\":1504:1537   */\n      tag_294\n      jump\t// in\n    tag_364:\n        /* \"#utility.yul\":1404:1543   */\n      swap3\n      swap2\n      pop\n      pop\n      jump\t// out\n        /* \"#utility.yul\":1549:2460   */\n    tag_35:\n        /* \"#utility.yul\":1644:1650   */\n      0x00\n        /* \"#utility.yul\":1652:1658   */\n      dup1\n        /* \"#utility.yul\":1660:1666   */\n      0x00\n        /* \"#utility.yul\":1668:1674   */\n      dup1\n        /* \"#utility.yul\":1676:1682   */\n      0x00\n        /* \"#utility.yul\":1725:1728   */\n      0xa0\n        /* \"#utility.yul\":1713:1722   */\n      dup7\n        /* \"#utility.yul\":1704:1711   */\n      dup9\n        /* \"#utility.yul\":1700:1723   */\n      sub\n        /* \"#utility.yul\":1696:1729   */\n      slt\n        /* \"#utility.yul\":1693:1813   */\n      iszero\n      tag_366\n      jumpi\n        /* \"#utility.yul\":1732:1811   */\n      tag_367\n      tag_288\n      jump\t// in\n    tag_367:\n        /* \"#utility.yul\":1693:1813   */\n    tag_366:\n        /* \"#utility.yul\":1852:1853   */\n      0x00\n        /* \"#utility.yul\":1877:1930   */\n      tag_368\n        /* \"#utility.yul\":1922:1929   */\n      dup9\n        /* \"#utility.yul\":1913:1919   */\n      dup3\n        /* \"#utility.yul\":1902:1911   */\n      dup10\n        /* \"#utility.yul\":1898:1920   */\n      add\n        /* \"#utility.yul\":1877:1930   */\n      tag_293\n      jump\t// in\n    tag_368:\n        /* \"#utility.yul\":1867:1930   */\n      swap6\n      pop\n        /* \"#utility.yul\":1823:1940   */\n      pop\n        /* \"#utility.yul\":1979:1981   */\n      0x20\n        /* \"#utility.yul\":2005:2058   */\n      tag_369\n        /* \"#utility.yul\":2050:2057   */\n      dup9\n        /* \"#utility.yul\":2041:2047   */\n      dup3\n        /* \"#utility.yul\":2030:2039   */\n      dup10\n        /* \"#utility.yul\":2026:2048   */\n      add\n        /* \"#utility.yul\":2005:2058   */\n      tag_293\n      jump\t// in\n    tag_369:\n        /* \"#utility.yul\":1995:2058   */\n      swap5\n      pop\n        /* \"#utility.yul\":1950:2068   */\n      pop\n        /* \"#utility.yul\":2107:2109   */\n      0x40\n        /* \"#utility.yul\":2133:2186   */\n      tag_370\n        /* \"#utility.yul\":2178:2185   */\n      dup9\n        /* \"#utility.yul\":2169:2175   */\n      dup3\n        /* \"#utility.yul\":2158:2167   */\n      dup10\n        /* \"#utility.yul\":2154:2176   */\n      add\n        /* \"#utility.yul\":2133:2186   */\n      tag_295\n      jump\t// in\n    tag_370:\n        /* \"#utility.yul\":2123:2186   */\n      swap4\n      pop\n        /* \"#utility.yul\":2078:2196   */\n      pop\n        /* \"#utility.yul\":2235:2237   */\n      0x60\n        /* \"#utility.yul\":2261:2314   */\n      tag_371\n        /* \"#utility.yul\":2306:2313   */\n      dup9\n        /* \"#utility.yul\":2297:2303   */\n      dup3\n        /* \"#utility.yul\":2286:2295   */\n      dup10\n        /* \"#utility.yul\":2282:2304   */\n      add\n        /* \"#utility.yul\":2261:2314   */\n      tag_295\n      jump\t// in\n    tag_371:\n        /* \"#utility.yul\":2251:2314   */\n      swap3\n      pop\n        /* \"#utility.yul\":2206:2324   */\n      pop\n        /* \"#utility.yul\":2363:2366   */\n      0x80\n        /* \"#utility.yul\":2390:2443   */\n      tag_372\n        /* \"#utility.yul\":2435:2442   */\n      dup9\n        /* \"#utility.yul\":2426:2432   */\n      dup3\n        /* \"#utility.yul\":2415:2424   */\n      dup10\n        /* \"#utility.yul\":2411:2433   */\n      add\n        /* \"#utility.yul\":2390:2443   */\n      tag_295\n      jump\t// in\n    tag_372:\n        /* \"#utility.yul\":2380:2443   */\n      swap2\n      pop\n        /* \"#utility.yul\":2334:2453   */\n      pop\n        /* \"#utility.yul\":1549:2460   */\n      swap3\n      swap6\n      pop\n      swap3\n      swap6\n      swap1\n      swap4\n      pop\n      jump\t// out\n        /* \"#utility.yul\":2466:2526   */\n    tag_296:\n        /* \"#utility.yul\":2494:2497   */\n      0x00\n        /* \"#utility.yul\":2515:2520   */\n      dup2\n        /* \"#utility.yul\":2508:2520   */\n      swap1\n      pop\n        /* \"#utility.yul\":2466:2526   */\n      swap2\n      swap1\n      pop\n      jump\t// out\n        /* \"#utility.yul\":2532:2674   */\n    tag_297:\n        /* \"#utility.yul\":2582:2591   */\n      0x00\n        /* \"#utility.yul\":2615:2668   */\n      tag_375\n        /* \"#utility.yul\":2633:2667   */\n      tag_376\n        /* \"#utility.yul\":2642:2666   */\n      tag_377\n        /* \"#utility.yul\":2660:2665   */\n      dup5\n        /* \"#utility.yul\":2642:2666   */\n      tag_290\n      jump\t// in\n    tag_377:\n        /* \"#utility.yul\":2633:2667   */\n      tag_296\n      jump\t// in\n    tag_376:\n        /* \"#utility.yul\":2615:2668   */\n      tag_290\n      jump\t// in\n    tag_375:\n        /* \"#utility.yul\":2602:2668   */\n      swap1\n      pop\n        /* \"#utility.yul\":2532:2674   */\n      swap2\n      swap1\n      pop\n      jump\t// out\n        /* \"#utility.yul\":2680:2806   */\n    tag_298:\n        /* \"#utility.yul\":2730:2739   */\n      0x00\n        /* \"#utility.yul\":2763:2800   */\n      tag_379\n        /* \"#utility.yul\":2794:2799   */\n      dup3\n        /* \"#utility.yul\":2763:2800   */\n      tag_297\n      jump\t// in\n    tag_379:\n        /* \"#utility.yul\":2750:2800   */\n      swap1\n      pop\n        /* \"#utility.yul\":2680:2806   */\n      swap2\n      swap1\n      pop\n      jump\t// out\n        /* \"#utility.yul\":2812:2952   */\n    tag_299:\n        /* \"#utility.yul\":2876:2885   */\n      0x00\n        /* \"#utility.yul\":2909:2946   */\n      tag_381\n        /* \"#utility.yul\":2940:2945   */\n      dup3\n        /* \"#utility.yul\":2909:2946   */\n      tag_298\n      jump\t// in\n    tag_381:\n        /* \"#utility.yul\":2896:2946   */\n      swap1\n      pop\n        /* \"#utility.yul\":2812:2952   */\n      swap2\n      swap1\n      pop\n      jump\t// out\n        /* \"#utility.yul\":2958:3117   */\n    tag_300:\n        /* \"#utility.yul\":3059:3110   */\n      tag_383\n        /* \"#utility.yul\":3104:3109   */\n      dup2\n        /* \"#utility.yul\":3059:3110   */\n      tag_299\n      jump\t// in\n    tag_383:\n        /* \"#utility.yul\":3054:3057   */\n      dup3\n        /* \"#utility.yul\":3047:3111   */\n      mstore\n        /* \"#utility.yul\":2958:3117   */\n      pop\n      pop\n      jump\t// out\n        /* \"#utility.yul\":3123:3373   */\n    tag_41:\n        /* \"#utility.yul\":3230:3234   */\n      0x00\n        /* \"#utility.yul\":3268:3270   */\n      0x20\n        /* \"#utility.yul\":3257:3266   */\n      dup3\n        /* \"#utility.yul\":3253:3271   */\n      add\n        /* \"#utility.yul\":3245:3271   */\n      swap1\n      pop\n        /* \"#utility.yul\":3281:3366   */\n      tag_385\n        /* \"#utility.yul\":3363:3364   */\n      0x00\n        /* \"#utility.yul\":3352:3361   */\n      dup4\n        /* \"#utility.yul\":3348:3365   */\n      add\n        /* \"#utility.yul\":3339:3345   */\n      dup5\n        /* \"#utility.yul\":3281:3366   */\n      tag_300\n      jump\t// in\n    tag_385:\n        /* \"#utility.yul\":3123:3373   */\n      swap3\n      swap2\n      pop\n      pop\n      jump\t// out\n        /* \"#utility.yul\":3379:3853   */\n    tag_44:\n        /* \"#utility.yul\":3447:3453   */\n      0x00\n        /* \"#utility.yul\":3455:3461   */\n      dup1\n        /* \"#utility.yul\":3504:3506   */\n      0x40\n        /* \"#utility.yul\":3492:3501   */\n      dup4\n        /* \"#utility.yul\":3483:3490   */\n      dup6\n        /* \"#utility.yul\":3479:3502   */\n      sub\n        /* \"#utility.yul\":3475:3507   */\n      slt\n        /* \"#utility.yul\":3472:3591   */\n      iszero\n      tag_387\n      jumpi\n        /* \"#utility.yul\":3510:3589   */\n      tag_388\n      tag_288\n      jump\t// in\n    tag_388:\n        /* \"#utility.yul\":3472:3591   */\n    tag_387:\n        /* \"#utility.yul\":3630:3631   */\n      0x00\n        /* \"#utility.yul\":3655:3708   */\n      tag_389\n        /* \"#utility.yul\":3700:3707   */\n      dup6\n        /* \"#utility.yul\":3691:3697   */\n      dup3\n        /* \"#utility.yul\":3680:3689   */\n      dup7\n        /* \"#utility.yul\":3676:3698   */\n      add\n        /* \"#utility.yul\":3655:3708   */\n      tag_295\n      jump\t// in\n    tag_389:\n        /* \"#utility.yul\":3645:3708   */\n      swap3\n      pop\n        /* \"#utility.yul\":3601:3718   */\n      pop\n        /* \"#utility.yul\":3757:3759   */\n      0x20\n        /* \"#utility.yul\":3783:3836   */\n      tag_390\n        /* \"#utility.yul\":3828:3835   */\n      dup6\n        /* \"#utility.yul\":3819:3825   */\n      dup3\n        /* \"#utility.yul\":3808:3817   */\n      dup7\n        /* \"#utility.yul\":3804:3826   */\n      add\n        /* \"#utility.yul\":3783:3836   */\n      tag_295\n      jump\t// in\n    tag_390:\n        /* \"#utility.yul\":3773:3836   */\n      swap2\n      pop\n        /* \"#utility.yul\":3728:3846   */\n      pop\n        /* \"#utility.yul\":3379:3853   */\n      swap3\n      pop\n      swap3\n      swap1\n      pop\n      jump\t// out\n        /* \"#utility.yul\":3859:3949   */\n    tag_301:\n        /* \"#utility.yul\":3893:3900   */\n      0x00\n        /* \"#utility.yul\":3936:3941   */\n      dup2\n        /* \"#utility.yul\":3929:3942   */\n      iszero\n        /* \"#utility.yul\":3922:3943   */\n      iszero\n        /* \"#utility.yul\":3911:3943   */\n      swap1\n      pop\n        /* \"#utility.yul\":3859:3949   */\n      swap2\n      swap1\n      pop\n      jump\t// out\n        /* \"#utility.yul\":3955:4064   */\n    tag_302:\n        /* \"#utility.yul\":4036:4057   */\n      tag_393\n        /* \"#utility.yul\":4051:4056   */\n      dup2\n        /* \"#utility.yul\":4036:4057   */\n      tag_301\n      jump\t// in\n    tag_393:\n        /* \"#utility.yul\":4031:4034   */\n      dup3\n        /* \"#utility.yul\":4024:4058   */\n      mstore\n        /* \"#utility.yul\":3955:4064   */\n      pop\n      pop\n      jump\t// out\n        /* \"#utility.yul\":4070:4280   */\n    tag_47:\n        /* \"#utility.yul\":4157:4161   */\n      0x00\n        /* \"#utility.yul\":4195:4197   */\n      0x20\n        /* \"#utility.yul\":4184:4193   */\n      dup3\n        /* \"#utility.yul\":4180:4198   */\n      add\n        /* \"#utility.yul\":4172:4198   */\n      swap1\n      pop\n        /* \"#utility.yul\":4208:4273   */\n      tag_395\n        /* \"#utility.yul\":4270:4271   */\n      0x00\n        /* \"#utility.yul\":4259:4268   */\n      dup4\n        /* \"#utility.yul\":4255:4272   */\n      add\n        /* \"#utility.yul\":4246:4252   */\n      dup5\n        /* \"#utility.yul\":4208:4273   */\n      tag_302\n      jump\t// in\n    tag_395:\n        /* \"#utility.yul\":4070:4280   */\n      swap3\n      swap2\n      pop\n      pop\n      jump\t// out\n        /* \"#utility.yul\":4286:4615   */\n    tag_50:\n        /* \"#utility.yul\":4345:4351   */\n      0x00\n        /* \"#utility.yul\":4394:4396   */\n      0x20\n        /* \"#utility.yul\":4382:4391   */\n      dup3\n        /* \"#utility.yul\":4373:4380   */\n      dup5\n        /* \"#utility.yul\":4369:4392   */\n      sub\n        /* \"#utility.yul\":4365:4397   */\n      slt\n        /* \"#utility.yul\":4362:4481   */\n      iszero\n      tag_397\n      jumpi\n        /* \"#utility.yul\":4400:4479   */\n      tag_398\n      tag_288\n      jump\t// in\n    tag_398:\n        /* \"#utility.yul\":4362:4481   */\n    tag_397:\n        /* \"#utility.yul\":4520:4521   */\n      0x00\n        /* \"#utility.yul\":4545:4598   */\n      tag_399\n        /* \"#utility.yul\":4590:4597   */\n      dup5\n        /* \"#utility.yul\":4581:4587   */\n      dup3\n        /* \"#utility.yul\":4570:4579   */\n      dup6\n        /* \"#utility.yul\":4566:4588   */\n      add\n        /* \"#utility.yul\":4545:4598   */\n      tag_293\n      jump\t// in\n    tag_399:\n        /* \"#utility.yul\":4535:4598   */\n      swap2\n      pop\n        /* \"#utility.yul\":4491:4608   */\n      pop\n        /* \"#utility.yul\":4286:4615   */\n      swap3\n      swap2\n      pop\n      pop\n      jump\t// out\n        /* \"#utility.yul\":4621:4950   */\n    tag_57:\n        /* \"#utility.yul\":4680:4686   */\n      0x00\n        /* \"#utility.yul\":4729:4731   */\n      0x20\n        /* \"#utility.yul\":4717:4726   */\n      dup3\n        /* \"#utility.yul\":4708:4715   */\n      dup5\n        /* \"#utility.yul\":4704:4727   */\n      sub\n        /* \"#utility.yul\":4700:4732   */\n      slt\n        /* \"#utility.yul\":4697:4816   */\n      iszero\n      tag_401\n      jumpi\n        /* \"#utility.yul\":4735:4814   */\n      tag_402\n      tag_288\n      jump\t// in\n    tag_402:\n        /* \"#utility.yul\":4697:4816   */\n    tag_401:\n        /* \"#utility.yul\":4855:4856   */\n      0x00\n        /* \"#utility.yul\":4880:4933   */\n      tag_403\n        /* \"#utility.yul\":4925:4932   */\n      dup5\n        /* \"#utility.yul\":4916:4922   */\n      dup3\n        /* \"#utility.yul\":4905:4914   */\n      dup6\n        /* \"#utility.yul\":4901:4923   */\n      add\n        /* \"#utility.yul\":4880:4933   */\n      tag_295\n      jump\t// in\n    tag_403:\n        /* \"#utility.yul\":4870:4933   */\n      swap2\n      pop\n        /* \"#utility.yul\":4826:4943   */\n      pop\n        /* \"#utility.yul\":4621:4950   */\n      swap3\n      swap2\n      pop\n      pop\n      jump\t// out\n        /* \"#utility.yul\":4956:5074   */\n    tag_303:\n        /* \"#utility.yul\":5043:5067   */\n      tag_405\n        /* \"#utility.yul\":5061:5066   */\n      dup2\n        /* \"#utility.yul\":5043:5067   */\n      tag_291\n      jump\t// in\n    tag_405:\n        /* \"#utility.yul\":5038:5041   */\n      dup3\n        /* \"#utility.yul\":5031:5068   */\n      mstore\n        /* \"#utility.yul\":4956:5074   */\n      pop\n      pop\n      jump\t// out\n        /* \"#utility.yul\":5080:6376   */\n    tag_63:\n        /* \"#utility.yul\":5436:5440   */\n      0x00\n        /* \"#utility.yul\":5474:5477   */\n      0x0160\n        /* \"#utility.yul\":5463:5472   */\n      dup3\n        /* \"#utility.yul\":5459:5478   */\n      add\n        /* \"#utility.yul\":5451:5478   */\n      swap1\n      pop\n        /* \"#utility.yul\":5488:5559   */\n      tag_407\n        /* \"#utility.yul\":5556:5557   */\n      0x00\n        /* \"#utility.yul\":5545:5554   */\n      dup4\n        /* \"#utility.yul\":5541:5558   */\n      add\n        /* \"#utility.yul\":5532:5538   */\n      dup15\n        /* \"#utility.yul\":5488:5559   */\n      tag_303\n      jump\t// in\n    tag_407:\n        /* \"#utility.yul\":5569:5641   */\n      tag_408\n        /* \"#utility.yul\":5637:5639   */\n      0x20\n        /* \"#utility.yul\":5626:5635   */\n      dup4\n        /* \"#utility.yul\":5622:5640   */\n      add\n        /* \"#utility.yul\":5613:5619   */\n      dup14\n        /* \"#utility.yul\":5569:5641   */\n      tag_303\n      jump\t// in\n    tag_408:\n        /* \"#utility.yul\":5651:5723   */\n      tag_409\n        /* \"#utility.yul\":5719:5721   */\n      0x40\n        /* \"#utility.yul\":5708:5717   */\n      dup4\n        /* \"#utility.yul\":5704:5722   */\n      add\n        /* \"#utility.yul\":5695:5701   */\n      dup13\n        /* \"#utility.yul\":5651:5723   */\n      tag_286\n      jump\t// in\n    tag_409:\n        /* \"#utility.yul\":5733:5805   */\n      tag_410\n        /* \"#utility.yul\":5801:5803   */\n      0x60\n        /* \"#utility.yul\":5790:5799   */\n      dup4\n        /* \"#utility.yul\":5786:5804   */\n      add\n        /* \"#utility.yul\":5777:5783   */\n      dup12\n        /* \"#utility.yul\":5733:5805   */\n      tag_286\n      jump\t// in\n    tag_410:\n        /* \"#utility.yul\":5815:5888   */\n      tag_411\n        /* \"#utility.yul\":5883:5886   */\n      0x80\n        /* \"#utility.yul\":5872:5881   */\n      dup4\n        /* \"#utility.yul\":5868:5887   */\n      add\n        /* \"#utility.yul\":5859:5865   */\n      dup11\n        /* \"#utility.yul\":5815:5888   */\n      tag_286\n      jump\t// in\n    tag_411:\n        /* \"#utility.yul\":5898:5971   */\n      tag_412\n        /* \"#utility.yul\":5966:5969   */\n      0xa0\n        /* \"#utility.yul\":5955:5964   */\n      dup4\n        /* \"#utility.yul\":5951:5970   */\n      add\n        /* \"#utility.yul\":5942:5948   */\n      dup10\n        /* \"#utility.yul\":5898:5971   */\n      tag_286\n      jump\t// in\n    tag_412:\n        /* \"#utility.yul\":5981:6054   */\n      tag_413\n        /* \"#utility.yul\":6049:6052   */\n      0xc0\n        /* \"#utility.yul\":6038:6047   */\n      dup4\n        /* \"#utility.yul\":6034:6053   */\n      add\n        /* \"#utility.yul\":6025:6031   */\n      dup9\n        /* \"#utility.yul\":5981:6054   */\n      tag_286\n      jump\t// in\n    tag_413:\n        /* \"#utility.yul\":6064:6137   */\n      tag_414\n        /* \"#utility.yul\":6132:6135   */\n      0xe0\n        /* \"#utility.yul\":6121:6130   */\n      dup4\n        /* \"#utility.yul\":6117:6136   */\n      add\n        /* \"#utility.yul\":6108:6114   */\n      dup8\n        /* \"#utility.yul\":6064:6137   */\n      tag_286\n      jump\t// in\n    tag_414:\n        /* \"#utility.yul\":6147:6214   */\n      tag_415\n        /* \"#utility.yul\":6209:6212   */\n      0x0100\n        /* \"#utility.yul\":6198:6207   */\n      dup4\n        /* \"#utility.yul\":6194:6213   */\n      add\n        /* \"#utility.yul\":6185:6191   */\n      dup7\n        /* \"#utility.yul\":6147:6214   */\n      tag_302\n      jump\t// in\n    tag_415:\n        /* \"#utility.yul\":6224:6291   */\n      tag_416\n        /* \"#utility.yul\":6286:6289   */\n      0x0120\n        /* \"#utility.yul\":6275:6284   */\n      dup4\n        /* \"#utility.yul\":6271:6290   */\n      add\n        /* \"#utility.yul\":6262:6268   */\n      dup6\n        /* \"#utility.yul\":6224:6291   */\n      tag_302\n      jump\t// in\n    tag_416:\n        /* \"#utility.yul\":6301:6369   */\n      tag_417\n        /* \"#utility.yul\":6364:6367   */\n      0x0140\n        /* \"#utility.yul\":6353:6362   */\n      dup4\n        /* \"#utility.yul\":6349:6368   */\n      add\n        /* \"#utility.yul\":6339:6346   */\n      dup5\n        /* \"#utility.yul\":6301:6369   */\n      tag_302\n      jump\t// in\n    tag_417:\n        /* \"#utility.yul\":5080:6376   */\n      swap13\n      swap12\n      pop\n      pop\n      pop\n      pop\n      pop\n      pop\n      pop\n      pop\n      pop\n      pop\n      pop\n      pop\n      jump\t// out\n        /* \"#utility.yul\":6382:6856   */\n    tag_66:\n        /* \"#utility.yul\":6450:6456   */\n      0x00\n        /* \"#utility.yul\":6458:6464   */\n      dup1\n        /* \"#utility.yul\":6507:6509   */\n      0x40\n        /* \"#utility.yul\":6495:6504   */\n      dup4\n        /* \"#utility.yul\":6486:6493   */\n      dup6\n        /* \"#utility.yul\":6482:6505   */\n      sub\n        /* \"#utility.yul\":6478:6510   */\n      slt\n        /* \"#utility.yul\":6475:6594   */\n      iszero\n      tag_419\n      jumpi\n        /* \"#utility.yul\":6513:6592   */\n      tag_420\n      tag_288\n      jump\t// in\n    tag_420:\n        /* \"#utility.yul\":6475:6594   */\n    tag_419:\n        /* \"#utility.yul\":6633:6634   */\n      0x00\n        /* \"#utility.yul\":6658:6711   */\n      tag_421\n        /* \"#utility.yul\":6703:6710   */\n      dup6\n        /* \"#utility.yul\":6694:6700   */\n      dup3\n        /* \"#utility.yul\":6683:6692   */\n      dup7\n        /* \"#utility.yul\":6679:6701   */\n      add\n        /* \"#utility.yul\":6658:6711   */\n      tag_295\n      jump\t// in\n    tag_421:\n        /* \"#utility.yul\":6648:6711   */\n      swap3\n      pop\n        /* \"#utility.yul\":6604:6721   */\n      pop\n        /* \"#utility.yul\":6760:6762   */\n      0x20\n        /* \"#utility.yul\":6786:6839   */\n      tag_422\n        /* \"#utility.yul\":6831:6838   */\n      dup6\n        /* \"#utility.yul\":6822:6828   */\n      dup3\n        /* \"#utility.yul\":6811:6820   */\n      dup7\n        /* \"#utility.yul\":6807:6829   */\n      add\n        /* \"#utility.yul\":6786:6839   */\n      tag_293\n      jump\t// in\n    tag_422:\n        /* \"#utility.yul\":6776:6839   */\n      swap2\n      pop\n        /* \"#utility.yul\":6731:6849   */\n      pop\n        /* \"#utility.yul\":6382:6856   */\n      swap3\n      pop\n      swap3\n      swap1\n      pop\n      jump\t// out\n        /* \"#utility.yul\":6862:7194   */\n    tag_83:\n        /* \"#utility.yul\":6983:6987   */\n      0x00\n        /* \"#utility.yul\":7021:7023   */\n      0x40\n        /* \"#utility.yul\":7010:7019   */\n      dup3\n        /* \"#utility.yul\":7006:7024   */\n      add\n        /* \"#utility.yul\":6998:7024   */\n      swap1\n      pop\n        /* \"#utility.yul\":7034:7105   */\n      tag_424\n        /* \"#utility.yul\":7102:7103   */\n      0x00\n        /* \"#utility.yul\":7091:7100   */\n      dup4\n        /* \"#utility.yul\":7087:7104   */\n      add\n        /* \"#utility.yul\":7078:7084   */\n      dup6\n        /* \"#utility.yul\":7034:7105   */\n      tag_286\n      jump\t// in\n    tag_424:\n        /* \"#utility.yul\":7115:7187   */\n      tag_425\n        /* \"#utility.yul\":7183:7185   */\n      0x20\n        /* \"#utility.yul\":7172:7181   */\n      dup4\n        /* \"#utility.yul\":7168:7186   */\n      add\n        /* \"#utility.yul\":7159:7165   */\n      dup5\n        /* \"#utility.yul\":7115:7187   */\n      tag_286\n      jump\t// in\n    tag_425:\n        /* \"#utility.yul\":6862:7194   */\n      swap4\n      swap3\n      pop\n      pop\n      pop\n      jump\t// out\n        /* \"#utility.yul\":7200:7422   */\n    tag_87:\n        /* \"#utility.yul\":7293:7297   */\n      0x00\n        /* \"#utility.yul\":7331:7333   */\n      0x20\n        /* \"#utility.yul\":7320:7329   */\n      dup3\n        /* \"#utility.yul\":7316:7334   */\n      add\n        /* \"#utility.yul\":7308:7334   */\n      swap1\n      pop\n        /* \"#utility.yul\":7344:7415   */\n      tag_427\n        /* \"#utility.yul\":7412:7413   */\n      0x00\n        /* \"#utility.yul\":7401:7410   */\n      dup4\n        /* \"#utility.yul\":7397:7414   */\n      add\n        /* \"#utility.yul\":7388:7394   */\n      dup5\n        /* \"#utility.yul\":7344:7415   */\n      tag_303\n      jump\t// in\n    tag_427:\n        /* \"#utility.yul\":7200:7422   */\n      swap3\n      swap2\n      pop\n      pop\n      jump\t// out\n        /* \"#utility.yul\":7428:7544   */\n    tag_304:\n        /* \"#utility.yul\":7498:7519   */\n      tag_429\n        /* \"#utility.yul\":7513:7518   */\n      dup2\n        /* \"#utility.yul\":7498:7519   */\n      tag_301\n      jump\t// in\n    tag_429:\n        /* \"#utility.yul\":7491:7496   */\n      dup2\n        /* \"#utility.yul\":7488:7520   */\n      eq\n        /* \"#utility.yul\":7478:7538   */\n      tag_430\n      jumpi\n        /* \"#utility.yul\":7534:7535   */\n      0x00\n        /* \"#utility.yul\":7531:7532   */\n      dup1\n        /* \"#utility.yul\":7524:7536   */\n      revert\n        /* \"#utility.yul\":7478:7538   */\n    tag_430:\n        /* \"#utility.yul\":7428:7544   */\n      pop\n      jump\t// out\n        /* \"#utility.yul\":7550:7683   */\n    tag_305:\n        /* \"#utility.yul\":7593:7598   */\n      0x00\n        /* \"#utility.yul\":7631:7637   */\n      dup2\n        /* \"#utility.yul\":7618:7638   */\n      calldataload\n        /* \"#utility.yul\":7609:7638   */\n      swap1\n      pop\n        /* \"#utility.yul\":7647:7677   */\n      tag_432\n        /* \"#utility.yul\":7671:7676   */\n      dup2\n        /* \"#utility.yul\":7647:7677   */\n      tag_304\n      jump\t// in\n    tag_432:\n        /* \"#utility.yul\":7550:7683   */\n      swap3\n      swap2\n      pop\n      pop\n      jump\t// out\n        /* \"#utility.yul\":7689:8302   */\n    tag_102:\n        /* \"#utility.yul\":7763:7769   */\n      0x00\n        /* \"#utility.yul\":7771:7777   */\n      dup1\n        /* \"#utility.yul\":7779:7785   */\n      0x00\n        /* \"#utility.yul\":7828:7830   */\n      0x60\n        /* \"#utility.yul\":7816:7825   */\n      dup5\n        /* \"#utility.yul\":7807:7814   */\n      dup7\n        /* \"#utility.yul\":7803:7826   */\n      sub\n        /* \"#utility.yul\":7799:7831   */\n      slt\n        /* \"#utility.yul\":7796:7915   */\n      iszero\n      tag_434\n      jumpi\n        /* \"#utility.yul\":7834:7913   */\n      tag_435\n      tag_288\n      jump\t// in\n    tag_435:\n        /* \"#utility.yul\":7796:7915   */\n    tag_434:\n        /* \"#utility.yul\":7954:7955   */\n      0x00\n        /* \"#utility.yul\":7979:8032   */\n      tag_436\n        /* \"#utility.yul\":8024:8031   */\n      dup7\n        /* \"#utility.yul\":8015:8021   */\n      dup3\n        /* \"#utility.yul\":8004:8013   */\n      dup8\n        /* \"#utility.yul\":8000:8022   */\n      add\n        /* \"#utility.yul\":7979:8032   */\n      tag_295\n      jump\t// in\n    tag_436:\n        /* \"#utility.yul\":7969:8032   */\n      swap4\n      pop\n        /* \"#utility.yul\":7925:8042   */\n      pop\n        /* \"#utility.yul\":8081:8083   */\n      0x20\n        /* \"#utility.yul\":8107:8157   */\n      tag_437\n        /* \"#utility.yul\":8149:8156   */\n      dup7\n        /* \"#utility.yul\":8140:8146   */\n      dup3\n        /* \"#utility.yul\":8129:8138   */\n      dup8\n        /* \"#utility.yul\":8125:8147   */\n      add\n        /* \"#utility.yul\":8107:8157   */\n      tag_305\n      jump\t// in\n    tag_437:\n        /* \"#utility.yul\":8097:8157   */\n      swap3\n      pop\n        /* \"#utility.yul\":8052:8167   */\n      pop\n        /* \"#utility.yul\":8206:8208   */\n      0x40\n        /* \"#utility.yul\":8232:8285   */\n      tag_438\n        /* \"#utility.yul\":8277:8284   */\n      dup7\n        /* \"#utility.yul\":8268:8274   */\n      dup3\n        /* \"#utility.yul\":8257:8266   */\n      dup8\n        /* \"#utility.yul\":8253:8275   */\n      add\n        /* \"#utility.yul\":8232:8285   */\n      tag_295\n      jump\t// in\n    tag_438:\n        /* \"#utility.yul\":8222:8285   */\n      swap2\n      pop\n        /* \"#utility.yul\":8177:8295   */\n      pop\n        /* \"#utility.yul\":7689:8302   */\n      swap3\n      pop\n      swap3\n      pop\n      swap3\n      jump\t// out\n        /* \"#utility.yul\":8308:8385   */\n    tag_306:\n        /* \"#utility.yul\":8345:8352   */\n      0x00\n        /* \"#utility.yul\":8374:8379   */\n      dup2\n        /* \"#utility.yul\":8363:8379   */\n      swap1\n      pop\n        /* \"#utility.yul\":8308:8385   */\n      swap2\n      swap1\n      pop\n      jump\t// out\n        /* \"#utility.yul\":8391:8513   */\n    tag_307:\n        /* \"#utility.yul\":8464:8488   */\n      tag_441\n        /* \"#utility.yul\":8482:8487   */\n      dup2\n        /* \"#utility.yul\":8464:8488   */\n      tag_306\n      jump\t// in\n    tag_441:\n        /* \"#utility.yul\":8457:8462   */\n      dup2\n        /* \"#utility.yul\":8454:8489   */\n      eq\n        /* \"#utility.yul\":8444:8507   */\n      tag_442\n      jumpi\n        /* \"#utility.yul\":8503:8504   */\n      0x00\n        /* \"#utility.yul\":8500:8501   */\n      dup1\n        /* \"#utility.yul\":8493:8505   */\n      revert\n        /* \"#utility.yul\":8444:8507   */\n    tag_442:\n        /* \"#utility.yul\":8391:8513   */\n      pop\n      jump\t// out\n        /* \"#utility.yul\":8519:8658   */\n    tag_308:\n        /* \"#utility.yul\":8565:8570   */\n      0x00\n        /* \"#utility.yul\":8603:8609   */\n      dup2\n        /* \"#utility.yul\":8590:8610   */\n      calldataload\n        /* \"#utility.yul\":8581:8610   */\n      swap1\n      pop\n        /* \"#utility.yul\":8619:8652   */\n      tag_444\n        /* \"#utility.yul\":8646:8651   */\n      dup2\n        /* \"#utility.yul\":8619:8652   */\n      tag_307\n      jump\t// in\n    tag_444:\n        /* \"#utility.yul\":8519:8658   */\n      swap3\n      swap2\n      pop\n      pop\n      jump\t// out\n        /* \"#utility.yul\":8664:8993   */\n    tag_116:\n        /* \"#utility.yul\":8723:8729   */\n      0x00\n        /* \"#utility.yul\":8772:8774   */\n      0x20\n        /* \"#utility.yul\":8760:8769   */\n      dup3\n        /* \"#utility.yul\":8751:8758   */\n      dup5\n        /* \"#utility.yul\":8747:8770   */\n      sub\n        /* \"#utility.yul\":8743:8775   */\n      slt\n        /* \"#utility.yul\":8740:8859   */\n      iszero\n      tag_446\n      jumpi\n        /* \"#utility.yul\":8778:8857   */\n      tag_447\n      tag_288\n      jump\t// in\n    tag_447:\n        /* \"#utility.yul\":8740:8859   */\n    tag_446:\n        /* \"#utility.yul\":8898:8899   */\n      0x00\n        /* \"#utility.yul\":8923:8976   */\n      tag_448\n        /* \"#utility.yul\":8968:8975   */\n      dup5\n        /* \"#utility.yul\":8959:8965   */\n      dup3\n        /* \"#utility.yul\":8948:8957   */\n      dup6\n        /* \"#utility.yul\":8944:8966   */\n      add\n        /* \"#utility.yul\":8923:8976   */\n      tag_308\n      jump\t// in\n    tag_448:\n        /* \"#utility.yul\":8913:8976   */\n      swap2\n      pop\n        /* \"#utility.yul\":8869:8986   */\n      pop\n        /* \"#utility.yul\":8664:8993   */\n      swap3\n      swap2\n      pop\n      pop\n      jump\t// out\n        /* \"#utility.yul\":8999:9168   */\n    tag_309:\n        /* \"#utility.yul\":9083:9094   */\n      0x00\n        /* \"#utility.yul\":9117:9123   */\n      dup3\n        /* \"#utility.yul\":9112:9115   */\n      dup3\n        /* \"#utility.yul\":9105:9124   */\n      mstore\n        /* \"#utility.yul\":9157:9161   */\n      0x20\n        /* \"#utility.yul\":9152:9155   */\n      dup3\n        /* \"#utility.yul\":9148:9162   */\n      add\n        /* \"#utility.yul\":9133:9162   */\n      swap1\n      pop\n        /* \"#utility.yul\":8999:9168   */\n      swap3\n      swap2\n      pop\n      pop\n      jump\t// out\n        /* \"#utility.yul\":9174:9355   */\n    tag_310:\n        /* \"#utility.yul\":9314:9347   */\n      0x43616c6c6572206973206e6f7420746865206d61696e20636f6e747261637400\n        /* \"#utility.yul\":9310:9311   */\n      0x00\n        /* \"#utility.yul\":9302:9308   */\n      dup3\n        /* \"#utility.yul\":9298:9312   */\n      add\n        /* \"#utility.yul\":9291:9348   */\n      mstore\n        /* \"#utility.yul\":9174:9355   */\n      pop\n      jump\t// out\n        /* \"#utility.yul\":9361:9727   */\n    tag_311:\n        /* \"#utility.yul\":9503:9506   */\n      0x00\n        /* \"#utility.yul\":9524:9591   */\n      tag_452\n        /* \"#utility.yul\":9588:9590   */\n      0x1f\n        /* \"#utility.yul\":9583:9586   */\n      dup4\n        /* \"#utility.yul\":9524:9591   */\n      tag_309\n      jump\t// in\n    tag_452:\n        /* \"#utility.yul\":9517:9591   */\n      swap2\n      pop\n        /* \"#utility.yul\":9600:9693   */\n      tag_453\n        /* \"#utility.yul\":9689:9692   */\n      dup3\n        /* \"#utility.yul\":9600:9693   */\n      tag_310\n      jump\t// in\n    tag_453:\n        /* \"#utility.yul\":9718:9720   */\n      0x20\n        /* \"#utility.yul\":9713:9716   */\n      dup3\n        /* \"#utility.yul\":9709:9721   */\n      add\n        /* \"#utility.yul\":9702:9721   */\n      swap1\n      pop\n        /* \"#utility.yul\":9361:9727   */\n      swap2\n      swap1\n      pop\n      jump\t// out\n        /* \"#utility.yul\":9733:10152   */\n    tag_122:\n        /* \"#utility.yul\":9899:9903   */\n      0x00\n        /* \"#utility.yul\":9937:9939   */\n      0x20\n        /* \"#utility.yul\":9926:9935   */\n      dup3\n        /* \"#utility.yul\":9922:9940   */\n      add\n        /* \"#utility.yul\":9914:9940   */\n      swap1\n      pop\n        /* \"#utility.yul\":9986:9995   */\n      dup2\n        /* \"#utility.yul\":9980:9984   */\n      dup2\n        /* \"#utility.yul\":9976:9996   */\n      sub\n        /* \"#utility.yul\":9972:9973   */\n      0x00\n        /* \"#utility.yul\":9961:9970   */\n      dup4\n        /* \"#utility.yul\":9957:9974   */\n      add\n        /* \"#utility.yul\":9950:9997   */\n      mstore\n        /* \"#utility.yul\":10014:10145   */\n      tag_455\n        /* \"#utility.yul\":10140:10144   */\n      dup2\n        /* \"#utility.yul\":10014:10145   */\n      tag_311\n      jump\t// in\n    tag_455:\n        /* \"#utility.yul\":10006:10145   */\n      swap1\n      pop\n        /* \"#utility.yul\":9733:10152   */\n      swap2\n      swap1\n      pop\n      jump\t// out\n        /* \"#utility.yul\":10158:10450   */\n    tag_312:\n        /* \"#utility.yul\":10298:10332   */\n      0x43616e6e6f74206372656174652061206e6577206469737075746520666f7220\n        /* \"#utility.yul\":10294:10295   */\n      0x00\n        /* \"#utility.yul\":10286:10292   */\n      dup3\n        /* \"#utility.yul\":10282:10296   */\n      add\n        /* \"#utility.yul\":10275:10333   */\n      mstore\n        /* \"#utility.yul\":10367:10401   */\n      0x74686520676976656e2070726f706f73616c20616e6420627579657220726571\n        /* \"#utility.yul\":10362:10364   */\n      0x20\n        /* \"#utility.yul\":10354:10360   */\n      dup3\n        /* \"#utility.yul\":10350:10365   */\n      add\n        /* \"#utility.yul\":10343:10402   */\n      mstore\n        /* \"#utility.yul\":10436:10442   */\n      0x7565737400000000000000000000000000000000000000000000000000000000\n        /* \"#utility.yul\":10431:10433   */\n      0x40\n        /* \"#utility.yul\":10423:10429   */\n      dup3\n        /* \"#utility.yul\":10419:10434   */\n      add\n        /* \"#utility.yul\":10412:10443   */\n      mstore\n        /* \"#utility.yul\":10158:10450   */\n      pop\n      jump\t// out\n        /* \"#utility.yul\":10456:10822   */\n    tag_313:\n        /* \"#utility.yul\":10598:10601   */\n      0x00\n        /* \"#utility.yul\":10619:10686   */\n      tag_458\n        /* \"#utility.yul\":10683:10685   */\n      0x44\n        /* \"#utility.yul\":10678:10681   */\n      dup4\n        /* \"#utility.yul\":10619:10686   */\n      tag_309\n      jump\t// in\n    tag_458:\n        /* \"#utility.yul\":10612:10686   */\n      swap2\n      pop\n        /* \"#utility.yul\":10695:10788   */\n      tag_459\n        /* \"#utility.yul\":10784:10787   */\n      dup3\n        /* \"#utility.yul\":10695:10788   */\n      tag_312\n      jump\t// in\n    tag_459:\n        /* \"#utility.yul\":10813:10815   */\n      0x60\n        /* \"#utility.yul\":10808:10811   */\n      dup3\n        /* \"#utility.yul\":10804:10816   */\n      add\n        /* \"#utility.yul\":10797:10816   */\n      swap1\n      pop\n        /* \"#utility.yul\":10456:10822   */\n      swap2\n      swap1\n      pop\n      jump\t// out\n        /* \"#utility.yul\":10828:11247   */\n    tag_127:\n        /* \"#utility.yul\":10994:10998   */\n      0x00\n        /* \"#utility.yul\":11032:11034   */\n      0x20\n        /* \"#utility.yul\":11021:11030   */\n      dup3\n        /* \"#utility.yul\":11017:11035   */\n      add\n        /* \"#utility.yul\":11009:11035   */\n      swap1\n      pop\n        /* \"#utility.yul\":11081:11090   */\n      dup2\n        /* \"#utility.yul\":11075:11079   */\n      dup2\n        /* \"#utility.yul\":11071:11091   */\n      sub\n        /* \"#utility.yul\":11067:11068   */\n      0x00\n        /* \"#utility.yul\":11056:11065   */\n      dup4\n        /* \"#utility.yul\":11052:11069   */\n      add\n        /* \"#utility.yul\":11045:11092   */\n      mstore\n        /* \"#utility.yul\":11109:11240   */\n      tag_461\n        /* \"#utility.yul\":11235:11239   */\n      dup2\n        /* \"#utility.yul\":11109:11240   */\n      tag_313\n      jump\t// in\n    tag_461:\n        /* \"#utility.yul\":11101:11240   */\n      swap1\n      pop\n        /* \"#utility.yul\":10828:11247   */\n      swap2\n      swap1\n      pop\n      jump\t// out\n        /* \"#utility.yul\":11253:11433   */\n    tag_314:\n        /* \"#utility.yul\":11301:11378   */\n      0x4e487b7100000000000000000000000000000000000000000000000000000000\n        /* \"#utility.yul\":11298:11299   */\n      0x00\n        /* \"#utility.yul\":11291:11379   */\n      mstore\n        /* \"#utility.yul\":11398:11402   */\n      0x11\n        /* \"#utility.yul\":11395:11396   */\n      0x04\n        /* \"#utility.yul\":11388:11403   */\n      mstore\n        /* \"#utility.yul\":11422:11426   */\n      0x24\n        /* \"#utility.yul\":11419:11420   */\n      0x00\n        /* \"#utility.yul\":11412:11427   */\n      revert\n        /* \"#utility.yul\":11439:11672   */\n    tag_129:\n        /* \"#utility.yul\":11478:11481   */\n      0x00\n        /* \"#utility.yul\":11501:11525   */\n      tag_464\n        /* \"#utility.yul\":11519:11524   */\n      dup3\n        /* \"#utility.yul\":11501:11525   */\n      tag_285\n      jump\t// in\n    tag_464:\n        /* \"#utility.yul\":11492:11525   */\n      swap2\n      pop\n        /* \"#utility.yul\":11547:11613   */\n      0xffffffffffffffffffffffffffffffffffffffffffffffffffffffffffffffff\n        /* \"#utility.yul\":11540:11545   */\n      dup3\n        /* \"#utility.yul\":11537:11614   */\n      sub\n        /* \"#utility.yul\":11534:11637   */\n      tag_465\n      jumpi\n        /* \"#utility.yul\":11617:11635   */\n      tag_466\n      tag_314\n      jump\t// in\n    tag_466:\n        /* \"#utility.yul\":11534:11637   */\n    tag_465:\n        /* \"#utility.yul\":11664:11665   */\n      0x01\n        /* \"#utility.yul\":11657:11662   */\n      dup3\n        /* \"#utility.yul\":11653:11666   */\n      add\n        /* \"#utility.yul\":11646:11666   */\n      swap1\n      pop\n        /* \"#utility.yul\":11439:11672   */\n      swap2\n      swap1\n      pop\n      jump\t// out\n        /* \"#utility.yul\":11678:11869   */\n    tag_131:\n        /* \"#utility.yul\":11718:11721   */\n      0x00\n        /* \"#utility.yul\":11737:11757   */\n      tag_468\n        /* \"#utility.yul\":11755:11756   */\n      dup3\n        /* \"#utility.yul\":11737:11757   */\n      tag_285\n      jump\t// in\n    tag_468:\n        /* \"#utility.yul\":11732:11757   */\n      swap2\n      pop\n        /* \"#utility.yul\":11771:11791   */\n      tag_469\n        /* \"#utility.yul\":11789:11790   */\n      dup4\n        /* \"#utility.yul\":11771:11791   */\n      tag_285\n      jump\t// in\n    tag_469:\n        /* \"#utility.yul\":11766:11791   */\n      swap3\n      pop\n        /* \"#utility.yul\":11814:11815   */\n      dup3\n        /* \"#utility.yul\":11811:11812   */\n      dup3\n        /* \"#utility.yul\":11807:11816   */\n      add\n        /* \"#utility.yul\":11800:11816   */\n      swap1\n      pop\n        /* \"#utility.yul\":11835:11838   */\n      dup1\n        /* \"#utility.yul\":11832:11833   */\n      dup3\n        /* \"#utility.yul\":11829:11839   */\n      gt\n        /* \"#utility.yul\":11826:11862   */\n      iszero\n      tag_470\n      jumpi\n        /* \"#utility.yul\":11842:11860   */\n      tag_471\n      tag_314\n      jump\t// in\n    tag_471:\n        /* \"#utility.yul\":11826:11862   */\n    tag_470:\n        /* \"#utility.yul\":11678:11869   */\n      swap3\n      swap2\n      pop\n      pop\n      jump\t// out\n        /* \"#utility.yul\":11875:12207   */\n    tag_135:\n        /* \"#utility.yul\":11996:12000   */\n      0x00\n        /* \"#utility.yul\":12034:12036   */\n      0x40\n        /* \"#utility.yul\":12023:12032   */\n      dup3\n        /* \"#utility.yul\":12019:12037   */\n      add\n        /* \"#utility.yul\":12011:12037   */\n      swap1\n      pop\n        /* \"#utility.yul\":12047:12118   */\n      tag_473\n        /* \"#utility.yul\":12115:12116   */\n      0x00\n        /* \"#utility.yul\":12104:12113   */\n      dup4\n        /* \"#utility.yul\":12100:12117   */\n      add\n        /* \"#utility.yul\":12091:12097   */\n      dup6\n        /* \"#utility.yul\":12047:12118   */\n      tag_303\n      jump\t// in\n    tag_473:\n        /* \"#utility.yul\":12128:12200   */\n      tag_474\n        /* \"#utility.yul\":12196:12198   */\n      0x20\n        /* \"#utility.yul\":12185:12194   */\n      dup4\n        /* \"#utility.yul\":12181:12199   */\n      add\n        /* \"#utility.yul\":12172:12178   */\n      dup5\n        /* \"#utility.yul\":12128:12200   */\n      tag_303\n      jump\t// in\n    tag_474:\n        /* \"#utility.yul\":11875:12207   */\n      swap4\n      swap3\n      pop\n      pop\n      pop\n      jump\t// out\n        /* \"#utility.yul\":12213:12381   */\n    tag_315:\n        /* \"#utility.yul\":12353:12373   */\n      0x496e76616c696420646973707574652049440000000000000000000000000000\n        /* \"#utility.yul\":12349:12350   */\n      0x00\n        /* \"#utility.yul\":12341:12347   */\n      dup3\n        /* \"#utility.yul\":12337:12351   */\n      add\n        /* \"#utility.yul\":12330:12374   */\n      mstore\n        /* \"#utility.yul\":12213:12381   */\n      pop\n      jump\t// out\n        /* \"#utility.yul\":12387:12753   */\n    tag_316:\n        /* \"#utility.yul\":12529:12532   */\n      0x00\n        /* \"#utility.yul\":12550:12617   */\n      tag_477\n        /* \"#utility.yul\":12614:12616   */\n      0x12\n        /* \"#utility.yul\":12609:12612   */\n      dup4\n        /* \"#utility.yul\":12550:12617   */\n      tag_309\n      jump\t// in\n    tag_477:\n        /* \"#utility.yul\":12543:12617   */\n      swap2\n      pop\n        /* \"#utility.yul\":12626:12719   */\n      tag_478\n        /* \"#utility.yul\":12715:12718   */\n      dup3\n        /* \"#utility.yul\":12626:12719   */\n      tag_315\n      jump\t// in\n    tag_478:\n        /* \"#utility.yul\":12744:12746   */\n      0x20\n        /* \"#utility.yul\":12739:12742   */\n      dup3\n        /* \"#utility.yul\":12735:12747   */\n      add\n        /* \"#utility.yul\":12728:12747   */\n      swap1\n      pop\n        /* \"#utility.yul\":12387:12753   */\n      swap2\n      swap1\n      pop\n      jump\t// out\n        /* \"#utility.yul\":12759:13178   */\n    tag_148:\n        /* \"#utility.yul\":12925:12929   */\n      0x00\n        /* \"#utility.yul\":12963:12965   */\n      0x20\n        /* \"#utility.yul\":12952:12961   */\n      dup3\n        /* \"#utility.yul\":12948:12966   */\n      add\n        /* \"#utility.yul\":12940:12966   */\n      swap1\n      pop\n        /* \"#utility.yul\":13012:13021   */\n      dup2\n        /* \"#utility.yul\":13006:13010   */\n      dup2\n        /* \"#utility.yul\":13002:13022   */\n      sub\n        /* \"#utility.yul\":12998:12999   */\n      0x00\n        /* \"#utility.yul\":12987:12996   */\n      dup4\n        /* \"#utility.yul\":12983:13000   */\n      add\n        /* \"#utility.yul\":12976:13023   */\n      mstore\n        /* \"#utility.yul\":13040:13171   */\n      tag_480\n        /* \"#utility.yul\":13166:13170   */\n      dup2\n        /* \"#utility.yul\":13040:13171   */\n      tag_316\n      jump\t// in\n    tag_480:\n        /* \"#utility.yul\":13032:13171   */\n      swap1\n      pop\n        /* \"#utility.yul\":12759:13178   */\n      swap2\n      swap1\n      pop\n      jump\t// out\n        /* \"#utility.yul\":13184:13416   */\n    tag_317:\n        /* \"#utility.yul\":13324:13358   */\n      0x44697370757465207265736f6c7574696f6e20686173206e6f74206265656e20\n        /* \"#utility.yul\":13320:13321   */\n      0x00\n        /* \"#utility.yul\":13312:13318   */\n      dup3\n        /* \"#utility.yul\":13308:13322   */\n      add\n        /* \"#utility.yul\":13301:13359   */\n      mstore\n        /* \"#utility.yul\":13393:13408   */\n      0x617474656d707465642079657400000000000000000000000000000000000000\n        /* \"#utility.yul\":13388:13390   */\n      0x20\n        /* \"#utility.yul\":13380:13386   */\n      dup3\n        /* \"#utility.yul\":13376:13391   */\n      add\n        /* \"#utility.yul\":13369:13409   */\n      mstore\n        /* \"#utility.yul\":13184:13416   */\n      pop\n      jump\t// out\n        /* \"#utility.yul\":13422:13788   */\n    tag_318:\n        /* \"#utility.yul\":13564:13567   */\n      0x00\n        /* \"#utility.yul\":13585:13652   */\n      tag_483\n        /* \"#utility.yul\":13649:13651   */\n      0x2d\n        /* \"#utility.yul\":13644:13647   */\n      dup4\n        /* \"#utility.yul\":13585:13652   */\n      tag_309\n      jump\t// in\n    tag_483:\n        /* \"#utility.yul\":13578:13652   */\n      swap2\n      pop\n        /* \"#utility.yul\":13661:13754   */\n      tag_484\n        /* \"#utility.yul\":13750:13753   */\n      dup3\n        /* \"#utility.yul\":13661:13754   */\n      tag_317\n      jump\t// in\n    tag_484:\n        /* \"#utility.yul\":13779:13781   */\n      0x40\n        /* \"#utility.yul\":13774:13777   */\n      dup3\n        /* \"#utility.yul\":13770:13782   */\n      add\n        /* \"#utility.yul\":13763:13782   */\n      swap1\n      pop\n        /* \"#utility.yul\":13422:13788   */\n      swap2\n      swap1\n      pop\n      jump\t// out\n        /* \"#utility.yul\":13794:14213   */\n    tag_151:\n        /* \"#utility.yul\":13960:13964   */\n      0x00\n        /* \"#utility.yul\":13998:14000   */\n      0x20\n        /* \"#utility.yul\":13987:13996   */\n      dup3\n        /* \"#utility.yul\":13983:14001   */\n      add\n        /* \"#utility.yul\":13975:14001   */\n      swap1\n      pop\n        /* \"#utility.yul\":14047:14056   */\n      dup2\n        /* \"#utility.yul\":14041:14045   */\n      dup2\n        /* \"#utility.yul\":14037:14057   */\n      sub\n        /* \"#utility.yul\":14033:14034   */\n      0x00\n        /* \"#utility.yul\":14022:14031   */\n      dup4\n        /* \"#utility.yul\":14018:14035   */\n      add\n        /* \"#utility.yul\":14011:14058   */\n      mstore\n        /* \"#utility.yul\":14075:14206   */\n      tag_486\n        /* \"#utility.yul\":14201:14205   */\n      dup2\n        /* \"#utility.yul\":14075:14206   */\n      tag_318\n      jump\t// in\n    tag_486:\n        /* \"#utility.yul\":14067:14206   */\n      swap1\n      pop\n        /* \"#utility.yul\":13794:14213   */\n      swap2\n      swap1\n      pop\n      jump\t// out\n        /* \"#utility.yul\":14219:14387   */\n    tag_319:\n        /* \"#utility.yul\":14359:14379   */\n      0x4e6f20746f6b656e7320746f20636c61696d0000000000000000000000000000\n        /* \"#utility.yul\":14355:14356   */\n      0x00\n        /* \"#utility.yul\":14347:14353   */\n      dup3\n        /* \"#utility.yul\":14343:14357   */\n      add\n        /* \"#utility.yul\":14336:14380   */\n      mstore\n        /* \"#utility.yul\":14219:14387   */\n      pop\n      jump\t// out\n        /* \"#utility.yul\":14393:14759   */\n    tag_320:\n        /* \"#utility.yul\":14535:14538   */\n      0x00\n        /* \"#utility.yul\":14556:14623   */\n      tag_489\n        /* \"#utility.yul\":14620:14622   */\n      0x12\n        /* \"#utility.yul\":14615:14618   */\n      dup4\n        /* \"#utility.yul\":14556:14623   */\n      tag_309\n      jump\t// in\n    tag_489:\n        /* \"#utility.yul\":14549:14623   */\n      swap2\n      pop\n        /* \"#utility.yul\":14632:14725   */\n      tag_490\n        /* \"#utility.yul\":14721:14724   */\n      dup3\n        /* \"#utility.yul\":14632:14725   */\n      tag_319\n      jump\t// in\n    tag_490:\n        /* \"#utility.yul\":14750:14752   */\n      0x20\n        /* \"#utility.yul\":14745:14748   */\n      dup3\n        /* \"#utility.yul\":14741:14753   */\n      add\n        /* \"#utility.yul\":14734:14753   */\n      swap1\n      pop\n        /* \"#utility.yul\":14393:14759   */\n      swap2\n      swap1\n      pop\n      jump\t// out\n        /* \"#utility.yul\":14765:15184   */\n    tag_154:\n        /* \"#utility.yul\":14931:14935   */\n      0x00\n        /* \"#utility.yul\":14969:14971   */\n      0x20\n        /* \"#utility.yul\":14958:14967   */\n      dup3\n        /* \"#utility.yul\":14954:14972   */\n      add\n        /* \"#utility.yul\":14946:14972   */\n      swap1\n      pop\n        /* \"#utility.yul\":15018:15027   */\n      dup2\n        /* \"#utility.yul\":15012:15016   */\n      dup2\n        /* \"#utility.yul\":15008:15028   */\n      sub\n        /* \"#utility.yul\":15004:15005   */\n      0x00\n        /* \"#utility.yul\":14993:15002   */\n      dup4\n        /* \"#utility.yul\":14989:15006   */\n      add\n        /* \"#utility.yul\":14982:15029   */\n      mstore\n        /* \"#utility.yul\":15046:15177   */\n      tag_492\n        /* \"#utility.yul\":15172:15176   */\n      dup2\n        /* \"#utility.yul\":15046:15177   */\n      tag_320\n      jump\t// in\n    tag_492:\n        /* \"#utility.yul\":15038:15177   */\n      swap1\n      pop\n        /* \"#utility.yul\":14765:15184   */\n      swap2\n      swap1\n      pop\n      jump\t// out\n        /* \"#utility.yul\":15190:15600   */\n    tag_157:\n        /* \"#utility.yul\":15230:15237   */\n      0x00\n        /* \"#utility.yul\":15253:15273   */\n      tag_494\n        /* \"#utility.yul\":15271:15272   */\n      dup3\n        /* \"#utility.yul\":15253:15273   */\n      tag_285\n      jump\t// in\n    tag_494:\n        /* \"#utility.yul\":15248:15273   */\n      swap2\n      pop\n        /* \"#utility.yul\":15287:15307   */\n      tag_495\n        /* \"#utility.yul\":15305:15306   */\n      dup4\n        /* \"#utility.yul\":15287:15307   */\n      tag_285\n      jump\t// in\n    tag_495:\n        /* \"#utility.yul\":15282:15307   */\n      swap3\n      pop\n        /* \"#utility.yul\":15342:15343   */\n      dup3\n        /* \"#utility.yul\":15339:15340   */\n      dup3\n        /* \"#utility.yul\":15335:15344   */\n      mul\n        /* \"#utility.yul\":15364:15394   */\n      tag_496\n        /* \"#utility.yul\":15382:15393   */\n      dup2\n        /* \"#utility.yul\":15364:15394   */\n      tag_285\n      jump\t// in\n    tag_496:\n        /* \"#utility.yul\":15353:15394   */\n      swap2\n      pop\n        /* \"#utility.yul\":15543:15544   */\n      dup3\n        /* \"#utility.yul\":15534:15541   */\n      dup3\n        /* \"#utility.yul\":15530:15545   */\n      div\n        /* \"#utility.yul\":15527:15528   */\n      dup5\n        /* \"#utility.yul\":15524:15546   */\n      eq\n        /* \"#utility.yul\":15504:15505   */\n      dup4\n        /* \"#utility.yul\":15497:15506   */\n      iszero\n        /* \"#utility.yul\":15477:15560   */\n      or\n        /* \"#utility.yul\":15454:15593   */\n      tag_497\n      jumpi\n        /* \"#utility.yul\":15573:15591   */\n      tag_498\n      tag_314\n      jump\t// in\n    tag_498:\n        /* \"#utility.yul\":15454:15593   */\n    tag_497:\n        /* \"#utility.yul\":15238:15600   */\n      pop\n        /* \"#utility.yul\":15190:15600   */\n      swap3\n      swap2\n      pop\n      pop\n      jump\t// out\n        /* \"#utility.yul\":15606:15786   */\n    tag_321:\n        /* \"#utility.yul\":15654:15731   */\n      0x4e487b7100000000000000000000000000000000000000000000000000000000\n        /* \"#utility.yul\":15651:15652   */\n      0x00\n        /* \"#utility.yul\":15644:15732   */\n      mstore\n        /* \"#utility.yul\":15751:15755   */\n      0x12\n        /* \"#utility.yul\":15748:15749   */\n      0x04\n        /* \"#utility.yul\":15741:15756   */\n      mstore\n        /* \"#utility.yul\":15775:15779   */\n      0x24\n        /* \"#utility.yul\":15772:15773   */\n      0x00\n        /* \"#utility.yul\":15765:15780   */\n      revert\n        /* \"#utility.yul\":15792:15977   */\n    tag_173:\n        /* \"#utility.yul\":15832:15833   */\n      0x00\n        /* \"#utility.yul\":15849:15869   */\n      tag_501\n        /* \"#utility.yul\":15867:15868   */\n      dup3\n        /* \"#utility.yul\":15849:15869   */\n      tag_285\n      jump\t// in\n    tag_501:\n        /* \"#utility.yul\":15844:15869   */\n      swap2\n      pop\n        /* \"#utility.yul\":15883:15903   */\n      tag_502\n        /* \"#utility.yul\":15901:15902   */\n      dup4\n        /* \"#utility.yul\":15883:15903   */\n      tag_285\n      jump\t// in\n    tag_502:\n        /* \"#utility.yul\":15878:15903   */\n      swap3\n      pop\n        /* \"#utility.yul\":15922:15923   */\n      dup3\n        /* \"#utility.yul\":15912:15947   */\n      tag_503\n      jumpi\n        /* \"#utility.yul\":15927:15945   */\n      tag_504\n      tag_321\n      jump\t// in\n    tag_504:\n        /* \"#utility.yul\":15912:15947   */\n    tag_503:\n        /* \"#utility.yul\":15969:15970   */\n      dup3\n        /* \"#utility.yul\":15966:15967   */\n      dup3\n        /* \"#utility.yul\":15962:15971   */\n      div\n        /* \"#utility.yul\":15957:15971   */\n      swap1\n      pop\n        /* \"#utility.yul\":15792:15977   */\n      swap3\n      swap2\n      pop\n      pop\n      jump\t// out\n        /* \"#utility.yul\":15983:16315   */\n    tag_181:\n        /* \"#utility.yul\":16104:16108   */\n      0x00\n        /* \"#utility.yul\":16142:16144   */\n      0x40\n        /* \"#utility.yul\":16131:16140   */\n      dup3\n        /* \"#utility.yul\":16127:16145   */\n      add\n        /* \"#utility.yul\":16119:16145   */\n      swap1\n      pop\n        /* \"#utility.yul\":16155:16226   */\n      tag_506\n        /* \"#utility.yul\":16223:16224   */\n      0x00\n        /* \"#utility.yul\":16212:16221   */\n      dup4\n        /* \"#utility.yul\":16208:16225   */\n      add\n        /* \"#utility.yul\":16199:16205   */\n      dup6\n        /* \"#utility.yul\":16155:16226   */\n      tag_303\n      jump\t// in\n    tag_506:\n        /* \"#utility.yul\":16236:16308   */\n      tag_507\n        /* \"#utility.yul\":16304:16306   */\n      0x20\n        /* \"#utility.yul\":16293:16302   */\n      dup4\n        /* \"#utility.yul\":16289:16307   */\n      add\n        /* \"#utility.yul\":16280:16286   */\n      dup5\n        /* \"#utility.yul\":16236:16308   */\n      tag_286\n      jump\t// in\n    tag_507:\n        /* \"#utility.yul\":15983:16315   */\n      swap4\n      swap3\n      pop\n      pop\n      pop\n      jump\t// out\n        /* \"#utility.yul\":16321:16458   */\n    tag_322:\n        /* \"#utility.yul\":16375:16380   */\n      0x00\n        /* \"#utility.yul\":16406:16412   */\n      dup2\n        /* \"#utility.yul\":16400:16413   */\n      mload\n        /* \"#utility.yul\":16391:16413   */\n      swap1\n      pop\n        /* \"#utility.yul\":16422:16452   */\n      tag_509\n        /* \"#utility.yul\":16446:16451   */\n      dup2\n        /* \"#utility.yul\":16422:16452   */\n      tag_304\n      jump\t// in\n    tag_509:\n        /* \"#utility.yul\":16321:16458   */\n      swap3\n      swap2\n      pop\n      pop\n      jump\t// out\n        /* \"#utility.yul\":16464:16809   */\n    tag_185:\n        /* \"#utility.yul\":16531:16537   */\n      0x00\n        /* \"#utility.yul\":16580:16582   */\n      0x20\n        /* \"#utility.yul\":16568:16577   */\n      dup3\n        /* \"#utility.yul\":16559:16566   */\n      dup5\n        /* \"#utility.yul\":16555:16578   */\n      sub\n        /* \"#utility.yul\":16551:16583   */\n      slt\n        /* \"#utility.yul\":16548:16667   */\n      iszero\n      tag_511\n      jumpi\n        /* \"#utility.yul\":16586:16665   */\n      tag_512\n      tag_288\n      jump\t// in\n    tag_512:\n        /* \"#utility.yul\":16548:16667   */\n    tag_511:\n        /* \"#utility.yul\":16706:16707   */\n      0x00\n        /* \"#utility.yul\":16731:16792   */\n      tag_513\n        /* \"#utility.yul\":16784:16791   */\n      dup5\n        /* \"#utility.yul\":16775:16781   */\n      dup3\n        /* \"#utility.yul\":16764:16773   */\n      dup6\n        /* \"#utility.yul\":16760:16782   */\n      add\n        /* \"#utility.yul\":16731:16792   */\n      tag_322\n      jump\t// in\n    tag_513:\n        /* \"#utility.yul\":16721:16792   */\n      swap2\n      pop\n        /* \"#utility.yul\":16677:16802   */\n      pop\n        /* \"#utility.yul\":16464:16809   */\n      swap3\n      swap2\n      pop\n      pop\n      jump\t// out\n        /* \"#utility.yul\":16815:16982   */\n    tag_323:\n        /* \"#utility.yul\":16955:16974   */\n      0x496e76616c6964207468726573686f6c64000000000000000000000000000000\n        /* \"#utility.yul\":16951:16952   */\n      0x00\n        /* \"#utility.yul\":16943:16949   */\n      dup3\n        /* \"#utility.yul\":16939:16953   */\n      add\n        /* \"#utility.yul\":16932:16975   */\n      mstore\n        /* \"#utility.yul\":16815:16982   */\n      pop\n      jump\t// out\n        /* \"#utility.yul\":16988:17354   */\n    tag_324:\n        /* \"#utility.yul\":17130:17133   */\n      0x00\n        /* \"#utility.yul\":17151:17218   */\n      tag_516\n        /* \"#utility.yul\":17215:17217   */\n      0x11\n        /* \"#utility.yul\":17210:17213   */\n      dup4\n        /* \"#utility.yul\":17151:17218   */\n      tag_309\n      jump\t// in\n    tag_516:\n        /* \"#utility.yul\":17144:17218   */\n      swap2\n      pop\n        /* \"#utility.yul\":17227:17320   */\n      tag_517\n        /* \"#utility.yul\":17316:17319   */\n      dup3\n        /* \"#utility.yul\":17227:17320   */\n      tag_323\n      jump\t// in\n    tag_517:\n        /* \"#utility.yul\":17345:17347   */\n      0x20\n        /* \"#utility.yul\":17340:17343   */\n      dup3\n        /* \"#utility.yul\":17336:17348   */\n      add\n        /* \"#utility.yul\":17329:17348   */\n      swap1\n      pop\n        /* \"#utility.yul\":16988:17354   */\n      swap2\n      swap1\n      pop\n      jump\t// out\n        /* \"#utility.yul\":17360:17779   */\n    tag_201:\n        /* \"#utility.yul\":17526:17530   */\n      0x00\n        /* \"#utility.yul\":17564:17566   */\n      0x20\n        /* \"#utility.yul\":17553:17562   */\n      dup3\n        /* \"#utility.yul\":17549:17567   */\n      add\n        /* \"#utility.yul\":17541:17567   */\n      swap1\n      pop\n        /* \"#utility.yul\":17613:17622   */\n      dup2\n        /* \"#utility.yul\":17607:17611   */\n      dup2\n        /* \"#utility.yul\":17603:17623   */\n      sub\n        /* \"#utility.yul\":17599:17600   */\n      0x00\n        /* \"#utility.yul\":17588:17597   */\n      dup4\n        /* \"#utility.yul\":17584:17601   */\n      add\n        /* \"#utility.yul\":17577:17624   */\n      mstore\n        /* \"#utility.yul\":17641:17772   */\n      tag_519\n        /* \"#utility.yul\":17767:17771   */\n      dup2\n        /* \"#utility.yul\":17641:17772   */\n      tag_324\n      jump\t// in\n    tag_519:\n        /* \"#utility.yul\":17633:17772   */\n      swap1\n      pop\n        /* \"#utility.yul\":17360:17779   */\n      swap2\n      swap1\n      pop\n      jump\t// out\n        /* \"#utility.yul\":17785:18005   */\n    tag_325:\n        /* \"#utility.yul\":17925:17959   */\n      0x446973707574652068617320616c7265616479206265656e207265736f6c7665\n        /* \"#utility.yul\":17921:17922   */\n      0x00\n        /* \"#utility.yul\":17913:17919   */\n      dup3\n        /* \"#utility.yul\":17909:17923   */\n      add\n        /* \"#utility.yul\":17902:17960   */\n      mstore\n        /* \"#utility.yul\":17994:17997   */\n      0x6400000000000000000000000000000000000000000000000000000000000000\n        /* \"#utility.yul\":17989:17991   */\n      0x20\n        /* \"#utility.yul\":17981:17987   */\n      dup3\n        /* \"#utility.yul\":17977:17992   */\n      add\n        /* \"#utility.yul\":17970:17998   */\n      mstore\n        /* \"#utility.yul\":17785:18005   */\n      pop\n      jump\t// out\n        /* \"#utility.yul\":18011:18377   */\n    tag_326:\n        /* \"#utility.yul\":18153:18156   */\n      0x00\n        /* \"#utility.yul\":18174:18241   */\n      tag_522\n        /* \"#utility.yul\":18238:18240   */\n      0x21\n        /* \"#utility.yul\":18233:18236   */\n      dup4\n        /* \"#utility.yul\":18174:18241   */\n      tag_309\n      jump\t// in\n    tag_522:\n        /* \"#utility.yul\":18167:18241   */\n      swap2\n      pop\n        /* \"#utility.yul\":18250:18343   */\n      tag_523\n        /* \"#utility.yul\":18339:18342   */\n      dup3\n        /* \"#utility.yul\":18250:18343   */\n      tag_325\n      jump\t// in\n    tag_523:\n        /* \"#utility.yul\":18368:18370   */\n      0x40\n        /* \"#utility.yul\":18363:18366   */\n      dup3\n        /* \"#utility.yul\":18359:18371   */\n      add\n        /* \"#utility.yul\":18352:18371   */\n      swap1\n      pop\n        /* \"#utility.yul\":18011:18377   */\n      swap2\n      swap1\n      pop\n      jump\t// out\n        /* \"#utility.yul\":18383:18802   */\n    tag_205:\n        /* \"#utility.yul\":18549:18553   */\n      0x00\n        /* \"#utility.yul\":18587:18589   */\n      0x20\n        /* \"#utility.yul\":18576:18585   */\n      dup3\n        /* \"#utility.yul\":18572:18590   */\n      add\n        /* \"#utility.yul\":18564:18590   */\n      swap1\n      pop\n        /* \"#utility.yul\":18636:18645   */\n      dup2\n        /* \"#utility.yul\":18630:18634   */\n      dup2\n        /* \"#utility.yul\":18626:18646   */\n      sub\n        /* \"#utility.yul\":18622:18623   */\n      0x00\n        /* \"#utility.yul\":18611:18620   */\n      dup4\n        /* \"#utility.yul\":18607:18624   */\n      add\n        /* \"#utility.yul\":18600:18647   */\n      mstore\n        /* \"#utility.yul\":18664:18795   */\n      tag_525\n        /* \"#utility.yul\":18790:18794   */\n      dup2\n        /* \"#utility.yul\":18664:18795   */\n      tag_326\n      jump\t// in\n    tag_525:\n        /* \"#utility.yul\":18656:18795   */\n      swap1\n      pop\n        /* \"#utility.yul\":18383:18802   */\n      swap2\n      swap1\n      pop\n      jump\t// out\n        /* \"#utility.yul\":18808:19029   */\n    tag_327:\n        /* \"#utility.yul\":18948:18982   */\n      0x54686520766f74696e6720706572696f64206973206e6f74206f766572207965\n        /* \"#utility.yul\":18944:18945   */\n      0x00\n        /* \"#utility.yul\":18936:18942   */\n      dup3\n        /* \"#utility.yul\":18932:18946   */\n      add\n        /* \"#utility.yul\":18925:18983   */\n      mstore\n        /* \"#utility.yul\":19017:19021   */\n      0x7421000000000000000000000000000000000000000000000000000000000000\n        /* \"#utility.yul\":19012:19014   */\n      0x20\n        /* \"#utility.yul\":19004:19010   */\n      dup3\n        /* \"#utility.yul\":19000:19015   */\n      add\n        /* \"#utility.yul\":18993:19022   */\n      mstore\n        /* \"#utility.yul\":18808:19029   */\n      pop\n      jump\t// out\n        /* \"#utility.yul\":19035:19401   */\n    tag_328:\n        /* \"#utility.yul\":19177:19180   */\n      0x00\n        /* \"#utility.yul\":19198:19265   */\n      tag_528\n        /* \"#utility.yul\":19262:19264   */\n      0x22\n        /* \"#utility.yul\":19257:19260   */\n      dup4\n        /* \"#utility.yul\":19198:19265   */\n      tag_309\n      jump\t// in\n    tag_528:\n        /* \"#utility.yul\":19191:19265   */\n      swap2\n      pop\n        /* \"#utility.yul\":19274:19367   */\n      tag_529\n        /* \"#utility.yul\":19363:19366   */\n      dup3\n        /* \"#utility.yul\":19274:19367   */\n      tag_327\n      jump\t// in\n    tag_529:\n        /* \"#utility.yul\":19392:19394   */\n      0x40\n        /* \"#utility.yul\":19387:19390   */\n      dup3\n        /* \"#utility.yul\":19383:19395   */\n      add\n        /* \"#utility.yul\":19376:19395   */\n      swap1\n      pop\n        /* \"#utility.yul\":19035:19401   */\n      swap2\n      swap1\n      pop\n      jump\t// out\n        /* \"#utility.yul\":19407:19826   */\n    tag_208:\n        /* \"#utility.yul\":19573:19577   */\n      0x00\n        /* \"#utility.yul\":19611:19613   */\n      0x20\n        /* \"#utility.yul\":19600:19609   */\n      dup3\n        /* \"#utility.yul\":19596:19614   */\n      add\n        /* \"#utility.yul\":19588:19614   */\n      swap1\n      pop\n        /* \"#utility.yul\":19660:19669   */\n      dup2\n        /* \"#utility.yul\":19654:19658   */\n      dup2\n        /* \"#utility.yul\":19650:19670   */\n      sub\n        /* \"#utility.yul\":19646:19647   */\n      0x00\n        /* \"#utility.yul\":19635:19644   */\n      dup4\n        /* \"#utility.yul\":19631:19648   */\n      add\n        /* \"#utility.yul\":19624:19671   */\n      mstore\n        /* \"#utility.yul\":19688:19819   */\n      tag_531\n        /* \"#utility.yul\":19814:19818   */\n      dup2\n        /* \"#utility.yul\":19688:19819   */\n      tag_328\n      jump\t// in\n    tag_531:\n        /* \"#utility.yul\":19680:19819   */\n      swap1\n      pop\n        /* \"#utility.yul\":19407:19826   */\n      swap2\n      swap1\n      pop\n      jump\t// out\n        /* \"#utility.yul\":19832:19936   */\n    tag_329:\n        /* \"#utility.yul\":19877:19884   */\n      0x00\n        /* \"#utility.yul\":19906:19930   */\n      tag_533\n        /* \"#utility.yul\":19924:19929   */\n      dup3\n        /* \"#utility.yul\":19906:19930   */\n      tag_290\n      jump\t// in\n    tag_533:\n        /* \"#utility.yul\":19895:19930   */\n      swap1\n      pop\n        /* \"#utility.yul\":19832:19936   */\n      swap2\n      swap1\n      pop\n      jump\t// out\n        /* \"#utility.yul\":19942:20084   */\n    tag_330:\n        /* \"#utility.yul\":20045:20077   */\n      tag_535\n        /* \"#utility.yul\":20071:20076   */\n      dup2\n        /* \"#utility.yul\":20045:20077   */\n      tag_329\n      jump\t// in\n    tag_535:\n        /* \"#utility.yul\":20040:20043   */\n      dup3\n        /* \"#utility.yul\":20033:20078   */\n      mstore\n        /* \"#utility.yul\":19942:20084   */\n      pop\n      pop\n      jump\t// out\n        /* \"#utility.yul\":20090:20675   */\n    tag_223:\n        /* \"#utility.yul\":20283:20287   */\n      0x00\n        /* \"#utility.yul\":20321:20324   */\n      0x80\n        /* \"#utility.yul\":20310:20319   */\n      dup3\n        /* \"#utility.yul\":20306:20325   */\n      add\n        /* \"#utility.yul\":20298:20325   */\n      swap1\n      pop\n        /* \"#utility.yul\":20335:20406   */\n      tag_537\n        /* \"#utility.yul\":20403:20404   */\n      0x00\n        /* \"#utility.yul\":20392:20401   */\n      dup4\n        /* \"#utility.yul\":20388:20405   */\n      add\n        /* \"#utility.yul\":20379:20385   */\n      dup8\n        /* \"#utility.yul\":20335:20406   */\n      tag_286\n      jump\t// in\n    tag_537:\n        /* \"#utility.yul\":20416:20488   */\n      tag_538\n        /* \"#utility.yul\":20484:20486   */\n      0x20\n        /* \"#utility.yul\":20473:20482   */\n      dup4\n        /* \"#utility.yul\":20469:20487   */\n      add\n        /* \"#utility.yul\":20460:20466   */\n      dup7\n        /* \"#utility.yul\":20416:20488   */\n      tag_286\n      jump\t// in\n    tag_538:\n        /* \"#utility.yul\":20498:20586   */\n      tag_539\n        /* \"#utility.yul\":20582:20584   */\n      0x40\n        /* \"#utility.yul\":20571:20580   */\n      dup4\n        /* \"#utility.yul\":20567:20585   */\n      add\n        /* \"#utility.yul\":20558:20564   */\n      dup6\n        /* \"#utility.yul\":20498:20586   */\n      tag_330\n      jump\t// in\n    tag_539:\n        /* \"#utility.yul\":20596:20668   */\n      tag_540\n        /* \"#utility.yul\":20664:20666   */\n      0x60\n        /* \"#utility.yul\":20653:20662   */\n      dup4\n        /* \"#utility.yul\":20649:20667   */\n      add\n        /* \"#utility.yul\":20640:20646   */\n      dup5\n        /* \"#utility.yul\":20596:20668   */\n      tag_286\n      jump\t// in\n    tag_540:\n        /* \"#utility.yul\":20090:20675   */\n      swap6\n      swap5\n      pop\n      pop\n      pop\n      pop\n      pop\n      jump\t// out\n        /* \"#utility.yul\":20681:20852   */\n    tag_331:\n        /* \"#utility.yul\":20821:20844   */\n      0x566f74696e6720706572696f64206973206f7665720000000000000000000000\n        /* \"#utility.yul\":20817:20818   */\n      0x00\n        /* \"#utility.yul\":20809:20815   */\n      dup3\n        /* \"#utility.yul\":20805:20819   */\n      add\n        /* \"#utility.yul\":20798:20845   */\n      mstore\n        /* \"#utility.yul\":20681:20852   */\n      pop\n      jump\t// out\n        /* \"#utility.yul\":20858:21224   */\n    tag_332:\n        /* \"#utility.yul\":21000:21003   */\n      0x00\n        /* \"#utility.yul\":21021:21088   */\n      tag_543\n        /* \"#utility.yul\":21085:21087   */\n      0x15\n        /* \"#utility.yul\":21080:21083   */\n      dup4\n        /* \"#utility.yul\":21021:21088   */\n      tag_309\n      jump\t// in\n    tag_543:\n        /* \"#utility.yul\":21014:21088   */\n      swap2\n      pop\n        /* \"#utility.yul\":21097:21190   */\n      tag_544\n        /* \"#utility.yul\":21186:21189   */\n      dup3\n        /* \"#utility.yul\":21097:21190   */\n      tag_331\n      jump\t// in\n    tag_544:\n        /* \"#utility.yul\":21215:21217   */\n      0x20\n        /* \"#utility.yul\":21210:21213   */\n      dup3\n        /* \"#utility.yul\":21206:21218   */\n      add\n        /* \"#utility.yul\":21199:21218   */\n      swap1\n      pop\n        /* \"#utility.yul\":20858:21224   */\n      swap2\n      swap1\n      pop\n      jump\t// out\n        /* \"#utility.yul\":21230:21649   */\n    tag_238:\n        /* \"#utility.yul\":21396:21400   */\n      0x00\n        /* \"#utility.yul\":21434:21436   */\n      0x20\n        /* \"#utility.yul\":21423:21432   */\n      dup3\n        /* \"#utility.yul\":21419:21437   */\n      add\n        /* \"#utility.yul\":21411:21437   */\n      swap1\n      pop\n        /* \"#utility.yul\":21483:21492   */\n      dup2\n        /* \"#utility.yul\":21477:21481   */\n      dup2\n        /* \"#utility.yul\":21473:21493   */\n      sub\n        /* \"#utility.yul\":21469:21470   */\n      0x00\n        /* \"#utility.yul\":21458:21467   */\n      dup4\n        /* \"#utility.yul\":21454:21471   */\n      add\n        /* \"#utility.yul\":21447:21494   */\n      mstore\n        /* \"#utility.yul\":21511:21642   */\n      tag_546\n        /* \"#utility.yul\":21637:21641   */\n      dup2\n        /* \"#utility.yul\":21511:21642   */\n      tag_332\n      jump\t// in\n    tag_546:\n        /* \"#utility.yul\":21503:21642   */\n      swap1\n      pop\n        /* \"#utility.yul\":21230:21649   */\n      swap2\n      swap1\n      pop\n      jump\t// out\n        /* \"#utility.yul\":21655:21880   */\n    tag_333:\n        /* \"#utility.yul\":21795:21829   */\n      0x566f7465722068617320616c726561647920766f74656420666f722074686520\n        /* \"#utility.yul\":21791:21792   */\n      0x00\n        /* \"#utility.yul\":21783:21789   */\n      dup3\n        /* \"#utility.yul\":21779:21793   */\n      add\n        /* \"#utility.yul\":21772:21830   */\n      mstore\n        /* \"#utility.yul\":21864:21872   */\n      0x73656c6c65720000000000000000000000000000000000000000000000000000\n        /* \"#utility.yul\":21859:21861   */\n      0x20\n        /* \"#utility.yul\":21851:21857   */\n      dup3\n        /* \"#utility.yul\":21847:21862   */\n      add\n        /* \"#utility.yul\":21840:21873   */\n      mstore\n        /* \"#utility.yul\":21655:21880   */\n      pop\n      jump\t// out\n        /* \"#utility.yul\":21886:22252   */\n    tag_334:\n        /* \"#utility.yul\":22028:22031   */\n      0x00\n        /* \"#utility.yul\":22049:22116   */\n      tag_549\n        /* \"#utility.yul\":22113:22115   */\n      0x26\n        /* \"#utility.yul\":22108:22111   */\n      dup4\n        /* \"#utility.yul\":22049:22116   */\n      tag_309\n      jump\t// in\n    tag_549:\n        /* \"#utility.yul\":22042:22116   */\n      swap2\n      pop\n        /* \"#utility.yul\":22125:22218   */\n      tag_550\n        /* \"#utility.yul\":22214:22217   */\n      dup3\n        /* \"#utility.yul\":22125:22218   */\n      tag_333\n      jump\t// in\n    tag_550:\n        /* \"#utility.yul\":22243:22245   */\n      0x40\n        /* \"#utility.yul\":22238:22241   */\n      dup3\n        /* \"#utility.yul\":22234:22246   */\n      add\n        /* \"#utility.yul\":22227:22246   */\n      swap1\n      pop\n        /* \"#utility.yul\":21886:22252   */\n      swap2\n      swap1\n      pop\n      jump\t// out\n        /* \"#utility.yul\":22258:22677   */\n    tag_244:\n        /* \"#utility.yul\":22424:22428   */\n      0x00\n        /* \"#utility.yul\":22462:22464   */\n      0x20\n        /* \"#utility.yul\":22451:22460   */\n      dup3\n        /* \"#utility.yul\":22447:22465   */\n      add\n        /* \"#utility.yul\":22439:22465   */\n      swap1\n      pop\n        /* \"#utility.yul\":22511:22520   */\n      dup2\n        /* \"#utility.yul\":22505:22509   */\n      dup2\n        /* \"#utility.yul\":22501:22521   */\n      sub\n        /* \"#utility.yul\":22497:22498   */\n      0x00\n        /* \"#utility.yul\":22486:22495   */\n      dup4\n        /* \"#utility.yul\":22482:22499   */\n      add\n        /* \"#utility.yul\":22475:22522   */\n      mstore\n        /* \"#utility.yul\":22539:22670   */\n      tag_552\n        /* \"#utility.yul\":22665:22669   */\n      dup2\n        /* \"#utility.yul\":22539:22670   */\n      tag_334\n      jump\t// in\n    tag_552:\n        /* \"#utility.yul\":22531:22670   */\n      swap1\n      pop\n        /* \"#utility.yul\":22258:22677   */\n      swap2\n      swap1\n      pop\n      jump\t// out\n        /* \"#utility.yul\":22683:22907   */\n    tag_335:\n        /* \"#utility.yul\":22823:22857   */\n      0x566f7465722068617320616c726561647920766f74656420666f722074686520\n        /* \"#utility.yul\":22819:22820   */\n      0x00\n        /* \"#utility.yul\":22811:22817   */\n      dup3\n        /* \"#utility.yul\":22807:22821   */\n      add\n        /* \"#utility.yul\":22800:22858   */\n      mstore\n        /* \"#utility.yul\":22892:22899   */\n      0x6275796572000000000000000000000000000000000000000000000000000000\n        /* \"#utility.yul\":22887:22889   */\n      0x20\n        /* \"#utility.yul\":22879:22885   */\n      dup3\n        /* \"#utility.yul\":22875:22890   */\n      add\n        /* \"#utility.yul\":22868:22900   */\n      mstore\n        /* \"#utility.yul\":22683:22907   */\n      pop\n      jump\t// out\n        /* \"#utility.yul\":22913:23279   */\n    tag_336:\n        /* \"#utility.yul\":23055:23058   */\n      0x00\n        /* \"#utility.yul\":23076:23143   */\n      tag_555\n        /* \"#utility.yul\":23140:23142   */\n      0x25\n        /* \"#utility.yul\":23135:23138   */\n      dup4\n        /* \"#utility.yul\":23076:23143   */\n      tag_309\n      jump\t// in\n    tag_555:\n        /* \"#utility.yul\":23069:23143   */\n      swap2\n      pop\n        /* \"#utility.yul\":23152:23245   */\n      tag_556\n        /* \"#utility.yul\":23241:23244   */\n      dup3\n        /* \"#utility.yul\":23152:23245   */\n      tag_335\n      jump\t// in\n    tag_556:\n        /* \"#utility.yul\":23270:23272   */\n      0x40\n        /* \"#utility.yul\":23265:23268   */\n      dup3\n        /* \"#utility.yul\":23261:23273   */\n      add\n        /* \"#utility.yul\":23254:23273   */\n      swap1\n      pop\n        /* \"#utility.yul\":22913:23279   */\n      swap2\n      swap1\n      pop\n      jump\t// out\n        /* \"#utility.yul\":23285:23704   */\n    tag_248:\n        /* \"#utility.yul\":23451:23455   */\n      0x00\n        /* \"#utility.yul\":23489:23491   */\n      0x20\n        /* \"#utility.yul\":23478:23487   */\n      dup3\n        /* \"#utility.yul\":23474:23492   */\n      add\n        /* \"#utility.yul\":23466:23492   */\n      swap1\n      pop\n        /* \"#utility.yul\":23538:23547   */\n      dup2\n        /* \"#utility.yul\":23532:23536   */\n      dup2\n        /* \"#utility.yul\":23528:23548   */\n      sub\n        /* \"#utility.yul\":23524:23525   */\n      0x00\n        /* \"#utility.yul\":23513:23522   */\n      dup4\n        /* \"#utility.yul\":23509:23526   */\n      add\n        /* \"#utility.yul\":23502:23549   */\n      mstore\n        /* \"#utility.yul\":23566:23697   */\n      tag_558\n        /* \"#utility.yul\":23692:23696   */\n      dup2\n        /* \"#utility.yul\":23566:23697   */\n      tag_336\n      jump\t// in\n    tag_558:\n        /* \"#utility.yul\":23558:23697   */\n      swap1\n      pop\n        /* \"#utility.yul\":23285:23704   */\n      swap2\n      swap1\n      pop\n      jump\t// out\n        /* \"#utility.yul\":23710:24152   */\n    tag_250:\n        /* \"#utility.yul\":23859:23863   */\n      0x00\n        /* \"#utility.yul\":23897:23899   */\n      0x60\n        /* \"#utility.yul\":23886:23895   */\n      dup3\n        /* \"#utility.yul\":23882:23900   */\n      add\n        /* \"#utility.yul\":23874:23900   */\n      swap1\n      pop\n        /* \"#utility.yul\":23910:23981   */\n      tag_560\n        /* \"#utility.yul\":23978:23979   */\n      0x00\n        /* \"#utility.yul\":23967:23976   */\n      dup4\n        /* \"#utility.yul\":23963:23980   */\n      add\n        /* \"#utility.yul\":23954:23960   */\n      dup7\n        /* \"#utility.yul\":23910:23981   */\n      tag_303\n      jump\t// in\n    tag_560:\n        /* \"#utility.yul\":23991:24063   */\n      tag_561\n        /* \"#utility.yul\":24059:24061   */\n      0x20\n        /* \"#utility.yul\":24048:24057   */\n      dup4\n        /* \"#utility.yul\":24044:24062   */\n      add\n        /* \"#utility.yul\":24035:24041   */\n      dup6\n        /* \"#utility.yul\":23991:24063   */\n      tag_303\n      jump\t// in\n    tag_561:\n        /* \"#utility.yul\":24073:24145   */\n      tag_562\n        /* \"#utility.yul\":24141:24143   */\n      0x40\n        /* \"#utility.yul\":24130:24139   */\n      dup4\n        /* \"#utility.yul\":24126:24144   */\n      add\n        /* \"#utility.yul\":24117:24123   */\n      dup5\n        /* \"#utility.yul\":24073:24145   */\n      tag_286\n      jump\t// in\n    tag_562:\n        /* \"#utility.yul\":23710:24152   */\n      swap5\n      swap4\n      pop\n      pop\n      pop\n      pop\n      jump\t// out\n        /* \"#utility.yul\":24158:24588   */\n    tag_262:\n        /* \"#utility.yul\":24301:24305   */\n      0x00\n        /* \"#utility.yul\":24339:24341   */\n      0x60\n        /* \"#utility.yul\":24328:24337   */\n      dup3\n        /* \"#utility.yul\":24324:24342   */\n      add\n        /* \"#utility.yul\":24316:24342   */\n      swap1\n      pop\n        /* \"#utility.yul\":24352:24423   */\n      tag_564\n        /* \"#utility.yul\":24420:24421   */\n      0x00\n        /* \"#utility.yul\":24409:24418   */\n      dup4\n        /* \"#utility.yul\":24405:24422   */\n      add\n        /* \"#utility.yul\":24396:24402   */\n      dup7\n        /* \"#utility.yul\":24352:24423   */\n      tag_303\n      jump\t// in\n    tag_564:\n        /* \"#utility.yul\":24433:24499   */\n      tag_565\n        /* \"#utility.yul\":24495:24497   */\n      0x20\n        /* \"#utility.yul\":24484:24493   */\n      dup4\n        /* \"#utility.yul\":24480:24498   */\n      add\n        /* \"#utility.yul\":24471:24477   */\n      dup6\n        /* \"#utility.yul\":24433:24499   */\n      tag_302\n      jump\t// in\n    tag_565:\n        /* \"#utility.yul\":24509:24581   */\n      tag_566\n        /* \"#utility.yul\":24577:24579   */\n      0x40\n        /* \"#utility.yul\":24566:24575   */\n      dup4\n        /* \"#utility.yul\":24562:24580   */\n      add\n        /* \"#utility.yul\":24553:24559   */\n      dup5\n        /* \"#utility.yul\":24509:24581   */\n      tag_286\n      jump\t// in\n    tag_566:\n        /* \"#utility.yul\":24158:24588   */\n      swap5\n      swap4\n      pop\n      pop\n      pop\n      pop\n      jump\t// out\n        /* \"#utility.yul\":24594:24819   */\n    tag_337:\n        /* \"#utility.yul\":24734:24768   */\n      0x4f776e61626c653a206e6577206f776e657220697320746865207a65726f2061\n        /* \"#utility.yul\":24730:24731   */\n      0x00\n        /* \"#utility.yul\":24722:24728   */\n      dup3\n        /* \"#utility.yul\":24718:24732   */\n      add\n        /* \"#utility.yul\":24711:24769   */\n      mstore\n        /* \"#utility.yul\":24803:24811   */\n      0x6464726573730000000000000000000000000000000000000000000000000000\n        /* \"#utility.yul\":24798:24800   */\n      0x20\n        /* \"#utility.yul\":24790:24796   */\n      dup3\n        /* \"#utility.yul\":24786:24801   */\n      add\n        /* \"#utility.yul\":24779:24812   */\n      mstore\n        /* \"#utility.yul\":24594:24819   */\n      pop\n      jump\t// out\n        /* \"#utility.yul\":24825:25191   */\n    tag_338:\n        /* \"#utility.yul\":24967:24970   */\n      0x00\n        /* \"#utility.yul\":24988:25055   */\n      tag_569\n        /* \"#utility.yul\":25052:25054   */\n      0x26\n        /* \"#utility.yul\":25047:25050   */\n      dup4\n        /* \"#utility.yul\":24988:25055   */\n      tag_309\n      jump\t// in\n    tag_569:\n        /* \"#utility.yul\":24981:25055   */\n      swap2\n      pop\n        /* \"#utility.yul\":25064:25157   */\n      tag_570\n        /* \"#utility.yul\":25153:25156   */\n      dup3\n        /* \"#utility.yul\":25064:25157   */\n      tag_337\n      jump\t// in\n    tag_570:\n        /* \"#utility.yul\":25182:25184   */\n      0x40\n        /* \"#utility.yul\":25177:25180   */\n      dup3\n        /* \"#utility.yul\":25173:25185   */\n      add\n        /* \"#utility.yul\":25166:25185   */\n      swap1\n      pop\n        /* \"#utility.yul\":24825:25191   */\n      swap2\n      swap1\n      pop\n      jump\t// out\n        /* \"#utility.yul\":25197:25616   */\n    tag_271:\n        /* \"#utility.yul\":25363:25367   */\n      0x00\n        /* \"#utility.yul\":25401:25403   */\n      0x20\n        /* \"#utility.yul\":25390:25399   */\n      dup3\n        /* \"#utility.yul\":25386:25404   */\n      add\n        /* \"#utility.yul\":25378:25404   */\n      swap1\n      pop\n        /* \"#utility.yul\":25450:25459   */\n      dup2\n        /* \"#utility.yul\":25444:25448   */\n      dup2\n        /* \"#utility.yul\":25440:25460   */\n      sub\n        /* \"#utility.yul\":25436:25437   */\n      0x00\n        /* \"#utility.yul\":25425:25434   */\n      dup4\n        /* \"#utility.yul\":25421:25438   */\n      add\n        /* \"#utility.yul\":25414:25461   */\n      mstore\n        /* \"#utility.yul\":25478:25609   */\n      tag_572\n        /* \"#utility.yul\":25604:25608   */\n      dup2\n        /* \"#utility.yul\":25478:25609   */\n      tag_338\n      jump\t// in\n    tag_572:\n        /* \"#utility.yul\":25470:25609   */\n      swap1\n      pop\n        /* \"#utility.yul\":25197:25616   */\n      swap2\n      swap1\n      pop\n      jump\t// out\n        /* \"#utility.yul\":25622:25701   */\n    tag_339:\n        /* \"#utility.yul\":25661:25668   */\n      0x00\n        /* \"#utility.yul\":25690:25695   */\n      dup2\n        /* \"#utility.yul\":25679:25695   */\n      swap1\n      pop\n        /* \"#utility.yul\":25622:25701   */\n      swap2\n      swap1\n      pop\n      jump\t// out\n        /* \"#utility.yul\":25707:25864   */\n    tag_340:\n        /* \"#utility.yul\":25812:25857   */\n      tag_575\n        /* \"#utility.yul\":25832:25856   */\n      tag_576\n        /* \"#utility.yul\":25850:25855   */\n      dup3\n        /* \"#utility.yul\":25832:25856   */\n      tag_285\n      jump\t// in\n    tag_576:\n        /* \"#utility.yul\":25812:25857   */\n      tag_339\n      jump\t// in\n    tag_575:\n        /* \"#utility.yul\":25807:25810   */\n      dup3\n        /* \"#utility.yul\":25800:25858   */\n      mstore\n        /* \"#utility.yul\":25707:25864   */\n      pop\n      pop\n      jump\t// out\n        /* \"#utility.yul\":25870:26267   */\n    tag_275:\n        /* \"#utility.yul\":26010:26013   */\n      0x00\n        /* \"#utility.yul\":26025:26100   */\n      tag_578\n        /* \"#utility.yul\":26096:26099   */\n      dup3\n        /* \"#utility.yul\":26087:26093   */\n      dup6\n        /* \"#utility.yul\":26025:26100   */\n      tag_340\n      jump\t// in\n    tag_578:\n        /* \"#utility.yul\":26125:26127   */\n      0x20\n        /* \"#utility.yul\":26120:26123   */\n      dup3\n        /* \"#utility.yul\":26116:26128   */\n      add\n        /* \"#utility.yul\":26109:26128   */\n      swap2\n      pop\n        /* \"#utility.yul\":26138:26213   */\n      tag_579\n        /* \"#utility.yul\":26209:26212   */\n      dup3\n        /* \"#utility.yul\":26200:26206   */\n      dup5\n        /* \"#utility.yul\":26138:26213   */\n      tag_340\n      jump\t// in\n    tag_579:\n        /* \"#utility.yul\":26238:26240   */\n      0x20\n        /* \"#utility.yul\":26233:26236   */\n      dup3\n        /* \"#utility.yul\":26229:26241   */\n      add\n        /* \"#utility.yul\":26222:26241   */\n      swap2\n      pop\n        /* \"#utility.yul\":26258:26261   */\n      dup2\n        /* \"#utility.yul\":26251:26261   */\n      swap1\n      pop\n        /* \"#utility.yul\":25870:26267   */\n      swap4\n      swap3\n      pop\n      pop\n      pop\n      jump\t// out\n        /* \"#utility.yul\":26273:26455   */\n    tag_341:\n        /* \"#utility.yul\":26413:26447   */\n      0x4f776e61626c653a2063616c6c6572206973206e6f7420746865206f776e6572\n        /* \"#utility.yul\":26409:26410   */\n      0x00\n        /* \"#utility.yul\":26401:26407   */\n      dup3\n        /* \"#utility.yul\":26397:26411   */\n      add\n        /* \"#utility.yul\":26390:26448   */\n      mstore\n        /* \"#utility.yul\":26273:26455   */\n      pop\n      jump\t// out\n        /* \"#utility.yul\":26461:26827   */\n    tag_342:\n        /* \"#utility.yul\":26603:26606   */\n      0x00\n        /* \"#utility.yul\":26624:26691   */\n      tag_582\n        /* \"#utility.yul\":26688:26690   */\n      0x20\n        /* \"#utility.yul\":26683:26686   */\n      dup4\n        /* \"#utility.yul\":26624:26691   */\n      tag_309\n      jump\t// in\n    tag_582:\n        /* \"#utility.yul\":26617:26691   */\n      swap2\n      pop\n        /* \"#utility.yul\":26700:26793   */\n      tag_583\n        /* \"#utility.yul\":26789:26792   */\n      dup3\n        /* \"#utility.yul\":26700:26793   */\n      tag_341\n      jump\t// in\n    tag_583:\n        /* \"#utility.yul\":26818:26820   */\n      0x20\n        /* \"#utility.yul\":26813:26816   */\n      dup3\n        /* \"#utility.yul\":26809:26821   */\n      add\n        /* \"#utility.yul\":26802:26821   */\n      swap1\n      pop\n        /* \"#utility.yul\":26461:26827   */\n      swap2\n      swap1\n      pop\n      jump\t// out\n        /* \"#utility.yul\":26833:27252   */\n    tag_282:\n        /* \"#utility.yul\":26999:27003   */\n      0x00\n        /* \"#utility.yul\":27037:27039   */\n      0x20\n        /* \"#utility.yul\":27026:27035   */\n      dup3\n        /* \"#utility.yul\":27022:27040   */\n      add\n        /* \"#utility.yul\":27014:27040   */\n      swap1\n      pop\n        /* \"#utility.yul\":27086:27095   */\n      dup2\n        /* \"#utility.yul\":27080:27084   */\n      dup2\n        /* \"#utility.yul\":27076:27096   */\n      sub\n        /* \"#utility.yul\":27072:27073   */\n      0x00\n        /* \"#utility.yul\":27061:27070   */\n      dup4\n        /* \"#utility.yul\":27057:27074   */\n      add\n        /* \"#utility.yul\":27050:27097   */\n      mstore\n        /* \"#utility.yul\":27114:27245   */\n      tag_585\n        /* \"#utility.yul\":27240:27244   */\n      dup2\n        /* \"#utility.yul\":27114:27245   */\n      tag_342\n      jump\t// in\n    tag_585:\n        /* \"#utility.yul\":27106:27245   */\n      swap1\n      pop\n        /* \"#utility.yul\":26833:27252   */\n      swap2\n      swap1\n      pop\n      jump\t// out\n\n    auxdata: 0xa2646970667358221220f7de0001bc5ef87ae935e5530ff2f7e761bed93bbdd43d92551ac826ffd931fd64736f6c63430008130033\n}\n",
				"bytecode": {
					"linkReferences": {},
					"object": "60a06040523480156200001157600080fd5b5060405162002e3a38038062002e3a8339818101604052810190620000379190620001ec565b620000576200004b620000a260201b60201c565b620000aa60201b60201c565b8073ffffffffffffffffffffffffffffffffffffffff1660808173ffffffffffffffffffffffffffffffffffffffff1681525050604b6008819055506000600981905550506200021e565b600033905090565b60008060009054906101000a900473ffffffffffffffffffffffffffffffffffffffff169050816000806101000a81548173ffffffffffffffffffffffffffffffffffffffff021916908373ffffffffffffffffffffffffffffffffffffffff1602179055508173ffffffffffffffffffffffffffffffffffffffff168173ffffffffffffffffffffffffffffffffffffffff167f8be0079c531659141344cd1fd0a4f28419497f9722a3daafe3b4186f6b6457e060405160405180910390a35050565b600080fd5b600073ffffffffffffffffffffffffffffffffffffffff82169050919050565b6000620001a08262000173565b9050919050565b6000620001b48262000193565b9050919050565b620001c681620001a7565b8114620001d257600080fd5b50565b600081519050620001e681620001bb565b92915050565b6000602082840312156200020557620002046200016e565b5b60006200021584828501620001d5565b91505092915050565b608051612bf262000248600039600081816107d001528181610dc4015261188b0152612bf26000f3fe608060405234801561001057600080fd5b506004361061014d5760003560e01c8063768114a4116100c3578063d270e7ab1161007c578063d270e7ab146103bd578063d46a5d7e146103db578063ea0217cf146103f7578063f2fde38b14610413578063fcff13f21461042f578063ffb185161461045f5761014d565b8063768114a4146102e857806387c42c41146103185780638da5cb5b146103495780639f5f3a6614610367578063a28889e114610383578063c2b7b868146103a15761014d565b8063438d649d11610115578063438d649d1461020a57806346e04a2f14610228578063564a565d1461024457806356eeafd91461027e5780636e6b2e2d146102ae578063715018a6146102de5761014d565b806302a251a31461015257806303d4d7e7146101705780630e7d5d4e146101a05780632c054503146101be5780633ded33bc146101ee575b600080fd5b61015a61048f565b6040516101679190611d6e565b60405180910390f35b61018a60048036038101906101859190611e18565b610495565b6040516101979190611d6e565b60405180910390f35b6101a86107ce565b6040516101b59190611ef2565b60405180910390f35b6101d860048036038101906101d39190611f0d565b6107f2565b6040516101e59190611f68565b60405180910390f35b61020860048036038101906102039190611f83565b6109b9565b005b610212610a05565b60405161021f9190611d6e565b60405180910390f35b610242600480360381019061023d9190611fb0565b610a0b565b005b61025e60048036038101906102599190611fb0565b610e69565b6040516102759b9a99989796959493929190611fec565b60405180910390f35b61029860048036038101906102939190612097565b610f2a565b6040516102a59190611d6e565b60405180910390f35b6102c860048036038101906102c39190611fb0565b610f4f565b6040516102d59190611d6e565b60405180910390f35b6102e6610f67565b005b61030260048036038101906102fd9190612097565b610f7b565b60405161030f9190611d6e565b60405180910390f35b610332600480360381019061032d9190612097565b610fa0565b6040516103409291906120d7565b60405180910390f35b610351611094565b60405161035e9190612100565b60405180910390f35b610381600480360381019061037c9190611fb0565b6110bd565b005b61038b61111f565b6040516103989190611d6e565b60405180910390f35b6103bb60048036038101906103b69190611fb0565b611125565b005b6103c5611631565b6040516103d29190612100565b60405180910390f35b6103f560048036038101906103f09190612147565b611657565b005b610411600480360381019061040c9190611fb0565b611b06565b005b61042d60048036038101906104289190611f83565b611b18565b005b61044960048036038101906104449190612097565b611b9b565b6040516104569190611d6e565b60405180910390f35b610479600480360381019061047491906121d0565b611bc0565b6040516104869190611d6e565b60405180910390f35b600a5481565b6000600160009054906101000a900473ffffffffffffffffffffffffffffffffffffffff1673ffffffffffffffffffffffffffffffffffffffff163373ffffffffffffffffffffffffffffffffffffffff1614610527576040517f08c379a000000000000000000000000000000000000000000000000000000000815260040161051e9061225a565b60405180910390fd5b61053184846107f2565b610570576040517f08c379a000000000000000000000000000000000000000000000000000000000815260040161056790612312565b60405180910390fd5b60006009600081548092919061058590612361565b9190505590506040518061016001604052808873ffffffffffffffffffffffffffffffffffffffff1681526020018773ffffffffffffffffffffffffffffffffffffffff1681526020018681526020018581526020018481526020016000815260200160008152602001600a54426105fd91906123a9565b8152602001600015158152602001600015158152602001600015158152506002600083815260200190815260200160002060008201518160000160006101000a81548173ffffffffffffffffffffffffffffffffffffffff021916908373ffffffffffffffffffffffffffffffffffffffff16021790555060208201518160010160006101000a81548173ffffffffffffffffffffffffffffffffffffffff021916908373ffffffffffffffffffffffffffffffffffffffff16021790555060408201518160020155606082015181600301556080820151816004015560a0820151816005015560c0820151816006015560e082015181600701556101008201518160080160006101000a81548160ff0219169083151502179055506101208201518160080160016101000a81548160ff0219169083151502179055506101408201518160080160026101000a81548160ff021916908315150217905550905050600061076a8686611bd8565b90508160076000838152602001908152602001600020819055508185877ffc7fbf4c318ba42af9b9bbbff385c82e86c3422dbbaf01ff414d0c96fa201ec78b8b6040516107b89291906123dd565b60405180910390a4819250505095945050505050565b7f000000000000000000000000000000000000000000000000000000000000000081565b6000806107ff8484611bd8565b90506000600760008381526020019081526020016000205490506000810361082c576001925050506109b3565b600060026000838152602001908152602001600020604051806101600160405290816000820160009054906101000a900473ffffffffffffffffffffffffffffffffffffffff1673ffffffffffffffffffffffffffffffffffffffff1673ffffffffffffffffffffffffffffffffffffffff1681526020016001820160009054906101000a900473ffffffffffffffffffffffffffffffffffffffff1673ffffffffffffffffffffffffffffffffffffffff1673ffffffffffffffffffffffffffffffffffffffff1681526020016002820154815260200160038201548152602001600482015481526020016005820154815260200160068201548152602001600782015481526020016008820160009054906101000a900460ff161515151581526020016008820160019054906101000a900460ff161515151581526020016008820160029054906101000a900460ff161515151581525050905080610120015115801561099f5750428160e0015111155b80156109ad57508061010001515b93505050505b92915050565b6109c1611c0b565b80600160006101000a81548173ffffffffffffffffffffffffffffffffffffffff021916908373ffffffffffffffffffffffffffffffffffffffff16021790555050565b60085481565b6009548110610a4f576040517f08c379a0000000000000000000000000000000000000000000000000000000008152600401610a4690612452565b60405180910390fd5b6002600082815260200190815260200160002060080160009054906101000a900460ff16610ab2576040517f08c379a0000000000000000000000000000000000000000000000000000000008152600401610aa9906124e4565b60405180910390fd5b60006003600083815260200190815260200160002060003373ffffffffffffffffffffffffffffffffffffffff1673ffffffffffffffffffffffffffffffffffffffff16815260200190815260200160002054905060008111610b4a576040517f08c379a0000000000000000000000000000000000000000000000000000000008152600401610b4190612550565b60405180910390fd5b600060026000848152602001908152602001600020600601546002600085815260200190815260200160002060050154610b8491906123a9565b9050600060085482610b969190612570565b60646002600087815260200190815260200160002060050154610bb99190612570565b10159050600060085483610bcd9190612570565b60646002600088815260200190815260200160002060060154610bf09190612570565b1015905060008280610bff5750815b90508015610d6c576000806004600089815260200190815260200160002060003373ffffffffffffffffffffffffffffffffffffffff1673ffffffffffffffffffffffffffffffffffffffff168152602001908152602001600020541190506000848015610c6a5750815b80610c7c5750838015610c7b575081155b5b9050600085610ca157600260008a815260200190815260200160002060060154610cb9565b600260008a8152602001908152602001600020600501545b9050600085610cde57600260008b815260200190815260200160002060060154610cf6565b600260008b8152602001908152602001600020600501545b90508215610d4b5760006064600a83610d0f9190612570565b610d1991906125e1565b9050600083828c610d2a9190612570565b610d3491906125e1565b9050808b610d4291906123a9565b9a505050610d67565b6064605a8a610d5a9190612570565b610d6491906125e1565b98505b505050505b60006003600088815260200190815260200160002060003373ffffffffffffffffffffffffffffffffffffffff1673ffffffffffffffffffffffffffffffffffffffff168152602001908152602001600020819055507f000000000000000000000000000000000000000000000000000000000000000073ffffffffffffffffffffffffffffffffffffffff1663a9059cbb33876040518363ffffffff1660e01b8152600401610e1d929190612612565b6020604051808303816000875af1158015610e3c573d6000803e3d6000fd5b505050506040513d601f19601f82011682018060405250810190610e609190612650565b50505050505050565b60026020528060005260406000206000915090508060000160009054906101000a900473ffffffffffffffffffffffffffffffffffffffff16908060010160009054906101000a900473ffffffffffffffffffffffffffffffffffffffff16908060020154908060030154908060040154908060050154908060060154908060070154908060080160009054906101000a900460ff16908060080160019054906101000a900460ff16908060080160029054906101000a900460ff1690508b565b6003602052816000526040600020602052806000526040600020600091509150505481565b60066020528060005260406000206000915090505481565b610f6f611c0b565b610f796000611c89565b565b6004602052816000526040600020602052806000526040600020600091509150505481565b6000806009548410610fe7576040517f08c379a0000000000000000000000000000000000000000000000000000000008152600401610fde90612452565b60405180910390fd5b6004600085815260200190815260200160002060008473ffffffffffffffffffffffffffffffffffffffff1673ffffffffffffffffffffffffffffffffffffffff1681526020019081526020016000205491506005600085815260200190815260200160002060008473ffffffffffffffffffffffffffffffffffffffff1673ffffffffffffffffffffffffffffffffffffffff1681526020019081526020016000205490509250929050565b60008060009054906101000a900473ffffffffffffffffffffffffffffffffffffffff16905090565b6110c5611c0b565b6000811180156110d6575060648111155b611115576040517f08c379a000000000000000000000000000000000000000000000000000000000815260040161110c906126c9565b60405180910390fd5b8060088190555050565b60095481565b6002600082815260200190815260200160002060080160019054906101000a900460ff1615611189576040517f08c379a00000000000000000000000000000000000000000000000000000000081526004016111809061275b565b60405180910390fd5b600260008281526020019081526020016000206007015442116111e1576040517f08c379a00000000000000000000000000000000000000000000000000000000081526004016111d8906127ed565b60405180910390fd5b60016002600083815260200190815260200160002060080160006101000a81548160ff021916908315150217905550807fe93bcea3fb8025890223c57613673081d7dfd54d4cd3bd40265281b2f0e699fb60405160405180910390a260006002600083815260200190815260200160002060060154600260008481526020019081526020016000206005015461127791906123a9565b9050600080821180156112f35750600854826112939190612570565b606460026000868152602001908152602001600020600501546112b69190612570565b1015806112f25750600854826112cc9190612570565b606460026000868152602001908152602001600020600601546112ef9190612570565b10155b5b156113015760019050611306565b600090505b6000811561162b576008548361131c9190612570565b6064600260008781526020019081526020016000206005015461133f9190612570565b1015905080156114885760016002600086815260200190815260200160002060080160026101000a81548160ff021916908315150217905550600160009054906101000a900473ffffffffffffffffffffffffffffffffffffffff1673ffffffffffffffffffffffffffffffffffffffff16637a30bde6600260008781526020019081526020016000206002015460026000888152602001908152602001600020600301546002600089815260200190815260200160002060000160009054906101000a900473ffffffffffffffffffffffffffffffffffffffff16600260008a8152602001908152602001600020600401546040518563ffffffff1660e01b8152600401611451949392919061282e565b600060405180830381600087803b15801561146b57600080fd5b505af115801561147f573d6000803e3d6000fd5b505050506115c3565b60006002600086815260200190815260200160002060080160026101000a81548160ff021916908315150217905550600160009054906101000a900473ffffffffffffffffffffffffffffffffffffffff1673ffffffffffffffffffffffffffffffffffffffff16637a30bde6600260008781526020019081526020016000206002015460026000888152602001908152602001600020600301546002600089815260200190815260200160002060010160009054906101000a900473ffffffffffffffffffffffffffffffffffffffff16600260008a8152602001908152602001600020600401546040518563ffffffff1660e01b8152600401611590949392919061282e565b600060405180830381600087803b1580156115aa57600080fd5b505af11580156115be573d6000803e3d6000fd5b505050505b60016002600086815260200190815260200160002060080160016101000a81548160ff021916908315150217905550837f5a87909bff68caaaaf0b3fd9c74eeccc928832f879315e5c6fb7a73612f26c0c826040516116229190611f68565b60405180910390a25b50505050565b600160009054906101000a900473ffffffffffffffffffffffffffffffffffffffff1681565b600954831061169b576040517f08c379a000000000000000000000000000000000000000000000000000000000815260040161169290612452565b60405180910390fd5b600260008481526020019081526020016000206007015442106116f3576040517f08c379a00000000000000000000000000000000000000000000000000000000081526004016116ea906128bf565b60405180910390fd5b6002600084815260200190815260200160002060080160019054906101000a900460ff1615611757576040517f08c379a000000000000000000000000000000000000000000000000000000000815260040161174e9061275b565b60405180910390fd5b81156117f55760006005600085815260200190815260200160002060003373ffffffffffffffffffffffffffffffffffffffff1673ffffffffffffffffffffffffffffffffffffffff16815260200190815260200160002054146117f0576040517f08c379a00000000000000000000000000000000000000000000000000000000081526004016117e790612951565b60405180910390fd5b611889565b60006004600085815260200190815260200160002060003373ffffffffffffffffffffffffffffffffffffffff1673ffffffffffffffffffffffffffffffffffffffff1681526020019081526020016000205414611888576040517f08c379a000000000000000000000000000000000000000000000000000000000815260040161187f906129e3565b60405180910390fd5b5b7f000000000000000000000000000000000000000000000000000000000000000073ffffffffffffffffffffffffffffffffffffffff166323b872dd3330846040518463ffffffff1660e01b81526004016118e693929190612a03565b6020604051808303816000875af1158015611905573d6000803e3d6000fd5b505050506040513d601f19601f820116820180604052508101906119299190612650565b50806003600085815260200190815260200160002060003373ffffffffffffffffffffffffffffffffffffffff1673ffffffffffffffffffffffffffffffffffffffff168152602001908152602001600020600082825461198a91906123a9565b925050819055508115611a3057806002600085815260200190815260200160002060050160008282546119bd91906123a9565b92505081905550806004600085815260200190815260200160002060003373ffffffffffffffffffffffffffffffffffffffff1673ffffffffffffffffffffffffffffffffffffffff1681526020019081526020016000206000828254611a2491906123a9565b92505081905550611ac5565b80600260008581526020019081526020016000206006016000828254611a5691906123a9565b92505081905550806005600085815260200190815260200160002060003373ffffffffffffffffffffffffffffffffffffffff1673ffffffffffffffffffffffffffffffffffffffff1681526020019081526020016000206000828254611abd91906123a9565b925050819055505b827fd5fbdad2a4bb43b8c8ee1becc8085bb21684241593a04bf8795a83f56436b43d338484604051611af993929190612a3a565b60405180910390a2505050565b611b0e611c0b565b80600a8190555050565b611b20611c0b565b600073ffffffffffffffffffffffffffffffffffffffff168173ffffffffffffffffffffffffffffffffffffffff1603611b8f576040517f08c379a0000000000000000000000000000000000000000000000000000000008152600401611b8690612ae3565b60405180910390fd5b611b9881611c89565b50565b6005602052816000526040600020602052806000526040600020600091509150505481565b60076020528060005260406000206000915090505481565b60008282604051602001611bed929190612b24565b60405160208183030381529060405280519060200120905092915050565b611c13611d4d565b73ffffffffffffffffffffffffffffffffffffffff16611c31611094565b73ffffffffffffffffffffffffffffffffffffffff1614611c87576040517f08c379a0000000000000000000000000000000000000000000000000000000008152600401611c7e90612b9c565b60405180910390fd5b565b60008060009054906101000a900473ffffffffffffffffffffffffffffffffffffffff169050816000806101000a81548173ffffffffffffffffffffffffffffffffffffffff021916908373ffffffffffffffffffffffffffffffffffffffff1602179055508173ffffffffffffffffffffffffffffffffffffffff168173ffffffffffffffffffffffffffffffffffffffff167f8be0079c531659141344cd1fd0a4f28419497f9722a3daafe3b4186f6b6457e060405160405180910390a35050565b600033905090565b6000819050919050565b611d6881611d55565b82525050565b6000602082019050611d836000830184611d5f565b92915050565b600080fd5b600073ffffffffffffffffffffffffffffffffffffffff82169050919050565b6000611db982611d8e565b9050919050565b611dc981611dae565b8114611dd457600080fd5b50565b600081359050611de681611dc0565b92915050565b611df581611d55565b8114611e0057600080fd5b50565b600081359050611e1281611dec565b92915050565b600080600080600060a08688031215611e3457611e33611d89565b5b6000611e4288828901611dd7565b9550506020611e5388828901611dd7565b9450506040611e6488828901611e03565b9350506060611e7588828901611e03565b9250506080611e8688828901611e03565b9150509295509295909350565b6000819050919050565b6000611eb8611eb3611eae84611d8e565b611e93565b611d8e565b9050919050565b6000611eca82611e9d565b9050919050565b6000611edc82611ebf565b9050919050565b611eec81611ed1565b82525050565b6000602082019050611f076000830184611ee3565b92915050565b60008060408385031215611f2457611f23611d89565b5b6000611f3285828601611e03565b9250506020611f4385828601611e03565b9150509250929050565b60008115159050919050565b611f6281611f4d565b82525050565b6000602082019050611f7d6000830184611f59565b92915050565b600060208284031215611f9957611f98611d89565b5b6000611fa784828501611dd7565b91505092915050565b600060208284031215611fc657611fc5611d89565b5b6000611fd484828501611e03565b91505092915050565b611fe681611dae565b82525050565b600061016082019050612002600083018e611fdd565b61200f602083018d611fdd565b61201c604083018c611d5f565b612029606083018b611d5f565b612036608083018a611d5f565b61204360a0830189611d5f565b61205060c0830188611d5f565b61205d60e0830187611d5f565b61206b610100830186611f59565b612079610120830185611f59565b612087610140830184611f59565b9c9b505050505050505050505050565b600080604083850312156120ae576120ad611d89565b5b60006120bc85828601611e03565b92505060206120cd85828601611dd7565b9150509250929050565b60006040820190506120ec6000830185611d5f565b6120f96020830184611d5f565b9392505050565b60006020820190506121156000830184611fdd565b92915050565b61212481611f4d565b811461212f57600080fd5b50565b6000813590506121418161211b565b92915050565b6000806000606084860312156121605761215f611d89565b5b600061216e86828701611e03565b935050602061217f86828701612132565b925050604061219086828701611e03565b9150509250925092565b6000819050919050565b6121ad8161219a565b81146121b857600080fd5b50565b6000813590506121ca816121a4565b92915050565b6000602082840312156121e6576121e5611d89565b5b60006121f4848285016121bb565b91505092915050565b600082825260208201905092915050565b7f43616c6c6572206973206e6f7420746865206d61696e20636f6e747261637400600082015250565b6000612244601f836121fd565b915061224f8261220e565b602082019050919050565b6000602082019050818103600083015261227381612237565b9050919050565b7f43616e6e6f74206372656174652061206e6577206469737075746520666f722060008201527f74686520676976656e2070726f706f73616c20616e642062757965722072657160208201527f7565737400000000000000000000000000000000000000000000000000000000604082015250565b60006122fc6044836121fd565b91506123078261227a565b606082019050919050565b6000602082019050818103600083015261232b816122ef565b9050919050565b7f4e487b7100000000000000000000000000000000000000000000000000000000600052601160045260246000fd5b600061236c82611d55565b91507fffffffffffffffffffffffffffffffffffffffffffffffffffffffffffffffff820361239e5761239d612332565b5b600182019050919050565b60006123b482611d55565b91506123bf83611d55565b92508282019050808211156123d7576123d6612332565b5b92915050565b60006040820190506123f26000830185611fdd565b6123ff6020830184611fdd565b9392505050565b7f496e76616c696420646973707574652049440000000000000000000000000000600082015250565b600061243c6012836121fd565b915061244782612406565b602082019050919050565b6000602082019050818103600083015261246b8161242f565b9050919050565b7f44697370757465207265736f6c7574696f6e20686173206e6f74206265656e2060008201527f617474656d707465642079657400000000000000000000000000000000000000602082015250565b60006124ce602d836121fd565b91506124d982612472565b604082019050919050565b600060208201905081810360008301526124fd816124c1565b9050919050565b7f4e6f20746f6b656e7320746f20636c61696d0000000000000000000000000000600082015250565b600061253a6012836121fd565b915061254582612504565b602082019050919050565b600060208201905081810360008301526125698161252d565b9050919050565b600061257b82611d55565b915061258683611d55565b925082820261259481611d55565b915082820484148315176125ab576125aa612332565b5b5092915050565b7f4e487b7100000000000000000000000000000000000000000000000000000000600052601260045260246000fd5b60006125ec82611d55565b91506125f783611d55565b925082612607576126066125b2565b5b828204905092915050565b60006040820190506126276000830185611fdd565b6126346020830184611d5f565b9392505050565b60008151905061264a8161211b565b92915050565b60006020828403121561266657612665611d89565b5b60006126748482850161263b565b91505092915050565b7f496e76616c6964207468726573686f6c64000000000000000000000000000000600082015250565b60006126b36011836121fd565b91506126be8261267d565b602082019050919050565b600060208201905081810360008301526126e2816126a6565b9050919050565b7f446973707574652068617320616c7265616479206265656e207265736f6c766560008201527f6400000000000000000000000000000000000000000000000000000000000000602082015250565b60006127456021836121fd565b9150612750826126e9565b604082019050919050565b6000602082019050818103600083015261277481612738565b9050919050565b7f54686520766f74696e6720706572696f64206973206e6f74206f76657220796560008201527f7421000000000000000000000000000000000000000000000000000000000000602082015250565b60006127d76022836121fd565b91506127e28261277b565b604082019050919050565b60006020820190508181036000830152612806816127ca565b9050919050565b600061281882611d8e565b9050919050565b6128288161280d565b82525050565b60006080820190506128436000830187611d5f565b6128506020830186611d5f565b61285d604083018561281f565b61286a6060830184611d5f565b95945050505050565b7f566f74696e6720706572696f64206973206f7665720000000000000000000000600082015250565b60006128a96015836121fd565b91506128b482612873565b602082019050919050565b600060208201905081810360008301526128d88161289c565b9050919050565b7f566f7465722068617320616c726561647920766f74656420666f72207468652060008201527f73656c6c65720000000000000000000000000000000000000000000000000000602082015250565b600061293b6026836121fd565b9150612946826128df565b604082019050919050565b6000602082019050818103600083015261296a8161292e565b9050919050565b7f566f7465722068617320616c726561647920766f74656420666f72207468652060008201527f6275796572000000000000000000000000000000000000000000000000000000602082015250565b60006129cd6025836121fd565b91506129d882612971565b604082019050919050565b600060208201905081810360008301526129fc816129c0565b9050919050565b6000606082019050612a186000830186611fdd565b612a256020830185611fdd565b612a326040830184611d5f565b949350505050565b6000606082019050612a4f6000830186611fdd565b612a5c6020830185611f59565b612a696040830184611d5f565b949350505050565b7f4f776e61626c653a206e6577206f776e657220697320746865207a65726f206160008201527f6464726573730000000000000000000000000000000000000000000000000000602082015250565b6000612acd6026836121fd565b9150612ad882612a71565b604082019050919050565b60006020820190508181036000830152612afc81612ac0565b9050919050565b6000819050919050565b612b1e612b1982611d55565b612b03565b82525050565b6000612b308285612b0d565b602082019150612b408284612b0d565b6020820191508190509392505050565b7f4f776e61626c653a2063616c6c6572206973206e6f7420746865206f776e6572600082015250565b6000612b866020836121fd565b9150612b9182612b50565b602082019050919050565b60006020820190508181036000830152612bb581612b79565b905091905056fea2646970667358221220f7de0001bc5ef87ae935e5530ff2f7e761bed93bbdd43d92551ac826ffd931fd64736f6c63430008130033",
					"opcodes": "PUSH1 0xA0 PUSH1 0x40 MSTORE CALLVALUE DUP1 ISZERO PUSH3 0x11 JUMPI PUSH1 0x0 DUP1 REVERT JUMPDEST POP PUSH1 0x40 MLOAD PUSH3 0x2E3A CODESIZE SUB DUP1 PUSH3 0x2E3A DUP4 CODECOPY DUP2 DUP2 ADD PUSH1 0x40 MSTORE DUP2 ADD SWAP1 PUSH3 0x37 SWAP2 SWAP1 PUSH3 0x1EC JUMP JUMPDEST PUSH3 0x57 PUSH3 0x4B PUSH3 0xA2 PUSH1 0x20 SHL PUSH1 0x20 SHR JUMP JUMPDEST PUSH3 0xAA PUSH1 0x20 SHL PUSH1 0x20 SHR JUMP JUMPDEST DUP1 PUSH20 0xFFFFFFFFFFFFFFFFFFFFFFFFFFFFFFFFFFFFFFFF AND PUSH1 0x80 DUP2 PUSH20 0xFFFFFFFFFFFFFFFFFFFFFFFFFFFFFFFFFFFFFFFF AND DUP2 MSTORE POP POP PUSH1 0x4B PUSH1 0x8 DUP2 SWAP1 SSTORE POP PUSH1 0x0 PUSH1 0x9 DUP2 SWAP1 SSTORE POP POP PUSH3 0x21E JUMP JUMPDEST PUSH1 0x0 CALLER SWAP1 POP SWAP1 JUMP JUMPDEST PUSH1 0x0 DUP1 PUSH1 0x0 SWAP1 SLOAD SWAP1 PUSH2 0x100 EXP SWAP1 DIV PUSH20 0xFFFFFFFFFFFFFFFFFFFFFFFFFFFFFFFFFFFFFFFF AND SWAP1 POP DUP2 PUSH1 0x0 DUP1 PUSH2 0x100 EXP DUP2 SLOAD DUP2 PUSH20 0xFFFFFFFFFFFFFFFFFFFFFFFFFFFFFFFFFFFFFFFF MUL NOT AND SWAP1 DUP4 PUSH20 0xFFFFFFFFFFFFFFFFFFFFFFFFFFFFFFFFFFFFFFFF AND MUL OR SWAP1 SSTORE POP DUP2 PUSH20 0xFFFFFFFFFFFFFFFFFFFFFFFFFFFFFFFFFFFFFFFF AND DUP2 PUSH20 0xFFFFFFFFFFFFFFFFFFFFFFFFFFFFFFFFFFFFFFFF AND PUSH32 0x8BE0079C531659141344CD1FD0A4F28419497F9722A3DAAFE3B4186F6B6457E0 PUSH1 0x40 MLOAD PUSH1 0x40 MLOAD DUP1 SWAP2 SUB SWAP1 LOG3 POP POP JUMP JUMPDEST PUSH1 0x0 DUP1 REVERT JUMPDEST PUSH1 0x0 PUSH20 0xFFFFFFFFFFFFFFFFFFFFFFFFFFFFFFFFFFFFFFFF DUP3 AND SWAP1 POP SWAP2 SWAP1 POP JUMP JUMPDEST PUSH1 0x0 PUSH3 0x1A0 DUP3 PUSH3 0x173 JUMP JUMPDEST SWAP1 POP SWAP2 SWAP1 POP JUMP JUMPDEST PUSH1 0x0 PUSH3 0x1B4 DUP3 PUSH3 0x193 JUMP JUMPDEST SWAP1 POP SWAP2 SWAP1 POP JUMP JUMPDEST PUSH3 0x1C6 DUP2 PUSH3 0x1A7 JUMP JUMPDEST DUP2 EQ PUSH3 0x1D2 JUMPI PUSH1 0x0 DUP1 REVERT JUMPDEST POP JUMP JUMPDEST PUSH1 0x0 DUP2 MLOAD SWAP1 POP PUSH3 0x1E6 DUP2 PUSH3 0x1BB JUMP JUMPDEST SWAP3 SWAP2 POP POP JUMP JUMPDEST PUSH1 0x0 PUSH1 0x20 DUP3 DUP5 SUB SLT ISZERO PUSH3 0x205 JUMPI PUSH3 0x204 PUSH3 0x16E JUMP JUMPDEST JUMPDEST PUSH1 0x0 PUSH3 0x215 DUP5 DUP3 DUP6 ADD PUSH3 0x1D5 JUMP JUMPDEST SWAP2 POP POP SWAP3 SWAP2 POP POP JUMP JUMPDEST PUSH1 0x80 MLOAD PUSH2 0x2BF2 PUSH3 0x248 PUSH1 0x0 CODECOPY PUSH1 0x0 DUP2 DUP2 PUSH2 0x7D0 ADD MSTORE DUP2 DUP2 PUSH2 0xDC4 ADD MSTORE PUSH2 0x188B ADD MSTORE PUSH2 0x2BF2 PUSH1 0x0 RETURN INVALID PUSH1 0x80 PUSH1 0x40 MSTORE CALLVALUE DUP1 ISZERO PUSH2 0x10 JUMPI PUSH1 0x0 DUP1 REVERT JUMPDEST POP PUSH1 0x4 CALLDATASIZE LT PUSH2 0x14D JUMPI PUSH1 0x0 CALLDATALOAD PUSH1 0xE0 SHR DUP1 PUSH4 0x768114A4 GT PUSH2 0xC3 JUMPI DUP1 PUSH4 0xD270E7AB GT PUSH2 0x7C JUMPI DUP1 PUSH4 0xD270E7AB EQ PUSH2 0x3BD JUMPI DUP1 PUSH4 0xD46A5D7E EQ PUSH2 0x3DB JUMPI DUP1 PUSH4 0xEA0217CF EQ PUSH2 0x3F7 JUMPI DUP1 PUSH4 0xF2FDE38B EQ PUSH2 0x413 JUMPI DUP1 PUSH4 0xFCFF13F2 EQ PUSH2 0x42F JUMPI DUP1 PUSH4 0xFFB18516 EQ PUSH2 0x45F JUMPI PUSH2 0x14D JUMP JUMPDEST DUP1 PUSH4 0x768114A4 EQ PUSH2 0x2E8 JUMPI DUP1 PUSH4 0x87C42C41 EQ PUSH2 0x318 JUMPI DUP1 PUSH4 0x8DA5CB5B EQ PUSH2 0x349 JUMPI DUP1 PUSH4 0x9F5F3A66 EQ PUSH2 0x367 JUMPI DUP1 PUSH4 0xA28889E1 EQ PUSH2 0x383 JUMPI DUP1 PUSH4 0xC2B7B868 EQ PUSH2 0x3A1 JUMPI PUSH2 0x14D JUMP JUMPDEST DUP1 PUSH4 0x438D649D GT PUSH2 0x115 JUMPI DUP1 PUSH4 0x438D649D EQ PUSH2 0x20A JUMPI DUP1 PUSH4 0x46E04A2F EQ PUSH2 0x228 JUMPI DUP1 PUSH4 0x564A565D EQ PUSH2 0x244 JUMPI DUP1 PUSH4 0x56EEAFD9 EQ PUSH2 0x27E JUMPI DUP1 PUSH4 0x6E6B2E2D EQ PUSH2 0x2AE JUMPI DUP1 PUSH4 0x715018A6 EQ PUSH2 0x2DE JUMPI PUSH2 0x14D JUMP JUMPDEST DUP1 PUSH4 0x2A251A3 EQ PUSH2 0x152 JUMPI DUP1 PUSH4 0x3D4D7E7 EQ PUSH2 0x170 JUMPI DUP1 PUSH4 0xE7D5D4E EQ PUSH2 0x1A0 JUMPI DUP1 PUSH4 0x2C054503 EQ PUSH2 0x1BE JUMPI DUP1 PUSH4 0x3DED33BC EQ PUSH2 0x1EE JUMPI JUMPDEST PUSH1 0x0 DUP1 REVERT JUMPDEST PUSH2 0x15A PUSH2 0x48F JUMP JUMPDEST PUSH1 0x40 MLOAD PUSH2 0x167 SWAP2 SWAP1 PUSH2 0x1D6E JUMP JUMPDEST PUSH1 0x40 MLOAD DUP1 SWAP2 SUB SWAP1 RETURN JUMPDEST PUSH2 0x18A PUSH1 0x4 DUP1 CALLDATASIZE SUB DUP2 ADD SWAP1 PUSH2 0x185 SWAP2 SWAP1 PUSH2 0x1E18 JUMP JUMPDEST PUSH2 0x495 JUMP JUMPDEST PUSH1 0x40 MLOAD PUSH2 0x197 SWAP2 SWAP1 PUSH2 0x1D6E JUMP JUMPDEST PUSH1 0x40 MLOAD DUP1 SWAP2 SUB SWAP1 RETURN JUMPDEST PUSH2 0x1A8 PUSH2 0x7CE JUMP JUMPDEST PUSH1 0x40 MLOAD PUSH2 0x1B5 SWAP2 SWAP1 PUSH2 0x1EF2 JUMP JUMPDEST PUSH1 0x40 MLOAD DUP1 SWAP2 SUB SWAP1 RETURN JUMPDEST PUSH2 0x1D8 PUSH1 0x4 DUP1 CALLDATASIZE SUB DUP2 ADD SWAP1 PUSH2 0x1D3 SWAP2 SWAP1 PUSH2 0x1F0D JUMP JUMPDEST PUSH2 0x7F2 JUMP JUMPDEST PUSH1 0x40 MLOAD PUSH2 0x1E5 SWAP2 SWAP1 PUSH2 0x1F68 JUMP JUMPDEST PUSH1 0x40 MLOAD DUP1 SWAP2 SUB SWAP1 RETURN JUMPDEST PUSH2 0x208 PUSH1 0x4 DUP1 CALLDATASIZE SUB DUP2 ADD SWAP1 PUSH2 0x203 SWAP2 SWAP1 PUSH2 0x1F83 JUMP JUMPDEST PUSH2 0x9B9 JUMP JUMPDEST STOP JUMPDEST PUSH2 0x212 PUSH2 0xA05 JUMP JUMPDEST PUSH1 0x40 MLOAD PUSH2 0x21F SWAP2 SWAP1 PUSH2 0x1D6E JUMP JUMPDEST PUSH1 0x40 MLOAD DUP1 SWAP2 SUB SWAP1 RETURN JUMPDEST PUSH2 0x242 PUSH1 0x4 DUP1 CALLDATASIZE SUB DUP2 ADD SWAP1 PUSH2 0x23D SWAP2 SWAP1 PUSH2 0x1FB0 JUMP JUMPDEST PUSH2 0xA0B JUMP JUMPDEST STOP JUMPDEST PUSH2 0x25E PUSH1 0x4 DUP1 CALLDATASIZE SUB DUP2 ADD SWAP1 PUSH2 0x259 SWAP2 SWAP1 PUSH2 0x1FB0 JUMP JUMPDEST PUSH2 0xE69 JUMP JUMPDEST PUSH1 0x40 MLOAD PUSH2 0x275 SWAP12 SWAP11 SWAP10 SWAP9 SWAP8 SWAP7 SWAP6 SWAP5 SWAP4 SWAP3 SWAP2 SWAP1 PUSH2 0x1FEC JUMP JUMPDEST PUSH1 0x40 MLOAD DUP1 SWAP2 SUB SWAP1 RETURN JUMPDEST PUSH2 0x298 PUSH1 0x4 DUP1 CALLDATASIZE SUB DUP2 ADD SWAP1 PUSH2 0x293 SWAP2 SWAP1 PUSH2 0x2097 JUMP JUMPDEST PUSH2 0xF2A JUMP JUMPDEST PUSH1 0x40 MLOAD PUSH2 0x2A5 SWAP2 SWAP1 PUSH2 0x1D6E JUMP JUMPDEST PUSH1 0x40 MLOAD DUP1 SWAP2 SUB SWAP1 RETURN JUMPDEST PUSH2 0x2C8 PUSH1 0x4 DUP1 CALLDATASIZE SUB DUP2 ADD SWAP1 PUSH2 0x2C3 SWAP2 SWAP1 PUSH2 0x1FB0 JUMP JUMPDEST PUSH2 0xF4F JUMP JUMPDEST PUSH1 0x40 MLOAD PUSH2 0x2D5 SWAP2 SWAP1 PUSH2 0x1D6E JUMP JUMPDEST PUSH1 0x40 MLOAD DUP1 SWAP2 SUB SWAP1 RETURN JUMPDEST PUSH2 0x2E6 PUSH2 0xF67 JUMP JUMPDEST STOP JUMPDEST PUSH2 0x302 PUSH1 0x4 DUP1 CALLDATASIZE SUB DUP2 ADD SWAP1 PUSH2 0x2FD SWAP2 SWAP1 PUSH2 0x2097 JUMP JUMPDEST PUSH2 0xF7B JUMP JUMPDEST PUSH1 0x40 MLOAD PUSH2 0x30F SWAP2 SWAP1 PUSH2 0x1D6E JUMP JUMPDEST PUSH1 0x40 MLOAD DUP1 SWAP2 SUB SWAP1 RETURN JUMPDEST PUSH2 0x332 PUSH1 0x4 DUP1 CALLDATASIZE SUB DUP2 ADD SWAP1 PUSH2 0x32D SWAP2 SWAP1 PUSH2 0x2097 JUMP JUMPDEST PUSH2 0xFA0 JUMP JUMPDEST PUSH1 0x40 MLOAD PUSH2 0x340 SWAP3 SWAP2 SWAP1 PUSH2 0x20D7 JUMP JUMPDEST PUSH1 0x40 MLOAD DUP1 SWAP2 SUB SWAP1 RETURN JUMPDEST PUSH2 0x351 PUSH2 0x1094 JUMP JUMPDEST PUSH1 0x40 MLOAD PUSH2 0x35E SWAP2 SWAP1 PUSH2 0x2100 JUMP JUMPDEST PUSH1 0x40 MLOAD DUP1 SWAP2 SUB SWAP1 RETURN JUMPDEST PUSH2 0x381 PUSH1 0x4 DUP1 CALLDATASIZE SUB DUP2 ADD SWAP1 PUSH2 0x37C SWAP2 SWAP1 PUSH2 0x1FB0 JUMP JUMPDEST PUSH2 0x10BD JUMP JUMPDEST STOP JUMPDEST PUSH2 0x38B PUSH2 0x111F JUMP JUMPDEST PUSH1 0x40 MLOAD PUSH2 0x398 SWAP2 SWAP1 PUSH2 0x1D6E JUMP JUMPDEST PUSH1 0x40 MLOAD DUP1 SWAP2 SUB SWAP1 RETURN JUMPDEST PUSH2 0x3BB PUSH1 0x4 DUP1 CALLDATASIZE SUB DUP2 ADD SWAP1 PUSH2 0x3B6 SWAP2 SWAP1 PUSH2 0x1FB0 JUMP JUMPDEST PUSH2 0x1125 JUMP JUMPDEST STOP JUMPDEST PUSH2 0x3C5 PUSH2 0x1631 JUMP JUMPDEST PUSH1 0x40 MLOAD PUSH2 0x3D2 SWAP2 SWAP1 PUSH2 0x2100 JUMP JUMPDEST PUSH1 0x40 MLOAD DUP1 SWAP2 SUB SWAP1 RETURN JUMPDEST PUSH2 0x3F5 PUSH1 0x4 DUP1 CALLDATASIZE SUB DUP2 ADD SWAP1 PUSH2 0x3F0 SWAP2 SWAP1 PUSH2 0x2147 JUMP JUMPDEST PUSH2 0x1657 JUMP JUMPDEST STOP JUMPDEST PUSH2 0x411 PUSH1 0x4 DUP1 CALLDATASIZE SUB DUP2 ADD SWAP1 PUSH2 0x40C SWAP2 SWAP1 PUSH2 0x1FB0 JUMP JUMPDEST PUSH2 0x1B06 JUMP JUMPDEST STOP JUMPDEST PUSH2 0x42D PUSH1 0x4 DUP1 CALLDATASIZE SUB DUP2 ADD SWAP1 PUSH2 0x428 SWAP2 SWAP1 PUSH2 0x1F83 JUMP JUMPDEST PUSH2 0x1B18 JUMP JUMPDEST STOP JUMPDEST PUSH2 0x449 PUSH1 0x4 DUP1 CALLDATASIZE SUB DUP2 ADD SWAP1 PUSH2 0x444 SWAP2 SWAP1 PUSH2 0x2097 JUMP JUMPDEST PUSH2 0x1B9B JUMP JUMPDEST PUSH1 0x40 MLOAD PUSH2 0x456 SWAP2 SWAP1 PUSH2 0x1D6E JUMP JUMPDEST PUSH1 0x40 MLOAD DUP1 SWAP2 SUB SWAP1 RETURN JUMPDEST PUSH2 0x479 PUSH1 0x4 DUP1 CALLDATASIZE SUB DUP2 ADD SWAP1 PUSH2 0x474 SWAP2 SWAP1 PUSH2 0x21D0 JUMP JUMPDEST PUSH2 0x1BC0 JUMP JUMPDEST PUSH1 0x40 MLOAD PUSH2 0x486 SWAP2 SWAP1 PUSH2 0x1D6E JUMP JUMPDEST PUSH1 0x40 MLOAD DUP1 SWAP2 SUB SWAP1 RETURN JUMPDEST PUSH1 0xA SLOAD DUP2 JUMP JUMPDEST PUSH1 0x0 PUSH1 0x1 PUSH1 0x0 SWAP1 SLOAD SWAP1 PUSH2 0x100 EXP SWAP1 DIV PUSH20 0xFFFFFFFFFFFFFFFFFFFFFFFFFFFFFFFFFFFFFFFF AND PUSH20 0xFFFFFFFFFFFFFFFFFFFFFFFFFFFFFFFFFFFFFFFF AND CALLER PUSH20 0xFFFFFFFFFFFFFFFFFFFFFFFFFFFFFFFFFFFFFFFF AND EQ PUSH2 0x527 JUMPI PUSH1 0x40 MLOAD PUSH32 0x8C379A000000000000000000000000000000000000000000000000000000000 DUP2 MSTORE PUSH1 0x4 ADD PUSH2 0x51E SWAP1 PUSH2 0x225A JUMP JUMPDEST PUSH1 0x40 MLOAD DUP1 SWAP2 SUB SWAP1 REVERT JUMPDEST PUSH2 0x531 DUP5 DUP5 PUSH2 0x7F2 JUMP JUMPDEST PUSH2 0x570 JUMPI PUSH1 0x40 MLOAD PUSH32 0x8C379A000000000000000000000000000000000000000000000000000000000 DUP2 MSTORE PUSH1 0x4 ADD PUSH2 0x567 SWAP1 PUSH2 0x2312 JUMP JUMPDEST PUSH1 0x40 MLOAD DUP1 SWAP2 SUB SWAP1 REVERT JUMPDEST PUSH1 0x0 PUSH1 0x9 PUSH1 0x0 DUP2 SLOAD DUP1 SWAP3 SWAP2 SWAP1 PUSH2 0x585 SWAP1 PUSH2 0x2361 JUMP JUMPDEST SWAP2 SWAP1 POP SSTORE SWAP1 POP PUSH1 0x40 MLOAD DUP1 PUSH2 0x160 ADD PUSH1 0x40 MSTORE DUP1 DUP9 PUSH20 0xFFFFFFFFFFFFFFFFFFFFFFFFFFFFFFFFFFFFFFFF AND DUP2 MSTORE PUSH1 0x20 ADD DUP8 PUSH20 0xFFFFFFFFFFFFFFFFFFFFFFFFFFFFFFFFFFFFFFFF AND DUP2 MSTORE PUSH1 0x20 ADD DUP7 DUP2 MSTORE PUSH1 0x20 ADD DUP6 DUP2 MSTORE PUSH1 0x20 ADD DUP5 DUP2 MSTORE PUSH1 0x20 ADD PUSH1 0x0 DUP2 MSTORE PUSH1 0x20 ADD PUSH1 0x0 DUP2 MSTORE PUSH1 0x20 ADD PUSH1 0xA SLOAD TIMESTAMP PUSH2 0x5FD SWAP2 SWAP1 PUSH2 0x23A9 JUMP JUMPDEST DUP2 MSTORE PUSH1 0x20 ADD PUSH1 0x0 ISZERO ISZERO DUP2 MSTORE PUSH1 0x20 ADD PUSH1 0x0 ISZERO ISZERO DUP2 MSTORE PUSH1 0x20 ADD PUSH1 0x0 ISZERO ISZERO DUP2 MSTORE POP PUSH1 0x2 PUSH1 0x0 DUP4 DUP2 MSTORE PUSH1 0x20 ADD SWAP1 DUP2 MSTORE PUSH1 0x20 ADD PUSH1 0x0 KECCAK256 PUSH1 0x0 DUP3 ADD MLOAD DUP2 PUSH1 0x0 ADD PUSH1 0x0 PUSH2 0x100 EXP DUP2 SLOAD DUP2 PUSH20 0xFFFFFFFFFFFFFFFFFFFFFFFFFFFFFFFFFFFFFFFF MUL NOT AND SWAP1 DUP4 PUSH20 0xFFFFFFFFFFFFFFFFFFFFFFFFFFFFFFFFFFFFFFFF AND MUL OR SWAP1 SSTORE POP PUSH1 0x20 DUP3 ADD MLOAD DUP2 PUSH1 0x1 ADD PUSH1 0x0 PUSH2 0x100 EXP DUP2 SLOAD DUP2 PUSH20 0xFFFFFFFFFFFFFFFFFFFFFFFFFFFFFFFFFFFFFFFF MUL NOT AND SWAP1 DUP4 PUSH20 0xFFFFFFFFFFFFFFFFFFFFFFFFFFFFFFFFFFFFFFFF AND MUL OR SWAP1 SSTORE POP PUSH1 0x40 DUP3 ADD MLOAD DUP2 PUSH1 0x2 ADD SSTORE PUSH1 0x60 DUP3 ADD MLOAD DUP2 PUSH1 0x3 ADD SSTORE PUSH1 0x80 DUP3 ADD MLOAD DUP2 PUSH1 0x4 ADD SSTORE PUSH1 0xA0 DUP3 ADD MLOAD DUP2 PUSH1 0x5 ADD SSTORE PUSH1 0xC0 DUP3 ADD MLOAD DUP2 PUSH1 0x6 ADD SSTORE PUSH1 0xE0 DUP3 ADD MLOAD DUP2 PUSH1 0x7 ADD SSTORE PUSH2 0x100 DUP3 ADD MLOAD DUP2 PUSH1 0x8 ADD PUSH1 0x0 PUSH2 0x100 EXP DUP2 SLOAD DUP2 PUSH1 0xFF MUL NOT AND SWAP1 DUP4 ISZERO ISZERO MUL OR SWAP1 SSTORE POP PUSH2 0x120 DUP3 ADD MLOAD DUP2 PUSH1 0x8 ADD PUSH1 0x1 PUSH2 0x100 EXP DUP2 SLOAD DUP2 PUSH1 0xFF MUL NOT AND SWAP1 DUP4 ISZERO ISZERO MUL OR SWAP1 SSTORE POP PUSH2 0x140 DUP3 ADD MLOAD DUP2 PUSH1 0x8 ADD PUSH1 0x2 PUSH2 0x100 EXP DUP2 SLOAD DUP2 PUSH1 0xFF MUL NOT AND SWAP1 DUP4 ISZERO ISZERO MUL OR SWAP1 SSTORE POP SWAP1 POP POP PUSH1 0x0 PUSH2 0x76A DUP7 DUP7 PUSH2 0x1BD8 JUMP JUMPDEST SWAP1 POP DUP2 PUSH1 0x7 PUSH1 0x0 DUP4 DUP2 MSTORE PUSH1 0x20 ADD SWAP1 DUP2 MSTORE PUSH1 0x20 ADD PUSH1 0x0 KECCAK256 DUP2 SWAP1 SSTORE POP DUP2 DUP6 DUP8 PUSH32 0xFC7FBF4C318BA42AF9B9BBBFF385C82E86C3422DBBAF01FF414D0C96FA201EC7 DUP12 DUP12 PUSH1 0x40 MLOAD PUSH2 0x7B8 SWAP3 SWAP2 SWAP1 PUSH2 0x23DD JUMP JUMPDEST PUSH1 0x40 MLOAD DUP1 SWAP2 SUB SWAP1 LOG4 DUP2 SWAP3 POP POP POP SWAP6 SWAP5 POP POP POP POP POP JUMP JUMPDEST PUSH32 0x0 DUP2 JUMP JUMPDEST PUSH1 0x0 DUP1 PUSH2 0x7FF DUP5 DUP5 PUSH2 0x1BD8 JUMP JUMPDEST SWAP1 POP PUSH1 0x0 PUSH1 0x7 PUSH1 0x0 DUP4 DUP2 MSTORE PUSH1 0x20 ADD SWAP1 DUP2 MSTORE PUSH1 0x20 ADD PUSH1 0x0 KECCAK256 SLOAD SWAP1 POP PUSH1 0x0 DUP2 SUB PUSH2 0x82C JUMPI PUSH1 0x1 SWAP3 POP POP POP PUSH2 0x9B3 JUMP JUMPDEST PUSH1 0x0 PUSH1 0x2 PUSH1 0x0 DUP4 DUP2 MSTORE PUSH1 0x20 ADD SWAP1 DUP2 MSTORE PUSH1 0x20 ADD PUSH1 0x0 KECCAK256 PUSH1 0x40 MLOAD DUP1 PUSH2 0x160 ADD PUSH1 0x40 MSTORE SWAP1 DUP2 PUSH1 0x0 DUP3 ADD PUSH1 0x0 SWAP1 SLOAD SWAP1 PUSH2 0x100 EXP SWAP1 DIV PUSH20 0xFFFFFFFFFFFFFFFFFFFFFFFFFFFFFFFFFFFFFFFF AND PUSH20 0xFFFFFFFFFFFFFFFFFFFFFFFFFFFFFFFFFFFFFFFF AND PUSH20 0xFFFFFFFFFFFFFFFFFFFFFFFFFFFFFFFFFFFFFFFF AND DUP2 MSTORE PUSH1 0x20 ADD PUSH1 0x1 DUP3 ADD PUSH1 0x0 SWAP1 SLOAD SWAP1 PUSH2 0x100 EXP SWAP1 DIV PUSH20 0xFFFFFFFFFFFFFFFFFFFFFFFFFFFFFFFFFFFFFFFF AND PUSH20 0xFFFFFFFFFFFFFFFFFFFFFFFFFFFFFFFFFFFFFFFF AND PUSH20 0xFFFFFFFFFFFFFFFFFFFFFFFFFFFFFFFFFFFFFFFF AND DUP2 MSTORE PUSH1 0x20 ADD PUSH1 0x2 DUP3 ADD SLOAD DUP2 MSTORE PUSH1 0x20 ADD PUSH1 0x3 DUP3 ADD SLOAD DUP2 MSTORE PUSH1 0x20 ADD PUSH1 0x4 DUP3 ADD SLOAD DUP2 MSTORE PUSH1 0x20 ADD PUSH1 0x5 DUP3 ADD SLOAD DUP2 MSTORE PUSH1 0x20 ADD PUSH1 0x6 DUP3 ADD SLOAD DUP2 MSTORE PUSH1 0x20 ADD PUSH1 0x7 DUP3 ADD SLOAD DUP2 MSTORE PUSH1 0x20 ADD PUSH1 0x8 DUP3 ADD PUSH1 0x0 SWAP1 SLOAD SWAP1 PUSH2 0x100 EXP SWAP1 DIV PUSH1 0xFF AND ISZERO ISZERO ISZERO ISZERO DUP2 MSTORE PUSH1 0x20 ADD PUSH1 0x8 DUP3 ADD PUSH1 0x1 SWAP1 SLOAD SWAP1 PUSH2 0x100 EXP SWAP1 DIV PUSH1 0xFF AND ISZERO ISZERO ISZERO ISZERO DUP2 MSTORE PUSH1 0x20 ADD PUSH1 0x8 DUP3 ADD PUSH1 0x2 SWAP1 SLOAD SWAP1 PUSH2 0x100 EXP SWAP1 DIV PUSH1 0xFF AND ISZERO ISZERO ISZERO ISZERO DUP2 MSTORE POP POP SWAP1 POP DUP1 PUSH2 0x120 ADD MLOAD ISZERO DUP1 ISZERO PUSH2 0x99F JUMPI POP TIMESTAMP DUP2 PUSH1 0xE0 ADD MLOAD GT ISZERO JUMPDEST DUP1 ISZERO PUSH2 0x9AD JUMPI POP DUP1 PUSH2 0x100 ADD MLOAD JUMPDEST SWAP4 POP POP POP POP JUMPDEST SWAP3 SWAP2 POP POP JUMP JUMPDEST PUSH2 0x9C1 PUSH2 0x1C0B JUMP JUMPDEST DUP1 PUSH1 0x1 PUSH1 0x0 PUSH2 0x100 EXP DUP2 SLOAD DUP2 PUSH20 0xFFFFFFFFFFFFFFFFFFFFFFFFFFFFFFFFFFFFFFFF MUL NOT AND SWAP1 DUP4 PUSH20 0xFFFFFFFFFFFFFFFFFFFFFFFFFFFFFFFFFFFFFFFF AND MUL OR SWAP1 SSTORE POP POP JUMP JUMPDEST PUSH1 0x8 SLOAD DUP2 JUMP JUMPDEST PUSH1 0x9 SLOAD DUP2 LT PUSH2 0xA4F JUMPI PUSH1 0x40 MLOAD PUSH32 0x8C379A000000000000000000000000000000000000000000000000000000000 DUP2 MSTORE PUSH1 0x4 ADD PUSH2 0xA46 SWAP1 PUSH2 0x2452 JUMP JUMPDEST PUSH1 0x40 MLOAD DUP1 SWAP2 SUB SWAP1 REVERT JUMPDEST PUSH1 0x2 PUSH1 0x0 DUP3 DUP2 MSTORE PUSH1 0x20 ADD SWAP1 DUP2 MSTORE PUSH1 0x20 ADD PUSH1 0x0 KECCAK256 PUSH1 0x8 ADD PUSH1 0x0 SWAP1 SLOAD SWAP1 PUSH2 0x100 EXP SWAP1 DIV PUSH1 0xFF AND PUSH2 0xAB2 JUMPI PUSH1 0x40 MLOAD PUSH32 0x8C379A000000000000000000000000000000000000000000000000000000000 DUP2 MSTORE PUSH1 0x4 ADD PUSH2 0xAA9 SWAP1 PUSH2 0x24E4 JUMP JUMPDEST PUSH1 0x40 MLOAD DUP1 SWAP2 SUB SWAP1 REVERT JUMPDEST PUSH1 0x0 PUSH1 0x3 PUSH1 0x0 DUP4 DUP2 MSTORE PUSH1 0x20 ADD SWAP1 DUP2 MSTORE PUSH1 0x20 ADD PUSH1 0x0 KECCAK256 PUSH1 0x0 CALLER PUSH20 0xFFFFFFFFFFFFFFFFFFFFFFFFFFFFFFFFFFFFFFFF AND PUSH20 0xFFFFFFFFFFFFFFFFFFFFFFFFFFFFFFFFFFFFFFFF AND DUP2 MSTORE PUSH1 0x20 ADD SWAP1 DUP2 MSTORE PUSH1 0x20 ADD PUSH1 0x0 KECCAK256 SLOAD SWAP1 POP PUSH1 0x0 DUP2 GT PUSH2 0xB4A JUMPI PUSH1 0x40 MLOAD PUSH32 0x8C379A000000000000000000000000000000000000000000000000000000000 DUP2 MSTORE PUSH1 0x4 ADD PUSH2 0xB41 SWAP1 PUSH2 0x2550 JUMP JUMPDEST PUSH1 0x40 MLOAD DUP1 SWAP2 SUB SWAP1 REVERT JUMPDEST PUSH1 0x0 PUSH1 0x2 PUSH1 0x0 DUP5 DUP2 MSTORE PUSH1 0x20 ADD SWAP1 DUP2 MSTORE PUSH1 0x20 ADD PUSH1 0x0 KECCAK256 PUSH1 0x6 ADD SLOAD PUSH1 0x2 PUSH1 0x0 DUP6 DUP2 MSTORE PUSH1 0x20 ADD SWAP1 DUP2 MSTORE PUSH1 0x20 ADD PUSH1 0x0 KECCAK256 PUSH1 0x5 ADD SLOAD PUSH2 0xB84 SWAP2 SWAP1 PUSH2 0x23A9 JUMP JUMPDEST SWAP1 POP PUSH1 0x0 PUSH1 0x8 SLOAD DUP3 PUSH2 0xB96 SWAP2 SWAP1 PUSH2 0x2570 JUMP JUMPDEST PUSH1 0x64 PUSH1 0x2 PUSH1 0x0 DUP8 DUP2 MSTORE PUSH1 0x20 ADD SWAP1 DUP2 MSTORE PUSH1 0x20 ADD PUSH1 0x0 KECCAK256 PUSH1 0x5 ADD SLOAD PUSH2 0xBB9 SWAP2 SWAP1 PUSH2 0x2570 JUMP JUMPDEST LT ISZERO SWAP1 POP PUSH1 0x0 PUSH1 0x8 SLOAD DUP4 PUSH2 0xBCD SWAP2 SWAP1 PUSH2 0x2570 JUMP JUMPDEST PUSH1 0x64 PUSH1 0x2 PUSH1 0x0 DUP9 DUP2 MSTORE PUSH1 0x20 ADD SWAP1 DUP2 MSTORE PUSH1 0x20 ADD PUSH1 0x0 KECCAK256 PUSH1 0x6 ADD SLOAD PUSH2 0xBF0 SWAP2 SWAP1 PUSH2 0x2570 JUMP JUMPDEST LT ISZERO SWAP1 POP PUSH1 0x0 DUP3 DUP1 PUSH2 0xBFF JUMPI POP DUP2 JUMPDEST SWAP1 POP DUP1 ISZERO PUSH2 0xD6C JUMPI PUSH1 0x0 DUP1 PUSH1 0x4 PUSH1 0x0 DUP10 DUP2 MSTORE PUSH1 0x20 ADD SWAP1 DUP2 MSTORE PUSH1 0x20 ADD PUSH1 0x0 KECCAK256 PUSH1 0x0 CALLER PUSH20 0xFFFFFFFFFFFFFFFFFFFFFFFFFFFFFFFFFFFFFFFF AND PUSH20 0xFFFFFFFFFFFFFFFFFFFFFFFFFFFFFFFFFFFFFFFF AND DUP2 MSTORE PUSH1 0x20 ADD SWAP1 DUP2 MSTORE PUSH1 0x20 ADD PUSH1 0x0 KECCAK256 SLOAD GT SWAP1 POP PUSH1 0x0 DUP5 DUP1 ISZERO PUSH2 0xC6A JUMPI POP DUP2 JUMPDEST DUP1 PUSH2 0xC7C JUMPI POP DUP4 DUP1 ISZERO PUSH2 0xC7B JUMPI POP DUP2 ISZERO JUMPDEST JUMPDEST SWAP1 POP PUSH1 0x0 DUP6 PUSH2 0xCA1 JUMPI PUSH1 0x2 PUSH1 0x0 DUP11 DUP2 MSTORE PUSH1 0x20 ADD SWAP1 DUP2 MSTORE PUSH1 0x20 ADD PUSH1 0x0 KECCAK256 PUSH1 0x6 ADD SLOAD PUSH2 0xCB9 JUMP JUMPDEST PUSH1 0x2 PUSH1 0x0 DUP11 DUP2 MSTORE PUSH1 0x20 ADD SWAP1 DUP2 MSTORE PUSH1 0x20 ADD PUSH1 0x0 KECCAK256 PUSH1 0x5 ADD SLOAD JUMPDEST SWAP1 POP PUSH1 0x0 DUP6 PUSH2 0xCDE JUMPI PUSH1 0x2 PUSH1 0x0 DUP12 DUP2 MSTORE PUSH1 0x20 ADD SWAP1 DUP2 MSTORE PUSH1 0x20 ADD PUSH1 0x0 KECCAK256 PUSH1 0x6 ADD SLOAD PUSH2 0xCF6 JUMP JUMPDEST PUSH1 0x2 PUSH1 0x0 DUP12 DUP2 MSTORE PUSH1 0x20 ADD SWAP1 DUP2 MSTORE PUSH1 0x20 ADD PUSH1 0x0 KECCAK256 PUSH1 0x5 ADD SLOAD JUMPDEST SWAP1 POP DUP3 ISZERO PUSH2 0xD4B JUMPI PUSH1 0x0 PUSH1 0x64 PUSH1 0xA DUP4 PUSH2 0xD0F SWAP2 SWAP1 PUSH2 0x2570 JUMP JUMPDEST PUSH2 0xD19 SWAP2 SWAP1 PUSH2 0x25E1 JUMP JUMPDEST SWAP1 POP PUSH1 0x0 DUP4 DUP3 DUP13 PUSH2 0xD2A SWAP2 SWAP1 PUSH2 0x2570 JUMP JUMPDEST PUSH2 0xD34 SWAP2 SWAP1 PUSH2 0x25E1 JUMP JUMPDEST SWAP1 POP DUP1 DUP12 PUSH2 0xD42 SWAP2 SWAP1 PUSH2 0x23A9 JUMP JUMPDEST SWAP11 POP POP POP PUSH2 0xD67 JUMP JUMPDEST PUSH1 0x64 PUSH1 0x5A DUP11 PUSH2 0xD5A SWAP2 SWAP1 PUSH2 0x2570 JUMP JUMPDEST PUSH2 0xD64 SWAP2 SWAP1 PUSH2 0x25E1 JUMP JUMPDEST SWAP9 POP JUMPDEST POP POP POP POP JUMPDEST PUSH1 0x0 PUSH1 0x3 PUSH1 0x0 DUP9 DUP2 MSTORE PUSH1 0x20 ADD SWAP1 DUP2 MSTORE PUSH1 0x20 ADD PUSH1 0x0 KECCAK256 PUSH1 0x0 CALLER PUSH20 0xFFFFFFFFFFFFFFFFFFFFFFFFFFFFFFFFFFFFFFFF AND PUSH20 0xFFFFFFFFFFFFFFFFFFFFFFFFFFFFFFFFFFFFFFFF AND DUP2 MSTORE PUSH1 0x20 ADD SWAP1 DUP2 MSTORE PUSH1 0x20 ADD PUSH1 0x0 KECCAK256 DUP2 SWAP1 SSTORE POP PUSH32 0x0 PUSH20 0xFFFFFFFFFFFFFFFFFFFFFFFFFFFFFFFFFFFFFFFF AND PUSH4 0xA9059CBB CALLER DUP8 PUSH1 0x40 MLOAD DUP4 PUSH4 0xFFFFFFFF AND PUSH1 0xE0 SHL DUP2 MSTORE PUSH1 0x4 ADD PUSH2 0xE1D SWAP3 SWAP2 SWAP1 PUSH2 0x2612 JUMP JUMPDEST PUSH1 0x20 PUSH1 0x40 MLOAD DUP1 DUP4 SUB DUP2 PUSH1 0x0 DUP8 GAS CALL ISZERO DUP1 ISZERO PUSH2 0xE3C JUMPI RETURNDATASIZE PUSH1 0x0 DUP1 RETURNDATACOPY RETURNDATASIZE PUSH1 0x0 REVERT JUMPDEST POP POP POP POP PUSH1 0x40 MLOAD RETURNDATASIZE PUSH1 0x1F NOT PUSH1 0x1F DUP3 ADD AND DUP3 ADD DUP1 PUSH1 0x40 MSTORE POP DUP2 ADD SWAP1 PUSH2 0xE60 SWAP2 SWAP1 PUSH2 0x2650 JUMP JUMPDEST POP POP POP POP POP POP POP JUMP JUMPDEST PUSH1 0x2 PUSH1 0x20 MSTORE DUP1 PUSH1 0x0 MSTORE PUSH1 0x40 PUSH1 0x0 KECCAK256 PUSH1 0x0 SWAP2 POP SWAP1 POP DUP1 PUSH1 0x0 ADD PUSH1 0x0 SWAP1 SLOAD SWAP1 PUSH2 0x100 EXP SWAP1 DIV PUSH20 0xFFFFFFFFFFFFFFFFFFFFFFFFFFFFFFFFFFFFFFFF AND SWAP1 DUP1 PUSH1 0x1 ADD PUSH1 0x0 SWAP1 SLOAD SWAP1 PUSH2 0x100 EXP SWAP1 DIV PUSH20 0xFFFFFFFFFFFFFFFFFFFFFFFFFFFFFFFFFFFFFFFF AND SWAP1 DUP1 PUSH1 0x2 ADD SLOAD SWAP1 DUP1 PUSH1 0x3 ADD SLOAD SWAP1 DUP1 PUSH1 0x4 ADD SLOAD SWAP1 DUP1 PUSH1 0x5 ADD SLOAD SWAP1 DUP1 PUSH1 0x6 ADD SLOAD SWAP1 DUP1 PUSH1 0x7 ADD SLOAD SWAP1 DUP1 PUSH1 0x8 ADD PUSH1 0x0 SWAP1 SLOAD SWAP1 PUSH2 0x100 EXP SWAP1 DIV PUSH1 0xFF AND SWAP1 DUP1 PUSH1 0x8 ADD PUSH1 0x1 SWAP1 SLOAD SWAP1 PUSH2 0x100 EXP SWAP1 DIV PUSH1 0xFF AND SWAP1 DUP1 PUSH1 0x8 ADD PUSH1 0x2 SWAP1 SLOAD SWAP1 PUSH2 0x100 EXP SWAP1 DIV PUSH1 0xFF AND SWAP1 POP DUP12 JUMP JUMPDEST PUSH1 0x3 PUSH1 0x20 MSTORE DUP2 PUSH1 0x0 MSTORE PUSH1 0x40 PUSH1 0x0 KECCAK256 PUSH1 0x20 MSTORE DUP1 PUSH1 0x0 MSTORE PUSH1 0x40 PUSH1 0x0 KECCAK256 PUSH1 0x0 SWAP2 POP SWAP2 POP POP SLOAD DUP2 JUMP JUMPDEST PUSH1 0x6 PUSH1 0x20 MSTORE DUP1 PUSH1 0x0 MSTORE PUSH1 0x40 PUSH1 0x0 KECCAK256 PUSH1 0x0 SWAP2 POP SWAP1 POP SLOAD DUP2 JUMP JUMPDEST PUSH2 0xF6F PUSH2 0x1C0B JUMP JUMPDEST PUSH2 0xF79 PUSH1 0x0 PUSH2 0x1C89 JUMP JUMPDEST JUMP JUMPDEST PUSH1 0x4 PUSH1 0x20 MSTORE DUP2 PUSH1 0x0 MSTORE PUSH1 0x40 PUSH1 0x0 KECCAK256 PUSH1 0x20 MSTORE DUP1 PUSH1 0x0 MSTORE PUSH1 0x40 PUSH1 0x0 KECCAK256 PUSH1 0x0 SWAP2 POP SWAP2 POP POP SLOAD DUP2 JUMP JUMPDEST PUSH1 0x0 DUP1 PUSH1 0x9 SLOAD DUP5 LT PUSH2 0xFE7 JUMPI PUSH1 0x40 MLOAD PUSH32 0x8C379A000000000000000000000000000000000000000000000000000000000 DUP2 MSTORE PUSH1 0x4 ADD PUSH2 0xFDE SWAP1 PUSH2 0x2452 JUMP JUMPDEST PUSH1 0x40 MLOAD DUP1 SWAP2 SUB SWAP1 REVERT JUMPDEST PUSH1 0x4 PUSH1 0x0 DUP6 DUP2 MSTORE PUSH1 0x20 ADD SWAP1 DUP2 MSTORE PUSH1 0x20 ADD PUSH1 0x0 KECCAK256 PUSH1 0x0 DUP5 PUSH20 0xFFFFFFFFFFFFFFFFFFFFFFFFFFFFFFFFFFFFFFFF AND PUSH20 0xFFFFFFFFFFFFFFFFFFFFFFFFFFFFFFFFFFFFFFFF AND DUP2 MSTORE PUSH1 0x20 ADD SWAP1 DUP2 MSTORE PUSH1 0x20 ADD PUSH1 0x0 KECCAK256 SLOAD SWAP2 POP PUSH1 0x5 PUSH1 0x0 DUP6 DUP2 MSTORE PUSH1 0x20 ADD SWAP1 DUP2 MSTORE PUSH1 0x20 ADD PUSH1 0x0 KECCAK256 PUSH1 0x0 DUP5 PUSH20 0xFFFFFFFFFFFFFFFFFFFFFFFFFFFFFFFFFFFFFFFF AND PUSH20 0xFFFFFFFFFFFFFFFFFFFFFFFFFFFFFFFFFFFFFFFF AND DUP2 MSTORE PUSH1 0x20 ADD SWAP1 DUP2 MSTORE PUSH1 0x20 ADD PUSH1 0x0 KECCAK256 SLOAD SWAP1 POP SWAP3 POP SWAP3 SWAP1 POP JUMP JUMPDEST PUSH1 0x0 DUP1 PUSH1 0x0 SWAP1 SLOAD SWAP1 PUSH2 0x100 EXP SWAP1 DIV PUSH20 0xFFFFFFFFFFFFFFFFFFFFFFFFFFFFFFFFFFFFFFFF AND SWAP1 POP SWAP1 JUMP JUMPDEST PUSH2 0x10C5 PUSH2 0x1C0B JUMP JUMPDEST PUSH1 0x0 DUP2 GT DUP1 ISZERO PUSH2 0x10D6 JUMPI POP PUSH1 0x64 DUP2 GT ISZERO JUMPDEST PUSH2 0x1115 JUMPI PUSH1 0x40 MLOAD PUSH32 0x8C379A000000000000000000000000000000000000000000000000000000000 DUP2 MSTORE PUSH1 0x4 ADD PUSH2 0x110C SWAP1 PUSH2 0x26C9 JUMP JUMPDEST PUSH1 0x40 MLOAD DUP1 SWAP2 SUB SWAP1 REVERT JUMPDEST DUP1 PUSH1 0x8 DUP2 SWAP1 SSTORE POP POP JUMP JUMPDEST PUSH1 0x9 SLOAD DUP2 JUMP JUMPDEST PUSH1 0x2 PUSH1 0x0 DUP3 DUP2 MSTORE PUSH1 0x20 ADD SWAP1 DUP2 MSTORE PUSH1 0x20 ADD PUSH1 0x0 KECCAK256 PUSH1 0x8 ADD PUSH1 0x1 SWAP1 SLOAD SWAP1 PUSH2 0x100 EXP SWAP1 DIV PUSH1 0xFF AND ISZERO PUSH2 0x1189 JUMPI PUSH1 0x40 MLOAD PUSH32 0x8C379A000000000000000000000000000000000000000000000000000000000 DUP2 MSTORE PUSH1 0x4 ADD PUSH2 0x1180 SWAP1 PUSH2 0x275B JUMP JUMPDEST PUSH1 0x40 MLOAD DUP1 SWAP2 SUB SWAP1 REVERT JUMPDEST PUSH1 0x2 PUSH1 0x0 DUP3 DUP2 MSTORE PUSH1 0x20 ADD SWAP1 DUP2 MSTORE PUSH1 0x20 ADD PUSH1 0x0 KECCAK256 PUSH1 0x7 ADD SLOAD TIMESTAMP GT PUSH2 0x11E1 JUMPI PUSH1 0x40 MLOAD PUSH32 0x8C379A000000000000000000000000000000000000000000000000000000000 DUP2 MSTORE PUSH1 0x4 ADD PUSH2 0x11D8 SWAP1 PUSH2 0x27ED JUMP JUMPDEST PUSH1 0x40 MLOAD DUP1 SWAP2 SUB SWAP1 REVERT JUMPDEST PUSH1 0x1 PUSH1 0x2 PUSH1 0x0 DUP4 DUP2 MSTORE PUSH1 0x20 ADD SWAP1 DUP2 MSTORE PUSH1 0x20 ADD PUSH1 0x0 KECCAK256 PUSH1 0x8 ADD PUSH1 0x0 PUSH2 0x100 EXP DUP2 SLOAD DUP2 PUSH1 0xFF MUL NOT AND SWAP1 DUP4 ISZERO ISZERO MUL OR SWAP1 SSTORE POP DUP1 PUSH32 0xE93BCEA3FB8025890223C57613673081D7DFD54D4CD3BD40265281B2F0E699FB PUSH1 0x40 MLOAD PUSH1 0x40 MLOAD DUP1 SWAP2 SUB SWAP1 LOG2 PUSH1 0x0 PUSH1 0x2 PUSH1 0x0 DUP4 DUP2 MSTORE PUSH1 0x20 ADD SWAP1 DUP2 MSTORE PUSH1 0x20 ADD PUSH1 0x0 KECCAK256 PUSH1 0x6 ADD SLOAD PUSH1 0x2 PUSH1 0x0 DUP5 DUP2 MSTORE PUSH1 0x20 ADD SWAP1 DUP2 MSTORE PUSH1 0x20 ADD PUSH1 0x0 KECCAK256 PUSH1 0x5 ADD SLOAD PUSH2 0x1277 SWAP2 SWAP1 PUSH2 0x23A9 JUMP JUMPDEST SWAP1 POP PUSH1 0x0 DUP1 DUP3 GT DUP1 ISZERO PUSH2 0x12F3 JUMPI POP PUSH1 0x8 SLOAD DUP3 PUSH2 0x1293 SWAP2 SWAP1 PUSH2 0x2570 JUMP JUMPDEST PUSH1 0x64 PUSH1 0x2 PUSH1 0x0 DUP7 DUP2 MSTORE PUSH1 0x20 ADD SWAP1 DUP2 MSTORE PUSH1 0x20 ADD PUSH1 0x0 KECCAK256 PUSH1 0x5 ADD SLOAD PUSH2 0x12B6 SWAP2 SWAP1 PUSH2 0x2570 JUMP JUMPDEST LT ISZERO DUP1 PUSH2 0x12F2 JUMPI POP PUSH1 0x8 SLOAD DUP3 PUSH2 0x12CC SWAP2 SWAP1 PUSH2 0x2570 JUMP JUMPDEST PUSH1 0x64 PUSH1 0x2 PUSH1 0x0 DUP7 DUP2 MSTORE PUSH1 0x20 ADD SWAP1 DUP2 MSTORE PUSH1 0x20 ADD PUSH1 0x0 KECCAK256 PUSH1 0x6 ADD SLOAD PUSH2 0x12EF SWAP2 SWAP1 PUSH2 0x2570 JUMP JUMPDEST LT ISZERO JUMPDEST JUMPDEST ISZERO PUSH2 0x1301 JUMPI PUSH1 0x1 SWAP1 POP PUSH2 0x1306 JUMP JUMPDEST PUSH1 0x0 SWAP1 POP JUMPDEST PUSH1 0x0 DUP2 ISZERO PUSH2 0x162B JUMPI PUSH1 0x8 SLOAD DUP4 PUSH2 0x131C SWAP2 SWAP1 PUSH2 0x2570 JUMP JUMPDEST PUSH1 0x64 PUSH1 0x2 PUSH1 0x0 DUP8 DUP2 MSTORE PUSH1 0x20 ADD SWAP1 DUP2 MSTORE PUSH1 0x20 ADD PUSH1 0x0 KECCAK256 PUSH1 0x5 ADD SLOAD PUSH2 0x133F SWAP2 SWAP1 PUSH2 0x2570 JUMP JUMPDEST LT ISZERO SWAP1 POP DUP1 ISZERO PUSH2 0x1488 JUMPI PUSH1 0x1 PUSH1 0x2 PUSH1 0x0 DUP7 DUP2 MSTORE PUSH1 0x20 ADD SWAP1 DUP2 MSTORE PUSH1 0x20 ADD PUSH1 0x0 KECCAK256 PUSH1 0x8 ADD PUSH1 0x2 PUSH2 0x100 EXP DUP2 SLOAD DUP2 PUSH1 0xFF MUL NOT AND SWAP1 DUP4 ISZERO ISZERO MUL OR SWAP1 SSTORE POP PUSH1 0x1 PUSH1 0x0 SWAP1 SLOAD SWAP1 PUSH2 0x100 EXP SWAP1 DIV PUSH20 0xFFFFFFFFFFFFFFFFFFFFFFFFFFFFFFFFFFFFFFFF AND PUSH20 0xFFFFFFFFFFFFFFFFFFFFFFFFFFFFFFFFFFFFFFFF AND PUSH4 0x7A30BDE6 PUSH1 0x2 PUSH1 0x0 DUP8 DUP2 MSTORE PUSH1 0x20 ADD SWAP1 DUP2 MSTORE PUSH1 0x20 ADD PUSH1 0x0 KECCAK256 PUSH1 0x2 ADD SLOAD PUSH1 0x2 PUSH1 0x0 DUP9 DUP2 MSTORE PUSH1 0x20 ADD SWAP1 DUP2 MSTORE PUSH1 0x20 ADD PUSH1 0x0 KECCAK256 PUSH1 0x3 ADD SLOAD PUSH1 0x2 PUSH1 0x0 DUP10 DUP2 MSTORE PUSH1 0x20 ADD SWAP1 DUP2 MSTORE PUSH1 0x20 ADD PUSH1 0x0 KECCAK256 PUSH1 0x0 ADD PUSH1 0x0 SWAP1 SLOAD SWAP1 PUSH2 0x100 EXP SWAP1 DIV PUSH20 0xFFFFFFFFFFFFFFFFFFFFFFFFFFFFFFFFFFFFFFFF AND PUSH1 0x2 PUSH1 0x0 DUP11 DUP2 MSTORE PUSH1 0x20 ADD SWAP1 DUP2 MSTORE PUSH1 0x20 ADD PUSH1 0x0 KECCAK256 PUSH1 0x4 ADD SLOAD PUSH1 0x40 MLOAD DUP6 PUSH4 0xFFFFFFFF AND PUSH1 0xE0 SHL DUP2 MSTORE PUSH1 0x4 ADD PUSH2 0x1451 SWAP5 SWAP4 SWAP3 SWAP2 SWAP1 PUSH2 0x282E JUMP JUMPDEST PUSH1 0x0 PUSH1 0x40 MLOAD DUP1 DUP4 SUB DUP2 PUSH1 0x0 DUP8 DUP1 EXTCODESIZE ISZERO DUP1 ISZERO PUSH2 0x146B JUMPI PUSH1 0x0 DUP1 REVERT JUMPDEST POP GAS CALL ISZERO DUP1 ISZERO PUSH2 0x147F JUMPI RETURNDATASIZE PUSH1 0x0 DUP1 RETURNDATACOPY RETURNDATASIZE PUSH1 0x0 REVERT JUMPDEST POP POP POP POP PUSH2 0x15C3 JUMP JUMPDEST PUSH1 0x0 PUSH1 0x2 PUSH1 0x0 DUP7 DUP2 MSTORE PUSH1 0x20 ADD SWAP1 DUP2 MSTORE PUSH1 0x20 ADD PUSH1 0x0 KECCAK256 PUSH1 0x8 ADD PUSH1 0x2 PUSH2 0x100 EXP DUP2 SLOAD DUP2 PUSH1 0xFF MUL NOT AND SWAP1 DUP4 ISZERO ISZERO MUL OR SWAP1 SSTORE POP PUSH1 0x1 PUSH1 0x0 SWAP1 SLOAD SWAP1 PUSH2 0x100 EXP SWAP1 DIV PUSH20 0xFFFFFFFFFFFFFFFFFFFFFFFFFFFFFFFFFFFFFFFF AND PUSH20 0xFFFFFFFFFFFFFFFFFFFFFFFFFFFFFFFFFFFFFFFF AND PUSH4 0x7A30BDE6 PUSH1 0x2 PUSH1 0x0 DUP8 DUP2 MSTORE PUSH1 0x20 ADD SWAP1 DUP2 MSTORE PUSH1 0x20 ADD PUSH1 0x0 KECCAK256 PUSH1 0x2 ADD SLOAD PUSH1 0x2 PUSH1 0x0 DUP9 DUP2 MSTORE PUSH1 0x20 ADD SWAP1 DUP2 MSTORE PUSH1 0x20 ADD PUSH1 0x0 KECCAK256 PUSH1 0x3 ADD SLOAD PUSH1 0x2 PUSH1 0x0 DUP10 DUP2 MSTORE PUSH1 0x20 ADD SWAP1 DUP2 MSTORE PUSH1 0x20 ADD PUSH1 0x0 KECCAK256 PUSH1 0x1 ADD PUSH1 0x0 SWAP1 SLOAD SWAP1 PUSH2 0x100 EXP SWAP1 DIV PUSH20 0xFFFFFFFFFFFFFFFFFFFFFFFFFFFFFFFFFFFFFFFF AND PUSH1 0x2 PUSH1 0x0 DUP11 DUP2 MSTORE PUSH1 0x20 ADD SWAP1 DUP2 MSTORE PUSH1 0x20 ADD PUSH1 0x0 KECCAK256 PUSH1 0x4 ADD SLOAD PUSH1 0x40 MLOAD DUP6 PUSH4 0xFFFFFFFF AND PUSH1 0xE0 SHL DUP2 MSTORE PUSH1 0x4 ADD PUSH2 0x1590 SWAP5 SWAP4 SWAP3 SWAP2 SWAP1 PUSH2 0x282E JUMP JUMPDEST PUSH1 0x0 PUSH1 0x40 MLOAD DUP1 DUP4 SUB DUP2 PUSH1 0x0 DUP8 DUP1 EXTCODESIZE ISZERO DUP1 ISZERO PUSH2 0x15AA JUMPI PUSH1 0x0 DUP1 REVERT JUMPDEST POP GAS CALL ISZERO DUP1 ISZERO PUSH2 0x15BE JUMPI RETURNDATASIZE PUSH1 0x0 DUP1 RETURNDATACOPY RETURNDATASIZE PUSH1 0x0 REVERT JUMPDEST POP POP POP POP JUMPDEST PUSH1 0x1 PUSH1 0x2 PUSH1 0x0 DUP7 DUP2 MSTORE PUSH1 0x20 ADD SWAP1 DUP2 MSTORE PUSH1 0x20 ADD PUSH1 0x0 KECCAK256 PUSH1 0x8 ADD PUSH1 0x1 PUSH2 0x100 EXP DUP2 SLOAD DUP2 PUSH1 0xFF MUL NOT AND SWAP1 DUP4 ISZERO ISZERO MUL OR SWAP1 SSTORE POP DUP4 PUSH32 0x5A87909BFF68CAAAAF0B3FD9C74EECCC928832F879315E5C6FB7A73612F26C0C DUP3 PUSH1 0x40 MLOAD PUSH2 0x1622 SWAP2 SWAP1 PUSH2 0x1F68 JUMP JUMPDEST PUSH1 0x40 MLOAD DUP1 SWAP2 SUB SWAP1 LOG2 JUMPDEST POP POP POP POP JUMP JUMPDEST PUSH1 0x1 PUSH1 0x0 SWAP1 SLOAD SWAP1 PUSH2 0x100 EXP SWAP1 DIV PUSH20 0xFFFFFFFFFFFFFFFFFFFFFFFFFFFFFFFFFFFFFFFF AND DUP2 JUMP JUMPDEST PUSH1 0x9 SLOAD DUP4 LT PUSH2 0x169B JUMPI PUSH1 0x40 MLOAD PUSH32 0x8C379A000000000000000000000000000000000000000000000000000000000 DUP2 MSTORE PUSH1 0x4 ADD PUSH2 0x1692 SWAP1 PUSH2 0x2452 JUMP JUMPDEST PUSH1 0x40 MLOAD DUP1 SWAP2 SUB SWAP1 REVERT JUMPDEST PUSH1 0x2 PUSH1 0x0 DUP5 DUP2 MSTORE PUSH1 0x20 ADD SWAP1 DUP2 MSTORE PUSH1 0x20 ADD PUSH1 0x0 KECCAK256 PUSH1 0x7 ADD SLOAD TIMESTAMP LT PUSH2 0x16F3 JUMPI PUSH1 0x40 MLOAD PUSH32 0x8C379A000000000000000000000000000000000000000000000000000000000 DUP2 MSTORE PUSH1 0x4 ADD PUSH2 0x16EA SWAP1 PUSH2 0x28BF JUMP JUMPDEST PUSH1 0x40 MLOAD DUP1 SWAP2 SUB SWAP1 REVERT JUMPDEST PUSH1 0x2 PUSH1 0x0 DUP5 DUP2 MSTORE PUSH1 0x20 ADD SWAP1 DUP2 MSTORE PUSH1 0x20 ADD PUSH1 0x0 KECCAK256 PUSH1 0x8 ADD PUSH1 0x1 SWAP1 SLOAD SWAP1 PUSH2 0x100 EXP SWAP1 DIV PUSH1 0xFF AND ISZERO PUSH2 0x1757 JUMPI PUSH1 0x40 MLOAD PUSH32 0x8C379A000000000000000000000000000000000000000000000000000000000 DUP2 MSTORE PUSH1 0x4 ADD PUSH2 0x174E SWAP1 PUSH2 0x275B JUMP JUMPDEST PUSH1 0x40 MLOAD DUP1 SWAP2 SUB SWAP1 REVERT JUMPDEST DUP2 ISZERO PUSH2 0x17F5 JUMPI PUSH1 0x0 PUSH1 0x5 PUSH1 0x0 DUP6 DUP2 MSTORE PUSH1 0x20 ADD SWAP1 DUP2 MSTORE PUSH1 0x20 ADD PUSH1 0x0 KECCAK256 PUSH1 0x0 CALLER PUSH20 0xFFFFFFFFFFFFFFFFFFFFFFFFFFFFFFFFFFFFFFFF AND PUSH20 0xFFFFFFFFFFFFFFFFFFFFFFFFFFFFFFFFFFFFFFFF AND DUP2 MSTORE PUSH1 0x20 ADD SWAP1 DUP2 MSTORE PUSH1 0x20 ADD PUSH1 0x0 KECCAK256 SLOAD EQ PUSH2 0x17F0 JUMPI PUSH1 0x40 MLOAD PUSH32 0x8C379A000000000000000000000000000000000000000000000000000000000 DUP2 MSTORE PUSH1 0x4 ADD PUSH2 0x17E7 SWAP1 PUSH2 0x2951 JUMP JUMPDEST PUSH1 0x40 MLOAD DUP1 SWAP2 SUB SWAP1 REVERT JUMPDEST PUSH2 0x1889 JUMP JUMPDEST PUSH1 0x0 PUSH1 0x4 PUSH1 0x0 DUP6 DUP2 MSTORE PUSH1 0x20 ADD SWAP1 DUP2 MSTORE PUSH1 0x20 ADD PUSH1 0x0 KECCAK256 PUSH1 0x0 CALLER PUSH20 0xFFFFFFFFFFFFFFFFFFFFFFFFFFFFFFFFFFFFFFFF AND PUSH20 0xFFFFFFFFFFFFFFFFFFFFFFFFFFFFFFFFFFFFFFFF AND DUP2 MSTORE PUSH1 0x20 ADD SWAP1 DUP2 MSTORE PUSH1 0x20 ADD PUSH1 0x0 KECCAK256 SLOAD EQ PUSH2 0x1888 JUMPI PUSH1 0x40 MLOAD PUSH32 0x8C379A000000000000000000000000000000000000000000000000000000000 DUP2 MSTORE PUSH1 0x4 ADD PUSH2 0x187F SWAP1 PUSH2 0x29E3 JUMP JUMPDEST PUSH1 0x40 MLOAD DUP1 SWAP2 SUB SWAP1 REVERT JUMPDEST JUMPDEST PUSH32 0x0 PUSH20 0xFFFFFFFFFFFFFFFFFFFFFFFFFFFFFFFFFFFFFFFF AND PUSH4 0x23B872DD CALLER ADDRESS DUP5 PUSH1 0x40 MLOAD DUP5 PUSH4 0xFFFFFFFF AND PUSH1 0xE0 SHL DUP2 MSTORE PUSH1 0x4 ADD PUSH2 0x18E6 SWAP4 SWAP3 SWAP2 SWAP1 PUSH2 0x2A03 JUMP JUMPDEST PUSH1 0x20 PUSH1 0x40 MLOAD DUP1 DUP4 SUB DUP2 PUSH1 0x0 DUP8 GAS CALL ISZERO DUP1 ISZERO PUSH2 0x1905 JUMPI RETURNDATASIZE PUSH1 0x0 DUP1 RETURNDATACOPY RETURNDATASIZE PUSH1 0x0 REVERT JUMPDEST POP POP POP POP PUSH1 0x40 MLOAD RETURNDATASIZE PUSH1 0x1F NOT PUSH1 0x1F DUP3 ADD AND DUP3 ADD DUP1 PUSH1 0x40 MSTORE POP DUP2 ADD SWAP1 PUSH2 0x1929 SWAP2 SWAP1 PUSH2 0x2650 JUMP JUMPDEST POP DUP1 PUSH1 0x3 PUSH1 0x0 DUP6 DUP2 MSTORE PUSH1 0x20 ADD SWAP1 DUP2 MSTORE PUSH1 0x20 ADD PUSH1 0x0 KECCAK256 PUSH1 0x0 CALLER PUSH20 0xFFFFFFFFFFFFFFFFFFFFFFFFFFFFFFFFFFFFFFFF AND PUSH20 0xFFFFFFFFFFFFFFFFFFFFFFFFFFFFFFFFFFFFFFFF AND DUP2 MSTORE PUSH1 0x20 ADD SWAP1 DUP2 MSTORE PUSH1 0x20 ADD PUSH1 0x0 KECCAK256 PUSH1 0x0 DUP3 DUP3 SLOAD PUSH2 0x198A SWAP2 SWAP1 PUSH2 0x23A9 JUMP JUMPDEST SWAP3 POP POP DUP2 SWAP1 SSTORE POP DUP2 ISZERO PUSH2 0x1A30 JUMPI DUP1 PUSH1 0x2 PUSH1 0x0 DUP6 DUP2 MSTORE PUSH1 0x20 ADD SWAP1 DUP2 MSTORE PUSH1 0x20 ADD PUSH1 0x0 KECCAK256 PUSH1 0x5 ADD PUSH1 0x0 DUP3 DUP3 SLOAD PUSH2 0x19BD SWAP2 SWAP1 PUSH2 0x23A9 JUMP JUMPDEST SWAP3 POP POP DUP2 SWAP1 SSTORE POP DUP1 PUSH1 0x4 PUSH1 0x0 DUP6 DUP2 MSTORE PUSH1 0x20 ADD SWAP1 DUP2 MSTORE PUSH1 0x20 ADD PUSH1 0x0 KECCAK256 PUSH1 0x0 CALLER PUSH20 0xFFFFFFFFFFFFFFFFFFFFFFFFFFFFFFFFFFFFFFFF AND PUSH20 0xFFFFFFFFFFFFFFFFFFFFFFFFFFFFFFFFFFFFFFFF AND DUP2 MSTORE PUSH1 0x20 ADD SWAP1 DUP2 MSTORE PUSH1 0x20 ADD PUSH1 0x0 KECCAK256 PUSH1 0x0 DUP3 DUP3 SLOAD PUSH2 0x1A24 SWAP2 SWAP1 PUSH2 0x23A9 JUMP JUMPDEST SWAP3 POP POP DUP2 SWAP1 SSTORE POP PUSH2 0x1AC5 JUMP JUMPDEST DUP1 PUSH1 0x2 PUSH1 0x0 DUP6 DUP2 MSTORE PUSH1 0x20 ADD SWAP1 DUP2 MSTORE PUSH1 0x20 ADD PUSH1 0x0 KECCAK256 PUSH1 0x6 ADD PUSH1 0x0 DUP3 DUP3 SLOAD PUSH2 0x1A56 SWAP2 SWAP1 PUSH2 0x23A9 JUMP JUMPDEST SWAP3 POP POP DUP2 SWAP1 SSTORE POP DUP1 PUSH1 0x5 PUSH1 0x0 DUP6 DUP2 MSTORE PUSH1 0x20 ADD SWAP1 DUP2 MSTORE PUSH1 0x20 ADD PUSH1 0x0 KECCAK256 PUSH1 0x0 CALLER PUSH20 0xFFFFFFFFFFFFFFFFFFFFFFFFFFFFFFFFFFFFFFFF AND PUSH20 0xFFFFFFFFFFFFFFFFFFFFFFFFFFFFFFFFFFFFFFFF AND DUP2 MSTORE PUSH1 0x20 ADD SWAP1 DUP2 MSTORE PUSH1 0x20 ADD PUSH1 0x0 KECCAK256 PUSH1 0x0 DUP3 DUP3 SLOAD PUSH2 0x1ABD SWAP2 SWAP1 PUSH2 0x23A9 JUMP JUMPDEST SWAP3 POP POP DUP2 SWAP1 SSTORE POP JUMPDEST DUP3 PUSH32 0xD5FBDAD2A4BB43B8C8EE1BECC8085BB21684241593A04BF8795A83F56436B43D CALLER DUP5 DUP5 PUSH1 0x40 MLOAD PUSH2 0x1AF9 SWAP4 SWAP3 SWAP2 SWAP1 PUSH2 0x2A3A JUMP JUMPDEST PUSH1 0x40 MLOAD DUP1 SWAP2 SUB SWAP1 LOG2 POP POP POP JUMP JUMPDEST PUSH2 0x1B0E PUSH2 0x1C0B JUMP JUMPDEST DUP1 PUSH1 0xA DUP2 SWAP1 SSTORE POP POP JUMP JUMPDEST PUSH2 0x1B20 PUSH2 0x1C0B JUMP JUMPDEST PUSH1 0x0 PUSH20 0xFFFFFFFFFFFFFFFFFFFFFFFFFFFFFFFFFFFFFFFF AND DUP2 PUSH20 0xFFFFFFFFFFFFFFFFFFFFFFFFFFFFFFFFFFFFFFFF AND SUB PUSH2 0x1B8F JUMPI PUSH1 0x40 MLOAD PUSH32 0x8C379A000000000000000000000000000000000000000000000000000000000 DUP2 MSTORE PUSH1 0x4 ADD PUSH2 0x1B86 SWAP1 PUSH2 0x2AE3 JUMP JUMPDEST PUSH1 0x40 MLOAD DUP1 SWAP2 SUB SWAP1 REVERT JUMPDEST PUSH2 0x1B98 DUP2 PUSH2 0x1C89 JUMP JUMPDEST POP JUMP JUMPDEST PUSH1 0x5 PUSH1 0x20 MSTORE DUP2 PUSH1 0x0 MSTORE PUSH1 0x40 PUSH1 0x0 KECCAK256 PUSH1 0x20 MSTORE DUP1 PUSH1 0x0 MSTORE PUSH1 0x40 PUSH1 0x0 KECCAK256 PUSH1 0x0 SWAP2 POP SWAP2 POP POP SLOAD DUP2 JUMP JUMPDEST PUSH1 0x7 PUSH1 0x20 MSTORE DUP1 PUSH1 0x0 MSTORE PUSH1 0x40 PUSH1 0x0 KECCAK256 PUSH1 0x0 SWAP2 POP SWAP1 POP SLOAD DUP2 JUMP JUMPDEST PUSH1 0x0 DUP3 DUP3 PUSH1 0x40 MLOAD PUSH1 0x20 ADD PUSH2 0x1BED SWAP3 SWAP2 SWAP1 PUSH2 0x2B24 JUMP JUMPDEST PUSH1 0x40 MLOAD PUSH1 0x20 DUP2 DUP4 SUB SUB DUP2 MSTORE SWAP1 PUSH1 0x40 MSTORE DUP1 MLOAD SWAP1 PUSH1 0x20 ADD KECCAK256 SWAP1 POP SWAP3 SWAP2 POP POP JUMP JUMPDEST PUSH2 0x1C13 PUSH2 0x1D4D JUMP JUMPDEST PUSH20 0xFFFFFFFFFFFFFFFFFFFFFFFFFFFFFFFFFFFFFFFF AND PUSH2 0x1C31 PUSH2 0x1094 JUMP JUMPDEST PUSH20 0xFFFFFFFFFFFFFFFFFFFFFFFFFFFFFFFFFFFFFFFF AND EQ PUSH2 0x1C87 JUMPI PUSH1 0x40 MLOAD PUSH32 0x8C379A000000000000000000000000000000000000000000000000000000000 DUP2 MSTORE PUSH1 0x4 ADD PUSH2 0x1C7E SWAP1 PUSH2 0x2B9C JUMP JUMPDEST PUSH1 0x40 MLOAD DUP1 SWAP2 SUB SWAP1 REVERT JUMPDEST JUMP JUMPDEST PUSH1 0x0 DUP1 PUSH1 0x0 SWAP1 SLOAD SWAP1 PUSH2 0x100 EXP SWAP1 DIV PUSH20 0xFFFFFFFFFFFFFFFFFFFFFFFFFFFFFFFFFFFFFFFF AND SWAP1 POP DUP2 PUSH1 0x0 DUP1 PUSH2 0x100 EXP DUP2 SLOAD DUP2 PUSH20 0xFFFFFFFFFFFFFFFFFFFFFFFFFFFFFFFFFFFFFFFF MUL NOT AND SWAP1 DUP4 PUSH20 0xFFFFFFFFFFFFFFFFFFFFFFFFFFFFFFFFFFFFFFFF AND MUL OR SWAP1 SSTORE POP DUP2 PUSH20 0xFFFFFFFFFFFFFFFFFFFFFFFFFFFFFFFFFFFFFFFF AND DUP2 PUSH20 0xFFFFFFFFFFFFFFFFFFFFFFFFFFFFFFFFFFFFFFFF AND PUSH32 0x8BE0079C531659141344CD1FD0A4F28419497F9722A3DAAFE3B4186F6B6457E0 PUSH1 0x40 MLOAD PUSH1 0x40 MLOAD DUP1 SWAP2 SUB SWAP1 LOG3 POP POP JUMP JUMPDEST PUSH1 0x0 CALLER SWAP1 POP SWAP1 JUMP JUMPDEST PUSH1 0x0 DUP2 SWAP1 POP SWAP2 SWAP1 POP JUMP JUMPDEST PUSH2 0x1D68 DUP2 PUSH2 0x1D55 JUMP JUMPDEST DUP3 MSTORE POP POP JUMP JUMPDEST PUSH1 0x0 PUSH1 0x20 DUP3 ADD SWAP1 POP PUSH2 0x1D83 PUSH1 0x0 DUP4 ADD DUP5 PUSH2 0x1D5F JUMP JUMPDEST SWAP3 SWAP2 POP POP JUMP JUMPDEST PUSH1 0x0 DUP1 REVERT JUMPDEST PUSH1 0x0 PUSH20 0xFFFFFFFFFFFFFFFFFFFFFFFFFFFFFFFFFFFFFFFF DUP3 AND SWAP1 POP SWAP2 SWAP1 POP JUMP JUMPDEST PUSH1 0x0 PUSH2 0x1DB9 DUP3 PUSH2 0x1D8E JUMP JUMPDEST SWAP1 POP SWAP2 SWAP1 POP JUMP JUMPDEST PUSH2 0x1DC9 DUP2 PUSH2 0x1DAE JUMP JUMPDEST DUP2 EQ PUSH2 0x1DD4 JUMPI PUSH1 0x0 DUP1 REVERT JUMPDEST POP JUMP JUMPDEST PUSH1 0x0 DUP2 CALLDATALOAD SWAP1 POP PUSH2 0x1DE6 DUP2 PUSH2 0x1DC0 JUMP JUMPDEST SWAP3 SWAP2 POP POP JUMP JUMPDEST PUSH2 0x1DF5 DUP2 PUSH2 0x1D55 JUMP JUMPDEST DUP2 EQ PUSH2 0x1E00 JUMPI PUSH1 0x0 DUP1 REVERT JUMPDEST POP JUMP JUMPDEST PUSH1 0x0 DUP2 CALLDATALOAD SWAP1 POP PUSH2 0x1E12 DUP2 PUSH2 0x1DEC JUMP JUMPDEST SWAP3 SWAP2 POP POP JUMP JUMPDEST PUSH1 0x0 DUP1 PUSH1 0x0 DUP1 PUSH1 0x0 PUSH1 0xA0 DUP7 DUP9 SUB SLT ISZERO PUSH2 0x1E34 JUMPI PUSH2 0x1E33 PUSH2 0x1D89 JUMP JUMPDEST JUMPDEST PUSH1 0x0 PUSH2 0x1E42 DUP9 DUP3 DUP10 ADD PUSH2 0x1DD7 JUMP JUMPDEST SWAP6 POP POP PUSH1 0x20 PUSH2 0x1E53 DUP9 DUP3 DUP10 ADD PUSH2 0x1DD7 JUMP JUMPDEST SWAP5 POP POP PUSH1 0x40 PUSH2 0x1E64 DUP9 DUP3 DUP10 ADD PUSH2 0x1E03 JUMP JUMPDEST SWAP4 POP POP PUSH1 0x60 PUSH2 0x1E75 DUP9 DUP3 DUP10 ADD PUSH2 0x1E03 JUMP JUMPDEST SWAP3 POP POP PUSH1 0x80 PUSH2 0x1E86 DUP9 DUP3 DUP10 ADD PUSH2 0x1E03 JUMP JUMPDEST SWAP2 POP POP SWAP3 SWAP6 POP SWAP3 SWAP6 SWAP1 SWAP4 POP JUMP JUMPDEST PUSH1 0x0 DUP2 SWAP1 POP SWAP2 SWAP1 POP JUMP JUMPDEST PUSH1 0x0 PUSH2 0x1EB8 PUSH2 0x1EB3 PUSH2 0x1EAE DUP5 PUSH2 0x1D8E JUMP JUMPDEST PUSH2 0x1E93 JUMP JUMPDEST PUSH2 0x1D8E JUMP JUMPDEST SWAP1 POP SWAP2 SWAP1 POP JUMP JUMPDEST PUSH1 0x0 PUSH2 0x1ECA DUP3 PUSH2 0x1E9D JUMP JUMPDEST SWAP1 POP SWAP2 SWAP1 POP JUMP JUMPDEST PUSH1 0x0 PUSH2 0x1EDC DUP3 PUSH2 0x1EBF JUMP JUMPDEST SWAP1 POP SWAP2 SWAP1 POP JUMP JUMPDEST PUSH2 0x1EEC DUP2 PUSH2 0x1ED1 JUMP JUMPDEST DUP3 MSTORE POP POP JUMP JUMPDEST PUSH1 0x0 PUSH1 0x20 DUP3 ADD SWAP1 POP PUSH2 0x1F07 PUSH1 0x0 DUP4 ADD DUP5 PUSH2 0x1EE3 JUMP JUMPDEST SWAP3 SWAP2 POP POP JUMP JUMPDEST PUSH1 0x0 DUP1 PUSH1 0x40 DUP4 DUP6 SUB SLT ISZERO PUSH2 0x1F24 JUMPI PUSH2 0x1F23 PUSH2 0x1D89 JUMP JUMPDEST JUMPDEST PUSH1 0x0 PUSH2 0x1F32 DUP6 DUP3 DUP7 ADD PUSH2 0x1E03 JUMP JUMPDEST SWAP3 POP POP PUSH1 0x20 PUSH2 0x1F43 DUP6 DUP3 DUP7 ADD PUSH2 0x1E03 JUMP JUMPDEST SWAP2 POP POP SWAP3 POP SWAP3 SWAP1 POP JUMP JUMPDEST PUSH1 0x0 DUP2 ISZERO ISZERO SWAP1 POP SWAP2 SWAP1 POP JUMP JUMPDEST PUSH2 0x1F62 DUP2 PUSH2 0x1F4D JUMP JUMPDEST DUP3 MSTORE POP POP JUMP JUMPDEST PUSH1 0x0 PUSH1 0x20 DUP3 ADD SWAP1 POP PUSH2 0x1F7D PUSH1 0x0 DUP4 ADD DUP5 PUSH2 0x1F59 JUMP JUMPDEST SWAP3 SWAP2 POP POP JUMP JUMPDEST PUSH1 0x0 PUSH1 0x20 DUP3 DUP5 SUB SLT ISZERO PUSH2 0x1F99 JUMPI PUSH2 0x1F98 PUSH2 0x1D89 JUMP JUMPDEST JUMPDEST PUSH1 0x0 PUSH2 0x1FA7 DUP5 DUP3 DUP6 ADD PUSH2 0x1DD7 JUMP JUMPDEST SWAP2 POP POP SWAP3 SWAP2 POP POP JUMP JUMPDEST PUSH1 0x0 PUSH1 0x20 DUP3 DUP5 SUB SLT ISZERO PUSH2 0x1FC6 JUMPI PUSH2 0x1FC5 PUSH2 0x1D89 JUMP JUMPDEST JUMPDEST PUSH1 0x0 PUSH2 0x1FD4 DUP5 DUP3 DUP6 ADD PUSH2 0x1E03 JUMP JUMPDEST SWAP2 POP POP SWAP3 SWAP2 POP POP JUMP JUMPDEST PUSH2 0x1FE6 DUP2 PUSH2 0x1DAE JUMP JUMPDEST DUP3 MSTORE POP POP JUMP JUMPDEST PUSH1 0x0 PUSH2 0x160 DUP3 ADD SWAP1 POP PUSH2 0x2002 PUSH1 0x0 DUP4 ADD DUP15 PUSH2 0x1FDD JUMP JUMPDEST PUSH2 0x200F PUSH1 0x20 DUP4 ADD DUP14 PUSH2 0x1FDD JUMP JUMPDEST PUSH2 0x201C PUSH1 0x40 DUP4 ADD DUP13 PUSH2 0x1D5F JUMP JUMPDEST PUSH2 0x2029 PUSH1 0x60 DUP4 ADD DUP12 PUSH2 0x1D5F JUMP JUMPDEST PUSH2 0x2036 PUSH1 0x80 DUP4 ADD DUP11 PUSH2 0x1D5F JUMP JUMPDEST PUSH2 0x2043 PUSH1 0xA0 DUP4 ADD DUP10 PUSH2 0x1D5F JUMP JUMPDEST PUSH2 0x2050 PUSH1 0xC0 DUP4 ADD DUP9 PUSH2 0x1D5F JUMP JUMPDEST PUSH2 0x205D PUSH1 0xE0 DUP4 ADD DUP8 PUSH2 0x1D5F JUMP JUMPDEST PUSH2 0x206B PUSH2 0x100 DUP4 ADD DUP7 PUSH2 0x1F59 JUMP JUMPDEST PUSH2 0x2079 PUSH2 0x120 DUP4 ADD DUP6 PUSH2 0x1F59 JUMP JUMPDEST PUSH2 0x2087 PUSH2 0x140 DUP4 ADD DUP5 PUSH2 0x1F59 JUMP JUMPDEST SWAP13 SWAP12 POP POP POP POP POP POP POP POP POP POP POP POP JUMP JUMPDEST PUSH1 0x0 DUP1 PUSH1 0x40 DUP4 DUP6 SUB SLT ISZERO PUSH2 0x20AE JUMPI PUSH2 0x20AD PUSH2 0x1D89 JUMP JUMPDEST JUMPDEST PUSH1 0x0 PUSH2 0x20BC DUP6 DUP3 DUP7 ADD PUSH2 0x1E03 JUMP JUMPDEST SWAP3 POP POP PUSH1 0x20 PUSH2 0x20CD DUP6 DUP3 DUP7 ADD PUSH2 0x1DD7 JUMP JUMPDEST SWAP2 POP POP SWAP3 POP SWAP3 SWAP1 POP JUMP JUMPDEST PUSH1 0x0 PUSH1 0x40 DUP3 ADD SWAP1 POP PUSH2 0x20EC PUSH1 0x0 DUP4 ADD DUP6 PUSH2 0x1D5F JUMP JUMPDEST PUSH2 0x20F9 PUSH1 0x20 DUP4 ADD DUP5 PUSH2 0x1D5F JUMP JUMPDEST SWAP4 SWAP3 POP POP POP JUMP JUMPDEST PUSH1 0x0 PUSH1 0x20 DUP3 ADD SWAP1 POP PUSH2 0x2115 PUSH1 0x0 DUP4 ADD DUP5 PUSH2 0x1FDD JUMP JUMPDEST SWAP3 SWAP2 POP POP JUMP JUMPDEST PUSH2 0x2124 DUP2 PUSH2 0x1F4D JUMP JUMPDEST DUP2 EQ PUSH2 0x212F JUMPI PUSH1 0x0 DUP1 REVERT JUMPDEST POP JUMP JUMPDEST PUSH1 0x0 DUP2 CALLDATALOAD SWAP1 POP PUSH2 0x2141 DUP2 PUSH2 0x211B JUMP JUMPDEST SWAP3 SWAP2 POP POP JUMP JUMPDEST PUSH1 0x0 DUP1 PUSH1 0x0 PUSH1 0x60 DUP5 DUP7 SUB SLT ISZERO PUSH2 0x2160 JUMPI PUSH2 0x215F PUSH2 0x1D89 JUMP JUMPDEST JUMPDEST PUSH1 0x0 PUSH2 0x216E DUP7 DUP3 DUP8 ADD PUSH2 0x1E03 JUMP JUMPDEST SWAP4 POP POP PUSH1 0x20 PUSH2 0x217F DUP7 DUP3 DUP8 ADD PUSH2 0x2132 JUMP JUMPDEST SWAP3 POP POP PUSH1 0x40 PUSH2 0x2190 DUP7 DUP3 DUP8 ADD PUSH2 0x1E03 JUMP JUMPDEST SWAP2 POP POP SWAP3 POP SWAP3 POP SWAP3 JUMP JUMPDEST PUSH1 0x0 DUP2 SWAP1 POP SWAP2 SWAP1 POP JUMP JUMPDEST PUSH2 0x21AD DUP2 PUSH2 0x219A JUMP JUMPDEST DUP2 EQ PUSH2 0x21B8 JUMPI PUSH1 0x0 DUP1 REVERT JUMPDEST POP JUMP JUMPDEST PUSH1 0x0 DUP2 CALLDATALOAD SWAP1 POP PUSH2 0x21CA DUP2 PUSH2 0x21A4 JUMP JUMPDEST SWAP3 SWAP2 POP POP JUMP JUMPDEST PUSH1 0x0 PUSH1 0x20 DUP3 DUP5 SUB SLT ISZERO PUSH2 0x21E6 JUMPI PUSH2 0x21E5 PUSH2 0x1D89 JUMP JUMPDEST JUMPDEST PUSH1 0x0 PUSH2 0x21F4 DUP5 DUP3 DUP6 ADD PUSH2 0x21BB JUMP JUMPDEST SWAP2 POP POP SWAP3 SWAP2 POP POP JUMP JUMPDEST PUSH1 0x0 DUP3 DUP3 MSTORE PUSH1 0x20 DUP3 ADD SWAP1 POP SWAP3 SWAP2 POP POP JUMP JUMPDEST PUSH32 0x43616C6C6572206973206E6F7420746865206D61696E20636F6E747261637400 PUSH1 0x0 DUP3 ADD MSTORE POP JUMP JUMPDEST PUSH1 0x0 PUSH2 0x2244 PUSH1 0x1F DUP4 PUSH2 0x21FD JUMP JUMPDEST SWAP2 POP PUSH2 0x224F DUP3 PUSH2 0x220E JUMP JUMPDEST PUSH1 0x20 DUP3 ADD SWAP1 POP SWAP2 SWAP1 POP JUMP JUMPDEST PUSH1 0x0 PUSH1 0x20 DUP3 ADD SWAP1 POP DUP2 DUP2 SUB PUSH1 0x0 DUP4 ADD MSTORE PUSH2 0x2273 DUP2 PUSH2 0x2237 JUMP JUMPDEST SWAP1 POP SWAP2 SWAP1 POP JUMP JUMPDEST PUSH32 0x43616E6E6F74206372656174652061206E6577206469737075746520666F7220 PUSH1 0x0 DUP3 ADD MSTORE PUSH32 0x74686520676976656E2070726F706F73616C20616E6420627579657220726571 PUSH1 0x20 DUP3 ADD MSTORE PUSH32 0x7565737400000000000000000000000000000000000000000000000000000000 PUSH1 0x40 DUP3 ADD MSTORE POP JUMP JUMPDEST PUSH1 0x0 PUSH2 0x22FC PUSH1 0x44 DUP4 PUSH2 0x21FD JUMP JUMPDEST SWAP2 POP PUSH2 0x2307 DUP3 PUSH2 0x227A JUMP JUMPDEST PUSH1 0x60 DUP3 ADD SWAP1 POP SWAP2 SWAP1 POP JUMP JUMPDEST PUSH1 0x0 PUSH1 0x20 DUP3 ADD SWAP1 POP DUP2 DUP2 SUB PUSH1 0x0 DUP4 ADD MSTORE PUSH2 0x232B DUP2 PUSH2 0x22EF JUMP JUMPDEST SWAP1 POP SWAP2 SWAP1 POP JUMP JUMPDEST PUSH32 0x4E487B7100000000000000000000000000000000000000000000000000000000 PUSH1 0x0 MSTORE PUSH1 0x11 PUSH1 0x4 MSTORE PUSH1 0x24 PUSH1 0x0 REVERT JUMPDEST PUSH1 0x0 PUSH2 0x236C DUP3 PUSH2 0x1D55 JUMP JUMPDEST SWAP2 POP PUSH32 0xFFFFFFFFFFFFFFFFFFFFFFFFFFFFFFFFFFFFFFFFFFFFFFFFFFFFFFFFFFFFFFFF DUP3 SUB PUSH2 0x239E JUMPI PUSH2 0x239D PUSH2 0x2332 JUMP JUMPDEST JUMPDEST PUSH1 0x1 DUP3 ADD SWAP1 POP SWAP2 SWAP1 POP JUMP JUMPDEST PUSH1 0x0 PUSH2 0x23B4 DUP3 PUSH2 0x1D55 JUMP JUMPDEST SWAP2 POP PUSH2 0x23BF DUP4 PUSH2 0x1D55 JUMP JUMPDEST SWAP3 POP DUP3 DUP3 ADD SWAP1 POP DUP1 DUP3 GT ISZERO PUSH2 0x23D7 JUMPI PUSH2 0x23D6 PUSH2 0x2332 JUMP JUMPDEST JUMPDEST SWAP3 SWAP2 POP POP JUMP JUMPDEST PUSH1 0x0 PUSH1 0x40 DUP3 ADD SWAP1 POP PUSH2 0x23F2 PUSH1 0x0 DUP4 ADD DUP6 PUSH2 0x1FDD JUMP JUMPDEST PUSH2 0x23FF PUSH1 0x20 DUP4 ADD DUP5 PUSH2 0x1FDD JUMP JUMPDEST SWAP4 SWAP3 POP POP POP JUMP JUMPDEST PUSH32 0x496E76616C696420646973707574652049440000000000000000000000000000 PUSH1 0x0 DUP3 ADD MSTORE POP JUMP JUMPDEST PUSH1 0x0 PUSH2 0x243C PUSH1 0x12 DUP4 PUSH2 0x21FD JUMP JUMPDEST SWAP2 POP PUSH2 0x2447 DUP3 PUSH2 0x2406 JUMP JUMPDEST PUSH1 0x20 DUP3 ADD SWAP1 POP SWAP2 SWAP1 POP JUMP JUMPDEST PUSH1 0x0 PUSH1 0x20 DUP3 ADD SWAP1 POP DUP2 DUP2 SUB PUSH1 0x0 DUP4 ADD MSTORE PUSH2 0x246B DUP2 PUSH2 0x242F JUMP JUMPDEST SWAP1 POP SWAP2 SWAP1 POP JUMP JUMPDEST PUSH32 0x44697370757465207265736F6C7574696F6E20686173206E6F74206265656E20 PUSH1 0x0 DUP3 ADD MSTORE PUSH32 0x617474656D707465642079657400000000000000000000000000000000000000 PUSH1 0x20 DUP3 ADD MSTORE POP JUMP JUMPDEST PUSH1 0x0 PUSH2 0x24CE PUSH1 0x2D DUP4 PUSH2 0x21FD JUMP JUMPDEST SWAP2 POP PUSH2 0x24D9 DUP3 PUSH2 0x2472 JUMP JUMPDEST PUSH1 0x40 DUP3 ADD SWAP1 POP SWAP2 SWAP1 POP JUMP JUMPDEST PUSH1 0x0 PUSH1 0x20 DUP3 ADD SWAP1 POP DUP2 DUP2 SUB PUSH1 0x0 DUP4 ADD MSTORE PUSH2 0x24FD DUP2 PUSH2 0x24C1 JUMP JUMPDEST SWAP1 POP SWAP2 SWAP1 POP JUMP JUMPDEST PUSH32 0x4E6F20746F6B656E7320746F20636C61696D0000000000000000000000000000 PUSH1 0x0 DUP3 ADD MSTORE POP JUMP JUMPDEST PUSH1 0x0 PUSH2 0x253A PUSH1 0x12 DUP4 PUSH2 0x21FD JUMP JUMPDEST SWAP2 POP PUSH2 0x2545 DUP3 PUSH2 0x2504 JUMP JUMPDEST PUSH1 0x20 DUP3 ADD SWAP1 POP SWAP2 SWAP1 POP JUMP JUMPDEST PUSH1 0x0 PUSH1 0x20 DUP3 ADD SWAP1 POP DUP2 DUP2 SUB PUSH1 0x0 DUP4 ADD MSTORE PUSH2 0x2569 DUP2 PUSH2 0x252D JUMP JUMPDEST SWAP1 POP SWAP2 SWAP1 POP JUMP JUMPDEST PUSH1 0x0 PUSH2 0x257B DUP3 PUSH2 0x1D55 JUMP JUMPDEST SWAP2 POP PUSH2 0x2586 DUP4 PUSH2 0x1D55 JUMP JUMPDEST SWAP3 POP DUP3 DUP3 MUL PUSH2 0x2594 DUP2 PUSH2 0x1D55 JUMP JUMPDEST SWAP2 POP DUP3 DUP3 DIV DUP5 EQ DUP4 ISZERO OR PUSH2 0x25AB JUMPI PUSH2 0x25AA PUSH2 0x2332 JUMP JUMPDEST JUMPDEST POP SWAP3 SWAP2 POP POP JUMP JUMPDEST PUSH32 0x4E487B7100000000000000000000000000000000000000000000000000000000 PUSH1 0x0 MSTORE PUSH1 0x12 PUSH1 0x4 MSTORE PUSH1 0x24 PUSH1 0x0 REVERT JUMPDEST PUSH1 0x0 PUSH2 0x25EC DUP3 PUSH2 0x1D55 JUMP JUMPDEST SWAP2 POP PUSH2 0x25F7 DUP4 PUSH2 0x1D55 JUMP JUMPDEST SWAP3 POP DUP3 PUSH2 0x2607 JUMPI PUSH2 0x2606 PUSH2 0x25B2 JUMP JUMPDEST JUMPDEST DUP3 DUP3 DIV SWAP1 POP SWAP3 SWAP2 POP POP JUMP JUMPDEST PUSH1 0x0 PUSH1 0x40 DUP3 ADD SWAP1 POP PUSH2 0x2627 PUSH1 0x0 DUP4 ADD DUP6 PUSH2 0x1FDD JUMP JUMPDEST PUSH2 0x2634 PUSH1 0x20 DUP4 ADD DUP5 PUSH2 0x1D5F JUMP JUMPDEST SWAP4 SWAP3 POP POP POP JUMP JUMPDEST PUSH1 0x0 DUP2 MLOAD SWAP1 POP PUSH2 0x264A DUP2 PUSH2 0x211B JUMP JUMPDEST SWAP3 SWAP2 POP POP JUMP JUMPDEST PUSH1 0x0 PUSH1 0x20 DUP3 DUP5 SUB SLT ISZERO PUSH2 0x2666 JUMPI PUSH2 0x2665 PUSH2 0x1D89 JUMP JUMPDEST JUMPDEST PUSH1 0x0 PUSH2 0x2674 DUP5 DUP3 DUP6 ADD PUSH2 0x263B JUMP JUMPDEST SWAP2 POP POP SWAP3 SWAP2 POP POP JUMP JUMPDEST PUSH32 0x496E76616C6964207468726573686F6C64000000000000000000000000000000 PUSH1 0x0 DUP3 ADD MSTORE POP JUMP JUMPDEST PUSH1 0x0 PUSH2 0x26B3 PUSH1 0x11 DUP4 PUSH2 0x21FD JUMP JUMPDEST SWAP2 POP PUSH2 0x26BE DUP3 PUSH2 0x267D JUMP JUMPDEST PUSH1 0x20 DUP3 ADD SWAP1 POP SWAP2 SWAP1 POP JUMP JUMPDEST PUSH1 0x0 PUSH1 0x20 DUP3 ADD SWAP1 POP DUP2 DUP2 SUB PUSH1 0x0 DUP4 ADD MSTORE PUSH2 0x26E2 DUP2 PUSH2 0x26A6 JUMP JUMPDEST SWAP1 POP SWAP2 SWAP1 POP JUMP JUMPDEST PUSH32 0x446973707574652068617320616C7265616479206265656E207265736F6C7665 PUSH1 0x0 DUP3 ADD MSTORE PUSH32 0x6400000000000000000000000000000000000000000000000000000000000000 PUSH1 0x20 DUP3 ADD MSTORE POP JUMP JUMPDEST PUSH1 0x0 PUSH2 0x2745 PUSH1 0x21 DUP4 PUSH2 0x21FD JUMP JUMPDEST SWAP2 POP PUSH2 0x2750 DUP3 PUSH2 0x26E9 JUMP JUMPDEST PUSH1 0x40 DUP3 ADD SWAP1 POP SWAP2 SWAP1 POP JUMP JUMPDEST PUSH1 0x0 PUSH1 0x20 DUP3 ADD SWAP1 POP DUP2 DUP2 SUB PUSH1 0x0 DUP4 ADD MSTORE PUSH2 0x2774 DUP2 PUSH2 0x2738 JUMP JUMPDEST SWAP1 POP SWAP2 SWAP1 POP JUMP JUMPDEST PUSH32 0x54686520766F74696E6720706572696F64206973206E6F74206F766572207965 PUSH1 0x0 DUP3 ADD MSTORE PUSH32 0x7421000000000000000000000000000000000000000000000000000000000000 PUSH1 0x20 DUP3 ADD MSTORE POP JUMP JUMPDEST PUSH1 0x0 PUSH2 0x27D7 PUSH1 0x22 DUP4 PUSH2 0x21FD JUMP JUMPDEST SWAP2 POP PUSH2 0x27E2 DUP3 PUSH2 0x277B JUMP JUMPDEST PUSH1 0x40 DUP3 ADD SWAP1 POP SWAP2 SWAP1 POP JUMP JUMPDEST PUSH1 0x0 PUSH1 0x20 DUP3 ADD SWAP1 POP DUP2 DUP2 SUB PUSH1 0x0 DUP4 ADD MSTORE PUSH2 0x2806 DUP2 PUSH2 0x27CA JUMP JUMPDEST SWAP1 POP SWAP2 SWAP1 POP JUMP JUMPDEST PUSH1 0x0 PUSH2 0x2818 DUP3 PUSH2 0x1D8E JUMP JUMPDEST SWAP1 POP SWAP2 SWAP1 POP JUMP JUMPDEST PUSH2 0x2828 DUP2 PUSH2 0x280D JUMP JUMPDEST DUP3 MSTORE POP POP JUMP JUMPDEST PUSH1 0x0 PUSH1 0x80 DUP3 ADD SWAP1 POP PUSH2 0x2843 PUSH1 0x0 DUP4 ADD DUP8 PUSH2 0x1D5F JUMP JUMPDEST PUSH2 0x2850 PUSH1 0x20 DUP4 ADD DUP7 PUSH2 0x1D5F JUMP JUMPDEST PUSH2 0x285D PUSH1 0x40 DUP4 ADD DUP6 PUSH2 0x281F JUMP JUMPDEST PUSH2 0x286A PUSH1 0x60 DUP4 ADD DUP5 PUSH2 0x1D5F JUMP JUMPDEST SWAP6 SWAP5 POP POP POP POP POP JUMP JUMPDEST PUSH32 0x566F74696E6720706572696F64206973206F7665720000000000000000000000 PUSH1 0x0 DUP3 ADD MSTORE POP JUMP JUMPDEST PUSH1 0x0 PUSH2 0x28A9 PUSH1 0x15 DUP4 PUSH2 0x21FD JUMP JUMPDEST SWAP2 POP PUSH2 0x28B4 DUP3 PUSH2 0x2873 JUMP JUMPDEST PUSH1 0x20 DUP3 ADD SWAP1 POP SWAP2 SWAP1 POP JUMP JUMPDEST PUSH1 0x0 PUSH1 0x20 DUP3 ADD SWAP1 POP DUP2 DUP2 SUB PUSH1 0x0 DUP4 ADD MSTORE PUSH2 0x28D8 DUP2 PUSH2 0x289C JUMP JUMPDEST SWAP1 POP SWAP2 SWAP1 POP JUMP JUMPDEST PUSH32 0x566F7465722068617320616C726561647920766F74656420666F722074686520 PUSH1 0x0 DUP3 ADD MSTORE PUSH32 0x73656C6C65720000000000000000000000000000000000000000000000000000 PUSH1 0x20 DUP3 ADD MSTORE POP JUMP JUMPDEST PUSH1 0x0 PUSH2 0x293B PUSH1 0x26 DUP4 PUSH2 0x21FD JUMP JUMPDEST SWAP2 POP PUSH2 0x2946 DUP3 PUSH2 0x28DF JUMP JUMPDEST PUSH1 0x40 DUP3 ADD SWAP1 POP SWAP2 SWAP1 POP JUMP JUMPDEST PUSH1 0x0 PUSH1 0x20 DUP3 ADD SWAP1 POP DUP2 DUP2 SUB PUSH1 0x0 DUP4 ADD MSTORE PUSH2 0x296A DUP2 PUSH2 0x292E JUMP JUMPDEST SWAP1 POP SWAP2 SWAP1 POP JUMP JUMPDEST PUSH32 0x566F7465722068617320616C726561647920766F74656420666F722074686520 PUSH1 0x0 DUP3 ADD MSTORE PUSH32 0x6275796572000000000000000000000000000000000000000000000000000000 PUSH1 0x20 DUP3 ADD MSTORE POP JUMP JUMPDEST PUSH1 0x0 PUSH2 0x29CD PUSH1 0x25 DUP4 PUSH2 0x21FD JUMP JUMPDEST SWAP2 POP PUSH2 0x29D8 DUP3 PUSH2 0x2971 JUMP JUMPDEST PUSH1 0x40 DUP3 ADD SWAP1 POP SWAP2 SWAP1 POP JUMP JUMPDEST PUSH1 0x0 PUSH1 0x20 DUP3 ADD SWAP1 POP DUP2 DUP2 SUB PUSH1 0x0 DUP4 ADD MSTORE PUSH2 0x29FC DUP2 PUSH2 0x29C0 JUMP JUMPDEST SWAP1 POP SWAP2 SWAP1 POP JUMP JUMPDEST PUSH1 0x0 PUSH1 0x60 DUP3 ADD SWAP1 POP PUSH2 0x2A18 PUSH1 0x0 DUP4 ADD DUP7 PUSH2 0x1FDD JUMP JUMPDEST PUSH2 0x2A25 PUSH1 0x20 DUP4 ADD DUP6 PUSH2 0x1FDD JUMP JUMPDEST PUSH2 0x2A32 PUSH1 0x40 DUP4 ADD DUP5 PUSH2 0x1D5F JUMP JUMPDEST SWAP5 SWAP4 POP POP POP POP JUMP JUMPDEST PUSH1 0x0 PUSH1 0x60 DUP3 ADD SWAP1 POP PUSH2 0x2A4F PUSH1 0x0 DUP4 ADD DUP7 PUSH2 0x1FDD JUMP JUMPDEST PUSH2 0x2A5C PUSH1 0x20 DUP4 ADD DUP6 PUSH2 0x1F59 JUMP JUMPDEST PUSH2 0x2A69 PUSH1 0x40 DUP4 ADD DUP5 PUSH2 0x1D5F JUMP JUMPDEST SWAP5 SWAP4 POP POP POP POP JUMP JUMPDEST PUSH32 0x4F776E61626C653A206E6577206F776E657220697320746865207A65726F2061 PUSH1 0x0 DUP3 ADD MSTORE PUSH32 0x6464726573730000000000000000000000000000000000000000000000000000 PUSH1 0x20 DUP3 ADD MSTORE POP JUMP JUMPDEST PUSH1 0x0 PUSH2 0x2ACD PUSH1 0x26 DUP4 PUSH2 0x21FD JUMP JUMPDEST SWAP2 POP PUSH2 0x2AD8 DUP3 PUSH2 0x2A71 JUMP JUMPDEST PUSH1 0x40 DUP3 ADD SWAP1 POP SWAP2 SWAP1 POP JUMP JUMPDEST PUSH1 0x0 PUSH1 0x20 DUP3 ADD SWAP1 POP DUP2 DUP2 SUB PUSH1 0x0 DUP4 ADD MSTORE PUSH2 0x2AFC DUP2 PUSH2 0x2AC0 JUMP JUMPDEST SWAP1 POP SWAP2 SWAP1 POP JUMP JUMPDEST PUSH1 0x0 DUP2 SWAP1 POP SWAP2 SWAP1 POP JUMP JUMPDEST PUSH2 0x2B1E PUSH2 0x2B19 DUP3 PUSH2 0x1D55 JUMP JUMPDEST PUSH2 0x2B03 JUMP JUMPDEST DUP3 MSTORE POP POP JUMP JUMPDEST PUSH1 0x0 PUSH2 0x2B30 DUP3 DUP6 PUSH2 0x2B0D JUMP JUMPDEST PUSH1 0x20 DUP3 ADD SWAP2 POP PUSH2 0x2B40 DUP3 DUP5 PUSH2 0x2B0D JUMP JUMPDEST PUSH1 0x20 DUP3 ADD SWAP2 POP DUP2 SWAP1 POP SWAP4 SWAP3 POP POP POP JUMP JUMPDEST PUSH32 0x4F776E61626C653A2063616C6C6572206973206E6F7420746865206F776E6572 PUSH1 0x0 DUP3 ADD MSTORE POP JUMP JUMPDEST PUSH1 0x0 PUSH2 0x2B86 PUSH1 0x20 DUP4 PUSH2 0x21FD JUMP JUMPDEST SWAP2 POP PUSH2 0x2B91 DUP3 PUSH2 0x2B50 JUMP JUMPDEST PUSH1 0x20 DUP3 ADD SWAP1 POP SWAP2 SWAP1 POP JUMP JUMPDEST PUSH1 0x0 PUSH1 0x20 DUP3 ADD SWAP1 POP DUP2 DUP2 SUB PUSH1 0x0 DUP4 ADD MSTORE PUSH2 0x2BB5 DUP2 PUSH2 0x2B79 JUMP JUMPDEST SWAP1 POP SWAP2 SWAP1 POP JUMP INVALID LOG2 PUSH5 0x6970667358 0x22 SLT KECCAK256 0xF7 0xDE STOP ADD 0xBC 0x5E 0xF8 PUSH27 0xE935E5530FF2F7E761BED93BBDD43D92551AC826FFD931FD64736F PUSH13 0x63430008130033000000000000 "
				},
				"gasEstimates": {
					"creation": {
						"codeDepositCost": "2250000",
						"executionCost": "infinite",
						"totalCost": "infinite"
					},
					"external": {
						"buyerStakedTokens(uint256,address)": "infinite",
						"canCreateDispute(uint256,uint256)": "infinite",
						"claimTokens(uint256)": "infinite",
						"createDispute(address,address,uint256,uint256,uint256)": "infinite",
						"disputeCount()": "2540",
						"disputes(uint256)": "infinite",
						"disputesForProposalRequest(bytes32)": "2897",
						"finjaTokenInstance()": "infinite",
						"getStakedTokens(uint256,address)": "infinite",
						"latestDisputeForProposal(uint256)": "infinite",
						"mainContract()": "2536",
						"owner()": "2589",
						"renounceOwnership()": "30531",
						"resolveDispute(uint256)": "infinite",
						"sellerStakedTokens(uint256,address)": "infinite",
						"setMainContract(address)": "27098",
						"setVotingPeriod(uint256)": "24850",
						"setWinningThreshold(uint256)": "24930",
						"stakedTokens(uint256,address)": "infinite",
						"transferOwnership(address)": "30832",
						"vote(uint256,bool,uint256)": "infinite",
						"votingPeriod()": "2453",
						"winningThreshold()": "2452"
					},
					"internal": {
						"generateKey(uint256,uint256)": "infinite"
					}
				},
				"methodIdentifiers": {
					"buyerStakedTokens(uint256,address)": "768114a4",
					"canCreateDispute(uint256,uint256)": "2c054503",
					"claimTokens(uint256)": "46e04a2f",
					"createDispute(address,address,uint256,uint256,uint256)": "03d4d7e7",
					"disputeCount()": "a28889e1",
					"disputes(uint256)": "564a565d",
					"disputesForProposalRequest(bytes32)": "ffb18516",
					"finjaTokenInstance()": "0e7d5d4e",
					"getStakedTokens(uint256,address)": "87c42c41",
					"latestDisputeForProposal(uint256)": "6e6b2e2d",
					"mainContract()": "d270e7ab",
					"owner()": "8da5cb5b",
					"renounceOwnership()": "715018a6",
					"resolveDispute(uint256)": "c2b7b868",
					"sellerStakedTokens(uint256,address)": "fcff13f2",
					"setMainContract(address)": "3ded33bc",
					"setVotingPeriod(uint256)": "ea0217cf",
					"setWinningThreshold(uint256)": "9f5f3a66",
					"stakedTokens(uint256,address)": "56eeafd9",
					"transferOwnership(address)": "f2fde38b",
					"vote(uint256,bool,uint256)": "d46a5d7e",
					"votingPeriod()": "02a251a3",
					"winningThreshold()": "438d649d"
				}
			},
			"storageLayout": {
				"storage": [
					{
						"astId": 7,
						"contract": "contracts/disputeResolution.sol:DisputeResolution",
						"label": "_owner",
						"offset": 0,
						"slot": "0",
						"type": "t_address"
					},
					{
						"astId": 221,
						"contract": "contracts/disputeResolution.sol:DisputeResolution",
						"label": "mainContract",
						"offset": 0,
						"slot": "1",
						"type": "t_address"
					},
					{
						"astId": 252,
						"contract": "contracts/disputeResolution.sol:DisputeResolution",
						"label": "disputes",
						"offset": 0,
						"slot": "2",
						"type": "t_mapping(t_uint256,t_struct(Dispute)247_storage)"
					},
					{
						"astId": 258,
						"contract": "contracts/disputeResolution.sol:DisputeResolution",
						"label": "stakedTokens",
						"offset": 0,
						"slot": "3",
						"type": "t_mapping(t_uint256,t_mapping(t_address,t_uint256))"
					},
					{
						"astId": 264,
						"contract": "contracts/disputeResolution.sol:DisputeResolution",
						"label": "buyerStakedTokens",
						"offset": 0,
						"slot": "4",
						"type": "t_mapping(t_uint256,t_mapping(t_address,t_uint256))"
					},
					{
						"astId": 270,
						"contract": "contracts/disputeResolution.sol:DisputeResolution",
						"label": "sellerStakedTokens",
						"offset": 0,
						"slot": "5",
						"type": "t_mapping(t_uint256,t_mapping(t_address,t_uint256))"
					},
					{
						"astId": 274,
						"contract": "contracts/disputeResolution.sol:DisputeResolution",
						"label": "latestDisputeForProposal",
						"offset": 0,
						"slot": "6",
						"type": "t_mapping(t_uint256,t_uint256)"
					},
					{
						"astId": 278,
						"contract": "contracts/disputeResolution.sol:DisputeResolution",
						"label": "disputesForProposalRequest",
						"offset": 0,
						"slot": "7",
						"type": "t_mapping(t_bytes32,t_uint256)"
					},
					{
						"astId": 280,
						"contract": "contracts/disputeResolution.sol:DisputeResolution",
						"label": "winningThreshold",
						"offset": 0,
						"slot": "8",
						"type": "t_uint256"
					},
					{
						"astId": 282,
						"contract": "contracts/disputeResolution.sol:DisputeResolution",
						"label": "disputeCount",
						"offset": 0,
						"slot": "9",
						"type": "t_uint256"
					},
					{
						"astId": 284,
						"contract": "contracts/disputeResolution.sol:DisputeResolution",
						"label": "votingPeriod",
						"offset": 0,
						"slot": "10",
						"type": "t_uint256"
					}
				],
				"types": {
					"t_address": {
						"encoding": "inplace",
						"label": "address",
						"numberOfBytes": "20"
					},
					"t_bool": {
						"encoding": "inplace",
						"label": "bool",
						"numberOfBytes": "1"
					},
					"t_bytes32": {
						"encoding": "inplace",
						"label": "bytes32",
						"numberOfBytes": "32"
					},
					"t_mapping(t_address,t_uint256)": {
						"encoding": "mapping",
						"key": "t_address",
						"label": "mapping(address => uint256)",
						"numberOfBytes": "32",
						"value": "t_uint256"
					},
					"t_mapping(t_bytes32,t_uint256)": {
						"encoding": "mapping",
						"key": "t_bytes32",
						"label": "mapping(bytes32 => uint256)",
						"numberOfBytes": "32",
						"value": "t_uint256"
					},
					"t_mapping(t_uint256,t_mapping(t_address,t_uint256))": {
						"encoding": "mapping",
						"key": "t_uint256",
						"label": "mapping(uint256 => mapping(address => uint256))",
						"numberOfBytes": "32",
						"value": "t_mapping(t_address,t_uint256)"
					},
					"t_mapping(t_uint256,t_struct(Dispute)247_storage)": {
						"encoding": "mapping",
						"key": "t_uint256",
						"label": "mapping(uint256 => struct DisputeResolution.Dispute)",
						"numberOfBytes": "32",
						"value": "t_struct(Dispute)247_storage"
					},
					"t_mapping(t_uint256,t_uint256)": {
						"encoding": "mapping",
						"key": "t_uint256",
						"label": "mapping(uint256 => uint256)",
						"numberOfBytes": "32",
						"value": "t_uint256"
					},
					"t_struct(Dispute)247_storage": {
						"encoding": "inplace",
						"label": "struct DisputeResolution.Dispute",
						"members": [
							{
								"astId": 226,
								"contract": "contracts/disputeResolution.sol:DisputeResolution",
								"label": "buyer",
								"offset": 0,
								"slot": "0",
								"type": "t_address"
							},
							{
								"astId": 228,
								"contract": "contracts/disputeResolution.sol:DisputeResolution",
								"label": "seller",
								"offset": 0,
								"slot": "1",
								"type": "t_address"
							},
							{
								"astId": 230,
								"contract": "contracts/disputeResolution.sol:DisputeResolution",
								"label": "proposalID",
								"offset": 0,
								"slot": "2",
								"type": "t_uint256"
							},
							{
								"astId": 232,
								"contract": "contracts/disputeResolution.sol:DisputeResolution",
								"label": "buyerRequestIndex",
								"offset": 0,
								"slot": "3",
								"type": "t_uint256"
							},
							{
								"astId": 234,
								"contract": "contracts/disputeResolution.sol:DisputeResolution",
								"label": "disputedAmount",
								"offset": 0,
								"slot": "4",
								"type": "t_uint256"
							},
							{
								"astId": 236,
								"contract": "contracts/disputeResolution.sol:DisputeResolution",
								"label": "buyerVotes",
								"offset": 0,
								"slot": "5",
								"type": "t_uint256"
							},
							{
								"astId": 238,
								"contract": "contracts/disputeResolution.sol:DisputeResolution",
								"label": "sellerVotes",
								"offset": 0,
								"slot": "6",
								"type": "t_uint256"
							},
							{
								"astId": 240,
								"contract": "contracts/disputeResolution.sol:DisputeResolution",
								"label": "endTime",
								"offset": 0,
								"slot": "7",
								"type": "t_uint256"
							},
							{
								"astId": 242,
								"contract": "contracts/disputeResolution.sol:DisputeResolution",
								"label": "resolveDisputeFunctionTriggered",
								"offset": 0,
								"slot": "8",
								"type": "t_bool"
							},
							{
								"astId": 244,
								"contract": "contracts/disputeResolution.sol:DisputeResolution",
								"label": "resolved",
								"offset": 1,
								"slot": "8",
								"type": "t_bool"
							},
							{
								"astId": 246,
								"contract": "contracts/disputeResolution.sol:DisputeResolution",
								"label": "winnerBuyer",
								"offset": 2,
								"slot": "8",
								"type": "t_bool"
							}
						],
						"numberOfBytes": "288"
					},
					"t_uint256": {
						"encoding": "inplace",
						"label": "uint256",
						"numberOfBytes": "32"
					}
				}
			},
			"userdoc": {
				"kind": "user",
				"methods": {},
				"version": 1
			}
		}
	}
}