{
	"contracts/name.sol": {
		"UserDirectory": {
			"abi": [
				{
					"inputs": [
						{
							"internalType": "uint256",
							"name": "userNumber",
							"type": "uint256"
						},
						{
							"internalType": "string",
							"name": "userName",
							"type": "string"
						}
					],
					"name": "addUser",
					"outputs": [],
					"stateMutability": "nonpayable",
					"type": "function"
				},
				{
					"inputs": [
						{
							"internalType": "uint256",
							"name": "userNumber",
							"type": "uint256"
						}
					],
					"name": "getUserName",
					"outputs": [
						{
							"internalType": "string",
							"name": "",
							"type": "string"
						}
					],
					"stateMutability": "view",
					"type": "function"
				}
			],
			"devdoc": {
				"kind": "dev",
				"methods": {},
				"version": 1
			},
			"evm": {
				"assembly": "    /* \"contracts/name.sol\":65:804  contract UserDirectory {... */\n  mstore(0x40, 0x80)\n  callvalue\n  dup1\n  iszero\n  tag_1\n  jumpi\n  0x00\n  dup1\n  revert\ntag_1:\n  pop\n  dataSize(sub_0)\n  dup1\n  dataOffset(sub_0)\n  0x00\n  codecopy\n  0x00\n  return\nstop\n\nsub_0: assembly {\n        /* \"contracts/name.sol\":65:804  contract UserDirectory {... */\n      mstore(0x40, 0x80)\n      callvalue\n      dup1\n      iszero\n      tag_1\n      jumpi\n      0x00\n      dup1\n      revert\n    tag_1:\n      pop\n      jumpi(tag_2, lt(calldatasize, 0x04))\n      shr(0xe0, calldataload(0x00))\n      dup1\n      0x988da80f\n      eq\n      tag_3\n      jumpi\n      dup1\n      0xd51af2bf\n      eq\n      tag_4\n      jumpi\n    tag_2:\n      0x00\n      dup1\n      revert\n        /* \"contracts/name.sol\":545:802  function getUserName(uint256 userNumber) public view returns (string memory) {... */\n    tag_3:\n      tag_5\n      0x04\n      dup1\n      calldatasize\n      sub\n      dup2\n      add\n      swap1\n      tag_6\n      swap2\n      swap1\n      tag_7\n      jump\t// in\n    tag_6:\n      tag_8\n      jump\t// in\n    tag_5:\n      mload(0x40)\n      tag_9\n      swap2\n      swap1\n      tag_10\n      jump\t// in\n    tag_9:\n      mload(0x40)\n      dup1\n      swap2\n      sub\n      swap1\n      return\n        /* \"contracts/name.sol\":223:483  function addUser(uint256 userNumber, string memory userName) public {... */\n    tag_4:\n      tag_11\n      0x04\n      dup1\n      calldatasize\n      sub\n      dup2\n      add\n      swap1\n      tag_12\n      swap2\n      swap1\n      tag_13\n      jump\t// in\n    tag_12:\n      tag_14\n      jump\t// in\n    tag_11:\n      stop\n        /* \"contracts/name.sol\":545:802  function getUserName(uint256 userNumber) public view returns (string memory) {... */\n    tag_8:\n        /* \"contracts/name.sol\":607:620  string memory */\n      0x60\n        /* \"contracts/name.sol\":729:730  0 */\n      0x00\n        /* \"contracts/name.sol\":700:705  users */\n      dup1\n        /* \"contracts/name.sol\":700:717  users[userNumber] */\n      0x00\n        /* \"contracts/name.sol\":706:716  userNumber */\n      dup5\n        /* \"contracts/name.sol\":700:717  users[userNumber] */\n      dup2\n      mstore\n      0x20\n      add\n      swap1\n      dup2\n      mstore\n      0x20\n      add\n      0x00\n      keccak256\n        /* \"contracts/name.sol\":694:725  bytes(users[userNumber]).length */\n      dup1\n      sload\n      tag_16\n      swap1\n      tag_17\n      jump\t// in\n    tag_16:\n      swap1\n      pop\n        /* \"contracts/name.sol\":694:730  bytes(users[userNumber]).length != 0 */\n      sub\n        /* \"contracts/name.sol\":686:761  require(bytes(users[userNumber]).length != 0, \"User number does not exist\") */\n      tag_18\n      jumpi\n      mload(0x40)\n      0x08c379a000000000000000000000000000000000000000000000000000000000\n      dup2\n      mstore\n      0x04\n      add\n      tag_19\n      swap1\n      tag_20\n      jump\t// in\n    tag_19:\n      mload(0x40)\n      dup1\n      swap2\n      sub\n      swap1\n      revert\n    tag_18:\n        /* \"contracts/name.sol\":778:783  users */\n      0x00\n        /* \"contracts/name.sol\":778:795  users[userNumber] */\n      dup1\n        /* \"contracts/name.sol\":784:794  userNumber */\n      dup4\n        /* \"contracts/name.sol\":778:795  users[userNumber] */\n      dup2\n      mstore\n      0x20\n      add\n      swap1\n      dup2\n      mstore\n      0x20\n      add\n      0x00\n      keccak256\n        /* \"contracts/name.sol\":771:795  return users[userNumber] */\n      dup1\n      sload\n      tag_21\n      swap1\n      tag_17\n      jump\t// in\n    tag_21:\n      dup1\n      0x1f\n      add\n      0x20\n      dup1\n      swap2\n      div\n      mul\n      0x20\n      add\n      mload(0x40)\n      swap1\n      dup2\n      add\n      0x40\n      mstore\n      dup1\n      swap3\n      swap2\n      swap1\n      dup2\n      dup2\n      mstore\n      0x20\n      add\n      dup3\n      dup1\n      sload\n      tag_22\n      swap1\n      tag_17\n      jump\t// in\n    tag_22:\n      dup1\n      iszero\n      tag_23\n      jumpi\n      dup1\n      0x1f\n      lt\n      tag_24\n      jumpi\n      0x0100\n      dup1\n      dup4\n      sload\n      div\n      mul\n      dup4\n      mstore\n      swap2\n      0x20\n      add\n      swap2\n      jump(tag_23)\n    tag_24:\n      dup3\n      add\n      swap2\n      swap1\n      0x00\n      mstore\n      keccak256(0x00, 0x20)\n      swap1\n    tag_25:\n      dup2\n      sload\n      dup2\n      mstore\n      swap1\n      0x01\n      add\n      swap1\n      0x20\n      add\n      dup1\n      dup4\n      gt\n      tag_25\n      jumpi\n      dup3\n      swap1\n      sub\n      0x1f\n      and\n      dup3\n      add\n      swap2\n    tag_23:\n      pop\n      pop\n      pop\n      pop\n      pop\n      swap1\n      pop\n        /* \"contracts/name.sol\":545:802  function getUserName(uint256 userNumber) public view returns (string memory) {... */\n      swap2\n      swap1\n      pop\n      jump\t// out\n        /* \"contracts/name.sol\":223:483  function addUser(uint256 userNumber, string memory userName) public {... */\n    tag_14:\n        /* \"contracts/name.sol\":406:407  0 */\n      0x00\n        /* \"contracts/name.sol\":377:382  users */\n      dup1\n        /* \"contracts/name.sol\":377:394  users[userNumber] */\n      0x00\n        /* \"contracts/name.sol\":383:393  userNumber */\n      dup5\n        /* \"contracts/name.sol\":377:394  users[userNumber] */\n      dup2\n      mstore\n      0x20\n      add\n      swap1\n      dup2\n      mstore\n      0x20\n      add\n      0x00\n      keccak256\n        /* \"contracts/name.sol\":371:402  bytes(users[userNumber]).length */\n      dup1\n      sload\n      tag_27\n      swap1\n      tag_17\n      jump\t// in\n    tag_27:\n      swap1\n      pop\n        /* \"contracts/name.sol\":371:407  bytes(users[userNumber]).length == 0 */\n      eq\n        /* \"contracts/name.sol\":363:438  require(bytes(users[userNumber]).length == 0, \"User number already exists\") */\n      tag_28\n      jumpi\n      mload(0x40)\n      0x08c379a000000000000000000000000000000000000000000000000000000000\n      dup2\n      mstore\n      0x04\n      add\n      tag_29\n      swap1\n      tag_30\n      jump\t// in\n    tag_29:\n      mload(0x40)\n      dup1\n      swap2\n      sub\n      swap1\n      revert\n    tag_28:\n        /* \"contracts/name.sol\":468:476  userName */\n      dup1\n        /* \"contracts/name.sol\":448:453  users */\n      0x00\n        /* \"contracts/name.sol\":448:465  users[userNumber] */\n      dup1\n        /* \"contracts/name.sol\":454:464  userNumber */\n      dup5\n        /* \"contracts/name.sol\":448:465  users[userNumber] */\n      dup2\n      mstore\n      0x20\n      add\n      swap1\n      dup2\n      mstore\n      0x20\n      add\n      0x00\n      keccak256\n        /* \"contracts/name.sol\":448:476  users[userNumber] = userName */\n      swap1\n      dup2\n      tag_31\n      swap2\n      swap1\n      tag_32\n      jump\t// in\n    tag_31:\n      pop\n        /* \"contracts/name.sol\":223:483  function addUser(uint256 userNumber, string memory userName) public {... */\n      pop\n      pop\n      jump\t// out\n        /* \"#utility.yul\":7:82   */\n    tag_33:\n        /* \"#utility.yul\":40:46   */\n      0x00\n        /* \"#utility.yul\":73:75   */\n      0x40\n        /* \"#utility.yul\":67:76   */\n      mload\n        /* \"#utility.yul\":57:76   */\n      swap1\n      pop\n        /* \"#utility.yul\":7:82   */\n      swap1\n      jump\t// out\n        /* \"#utility.yul\":88:205   */\n    tag_34:\n        /* \"#utility.yul\":197:198   */\n      0x00\n        /* \"#utility.yul\":194:195   */\n      dup1\n        /* \"#utility.yul\":187:199   */\n      revert\n        /* \"#utility.yul\":211:328   */\n    tag_35:\n        /* \"#utility.yul\":320:321   */\n      0x00\n        /* \"#utility.yul\":317:318   */\n      dup1\n        /* \"#utility.yul\":310:322   */\n      revert\n        /* \"#utility.yul\":334:411   */\n    tag_36:\n        /* \"#utility.yul\":371:378   */\n      0x00\n        /* \"#utility.yul\":400:405   */\n      dup2\n        /* \"#utility.yul\":389:405   */\n      swap1\n      pop\n        /* \"#utility.yul\":334:411   */\n      swap2\n      swap1\n      pop\n      jump\t// out\n        /* \"#utility.yul\":417:539   */\n    tag_37:\n        /* \"#utility.yul\":490:514   */\n      tag_79\n        /* \"#utility.yul\":508:513   */\n      dup2\n        /* \"#utility.yul\":490:514   */\n      tag_36\n      jump\t// in\n    tag_79:\n        /* \"#utility.yul\":483:488   */\n      dup2\n        /* \"#utility.yul\":480:515   */\n      eq\n        /* \"#utility.yul\":470:533   */\n      tag_80\n      jumpi\n        /* \"#utility.yul\":529:530   */\n      0x00\n        /* \"#utility.yul\":526:527   */\n      dup1\n        /* \"#utility.yul\":519:531   */\n      revert\n        /* \"#utility.yul\":470:533   */\n    tag_80:\n        /* \"#utility.yul\":417:539   */\n      pop\n      jump\t// out\n        /* \"#utility.yul\":545:684   */\n    tag_38:\n        /* \"#utility.yul\":591:596   */\n      0x00\n        /* \"#utility.yul\":629:635   */\n      dup2\n        /* \"#utility.yul\":616:636   */\n      calldataload\n        /* \"#utility.yul\":607:636   */\n      swap1\n      pop\n        /* \"#utility.yul\":645:678   */\n      tag_82\n        /* \"#utility.yul\":672:677   */\n      dup2\n        /* \"#utility.yul\":645:678   */\n      tag_37\n      jump\t// in\n    tag_82:\n        /* \"#utility.yul\":545:684   */\n      swap3\n      swap2\n      pop\n      pop\n      jump\t// out\n        /* \"#utility.yul\":690:1019   */\n    tag_7:\n        /* \"#utility.yul\":749:755   */\n      0x00\n        /* \"#utility.yul\":798:800   */\n      0x20\n        /* \"#utility.yul\":786:795   */\n      dup3\n        /* \"#utility.yul\":777:784   */\n      dup5\n        /* \"#utility.yul\":773:796   */\n      sub\n        /* \"#utility.yul\":769:801   */\n      slt\n        /* \"#utility.yul\":766:885   */\n      iszero\n      tag_84\n      jumpi\n        /* \"#utility.yul\":804:883   */\n      tag_85\n      tag_34\n      jump\t// in\n    tag_85:\n        /* \"#utility.yul\":766:885   */\n    tag_84:\n        /* \"#utility.yul\":924:925   */\n      0x00\n        /* \"#utility.yul\":949:1002   */\n      tag_86\n        /* \"#utility.yul\":994:1001   */\n      dup5\n        /* \"#utility.yul\":985:991   */\n      dup3\n        /* \"#utility.yul\":974:983   */\n      dup6\n        /* \"#utility.yul\":970:992   */\n      add\n        /* \"#utility.yul\":949:1002   */\n      tag_38\n      jump\t// in\n    tag_86:\n        /* \"#utility.yul\":939:1002   */\n      swap2\n      pop\n        /* \"#utility.yul\":895:1012   */\n      pop\n        /* \"#utility.yul\":690:1019   */\n      swap3\n      swap2\n      pop\n      pop\n      jump\t// out\n        /* \"#utility.yul\":1025:1124   */\n    tag_39:\n        /* \"#utility.yul\":1077:1083   */\n      0x00\n        /* \"#utility.yul\":1111:1116   */\n      dup2\n        /* \"#utility.yul\":1105:1117   */\n      mload\n        /* \"#utility.yul\":1095:1117   */\n      swap1\n      pop\n        /* \"#utility.yul\":1025:1124   */\n      swap2\n      swap1\n      pop\n      jump\t// out\n        /* \"#utility.yul\":1130:1299   */\n    tag_40:\n        /* \"#utility.yul\":1214:1225   */\n      0x00\n        /* \"#utility.yul\":1248:1254   */\n      dup3\n        /* \"#utility.yul\":1243:1246   */\n      dup3\n        /* \"#utility.yul\":1236:1255   */\n      mstore\n        /* \"#utility.yul\":1288:1292   */\n      0x20\n        /* \"#utility.yul\":1283:1286   */\n      dup3\n        /* \"#utility.yul\":1279:1293   */\n      add\n        /* \"#utility.yul\":1264:1293   */\n      swap1\n      pop\n        /* \"#utility.yul\":1130:1299   */\n      swap3\n      swap2\n      pop\n      pop\n      jump\t// out\n        /* \"#utility.yul\":1305:1551   */\n    tag_41:\n        /* \"#utility.yul\":1386:1387   */\n      0x00\n        /* \"#utility.yul\":1396:1509   */\n    tag_90:\n        /* \"#utility.yul\":1410:1416   */\n      dup4\n        /* \"#utility.yul\":1407:1408   */\n      dup2\n        /* \"#utility.yul\":1404:1417   */\n      lt\n        /* \"#utility.yul\":1396:1509   */\n      iszero\n      tag_92\n      jumpi\n        /* \"#utility.yul\":1495:1496   */\n      dup1\n        /* \"#utility.yul\":1490:1493   */\n      dup3\n        /* \"#utility.yul\":1486:1497   */\n      add\n        /* \"#utility.yul\":1480:1498   */\n      mload\n        /* \"#utility.yul\":1476:1477   */\n      dup2\n        /* \"#utility.yul\":1471:1474   */\n      dup5\n        /* \"#utility.yul\":1467:1478   */\n      add\n        /* \"#utility.yul\":1460:1499   */\n      mstore\n        /* \"#utility.yul\":1432:1434   */\n      0x20\n        /* \"#utility.yul\":1429:1430   */\n      dup2\n        /* \"#utility.yul\":1425:1435   */\n      add\n        /* \"#utility.yul\":1420:1435   */\n      swap1\n      pop\n        /* \"#utility.yul\":1396:1509   */\n      jump(tag_90)\n    tag_92:\n        /* \"#utility.yul\":1543:1544   */\n      0x00\n        /* \"#utility.yul\":1534:1540   */\n      dup5\n        /* \"#utility.yul\":1529:1532   */\n      dup5\n        /* \"#utility.yul\":1525:1541   */\n      add\n        /* \"#utility.yul\":1518:1545   */\n      mstore\n        /* \"#utility.yul\":1367:1551   */\n      pop\n        /* \"#utility.yul\":1305:1551   */\n      pop\n      pop\n      pop\n      jump\t// out\n        /* \"#utility.yul\":1557:1659   */\n    tag_42:\n        /* \"#utility.yul\":1598:1604   */\n      0x00\n        /* \"#utility.yul\":1649:1651   */\n      0x1f\n        /* \"#utility.yul\":1645:1652   */\n      not\n        /* \"#utility.yul\":1640:1642   */\n      0x1f\n        /* \"#utility.yul\":1633:1638   */\n      dup4\n        /* \"#utility.yul\":1629:1643   */\n      add\n        /* \"#utility.yul\":1625:1653   */\n      and\n        /* \"#utility.yul\":1615:1653   */\n      swap1\n      pop\n        /* \"#utility.yul\":1557:1659   */\n      swap2\n      swap1\n      pop\n      jump\t// out\n        /* \"#utility.yul\":1665:2042   */\n    tag_43:\n        /* \"#utility.yul\":1753:1756   */\n      0x00\n        /* \"#utility.yul\":1781:1820   */\n      tag_95\n        /* \"#utility.yul\":1814:1819   */\n      dup3\n        /* \"#utility.yul\":1781:1820   */\n      tag_39\n      jump\t// in\n    tag_95:\n        /* \"#utility.yul\":1836:1907   */\n      tag_96\n        /* \"#utility.yul\":1900:1906   */\n      dup2\n        /* \"#utility.yul\":1895:1898   */\n      dup6\n        /* \"#utility.yul\":1836:1907   */\n      tag_40\n      jump\t// in\n    tag_96:\n        /* \"#utility.yul\":1829:1907   */\n      swap4\n      pop\n        /* \"#utility.yul\":1916:1981   */\n      tag_97\n        /* \"#utility.yul\":1974:1980   */\n      dup2\n        /* \"#utility.yul\":1969:1972   */\n      dup6\n        /* \"#utility.yul\":1962:1966   */\n      0x20\n        /* \"#utility.yul\":1955:1960   */\n      dup7\n        /* \"#utility.yul\":1951:1967   */\n      add\n        /* \"#utility.yul\":1916:1981   */\n      tag_41\n      jump\t// in\n    tag_97:\n        /* \"#utility.yul\":2006:2035   */\n      tag_98\n        /* \"#utility.yul\":2028:2034   */\n      dup2\n        /* \"#utility.yul\":2006:2035   */\n      tag_42\n      jump\t// in\n    tag_98:\n        /* \"#utility.yul\":2001:2004   */\n      dup5\n        /* \"#utility.yul\":1997:2036   */\n      add\n        /* \"#utility.yul\":1990:2036   */\n      swap2\n      pop\n        /* \"#utility.yul\":1757:2042   */\n      pop\n        /* \"#utility.yul\":1665:2042   */\n      swap3\n      swap2\n      pop\n      pop\n      jump\t// out\n        /* \"#utility.yul\":2048:2361   */\n    tag_10:\n        /* \"#utility.yul\":2161:2165   */\n      0x00\n        /* \"#utility.yul\":2199:2201   */\n      0x20\n        /* \"#utility.yul\":2188:2197   */\n      dup3\n        /* \"#utility.yul\":2184:2202   */\n      add\n        /* \"#utility.yul\":2176:2202   */\n      swap1\n      pop\n        /* \"#utility.yul\":2248:2257   */\n      dup2\n        /* \"#utility.yul\":2242:2246   */\n      dup2\n        /* \"#utility.yul\":2238:2258   */\n      sub\n        /* \"#utility.yul\":2234:2235   */\n      0x00\n        /* \"#utility.yul\":2223:2232   */\n      dup4\n        /* \"#utility.yul\":2219:2236   */\n      add\n        /* \"#utility.yul\":2212:2259   */\n      mstore\n        /* \"#utility.yul\":2276:2354   */\n      tag_100\n        /* \"#utility.yul\":2349:2353   */\n      dup2\n        /* \"#utility.yul\":2340:2346   */\n      dup5\n        /* \"#utility.yul\":2276:2354   */\n      tag_43\n      jump\t// in\n    tag_100:\n        /* \"#utility.yul\":2268:2354   */\n      swap1\n      pop\n        /* \"#utility.yul\":2048:2361   */\n      swap3\n      swap2\n      pop\n      pop\n      jump\t// out\n        /* \"#utility.yul\":2367:2484   */\n    tag_44:\n        /* \"#utility.yul\":2476:2477   */\n      0x00\n        /* \"#utility.yul\":2473:2474   */\n      dup1\n        /* \"#utility.yul\":2466:2478   */\n      revert\n        /* \"#utility.yul\":2490:2607   */\n    tag_45:\n        /* \"#utility.yul\":2599:2600   */\n      0x00\n        /* \"#utility.yul\":2596:2597   */\n      dup1\n        /* \"#utility.yul\":2589:2601   */\n      revert\n        /* \"#utility.yul\":2613:2793   */\n    tag_46:\n        /* \"#utility.yul\":2661:2738   */\n      0x4e487b7100000000000000000000000000000000000000000000000000000000\n        /* \"#utility.yul\":2658:2659   */\n      0x00\n        /* \"#utility.yul\":2651:2739   */\n      mstore\n        /* \"#utility.yul\":2758:2762   */\n      0x41\n        /* \"#utility.yul\":2755:2756   */\n      0x04\n        /* \"#utility.yul\":2748:2763   */\n      mstore\n        /* \"#utility.yul\":2782:2786   */\n      0x24\n        /* \"#utility.yul\":2779:2780   */\n      0x00\n        /* \"#utility.yul\":2772:2787   */\n      revert\n        /* \"#utility.yul\":2799:3080   */\n    tag_47:\n        /* \"#utility.yul\":2882:2909   */\n      tag_105\n        /* \"#utility.yul\":2904:2908   */\n      dup3\n        /* \"#utility.yul\":2882:2909   */\n      tag_42\n      jump\t// in\n    tag_105:\n        /* \"#utility.yul\":2874:2880   */\n      dup2\n        /* \"#utility.yul\":2870:2910   */\n      add\n        /* \"#utility.yul\":3012:3018   */\n      dup2\n        /* \"#utility.yul\":3000:3010   */\n      dup2\n        /* \"#utility.yul\":2997:3019   */\n      lt\n        /* \"#utility.yul\":2976:2994   */\n      0xffffffffffffffff\n        /* \"#utility.yul\":2964:2974   */\n      dup3\n        /* \"#utility.yul\":2961:2995   */\n      gt\n        /* \"#utility.yul\":2958:3020   */\n      or\n        /* \"#utility.yul\":2955:3043   */\n      iszero\n      tag_106\n      jumpi\n        /* \"#utility.yul\":3023:3041   */\n      tag_107\n      tag_46\n      jump\t// in\n    tag_107:\n        /* \"#utility.yul\":2955:3043   */\n    tag_106:\n        /* \"#utility.yul\":3063:3073   */\n      dup1\n        /* \"#utility.yul\":3059:3061   */\n      0x40\n        /* \"#utility.yul\":3052:3074   */\n      mstore\n        /* \"#utility.yul\":2842:3080   */\n      pop\n        /* \"#utility.yul\":2799:3080   */\n      pop\n      pop\n      jump\t// out\n        /* \"#utility.yul\":3086:3215   */\n    tag_48:\n        /* \"#utility.yul\":3120:3126   */\n      0x00\n        /* \"#utility.yul\":3147:3167   */\n      tag_109\n      tag_33\n      jump\t// in\n    tag_109:\n        /* \"#utility.yul\":3137:3167   */\n      swap1\n      pop\n        /* \"#utility.yul\":3176:3209   */\n      tag_110\n        /* \"#utility.yul\":3204:3208   */\n      dup3\n        /* \"#utility.yul\":3196:3202   */\n      dup3\n        /* \"#utility.yul\":3176:3209   */\n      tag_47\n      jump\t// in\n    tag_110:\n        /* \"#utility.yul\":3086:3215   */\n      swap2\n      swap1\n      pop\n      jump\t// out\n        /* \"#utility.yul\":3221:3529   */\n    tag_49:\n        /* \"#utility.yul\":3283:3287   */\n      0x00\n        /* \"#utility.yul\":3373:3391   */\n      0xffffffffffffffff\n        /* \"#utility.yul\":3365:3371   */\n      dup3\n        /* \"#utility.yul\":3362:3392   */\n      gt\n        /* \"#utility.yul\":3359:3415   */\n      iszero\n      tag_112\n      jumpi\n        /* \"#utility.yul\":3395:3413   */\n      tag_113\n      tag_46\n      jump\t// in\n    tag_113:\n        /* \"#utility.yul\":3359:3415   */\n    tag_112:\n        /* \"#utility.yul\":3433:3462   */\n      tag_114\n        /* \"#utility.yul\":3455:3461   */\n      dup3\n        /* \"#utility.yul\":3433:3462   */\n      tag_42\n      jump\t// in\n    tag_114:\n        /* \"#utility.yul\":3425:3462   */\n      swap1\n      pop\n        /* \"#utility.yul\":3517:3521   */\n      0x20\n        /* \"#utility.yul\":3511:3515   */\n      dup2\n        /* \"#utility.yul\":3507:3522   */\n      add\n        /* \"#utility.yul\":3499:3522   */\n      swap1\n      pop\n        /* \"#utility.yul\":3221:3529   */\n      swap2\n      swap1\n      pop\n      jump\t// out\n        /* \"#utility.yul\":3535:3681   */\n    tag_50:\n        /* \"#utility.yul\":3632:3638   */\n      dup3\n        /* \"#utility.yul\":3627:3630   */\n      dup2\n        /* \"#utility.yul\":3622:3625   */\n      dup4\n        /* \"#utility.yul\":3609:3639   */\n      calldatacopy\n        /* \"#utility.yul\":3673:3674   */\n      0x00\n        /* \"#utility.yul\":3664:3670   */\n      dup4\n        /* \"#utility.yul\":3659:3662   */\n      dup4\n        /* \"#utility.yul\":3655:3671   */\n      add\n        /* \"#utility.yul\":3648:3675   */\n      mstore\n        /* \"#utility.yul\":3535:3681   */\n      pop\n      pop\n      pop\n      jump\t// out\n        /* \"#utility.yul\":3687:4112   */\n    tag_51:\n        /* \"#utility.yul\":3765:3770   */\n      0x00\n        /* \"#utility.yul\":3790:3856   */\n      tag_117\n        /* \"#utility.yul\":3806:3855   */\n      tag_118\n        /* \"#utility.yul\":3848:3854   */\n      dup5\n        /* \"#utility.yul\":3806:3855   */\n      tag_49\n      jump\t// in\n    tag_118:\n        /* \"#utility.yul\":3790:3856   */\n      tag_48\n      jump\t// in\n    tag_117:\n        /* \"#utility.yul\":3781:3856   */\n      swap1\n      pop\n        /* \"#utility.yul\":3879:3885   */\n      dup3\n        /* \"#utility.yul\":3872:3877   */\n      dup2\n        /* \"#utility.yul\":3865:3886   */\n      mstore\n        /* \"#utility.yul\":3917:3921   */\n      0x20\n        /* \"#utility.yul\":3910:3915   */\n      dup2\n        /* \"#utility.yul\":3906:3922   */\n      add\n        /* \"#utility.yul\":3955:3958   */\n      dup5\n        /* \"#utility.yul\":3946:3952   */\n      dup5\n        /* \"#utility.yul\":3941:3944   */\n      dup5\n        /* \"#utility.yul\":3937:3953   */\n      add\n        /* \"#utility.yul\":3934:3959   */\n      gt\n        /* \"#utility.yul\":3931:4043   */\n      iszero\n      tag_119\n      jumpi\n        /* \"#utility.yul\":3962:4041   */\n      tag_120\n      tag_45\n      jump\t// in\n    tag_120:\n        /* \"#utility.yul\":3931:4043   */\n    tag_119:\n        /* \"#utility.yul\":4052:4106   */\n      tag_121\n        /* \"#utility.yul\":4099:4105   */\n      dup5\n        /* \"#utility.yul\":4094:4097   */\n      dup3\n        /* \"#utility.yul\":4089:4092   */\n      dup6\n        /* \"#utility.yul\":4052:4106   */\n      tag_50\n      jump\t// in\n    tag_121:\n        /* \"#utility.yul\":3771:4112   */\n      pop\n        /* \"#utility.yul\":3687:4112   */\n      swap4\n      swap3\n      pop\n      pop\n      pop\n      jump\t// out\n        /* \"#utility.yul\":4132:4472   */\n    tag_52:\n        /* \"#utility.yul\":4188:4193   */\n      0x00\n        /* \"#utility.yul\":4237:4240   */\n      dup3\n        /* \"#utility.yul\":4230:4234   */\n      0x1f\n        /* \"#utility.yul\":4222:4228   */\n      dup4\n        /* \"#utility.yul\":4218:4235   */\n      add\n        /* \"#utility.yul\":4214:4241   */\n      slt\n        /* \"#utility.yul\":4204:4326   */\n      tag_123\n      jumpi\n        /* \"#utility.yul\":4245:4324   */\n      tag_124\n      tag_44\n      jump\t// in\n    tag_124:\n        /* \"#utility.yul\":4204:4326   */\n    tag_123:\n        /* \"#utility.yul\":4362:4368   */\n      dup2\n        /* \"#utility.yul\":4349:4369   */\n      calldataload\n        /* \"#utility.yul\":4387:4466   */\n      tag_125\n        /* \"#utility.yul\":4462:4465   */\n      dup5\n        /* \"#utility.yul\":4454:4460   */\n      dup3\n        /* \"#utility.yul\":4447:4451   */\n      0x20\n        /* \"#utility.yul\":4439:4445   */\n      dup7\n        /* \"#utility.yul\":4435:4452   */\n      add\n        /* \"#utility.yul\":4387:4466   */\n      tag_51\n      jump\t// in\n    tag_125:\n        /* \"#utility.yul\":4378:4466   */\n      swap2\n      pop\n        /* \"#utility.yul\":4194:4472   */\n      pop\n        /* \"#utility.yul\":4132:4472   */\n      swap3\n      swap2\n      pop\n      pop\n      jump\t// out\n        /* \"#utility.yul\":4478:5132   */\n    tag_13:\n        /* \"#utility.yul\":4556:4562   */\n      0x00\n        /* \"#utility.yul\":4564:4570   */\n      dup1\n        /* \"#utility.yul\":4613:4615   */\n      0x40\n        /* \"#utility.yul\":4601:4610   */\n      dup4\n        /* \"#utility.yul\":4592:4599   */\n      dup6\n        /* \"#utility.yul\":4588:4611   */\n      sub\n        /* \"#utility.yul\":4584:4616   */\n      slt\n        /* \"#utility.yul\":4581:4700   */\n      iszero\n      tag_127\n      jumpi\n        /* \"#utility.yul\":4619:4698   */\n      tag_128\n      tag_34\n      jump\t// in\n    tag_128:\n        /* \"#utility.yul\":4581:4700   */\n    tag_127:\n        /* \"#utility.yul\":4739:4740   */\n      0x00\n        /* \"#utility.yul\":4764:4817   */\n      tag_129\n        /* \"#utility.yul\":4809:4816   */\n      dup6\n        /* \"#utility.yul\":4800:4806   */\n      dup3\n        /* \"#utility.yul\":4789:4798   */\n      dup7\n        /* \"#utility.yul\":4785:4807   */\n      add\n        /* \"#utility.yul\":4764:4817   */\n      tag_38\n      jump\t// in\n    tag_129:\n        /* \"#utility.yul\":4754:4817   */\n      swap3\n      pop\n        /* \"#utility.yul\":4710:4827   */\n      pop\n        /* \"#utility.yul\":4894:4896   */\n      0x20\n        /* \"#utility.yul\":4883:4892   */\n      dup4\n        /* \"#utility.yul\":4879:4897   */\n      add\n        /* \"#utility.yul\":4866:4898   */\n      calldataload\n        /* \"#utility.yul\":4925:4943   */\n      0xffffffffffffffff\n        /* \"#utility.yul\":4917:4923   */\n      dup2\n        /* \"#utility.yul\":4914:4944   */\n      gt\n        /* \"#utility.yul\":4911:5028   */\n      iszero\n      tag_130\n      jumpi\n        /* \"#utility.yul\":4947:5026   */\n      tag_131\n      tag_35\n      jump\t// in\n    tag_131:\n        /* \"#utility.yul\":4911:5028   */\n    tag_130:\n        /* \"#utility.yul\":5052:5115   */\n      tag_132\n        /* \"#utility.yul\":5107:5114   */\n      dup6\n        /* \"#utility.yul\":5098:5104   */\n      dup3\n        /* \"#utility.yul\":5087:5096   */\n      dup7\n        /* \"#utility.yul\":5083:5105   */\n      add\n        /* \"#utility.yul\":5052:5115   */\n      tag_52\n      jump\t// in\n    tag_132:\n        /* \"#utility.yul\":5042:5115   */\n      swap2\n      pop\n        /* \"#utility.yul\":4837:5125   */\n      pop\n        /* \"#utility.yul\":4478:5132   */\n      swap3\n      pop\n      swap3\n      swap1\n      pop\n      jump\t// out\n        /* \"#utility.yul\":5138:5318   */\n    tag_53:\n        /* \"#utility.yul\":5186:5263   */\n      0x4e487b7100000000000000000000000000000000000000000000000000000000\n        /* \"#utility.yul\":5183:5184   */\n      0x00\n        /* \"#utility.yul\":5176:5264   */\n      mstore\n        /* \"#utility.yul\":5283:5287   */\n      0x22\n        /* \"#utility.yul\":5280:5281   */\n      0x04\n        /* \"#utility.yul\":5273:5288   */\n      mstore\n        /* \"#utility.yul\":5307:5311   */\n      0x24\n        /* \"#utility.yul\":5304:5305   */\n      0x00\n        /* \"#utility.yul\":5297:5312   */\n      revert\n        /* \"#utility.yul\":5324:5644   */\n    tag_17:\n        /* \"#utility.yul\":5368:5374   */\n      0x00\n        /* \"#utility.yul\":5405:5406   */\n      0x02\n        /* \"#utility.yul\":5399:5403   */\n      dup3\n        /* \"#utility.yul\":5395:5407   */\n      div\n        /* \"#utility.yul\":5385:5407   */\n      swap1\n      pop\n        /* \"#utility.yul\":5452:5453   */\n      0x01\n        /* \"#utility.yul\":5446:5450   */\n      dup3\n        /* \"#utility.yul\":5442:5454   */\n      and\n        /* \"#utility.yul\":5473:5491   */\n      dup1\n        /* \"#utility.yul\":5463:5544   */\n      tag_135\n      jumpi\n        /* \"#utility.yul\":5529:5533   */\n      0x7f\n        /* \"#utility.yul\":5521:5527   */\n      dup3\n        /* \"#utility.yul\":5517:5534   */\n      and\n        /* \"#utility.yul\":5507:5534   */\n      swap2\n      pop\n        /* \"#utility.yul\":5463:5544   */\n    tag_135:\n        /* \"#utility.yul\":5591:5593   */\n      0x20\n        /* \"#utility.yul\":5583:5589   */\n      dup3\n        /* \"#utility.yul\":5580:5594   */\n      lt\n        /* \"#utility.yul\":5560:5578   */\n      dup2\n        /* \"#utility.yul\":5557:5595   */\n      sub\n        /* \"#utility.yul\":5554:5638   */\n      tag_136\n      jumpi\n        /* \"#utility.yul\":5610:5628   */\n      tag_137\n      tag_53\n      jump\t// in\n    tag_137:\n        /* \"#utility.yul\":5554:5638   */\n    tag_136:\n        /* \"#utility.yul\":5375:5644   */\n      pop\n        /* \"#utility.yul\":5324:5644   */\n      swap2\n      swap1\n      pop\n      jump\t// out\n        /* \"#utility.yul\":5650:5826   */\n    tag_54:\n        /* \"#utility.yul\":5790:5818   */\n      0x55736572206e756d62657220646f6573206e6f74206578697374000000000000\n        /* \"#utility.yul\":5786:5787   */\n      0x00\n        /* \"#utility.yul\":5778:5784   */\n      dup3\n        /* \"#utility.yul\":5774:5788   */\n      add\n        /* \"#utility.yul\":5767:5819   */\n      mstore\n        /* \"#utility.yul\":5650:5826   */\n      pop\n      jump\t// out\n        /* \"#utility.yul\":5832:6198   */\n    tag_55:\n        /* \"#utility.yul\":5974:5977   */\n      0x00\n        /* \"#utility.yul\":5995:6062   */\n      tag_140\n        /* \"#utility.yul\":6059:6061   */\n      0x1a\n        /* \"#utility.yul\":6054:6057   */\n      dup4\n        /* \"#utility.yul\":5995:6062   */\n      tag_40\n      jump\t// in\n    tag_140:\n        /* \"#utility.yul\":5988:6062   */\n      swap2\n      pop\n        /* \"#utility.yul\":6071:6164   */\n      tag_141\n        /* \"#utility.yul\":6160:6163   */\n      dup3\n        /* \"#utility.yul\":6071:6164   */\n      tag_54\n      jump\t// in\n    tag_141:\n        /* \"#utility.yul\":6189:6191   */\n      0x20\n        /* \"#utility.yul\":6184:6187   */\n      dup3\n        /* \"#utility.yul\":6180:6192   */\n      add\n        /* \"#utility.yul\":6173:6192   */\n      swap1\n      pop\n        /* \"#utility.yul\":5832:6198   */\n      swap2\n      swap1\n      pop\n      jump\t// out\n        /* \"#utility.yul\":6204:6623   */\n    tag_20:\n        /* \"#utility.yul\":6370:6374   */\n      0x00\n        /* \"#utility.yul\":6408:6410   */\n      0x20\n        /* \"#utility.yul\":6397:6406   */\n      dup3\n        /* \"#utility.yul\":6393:6411   */\n      add\n        /* \"#utility.yul\":6385:6411   */\n      swap1\n      pop\n        /* \"#utility.yul\":6457:6466   */\n      dup2\n        /* \"#utility.yul\":6451:6455   */\n      dup2\n        /* \"#utility.yul\":6447:6467   */\n      sub\n        /* \"#utility.yul\":6443:6444   */\n      0x00\n        /* \"#utility.yul\":6432:6441   */\n      dup4\n        /* \"#utility.yul\":6428:6445   */\n      add\n        /* \"#utility.yul\":6421:6468   */\n      mstore\n        /* \"#utility.yul\":6485:6616   */\n      tag_143\n        /* \"#utility.yul\":6611:6615   */\n      dup2\n        /* \"#utility.yul\":6485:6616   */\n      tag_55\n      jump\t// in\n    tag_143:\n        /* \"#utility.yul\":6477:6616   */\n      swap1\n      pop\n        /* \"#utility.yul\":6204:6623   */\n      swap2\n      swap1\n      pop\n      jump\t// out\n        /* \"#utility.yul\":6629:6805   */\n    tag_56:\n        /* \"#utility.yul\":6769:6797   */\n      0x55736572206e756d62657220616c726561647920657869737473000000000000\n        /* \"#utility.yul\":6765:6766   */\n      0x00\n        /* \"#utility.yul\":6757:6763   */\n      dup3\n        /* \"#utility.yul\":6753:6767   */\n      add\n        /* \"#utility.yul\":6746:6798   */\n      mstore\n        /* \"#utility.yul\":6629:6805   */\n      pop\n      jump\t// out\n        /* \"#utility.yul\":6811:7177   */\n    tag_57:\n        /* \"#utility.yul\":6953:6956   */\n      0x00\n        /* \"#utility.yul\":6974:7041   */\n      tag_146\n        /* \"#utility.yul\":7038:7040   */\n      0x1a\n        /* \"#utility.yul\":7033:7036   */\n      dup4\n        /* \"#utility.yul\":6974:7041   */\n      tag_40\n      jump\t// in\n    tag_146:\n        /* \"#utility.yul\":6967:7041   */\n      swap2\n      pop\n        /* \"#utility.yul\":7050:7143   */\n      tag_147\n        /* \"#utility.yul\":7139:7142   */\n      dup3\n        /* \"#utility.yul\":7050:7143   */\n      tag_56\n      jump\t// in\n    tag_147:\n        /* \"#utility.yul\":7168:7170   */\n      0x20\n        /* \"#utility.yul\":7163:7166   */\n      dup3\n        /* \"#utility.yul\":7159:7171   */\n      add\n        /* \"#utility.yul\":7152:7171   */\n      swap1\n      pop\n        /* \"#utility.yul\":6811:7177   */\n      swap2\n      swap1\n      pop\n      jump\t// out\n        /* \"#utility.yul\":7183:7602   */\n    tag_30:\n        /* \"#utility.yul\":7349:7353   */\n      0x00\n        /* \"#utility.yul\":7387:7389   */\n      0x20\n        /* \"#utility.yul\":7376:7385   */\n      dup3\n        /* \"#utility.yul\":7372:7390   */\n      add\n        /* \"#utility.yul\":7364:7390   */\n      swap1\n      pop\n        /* \"#utility.yul\":7436:7445   */\n      dup2\n        /* \"#utility.yul\":7430:7434   */\n      dup2\n        /* \"#utility.yul\":7426:7446   */\n      sub\n        /* \"#utility.yul\":7422:7423   */\n      0x00\n        /* \"#utility.yul\":7411:7420   */\n      dup4\n        /* \"#utility.yul\":7407:7424   */\n      add\n        /* \"#utility.yul\":7400:7447   */\n      mstore\n        /* \"#utility.yul\":7464:7595   */\n      tag_149\n        /* \"#utility.yul\":7590:7594   */\n      dup2\n        /* \"#utility.yul\":7464:7595   */\n      tag_57\n      jump\t// in\n    tag_149:\n        /* \"#utility.yul\":7456:7595   */\n      swap1\n      pop\n        /* \"#utility.yul\":7183:7602   */\n      swap2\n      swap1\n      pop\n      jump\t// out\n        /* \"#utility.yul\":7608:7749   */\n    tag_58:\n        /* \"#utility.yul\":7657:7661   */\n      0x00\n        /* \"#utility.yul\":7680:7683   */\n      dup2\n        /* \"#utility.yul\":7672:7683   */\n      swap1\n      pop\n        /* \"#utility.yul\":7703:7706   */\n      dup2\n        /* \"#utility.yul\":7700:7701   */\n      0x00\n        /* \"#utility.yul\":7693:7707   */\n      mstore\n        /* \"#utility.yul\":7737:7741   */\n      0x20\n        /* \"#utility.yul\":7734:7735   */\n      0x00\n        /* \"#utility.yul\":7724:7742   */\n      keccak256\n        /* \"#utility.yul\":7716:7742   */\n      swap1\n      pop\n        /* \"#utility.yul\":7608:7749   */\n      swap2\n      swap1\n      pop\n      jump\t// out\n        /* \"#utility.yul\":7755:7848   */\n    tag_59:\n        /* \"#utility.yul\":7792:7798   */\n      0x00\n        /* \"#utility.yul\":7839:7841   */\n      0x20\n        /* \"#utility.yul\":7834:7836   */\n      0x1f\n        /* \"#utility.yul\":7827:7832   */\n      dup4\n        /* \"#utility.yul\":7823:7837   */\n      add\n        /* \"#utility.yul\":7819:7842   */\n      div\n        /* \"#utility.yul\":7809:7842   */\n      swap1\n      pop\n        /* \"#utility.yul\":7755:7848   */\n      swap2\n      swap1\n      pop\n      jump\t// out\n        /* \"#utility.yul\":7854:7961   */\n    tag_60:\n        /* \"#utility.yul\":7898:7906   */\n      0x00\n        /* \"#utility.yul\":7948:7953   */\n      dup3\n        /* \"#utility.yul\":7942:7946   */\n      dup3\n        /* \"#utility.yul\":7938:7954   */\n      shl\n        /* \"#utility.yul\":7917:7954   */\n      swap1\n      pop\n        /* \"#utility.yul\":7854:7961   */\n      swap3\n      swap2\n      pop\n      pop\n      jump\t// out\n        /* \"#utility.yul\":7967:8360   */\n    tag_61:\n        /* \"#utility.yul\":8036:8042   */\n      0x00\n        /* \"#utility.yul\":8086:8087   */\n      0x08\n        /* \"#utility.yul\":8074:8084   */\n      dup4\n        /* \"#utility.yul\":8070:8088   */\n      mul\n        /* \"#utility.yul\":8109:8206   */\n      tag_154\n        /* \"#utility.yul\":8139:8205   */\n      0xffffffffffffffffffffffffffffffffffffffffffffffffffffffffffffffff\n        /* \"#utility.yul\":8128:8137   */\n      dup3\n        /* \"#utility.yul\":8109:8206   */\n      tag_60\n      jump\t// in\n    tag_154:\n        /* \"#utility.yul\":8227:8266   */\n      tag_155\n        /* \"#utility.yul\":8257:8265   */\n      dup7\n        /* \"#utility.yul\":8246:8255   */\n      dup4\n        /* \"#utility.yul\":8227:8266   */\n      tag_60\n      jump\t// in\n    tag_155:\n        /* \"#utility.yul\":8215:8266   */\n      swap6\n      pop\n        /* \"#utility.yul\":8299:8303   */\n      dup1\n        /* \"#utility.yul\":8295:8304   */\n      not\n        /* \"#utility.yul\":8288:8293   */\n      dup5\n        /* \"#utility.yul\":8284:8305   */\n      and\n        /* \"#utility.yul\":8275:8305   */\n      swap4\n      pop\n        /* \"#utility.yul\":8348:8352   */\n      dup1\n        /* \"#utility.yul\":8338:8346   */\n      dup7\n        /* \"#utility.yul\":8334:8353   */\n      and\n        /* \"#utility.yul\":8327:8332   */\n      dup5\n        /* \"#utility.yul\":8324:8354   */\n      or\n        /* \"#utility.yul\":8314:8354   */\n      swap3\n      pop\n        /* \"#utility.yul\":8043:8360   */\n      pop\n      pop\n        /* \"#utility.yul\":7967:8360   */\n      swap4\n      swap3\n      pop\n      pop\n      pop\n      jump\t// out\n        /* \"#utility.yul\":8366:8426   */\n    tag_62:\n        /* \"#utility.yul\":8394:8397   */\n      0x00\n        /* \"#utility.yul\":8415:8420   */\n      dup2\n        /* \"#utility.yul\":8408:8420   */\n      swap1\n      pop\n        /* \"#utility.yul\":8366:8426   */\n      swap2\n      swap1\n      pop\n      jump\t// out\n        /* \"#utility.yul\":8432:8574   */\n    tag_63:\n        /* \"#utility.yul\":8482:8491   */\n      0x00\n        /* \"#utility.yul\":8515:8568   */\n      tag_158\n        /* \"#utility.yul\":8533:8567   */\n      tag_159\n        /* \"#utility.yul\":8542:8566   */\n      tag_160\n        /* \"#utility.yul\":8560:8565   */\n      dup5\n        /* \"#utility.yul\":8542:8566   */\n      tag_36\n      jump\t// in\n    tag_160:\n        /* \"#utility.yul\":8533:8567   */\n      tag_62\n      jump\t// in\n    tag_159:\n        /* \"#utility.yul\":8515:8568   */\n      tag_36\n      jump\t// in\n    tag_158:\n        /* \"#utility.yul\":8502:8568   */\n      swap1\n      pop\n        /* \"#utility.yul\":8432:8574   */\n      swap2\n      swap1\n      pop\n      jump\t// out\n        /* \"#utility.yul\":8580:8655   */\n    tag_64:\n        /* \"#utility.yul\":8623:8626   */\n      0x00\n        /* \"#utility.yul\":8644:8649   */\n      dup2\n        /* \"#utility.yul\":8637:8649   */\n      swap1\n      pop\n        /* \"#utility.yul\":8580:8655   */\n      swap2\n      swap1\n      pop\n      jump\t// out\n        /* \"#utility.yul\":8661:8930   */\n    tag_65:\n        /* \"#utility.yul\":8771:8810   */\n      tag_163\n        /* \"#utility.yul\":8802:8809   */\n      dup4\n        /* \"#utility.yul\":8771:8810   */\n      tag_63\n      jump\t// in\n    tag_163:\n        /* \"#utility.yul\":8832:8923   */\n      tag_164\n        /* \"#utility.yul\":8881:8922   */\n      tag_165\n        /* \"#utility.yul\":8905:8921   */\n      dup3\n        /* \"#utility.yul\":8881:8922   */\n      tag_64\n      jump\t// in\n    tag_165:\n        /* \"#utility.yul\":8873:8879   */\n      dup5\n        /* \"#utility.yul\":8866:8870   */\n      dup5\n        /* \"#utility.yul\":8860:8871   */\n      sload\n        /* \"#utility.yul\":8832:8923   */\n      tag_61\n      jump\t// in\n    tag_164:\n        /* \"#utility.yul\":8826:8830   */\n      dup3\n        /* \"#utility.yul\":8819:8924   */\n      sstore\n        /* \"#utility.yul\":8737:8930   */\n      pop\n        /* \"#utility.yul\":8661:8930   */\n      pop\n      pop\n      pop\n      jump\t// out\n        /* \"#utility.yul\":8936:9009   */\n    tag_66:\n        /* \"#utility.yul\":8981:8984   */\n      0x00\n        /* \"#utility.yul\":8936:9009   */\n      swap1\n      jump\t// out\n        /* \"#utility.yul\":9015:9204   */\n    tag_67:\n        /* \"#utility.yul\":9092:9124   */\n      tag_168\n      tag_66\n      jump\t// in\n    tag_168:\n        /* \"#utility.yul\":9133:9198   */\n      tag_169\n        /* \"#utility.yul\":9191:9197   */\n      dup2\n        /* \"#utility.yul\":9183:9189   */\n      dup5\n        /* \"#utility.yul\":9177:9181   */\n      dup5\n        /* \"#utility.yul\":9133:9198   */\n      tag_65\n      jump\t// in\n    tag_169:\n        /* \"#utility.yul\":9068:9204   */\n      pop\n        /* \"#utility.yul\":9015:9204   */\n      pop\n      pop\n      jump\t// out\n        /* \"#utility.yul\":9210:9396   */\n    tag_68:\n        /* \"#utility.yul\":9270:9390   */\n    tag_171:\n        /* \"#utility.yul\":9287:9290   */\n      dup2\n        /* \"#utility.yul\":9280:9285   */\n      dup2\n        /* \"#utility.yul\":9277:9291   */\n      lt\n        /* \"#utility.yul\":9270:9390   */\n      iszero\n      tag_173\n      jumpi\n        /* \"#utility.yul\":9341:9380   */\n      tag_174\n        /* \"#utility.yul\":9378:9379   */\n      0x00\n        /* \"#utility.yul\":9371:9376   */\n      dup3\n        /* \"#utility.yul\":9341:9380   */\n      tag_67\n      jump\t// in\n    tag_174:\n        /* \"#utility.yul\":9314:9315   */\n      0x01\n        /* \"#utility.yul\":9307:9312   */\n      dup2\n        /* \"#utility.yul\":9303:9316   */\n      add\n        /* \"#utility.yul\":9294:9316   */\n      swap1\n      pop\n        /* \"#utility.yul\":9270:9390   */\n      jump(tag_171)\n    tag_173:\n        /* \"#utility.yul\":9210:9396   */\n      pop\n      pop\n      jump\t// out\n        /* \"#utility.yul\":9402:9945   */\n    tag_69:\n        /* \"#utility.yul\":9503:9505   */\n      0x1f\n        /* \"#utility.yul\":9498:9501   */\n      dup3\n        /* \"#utility.yul\":9495:9506   */\n      gt\n        /* \"#utility.yul\":9492:9938   */\n      iszero\n      tag_176\n      jumpi\n        /* \"#utility.yul\":9537:9575   */\n      tag_177\n        /* \"#utility.yul\":9569:9574   */\n      dup2\n        /* \"#utility.yul\":9537:9575   */\n      tag_58\n      jump\t// in\n    tag_177:\n        /* \"#utility.yul\":9621:9650   */\n      tag_178\n        /* \"#utility.yul\":9639:9649   */\n      dup5\n        /* \"#utility.yul\":9621:9650   */\n      tag_59\n      jump\t// in\n    tag_178:\n        /* \"#utility.yul\":9611:9619   */\n      dup2\n        /* \"#utility.yul\":9607:9651   */\n      add\n        /* \"#utility.yul\":9804:9806   */\n      0x20\n        /* \"#utility.yul\":9792:9802   */\n      dup6\n        /* \"#utility.yul\":9789:9807   */\n      lt\n        /* \"#utility.yul\":9786:9835   */\n      iszero\n      tag_179\n      jumpi\n        /* \"#utility.yul\":9825:9833   */\n      dup2\n        /* \"#utility.yul\":9810:9833   */\n      swap1\n      pop\n        /* \"#utility.yul\":9786:9835   */\n    tag_179:\n        /* \"#utility.yul\":9848:9928   */\n      tag_180\n        /* \"#utility.yul\":9904:9926   */\n      tag_181\n        /* \"#utility.yul\":9922:9925   */\n      dup6\n        /* \"#utility.yul\":9904:9926   */\n      tag_59\n      jump\t// in\n    tag_181:\n        /* \"#utility.yul\":9894:9902   */\n      dup4\n        /* \"#utility.yul\":9890:9927   */\n      add\n        /* \"#utility.yul\":9877:9888   */\n      dup3\n        /* \"#utility.yul\":9848:9928   */\n      tag_68\n      jump\t// in\n    tag_180:\n        /* \"#utility.yul\":9507:9938   */\n      pop\n      pop\n        /* \"#utility.yul\":9492:9938   */\n    tag_176:\n        /* \"#utility.yul\":9402:9945   */\n      pop\n      pop\n      pop\n      jump\t// out\n        /* \"#utility.yul\":9951:10068   */\n    tag_70:\n        /* \"#utility.yul\":10005:10013   */\n      0x00\n        /* \"#utility.yul\":10055:10060   */\n      dup3\n        /* \"#utility.yul\":10049:10053   */\n      dup3\n        /* \"#utility.yul\":10045:10061   */\n      shr\n        /* \"#utility.yul\":10024:10061   */\n      swap1\n      pop\n        /* \"#utility.yul\":9951:10068   */\n      swap3\n      swap2\n      pop\n      pop\n      jump\t// out\n        /* \"#utility.yul\":10074:10243   */\n    tag_71:\n        /* \"#utility.yul\":10118:10124   */\n      0x00\n        /* \"#utility.yul\":10151:10202   */\n      tag_184\n        /* \"#utility.yul\":10199:10200   */\n      0x00\n        /* \"#utility.yul\":10195:10201   */\n      not\n        /* \"#utility.yul\":10187:10192   */\n      dup5\n        /* \"#utility.yul\":10184:10185   */\n      0x08\n        /* \"#utility.yul\":10180:10193   */\n      mul\n        /* \"#utility.yul\":10151:10202   */\n      tag_70\n      jump\t// in\n    tag_184:\n        /* \"#utility.yul\":10147:10203   */\n      not\n        /* \"#utility.yul\":10232:10236   */\n      dup1\n        /* \"#utility.yul\":10226:10230   */\n      dup4\n        /* \"#utility.yul\":10222:10237   */\n      and\n        /* \"#utility.yul\":10212:10237   */\n      swap2\n      pop\n        /* \"#utility.yul\":10125:10243   */\n      pop\n        /* \"#utility.yul\":10074:10243   */\n      swap3\n      swap2\n      pop\n      pop\n      jump\t// out\n        /* \"#utility.yul\":10248:10543   */\n    tag_72:\n        /* \"#utility.yul\":10324:10328   */\n      0x00\n        /* \"#utility.yul\":10470:10499   */\n      tag_186\n        /* \"#utility.yul\":10495:10498   */\n      dup4\n        /* \"#utility.yul\":10489:10493   */\n      dup4\n        /* \"#utility.yul\":10470:10499   */\n      tag_71\n      jump\t// in\n    tag_186:\n        /* \"#utility.yul\":10462:10499   */\n      swap2\n      pop\n        /* \"#utility.yul\":10532:10535   */\n      dup3\n        /* \"#utility.yul\":10529:10530   */\n      0x02\n        /* \"#utility.yul\":10525:10536   */\n      mul\n        /* \"#utility.yul\":10519:10523   */\n      dup3\n        /* \"#utility.yul\":10516:10537   */\n      or\n        /* \"#utility.yul\":10508:10537   */\n      swap1\n      pop\n        /* \"#utility.yul\":10248:10543   */\n      swap3\n      swap2\n      pop\n      pop\n      jump\t// out\n        /* \"#utility.yul\":10548:11943   */\n    tag_32:\n        /* \"#utility.yul\":10665:10702   */\n      tag_188\n        /* \"#utility.yul\":10698:10701   */\n      dup3\n        /* \"#utility.yul\":10665:10702   */\n      tag_39\n      jump\t// in\n    tag_188:\n        /* \"#utility.yul\":10767:10785   */\n      0xffffffffffffffff\n        /* \"#utility.yul\":10759:10765   */\n      dup2\n        /* \"#utility.yul\":10756:10786   */\n      gt\n        /* \"#utility.yul\":10753:10809   */\n      iszero\n      tag_189\n      jumpi\n        /* \"#utility.yul\":10789:10807   */\n      tag_190\n      tag_46\n      jump\t// in\n    tag_190:\n        /* \"#utility.yul\":10753:10809   */\n    tag_189:\n        /* \"#utility.yul\":10833:10871   */\n      tag_191\n        /* \"#utility.yul\":10865:10869   */\n      dup3\n        /* \"#utility.yul\":10859:10870   */\n      sload\n        /* \"#utility.yul\":10833:10871   */\n      tag_17\n      jump\t// in\n    tag_191:\n        /* \"#utility.yul\":10918:10985   */\n      tag_192\n        /* \"#utility.yul\":10978:10984   */\n      dup3\n        /* \"#utility.yul\":10970:10976   */\n      dup3\n        /* \"#utility.yul\":10964:10968   */\n      dup6\n        /* \"#utility.yul\":10918:10985   */\n      tag_69\n      jump\t// in\n    tag_192:\n        /* \"#utility.yul\":11012:11013   */\n      0x00\n        /* \"#utility.yul\":11036:11040   */\n      0x20\n        /* \"#utility.yul\":11023:11040   */\n      swap1\n      pop\n        /* \"#utility.yul\":11068:11070   */\n      0x1f\n        /* \"#utility.yul\":11060:11066   */\n      dup4\n        /* \"#utility.yul\":11057:11071   */\n      gt\n        /* \"#utility.yul\":11085:11086   */\n      0x01\n        /* \"#utility.yul\":11080:11698   */\n      dup2\n      eq\n      tag_194\n      jumpi\n        /* \"#utility.yul\":11742:11743   */\n      0x00\n        /* \"#utility.yul\":11759:11765   */\n      dup5\n        /* \"#utility.yul\":11756:11833   */\n      iszero\n      tag_195\n      jumpi\n        /* \"#utility.yul\":11808:11817   */\n      dup3\n        /* \"#utility.yul\":11803:11806   */\n      dup8\n        /* \"#utility.yul\":11799:11818   */\n      add\n        /* \"#utility.yul\":11793:11819   */\n      mload\n        /* \"#utility.yul\":11784:11819   */\n      swap1\n      pop\n        /* \"#utility.yul\":11756:11833   */\n    tag_195:\n        /* \"#utility.yul\":11859:11926   */\n      tag_196\n        /* \"#utility.yul\":11919:11925   */\n      dup6\n        /* \"#utility.yul\":11912:11917   */\n      dup3\n        /* \"#utility.yul\":11859:11926   */\n      tag_72\n      jump\t// in\n    tag_196:\n        /* \"#utility.yul\":11853:11857   */\n      dup7\n        /* \"#utility.yul\":11846:11927   */\n      sstore\n        /* \"#utility.yul\":11715:11937   */\n      pop\n        /* \"#utility.yul\":11050:11937   */\n      jump(tag_193)\n        /* \"#utility.yul\":11080:11698   */\n    tag_194:\n        /* \"#utility.yul\":11132:11136   */\n      0x1f\n        /* \"#utility.yul\":11128:11137   */\n      not\n        /* \"#utility.yul\":11120:11126   */\n      dup5\n        /* \"#utility.yul\":11116:11138   */\n      and\n        /* \"#utility.yul\":11166:11203   */\n      tag_197\n        /* \"#utility.yul\":11198:11202   */\n      dup7\n        /* \"#utility.yul\":11166:11203   */\n      tag_58\n      jump\t// in\n    tag_197:\n        /* \"#utility.yul\":11225:11226   */\n      0x00\n        /* \"#utility.yul\":11239:11447   */\n    tag_198:\n        /* \"#utility.yul\":11253:11260   */\n      dup3\n        /* \"#utility.yul\":11250:11251   */\n      dup2\n        /* \"#utility.yul\":11247:11261   */\n      lt\n        /* \"#utility.yul\":11239:11447   */\n      iszero\n      tag_200\n      jumpi\n        /* \"#utility.yul\":11332:11341   */\n      dup5\n        /* \"#utility.yul\":11327:11330   */\n      dup10\n        /* \"#utility.yul\":11323:11342   */\n      add\n        /* \"#utility.yul\":11317:11343   */\n      mload\n        /* \"#utility.yul\":11309:11315   */\n      dup3\n        /* \"#utility.yul\":11302:11344   */\n      sstore\n        /* \"#utility.yul\":11383:11384   */\n      0x01\n        /* \"#utility.yul\":11375:11381   */\n      dup3\n        /* \"#utility.yul\":11371:11385   */\n      add\n        /* \"#utility.yul\":11361:11385   */\n      swap2\n      pop\n        /* \"#utility.yul\":11430:11432   */\n      0x20\n        /* \"#utility.yul\":11419:11428   */\n      dup6\n        /* \"#utility.yul\":11415:11433   */\n      add\n        /* \"#utility.yul\":11402:11433   */\n      swap5\n      pop\n        /* \"#utility.yul\":11276:11280   */\n      0x20\n        /* \"#utility.yul\":11273:11274   */\n      dup2\n        /* \"#utility.yul\":11269:11281   */\n      add\n        /* \"#utility.yul\":11264:11281   */\n      swap1\n      pop\n        /* \"#utility.yul\":11239:11447   */\n      jump(tag_198)\n    tag_200:\n        /* \"#utility.yul\":11475:11481   */\n      dup7\n        /* \"#utility.yul\":11466:11473   */\n      dup4\n        /* \"#utility.yul\":11463:11482   */\n      lt\n        /* \"#utility.yul\":11460:11639   */\n      iszero\n      tag_201\n      jumpi\n        /* \"#utility.yul\":11533:11542   */\n      dup5\n        /* \"#utility.yul\":11528:11531   */\n      dup10\n        /* \"#utility.yul\":11524:11543   */\n      add\n        /* \"#utility.yul\":11518:11544   */\n      mload\n        /* \"#utility.yul\":11576:11624   */\n      tag_202\n        /* \"#utility.yul\":11618:11622   */\n      0x1f\n        /* \"#utility.yul\":11610:11616   */\n      dup10\n        /* \"#utility.yul\":11606:11623   */\n      and\n        /* \"#utility.yul\":11595:11604   */\n      dup3\n        /* \"#utility.yul\":11576:11624   */\n      tag_71\n      jump\t// in\n    tag_202:\n        /* \"#utility.yul\":11568:11574   */\n      dup4\n        /* \"#utility.yul\":11561:11625   */\n      sstore\n        /* \"#utility.yul\":11483:11639   */\n      pop\n        /* \"#utility.yul\":11460:11639   */\n    tag_201:\n        /* \"#utility.yul\":11685:11686   */\n      0x01\n        /* \"#utility.yul\":11681:11682   */\n      0x02\n        /* \"#utility.yul\":11673:11679   */\n      dup9\n        /* \"#utility.yul\":11669:11683   */\n      mul\n        /* \"#utility.yul\":11665:11687   */\n      add\n        /* \"#utility.yul\":11659:11663   */\n      dup9\n        /* \"#utility.yul\":11652:11688   */\n      sstore\n        /* \"#utility.yul\":11087:11698   */\n      pop\n      pop\n      pop\n        /* \"#utility.yul\":11050:11937   */\n    tag_193:\n      pop\n        /* \"#utility.yul\":10640:11943   */\n      pop\n      pop\n      pop\n        /* \"#utility.yul\":10548:11943   */\n      pop\n      pop\n      jump\t// out\n\n    auxdata: 0xa2646970667358221220078694169a5932f5ae263c2948df5505c7c55120e7cd137308754b027b272a8964736f6c63430008120033\n}\n",
				"bytecode": {
					"linkReferences": {},
					"object": "608060405234801561001057600080fd5b506108b7806100206000396000f3fe608060405234801561001057600080fd5b50600436106100365760003560e01c8063988da80f1461003b578063d51af2bf1461006b575b600080fd5b6100556004803603810190610050919061025b565b610087565b6040516100629190610318565b60405180910390f35b6100856004803603810190610080919061046f565b61018c565b005b6060600080600084815260200190815260200160002080546100a8906104fa565b9050036100ea576040517f08c379a00000000000000000000000000000000000000000000000000000000081526004016100e190610577565b60405180910390fd5b6000808381526020019081526020016000208054610107906104fa565b80601f0160208091040260200160405190810160405280929190818152602001828054610133906104fa565b80156101805780601f1061015557610100808354040283529160200191610180565b820191906000526020600020905b81548152906001019060200180831161016357829003601f168201915b50505050509050919050565b600080600084815260200190815260200160002080546101ab906104fa565b9050146101ed576040517f08c379a00000000000000000000000000000000000000000000000000000000081526004016101e4906105e3565b60405180910390fd5b80600080848152602001908152602001600020908161020c91906107af565b505050565b6000604051905090565b600080fd5b600080fd5b6000819050919050565b61023881610225565b811461024357600080fd5b50565b6000813590506102558161022f565b92915050565b6000602082840312156102715761027061021b565b5b600061027f84828501610246565b91505092915050565b600081519050919050565b600082825260208201905092915050565b60005b838110156102c25780820151818401526020810190506102a7565b60008484015250505050565b6000601f19601f8301169050919050565b60006102ea82610288565b6102f48185610293565b93506103048185602086016102a4565b61030d816102ce565b840191505092915050565b6000602082019050818103600083015261033281846102df565b905092915050565b600080fd5b600080fd5b7f4e487b7100000000000000000000000000000000000000000000000000000000600052604160045260246000fd5b61037c826102ce565b810181811067ffffffffffffffff8211171561039b5761039a610344565b5b80604052505050565b60006103ae610211565b90506103ba8282610373565b919050565b600067ffffffffffffffff8211156103da576103d9610344565b5b6103e3826102ce565b9050602081019050919050565b82818337600083830152505050565b600061041261040d846103bf565b6103a4565b90508281526020810184848401111561042e5761042d61033f565b5b6104398482856103f0565b509392505050565b600082601f8301126104565761045561033a565b5b81356104668482602086016103ff565b91505092915050565b600080604083850312156104865761048561021b565b5b600061049485828601610246565b925050602083013567ffffffffffffffff8111156104b5576104b4610220565b5b6104c185828601610441565b9150509250929050565b7f4e487b7100000000000000000000000000000000000000000000000000000000600052602260045260246000fd5b6000600282049050600182168061051257607f821691505b602082108103610525576105246104cb565b5b50919050565b7f55736572206e756d62657220646f6573206e6f74206578697374000000000000600082015250565b6000610561601a83610293565b915061056c8261052b565b602082019050919050565b6000602082019050818103600083015261059081610554565b9050919050565b7f55736572206e756d62657220616c726561647920657869737473000000000000600082015250565b60006105cd601a83610293565b91506105d882610597565b602082019050919050565b600060208201905081810360008301526105fc816105c0565b9050919050565b60008190508160005260206000209050919050565b60006020601f8301049050919050565b600082821b905092915050565b6000600883026106657fffffffffffffffffffffffffffffffffffffffffffffffffffffffffffffffff82610628565b61066f8683610628565b95508019841693508086168417925050509392505050565b6000819050919050565b60006106ac6106a76106a284610225565b610687565b610225565b9050919050565b6000819050919050565b6106c683610691565b6106da6106d2826106b3565b848454610635565b825550505050565b600090565b6106ef6106e2565b6106fa8184846106bd565b505050565b5b8181101561071e576107136000826106e7565b600181019050610700565b5050565b601f8211156107635761073481610603565b61073d84610618565b8101602085101561074c578190505b61076061075885610618565b8301826106ff565b50505b505050565b600082821c905092915050565b600061078660001984600802610768565b1980831691505092915050565b600061079f8383610775565b9150826002028217905092915050565b6107b882610288565b67ffffffffffffffff8111156107d1576107d0610344565b5b6107db82546104fa565b6107e6828285610722565b600060209050601f8311600181146108195760008415610807578287015190505b6108118582610793565b865550610879565b601f19841661082786610603565b60005b8281101561084f5784890151825560018201915060208501945060208101905061082a565b8683101561086c5784890151610868601f891682610775565b8355505b6001600288020188555050505b50505050505056fea2646970667358221220078694169a5932f5ae263c2948df5505c7c55120e7cd137308754b027b272a8964736f6c63430008120033",
					"opcodes": "PUSH1 0x80 PUSH1 0x40 MSTORE CALLVALUE DUP1 ISZERO PUSH2 0x10 JUMPI PUSH1 0x0 DUP1 REVERT JUMPDEST POP PUSH2 0x8B7 DUP1 PUSH2 0x20 PUSH1 0x0 CODECOPY PUSH1 0x0 RETURN INVALID PUSH1 0x80 PUSH1 0x40 MSTORE CALLVALUE DUP1 ISZERO PUSH2 0x10 JUMPI PUSH1 0x0 DUP1 REVERT JUMPDEST POP PUSH1 0x4 CALLDATASIZE LT PUSH2 0x36 JUMPI PUSH1 0x0 CALLDATALOAD PUSH1 0xE0 SHR DUP1 PUSH4 0x988DA80F EQ PUSH2 0x3B JUMPI DUP1 PUSH4 0xD51AF2BF EQ PUSH2 0x6B JUMPI JUMPDEST PUSH1 0x0 DUP1 REVERT JUMPDEST PUSH2 0x55 PUSH1 0x4 DUP1 CALLDATASIZE SUB DUP2 ADD SWAP1 PUSH2 0x50 SWAP2 SWAP1 PUSH2 0x25B JUMP JUMPDEST PUSH2 0x87 JUMP JUMPDEST PUSH1 0x40 MLOAD PUSH2 0x62 SWAP2 SWAP1 PUSH2 0x318 JUMP JUMPDEST PUSH1 0x40 MLOAD DUP1 SWAP2 SUB SWAP1 RETURN JUMPDEST PUSH2 0x85 PUSH1 0x4 DUP1 CALLDATASIZE SUB DUP2 ADD SWAP1 PUSH2 0x80 SWAP2 SWAP1 PUSH2 0x46F JUMP JUMPDEST PUSH2 0x18C JUMP JUMPDEST STOP JUMPDEST PUSH1 0x60 PUSH1 0x0 DUP1 PUSH1 0x0 DUP5 DUP2 MSTORE PUSH1 0x20 ADD SWAP1 DUP2 MSTORE PUSH1 0x20 ADD PUSH1 0x0 KECCAK256 DUP1 SLOAD PUSH2 0xA8 SWAP1 PUSH2 0x4FA JUMP JUMPDEST SWAP1 POP SUB PUSH2 0xEA JUMPI PUSH1 0x40 MLOAD PUSH32 0x8C379A000000000000000000000000000000000000000000000000000000000 DUP2 MSTORE PUSH1 0x4 ADD PUSH2 0xE1 SWAP1 PUSH2 0x577 JUMP JUMPDEST PUSH1 0x40 MLOAD DUP1 SWAP2 SUB SWAP1 REVERT JUMPDEST PUSH1 0x0 DUP1 DUP4 DUP2 MSTORE PUSH1 0x20 ADD SWAP1 DUP2 MSTORE PUSH1 0x20 ADD PUSH1 0x0 KECCAK256 DUP1 SLOAD PUSH2 0x107 SWAP1 PUSH2 0x4FA JUMP JUMPDEST DUP1 PUSH1 0x1F ADD PUSH1 0x20 DUP1 SWAP2 DIV MUL PUSH1 0x20 ADD PUSH1 0x40 MLOAD SWAP1 DUP2 ADD PUSH1 0x40 MSTORE DUP1 SWAP3 SWAP2 SWAP1 DUP2 DUP2 MSTORE PUSH1 0x20 ADD DUP3 DUP1 SLOAD PUSH2 0x133 SWAP1 PUSH2 0x4FA JUMP JUMPDEST DUP1 ISZERO PUSH2 0x180 JUMPI DUP1 PUSH1 0x1F LT PUSH2 0x155 JUMPI PUSH2 0x100 DUP1 DUP4 SLOAD DIV MUL DUP4 MSTORE SWAP2 PUSH1 0x20 ADD SWAP2 PUSH2 0x180 JUMP JUMPDEST DUP3 ADD SWAP2 SWAP1 PUSH1 0x0 MSTORE PUSH1 0x20 PUSH1 0x0 KECCAK256 SWAP1 JUMPDEST DUP2 SLOAD DUP2 MSTORE SWAP1 PUSH1 0x1 ADD SWAP1 PUSH1 0x20 ADD DUP1 DUP4 GT PUSH2 0x163 JUMPI DUP3 SWAP1 SUB PUSH1 0x1F AND DUP3 ADD SWAP2 JUMPDEST POP POP POP POP POP SWAP1 POP SWAP2 SWAP1 POP JUMP JUMPDEST PUSH1 0x0 DUP1 PUSH1 0x0 DUP5 DUP2 MSTORE PUSH1 0x20 ADD SWAP1 DUP2 MSTORE PUSH1 0x20 ADD PUSH1 0x0 KECCAK256 DUP1 SLOAD PUSH2 0x1AB SWAP1 PUSH2 0x4FA JUMP JUMPDEST SWAP1 POP EQ PUSH2 0x1ED JUMPI PUSH1 0x40 MLOAD PUSH32 0x8C379A000000000000000000000000000000000000000000000000000000000 DUP2 MSTORE PUSH1 0x4 ADD PUSH2 0x1E4 SWAP1 PUSH2 0x5E3 JUMP JUMPDEST PUSH1 0x40 MLOAD DUP1 SWAP2 SUB SWAP1 REVERT JUMPDEST DUP1 PUSH1 0x0 DUP1 DUP5 DUP2 MSTORE PUSH1 0x20 ADD SWAP1 DUP2 MSTORE PUSH1 0x20 ADD PUSH1 0x0 KECCAK256 SWAP1 DUP2 PUSH2 0x20C SWAP2 SWAP1 PUSH2 0x7AF JUMP JUMPDEST POP POP POP JUMP JUMPDEST PUSH1 0x0 PUSH1 0x40 MLOAD SWAP1 POP SWAP1 JUMP JUMPDEST PUSH1 0x0 DUP1 REVERT JUMPDEST PUSH1 0x0 DUP1 REVERT JUMPDEST PUSH1 0x0 DUP2 SWAP1 POP SWAP2 SWAP1 POP JUMP JUMPDEST PUSH2 0x238 DUP2 PUSH2 0x225 JUMP JUMPDEST DUP2 EQ PUSH2 0x243 JUMPI PUSH1 0x0 DUP1 REVERT JUMPDEST POP JUMP JUMPDEST PUSH1 0x0 DUP2 CALLDATALOAD SWAP1 POP PUSH2 0x255 DUP2 PUSH2 0x22F JUMP JUMPDEST SWAP3 SWAP2 POP POP JUMP JUMPDEST PUSH1 0x0 PUSH1 0x20 DUP3 DUP5 SUB SLT ISZERO PUSH2 0x271 JUMPI PUSH2 0x270 PUSH2 0x21B JUMP JUMPDEST JUMPDEST PUSH1 0x0 PUSH2 0x27F DUP5 DUP3 DUP6 ADD PUSH2 0x246 JUMP JUMPDEST SWAP2 POP POP SWAP3 SWAP2 POP POP JUMP JUMPDEST PUSH1 0x0 DUP2 MLOAD SWAP1 POP SWAP2 SWAP1 POP JUMP JUMPDEST PUSH1 0x0 DUP3 DUP3 MSTORE PUSH1 0x20 DUP3 ADD SWAP1 POP SWAP3 SWAP2 POP POP JUMP JUMPDEST PUSH1 0x0 JUMPDEST DUP4 DUP2 LT ISZERO PUSH2 0x2C2 JUMPI DUP1 DUP3 ADD MLOAD DUP2 DUP5 ADD MSTORE PUSH1 0x20 DUP2 ADD SWAP1 POP PUSH2 0x2A7 JUMP JUMPDEST PUSH1 0x0 DUP5 DUP5 ADD MSTORE POP POP POP POP JUMP JUMPDEST PUSH1 0x0 PUSH1 0x1F NOT PUSH1 0x1F DUP4 ADD AND SWAP1 POP SWAP2 SWAP1 POP JUMP JUMPDEST PUSH1 0x0 PUSH2 0x2EA DUP3 PUSH2 0x288 JUMP JUMPDEST PUSH2 0x2F4 DUP2 DUP6 PUSH2 0x293 JUMP JUMPDEST SWAP4 POP PUSH2 0x304 DUP2 DUP6 PUSH1 0x20 DUP7 ADD PUSH2 0x2A4 JUMP JUMPDEST PUSH2 0x30D DUP2 PUSH2 0x2CE JUMP JUMPDEST DUP5 ADD SWAP2 POP POP SWAP3 SWAP2 POP POP JUMP JUMPDEST PUSH1 0x0 PUSH1 0x20 DUP3 ADD SWAP1 POP DUP2 DUP2 SUB PUSH1 0x0 DUP4 ADD MSTORE PUSH2 0x332 DUP2 DUP5 PUSH2 0x2DF JUMP JUMPDEST SWAP1 POP SWAP3 SWAP2 POP POP JUMP JUMPDEST PUSH1 0x0 DUP1 REVERT JUMPDEST PUSH1 0x0 DUP1 REVERT JUMPDEST PUSH32 0x4E487B7100000000000000000000000000000000000000000000000000000000 PUSH1 0x0 MSTORE PUSH1 0x41 PUSH1 0x4 MSTORE PUSH1 0x24 PUSH1 0x0 REVERT JUMPDEST PUSH2 0x37C DUP3 PUSH2 0x2CE JUMP JUMPDEST DUP2 ADD DUP2 DUP2 LT PUSH8 0xFFFFFFFFFFFFFFFF DUP3 GT OR ISZERO PUSH2 0x39B JUMPI PUSH2 0x39A PUSH2 0x344 JUMP JUMPDEST JUMPDEST DUP1 PUSH1 0x40 MSTORE POP POP POP JUMP JUMPDEST PUSH1 0x0 PUSH2 0x3AE PUSH2 0x211 JUMP JUMPDEST SWAP1 POP PUSH2 0x3BA DUP3 DUP3 PUSH2 0x373 JUMP JUMPDEST SWAP2 SWAP1 POP JUMP JUMPDEST PUSH1 0x0 PUSH8 0xFFFFFFFFFFFFFFFF DUP3 GT ISZERO PUSH2 0x3DA JUMPI PUSH2 0x3D9 PUSH2 0x344 JUMP JUMPDEST JUMPDEST PUSH2 0x3E3 DUP3 PUSH2 0x2CE JUMP JUMPDEST SWAP1 POP PUSH1 0x20 DUP2 ADD SWAP1 POP SWAP2 SWAP1 POP JUMP JUMPDEST DUP3 DUP2 DUP4 CALLDATACOPY PUSH1 0x0 DUP4 DUP4 ADD MSTORE POP POP POP JUMP JUMPDEST PUSH1 0x0 PUSH2 0x412 PUSH2 0x40D DUP5 PUSH2 0x3BF JUMP JUMPDEST PUSH2 0x3A4 JUMP JUMPDEST SWAP1 POP DUP3 DUP2 MSTORE PUSH1 0x20 DUP2 ADD DUP5 DUP5 DUP5 ADD GT ISZERO PUSH2 0x42E JUMPI PUSH2 0x42D PUSH2 0x33F JUMP JUMPDEST JUMPDEST PUSH2 0x439 DUP5 DUP3 DUP6 PUSH2 0x3F0 JUMP JUMPDEST POP SWAP4 SWAP3 POP POP POP JUMP JUMPDEST PUSH1 0x0 DUP3 PUSH1 0x1F DUP4 ADD SLT PUSH2 0x456 JUMPI PUSH2 0x455 PUSH2 0x33A JUMP JUMPDEST JUMPDEST DUP2 CALLDATALOAD PUSH2 0x466 DUP5 DUP3 PUSH1 0x20 DUP7 ADD PUSH2 0x3FF JUMP JUMPDEST SWAP2 POP POP SWAP3 SWAP2 POP POP JUMP JUMPDEST PUSH1 0x0 DUP1 PUSH1 0x40 DUP4 DUP6 SUB SLT ISZERO PUSH2 0x486 JUMPI PUSH2 0x485 PUSH2 0x21B JUMP JUMPDEST JUMPDEST PUSH1 0x0 PUSH2 0x494 DUP6 DUP3 DUP7 ADD PUSH2 0x246 JUMP JUMPDEST SWAP3 POP POP PUSH1 0x20 DUP4 ADD CALLDATALOAD PUSH8 0xFFFFFFFFFFFFFFFF DUP2 GT ISZERO PUSH2 0x4B5 JUMPI PUSH2 0x4B4 PUSH2 0x220 JUMP JUMPDEST JUMPDEST PUSH2 0x4C1 DUP6 DUP3 DUP7 ADD PUSH2 0x441 JUMP JUMPDEST SWAP2 POP POP SWAP3 POP SWAP3 SWAP1 POP JUMP JUMPDEST PUSH32 0x4E487B7100000000000000000000000000000000000000000000000000000000 PUSH1 0x0 MSTORE PUSH1 0x22 PUSH1 0x4 MSTORE PUSH1 0x24 PUSH1 0x0 REVERT JUMPDEST PUSH1 0x0 PUSH1 0x2 DUP3 DIV SWAP1 POP PUSH1 0x1 DUP3 AND DUP1 PUSH2 0x512 JUMPI PUSH1 0x7F DUP3 AND SWAP2 POP JUMPDEST PUSH1 0x20 DUP3 LT DUP2 SUB PUSH2 0x525 JUMPI PUSH2 0x524 PUSH2 0x4CB JUMP JUMPDEST JUMPDEST POP SWAP2 SWAP1 POP JUMP JUMPDEST PUSH32 0x55736572206E756D62657220646F6573206E6F74206578697374000000000000 PUSH1 0x0 DUP3 ADD MSTORE POP JUMP JUMPDEST PUSH1 0x0 PUSH2 0x561 PUSH1 0x1A DUP4 PUSH2 0x293 JUMP JUMPDEST SWAP2 POP PUSH2 0x56C DUP3 PUSH2 0x52B JUMP JUMPDEST PUSH1 0x20 DUP3 ADD SWAP1 POP SWAP2 SWAP1 POP JUMP JUMPDEST PUSH1 0x0 PUSH1 0x20 DUP3 ADD SWAP1 POP DUP2 DUP2 SUB PUSH1 0x0 DUP4 ADD MSTORE PUSH2 0x590 DUP2 PUSH2 0x554 JUMP JUMPDEST SWAP1 POP SWAP2 SWAP1 POP JUMP JUMPDEST PUSH32 0x55736572206E756D62657220616C726561647920657869737473000000000000 PUSH1 0x0 DUP3 ADD MSTORE POP JUMP JUMPDEST PUSH1 0x0 PUSH2 0x5CD PUSH1 0x1A DUP4 PUSH2 0x293 JUMP JUMPDEST SWAP2 POP PUSH2 0x5D8 DUP3 PUSH2 0x597 JUMP JUMPDEST PUSH1 0x20 DUP3 ADD SWAP1 POP SWAP2 SWAP1 POP JUMP JUMPDEST PUSH1 0x0 PUSH1 0x20 DUP3 ADD SWAP1 POP DUP2 DUP2 SUB PUSH1 0x0 DUP4 ADD MSTORE PUSH2 0x5FC DUP2 PUSH2 0x5C0 JUMP JUMPDEST SWAP1 POP SWAP2 SWAP1 POP JUMP JUMPDEST PUSH1 0x0 DUP2 SWAP1 POP DUP2 PUSH1 0x0 MSTORE PUSH1 0x20 PUSH1 0x0 KECCAK256 SWAP1 POP SWAP2 SWAP1 POP JUMP JUMPDEST PUSH1 0x0 PUSH1 0x20 PUSH1 0x1F DUP4 ADD DIV SWAP1 POP SWAP2 SWAP1 POP JUMP JUMPDEST PUSH1 0x0 DUP3 DUP3 SHL SWAP1 POP SWAP3 SWAP2 POP POP JUMP JUMPDEST PUSH1 0x0 PUSH1 0x8 DUP4 MUL PUSH2 0x665 PUSH32 0xFFFFFFFFFFFFFFFFFFFFFFFFFFFFFFFFFFFFFFFFFFFFFFFFFFFFFFFFFFFFFFFF DUP3 PUSH2 0x628 JUMP JUMPDEST PUSH2 0x66F DUP7 DUP4 PUSH2 0x628 JUMP JUMPDEST SWAP6 POP DUP1 NOT DUP5 AND SWAP4 POP DUP1 DUP7 AND DUP5 OR SWAP3 POP POP POP SWAP4 SWAP3 POP POP POP JUMP JUMPDEST PUSH1 0x0 DUP2 SWAP1 POP SWAP2 SWAP1 POP JUMP JUMPDEST PUSH1 0x0 PUSH2 0x6AC PUSH2 0x6A7 PUSH2 0x6A2 DUP5 PUSH2 0x225 JUMP JUMPDEST PUSH2 0x687 JUMP JUMPDEST PUSH2 0x225 JUMP JUMPDEST SWAP1 POP SWAP2 SWAP1 POP JUMP JUMPDEST PUSH1 0x0 DUP2 SWAP1 POP SWAP2 SWAP1 POP JUMP JUMPDEST PUSH2 0x6C6 DUP4 PUSH2 0x691 JUMP JUMPDEST PUSH2 0x6DA PUSH2 0x6D2 DUP3 PUSH2 0x6B3 JUMP JUMPDEST DUP5 DUP5 SLOAD PUSH2 0x635 JUMP JUMPDEST DUP3 SSTORE POP POP POP POP JUMP JUMPDEST PUSH1 0x0 SWAP1 JUMP JUMPDEST PUSH2 0x6EF PUSH2 0x6E2 JUMP JUMPDEST PUSH2 0x6FA DUP2 DUP5 DUP5 PUSH2 0x6BD JUMP JUMPDEST POP POP POP JUMP JUMPDEST JUMPDEST DUP2 DUP2 LT ISZERO PUSH2 0x71E JUMPI PUSH2 0x713 PUSH1 0x0 DUP3 PUSH2 0x6E7 JUMP JUMPDEST PUSH1 0x1 DUP2 ADD SWAP1 POP PUSH2 0x700 JUMP JUMPDEST POP POP JUMP JUMPDEST PUSH1 0x1F DUP3 GT ISZERO PUSH2 0x763 JUMPI PUSH2 0x734 DUP2 PUSH2 0x603 JUMP JUMPDEST PUSH2 0x73D DUP5 PUSH2 0x618 JUMP JUMPDEST DUP2 ADD PUSH1 0x20 DUP6 LT ISZERO PUSH2 0x74C JUMPI DUP2 SWAP1 POP JUMPDEST PUSH2 0x760 PUSH2 0x758 DUP6 PUSH2 0x618 JUMP JUMPDEST DUP4 ADD DUP3 PUSH2 0x6FF JUMP JUMPDEST POP POP JUMPDEST POP POP POP JUMP JUMPDEST PUSH1 0x0 DUP3 DUP3 SHR SWAP1 POP SWAP3 SWAP2 POP POP JUMP JUMPDEST PUSH1 0x0 PUSH2 0x786 PUSH1 0x0 NOT DUP5 PUSH1 0x8 MUL PUSH2 0x768 JUMP JUMPDEST NOT DUP1 DUP4 AND SWAP2 POP POP SWAP3 SWAP2 POP POP JUMP JUMPDEST PUSH1 0x0 PUSH2 0x79F DUP4 DUP4 PUSH2 0x775 JUMP JUMPDEST SWAP2 POP DUP3 PUSH1 0x2 MUL DUP3 OR SWAP1 POP SWAP3 SWAP2 POP POP JUMP JUMPDEST PUSH2 0x7B8 DUP3 PUSH2 0x288 JUMP JUMPDEST PUSH8 0xFFFFFFFFFFFFFFFF DUP2 GT ISZERO PUSH2 0x7D1 JUMPI PUSH2 0x7D0 PUSH2 0x344 JUMP JUMPDEST JUMPDEST PUSH2 0x7DB DUP3 SLOAD PUSH2 0x4FA JUMP JUMPDEST PUSH2 0x7E6 DUP3 DUP3 DUP6 PUSH2 0x722 JUMP JUMPDEST PUSH1 0x0 PUSH1 0x20 SWAP1 POP PUSH1 0x1F DUP4 GT PUSH1 0x1 DUP2 EQ PUSH2 0x819 JUMPI PUSH1 0x0 DUP5 ISZERO PUSH2 0x807 JUMPI DUP3 DUP8 ADD MLOAD SWAP1 POP JUMPDEST PUSH2 0x811 DUP6 DUP3 PUSH2 0x793 JUMP JUMPDEST DUP7 SSTORE POP PUSH2 0x879 JUMP JUMPDEST PUSH1 0x1F NOT DUP5 AND PUSH2 0x827 DUP7 PUSH2 0x603 JUMP JUMPDEST PUSH1 0x0 JUMPDEST DUP3 DUP2 LT ISZERO PUSH2 0x84F JUMPI DUP5 DUP10 ADD MLOAD DUP3 SSTORE PUSH1 0x1 DUP3 ADD SWAP2 POP PUSH1 0x20 DUP6 ADD SWAP5 POP PUSH1 0x20 DUP2 ADD SWAP1 POP PUSH2 0x82A JUMP JUMPDEST DUP7 DUP4 LT ISZERO PUSH2 0x86C JUMPI DUP5 DUP10 ADD MLOAD PUSH2 0x868 PUSH1 0x1F DUP10 AND DUP3 PUSH2 0x775 JUMP JUMPDEST DUP4 SSTORE POP JUMPDEST PUSH1 0x1 PUSH1 0x2 DUP9 MUL ADD DUP9 SSTORE POP POP POP JUMPDEST POP POP POP POP POP POP JUMP INVALID LOG2 PUSH5 0x6970667358 0x22 SLT KECCAK256 SMOD DUP7 SWAP5 AND SWAP11 MSIZE ORIGIN CREATE2 0xAE 0x26 EXTCODECOPY 0x29 BASEFEE 0xDF SSTORE SDIV 0xC7 0xC5 MLOAD KECCAK256 0xE7 0xCD SGT PUSH20 0x8754B027B272A8964736F6C6343000812003300 "
				},
				"gasEstimates": {
					"creation": {
						"codeDepositCost": "446200",
						"executionCost": "480",
						"totalCost": "446680"
					},
					"external": {
						"addUser(uint256,string)": "infinite",
						"getUserName(uint256)": "infinite"
					}
				},
				"methodIdentifiers": {
					"addUser(uint256,string)": "d51af2bf",
					"getUserName(uint256)": "988da80f"
				}
			},
			"storageLayout": {
				"storage": [
					{
						"astId": 5,
						"contract": "contracts/name.sol:UserDirectory",
						"label": "users",
						"offset": 0,
						"slot": "0",
						"type": "t_mapping(t_uint256,t_string_storage)"
					}
				],
				"types": {
					"t_mapping(t_uint256,t_string_storage)": {
						"encoding": "mapping",
						"key": "t_uint256",
						"label": "mapping(uint256 => string)",
						"numberOfBytes": "32",
						"value": "t_string_storage"
					},
					"t_string_storage": {
						"encoding": "bytes",
						"label": "string",
						"numberOfBytes": "32"
					},
					"t_uint256": {
						"encoding": "inplace",
						"label": "uint256",
						"numberOfBytes": "32"
					}
				}
			},
			"userdoc": {
				"kind": "user",
				"methods": {},
				"version": 1
			}
		}
	}
}