{
	"contracts/proposalsAndRequests.sol": {
		"ProposalsAndRequests": {
			"abi": [
				{
					"anonymous": false,
					"inputs": [
						{
							"indexed": true,
							"internalType": "address",
							"name": "previousOwner",
							"type": "address"
						},
						{
							"indexed": true,
							"internalType": "address",
							"name": "newOwner",
							"type": "address"
						}
					],
					"name": "OwnershipTransferred",
					"type": "event"
				},
				{
					"anonymous": false,
					"inputs": [
						{
							"indexed": true,
							"internalType": "uint256",
							"name": "proposalId",
							"type": "uint256"
						},
						{
							"indexed": true,
							"internalType": "uint256",
							"name": "buyerRequestIndex",
							"type": "uint256"
						}
					],
					"name": "transactionCancelled",
					"type": "event"
				},
				{
					"inputs": [
						{
							"internalType": "uint256",
							"name": "proposalId",
							"type": "uint256"
						},
						{
							"internalType": "uint256",
							"name": "buyerRequestIndex",
							"type": "uint256"
						},
						{
							"internalType": "uint256",
							"name": "amount",
							"type": "uint256"
						}
					],
					"name": "acceptBuyerRequest",
					"outputs": [],
					"stateMutability": "nonpayable",
					"type": "function"
				},
				{
					"inputs": [],
					"name": "activeProposalCount",
					"outputs": [
						{
							"internalType": "uint256",
							"name": "",
							"type": "uint256"
						}
					],
					"stateMutability": "view",
					"type": "function"
				},
				{
					"inputs": [
						{
							"internalType": "uint256",
							"name": "",
							"type": "uint256"
						}
					],
					"name": "activeProposalIds",
					"outputs": [
						{
							"internalType": "uint256",
							"name": "",
							"type": "uint256"
						}
					],
					"stateMutability": "view",
					"type": "function"
				},
				{
					"inputs": [
						{
							"internalType": "address",
							"name": "",
							"type": "address"
						},
						{
							"internalType": "uint256",
							"name": "",
							"type": "uint256"
						}
					],
					"name": "buyerRequestIndicesByBuyer",
					"outputs": [
						{
							"internalType": "uint256",
							"name": "proposalId",
							"type": "uint256"
						},
						{
							"internalType": "uint256",
							"name": "buyerRequestIndex",
							"type": "uint256"
						}
					],
					"stateMutability": "view",
					"type": "function"
				},
				{
					"inputs": [
						{
							"internalType": "uint256",
							"name": "",
							"type": "uint256"
						},
						{
							"internalType": "uint256",
							"name": "",
							"type": "uint256"
						}
					],
					"name": "buyerRequests",
					"outputs": [
						{
							"internalType": "uint256",
							"name": "buyerRequestIndex",
							"type": "uint256"
						},
						{
							"internalType": "uint256",
							"name": "proposalId",
							"type": "uint256"
						},
						{
							"internalType": "uint256",
							"name": "amount",
							"type": "uint256"
						},
						{
							"internalType": "uint256",
							"name": "date",
							"type": "uint256"
						},
						{
							"internalType": "address",
							"name": "buyer",
							"type": "address"
						},
						{
							"internalType": "bool",
							"name": "accepted",
							"type": "bool"
						},
						{
							"internalType": "bool",
							"name": "paymentDeclared",
							"type": "bool"
						},
						{
							"internalType": "bool",
							"name": "transactionCompleted",
							"type": "bool"
						},
						{
							"internalType": "bool",
							"name": "buyerRequestedtoCancel",
							"type": "bool"
						},
						{
							"internalType": "bool",
							"name": "sellerRequestedtoCancel",
							"type": "bool"
						},
						{
							"internalType": "bool",
							"name": "disputeCreated",
							"type": "bool"
						},
						{
							"internalType": "bool",
							"name": "active",
							"type": "bool"
						}
					],
					"stateMutability": "view",
					"type": "function"
				},
				{
					"inputs": [
						{
							"internalType": "uint256",
							"name": "",
							"type": "uint256"
						}
					],
					"name": "buyerRequestsLength",
					"outputs": [
						{
							"internalType": "uint256",
							"name": "",
							"type": "uint256"
						}
					],
					"stateMutability": "view",
					"type": "function"
				},
				{
					"inputs": [
						{
							"internalType": "uint256",
							"name": "proposalId",
							"type": "uint256"
						},
						{
							"internalType": "uint256",
							"name": "buyerRequestIndex",
							"type": "uint256"
						},
						{
							"internalType": "uint256",
							"name": "amount",
							"type": "uint256"
						}
					],
					"name": "changeProposalAndRequestDataUponCryptoRelease",
					"outputs": [],
					"stateMutability": "nonpayable",
					"type": "function"
				},
				{
					"inputs": [],
					"name": "completedTransactionsContract",
					"outputs": [
						{
							"internalType": "contract ICompletedTransactions",
							"name": "",
							"type": "address"
						}
					],
					"stateMutability": "view",
					"type": "function"
				},
				{
					"inputs": [
						{
							"internalType": "uint256",
							"name": "proposalId",
							"type": "uint256"
						},
						{
							"internalType": "uint256",
							"name": "buyerRequestIndex",
							"type": "uint256"
						}
					],
					"name": "confirmFiatPayment",
					"outputs": [],
					"stateMutability": "nonpayable",
					"type": "function"
				},
				{
					"inputs": [
						{
							"internalType": "uint256",
							"name": "amount",
							"type": "uint256"
						},
						{
							"internalType": "uint256",
							"name": "price",
							"type": "uint256"
						},
						{
							"internalType": "string",
							"name": "paymentMethodName",
							"type": "string"
						},
						{
							"internalType": "bytes32",
							"name": "paymentDetails",
							"type": "bytes32"
						},
						{
							"internalType": "string",
							"name": "comment",
							"type": "string"
						},
						{
							"internalType": "string",
							"name": "username",
							"type": "string"
						},
						{
							"internalType": "address",
							"name": "seller",
							"type": "address"
						},
						{
							"internalType": "uint256",
							"name": "sellerTransactionsCountasSeller",
							"type": "uint256"
						},
						{
							"internalType": "uint256",
							"name": "sellerTransactionsCountasBuyer",
							"type": "uint256"
						}
					],
					"name": "createProposal",
					"outputs": [],
					"stateMutability": "nonpayable",
					"type": "function"
				},
				{
					"inputs": [
						{
							"internalType": "uint256",
							"name": "proposalId",
							"type": "uint256"
						},
						{
							"internalType": "uint256",
							"name": "buyerRequestIndex",
							"type": "uint256"
						}
					],
					"name": "deactivateBuyerRequest",
					"outputs": [],
					"stateMutability": "nonpayable",
					"type": "function"
				},
				{
					"inputs": [
						{
							"internalType": "uint256",
							"name": "proposalId",
							"type": "uint256"
						}
					],
					"name": "deactivateProposal",
					"outputs": [],
					"stateMutability": "nonpayable",
					"type": "function"
				},
				{
					"inputs": [
						{
							"internalType": "uint256",
							"name": "proposalId",
							"type": "uint256"
						}
					],
					"name": "deleteProposal",
					"outputs": [],
					"stateMutability": "nonpayable",
					"type": "function"
				},
				{
					"inputs": [],
					"name": "getActiveProposalIds",
					"outputs": [
						{
							"internalType": "uint256[]",
							"name": "",
							"type": "uint256[]"
						}
					],
					"stateMutability": "view",
					"type": "function"
				},
				{
					"inputs": [
						{
							"internalType": "address",
							"name": "buyer",
							"type": "address"
						}
					],
					"name": "getActiveRequestsByBuyer",
					"outputs": [
						{
							"components": [
								{
									"internalType": "uint256",
									"name": "buyerRequestIndex",
									"type": "uint256"
								},
								{
									"internalType": "uint256",
									"name": "proposalId",
									"type": "uint256"
								},
								{
									"internalType": "uint256",
									"name": "amount",
									"type": "uint256"
								},
								{
									"internalType": "uint256",
									"name": "date",
									"type": "uint256"
								},
								{
									"internalType": "address",
									"name": "buyer",
									"type": "address"
								},
								{
									"internalType": "bool",
									"name": "accepted",
									"type": "bool"
								},
								{
									"internalType": "bool",
									"name": "paymentDeclared",
									"type": "bool"
								},
								{
									"internalType": "bool",
									"name": "transactionCompleted",
									"type": "bool"
								},
								{
									"internalType": "bool",
									"name": "buyerRequestedtoCancel",
									"type": "bool"
								},
								{
									"internalType": "bool",
									"name": "sellerRequestedtoCancel",
									"type": "bool"
								},
								{
									"internalType": "bool",
									"name": "disputeCreated",
									"type": "bool"
								},
								{
									"internalType": "bool",
									"name": "active",
									"type": "bool"
								}
							],
							"internalType": "struct ProposalsAndRequests.BuyerRequest[]",
							"name": "",
							"type": "tuple[]"
						}
					],
					"stateMutability": "view",
					"type": "function"
				},
				{
					"inputs": [
						{
							"internalType": "uint256",
							"name": "proposalId",
							"type": "uint256"
						}
					],
					"name": "getActiveRequestsByProposal",
					"outputs": [
						{
							"components": [
								{
									"internalType": "uint256",
									"name": "buyerRequestIndex",
									"type": "uint256"
								},
								{
									"internalType": "uint256",
									"name": "proposalId",
									"type": "uint256"
								},
								{
									"internalType": "uint256",
									"name": "amount",
									"type": "uint256"
								},
								{
									"internalType": "uint256",
									"name": "date",
									"type": "uint256"
								},
								{
									"internalType": "address",
									"name": "buyer",
									"type": "address"
								},
								{
									"internalType": "bool",
									"name": "accepted",
									"type": "bool"
								},
								{
									"internalType": "bool",
									"name": "paymentDeclared",
									"type": "bool"
								},
								{
									"internalType": "bool",
									"name": "transactionCompleted",
									"type": "bool"
								},
								{
									"internalType": "bool",
									"name": "buyerRequestedtoCancel",
									"type": "bool"
								},
								{
									"internalType": "bool",
									"name": "sellerRequestedtoCancel",
									"type": "bool"
								},
								{
									"internalType": "bool",
									"name": "disputeCreated",
									"type": "bool"
								},
								{
									"internalType": "bool",
									"name": "active",
									"type": "bool"
								}
							],
							"internalType": "struct ProposalsAndRequests.BuyerRequest[]",
							"name": "",
							"type": "tuple[]"
						}
					],
					"stateMutability": "view",
					"type": "function"
				},
				{
					"inputs": [],
					"name": "getAllProposalIds",
					"outputs": [
						{
							"internalType": "uint256[]",
							"name": "",
							"type": "uint256[]"
						}
					],
					"stateMutability": "view",
					"type": "function"
				},
				{
					"inputs": [
						{
							"internalType": "uint256",
							"name": "proposalId",
							"type": "uint256"
						},
						{
							"internalType": "uint256",
							"name": "buyerRequestIndex",
							"type": "uint256"
						}
					],
					"name": "getBuyerRequest",
					"outputs": [
						{
							"components": [
								{
									"internalType": "uint256",
									"name": "buyerRequestIndex",
									"type": "uint256"
								},
								{
									"internalType": "uint256",
									"name": "proposalId",
									"type": "uint256"
								},
								{
									"internalType": "uint256",
									"name": "amount",
									"type": "uint256"
								},
								{
									"internalType": "uint256",
									"name": "date",
									"type": "uint256"
								},
								{
									"internalType": "address",
									"name": "buyer",
									"type": "address"
								},
								{
									"internalType": "bool",
									"name": "accepted",
									"type": "bool"
								},
								{
									"internalType": "bool",
									"name": "paymentDeclared",
									"type": "bool"
								},
								{
									"internalType": "bool",
									"name": "transactionCompleted",
									"type": "bool"
								},
								{
									"internalType": "bool",
									"name": "buyerRequestedtoCancel",
									"type": "bool"
								},
								{
									"internalType": "bool",
									"name": "sellerRequestedtoCancel",
									"type": "bool"
								},
								{
									"internalType": "bool",
									"name": "disputeCreated",
									"type": "bool"
								},
								{
									"internalType": "bool",
									"name": "active",
									"type": "bool"
								}
							],
							"internalType": "struct ProposalsAndRequests.BuyerRequest",
							"name": "",
							"type": "tuple"
						}
					],
					"stateMutability": "view",
					"type": "function"
				},
				{
					"inputs": [
						{
							"internalType": "uint256",
							"name": "proposalId",
							"type": "uint256"
						}
					],
					"name": "getProposal",
					"outputs": [
						{
							"components": [
								{
									"internalType": "uint256",
									"name": "amount",
									"type": "uint256"
								},
								{
									"internalType": "uint256",
									"name": "escrowBalance",
									"type": "uint256"
								},
								{
									"internalType": "uint256",
									"name": "price",
									"type": "uint256"
								},
								{
									"internalType": "uint256",
									"name": "date",
									"type": "uint256"
								},
								{
									"internalType": "string",
									"name": "paymentMethodName",
									"type": "string"
								},
								{
									"internalType": "bytes32",
									"name": "paymentDetails",
									"type": "bytes32"
								},
								{
									"internalType": "string",
									"name": "comment",
									"type": "string"
								},
								{
									"internalType": "string",
									"name": "username",
									"type": "string"
								},
								{
									"internalType": "bool",
									"name": "active",
									"type": "bool"
								},
								{
									"internalType": "address",
									"name": "seller",
									"type": "address"
								},
								{
									"internalType": "uint256",
									"name": "sellerTransactionsCountasSeller",
									"type": "uint256"
								},
								{
									"internalType": "uint256",
									"name": "sellerTransactionsCountasBuyer",
									"type": "uint256"
								}
							],
							"internalType": "struct ProposalsAndRequests.Proposal",
							"name": "",
							"type": "tuple"
						}
					],
					"stateMutability": "view",
					"type": "function"
				},
				{
					"inputs": [],
					"name": "getProposalCount",
					"outputs": [
						{
							"internalType": "uint256",
							"name": "",
							"type": "uint256"
						}
					],
					"stateMutability": "view",
					"type": "function"
				},
				{
					"inputs": [
						{
							"internalType": "uint256",
							"name": "proposalId",
							"type": "uint256"
						}
					],
					"name": "getRequestCountByProposal",
					"outputs": [
						{
							"internalType": "uint256",
							"name": "",
							"type": "uint256"
						}
					],
					"stateMutability": "view",
					"type": "function"
				},
				{
					"inputs": [],
					"name": "historicalProposalCount",
					"outputs": [
						{
							"internalType": "uint256",
							"name": "",
							"type": "uint256"
						}
					],
					"stateMutability": "view",
					"type": "function"
				},
				{
					"inputs": [],
					"name": "mainContract",
					"outputs": [
						{
							"internalType": "address",
							"name": "",
							"type": "address"
						}
					],
					"stateMutability": "view",
					"type": "function"
				},
				{
					"inputs": [],
					"name": "owner",
					"outputs": [
						{
							"internalType": "address",
							"name": "",
							"type": "address"
						}
					],
					"stateMutability": "view",
					"type": "function"
				},
				{
					"inputs": [
						{
							"internalType": "uint256",
							"name": "proposalId",
							"type": "uint256"
						},
						{
							"internalType": "uint256",
							"name": "buyerRequestIndex",
							"type": "uint256"
						}
					],
					"name": "processCancellation",
					"outputs": [],
					"stateMutability": "nonpayable",
					"type": "function"
				},
				{
					"inputs": [],
					"name": "proposalCount",
					"outputs": [
						{
							"internalType": "uint256",
							"name": "",
							"type": "uint256"
						}
					],
					"stateMutability": "view",
					"type": "function"
				},
				{
					"inputs": [
						{
							"internalType": "uint256",
							"name": "",
							"type": "uint256"
						}
					],
					"name": "proposalIds",
					"outputs": [
						{
							"internalType": "uint256",
							"name": "",
							"type": "uint256"
						}
					],
					"stateMutability": "view",
					"type": "function"
				},
				{
					"inputs": [
						{
							"internalType": "uint256",
							"name": "",
							"type": "uint256"
						}
					],
					"name": "proposals",
					"outputs": [
						{
							"internalType": "uint256",
							"name": "amount",
							"type": "uint256"
						},
						{
							"internalType": "uint256",
							"name": "escrowBalance",
							"type": "uint256"
						},
						{
							"internalType": "uint256",
							"name": "price",
							"type": "uint256"
						},
						{
							"internalType": "uint256",
							"name": "date",
							"type": "uint256"
						},
						{
							"internalType": "string",
							"name": "paymentMethodName",
							"type": "string"
						},
						{
							"internalType": "bytes32",
							"name": "paymentDetails",
							"type": "bytes32"
						},
						{
							"internalType": "string",
							"name": "comment",
							"type": "string"
						},
						{
							"internalType": "string",
							"name": "username",
							"type": "string"
						},
						{
							"internalType": "bool",
							"name": "active",
							"type": "bool"
						},
						{
							"internalType": "address",
							"name": "seller",
							"type": "address"
						},
						{
							"internalType": "uint256",
							"name": "sellerTransactionsCountasSeller",
							"type": "uint256"
						},
						{
							"internalType": "uint256",
							"name": "sellerTransactionsCountasBuyer",
							"type": "uint256"
						}
					],
					"stateMutability": "view",
					"type": "function"
				},
				{
					"inputs": [
						{
							"internalType": "uint256",
							"name": "proposalId",
							"type": "uint256"
						},
						{
							"internalType": "uint256",
							"name": "buyerRequestIndex",
							"type": "uint256"
						}
					],
					"name": "recordDisputeCreation",
					"outputs": [],
					"stateMutability": "nonpayable",
					"type": "function"
				},
				{
					"inputs": [
						{
							"internalType": "uint256",
							"name": "proposalId",
							"type": "uint256"
						},
						{
							"internalType": "uint256",
							"name": "buyerRequestIndex",
							"type": "uint256"
						},
						{
							"internalType": "uint256",
							"name": "amount",
							"type": "uint256"
						}
					],
					"name": "recordEscrowReleaseAfterDispute",
					"outputs": [],
					"stateMutability": "nonpayable",
					"type": "function"
				},
				{
					"inputs": [
						{
							"internalType": "uint256",
							"name": "proposalId",
							"type": "uint256"
						},
						{
							"internalType": "uint256",
							"name": "buyerRequestIndex",
							"type": "uint256"
						},
						{
							"internalType": "bool",
							"name": "requestedByBuyer",
							"type": "bool"
						}
					],
					"name": "recordRequestCancellation",
					"outputs": [],
					"stateMutability": "nonpayable",
					"type": "function"
				},
				{
					"inputs": [],
					"name": "renounceOwnership",
					"outputs": [],
					"stateMutability": "nonpayable",
					"type": "function"
				},
				{
					"inputs": [
						{
							"internalType": "uint256",
							"name": "proposalId",
							"type": "uint256"
						},
						{
							"internalType": "uint256",
							"name": "amount",
							"type": "uint256"
						},
						{
							"internalType": "address",
							"name": "buyer",
							"type": "address"
						}
					],
					"name": "requestToBuy",
					"outputs": [],
					"stateMutability": "nonpayable",
					"type": "function"
				},
				{
					"inputs": [
						{
							"internalType": "address",
							"name": "_completedTransactionsContract",
							"type": "address"
						}
					],
					"name": "setCompletedTransactionsContract",
					"outputs": [],
					"stateMutability": "nonpayable",
					"type": "function"
				},
				{
					"inputs": [
						{
							"internalType": "address",
							"name": "_mainContract",
							"type": "address"
						}
					],
					"name": "setMainContract",
					"outputs": [],
					"stateMutability": "nonpayable",
					"type": "function"
				},
				{
					"inputs": [
						{
							"internalType": "address",
							"name": "newOwner",
							"type": "address"
						}
					],
					"name": "transferOwnership",
					"outputs": [],
					"stateMutability": "nonpayable",
					"type": "function"
				}
			],
			"devdoc": {
				"kind": "dev",
				"methods": {
					"owner()": {
						"details": "Returns the address of the current owner."
					},
					"renounceOwnership()": {
						"details": "Leaves the contract without owner. It will not be possible to call `onlyOwner` functions anymore. Can only be called by the current owner. NOTE: Renouncing ownership will leave the contract without an owner, thereby removing any functionality that is only available to the owner."
					},
					"transferOwnership(address)": {
						"details": "Transfers ownership of the contract to a new account (`newOwner`). Can only be called by the current owner."
					}
				},
				"version": 1
			},
			"evm": {
				"assembly": "    /* \"contracts/proposalsAndRequests.sol\":226:14203  contract ProposalsAndRequests is Ownable {... */\n  mstore(0x40, 0x80)\n    /* \"contracts/proposalsAndRequests.sol\":880:881  0 */\n  0x00\n    /* \"contracts/proposalsAndRequests.sol\":849:881  uint256 public proposalCount = 0 */\n  0x05\n  sstore\n    /* \"contracts/proposalsAndRequests.sol\":924:925  0 */\n  0x00\n    /* \"contracts/proposalsAndRequests.sol\":883:925  uint256 public historicalProposalCount = 0 */\n  0x06\n  sstore\n    /* \"contracts/proposalsAndRequests.sol\":1001:1002  0 */\n  0x00\n    /* \"contracts/proposalsAndRequests.sol\":964:1002  uint256 public activeProposalCount = 0 */\n  0x08\n  sstore\n    /* \"contracts/proposalsAndRequests.sol\":226:14203  contract ProposalsAndRequests is Ownable {... */\n  callvalue\n  dup1\n  iszero\n  tag_1\n  jumpi\n  0x00\n  dup1\n  revert\ntag_1:\n  pop\n    /* \"@openzeppelin/contracts/access/Ownable.sol\":936:968  _transferOwnership(_msgSender()) */\n  tag_4\n    /* \"@openzeppelin/contracts/access/Ownable.sol\":955:967  _msgSender() */\n  tag_5\n    /* \"@openzeppelin/contracts/access/Ownable.sol\":955:965  _msgSender */\n  shl(0x20, tag_6)\n    /* \"@openzeppelin/contracts/access/Ownable.sol\":955:967  _msgSender() */\n  0x20\n  shr\n  jump\t// in\ntag_5:\n    /* \"@openzeppelin/contracts/access/Ownable.sol\":936:954  _transferOwnership */\n  shl(0x20, tag_7)\n    /* \"@openzeppelin/contracts/access/Ownable.sol\":936:968  _transferOwnership(_msgSender()) */\n  0x20\n  shr\n  jump\t// in\ntag_4:\n    /* \"contracts/proposalsAndRequests.sol\":226:14203  contract ProposalsAndRequests is Ownable {... */\n  jump(tag_8)\n    /* \"@openzeppelin/contracts/utils/Context.sol\":640:736  function _msgSender() internal view virtual returns (address) {... */\ntag_6:\n    /* \"@openzeppelin/contracts/utils/Context.sol\":693:700  address */\n  0x00\n    /* \"@openzeppelin/contracts/utils/Context.sol\":719:729  msg.sender */\n  caller\n    /* \"@openzeppelin/contracts/utils/Context.sol\":712:729  return msg.sender */\n  swap1\n  pop\n    /* \"@openzeppelin/contracts/utils/Context.sol\":640:736  function _msgSender() internal view virtual returns (address) {... */\n  swap1\n  jump\t// out\n    /* \"@openzeppelin/contracts/access/Ownable.sol\":2433:2620  function _transferOwnership(address newOwner) internal virtual {... */\ntag_7:\n    /* \"@openzeppelin/contracts/access/Ownable.sol\":2506:2522  address oldOwner */\n  0x00\n    /* \"@openzeppelin/contracts/access/Ownable.sol\":2525:2531  _owner */\n  dup1\n  0x00\n  swap1\n  sload\n  swap1\n  0x0100\n  exp\n  swap1\n  div\n  0xffffffffffffffffffffffffffffffffffffffff\n  and\n    /* \"@openzeppelin/contracts/access/Ownable.sol\":2506:2531  address oldOwner = _owner */\n  swap1\n  pop\n    /* \"@openzeppelin/contracts/access/Ownable.sol\":2550:2558  newOwner */\n  dup2\n    /* \"@openzeppelin/contracts/access/Ownable.sol\":2541:2547  _owner */\n  0x00\n  dup1\n    /* \"@openzeppelin/contracts/access/Ownable.sol\":2541:2558  _owner = newOwner */\n  0x0100\n  exp\n  dup2\n  sload\n  dup2\n  0xffffffffffffffffffffffffffffffffffffffff\n  mul\n  not\n  and\n  swap1\n  dup4\n  0xffffffffffffffffffffffffffffffffffffffff\n  and\n  mul\n  or\n  swap1\n  sstore\n  pop\n    /* \"@openzeppelin/contracts/access/Ownable.sol\":2604:2612  newOwner */\n  dup2\n    /* \"@openzeppelin/contracts/access/Ownable.sol\":2573:2613  OwnershipTransferred(oldOwner, newOwner) */\n  0xffffffffffffffffffffffffffffffffffffffff\n  and\n    /* \"@openzeppelin/contracts/access/Ownable.sol\":2594:2602  oldOwner */\n  dup2\n    /* \"@openzeppelin/contracts/access/Ownable.sol\":2573:2613  OwnershipTransferred(oldOwner, newOwner) */\n  0xffffffffffffffffffffffffffffffffffffffff\n  and\n  0x8be0079c531659141344cd1fd0a4f28419497f9722a3daafe3b4186f6b6457e0\n  mload(0x40)\n  mload(0x40)\n  dup1\n  swap2\n  sub\n  swap1\n  log3\n    /* \"@openzeppelin/contracts/access/Ownable.sol\":2496:2620  {... */\n  pop\n    /* \"@openzeppelin/contracts/access/Ownable.sol\":2433:2620  function _transferOwnership(address newOwner) internal virtual {... */\n  pop\n  jump\t// out\n    /* \"contracts/proposalsAndRequests.sol\":226:14203  contract ProposalsAndRequests is Ownable {... */\ntag_8:\n  dataSize(sub_0)\n  dup1\n  dataOffset(sub_0)\n  0x00\n  codecopy\n  0x00\n  return\nstop\n\nsub_0: assembly {\n        /* \"contracts/proposalsAndRequests.sol\":226:14203  contract ProposalsAndRequests is Ownable {... */\n      mstore(0x40, 0x80)\n      callvalue\n      dup1\n      iszero\n      tag_1\n      jumpi\n      0x00\n      dup1\n      revert\n    tag_1:\n      pop\n      jumpi(tag_2, lt(calldatasize, 0x04))\n      shr(0xe0, calldataload(0x00))\n      dup1\n      0x76e43099\n      gt\n      tag_39\n      jumpi\n      dup1\n      0xc7f758a8\n      gt\n      tag_40\n      jumpi\n      dup1\n      0xda35c664\n      gt\n      tag_41\n      jumpi\n      dup1\n      0xda35c664\n      eq\n      tag_34\n      jumpi\n      dup1\n      0xdbc718bd\n      eq\n      tag_35\n      jumpi\n      dup1\n      0xe08169a5\n      eq\n      tag_36\n      jumpi\n      dup1\n      0xefa90d36\n      eq\n      tag_37\n      jumpi\n      dup1\n      0xf2fde38b\n      eq\n      tag_38\n      jumpi\n      jump(tag_2)\n    tag_41:\n      dup1\n      0xc7f758a8\n      eq\n      tag_30\n      jumpi\n      dup1\n      0xcf2b98a5\n      eq\n      tag_31\n      jumpi\n      dup1\n      0xd270e7ab\n      eq\n      tag_32\n      jumpi\n      dup1\n      0xd6930c34\n      eq\n      tag_33\n      jumpi\n      jump(tag_2)\n    tag_40:\n      dup1\n      0x9b644a23\n      gt\n      tag_42\n      jumpi\n      dup1\n      0x9b644a23\n      eq\n      tag_25\n      jumpi\n      dup1\n      0xa282ad6c\n      eq\n      tag_26\n      jumpi\n      dup1\n      0xb7042e93\n      eq\n      tag_27\n      jumpi\n      dup1\n      0xb8606718\n      eq\n      tag_28\n      jumpi\n      dup1\n      0xc08cc02d\n      eq\n      tag_29\n      jumpi\n      jump(tag_2)\n    tag_42:\n      dup1\n      0x76e43099\n      eq\n      tag_21\n      jumpi\n      dup1\n      0x8259d553\n      eq\n      tag_22\n      jumpi\n      dup1\n      0x8da5cb5b\n      eq\n      tag_23\n      jumpi\n      dup1\n      0x8de7065c\n      eq\n      tag_24\n      jumpi\n      jump(tag_2)\n    tag_39:\n      dup1\n      0x50c9457c\n      gt\n      tag_43\n      jumpi\n      dup1\n      0x61ef719c\n      gt\n      tag_44\n      jumpi\n      dup1\n      0x61ef719c\n      eq\n      tag_16\n      jumpi\n      dup1\n      0x6bff47e6\n      eq\n      tag_17\n      jumpi\n      dup1\n      0x6c1aa165\n      eq\n      tag_18\n      jumpi\n      dup1\n      0x715018a6\n      eq\n      tag_19\n      jumpi\n      dup1\n      0x71a1aea7\n      eq\n      tag_20\n      jumpi\n      jump(tag_2)\n    tag_44:\n      dup1\n      0x50c9457c\n      eq\n      tag_12\n      jumpi\n      dup1\n      0x535e4bd6\n      eq\n      tag_13\n      jumpi\n      dup1\n      0x53b03389\n      eq\n      tag_14\n      jumpi\n      dup1\n      0x5a91d0bb\n      eq\n      tag_15\n      jumpi\n      jump(tag_2)\n    tag_43:\n      dup1\n      0x306975a0\n      gt\n      tag_45\n      jumpi\n      dup1\n      0x306975a0\n      eq\n      tag_7\n      jumpi\n      dup1\n      0x38f49c1f\n      eq\n      tag_8\n      jumpi\n      dup1\n      0x3b3f573a\n      eq\n      tag_9\n      jumpi\n      dup1\n      0x3ded33bc\n      eq\n      tag_10\n      jumpi\n      dup1\n      0x4a4e108b\n      eq\n      tag_11\n      jumpi\n      jump(tag_2)\n    tag_45:\n      dup1\n      0x013cf08b\n      eq\n      tag_3\n      jumpi\n      dup1\n      0x03f0610d\n      eq\n      tag_4\n      jumpi\n      dup1\n      0x100fe0ef\n      eq\n      tag_5\n      jumpi\n      dup1\n      0x2df15e0d\n      eq\n      tag_6\n      jumpi\n    tag_2:\n      0x00\n      dup1\n      revert\n        /* \"contracts/proposalsAndRequests.sol\":771:816  mapping(uint256 => Proposal) public proposals */\n    tag_3:\n      tag_46\n      0x04\n      dup1\n      calldatasize\n      sub\n      dup2\n      add\n      swap1\n      tag_47\n      swap2\n      swap1\n      tag_48\n      jump\t// in\n    tag_47:\n      tag_49\n      jump\t// in\n    tag_46:\n      mload(0x40)\n      tag_50\n      swap13\n      swap12\n      swap11\n      swap10\n      swap9\n      swap8\n      swap7\n      swap6\n      swap5\n      swap4\n      swap3\n      swap2\n      swap1\n      tag_51\n      jump\t// in\n    tag_50:\n      mload(0x40)\n      dup1\n      swap2\n      sub\n      swap1\n      return\n        /* \"contracts/proposalsAndRequests.sol\":13169:13524  function recordRequestCancellation(uint256 proposalId, uint256 buyerRequestIndex, bool requestedByBuyer) public  onlyMainContract {... */\n    tag_4:\n      tag_52\n      0x04\n      dup1\n      calldatasize\n      sub\n      dup2\n      add\n      swap1\n      tag_53\n      swap2\n      swap1\n      tag_54\n      jump\t// in\n    tag_53:\n      tag_55\n      jump\t// in\n    tag_52:\n      stop\n        /* \"contracts/proposalsAndRequests.sol\":9711:10315  function acceptBuyerRequest(uint256 proposalId, uint256 buyerRequestIndex, uint256 amount)... */\n    tag_5:\n      tag_56\n      0x04\n      dup1\n      calldatasize\n      sub\n      dup2\n      add\n      swap1\n      tag_57\n      swap2\n      swap1\n      tag_58\n      jump\t// in\n    tag_57:\n      tag_59\n      jump\t// in\n    tag_56:\n      stop\n        /* \"contracts/proposalsAndRequests.sol\":2159:2382  function setCompletedTransactionsContract (address _completedTransactionsContract)... */\n    tag_6:\n      tag_60\n      0x04\n      dup1\n      calldatasize\n      sub\n      dup2\n      add\n      swap1\n      tag_61\n      swap2\n      swap1\n      tag_62\n      jump\t// in\n    tag_61:\n      tag_63\n      jump\t// in\n    tag_60:\n      stop\n        /* \"contracts/proposalsAndRequests.sol\":13526:14201  function processCancellation (uint256 proposalId, uint256 buyerRequestIndex) public  onlyMainContract {... */\n    tag_7:\n      tag_64\n      0x04\n      dup1\n      calldatasize\n      sub\n      dup2\n      add\n      swap1\n      tag_65\n      swap2\n      swap1\n      tag_66\n      jump\t// in\n    tag_65:\n      tag_67\n      jump\t// in\n    tag_64:\n      stop\n        /* \"contracts/proposalsAndRequests.sol\":1614:1668  mapping(uint256 => uint256) public buyerRequestsLength */\n    tag_8:\n      tag_68\n      0x04\n      dup1\n      calldatasize\n      sub\n      dup2\n      add\n      swap1\n      tag_69\n      swap2\n      swap1\n      tag_48\n      jump\t// in\n    tag_69:\n      tag_70\n      jump\t// in\n    tag_68:\n      mload(0x40)\n      tag_71\n      swap2\n      swap1\n      tag_72\n      jump\t// in\n    tag_71:\n      mload(0x40)\n      dup1\n      swap2\n      sub\n      swap1\n      return\n        /* \"contracts/proposalsAndRequests.sol\":10575:10871  function confirmFiatPayment(uint256 proposalId, uint256 buyerRequestIndex)... */\n    tag_9:\n      tag_73\n      0x04\n      dup1\n      calldatasize\n      sub\n      dup2\n      add\n      swap1\n      tag_74\n      swap2\n      swap1\n      tag_66\n      jump\t// in\n    tag_74:\n      tag_75\n      jump\t// in\n    tag_73:\n      stop\n        /* \"contracts/proposalsAndRequests.sol\":2026:2157  function setMainContract (address _mainContract)... */\n    tag_10:\n      tag_76\n      0x04\n      dup1\n      calldatasize\n      sub\n      dup2\n      add\n      swap1\n      tag_77\n      swap2\n      swap1\n      tag_62\n      jump\t// in\n    tag_77:\n      tag_78\n      jump\t// in\n    tag_76:\n      stop\n        /* \"contracts/proposalsAndRequests.sol\":7744:8613  function getActiveRequestsByBuyer(address buyer) public view returns (BuyerRequest[] memory) {... */\n    tag_11:\n      tag_79\n      0x04\n      dup1\n      calldatasize\n      sub\n      dup2\n      add\n      swap1\n      tag_80\n      swap2\n      swap1\n      tag_62\n      jump\t// in\n    tag_80:\n      tag_81\n      jump\t// in\n    tag_79:\n      mload(0x40)\n      tag_82\n      swap2\n      swap1\n      tag_83\n      jump\t// in\n    tag_82:\n      mload(0x40)\n      dup1\n      swap2\n      sub\n      swap1\n      return\n        /* \"contracts/proposalsAndRequests.sol\":928:962  uint256[] public activeProposalIds */\n    tag_12:\n      tag_84\n      0x04\n      dup1\n      calldatasize\n      sub\n      dup2\n      add\n      swap1\n      tag_85\n      swap2\n      swap1\n      tag_48\n      jump\t// in\n    tag_85:\n      tag_86\n      jump\t// in\n    tag_84:\n      mload(0x40)\n      tag_87\n      swap2\n      swap1\n      tag_72\n      jump\t// in\n    tag_87:\n      mload(0x40)\n      dup1\n      swap2\n      sub\n      swap1\n      return\n        /* \"contracts/proposalsAndRequests.sol\":7555:7695  function getRequestCountByProposal(uint256 proposalId) public view returns (uint256) {... */\n    tag_13:\n      tag_88\n      0x04\n      dup1\n      calldatasize\n      sub\n      dup2\n      add\n      swap1\n      tag_89\n      swap2\n      swap1\n      tag_48\n      jump\t// in\n    tag_89:\n      tag_90\n      jump\t// in\n    tag_88:\n      mload(0x40)\n      tag_91\n      swap2\n      swap1\n      tag_72\n      jump\t// in\n    tag_91:\n      mload(0x40)\n      dup1\n      swap2\n      sub\n      swap1\n      return\n        /* \"contracts/proposalsAndRequests.sol\":12287:12493  function recordDisputeCreation (uint256 proposalId, uint256 buyerRequestIndex)... */\n    tag_14:\n      tag_92\n      0x04\n      dup1\n      calldatasize\n      sub\n      dup2\n      add\n      swap1\n      tag_93\n      swap2\n      swap1\n      tag_66\n      jump\t// in\n    tag_93:\n      tag_94\n      jump\t// in\n    tag_92:\n      stop\n        /* \"contracts/proposalsAndRequests.sol\":1544:1612  mapping(address => RequestIndex[]) public buyerRequestIndicesByBuyer */\n    tag_15:\n      tag_95\n      0x04\n      dup1\n      calldatasize\n      sub\n      dup2\n      add\n      swap1\n      tag_96\n      swap2\n      swap1\n      tag_97\n      jump\t// in\n    tag_96:\n      tag_98\n      jump\t// in\n    tag_95:\n      mload(0x40)\n      tag_99\n      swap3\n      swap2\n      swap1\n      tag_100\n      jump\t// in\n    tag_99:\n      mload(0x40)\n      dup1\n      swap2\n      sub\n      swap1\n      return\n        /* \"contracts/proposalsAndRequests.sol\":12495:13167  function recordEscrowReleaseAfterDispute (uint256 proposalId, uint256 buyerRequestIndex, uint256 amount) external onlyMainContract {... */\n    tag_16:\n      tag_101\n      0x04\n      dup1\n      calldatasize\n      sub\n      dup2\n      add\n      swap1\n      tag_102\n      swap2\n      swap1\n      tag_58\n      jump\t// in\n    tag_102:\n      tag_103\n      jump\t// in\n    tag_101:\n      stop\n        /* \"contracts/proposalsAndRequests.sol\":3660:4686  function deactivateProposal(uint256 proposalId) public onlyMainContract {... */\n    tag_17:\n      tag_104\n      0x04\n      dup1\n      calldatasize\n      sub\n      dup2\n      add\n      swap1\n      tag_105\n      swap2\n      swap1\n      tag_48\n      jump\t// in\n    tag_105:\n      tag_106\n      jump\t// in\n    tag_104:\n      stop\n        /* \"contracts/proposalsAndRequests.sol\":883:925  uint256 public historicalProposalCount = 0 */\n    tag_18:\n      tag_107\n      tag_108\n      jump\t// in\n    tag_107:\n      mload(0x40)\n      tag_109\n      swap2\n      swap1\n      tag_72\n      jump\t// in\n    tag_109:\n      mload(0x40)\n      dup1\n      swap2\n      sub\n      swap1\n      return\n        /* \"@openzeppelin/contracts/access/Ownable.sol\":1831:1932  function renounceOwnership() public virtual onlyOwner {... */\n    tag_19:\n      tag_110\n      tag_111\n      jump\t// in\n    tag_110:\n      stop\n        /* \"contracts/proposalsAndRequests.sol\":6151:6255  function getActiveProposalIds() public view returns (uint256[] memory) {... */\n    tag_20:\n      tag_112\n      tag_113\n      jump\t// in\n    tag_112:\n      mload(0x40)\n      tag_114\n      swap2\n      swap1\n      tag_115\n      jump\t// in\n    tag_114:\n      mload(0x40)\n      dup1\n      swap2\n      sub\n      swap1\n      return\n        /* \"contracts/proposalsAndRequests.sol\":964:1002  uint256 public activeProposalCount = 0 */\n    tag_21:\n      tag_116\n      tag_117\n      jump\t// in\n    tag_116:\n      mload(0x40)\n      tag_118\n      swap2\n      swap1\n      tag_72\n      jump\t// in\n    tag_118:\n      mload(0x40)\n      dup1\n      swap2\n      sub\n      swap1\n      return\n        /* \"contracts/proposalsAndRequests.sol\":4688:6148  function deleteProposal(uint256 proposalId) public onlyOwner {... */\n    tag_22:\n      tag_119\n      0x04\n      dup1\n      calldatasize\n      sub\n      dup2\n      add\n      swap1\n      tag_120\n      swap2\n      swap1\n      tag_48\n      jump\t// in\n    tag_120:\n      tag_121\n      jump\t// in\n    tag_119:\n      stop\n        /* \"@openzeppelin/contracts/access/Ownable.sol\":1201:1286  function owner() public view virtual returns (address) {... */\n    tag_23:\n      tag_122\n      tag_123\n      jump\t// in\n    tag_122:\n      mload(0x40)\n      tag_124\n      swap2\n      swap1\n      tag_125\n      jump\t// in\n    tag_124:\n      mload(0x40)\n      dup1\n      swap2\n      sub\n      swap1\n      return\n        /* \"contracts/proposalsAndRequests.sol\":2384:3353  function createProposal(... */\n    tag_24:\n      tag_126\n      0x04\n      dup1\n      calldatasize\n      sub\n      dup2\n      add\n      swap1\n      tag_127\n      swap2\n      swap1\n      tag_128\n      jump\t// in\n    tag_127:\n      tag_129\n      jump\t// in\n    tag_126:\n      stop\n        /* \"contracts/proposalsAndRequests.sol\":819:847  uint256[] public proposalIds */\n    tag_25:\n      tag_130\n      0x04\n      dup1\n      calldatasize\n      sub\n      dup2\n      add\n      swap1\n      tag_131\n      swap2\n      swap1\n      tag_48\n      jump\t// in\n    tag_131:\n      tag_132\n      jump\t// in\n    tag_130:\n      mload(0x40)\n      tag_133\n      swap2\n      swap1\n      tag_72\n      jump\t// in\n    tag_133:\n      mload(0x40)\n      dup1\n      swap2\n      sub\n      swap1\n      return\n        /* \"contracts/proposalsAndRequests.sol\":8654:9397  function getActiveRequestsByProposal(uint256 proposalId) public view returns (BuyerRequest[] memory) {... */\n    tag_26:\n      tag_134\n      0x04\n      dup1\n      calldatasize\n      sub\n      dup2\n      add\n      swap1\n      tag_135\n      swap2\n      swap1\n      tag_48\n      jump\t// in\n    tag_135:\n      tag_136\n      jump\t// in\n    tag_134:\n      mload(0x40)\n      tag_137\n      swap2\n      swap1\n      tag_83\n      jump\t// in\n    tag_137:\n      mload(0x40)\n      dup1\n      swap2\n      sub\n      swap1\n      return\n        /* \"contracts/proposalsAndRequests.sol\":327:386  ICompletedTransactions public completedTransactionsContract */\n    tag_27:\n      tag_138\n      tag_139\n      jump\t// in\n    tag_138:\n      mload(0x40)\n      tag_140\n      swap2\n      swap1\n      tag_141\n      jump\t// in\n    tag_140:\n      mload(0x40)\n      dup1\n      swap2\n      sub\n      swap1\n      return\n        /* \"contracts/proposalsAndRequests.sol\":7373:7553  function getBuyerRequest(uint256 proposalId, uint256 buyerRequestIndex) ... */\n    tag_28:\n      tag_142\n      0x04\n      dup1\n      calldatasize\n      sub\n      dup2\n      add\n      swap1\n      tag_143\n      swap2\n      swap1\n      tag_66\n      jump\t// in\n    tag_143:\n      tag_144\n      jump\t// in\n    tag_142:\n      mload(0x40)\n      tag_145\n      swap2\n      swap1\n      tag_146\n      jump\t// in\n    tag_145:\n      mload(0x40)\n      dup1\n      swap2\n      sub\n      swap1\n      return\n        /* \"contracts/proposalsAndRequests.sol\":3474:3561  function getProposalCount() public view returns (uint256) {... */\n    tag_29:\n      tag_147\n      tag_148\n      jump\t// in\n    tag_147:\n      mload(0x40)\n      tag_149\n      swap2\n      swap1\n      tag_72\n      jump\t// in\n    tag_149:\n      mload(0x40)\n      dup1\n      swap2\n      sub\n      swap1\n      return\n        /* \"contracts/proposalsAndRequests.sol\":3356:3472  function getProposal(uint256 proposalId) public view returns (Proposal memory) {... */\n    tag_30:\n      tag_150\n      0x04\n      dup1\n      calldatasize\n      sub\n      dup2\n      add\n      swap1\n      tag_151\n      swap2\n      swap1\n      tag_48\n      jump\t// in\n    tag_151:\n      tag_152\n      jump\t// in\n    tag_150:\n      mload(0x40)\n      tag_153\n      swap2\n      swap1\n      tag_154\n      jump\t// in\n    tag_153:\n      mload(0x40)\n      dup1\n      swap2\n      sub\n      swap1\n      return\n        /* \"contracts/proposalsAndRequests.sol\":6331:7370  function requestToBuy(uint256 proposalId, uint256 amount, address buyer)... */\n    tag_31:\n      tag_155\n      0x04\n      dup1\n      calldatasize\n      sub\n      dup2\n      add\n      swap1\n      tag_156\n      swap2\n      swap1\n      tag_157\n      jump\t// in\n    tag_156:\n      tag_158\n      jump\t// in\n    tag_155:\n      stop\n        /* \"contracts/proposalsAndRequests.sol\":298:325  address public mainContract */\n    tag_32:\n      tag_159\n      tag_160\n      jump\t// in\n    tag_159:\n      mload(0x40)\n      tag_161\n      swap2\n      swap1\n      tag_125\n      jump\t// in\n    tag_161:\n      mload(0x40)\n      dup1\n      swap2\n      sub\n      swap1\n      return\n        /* \"contracts/proposalsAndRequests.sol\":1469:1542  mapping(uint256 => mapping(uint256 => BuyerRequest)) public buyerRequests */\n    tag_33:\n      tag_162\n      0x04\n      dup1\n      calldatasize\n      sub\n      dup2\n      add\n      swap1\n      tag_163\n      swap2\n      swap1\n      tag_66\n      jump\t// in\n    tag_163:\n      tag_164\n      jump\t// in\n    tag_162:\n      mload(0x40)\n      tag_165\n      swap13\n      swap12\n      swap11\n      swap10\n      swap9\n      swap8\n      swap7\n      swap6\n      swap5\n      swap4\n      swap3\n      swap2\n      swap1\n      tag_166\n      jump\t// in\n    tag_165:\n      mload(0x40)\n      dup1\n      swap2\n      sub\n      swap1\n      return\n        /* \"contracts/proposalsAndRequests.sol\":849:881  uint256 public proposalCount = 0 */\n    tag_34:\n      tag_167\n      tag_168\n      jump\t// in\n    tag_167:\n      mload(0x40)\n      tag_169\n      swap2\n      swap1\n      tag_72\n      jump\t// in\n    tag_169:\n      mload(0x40)\n      dup1\n      swap2\n      sub\n      swap1\n      return\n        /* \"contracts/proposalsAndRequests.sol\":9401:9709  function deactivateBuyerRequest (uint256 proposalId, uint256 buyerRequestIndex) public onlyMainContract {... */\n    tag_35:\n      tag_170\n      0x04\n      dup1\n      calldatasize\n      sub\n      dup2\n      add\n      swap1\n      tag_171\n      swap2\n      swap1\n      tag_66\n      jump\t// in\n    tag_171:\n      tag_172\n      jump\t// in\n    tag_170:\n      stop\n        /* \"contracts/proposalsAndRequests.sol\":11107:12285  function changeProposalAndRequestDataUponCryptoRelease(uint256 proposalId, uint256 buyerRequestIndex, uint256 amount)... */\n    tag_36:\n      tag_173\n      0x04\n      dup1\n      calldatasize\n      sub\n      dup2\n      add\n      swap1\n      tag_174\n      swap2\n      swap1\n      tag_58\n      jump\t// in\n    tag_174:\n      tag_175\n      jump\t// in\n    tag_173:\n      stop\n        /* \"contracts/proposalsAndRequests.sol\":3563:3658  function getAllProposalIds() public view returns (uint256[] memory) {... */\n    tag_37:\n      tag_176\n      tag_177\n      jump\t// in\n    tag_176:\n      mload(0x40)\n      tag_178\n      swap2\n      swap1\n      tag_115\n      jump\t// in\n    tag_178:\n      mload(0x40)\n      dup1\n      swap2\n      sub\n      swap1\n      return\n        /* \"@openzeppelin/contracts/access/Ownable.sol\":2081:2279  function transferOwnership(address newOwner) public virtual onlyOwner {... */\n    tag_38:\n      tag_179\n      0x04\n      dup1\n      calldatasize\n      sub\n      dup2\n      add\n      swap1\n      tag_180\n      swap2\n      swap1\n      tag_62\n      jump\t// in\n    tag_180:\n      tag_181\n      jump\t// in\n    tag_179:\n      stop\n        /* \"contracts/proposalsAndRequests.sol\":771:816  mapping(uint256 => Proposal) public proposals */\n    tag_49:\n      mstore(0x20, 0x03)\n      dup1\n      0x00\n      mstore\n      keccak256(0x00, 0x40)\n      0x00\n      swap2\n      pop\n      swap1\n      pop\n      dup1\n      0x00\n      add\n      sload\n      swap1\n      dup1\n      0x01\n      add\n      sload\n      swap1\n      dup1\n      0x02\n      add\n      sload\n      swap1\n      dup1\n      0x03\n      add\n      sload\n      swap1\n      dup1\n      0x04\n      add\n      dup1\n      sload\n      tag_182\n      swap1\n      tag_183\n      jump\t// in\n    tag_182:\n      dup1\n      0x1f\n      add\n      0x20\n      dup1\n      swap2\n      div\n      mul\n      0x20\n      add\n      mload(0x40)\n      swap1\n      dup2\n      add\n      0x40\n      mstore\n      dup1\n      swap3\n      swap2\n      swap1\n      dup2\n      dup2\n      mstore\n      0x20\n      add\n      dup3\n      dup1\n      sload\n      tag_184\n      swap1\n      tag_183\n      jump\t// in\n    tag_184:\n      dup1\n      iszero\n      tag_185\n      jumpi\n      dup1\n      0x1f\n      lt\n      tag_186\n      jumpi\n      0x0100\n      dup1\n      dup4\n      sload\n      div\n      mul\n      dup4\n      mstore\n      swap2\n      0x20\n      add\n      swap2\n      jump(tag_185)\n    tag_186:\n      dup3\n      add\n      swap2\n      swap1\n      0x00\n      mstore\n      keccak256(0x00, 0x20)\n      swap1\n    tag_187:\n      dup2\n      sload\n      dup2\n      mstore\n      swap1\n      0x01\n      add\n      swap1\n      0x20\n      add\n      dup1\n      dup4\n      gt\n      tag_187\n      jumpi\n      dup3\n      swap1\n      sub\n      0x1f\n      and\n      dup3\n      add\n      swap2\n    tag_185:\n      pop\n      pop\n      pop\n      pop\n      pop\n      swap1\n      dup1\n      0x05\n      add\n      sload\n      swap1\n      dup1\n      0x06\n      add\n      dup1\n      sload\n      tag_188\n      swap1\n      tag_183\n      jump\t// in\n    tag_188:\n      dup1\n      0x1f\n      add\n      0x20\n      dup1\n      swap2\n      div\n      mul\n      0x20\n      add\n      mload(0x40)\n      swap1\n      dup2\n      add\n      0x40\n      mstore\n      dup1\n      swap3\n      swap2\n      swap1\n      dup2\n      dup2\n      mstore\n      0x20\n      add\n      dup3\n      dup1\n      sload\n      tag_189\n      swap1\n      tag_183\n      jump\t// in\n    tag_189:\n      dup1\n      iszero\n      tag_190\n      jumpi\n      dup1\n      0x1f\n      lt\n      tag_191\n      jumpi\n      0x0100\n      dup1\n      dup4\n      sload\n      div\n      mul\n      dup4\n      mstore\n      swap2\n      0x20\n      add\n      swap2\n      jump(tag_190)\n    tag_191:\n      dup3\n      add\n      swap2\n      swap1\n      0x00\n      mstore\n      keccak256(0x00, 0x20)\n      swap1\n    tag_192:\n      dup2\n      sload\n      dup2\n      mstore\n      swap1\n      0x01\n      add\n      swap1\n      0x20\n      add\n      dup1\n      dup4\n      gt\n      tag_192\n      jumpi\n      dup3\n      swap1\n      sub\n      0x1f\n      and\n      dup3\n      add\n      swap2\n    tag_190:\n      pop\n      pop\n      pop\n      pop\n      pop\n      swap1\n      dup1\n      0x07\n      add\n      dup1\n      sload\n      tag_193\n      swap1\n      tag_183\n      jump\t// in\n    tag_193:\n      dup1\n      0x1f\n      add\n      0x20\n      dup1\n      swap2\n      div\n      mul\n      0x20\n      add\n      mload(0x40)\n      swap1\n      dup2\n      add\n      0x40\n      mstore\n      dup1\n      swap3\n      swap2\n      swap1\n      dup2\n      dup2\n      mstore\n      0x20\n      add\n      dup3\n      dup1\n      sload\n      tag_194\n      swap1\n      tag_183\n      jump\t// in\n    tag_194:\n      dup1\n      iszero\n      tag_195\n      jumpi\n      dup1\n      0x1f\n      lt\n      tag_196\n      jumpi\n      0x0100\n      dup1\n      dup4\n      sload\n      div\n      mul\n      dup4\n      mstore\n      swap2\n      0x20\n      add\n      swap2\n      jump(tag_195)\n    tag_196:\n      dup3\n      add\n      swap2\n      swap1\n      0x00\n      mstore\n      keccak256(0x00, 0x20)\n      swap1\n    tag_197:\n      dup2\n      sload\n      dup2\n      mstore\n      swap1\n      0x01\n      add\n      swap1\n      0x20\n      add\n      dup1\n      dup4\n      gt\n      tag_197\n      jumpi\n      dup3\n      swap1\n      sub\n      0x1f\n      and\n      dup3\n      add\n      swap2\n    tag_195:\n      pop\n      pop\n      pop\n      pop\n      pop\n      swap1\n      dup1\n      0x08\n      add\n      0x00\n      swap1\n      sload\n      swap1\n      0x0100\n      exp\n      swap1\n      div\n      0xff\n      and\n      swap1\n      dup1\n      0x08\n      add\n      0x01\n      swap1\n      sload\n      swap1\n      0x0100\n      exp\n      swap1\n      div\n      0xffffffffffffffffffffffffffffffffffffffff\n      and\n      swap1\n      dup1\n      0x09\n      add\n      sload\n      swap1\n      dup1\n      0x0a\n      add\n      sload\n      swap1\n      pop\n      dup13\n      jump\t// out\n        /* \"contracts/proposalsAndRequests.sol\":13169:13524  function recordRequestCancellation(uint256 proposalId, uint256 buyerRequestIndex, bool requestedByBuyer) public  onlyMainContract {... */\n    tag_55:\n        /* \"contracts/proposalsAndRequests.sol\":1962:1974  mainContract */\n      0x01\n      0x00\n      swap1\n      sload\n      swap1\n      0x0100\n      exp\n      swap1\n      div\n      0xffffffffffffffffffffffffffffffffffffffff\n      and\n        /* \"contracts/proposalsAndRequests.sol\":1948:1974  msg.sender == mainContract */\n      0xffffffffffffffffffffffffffffffffffffffff\n      and\n        /* \"contracts/proposalsAndRequests.sol\":1948:1958  msg.sender */\n      caller\n        /* \"contracts/proposalsAndRequests.sol\":1948:1974  msg.sender == mainContract */\n      0xffffffffffffffffffffffffffffffffffffffff\n      and\n      eq\n        /* \"contracts/proposalsAndRequests.sol\":1940:2010  require(msg.sender == mainContract, \"Caller is not the main contract\") */\n      tag_199\n      jumpi\n      mload(0x40)\n      0x08c379a000000000000000000000000000000000000000000000000000000000\n      dup2\n      mstore\n      0x04\n      add\n      tag_200\n      swap1\n      tag_201\n      jump\t// in\n    tag_200:\n      mload(0x40)\n      dup1\n      swap2\n      sub\n      swap1\n      revert\n    tag_199:\n        /* \"contracts/proposalsAndRequests.sol\":13310:13326  requestedByBuyer */\n      dup1\n        /* \"contracts/proposalsAndRequests.sol\":13306:13521  if (requestedByBuyer) {... */\n      iszero\n      tag_203\n      jumpi\n        /* \"contracts/proposalsAndRequests.sol\":13408:13412  true */\n      0x01\n        /* \"contracts/proposalsAndRequests.sol\":13338:13351  buyerRequests */\n      0x09\n        /* \"contracts/proposalsAndRequests.sol\":13338:13363  buyerRequests[proposalId] */\n      0x00\n        /* \"contracts/proposalsAndRequests.sol\":13352:13362  proposalId */\n      dup6\n        /* \"contracts/proposalsAndRequests.sol\":13338:13363  buyerRequests[proposalId] */\n      dup2\n      mstore\n      0x20\n      add\n      swap1\n      dup2\n      mstore\n      0x20\n      add\n      0x00\n      keccak256\n        /* \"contracts/proposalsAndRequests.sol\":13338:13382  buyerRequests[proposalId][buyerRequestIndex] */\n      0x00\n        /* \"contracts/proposalsAndRequests.sol\":13364:13381  buyerRequestIndex */\n      dup5\n        /* \"contracts/proposalsAndRequests.sol\":13338:13382  buyerRequests[proposalId][buyerRequestIndex] */\n      dup2\n      mstore\n      0x20\n      add\n      swap1\n      dup2\n      mstore\n      0x20\n      add\n      0x00\n      keccak256\n        /* \"contracts/proposalsAndRequests.sol\":13338:13405  buyerRequests[proposalId][buyerRequestIndex].buyerRequestedtoCancel */\n      0x04\n      add\n      0x17\n        /* \"contracts/proposalsAndRequests.sol\":13338:13412  buyerRequests[proposalId][buyerRequestIndex].buyerRequestedtoCancel = true */\n      0x0100\n      exp\n      dup2\n      sload\n      dup2\n      0xff\n      mul\n      not\n      and\n      swap1\n      dup4\n      iszero\n      iszero\n      mul\n      or\n      swap1\n      sstore\n      pop\n        /* \"contracts/proposalsAndRequests.sol\":13306:13521  if (requestedByBuyer) {... */\n      jump(tag_204)\n    tag_203:\n        /* \"contracts/proposalsAndRequests.sol\":13510:13514  true */\n      0x01\n        /* \"contracts/proposalsAndRequests.sol\":13439:13452  buyerRequests */\n      0x09\n        /* \"contracts/proposalsAndRequests.sol\":13439:13464  buyerRequests[proposalId] */\n      0x00\n        /* \"contracts/proposalsAndRequests.sol\":13453:13463  proposalId */\n      dup6\n        /* \"contracts/proposalsAndRequests.sol\":13439:13464  buyerRequests[proposalId] */\n      dup2\n      mstore\n      0x20\n      add\n      swap1\n      dup2\n      mstore\n      0x20\n      add\n      0x00\n      keccak256\n        /* \"contracts/proposalsAndRequests.sol\":13439:13483  buyerRequests[proposalId][buyerRequestIndex] */\n      0x00\n        /* \"contracts/proposalsAndRequests.sol\":13465:13482  buyerRequestIndex */\n      dup5\n        /* \"contracts/proposalsAndRequests.sol\":13439:13483  buyerRequests[proposalId][buyerRequestIndex] */\n      dup2\n      mstore\n      0x20\n      add\n      swap1\n      dup2\n      mstore\n      0x20\n      add\n      0x00\n      keccak256\n        /* \"contracts/proposalsAndRequests.sol\":13439:13507  buyerRequests[proposalId][buyerRequestIndex].sellerRequestedtoCancel */\n      0x04\n      add\n      0x18\n        /* \"contracts/proposalsAndRequests.sol\":13439:13514  buyerRequests[proposalId][buyerRequestIndex].sellerRequestedtoCancel = true */\n      0x0100\n      exp\n      dup2\n      sload\n      dup2\n      0xff\n      mul\n      not\n      and\n      swap1\n      dup4\n      iszero\n      iszero\n      mul\n      or\n      swap1\n      sstore\n      pop\n        /* \"contracts/proposalsAndRequests.sol\":13306:13521  if (requestedByBuyer) {... */\n    tag_204:\n        /* \"contracts/proposalsAndRequests.sol\":13169:13524  function recordRequestCancellation(uint256 proposalId, uint256 buyerRequestIndex, bool requestedByBuyer) public  onlyMainContract {... */\n      pop\n      pop\n      pop\n      jump\t// out\n        /* \"contracts/proposalsAndRequests.sol\":9711:10315  function acceptBuyerRequest(uint256 proposalId, uint256 buyerRequestIndex, uint256 amount)... */\n    tag_59:\n        /* \"contracts/proposalsAndRequests.sol\":9836:9846  proposalId */\n      dup3\n        /* \"contracts/proposalsAndRequests.sol\":1831:1840  proposals */\n      0x03\n        /* \"contracts/proposalsAndRequests.sol\":1831:1852  proposals[proposalId] */\n      0x00\n        /* \"contracts/proposalsAndRequests.sol\":1841:1851  proposalId */\n      dup3\n        /* \"contracts/proposalsAndRequests.sol\":1831:1852  proposals[proposalId] */\n      dup2\n      mstore\n      0x20\n      add\n      swap1\n      dup2\n      mstore\n      0x20\n      add\n      0x00\n      keccak256\n        /* \"contracts/proposalsAndRequests.sol\":1831:1859  proposals[proposalId].active */\n      0x08\n      add\n      0x00\n      swap1\n      sload\n      swap1\n      0x0100\n      exp\n      swap1\n      div\n      0xff\n      and\n        /* \"contracts/proposalsAndRequests.sol\":1823:1886  require(proposals[proposalId].active, \"Proposal is not active\") */\n      tag_206\n      jumpi\n      mload(0x40)\n      0x08c379a000000000000000000000000000000000000000000000000000000000\n      dup2\n      mstore\n      0x04\n      add\n      tag_207\n      swap1\n      tag_208\n      jump\t// in\n    tag_207:\n      mload(0x40)\n      dup1\n      swap2\n      sub\n      swap1\n      revert\n    tag_206:\n        /* \"contracts/proposalsAndRequests.sol\":1962:1974  mainContract */\n      0x01\n      0x00\n      swap1\n      sload\n      swap1\n      0x0100\n      exp\n      swap1\n      div\n      0xffffffffffffffffffffffffffffffffffffffff\n      and\n        /* \"contracts/proposalsAndRequests.sol\":1948:1974  msg.sender == mainContract */\n      0xffffffffffffffffffffffffffffffffffffffff\n      and\n        /* \"contracts/proposalsAndRequests.sol\":1948:1958  msg.sender */\n      caller\n        /* \"contracts/proposalsAndRequests.sol\":1948:1974  msg.sender == mainContract */\n      0xffffffffffffffffffffffffffffffffffffffff\n      and\n      eq\n        /* \"contracts/proposalsAndRequests.sol\":1940:2010  require(msg.sender == mainContract, \"Caller is not the main contract\") */\n      tag_210\n      jumpi\n      mload(0x40)\n      0x08c379a000000000000000000000000000000000000000000000000000000000\n      dup2\n      mstore\n      0x04\n      add\n      tag_211\n      swap1\n      tag_201\n      jump\t// in\n    tag_211:\n      mload(0x40)\n      dup1\n      swap2\n      sub\n      swap1\n      revert\n    tag_210:\n        /* \"contracts/proposalsAndRequests.sol\":9984:10069  proposals[proposalId].amount.sub(buyerRequests[proposalId][buyerRequestIndex].amount) */\n      tag_213\n        /* \"contracts/proposalsAndRequests.sol\":10017:10030  buyerRequests */\n      0x09\n        /* \"contracts/proposalsAndRequests.sol\":10017:10042  buyerRequests[proposalId] */\n      0x00\n        /* \"contracts/proposalsAndRequests.sol\":10031:10041  proposalId */\n      dup7\n        /* \"contracts/proposalsAndRequests.sol\":10017:10042  buyerRequests[proposalId] */\n      dup2\n      mstore\n      0x20\n      add\n      swap1\n      dup2\n      mstore\n      0x20\n      add\n      0x00\n      keccak256\n        /* \"contracts/proposalsAndRequests.sol\":10017:10061  buyerRequests[proposalId][buyerRequestIndex] */\n      0x00\n        /* \"contracts/proposalsAndRequests.sol\":10043:10060  buyerRequestIndex */\n      dup6\n        /* \"contracts/proposalsAndRequests.sol\":10017:10061  buyerRequests[proposalId][buyerRequestIndex] */\n      dup2\n      mstore\n      0x20\n      add\n      swap1\n      dup2\n      mstore\n      0x20\n      add\n      0x00\n      keccak256\n        /* \"contracts/proposalsAndRequests.sol\":10017:10068  buyerRequests[proposalId][buyerRequestIndex].amount */\n      0x02\n      add\n      sload\n        /* \"contracts/proposalsAndRequests.sol\":9984:9993  proposals */\n      0x03\n        /* \"contracts/proposalsAndRequests.sol\":9984:10005  proposals[proposalId] */\n      0x00\n        /* \"contracts/proposalsAndRequests.sol\":9994:10004  proposalId */\n      dup8\n        /* \"contracts/proposalsAndRequests.sol\":9984:10005  proposals[proposalId] */\n      dup2\n      mstore\n      0x20\n      add\n      swap1\n      dup2\n      mstore\n      0x20\n      add\n      0x00\n      keccak256\n        /* \"contracts/proposalsAndRequests.sol\":9984:10012  proposals[proposalId].amount */\n      0x00\n      add\n      sload\n        /* \"contracts/proposalsAndRequests.sol\":9984:10016  proposals[proposalId].amount.sub */\n      tag_214\n      swap1\n        /* \"contracts/proposalsAndRequests.sol\":9984:10069  proposals[proposalId].amount.sub(buyerRequests[proposalId][buyerRequestIndex].amount) */\n      swap2\n      swap1\n      0xffffffff\n      and\n      jump\t// in\n    tag_213:\n        /* \"contracts/proposalsAndRequests.sol\":9953:9962  proposals */\n      0x03\n        /* \"contracts/proposalsAndRequests.sol\":9953:9974  proposals[proposalId] */\n      0x00\n        /* \"contracts/proposalsAndRequests.sol\":9963:9973  proposalId */\n      dup7\n        /* \"contracts/proposalsAndRequests.sol\":9953:9974  proposals[proposalId] */\n      dup2\n      mstore\n      0x20\n      add\n      swap1\n      dup2\n      mstore\n      0x20\n      add\n      0x00\n      keccak256\n        /* \"contracts/proposalsAndRequests.sol\":9953:9981  proposals[proposalId].amount */\n      0x00\n      add\n        /* \"contracts/proposalsAndRequests.sol\":9953:10069  proposals[proposalId].amount = proposals[proposalId].amount.sub(buyerRequests[proposalId][buyerRequestIndex].amount) */\n      dup2\n      swap1\n      sstore\n      pop\n        /* \"contracts/proposalsAndRequests.sol\":10173:10177  true */\n      0x01\n        /* \"contracts/proposalsAndRequests.sol\":10117:10130  buyerRequests */\n      0x09\n        /* \"contracts/proposalsAndRequests.sol\":10117:10142  buyerRequests[proposalId] */\n      0x00\n        /* \"contracts/proposalsAndRequests.sol\":10131:10141  proposalId */\n      dup7\n        /* \"contracts/proposalsAndRequests.sol\":10117:10142  buyerRequests[proposalId] */\n      dup2\n      mstore\n      0x20\n      add\n      swap1\n      dup2\n      mstore\n      0x20\n      add\n      0x00\n      keccak256\n        /* \"contracts/proposalsAndRequests.sol\":10117:10161  buyerRequests[proposalId][buyerRequestIndex] */\n      0x00\n        /* \"contracts/proposalsAndRequests.sol\":10143:10160  buyerRequestIndex */\n      dup6\n        /* \"contracts/proposalsAndRequests.sol\":10117:10161  buyerRequests[proposalId][buyerRequestIndex] */\n      dup2\n      mstore\n      0x20\n      add\n      swap1\n      dup2\n      mstore\n      0x20\n      add\n      0x00\n      keccak256\n        /* \"contracts/proposalsAndRequests.sol\":10117:10170  buyerRequests[proposalId][buyerRequestIndex].accepted */\n      0x04\n      add\n      0x14\n        /* \"contracts/proposalsAndRequests.sol\":10117:10177  buyerRequests[proposalId][buyerRequestIndex].accepted = true */\n      0x0100\n      exp\n      dup2\n      sload\n      dup2\n      0xff\n      mul\n      not\n      and\n      swap1\n      dup4\n      iszero\n      iszero\n      mul\n      or\n      swap1\n      sstore\n      pop\n        /* \"contracts/proposalsAndRequests.sol\":10264:10311  proposals[proposalId].escrowBalance.add(amount) */\n      tag_215\n        /* \"contracts/proposalsAndRequests.sol\":10304:10310  amount */\n      dup3\n        /* \"contracts/proposalsAndRequests.sol\":10264:10273  proposals */\n      0x03\n        /* \"contracts/proposalsAndRequests.sol\":10264:10285  proposals[proposalId] */\n      0x00\n        /* \"contracts/proposalsAndRequests.sol\":10274:10284  proposalId */\n      dup8\n        /* \"contracts/proposalsAndRequests.sol\":10264:10285  proposals[proposalId] */\n      dup2\n      mstore\n      0x20\n      add\n      swap1\n      dup2\n      mstore\n      0x20\n      add\n      0x00\n      keccak256\n        /* \"contracts/proposalsAndRequests.sol\":10264:10299  proposals[proposalId].escrowBalance */\n      0x01\n      add\n      sload\n        /* \"contracts/proposalsAndRequests.sol\":10264:10303  proposals[proposalId].escrowBalance.add */\n      tag_216\n      swap1\n        /* \"contracts/proposalsAndRequests.sol\":10264:10311  proposals[proposalId].escrowBalance.add(amount) */\n      swap2\n      swap1\n      0xffffffff\n      and\n      jump\t// in\n    tag_215:\n        /* \"contracts/proposalsAndRequests.sol\":10226:10235  proposals */\n      0x03\n        /* \"contracts/proposalsAndRequests.sol\":10226:10247  proposals[proposalId] */\n      0x00\n        /* \"contracts/proposalsAndRequests.sol\":10236:10246  proposalId */\n      dup7\n        /* \"contracts/proposalsAndRequests.sol\":10226:10247  proposals[proposalId] */\n      dup2\n      mstore\n      0x20\n      add\n      swap1\n      dup2\n      mstore\n      0x20\n      add\n      0x00\n      keccak256\n        /* \"contracts/proposalsAndRequests.sol\":10226:10261  proposals[proposalId].escrowBalance */\n      0x01\n      add\n        /* \"contracts/proposalsAndRequests.sol\":10226:10311  proposals[proposalId].escrowBalance = proposals[proposalId].escrowBalance.add(amount) */\n      dup2\n      swap1\n      sstore\n      pop\n        /* \"contracts/proposalsAndRequests.sol\":9711:10315  function acceptBuyerRequest(uint256 proposalId, uint256 buyerRequestIndex, uint256 amount)... */\n      pop\n      pop\n      pop\n      pop\n      jump\t// out\n        /* \"contracts/proposalsAndRequests.sol\":2159:2382  function setCompletedTransactionsContract (address _completedTransactionsContract)... */\n    tag_63:\n        /* \"@openzeppelin/contracts/access/Ownable.sol\":1094:1107  _checkOwner() */\n      tag_218\n        /* \"@openzeppelin/contracts/access/Ownable.sol\":1094:1105  _checkOwner */\n      tag_219\n        /* \"@openzeppelin/contracts/access/Ownable.sol\":1094:1107  _checkOwner() */\n      jump\t// in\n    tag_218:\n        /* \"contracts/proposalsAndRequests.sol\":2344:2374  _completedTransactionsContract */\n      dup1\n        /* \"contracts/proposalsAndRequests.sol\":2289:2318  completedTransactionsContract */\n      0x02\n      0x00\n        /* \"contracts/proposalsAndRequests.sol\":2289:2375  completedTransactionsContract = ICompletedTransactions(_completedTransactionsContract) */\n      0x0100\n      exp\n      dup2\n      sload\n      dup2\n      0xffffffffffffffffffffffffffffffffffffffff\n      mul\n      not\n      and\n      swap1\n      dup4\n      0xffffffffffffffffffffffffffffffffffffffff\n      and\n      mul\n      or\n      swap1\n      sstore\n      pop\n        /* \"contracts/proposalsAndRequests.sol\":2159:2382  function setCompletedTransactionsContract (address _completedTransactionsContract)... */\n      pop\n      jump\t// out\n        /* \"contracts/proposalsAndRequests.sol\":13526:14201  function processCancellation (uint256 proposalId, uint256 buyerRequestIndex) public  onlyMainContract {... */\n    tag_67:\n        /* \"contracts/proposalsAndRequests.sol\":1962:1974  mainContract */\n      0x01\n      0x00\n      swap1\n      sload\n      swap1\n      0x0100\n      exp\n      swap1\n      div\n      0xffffffffffffffffffffffffffffffffffffffff\n      and\n        /* \"contracts/proposalsAndRequests.sol\":1948:1974  msg.sender == mainContract */\n      0xffffffffffffffffffffffffffffffffffffffff\n      and\n        /* \"contracts/proposalsAndRequests.sol\":1948:1958  msg.sender */\n      caller\n        /* \"contracts/proposalsAndRequests.sol\":1948:1974  msg.sender == mainContract */\n      0xffffffffffffffffffffffffffffffffffffffff\n      and\n      eq\n        /* \"contracts/proposalsAndRequests.sol\":1940:2010  require(msg.sender == mainContract, \"Caller is not the main contract\") */\n      tag_222\n      jumpi\n      mload(0x40)\n      0x08c379a000000000000000000000000000000000000000000000000000000000\n      dup2\n      mstore\n      0x04\n      add\n      tag_223\n      swap1\n      tag_201\n      jump\t// in\n    tag_223:\n      mload(0x40)\n      dup1\n      swap2\n      sub\n      swap1\n      revert\n    tag_222:\n        /* \"contracts/proposalsAndRequests.sol\":13643:13656  buyerRequests */\n      0x09\n        /* \"contracts/proposalsAndRequests.sol\":13643:13668  buyerRequests[proposalId] */\n      0x00\n        /* \"contracts/proposalsAndRequests.sol\":13657:13667  proposalId */\n      dup4\n        /* \"contracts/proposalsAndRequests.sol\":13643:13668  buyerRequests[proposalId] */\n      dup2\n      mstore\n      0x20\n      add\n      swap1\n      dup2\n      mstore\n      0x20\n      add\n      0x00\n      keccak256\n        /* \"contracts/proposalsAndRequests.sol\":13643:13687  buyerRequests[proposalId][buyerRequestIndex] */\n      0x00\n        /* \"contracts/proposalsAndRequests.sol\":13669:13686  buyerRequestIndex */\n      dup3\n        /* \"contracts/proposalsAndRequests.sol\":13643:13687  buyerRequests[proposalId][buyerRequestIndex] */\n      dup2\n      mstore\n      0x20\n      add\n      swap1\n      dup2\n      mstore\n      0x20\n      add\n      0x00\n      keccak256\n        /* \"contracts/proposalsAndRequests.sol\":13643:13710  buyerRequests[proposalId][buyerRequestIndex].buyerRequestedtoCancel */\n      0x04\n      add\n      0x17\n      swap1\n      sload\n      swap1\n      0x0100\n      exp\n      swap1\n      div\n      0xff\n      and\n        /* \"contracts/proposalsAndRequests.sol\":13643:13782  buyerRequests[proposalId][buyerRequestIndex].buyerRequestedtoCancel && buyerRequests[proposalId][buyerRequestIndex].sellerRequestedtoCancel */\n      dup1\n      iszero\n      tag_225\n      jumpi\n      pop\n        /* \"contracts/proposalsAndRequests.sol\":13714:13727  buyerRequests */\n      0x09\n        /* \"contracts/proposalsAndRequests.sol\":13714:13739  buyerRequests[proposalId] */\n      0x00\n        /* \"contracts/proposalsAndRequests.sol\":13728:13738  proposalId */\n      dup4\n        /* \"contracts/proposalsAndRequests.sol\":13714:13739  buyerRequests[proposalId] */\n      dup2\n      mstore\n      0x20\n      add\n      swap1\n      dup2\n      mstore\n      0x20\n      add\n      0x00\n      keccak256\n        /* \"contracts/proposalsAndRequests.sol\":13714:13758  buyerRequests[proposalId][buyerRequestIndex] */\n      0x00\n        /* \"contracts/proposalsAndRequests.sol\":13740:13757  buyerRequestIndex */\n      dup3\n        /* \"contracts/proposalsAndRequests.sol\":13714:13758  buyerRequests[proposalId][buyerRequestIndex] */\n      dup2\n      mstore\n      0x20\n      add\n      swap1\n      dup2\n      mstore\n      0x20\n      add\n      0x00\n      keccak256\n        /* \"contracts/proposalsAndRequests.sol\":13714:13782  buyerRequests[proposalId][buyerRequestIndex].sellerRequestedtoCancel */\n      0x04\n      add\n      0x18\n      swap1\n      sload\n      swap1\n      0x0100\n      exp\n      swap1\n      div\n      0xff\n      and\n        /* \"contracts/proposalsAndRequests.sol\":13643:13782  buyerRequests[proposalId][buyerRequestIndex].buyerRequestedtoCancel && buyerRequests[proposalId][buyerRequestIndex].sellerRequestedtoCancel */\n    tag_225:\n        /* \"contracts/proposalsAndRequests.sol\":13634:13857  require (buyerRequests[proposalId][buyerRequestIndex].buyerRequestedtoCancel && buyerRequests[proposalId][buyerRequestIndex].sellerRequestedtoCancel, \"Both, Buyer and Seller should request cancellation of this transaction\") */\n      tag_226\n      jumpi\n      mload(0x40)\n      0x08c379a000000000000000000000000000000000000000000000000000000000\n      dup2\n      mstore\n      0x04\n      add\n      tag_227\n      swap1\n      tag_228\n      jump\t// in\n    tag_227:\n      mload(0x40)\n      dup1\n      swap2\n      sub\n      swap1\n      revert\n    tag_226:\n        /* \"contracts/proposalsAndRequests.sol\":13917:13922  false */\n      0x00\n        /* \"contracts/proposalsAndRequests.sol\":13863:13876  buyerRequests */\n      0x09\n        /* \"contracts/proposalsAndRequests.sol\":13863:13888  buyerRequests[proposalId] */\n      0x00\n        /* \"contracts/proposalsAndRequests.sol\":13877:13887  proposalId */\n      dup5\n        /* \"contracts/proposalsAndRequests.sol\":13863:13888  buyerRequests[proposalId] */\n      dup2\n      mstore\n      0x20\n      add\n      swap1\n      dup2\n      mstore\n      0x20\n      add\n      0x00\n      keccak256\n        /* \"contracts/proposalsAndRequests.sol\":13863:13907  buyerRequests[proposalId][buyerRequestIndex] */\n      0x00\n        /* \"contracts/proposalsAndRequests.sol\":13889:13906  buyerRequestIndex */\n      dup4\n        /* \"contracts/proposalsAndRequests.sol\":13863:13907  buyerRequests[proposalId][buyerRequestIndex] */\n      dup2\n      mstore\n      0x20\n      add\n      swap1\n      dup2\n      mstore\n      0x20\n      add\n      0x00\n      keccak256\n        /* \"contracts/proposalsAndRequests.sol\":13863:13914  buyerRequests[proposalId][buyerRequestIndex].active */\n      0x04\n      add\n      0x1a\n        /* \"contracts/proposalsAndRequests.sol\":13863:13922  buyerRequests[proposalId][buyerRequestIndex].active = false */\n      0x0100\n      exp\n      dup2\n      sload\n      dup2\n      0xff\n      mul\n      not\n      and\n      swap1\n      dup4\n      iszero\n      iszero\n      mul\n      or\n      swap1\n      sstore\n      pop\n        /* \"contracts/proposalsAndRequests.sol\":13928:13942  uint256 amount */\n      0x00\n        /* \"contracts/proposalsAndRequests.sol\":13945:13958  buyerRequests */\n      0x09\n        /* \"contracts/proposalsAndRequests.sol\":13945:13970  buyerRequests[proposalId] */\n      0x00\n        /* \"contracts/proposalsAndRequests.sol\":13959:13969  proposalId */\n      dup5\n        /* \"contracts/proposalsAndRequests.sol\":13945:13970  buyerRequests[proposalId] */\n      dup2\n      mstore\n      0x20\n      add\n      swap1\n      dup2\n      mstore\n      0x20\n      add\n      0x00\n      keccak256\n        /* \"contracts/proposalsAndRequests.sol\":13945:13989  buyerRequests[proposalId][buyerRequestIndex] */\n      0x00\n        /* \"contracts/proposalsAndRequests.sol\":13971:13988  buyerRequestIndex */\n      dup4\n        /* \"contracts/proposalsAndRequests.sol\":13945:13989  buyerRequests[proposalId][buyerRequestIndex] */\n      dup2\n      mstore\n      0x20\n      add\n      swap1\n      dup2\n      mstore\n      0x20\n      add\n      0x00\n      keccak256\n        /* \"contracts/proposalsAndRequests.sol\":13945:13996  buyerRequests[proposalId][buyerRequestIndex].amount */\n      0x02\n      add\n      sload\n        /* \"contracts/proposalsAndRequests.sol\":13928:13996  uint256 amount = buyerRequests[proposalId][buyerRequestIndex].amount */\n      swap1\n      pop\n        /* \"contracts/proposalsAndRequests.sol\":14040:14087  proposals[proposalId].escrowBalance.sub(amount) */\n      tag_229\n        /* \"contracts/proposalsAndRequests.sol\":14080:14086  amount */\n      dup2\n        /* \"contracts/proposalsAndRequests.sol\":14040:14049  proposals */\n      0x03\n        /* \"contracts/proposalsAndRequests.sol\":14040:14061  proposals[proposalId] */\n      0x00\n        /* \"contracts/proposalsAndRequests.sol\":14050:14060  proposalId */\n      dup7\n        /* \"contracts/proposalsAndRequests.sol\":14040:14061  proposals[proposalId] */\n      dup2\n      mstore\n      0x20\n      add\n      swap1\n      dup2\n      mstore\n      0x20\n      add\n      0x00\n      keccak256\n        /* \"contracts/proposalsAndRequests.sol\":14040:14075  proposals[proposalId].escrowBalance */\n      0x01\n      add\n      sload\n        /* \"contracts/proposalsAndRequests.sol\":14040:14079  proposals[proposalId].escrowBalance.sub */\n      tag_214\n      swap1\n        /* \"contracts/proposalsAndRequests.sol\":14040:14087  proposals[proposalId].escrowBalance.sub(amount) */\n      swap2\n      swap1\n      0xffffffff\n      and\n      jump\t// in\n    tag_229:\n        /* \"contracts/proposalsAndRequests.sol\":14002:14011  proposals */\n      0x03\n        /* \"contracts/proposalsAndRequests.sol\":14002:14023  proposals[proposalId] */\n      0x00\n        /* \"contracts/proposalsAndRequests.sol\":14012:14022  proposalId */\n      dup6\n        /* \"contracts/proposalsAndRequests.sol\":14002:14023  proposals[proposalId] */\n      dup2\n      mstore\n      0x20\n      add\n      swap1\n      dup2\n      mstore\n      0x20\n      add\n      0x00\n      keccak256\n        /* \"contracts/proposalsAndRequests.sol\":14002:14037  proposals[proposalId].escrowBalance */\n      0x01\n      add\n        /* \"contracts/proposalsAndRequests.sol\":14002:14087  proposals[proposalId].escrowBalance = proposals[proposalId].escrowBalance.sub(amount) */\n      dup2\n      swap1\n      sstore\n      pop\n        /* \"contracts/proposalsAndRequests.sol\":14125:14131  amount */\n      dup1\n        /* \"contracts/proposalsAndRequests.sol\":14093:14102  proposals */\n      0x03\n        /* \"contracts/proposalsAndRequests.sol\":14093:14114  proposals[proposalId] */\n      0x00\n        /* \"contracts/proposalsAndRequests.sol\":14103:14113  proposalId */\n      dup6\n        /* \"contracts/proposalsAndRequests.sol\":14093:14114  proposals[proposalId] */\n      dup2\n      mstore\n      0x20\n      add\n      swap1\n      dup2\n      mstore\n      0x20\n      add\n      0x00\n      keccak256\n        /* \"contracts/proposalsAndRequests.sol\":14093:14121  proposals[proposalId].amount */\n      0x00\n      add\n      0x00\n        /* \"contracts/proposalsAndRequests.sol\":14093:14131  proposals[proposalId].amount += amount */\n      dup3\n      dup3\n      sload\n      tag_230\n      swap2\n      swap1\n      tag_231\n      jump\t// in\n    tag_230:\n      swap3\n      pop\n      pop\n      dup2\n      swap1\n      sstore\n      pop\n        /* \"contracts/proposalsAndRequests.sol\":14176:14193  buyerRequestIndex */\n      dup2\n        /* \"contracts/proposalsAndRequests.sol\":14164:14174  proposalId */\n      dup4\n        /* \"contracts/proposalsAndRequests.sol\":14142:14194  transactionCancelled (proposalId, buyerRequestIndex) */\n      0x0e82efb8f71a93343b776a7f5af67a694c1d19c6004a7ad1dd4521b475d0f778\n      mload(0x40)\n      mload(0x40)\n      dup1\n      swap2\n      sub\n      swap1\n      log3\n        /* \"contracts/proposalsAndRequests.sol\":13628:14201  {... */\n      pop\n        /* \"contracts/proposalsAndRequests.sol\":13526:14201  function processCancellation (uint256 proposalId, uint256 buyerRequestIndex) public  onlyMainContract {... */\n      pop\n      pop\n      jump\t// out\n        /* \"contracts/proposalsAndRequests.sol\":1614:1668  mapping(uint256 => uint256) public buyerRequestsLength */\n    tag_70:\n      mstore(0x20, 0x0b)\n      dup1\n      0x00\n      mstore\n      keccak256(0x00, 0x40)\n      0x00\n      swap2\n      pop\n      swap1\n      pop\n      sload\n      dup2\n      jump\t// out\n        /* \"contracts/proposalsAndRequests.sol\":10575:10871  function confirmFiatPayment(uint256 proposalId, uint256 buyerRequestIndex)... */\n    tag_75:\n        /* \"contracts/proposalsAndRequests.sol\":10692:10702  proposalId */\n      dup2\n        /* \"contracts/proposalsAndRequests.sol\":1831:1840  proposals */\n      0x03\n        /* \"contracts/proposalsAndRequests.sol\":1831:1852  proposals[proposalId] */\n      0x00\n        /* \"contracts/proposalsAndRequests.sol\":1841:1851  proposalId */\n      dup3\n        /* \"contracts/proposalsAndRequests.sol\":1831:1852  proposals[proposalId] */\n      dup2\n      mstore\n      0x20\n      add\n      swap1\n      dup2\n      mstore\n      0x20\n      add\n      0x00\n      keccak256\n        /* \"contracts/proposalsAndRequests.sol\":1831:1859  proposals[proposalId].active */\n      0x08\n      add\n      0x00\n      swap1\n      sload\n      swap1\n      0x0100\n      exp\n      swap1\n      div\n      0xff\n      and\n        /* \"contracts/proposalsAndRequests.sol\":1823:1886  require(proposals[proposalId].active, \"Proposal is not active\") */\n      tag_233\n      jumpi\n      mload(0x40)\n      0x08c379a000000000000000000000000000000000000000000000000000000000\n      dup2\n      mstore\n      0x04\n      add\n      tag_234\n      swap1\n      tag_208\n      jump\t// in\n    tag_234:\n      mload(0x40)\n      dup1\n      swap2\n      sub\n      swap1\n      revert\n    tag_233:\n        /* \"contracts/proposalsAndRequests.sol\":1962:1974  mainContract */\n      0x01\n      0x00\n      swap1\n      sload\n      swap1\n      0x0100\n      exp\n      swap1\n      div\n      0xffffffffffffffffffffffffffffffffffffffff\n      and\n        /* \"contracts/proposalsAndRequests.sol\":1948:1974  msg.sender == mainContract */\n      0xffffffffffffffffffffffffffffffffffffffff\n      and\n        /* \"contracts/proposalsAndRequests.sol\":1948:1958  msg.sender */\n      caller\n        /* \"contracts/proposalsAndRequests.sol\":1948:1974  msg.sender == mainContract */\n      0xffffffffffffffffffffffffffffffffffffffff\n      and\n      eq\n        /* \"contracts/proposalsAndRequests.sol\":1940:2010  require(msg.sender == mainContract, \"Caller is not the main contract\") */\n      tag_236\n      jumpi\n      mload(0x40)\n      0x08c379a000000000000000000000000000000000000000000000000000000000\n      dup2\n      mstore\n      0x04\n      add\n      tag_237\n      swap1\n      tag_201\n      jump\t// in\n    tag_237:\n      mload(0x40)\n      dup1\n      swap2\n      sub\n      swap1\n      revert\n    tag_236:\n        /* \"contracts/proposalsAndRequests.sol\":10859:10863  true */\n      0x01\n        /* \"contracts/proposalsAndRequests.sol\":10796:10809  buyerRequests */\n      0x09\n        /* \"contracts/proposalsAndRequests.sol\":10796:10821  buyerRequests[proposalId] */\n      0x00\n        /* \"contracts/proposalsAndRequests.sol\":10810:10820  proposalId */\n      dup6\n        /* \"contracts/proposalsAndRequests.sol\":10796:10821  buyerRequests[proposalId] */\n      dup2\n      mstore\n      0x20\n      add\n      swap1\n      dup2\n      mstore\n      0x20\n      add\n      0x00\n      keccak256\n        /* \"contracts/proposalsAndRequests.sol\":10796:10840  buyerRequests[proposalId][buyerRequestIndex] */\n      0x00\n        /* \"contracts/proposalsAndRequests.sol\":10822:10839  buyerRequestIndex */\n      dup5\n        /* \"contracts/proposalsAndRequests.sol\":10796:10840  buyerRequests[proposalId][buyerRequestIndex] */\n      dup2\n      mstore\n      0x20\n      add\n      swap1\n      dup2\n      mstore\n      0x20\n      add\n      0x00\n      keccak256\n        /* \"contracts/proposalsAndRequests.sol\":10796:10856  buyerRequests[proposalId][buyerRequestIndex].paymentDeclared */\n      0x04\n      add\n      0x15\n        /* \"contracts/proposalsAndRequests.sol\":10796:10863  buyerRequests[proposalId][buyerRequestIndex].paymentDeclared = true */\n      0x0100\n      exp\n      dup2\n      sload\n      dup2\n      0xff\n      mul\n      not\n      and\n      swap1\n      dup4\n      iszero\n      iszero\n      mul\n      or\n      swap1\n      sstore\n      pop\n        /* \"contracts/proposalsAndRequests.sol\":10575:10871  function confirmFiatPayment(uint256 proposalId, uint256 buyerRequestIndex)... */\n      pop\n      pop\n      pop\n      jump\t// out\n        /* \"contracts/proposalsAndRequests.sol\":2026:2157  function setMainContract (address _mainContract)... */\n    tag_78:\n        /* \"@openzeppelin/contracts/access/Ownable.sol\":1094:1107  _checkOwner() */\n      tag_240\n        /* \"@openzeppelin/contracts/access/Ownable.sol\":1094:1105  _checkOwner */\n      tag_219\n        /* \"@openzeppelin/contracts/access/Ownable.sol\":1094:1107  _checkOwner() */\n      jump\t// in\n    tag_240:\n        /* \"contracts/proposalsAndRequests.sol\":2137:2150  _mainContract */\n      dup1\n        /* \"contracts/proposalsAndRequests.sol\":2122:2134  mainContract */\n      0x01\n      0x00\n        /* \"contracts/proposalsAndRequests.sol\":2122:2150  mainContract = _mainContract */\n      0x0100\n      exp\n      dup2\n      sload\n      dup2\n      0xffffffffffffffffffffffffffffffffffffffff\n      mul\n      not\n      and\n      swap1\n      dup4\n      0xffffffffffffffffffffffffffffffffffffffff\n      and\n      mul\n      or\n      swap1\n      sstore\n      pop\n        /* \"contracts/proposalsAndRequests.sol\":2026:2157  function setMainContract (address _mainContract)... */\n      pop\n      jump\t// out\n        /* \"contracts/proposalsAndRequests.sol\":7744:8613  function getActiveRequestsByBuyer(address buyer) public view returns (BuyerRequest[] memory) {... */\n    tag_81:\n        /* \"contracts/proposalsAndRequests.sol\":7814:7835  BuyerRequest[] memory */\n      0x60\n        /* \"contracts/proposalsAndRequests.sol\":7843:7880  RequestIndex[] storage requestIndices */\n      0x00\n        /* \"contracts/proposalsAndRequests.sol\":7883:7909  buyerRequestIndicesByBuyer */\n      0x0a\n        /* \"contracts/proposalsAndRequests.sol\":7883:7916  buyerRequestIndicesByBuyer[buyer] */\n      0x00\n        /* \"contracts/proposalsAndRequests.sol\":7910:7915  buyer */\n      dup5\n        /* \"contracts/proposalsAndRequests.sol\":7883:7916  buyerRequestIndicesByBuyer[buyer] */\n      0xffffffffffffffffffffffffffffffffffffffff\n      and\n      0xffffffffffffffffffffffffffffffffffffffff\n      and\n      dup2\n      mstore\n      0x20\n      add\n      swap1\n      dup2\n      mstore\n      0x20\n      add\n      0x00\n      keccak256\n        /* \"contracts/proposalsAndRequests.sol\":7843:7916  RequestIndex[] storage requestIndices = buyerRequestIndicesByBuyer[buyer] */\n      swap1\n      pop\n        /* \"contracts/proposalsAndRequests.sol\":7922:7958  BuyerRequest[] memory activeRequests */\n      0x00\n        /* \"contracts/proposalsAndRequests.sol\":7980:7994  requestIndices */\n      dup2\n        /* \"contracts/proposalsAndRequests.sol\":7980:8001  requestIndices.length */\n      dup1\n      sload\n      swap1\n      pop\n        /* \"contracts/proposalsAndRequests.sol\":7961:8002  new BuyerRequest[](requestIndices.length) */\n      0xffffffffffffffff\n      dup2\n      gt\n      iszero\n      tag_243\n      jumpi\n      tag_244\n      tag_245\n      jump\t// in\n    tag_244:\n    tag_243:\n      mload(0x40)\n      swap1\n      dup1\n      dup3\n      mstore\n      dup1\n      0x20\n      mul\n      0x20\n      add\n      dup3\n      add\n      0x40\n      mstore\n      dup1\n      iszero\n      tag_246\n      jumpi\n      dup2\n      0x20\n      add\n    tag_247:\n      tag_248\n      tag_249\n      jump\t// in\n    tag_248:\n      dup2\n      mstore\n      0x20\n      add\n      swap1\n      0x01\n      swap1\n      sub\n      swap1\n      dup2\n      tag_247\n      jumpi\n      swap1\n      pop\n    tag_246:\n      pop\n        /* \"contracts/proposalsAndRequests.sol\":7922:8002  BuyerRequest[] memory activeRequests = new BuyerRequest[](requestIndices.length) */\n      swap1\n      pop\n        /* \"contracts/proposalsAndRequests.sol\":8009:8024  uint256 counter */\n      0x00\n        /* \"contracts/proposalsAndRequests.sol\":8039:8048  uint256 i */\n      dup1\n        /* \"contracts/proposalsAndRequests.sol\":8034:8324  for (uint256 i = 0; i < requestIndices.length; i++) {... */\n    tag_250:\n        /* \"contracts/proposalsAndRequests.sol\":8058:8072  requestIndices */\n      dup4\n        /* \"contracts/proposalsAndRequests.sol\":8058:8079  requestIndices.length */\n      dup1\n      sload\n      swap1\n      pop\n        /* \"contracts/proposalsAndRequests.sol\":8054:8055  i */\n      dup2\n        /* \"contracts/proposalsAndRequests.sol\":8054:8079  i < requestIndices.length */\n      lt\n        /* \"contracts/proposalsAndRequests.sol\":8034:8324  for (uint256 i = 0; i < requestIndices.length; i++) {... */\n      iszero\n      tag_251\n      jumpi\n        /* \"contracts/proposalsAndRequests.sol\":8096:8124  BuyerRequest storage request */\n      0x00\n        /* \"contracts/proposalsAndRequests.sol\":8127:8140  buyerRequests */\n      0x09\n        /* \"contracts/proposalsAndRequests.sol\":8127:8170  buyerRequests[requestIndices[i].proposalId] */\n      0x00\n        /* \"contracts/proposalsAndRequests.sol\":8141:8155  requestIndices */\n      dup7\n        /* \"contracts/proposalsAndRequests.sol\":8156:8157  i */\n      dup5\n        /* \"contracts/proposalsAndRequests.sol\":8141:8158  requestIndices[i] */\n      dup2\n      sload\n      dup2\n      lt\n      tag_253\n      jumpi\n      tag_254\n      tag_255\n      jump\t// in\n    tag_254:\n    tag_253:\n      swap1\n      0x00\n      mstore\n      keccak256(0x00, 0x20)\n      swap1\n      0x02\n      mul\n      add\n        /* \"contracts/proposalsAndRequests.sol\":8141:8169  requestIndices[i].proposalId */\n      0x00\n      add\n      sload\n        /* \"contracts/proposalsAndRequests.sol\":8127:8170  buyerRequests[requestIndices[i].proposalId] */\n      dup2\n      mstore\n      0x20\n      add\n      swap1\n      dup2\n      mstore\n      0x20\n      add\n      0x00\n      keccak256\n        /* \"contracts/proposalsAndRequests.sol\":8127:8207  buyerRequests[requestIndices[i].proposalId][requestIndices[i].buyerRequestIndex] */\n      0x00\n        /* \"contracts/proposalsAndRequests.sol\":8171:8185  requestIndices */\n      dup7\n        /* \"contracts/proposalsAndRequests.sol\":8186:8187  i */\n      dup5\n        /* \"contracts/proposalsAndRequests.sol\":8171:8188  requestIndices[i] */\n      dup2\n      sload\n      dup2\n      lt\n      tag_257\n      jumpi\n      tag_258\n      tag_255\n      jump\t// in\n    tag_258:\n    tag_257:\n      swap1\n      0x00\n      mstore\n      keccak256(0x00, 0x20)\n      swap1\n      0x02\n      mul\n      add\n        /* \"contracts/proposalsAndRequests.sol\":8171:8206  requestIndices[i].buyerRequestIndex */\n      0x01\n      add\n      sload\n        /* \"contracts/proposalsAndRequests.sol\":8127:8207  buyerRequests[requestIndices[i].proposalId][requestIndices[i].buyerRequestIndex] */\n      dup2\n      mstore\n      0x20\n      add\n      swap1\n      dup2\n      mstore\n      0x20\n      add\n      0x00\n      keccak256\n        /* \"contracts/proposalsAndRequests.sol\":8096:8207  BuyerRequest storage request = buyerRequests[requestIndices[i].proposalId][requestIndices[i].buyerRequestIndex] */\n      swap1\n      pop\n        /* \"contracts/proposalsAndRequests.sol\":8221:8228  request */\n      dup1\n        /* \"contracts/proposalsAndRequests.sol\":8221:8235  request.active */\n      0x04\n      add\n      0x1a\n      swap1\n      sload\n      swap1\n      0x0100\n      exp\n      swap1\n      div\n      0xff\n      and\n        /* \"contracts/proposalsAndRequests.sol\":8217:8318  if (request.active) {... */\n      iszero\n      tag_260\n      jumpi\n        /* \"contracts/proposalsAndRequests.sol\":8277:8284  request */\n      dup1\n        /* \"contracts/proposalsAndRequests.sol\":8251:8284  activeRequests[counter] = request */\n      mload(0x40)\n      dup1\n      0x0180\n      add\n      0x40\n      mstore\n      swap1\n      dup2\n      0x00\n      dup3\n      add\n      sload\n      dup2\n      mstore\n      0x20\n      add\n      0x01\n      dup3\n      add\n      sload\n      dup2\n      mstore\n      0x20\n      add\n      0x02\n      dup3\n      add\n      sload\n      dup2\n      mstore\n      0x20\n      add\n      0x03\n      dup3\n      add\n      sload\n      dup2\n      mstore\n      0x20\n      add\n      0x04\n      dup3\n      add\n      0x00\n      swap1\n      sload\n      swap1\n      0x0100\n      exp\n      swap1\n      div\n      0xffffffffffffffffffffffffffffffffffffffff\n      and\n      0xffffffffffffffffffffffffffffffffffffffff\n      and\n      0xffffffffffffffffffffffffffffffffffffffff\n      and\n      dup2\n      mstore\n      0x20\n      add\n      0x04\n      dup3\n      add\n      0x14\n      swap1\n      sload\n      swap1\n      0x0100\n      exp\n      swap1\n      div\n      0xff\n      and\n      iszero\n      iszero\n      iszero\n      iszero\n      dup2\n      mstore\n      0x20\n      add\n      0x04\n      dup3\n      add\n      0x15\n      swap1\n      sload\n      swap1\n      0x0100\n      exp\n      swap1\n      div\n      0xff\n      and\n      iszero\n      iszero\n      iszero\n      iszero\n      dup2\n      mstore\n      0x20\n      add\n      0x04\n      dup3\n      add\n      0x16\n      swap1\n      sload\n      swap1\n      0x0100\n      exp\n      swap1\n      div\n      0xff\n      and\n      iszero\n      iszero\n      iszero\n      iszero\n      dup2\n      mstore\n      0x20\n      add\n      0x04\n      dup3\n      add\n      0x17\n      swap1\n      sload\n      swap1\n      0x0100\n      exp\n      swap1\n      div\n      0xff\n      and\n      iszero\n      iszero\n      iszero\n      iszero\n      dup2\n      mstore\n      0x20\n      add\n      0x04\n      dup3\n      add\n      0x18\n      swap1\n      sload\n      swap1\n      0x0100\n      exp\n      swap1\n      div\n      0xff\n      and\n      iszero\n      iszero\n      iszero\n      iszero\n      dup2\n      mstore\n      0x20\n      add\n      0x04\n      dup3\n      add\n      0x19\n      swap1\n      sload\n      swap1\n      0x0100\n      exp\n      swap1\n      div\n      0xff\n      and\n      iszero\n      iszero\n      iszero\n      iszero\n      dup2\n      mstore\n      0x20\n      add\n      0x04\n      dup3\n      add\n      0x1a\n      swap1\n      sload\n      swap1\n      0x0100\n      exp\n      swap1\n      div\n      0xff\n      and\n      iszero\n      iszero\n      iszero\n      iszero\n      dup2\n      mstore\n      pop\n      pop\n        /* \"contracts/proposalsAndRequests.sol\":8251:8265  activeRequests */\n      dup5\n        /* \"contracts/proposalsAndRequests.sol\":8266:8273  counter */\n      dup5\n        /* \"contracts/proposalsAndRequests.sol\":8251:8274  activeRequests[counter] */\n      dup2\n      mload\n      dup2\n      lt\n      tag_261\n      jumpi\n      tag_262\n      tag_255\n      jump\t// in\n    tag_262:\n    tag_261:\n      0x20\n      mul\n      0x20\n      add\n      add\n        /* \"contracts/proposalsAndRequests.sol\":8251:8284  activeRequests[counter] = request */\n      dup2\n      swap1\n      mstore\n      pop\n        /* \"contracts/proposalsAndRequests.sol\":8298:8307  counter++ */\n      dup3\n      dup1\n      tag_263\n      swap1\n      tag_264\n      jump\t// in\n    tag_263:\n      swap4\n      pop\n      pop\n        /* \"contracts/proposalsAndRequests.sol\":8217:8318  if (request.active) {... */\n    tag_260:\n        /* \"contracts/proposalsAndRequests.sol\":8086:8324  {... */\n      pop\n        /* \"contracts/proposalsAndRequests.sol\":8081:8084  i++ */\n      dup1\n      dup1\n      tag_265\n      swap1\n      tag_264\n      jump\t// in\n    tag_265:\n      swap2\n      pop\n      pop\n        /* \"contracts/proposalsAndRequests.sol\":8034:8324  for (uint256 i = 0; i < requestIndices.length; i++) {... */\n      jump(tag_250)\n    tag_251:\n      pop\n        /* \"contracts/proposalsAndRequests.sol\":8398:8441  BuyerRequest[] memory reducedActiveRequests */\n      0x00\n        /* \"contracts/proposalsAndRequests.sol\":8463:8470  counter */\n      dup2\n        /* \"contracts/proposalsAndRequests.sol\":8444:8471  new BuyerRequest[](counter) */\n      0xffffffffffffffff\n      dup2\n      gt\n      iszero\n      tag_266\n      jumpi\n      tag_267\n      tag_245\n      jump\t// in\n    tag_267:\n    tag_266:\n      mload(0x40)\n      swap1\n      dup1\n      dup3\n      mstore\n      dup1\n      0x20\n      mul\n      0x20\n      add\n      dup3\n      add\n      0x40\n      mstore\n      dup1\n      iszero\n      tag_268\n      jumpi\n      dup2\n      0x20\n      add\n    tag_269:\n      tag_270\n      tag_249\n      jump\t// in\n    tag_270:\n      dup2\n      mstore\n      0x20\n      add\n      swap1\n      0x01\n      swap1\n      sub\n      swap1\n      dup2\n      tag_269\n      jumpi\n      swap1\n      pop\n    tag_268:\n      pop\n        /* \"contracts/proposalsAndRequests.sol\":8398:8471  BuyerRequest[] memory reducedActiveRequests = new BuyerRequest[](counter) */\n      swap1\n      pop\n        /* \"contracts/proposalsAndRequests.sol\":8482:8491  uint256 i */\n      0x00\n        /* \"contracts/proposalsAndRequests.sol\":8477:8576  for (uint256 i = 0; i < counter; i++) {... */\n    tag_271:\n        /* \"contracts/proposalsAndRequests.sol\":8501:8508  counter */\n      dup3\n        /* \"contracts/proposalsAndRequests.sol\":8497:8498  i */\n      dup2\n        /* \"contracts/proposalsAndRequests.sol\":8497:8508  i < counter */\n      lt\n        /* \"contracts/proposalsAndRequests.sol\":8477:8576  for (uint256 i = 0; i < counter; i++) {... */\n      iszero\n      tag_272\n      jumpi\n        /* \"contracts/proposalsAndRequests.sol\":8552:8566  activeRequests */\n      dup4\n        /* \"contracts/proposalsAndRequests.sol\":8567:8568  i */\n      dup2\n        /* \"contracts/proposalsAndRequests.sol\":8552:8569  activeRequests[i] */\n      dup2\n      mload\n      dup2\n      lt\n      tag_274\n      jumpi\n      tag_275\n      tag_255\n      jump\t// in\n    tag_275:\n    tag_274:\n      0x20\n      mul\n      0x20\n      add\n      add\n      mload\n        /* \"contracts/proposalsAndRequests.sol\":8525:8546  reducedActiveRequests */\n      dup3\n        /* \"contracts/proposalsAndRequests.sol\":8547:8548  i */\n      dup3\n        /* \"contracts/proposalsAndRequests.sol\":8525:8549  reducedActiveRequests[i] */\n      dup2\n      mload\n      dup2\n      lt\n      tag_276\n      jumpi\n      tag_277\n      tag_255\n      jump\t// in\n    tag_277:\n    tag_276:\n      0x20\n      mul\n      0x20\n      add\n      add\n        /* \"contracts/proposalsAndRequests.sol\":8525:8569  reducedActiveRequests[i] = activeRequests[i] */\n      dup2\n      swap1\n      mstore\n      pop\n        /* \"contracts/proposalsAndRequests.sol\":8510:8513  i++ */\n      dup1\n      dup1\n      tag_278\n      swap1\n      tag_264\n      jump\t// in\n    tag_278:\n      swap2\n      pop\n      pop\n        /* \"contracts/proposalsAndRequests.sol\":8477:8576  for (uint256 i = 0; i < counter; i++) {... */\n      jump(tag_271)\n    tag_272:\n      pop\n        /* \"contracts/proposalsAndRequests.sol\":8589:8610  reducedActiveRequests */\n      dup1\n        /* \"contracts/proposalsAndRequests.sol\":8582:8610  return reducedActiveRequests */\n      swap5\n      pop\n      pop\n      pop\n      pop\n      pop\n        /* \"contracts/proposalsAndRequests.sol\":7744:8613  function getActiveRequestsByBuyer(address buyer) public view returns (BuyerRequest[] memory) {... */\n      swap2\n      swap1\n      pop\n      jump\t// out\n        /* \"contracts/proposalsAndRequests.sol\":928:962  uint256[] public activeProposalIds */\n    tag_86:\n      0x07\n      dup2\n      dup2\n      sload\n      dup2\n      lt\n      tag_279\n      jumpi\n      0x00\n      dup1\n      revert\n    tag_279:\n      swap1\n      0x00\n      mstore\n      keccak256(0x00, 0x20)\n      add\n      0x00\n      swap2\n      pop\n      swap1\n      pop\n      sload\n      dup2\n      jump\t// out\n        /* \"contracts/proposalsAndRequests.sol\":7555:7695  function getRequestCountByProposal(uint256 proposalId) public view returns (uint256) {... */\n    tag_90:\n        /* \"contracts/proposalsAndRequests.sol\":7631:7638  uint256 */\n      0x00\n        /* \"contracts/proposalsAndRequests.sol\":7657:7676  buyerRequestsLength */\n      0x0b\n        /* \"contracts/proposalsAndRequests.sol\":7657:7688  buyerRequestsLength[proposalId] */\n      0x00\n        /* \"contracts/proposalsAndRequests.sol\":7677:7687  proposalId */\n      dup4\n        /* \"contracts/proposalsAndRequests.sol\":7657:7688  buyerRequestsLength[proposalId] */\n      dup2\n      mstore\n      0x20\n      add\n      swap1\n      dup2\n      mstore\n      0x20\n      add\n      0x00\n      keccak256\n      sload\n        /* \"contracts/proposalsAndRequests.sol\":7650:7688  return buyerRequestsLength[proposalId] */\n      swap1\n      pop\n        /* \"contracts/proposalsAndRequests.sol\":7555:7695  function getRequestCountByProposal(uint256 proposalId) public view returns (uint256) {... */\n      swap2\n      swap1\n      pop\n      jump\t// out\n        /* \"contracts/proposalsAndRequests.sol\":12287:12493  function recordDisputeCreation (uint256 proposalId, uint256 buyerRequestIndex)... */\n    tag_94:\n        /* \"contracts/proposalsAndRequests.sol\":1962:1974  mainContract */\n      0x01\n      0x00\n      swap1\n      sload\n      swap1\n      0x0100\n      exp\n      swap1\n      div\n      0xffffffffffffffffffffffffffffffffffffffff\n      and\n        /* \"contracts/proposalsAndRequests.sol\":1948:1974  msg.sender == mainContract */\n      0xffffffffffffffffffffffffffffffffffffffff\n      and\n        /* \"contracts/proposalsAndRequests.sol\":1948:1958  msg.sender */\n      caller\n        /* \"contracts/proposalsAndRequests.sol\":1948:1974  msg.sender == mainContract */\n      0xffffffffffffffffffffffffffffffffffffffff\n      and\n      eq\n        /* \"contracts/proposalsAndRequests.sol\":1940:2010  require(msg.sender == mainContract, \"Caller is not the main contract\") */\n      tag_283\n      jumpi\n      mload(0x40)\n      0x08c379a000000000000000000000000000000000000000000000000000000000\n      dup2\n      mstore\n      0x04\n      add\n      tag_284\n      swap1\n      tag_201\n      jump\t// in\n    tag_284:\n      mload(0x40)\n      dup1\n      swap2\n      sub\n      swap1\n      revert\n    tag_283:\n        /* \"contracts/proposalsAndRequests.sol\":12482:12486  true */\n      0x01\n        /* \"contracts/proposalsAndRequests.sol\":12420:12433  buyerRequests */\n      0x09\n        /* \"contracts/proposalsAndRequests.sol\":12420:12445  buyerRequests[proposalId] */\n      0x00\n        /* \"contracts/proposalsAndRequests.sol\":12434:12444  proposalId */\n      dup5\n        /* \"contracts/proposalsAndRequests.sol\":12420:12445  buyerRequests[proposalId] */\n      dup2\n      mstore\n      0x20\n      add\n      swap1\n      dup2\n      mstore\n      0x20\n      add\n      0x00\n      keccak256\n        /* \"contracts/proposalsAndRequests.sol\":12420:12464  buyerRequests[proposalId][buyerRequestIndex] */\n      0x00\n        /* \"contracts/proposalsAndRequests.sol\":12446:12463  buyerRequestIndex */\n      dup4\n        /* \"contracts/proposalsAndRequests.sol\":12420:12464  buyerRequests[proposalId][buyerRequestIndex] */\n      dup2\n      mstore\n      0x20\n      add\n      swap1\n      dup2\n      mstore\n      0x20\n      add\n      0x00\n      keccak256\n        /* \"contracts/proposalsAndRequests.sol\":12420:12479  buyerRequests[proposalId][buyerRequestIndex].disputeCreated */\n      0x04\n      add\n      0x19\n        /* \"contracts/proposalsAndRequests.sol\":12420:12486  buyerRequests[proposalId][buyerRequestIndex].disputeCreated = true */\n      0x0100\n      exp\n      dup2\n      sload\n      dup2\n      0xff\n      mul\n      not\n      and\n      swap1\n      dup4\n      iszero\n      iszero\n      mul\n      or\n      swap1\n      sstore\n      pop\n        /* \"contracts/proposalsAndRequests.sol\":12287:12493  function recordDisputeCreation (uint256 proposalId, uint256 buyerRequestIndex)... */\n      pop\n      pop\n      jump\t// out\n        /* \"contracts/proposalsAndRequests.sol\":1544:1612  mapping(address => RequestIndex[]) public buyerRequestIndicesByBuyer */\n    tag_98:\n      mstore(0x20, 0x0a)\n      dup2\n      0x00\n      mstore\n      keccak256(0x00, 0x40)\n      dup2\n      dup2\n      sload\n      dup2\n      lt\n      tag_286\n      jumpi\n      0x00\n      dup1\n      revert\n    tag_286:\n      swap1\n      0x00\n      mstore\n      keccak256(0x00, 0x20)\n      swap1\n      0x02\n      mul\n      add\n      0x00\n      swap2\n      pop\n      swap2\n      pop\n      pop\n      dup1\n      0x00\n      add\n      sload\n      swap1\n      dup1\n      0x01\n      add\n      sload\n      swap1\n      pop\n      dup3\n      jump\t// out\n        /* \"contracts/proposalsAndRequests.sol\":12495:13167  function recordEscrowReleaseAfterDispute (uint256 proposalId, uint256 buyerRequestIndex, uint256 amount) external onlyMainContract {... */\n    tag_103:\n        /* \"contracts/proposalsAndRequests.sol\":1962:1974  mainContract */\n      0x01\n      0x00\n      swap1\n      sload\n      swap1\n      0x0100\n      exp\n      swap1\n      div\n      0xffffffffffffffffffffffffffffffffffffffff\n      and\n        /* \"contracts/proposalsAndRequests.sol\":1948:1974  msg.sender == mainContract */\n      0xffffffffffffffffffffffffffffffffffffffff\n      and\n        /* \"contracts/proposalsAndRequests.sol\":1948:1958  msg.sender */\n      caller\n        /* \"contracts/proposalsAndRequests.sol\":1948:1974  msg.sender == mainContract */\n      0xffffffffffffffffffffffffffffffffffffffff\n      and\n      eq\n        /* \"contracts/proposalsAndRequests.sol\":1940:2010  require(msg.sender == mainContract, \"Caller is not the main contract\") */\n      tag_289\n      jumpi\n      mload(0x40)\n      0x08c379a000000000000000000000000000000000000000000000000000000000\n      dup2\n      mstore\n      0x04\n      add\n      tag_290\n      swap1\n      tag_201\n      jump\t// in\n    tag_290:\n      mload(0x40)\n      dup1\n      swap2\n      sub\n      swap1\n      revert\n    tag_289:\n        /* \"contracts/proposalsAndRequests.sol\":12716:12722  amount */\n      dup1\n        /* \"contracts/proposalsAndRequests.sol\":12632:12641  proposals */\n      0x03\n        /* \"contracts/proposalsAndRequests.sol\":12632:12698  proposals[buyerRequests[proposalId][buyerRequestIndex].proposalId] */\n      0x00\n        /* \"contracts/proposalsAndRequests.sol\":12642:12655  buyerRequests */\n      0x09\n        /* \"contracts/proposalsAndRequests.sol\":12642:12667  buyerRequests[proposalId] */\n      0x00\n        /* \"contracts/proposalsAndRequests.sol\":12656:12666  proposalId */\n      dup8\n        /* \"contracts/proposalsAndRequests.sol\":12642:12667  buyerRequests[proposalId] */\n      dup2\n      mstore\n      0x20\n      add\n      swap1\n      dup2\n      mstore\n      0x20\n      add\n      0x00\n      keccak256\n        /* \"contracts/proposalsAndRequests.sol\":12642:12686  buyerRequests[proposalId][buyerRequestIndex] */\n      0x00\n        /* \"contracts/proposalsAndRequests.sol\":12668:12685  buyerRequestIndex */\n      dup7\n        /* \"contracts/proposalsAndRequests.sol\":12642:12686  buyerRequests[proposalId][buyerRequestIndex] */\n      dup2\n      mstore\n      0x20\n      add\n      swap1\n      dup2\n      mstore\n      0x20\n      add\n      0x00\n      keccak256\n        /* \"contracts/proposalsAndRequests.sol\":12642:12697  buyerRequests[proposalId][buyerRequestIndex].proposalId */\n      0x01\n      add\n      sload\n        /* \"contracts/proposalsAndRequests.sol\":12632:12698  proposals[buyerRequests[proposalId][buyerRequestIndex].proposalId] */\n      dup2\n      mstore\n      0x20\n      add\n      swap1\n      dup2\n      mstore\n      0x20\n      add\n      0x00\n      keccak256\n        /* \"contracts/proposalsAndRequests.sol\":12632:12712  proposals[buyerRequests[proposalId][buyerRequestIndex].proposalId].escrowBalance */\n      0x01\n      add\n      0x00\n        /* \"contracts/proposalsAndRequests.sol\":12632:12722  proposals[buyerRequests[proposalId][buyerRequestIndex].proposalId].escrowBalance -= amount */\n      dup3\n      dup3\n      sload\n      tag_292\n      swap2\n      swap1\n      tag_293\n      jump\t// in\n    tag_292:\n      swap3\n      pop\n      pop\n      dup2\n      swap1\n      sstore\n      pop\n        /* \"contracts/proposalsAndRequests.sol\":12764:12765  0 */\n      0x00\n        /* \"contracts/proposalsAndRequests.sol\":12732:12741  proposals */\n      0x03\n        /* \"contracts/proposalsAndRequests.sol\":12732:12753  proposals[proposalId] */\n      0x00\n        /* \"contracts/proposalsAndRequests.sol\":12742:12752  proposalId */\n      dup6\n        /* \"contracts/proposalsAndRequests.sol\":12732:12753  proposals[proposalId] */\n      dup2\n      mstore\n      0x20\n      add\n      swap1\n      dup2\n      mstore\n      0x20\n      add\n      0x00\n      keccak256\n        /* \"contracts/proposalsAndRequests.sol\":12732:12760  proposals[proposalId].amount */\n      0x00\n      add\n      sload\n        /* \"contracts/proposalsAndRequests.sol\":12732:12765  proposals[proposalId].amount == 0 */\n      sub\n        /* \"contracts/proposalsAndRequests.sol\":12728:13100  if (proposals[proposalId].amount == 0) {... */\n      tag_294\n      jumpi\n        /* \"contracts/proposalsAndRequests.sol\":12808:12813  false */\n      0x00\n        /* \"contracts/proposalsAndRequests.sol\":12777:12786  proposals */\n      0x03\n        /* \"contracts/proposalsAndRequests.sol\":12777:12798  proposals[proposalId] */\n      0x00\n        /* \"contracts/proposalsAndRequests.sol\":12787:12797  proposalId */\n      dup6\n        /* \"contracts/proposalsAndRequests.sol\":12777:12798  proposals[proposalId] */\n      dup2\n      mstore\n      0x20\n      add\n      swap1\n      dup2\n      mstore\n      0x20\n      add\n      0x00\n      keccak256\n        /* \"contracts/proposalsAndRequests.sol\":12777:12805  proposals[proposalId].active */\n      0x08\n      add\n      0x00\n        /* \"contracts/proposalsAndRequests.sol\":12777:12813  proposals[proposalId].active = false */\n      0x0100\n      exp\n      dup2\n      sload\n      dup2\n      0xff\n      mul\n      not\n      and\n      swap1\n      dup4\n      iszero\n      iszero\n      mul\n      or\n      swap1\n      sstore\n      pop\n        /* \"contracts/proposalsAndRequests.sol\":12894:12918  uint256 indexToBeDeleted */\n      0x00\n        /* \"contracts/proposalsAndRequests.sol\":12929:12938  uint256 i */\n      dup1\n        /* \"contracts/proposalsAndRequests.sol\":12941:12942  0 */\n      0x00\n        /* \"contracts/proposalsAndRequests.sol\":12929:12942  uint256 i = 0 */\n      swap1\n      pop\n        /* \"contracts/proposalsAndRequests.sol\":12924:13094  for (uint256 i = 0; i < activeProposalCount; i++) {... */\n    tag_295:\n        /* \"contracts/proposalsAndRequests.sol\":12948:12967  activeProposalCount */\n      sload(0x08)\n        /* \"contracts/proposalsAndRequests.sol\":12944:12945  i */\n      dup2\n        /* \"contracts/proposalsAndRequests.sol\":12944:12967  i < activeProposalCount */\n      lt\n        /* \"contracts/proposalsAndRequests.sol\":12924:13094  for (uint256 i = 0; i < activeProposalCount; i++) {... */\n      iszero\n      tag_296\n      jumpi\n        /* \"contracts/proposalsAndRequests.sol\":13012:13022  proposalId */\n      dup5\n        /* \"contracts/proposalsAndRequests.sol\":12988:13005  activeProposalIds */\n      0x07\n        /* \"contracts/proposalsAndRequests.sol\":13006:13007  i */\n      dup3\n        /* \"contracts/proposalsAndRequests.sol\":12988:13008  activeProposalIds[i] */\n      dup2\n      sload\n      dup2\n      lt\n      tag_298\n      jumpi\n      tag_299\n      tag_255\n      jump\t// in\n    tag_299:\n    tag_298:\n      swap1\n      0x00\n      mstore\n      keccak256(0x00, 0x20)\n      add\n      sload\n        /* \"contracts/proposalsAndRequests.sol\":12988:13022  activeProposalIds[i] == proposalId */\n      sub\n        /* \"contracts/proposalsAndRequests.sol\":12984:13088  if (activeProposalIds[i] == proposalId) {... */\n      tag_301\n      jumpi\n        /* \"contracts/proposalsAndRequests.sol\":13057:13058  i */\n      dup1\n        /* \"contracts/proposalsAndRequests.sol\":13038:13058  indexToBeDeleted = i */\n      swap2\n      pop\n        /* \"contracts/proposalsAndRequests.sol\":13072:13077  break */\n      jump(tag_296)\n        /* \"contracts/proposalsAndRequests.sol\":12984:13088  if (activeProposalIds[i] == proposalId) {... */\n    tag_301:\n        /* \"contracts/proposalsAndRequests.sol\":12969:12972  i++ */\n      dup1\n      dup1\n      tag_302\n      swap1\n      tag_264\n      jump\t// in\n    tag_302:\n      swap2\n      pop\n      pop\n        /* \"contracts/proposalsAndRequests.sol\":12924:13094  for (uint256 i = 0; i < activeProposalCount; i++) {... */\n      jump(tag_295)\n    tag_296:\n      pop\n        /* \"contracts/proposalsAndRequests.sol\":12767:13100  {... */\n      pop\n        /* \"contracts/proposalsAndRequests.sol\":12728:13100  if (proposals[proposalId].amount == 0) {... */\n    tag_294:\n        /* \"contracts/proposalsAndRequests.sol\":13159:13164  false */\n      0x00\n        /* \"contracts/proposalsAndRequests.sol\":13105:13118  buyerRequests */\n      0x09\n        /* \"contracts/proposalsAndRequests.sol\":13105:13130  buyerRequests[proposalId] */\n      0x00\n        /* \"contracts/proposalsAndRequests.sol\":13119:13129  proposalId */\n      dup6\n        /* \"contracts/proposalsAndRequests.sol\":13105:13130  buyerRequests[proposalId] */\n      dup2\n      mstore\n      0x20\n      add\n      swap1\n      dup2\n      mstore\n      0x20\n      add\n      0x00\n      keccak256\n        /* \"contracts/proposalsAndRequests.sol\":13105:13149  buyerRequests[proposalId][buyerRequestIndex] */\n      0x00\n        /* \"contracts/proposalsAndRequests.sol\":13131:13148  buyerRequestIndex */\n      dup5\n        /* \"contracts/proposalsAndRequests.sol\":13105:13149  buyerRequests[proposalId][buyerRequestIndex] */\n      dup2\n      mstore\n      0x20\n      add\n      swap1\n      dup2\n      mstore\n      0x20\n      add\n      0x00\n      keccak256\n        /* \"contracts/proposalsAndRequests.sol\":13105:13156  buyerRequests[proposalId][buyerRequestIndex].active */\n      0x04\n      add\n      0x1a\n        /* \"contracts/proposalsAndRequests.sol\":13105:13164  buyerRequests[proposalId][buyerRequestIndex].active = false */\n      0x0100\n      exp\n      dup2\n      sload\n      dup2\n      0xff\n      mul\n      not\n      and\n      swap1\n      dup4\n      iszero\n      iszero\n      mul\n      or\n      swap1\n      sstore\n      pop\n        /* \"contracts/proposalsAndRequests.sol\":12495:13167  function recordEscrowReleaseAfterDispute (uint256 proposalId, uint256 buyerRequestIndex, uint256 amount) external onlyMainContract {... */\n      pop\n      pop\n      pop\n      jump\t// out\n        /* \"contracts/proposalsAndRequests.sol\":3660:4686  function deactivateProposal(uint256 proposalId) public onlyMainContract {... */\n    tag_106:\n        /* \"contracts/proposalsAndRequests.sol\":1962:1974  mainContract */\n      0x01\n      0x00\n      swap1\n      sload\n      swap1\n      0x0100\n      exp\n      swap1\n      div\n      0xffffffffffffffffffffffffffffffffffffffff\n      and\n        /* \"contracts/proposalsAndRequests.sol\":1948:1974  msg.sender == mainContract */\n      0xffffffffffffffffffffffffffffffffffffffff\n      and\n        /* \"contracts/proposalsAndRequests.sol\":1948:1958  msg.sender */\n      caller\n        /* \"contracts/proposalsAndRequests.sol\":1948:1974  msg.sender == mainContract */\n      0xffffffffffffffffffffffffffffffffffffffff\n      and\n      eq\n        /* \"contracts/proposalsAndRequests.sol\":1940:2010  require(msg.sender == mainContract, \"Caller is not the main contract\") */\n      tag_304\n      jumpi\n      mload(0x40)\n      0x08c379a000000000000000000000000000000000000000000000000000000000\n      dup2\n      mstore\n      0x04\n      add\n      tag_305\n      swap1\n      tag_201\n      jump\t// in\n    tag_305:\n      mload(0x40)\n      dup1\n      swap2\n      sub\n      swap1\n      revert\n    tag_304:\n        /* \"contracts/proposalsAndRequests.sol\":3738:3752  bool canDelete */\n      0x00\n        /* \"contracts/proposalsAndRequests.sol\":3755:3759  true */\n      0x01\n        /* \"contracts/proposalsAndRequests.sol\":3738:3759  bool canDelete = true */\n      swap1\n      pop\n        /* \"contracts/proposalsAndRequests.sol\":3770:3779  uint256 i */\n      0x00\n        /* \"contracts/proposalsAndRequests.sol\":3765:3986  for (uint256 i = 0; i < buyerRequestsLength[proposalId]; i++) {... */\n    tag_307:\n        /* \"contracts/proposalsAndRequests.sol\":3789:3808  buyerRequestsLength */\n      0x0b\n        /* \"contracts/proposalsAndRequests.sol\":3789:3820  buyerRequestsLength[proposalId] */\n      0x00\n        /* \"contracts/proposalsAndRequests.sol\":3809:3819  proposalId */\n      dup5\n        /* \"contracts/proposalsAndRequests.sol\":3789:3820  buyerRequestsLength[proposalId] */\n      dup2\n      mstore\n      0x20\n      add\n      swap1\n      dup2\n      mstore\n      0x20\n      add\n      0x00\n      keccak256\n      sload\n        /* \"contracts/proposalsAndRequests.sol\":3785:3786  i */\n      dup2\n        /* \"contracts/proposalsAndRequests.sol\":3785:3820  i < buyerRequestsLength[proposalId] */\n      lt\n        /* \"contracts/proposalsAndRequests.sol\":3765:3986  for (uint256 i = 0; i < buyerRequestsLength[proposalId]; i++) {... */\n      iszero\n      tag_308\n      jumpi\n        /* \"contracts/proposalsAndRequests.sol\":3841:3854  buyerRequests */\n      0x09\n        /* \"contracts/proposalsAndRequests.sol\":3841:3866  buyerRequests[proposalId] */\n      0x00\n        /* \"contracts/proposalsAndRequests.sol\":3855:3865  proposalId */\n      dup5\n        /* \"contracts/proposalsAndRequests.sol\":3841:3866  buyerRequests[proposalId] */\n      dup2\n      mstore\n      0x20\n      add\n      swap1\n      dup2\n      mstore\n      0x20\n      add\n      0x00\n      keccak256\n        /* \"contracts/proposalsAndRequests.sol\":3841:3869  buyerRequests[proposalId][i] */\n      0x00\n        /* \"contracts/proposalsAndRequests.sol\":3867:3868  i */\n      dup3\n        /* \"contracts/proposalsAndRequests.sol\":3841:3869  buyerRequests[proposalId][i] */\n      dup2\n      mstore\n      0x20\n      add\n      swap1\n      dup2\n      mstore\n      0x20\n      add\n      0x00\n      keccak256\n        /* \"contracts/proposalsAndRequests.sol\":3841:3878  buyerRequests[proposalId][i].accepted */\n      0x04\n      add\n      0x14\n      swap1\n      sload\n      swap1\n      0x0100\n      exp\n      swap1\n      div\n      0xff\n      and\n        /* \"contracts/proposalsAndRequests.sol\":3841:3917  buyerRequests[proposalId][i].accepted && buyerRequests[proposalId][i].active */\n      dup1\n      iszero\n      tag_310\n      jumpi\n      pop\n        /* \"contracts/proposalsAndRequests.sol\":3882:3895  buyerRequests */\n      0x09\n        /* \"contracts/proposalsAndRequests.sol\":3882:3907  buyerRequests[proposalId] */\n      0x00\n        /* \"contracts/proposalsAndRequests.sol\":3896:3906  proposalId */\n      dup5\n        /* \"contracts/proposalsAndRequests.sol\":3882:3907  buyerRequests[proposalId] */\n      dup2\n      mstore\n      0x20\n      add\n      swap1\n      dup2\n      mstore\n      0x20\n      add\n      0x00\n      keccak256\n        /* \"contracts/proposalsAndRequests.sol\":3882:3910  buyerRequests[proposalId][i] */\n      0x00\n        /* \"contracts/proposalsAndRequests.sol\":3908:3909  i */\n      dup3\n        /* \"contracts/proposalsAndRequests.sol\":3882:3910  buyerRequests[proposalId][i] */\n      dup2\n      mstore\n      0x20\n      add\n      swap1\n      dup2\n      mstore\n      0x20\n      add\n      0x00\n      keccak256\n        /* \"contracts/proposalsAndRequests.sol\":3882:3917  buyerRequests[proposalId][i].active */\n      0x04\n      add\n      0x1a\n      swap1\n      sload\n      swap1\n      0x0100\n      exp\n      swap1\n      div\n      0xff\n      and\n        /* \"contracts/proposalsAndRequests.sol\":3841:3917  buyerRequests[proposalId][i].accepted && buyerRequests[proposalId][i].active */\n    tag_310:\n        /* \"contracts/proposalsAndRequests.sol\":3837:3980  if (buyerRequests[proposalId][i].accepted && buyerRequests[proposalId][i].active) {... */\n      iszero\n      tag_311\n      jumpi\n        /* \"contracts/proposalsAndRequests.sol\":3945:3950  false */\n      0x00\n        /* \"contracts/proposalsAndRequests.sol\":3933:3950  canDelete = false */\n      swap2\n      pop\n        /* \"contracts/proposalsAndRequests.sol\":3964:3969  break */\n      jump(tag_308)\n        /* \"contracts/proposalsAndRequests.sol\":3837:3980  if (buyerRequests[proposalId][i].accepted && buyerRequests[proposalId][i].active) {... */\n    tag_311:\n        /* \"contracts/proposalsAndRequests.sol\":3822:3825  i++ */\n      dup1\n      dup1\n      tag_312\n      swap1\n      tag_264\n      jump\t// in\n    tag_312:\n      swap2\n      pop\n      pop\n        /* \"contracts/proposalsAndRequests.sol\":3765:3986  for (uint256 i = 0; i < buyerRequestsLength[proposalId]; i++) {... */\n      jump(tag_307)\n    tag_308:\n      pop\n        /* \"contracts/proposalsAndRequests.sol\":4000:4009  canDelete */\n      dup1\n        /* \"contracts/proposalsAndRequests.sol\":3992:4095  require(canDelete, \"Cannot delete proposal if a buyer request has been accepted and it's still active\") */\n      tag_313\n      jumpi\n      mload(0x40)\n      0x08c379a000000000000000000000000000000000000000000000000000000000\n      dup2\n      mstore\n      0x04\n      add\n      tag_314\n      swap1\n      tag_315\n      jump\t// in\n    tag_314:\n      mload(0x40)\n      dup1\n      swap2\n      sub\n      swap1\n      revert\n    tag_313:\n        /* \"contracts/proposalsAndRequests.sol\":4132:4137  false */\n      0x00\n        /* \"contracts/proposalsAndRequests.sol\":4101:4110  proposals */\n      0x03\n        /* \"contracts/proposalsAndRequests.sol\":4101:4122  proposals[proposalId] */\n      0x00\n        /* \"contracts/proposalsAndRequests.sol\":4111:4121  proposalId */\n      dup5\n        /* \"contracts/proposalsAndRequests.sol\":4101:4122  proposals[proposalId] */\n      dup2\n      mstore\n      0x20\n      add\n      swap1\n      dup2\n      mstore\n      0x20\n      add\n      0x00\n      keccak256\n        /* \"contracts/proposalsAndRequests.sol\":4101:4129  proposals[proposalId].active */\n      0x08\n      add\n      0x00\n        /* \"contracts/proposalsAndRequests.sol\":4101:4137  proposals[proposalId].active = false */\n      0x0100\n      exp\n      dup2\n      sload\n      dup2\n      0xff\n      mul\n      not\n      and\n      swap1\n      dup4\n      iszero\n      iszero\n      mul\n      or\n      swap1\n      sstore\n      pop\n        /* \"contracts/proposalsAndRequests.sol\":4215:4239  uint256 indexToBeDeleted */\n      0x00\n        /* \"contracts/proposalsAndRequests.sol\":4250:4259  uint256 i */\n      dup1\n        /* \"contracts/proposalsAndRequests.sol\":4262:4263  0 */\n      0x00\n        /* \"contracts/proposalsAndRequests.sol\":4250:4263  uint256 i = 0 */\n      swap1\n      pop\n        /* \"contracts/proposalsAndRequests.sol\":4245:4415  for (uint256 i = 0; i < activeProposalCount; i++) {... */\n    tag_316:\n        /* \"contracts/proposalsAndRequests.sol\":4269:4288  activeProposalCount */\n      sload(0x08)\n        /* \"contracts/proposalsAndRequests.sol\":4265:4266  i */\n      dup2\n        /* \"contracts/proposalsAndRequests.sol\":4265:4288  i < activeProposalCount */\n      lt\n        /* \"contracts/proposalsAndRequests.sol\":4245:4415  for (uint256 i = 0; i < activeProposalCount; i++) {... */\n      iszero\n      tag_317\n      jumpi\n        /* \"contracts/proposalsAndRequests.sol\":4333:4343  proposalId */\n      dup4\n        /* \"contracts/proposalsAndRequests.sol\":4309:4326  activeProposalIds */\n      0x07\n        /* \"contracts/proposalsAndRequests.sol\":4327:4328  i */\n      dup3\n        /* \"contracts/proposalsAndRequests.sol\":4309:4329  activeProposalIds[i] */\n      dup2\n      sload\n      dup2\n      lt\n      tag_319\n      jumpi\n      tag_320\n      tag_255\n      jump\t// in\n    tag_320:\n    tag_319:\n      swap1\n      0x00\n      mstore\n      keccak256(0x00, 0x20)\n      add\n      sload\n        /* \"contracts/proposalsAndRequests.sol\":4309:4343  activeProposalIds[i] == proposalId */\n      sub\n        /* \"contracts/proposalsAndRequests.sol\":4305:4409  if (activeProposalIds[i] == proposalId) {... */\n      tag_322\n      jumpi\n        /* \"contracts/proposalsAndRequests.sol\":4378:4379  i */\n      dup1\n        /* \"contracts/proposalsAndRequests.sol\":4359:4379  indexToBeDeleted = i */\n      swap2\n      pop\n        /* \"contracts/proposalsAndRequests.sol\":4393:4398  break */\n      jump(tag_317)\n        /* \"contracts/proposalsAndRequests.sol\":4305:4409  if (activeProposalIds[i] == proposalId) {... */\n    tag_322:\n        /* \"contracts/proposalsAndRequests.sol\":4290:4293  i++ */\n      dup1\n      dup1\n      tag_323\n      swap1\n      tag_264\n      jump\t// in\n    tag_323:\n      swap2\n      pop\n      pop\n        /* \"contracts/proposalsAndRequests.sol\":4245:4415  for (uint256 i = 0; i < activeProposalCount; i++) {... */\n      jump(tag_316)\n    tag_317:\n      pop\n        /* \"contracts/proposalsAndRequests.sol\":4515:4532  activeProposalIds */\n      0x07\n        /* \"contracts/proposalsAndRequests.sol\":4555:4556  1 */\n      0x01\n        /* \"contracts/proposalsAndRequests.sol\":4533:4552  activeProposalCount */\n      sload(0x08)\n        /* \"contracts/proposalsAndRequests.sol\":4533:4556  activeProposalCount - 1 */\n      tag_324\n      swap2\n      swap1\n      tag_293\n      jump\t// in\n    tag_324:\n        /* \"contracts/proposalsAndRequests.sol\":4515:4557  activeProposalIds[activeProposalCount - 1] */\n      dup2\n      sload\n      dup2\n      lt\n      tag_325\n      jumpi\n      tag_326\n      tag_255\n      jump\t// in\n    tag_326:\n    tag_325:\n      swap1\n      0x00\n      mstore\n      keccak256(0x00, 0x20)\n      add\n      sload\n        /* \"contracts/proposalsAndRequests.sol\":4477:4494  activeProposalIds */\n      0x07\n        /* \"contracts/proposalsAndRequests.sol\":4495:4511  indexToBeDeleted */\n      dup3\n        /* \"contracts/proposalsAndRequests.sol\":4477:4512  activeProposalIds[indexToBeDeleted] */\n      dup2\n      sload\n      dup2\n      lt\n      tag_328\n      jumpi\n      tag_329\n      tag_255\n      jump\t// in\n    tag_329:\n    tag_328:\n      swap1\n      0x00\n      mstore\n      keccak256(0x00, 0x20)\n      add\n        /* \"contracts/proposalsAndRequests.sol\":4477:4557  activeProposalIds[indexToBeDeleted] = activeProposalIds[activeProposalCount - 1] */\n      dup2\n      swap1\n      sstore\n      pop\n        /* \"contracts/proposalsAndRequests.sol\":4595:4612  activeProposalIds */\n      0x07\n        /* \"contracts/proposalsAndRequests.sol\":4595:4618  activeProposalIds.pop() */\n      dup1\n      sload\n      dup1\n      tag_331\n      jumpi\n      tag_332\n      tag_333\n      jump\t// in\n    tag_332:\n    tag_331:\n      0x01\n      swap1\n      sub\n      dup2\n      dup2\n      swap1\n      0x00\n      mstore\n      keccak256(0x00, 0x20)\n      add\n      0x00\n      swap1\n      sstore\n      swap1\n      sstore\n        /* \"contracts/proposalsAndRequests.sol\":4662:4681  activeProposalCount */\n      0x08\n      0x00\n        /* \"contracts/proposalsAndRequests.sol\":4662:4683  activeProposalCount-- */\n      dup2\n      sload\n      dup1\n      swap3\n      swap2\n      swap1\n      tag_335\n      swap1\n      tag_336\n      jump\t// in\n    tag_335:\n      swap2\n      swap1\n      pop\n      sstore\n      pop\n        /* \"contracts/proposalsAndRequests.sol\":3732:4686  {... */\n      pop\n      pop\n        /* \"contracts/proposalsAndRequests.sol\":3660:4686  function deactivateProposal(uint256 proposalId) public onlyMainContract {... */\n      pop\n      jump\t// out\n        /* \"contracts/proposalsAndRequests.sol\":883:925  uint256 public historicalProposalCount = 0 */\n    tag_108:\n      sload(0x06)\n      dup2\n      jump\t// out\n        /* \"@openzeppelin/contracts/access/Ownable.sol\":1831:1932  function renounceOwnership() public virtual onlyOwner {... */\n    tag_111:\n        /* \"@openzeppelin/contracts/access/Ownable.sol\":1094:1107  _checkOwner() */\n      tag_338\n        /* \"@openzeppelin/contracts/access/Ownable.sol\":1094:1105  _checkOwner */\n      tag_219\n        /* \"@openzeppelin/contracts/access/Ownable.sol\":1094:1107  _checkOwner() */\n      jump\t// in\n    tag_338:\n        /* \"@openzeppelin/contracts/access/Ownable.sol\":1895:1925  _transferOwnership(address(0)) */\n      tag_340\n        /* \"@openzeppelin/contracts/access/Ownable.sol\":1922:1923  0 */\n      0x00\n        /* \"@openzeppelin/contracts/access/Ownable.sol\":1895:1913  _transferOwnership */\n      tag_341\n        /* \"@openzeppelin/contracts/access/Ownable.sol\":1895:1925  _transferOwnership(address(0)) */\n      jump\t// in\n    tag_340:\n        /* \"@openzeppelin/contracts/access/Ownable.sol\":1831:1932  function renounceOwnership() public virtual onlyOwner {... */\n      jump\t// out\n        /* \"contracts/proposalsAndRequests.sol\":6151:6255  function getActiveProposalIds() public view returns (uint256[] memory) {... */\n    tag_113:\n        /* \"contracts/proposalsAndRequests.sol\":6204:6220  uint256[] memory */\n      0x60\n        /* \"contracts/proposalsAndRequests.sol\":6235:6252  activeProposalIds */\n      0x07\n        /* \"contracts/proposalsAndRequests.sol\":6228:6252  return activeProposalIds */\n      dup1\n      sload\n      dup1\n      0x20\n      mul\n      0x20\n      add\n      mload(0x40)\n      swap1\n      dup2\n      add\n      0x40\n      mstore\n      dup1\n      swap3\n      swap2\n      swap1\n      dup2\n      dup2\n      mstore\n      0x20\n      add\n      dup3\n      dup1\n      sload\n      dup1\n      iszero\n      tag_343\n      jumpi\n      0x20\n      mul\n      dup3\n      add\n      swap2\n      swap1\n      0x00\n      mstore\n      keccak256(0x00, 0x20)\n      swap1\n    tag_344:\n      dup2\n      sload\n      dup2\n      mstore\n      0x20\n      add\n      swap1\n      0x01\n      add\n      swap1\n      dup1\n      dup4\n      gt\n      tag_344\n      jumpi\n    tag_343:\n      pop\n      pop\n      pop\n      pop\n      pop\n      swap1\n      pop\n        /* \"contracts/proposalsAndRequests.sol\":6151:6255  function getActiveProposalIds() public view returns (uint256[] memory) {... */\n      swap1\n      jump\t// out\n        /* \"contracts/proposalsAndRequests.sol\":964:1002  uint256 public activeProposalCount = 0 */\n    tag_117:\n      sload(0x08)\n      dup2\n      jump\t// out\n        /* \"contracts/proposalsAndRequests.sol\":4688:6148  function deleteProposal(uint256 proposalId) public onlyOwner {... */\n    tag_121:\n        /* \"@openzeppelin/contracts/access/Ownable.sol\":1094:1107  _checkOwner() */\n      tag_346\n        /* \"@openzeppelin/contracts/access/Ownable.sol\":1094:1105  _checkOwner */\n      tag_219\n        /* \"@openzeppelin/contracts/access/Ownable.sol\":1094:1107  _checkOwner() */\n      jump\t// in\n    tag_346:\n        /* \"contracts/proposalsAndRequests.sol\":4776:4789  proposalCount */\n      sload(0x05)\n        /* \"contracts/proposalsAndRequests.sol\":4763:4773  proposalId */\n      dup2\n        /* \"contracts/proposalsAndRequests.sol\":4763:4789  proposalId < proposalCount */\n      lt\n        /* \"contracts/proposalsAndRequests.sol\":4755:4817  require(proposalId < proposalCount, \"Proposal does not exist\") */\n      tag_348\n      jumpi\n      mload(0x40)\n      0x08c379a000000000000000000000000000000000000000000000000000000000\n      dup2\n      mstore\n      0x04\n      add\n      tag_349\n      swap1\n      tag_350\n      jump\t// in\n    tag_349:\n      mload(0x40)\n      dup1\n      swap2\n      sub\n      swap1\n      revert\n    tag_348:\n        /* \"contracts/proposalsAndRequests.sol\":4895:4904  proposals */\n      0x03\n        /* \"contracts/proposalsAndRequests.sol\":4895:4916  proposals[proposalId] */\n      0x00\n        /* \"contracts/proposalsAndRequests.sol\":4905:4915  proposalId */\n      dup3\n        /* \"contracts/proposalsAndRequests.sol\":4895:4916  proposals[proposalId] */\n      dup2\n      mstore\n      0x20\n      add\n      swap1\n      dup2\n      mstore\n      0x20\n      add\n      0x00\n      keccak256\n        /* \"contracts/proposalsAndRequests.sol\":4895:4923  proposals[proposalId].active */\n      0x08\n      add\n      0x00\n      swap1\n      sload\n      swap1\n      0x0100\n      exp\n      swap1\n      div\n      0xff\n      and\n        /* \"contracts/proposalsAndRequests.sol\":4891:5533  if (proposals[proposalId].active) {... */\n      iszero\n      tag_351\n      jumpi\n        /* \"contracts/proposalsAndRequests.sol\":5010:5034  uint256 indexToBeDeleted */\n      0x00\n        /* \"contracts/proposalsAndRequests.sol\":5049:5058  uint256 i */\n      dup1\n        /* \"contracts/proposalsAndRequests.sol\":5061:5062  0 */\n      0x00\n        /* \"contracts/proposalsAndRequests.sol\":5049:5062  uint256 i = 0 */\n      swap1\n      pop\n        /* \"contracts/proposalsAndRequests.sol\":5044:5234  for (uint256 i = 0; i < activeProposalCount; i++) {... */\n    tag_352:\n        /* \"contracts/proposalsAndRequests.sol\":5068:5087  activeProposalCount */\n      sload(0x08)\n        /* \"contracts/proposalsAndRequests.sol\":5064:5065  i */\n      dup2\n        /* \"contracts/proposalsAndRequests.sol\":5064:5087  i < activeProposalCount */\n      lt\n        /* \"contracts/proposalsAndRequests.sol\":5044:5234  for (uint256 i = 0; i < activeProposalCount; i++) {... */\n      iszero\n      tag_353\n      jumpi\n        /* \"contracts/proposalsAndRequests.sol\":5136:5146  proposalId */\n      dup3\n        /* \"contracts/proposalsAndRequests.sol\":5112:5129  activeProposalIds */\n      0x07\n        /* \"contracts/proposalsAndRequests.sol\":5130:5131  i */\n      dup3\n        /* \"contracts/proposalsAndRequests.sol\":5112:5132  activeProposalIds[i] */\n      dup2\n      sload\n      dup2\n      lt\n      tag_355\n      jumpi\n      tag_356\n      tag_255\n      jump\t// in\n    tag_356:\n    tag_355:\n      swap1\n      0x00\n      mstore\n      keccak256(0x00, 0x20)\n      add\n      sload\n        /* \"contracts/proposalsAndRequests.sol\":5112:5146  activeProposalIds[i] == proposalId */\n      sub\n        /* \"contracts/proposalsAndRequests.sol\":5108:5224  if (activeProposalIds[i] == proposalId) {... */\n      tag_358\n      jumpi\n        /* \"contracts/proposalsAndRequests.sol\":5185:5186  i */\n      dup1\n        /* \"contracts/proposalsAndRequests.sol\":5166:5186  indexToBeDeleted = i */\n      swap2\n      pop\n        /* \"contracts/proposalsAndRequests.sol\":5204:5209  break */\n      jump(tag_353)\n        /* \"contracts/proposalsAndRequests.sol\":5108:5224  if (activeProposalIds[i] == proposalId) {... */\n    tag_358:\n        /* \"contracts/proposalsAndRequests.sol\":5089:5092  i++ */\n      dup1\n      dup1\n      tag_359\n      swap1\n      tag_264\n      jump\t// in\n    tag_359:\n      swap2\n      pop\n      pop\n        /* \"contracts/proposalsAndRequests.sol\":5044:5234  for (uint256 i = 0; i < activeProposalCount; i++) {... */\n      jump(tag_352)\n    tag_353:\n      pop\n        /* \"contracts/proposalsAndRequests.sol\":5342:5359  activeProposalIds */\n      0x07\n        /* \"contracts/proposalsAndRequests.sol\":5382:5383  1 */\n      0x01\n        /* \"contracts/proposalsAndRequests.sol\":5360:5379  activeProposalCount */\n      sload(0x08)\n        /* \"contracts/proposalsAndRequests.sol\":5360:5383  activeProposalCount - 1 */\n      tag_360\n      swap2\n      swap1\n      tag_293\n      jump\t// in\n    tag_360:\n        /* \"contracts/proposalsAndRequests.sol\":5342:5384  activeProposalIds[activeProposalCount - 1] */\n      dup2\n      sload\n      dup2\n      lt\n      tag_361\n      jumpi\n      tag_362\n      tag_255\n      jump\t// in\n    tag_362:\n    tag_361:\n      swap1\n      0x00\n      mstore\n      keccak256(0x00, 0x20)\n      add\n      sload\n        /* \"contracts/proposalsAndRequests.sol\":5304:5321  activeProposalIds */\n      0x07\n        /* \"contracts/proposalsAndRequests.sol\":5322:5338  indexToBeDeleted */\n      dup3\n        /* \"contracts/proposalsAndRequests.sol\":5304:5339  activeProposalIds[indexToBeDeleted] */\n      dup2\n      sload\n      dup2\n      lt\n      tag_364\n      jumpi\n      tag_365\n      tag_255\n      jump\t// in\n    tag_365:\n    tag_364:\n      swap1\n      0x00\n      mstore\n      keccak256(0x00, 0x20)\n      add\n        /* \"contracts/proposalsAndRequests.sol\":5304:5384  activeProposalIds[indexToBeDeleted] = activeProposalIds[activeProposalCount - 1] */\n      dup2\n      swap1\n      sstore\n      pop\n        /* \"contracts/proposalsAndRequests.sol\":5430:5447  activeProposalIds */\n      0x07\n        /* \"contracts/proposalsAndRequests.sol\":5430:5453  activeProposalIds.pop() */\n      dup1\n      sload\n      dup1\n      tag_367\n      jumpi\n      tag_368\n      tag_333\n      jump\t// in\n    tag_368:\n    tag_367:\n      0x01\n      swap1\n      sub\n      dup2\n      dup2\n      swap1\n      0x00\n      mstore\n      keccak256(0x00, 0x20)\n      add\n      0x00\n      swap1\n      sstore\n      swap1\n      sstore\n        /* \"contracts/proposalsAndRequests.sol\":5505:5524  activeProposalCount */\n      0x08\n      0x00\n        /* \"contracts/proposalsAndRequests.sol\":5505:5526  activeProposalCount-- */\n      dup2\n      sload\n      dup1\n      swap3\n      swap2\n      swap1\n      tag_370\n      swap1\n      tag_336\n      jump\t// in\n    tag_370:\n      swap2\n      swap1\n      pop\n      sstore\n      pop\n        /* \"contracts/proposalsAndRequests.sol\":4925:5533  {... */\n      pop\n        /* \"contracts/proposalsAndRequests.sol\":4891:5533  if (proposals[proposalId].active) {... */\n    tag_351:\n        /* \"contracts/proposalsAndRequests.sol\":5590:5599  proposals */\n      0x03\n        /* \"contracts/proposalsAndRequests.sol\":5590:5611  proposals[proposalId] */\n      0x00\n        /* \"contracts/proposalsAndRequests.sol\":5600:5610  proposalId */\n      dup3\n        /* \"contracts/proposalsAndRequests.sol\":5590:5611  proposals[proposalId] */\n      dup2\n      mstore\n      0x20\n      add\n      swap1\n      dup2\n      mstore\n      0x20\n      add\n      0x00\n      keccak256\n      0x00\n        /* \"contracts/proposalsAndRequests.sol\":5583:5611  delete proposals[proposalId] */\n      dup1\n      dup3\n      add\n      0x00\n      swap1\n      sstore\n      0x01\n      dup3\n      add\n      0x00\n      swap1\n      sstore\n      0x02\n      dup3\n      add\n      0x00\n      swap1\n      sstore\n      0x03\n      dup3\n      add\n      0x00\n      swap1\n      sstore\n      0x04\n      dup3\n      add\n      0x00\n      tag_371\n      swap2\n      swap1\n      tag_372\n      jump\t// in\n    tag_371:\n      0x05\n      dup3\n      add\n      0x00\n      swap1\n      sstore\n      0x06\n      dup3\n      add\n      0x00\n      tag_373\n      swap2\n      swap1\n      tag_372\n      jump\t// in\n    tag_373:\n      0x07\n      dup3\n      add\n      0x00\n      tag_374\n      swap2\n      swap1\n      tag_372\n      jump\t// in\n    tag_374:\n      0x08\n      dup3\n      add\n      exp(0x0100, 0x00)\n      dup2\n      sload\n      swap1\n      0xff\n      mul\n      not\n      and\n      swap1\n      sstore\n      0x08\n      dup3\n      add\n      exp(0x0100, 0x01)\n      dup2\n      sload\n      swap1\n      0xffffffffffffffffffffffffffffffffffffffff\n      mul\n      not\n      and\n      swap1\n      sstore\n      0x09\n      dup3\n      add\n      0x00\n      swap1\n      sstore\n      0x0a\n      dup3\n      add\n      0x00\n      swap1\n      sstore\n      pop\n      pop\n        /* \"contracts/proposalsAndRequests.sol\":5682:5719  uint256 indexToBeDeletedInProposalIds */\n      0x00\n        /* \"contracts/proposalsAndRequests.sol\":5730:5739  uint256 i */\n      dup1\n        /* \"contracts/proposalsAndRequests.sol\":5742:5743  0 */\n      0x00\n        /* \"contracts/proposalsAndRequests.sol\":5730:5743  uint256 i = 0 */\n      swap1\n      pop\n        /* \"contracts/proposalsAndRequests.sol\":5725:5896  for (uint256 i = 0; i < proposalCount; i++) {... */\n    tag_375:\n        /* \"contracts/proposalsAndRequests.sol\":5749:5762  proposalCount */\n      sload(0x05)\n        /* \"contracts/proposalsAndRequests.sol\":5745:5746  i */\n      dup2\n        /* \"contracts/proposalsAndRequests.sol\":5745:5762  i < proposalCount */\n      lt\n        /* \"contracts/proposalsAndRequests.sol\":5725:5896  for (uint256 i = 0; i < proposalCount; i++) {... */\n      iszero\n      tag_376\n      jumpi\n        /* \"contracts/proposalsAndRequests.sol\":5801:5811  proposalId */\n      dup3\n        /* \"contracts/proposalsAndRequests.sol\":5783:5794  proposalIds */\n      0x04\n        /* \"contracts/proposalsAndRequests.sol\":5795:5796  i */\n      dup3\n        /* \"contracts/proposalsAndRequests.sol\":5783:5797  proposalIds[i] */\n      dup2\n      sload\n      dup2\n      lt\n      tag_378\n      jumpi\n      tag_379\n      tag_255\n      jump\t// in\n    tag_379:\n    tag_378:\n      swap1\n      0x00\n      mstore\n      keccak256(0x00, 0x20)\n      add\n      sload\n        /* \"contracts/proposalsAndRequests.sol\":5783:5811  proposalIds[i] == proposalId */\n      sub\n        /* \"contracts/proposalsAndRequests.sol\":5779:5890  if (proposalIds[i] == proposalId) {... */\n      tag_381\n      jumpi\n        /* \"contracts/proposalsAndRequests.sol\":5859:5860  i */\n      dup1\n        /* \"contracts/proposalsAndRequests.sol\":5827:5860  indexToBeDeletedInProposalIds = i */\n      swap2\n      pop\n        /* \"contracts/proposalsAndRequests.sol\":5874:5879  break */\n      jump(tag_376)\n        /* \"contracts/proposalsAndRequests.sol\":5779:5890  if (proposalIds[i] == proposalId) {... */\n    tag_381:\n        /* \"contracts/proposalsAndRequests.sol\":5764:5767  i++ */\n      dup1\n      dup1\n      tag_382\n      swap1\n      tag_264\n      jump\t// in\n    tag_382:\n      swap2\n      pop\n      pop\n        /* \"contracts/proposalsAndRequests.sol\":5725:5896  for (uint256 i = 0; i < proposalCount; i++) {... */\n      jump(tag_375)\n    tag_376:\n      pop\n        /* \"contracts/proposalsAndRequests.sol\":6003:6014  proposalIds */\n      0x04\n        /* \"contracts/proposalsAndRequests.sol\":6031:6032  1 */\n      0x01\n        /* \"contracts/proposalsAndRequests.sol\":6015:6028  proposalCount */\n      sload(0x05)\n        /* \"contracts/proposalsAndRequests.sol\":6015:6032  proposalCount - 1 */\n      tag_383\n      swap2\n      swap1\n      tag_293\n      jump\t// in\n    tag_383:\n        /* \"contracts/proposalsAndRequests.sol\":6003:6033  proposalIds[proposalCount - 1] */\n      dup2\n      sload\n      dup2\n      lt\n      tag_384\n      jumpi\n      tag_385\n      tag_255\n      jump\t// in\n    tag_385:\n    tag_384:\n      swap1\n      0x00\n      mstore\n      keccak256(0x00, 0x20)\n      add\n      sload\n        /* \"contracts/proposalsAndRequests.sol\":5958:5969  proposalIds */\n      0x04\n        /* \"contracts/proposalsAndRequests.sol\":5970:5999  indexToBeDeletedInProposalIds */\n      dup3\n        /* \"contracts/proposalsAndRequests.sol\":5958:6000  proposalIds[indexToBeDeletedInProposalIds] */\n      dup2\n      sload\n      dup2\n      lt\n      tag_387\n      jumpi\n      tag_388\n      tag_255\n      jump\t// in\n    tag_388:\n    tag_387:\n      swap1\n      0x00\n      mstore\n      keccak256(0x00, 0x20)\n      add\n        /* \"contracts/proposalsAndRequests.sol\":5958:6033  proposalIds[indexToBeDeletedInProposalIds] = proposalIds[proposalCount - 1] */\n      dup2\n      swap1\n      sstore\n      pop\n        /* \"contracts/proposalsAndRequests.sol\":6071:6082  proposalIds */\n      0x04\n        /* \"contracts/proposalsAndRequests.sol\":6071:6088  proposalIds.pop() */\n      dup1\n      sload\n      dup1\n      tag_390\n      jumpi\n      tag_391\n      tag_333\n      jump\t// in\n    tag_391:\n    tag_390:\n      0x01\n      swap1\n      sub\n      dup2\n      dup2\n      swap1\n      0x00\n      mstore\n      keccak256(0x00, 0x20)\n      add\n      0x00\n      swap1\n      sstore\n      swap1\n      sstore\n        /* \"contracts/proposalsAndRequests.sol\":6130:6143  proposalCount */\n      0x05\n      0x00\n        /* \"contracts/proposalsAndRequests.sol\":6130:6145  proposalCount-- */\n      dup2\n      sload\n      dup1\n      swap3\n      swap2\n      swap1\n      tag_393\n      swap1\n      tag_336\n      jump\t// in\n    tag_393:\n      swap2\n      swap1\n      pop\n      sstore\n      pop\n        /* \"contracts/proposalsAndRequests.sol\":4749:6148  {... */\n      pop\n        /* \"contracts/proposalsAndRequests.sol\":4688:6148  function deleteProposal(uint256 proposalId) public onlyOwner {... */\n      pop\n      jump\t// out\n        /* \"@openzeppelin/contracts/access/Ownable.sol\":1201:1286  function owner() public view virtual returns (address) {... */\n    tag_123:\n        /* \"@openzeppelin/contracts/access/Ownable.sol\":1247:1254  address */\n      0x00\n        /* \"@openzeppelin/contracts/access/Ownable.sol\":1273:1279  _owner */\n      dup1\n      0x00\n      swap1\n      sload\n      swap1\n      0x0100\n      exp\n      swap1\n      div\n      0xffffffffffffffffffffffffffffffffffffffff\n      and\n        /* \"@openzeppelin/contracts/access/Ownable.sol\":1266:1279  return _owner */\n      swap1\n      pop\n        /* \"@openzeppelin/contracts/access/Ownable.sol\":1201:1286  function owner() public view virtual returns (address) {... */\n      swap1\n      jump\t// out\n        /* \"contracts/proposalsAndRequests.sol\":2384:3353  function createProposal(... */\n    tag_129:\n        /* \"contracts/proposalsAndRequests.sol\":2719:3171  Proposal({... */\n      mload(0x40)\n      dup1\n      0x0180\n      add\n      0x40\n      mstore\n      dup1\n        /* \"contracts/proposalsAndRequests.sol\":2746:2752  amount */\n      dup11\n        /* \"contracts/proposalsAndRequests.sol\":2719:3171  Proposal({... */\n      dup2\n      mstore\n      0x20\n      add\n        /* \"contracts/proposalsAndRequests.sol\":2777:2778  0 */\n      0x00\n        /* \"contracts/proposalsAndRequests.sol\":2719:3171  Proposal({... */\n      dup2\n      mstore\n      0x20\n      add\n        /* \"contracts/proposalsAndRequests.sol\":2795:2800  price */\n      dup10\n        /* \"contracts/proposalsAndRequests.sol\":2719:3171  Proposal({... */\n      dup2\n      mstore\n      0x20\n      add\n        /* \"contracts/proposalsAndRequests.sol\":2816:2831  block.timestamp */\n      timestamp\n        /* \"contracts/proposalsAndRequests.sol\":2719:3171  Proposal({... */\n      dup2\n      mstore\n      0x20\n      add\n        /* \"contracts/proposalsAndRequests.sol\":2860:2877  paymentMethodName */\n      dup9\n        /* \"contracts/proposalsAndRequests.sol\":2719:3171  Proposal({... */\n      dup2\n      mstore\n      0x20\n      add\n        /* \"contracts/proposalsAndRequests.sol\":2903:2917  paymentDetails */\n      dup8\n        /* \"contracts/proposalsAndRequests.sol\":2719:3171  Proposal({... */\n      dup2\n      mstore\n      0x20\n      add\n        /* \"contracts/proposalsAndRequests.sol\":2936:2943  comment */\n      dup7\n        /* \"contracts/proposalsAndRequests.sol\":2719:3171  Proposal({... */\n      dup2\n      mstore\n      0x20\n      add\n        /* \"contracts/proposalsAndRequests.sol\":2963:2971  username */\n      dup6\n        /* \"contracts/proposalsAndRequests.sol\":2719:3171  Proposal({... */\n      dup2\n      mstore\n      0x20\n      add\n        /* \"contracts/proposalsAndRequests.sol\":2989:2993  true */\n      0x01\n        /* \"contracts/proposalsAndRequests.sol\":2719:3171  Proposal({... */\n      iszero\n      iszero\n      dup2\n      mstore\n      0x20\n      add\n        /* \"contracts/proposalsAndRequests.sol\":3011:3017  seller */\n      dup5\n        /* \"contracts/proposalsAndRequests.sol\":2719:3171  Proposal({... */\n      0xffffffffffffffffffffffffffffffffffffffff\n      and\n      dup2\n      mstore\n      0x20\n      add\n        /* \"contracts/proposalsAndRequests.sol\":3061:3092  sellerTransactionsCountasSeller */\n      dup4\n        /* \"contracts/proposalsAndRequests.sol\":2719:3171  Proposal({... */\n      dup2\n      mstore\n      0x20\n      add\n        /* \"contracts/proposalsAndRequests.sol\":3134:3164  sellerTransactionsCountasBuyer */\n      dup3\n        /* \"contracts/proposalsAndRequests.sol\":2719:3171  Proposal({... */\n      dup2\n      mstore\n      pop\n        /* \"contracts/proposalsAndRequests.sol\":2692:2701  proposals */\n      0x03\n        /* \"contracts/proposalsAndRequests.sol\":2692:2716  proposals[proposalCount] */\n      0x00\n        /* \"contracts/proposalsAndRequests.sol\":2702:2715  proposalCount */\n      sload(0x05)\n        /* \"contracts/proposalsAndRequests.sol\":2692:2716  proposals[proposalCount] */\n      dup2\n      mstore\n      0x20\n      add\n      swap1\n      dup2\n      mstore\n      0x20\n      add\n      0x00\n      keccak256\n        /* \"contracts/proposalsAndRequests.sol\":2692:3171  proposals[proposalCount] = Proposal({... */\n      0x00\n      dup3\n      add\n      mload\n      dup2\n      0x00\n      add\n      sstore\n      0x20\n      dup3\n      add\n      mload\n      dup2\n      0x01\n      add\n      sstore\n      0x40\n      dup3\n      add\n      mload\n      dup2\n      0x02\n      add\n      sstore\n      0x60\n      dup3\n      add\n      mload\n      dup2\n      0x03\n      add\n      sstore\n      0x80\n      dup3\n      add\n      mload\n      dup2\n      0x04\n      add\n      swap1\n      dup2\n      tag_396\n      swap2\n      swap1\n      tag_397\n      jump\t// in\n    tag_396:\n      pop\n      0xa0\n      dup3\n      add\n      mload\n      dup2\n      0x05\n      add\n      sstore\n      0xc0\n      dup3\n      add\n      mload\n      dup2\n      0x06\n      add\n      swap1\n      dup2\n      tag_398\n      swap2\n      swap1\n      tag_397\n      jump\t// in\n    tag_398:\n      pop\n      0xe0\n      dup3\n      add\n      mload\n      dup2\n      0x07\n      add\n      swap1\n      dup2\n      tag_399\n      swap2\n      swap1\n      tag_397\n      jump\t// in\n    tag_399:\n      pop\n      0x0100\n      dup3\n      add\n      mload\n      dup2\n      0x08\n      add\n      exp(0x0100, 0x00)\n      dup2\n      sload\n      dup2\n      0xff\n      mul\n      not\n      and\n      swap1\n      dup4\n      iszero\n      iszero\n      mul\n      or\n      swap1\n      sstore\n      pop\n      0x0120\n      dup3\n      add\n      mload\n      dup2\n      0x08\n      add\n      exp(0x0100, 0x01)\n      dup2\n      sload\n      dup2\n      0xffffffffffffffffffffffffffffffffffffffff\n      mul\n      not\n      and\n      swap1\n      dup4\n      0xffffffffffffffffffffffffffffffffffffffff\n      and\n      mul\n      or\n      swap1\n      sstore\n      pop\n      0x0140\n      dup3\n      add\n      mload\n      dup2\n      0x09\n      add\n      sstore\n      0x0160\n      dup3\n      add\n      mload\n      dup2\n      0x0a\n      add\n      sstore\n      swap1\n      pop\n      pop\n        /* \"contracts/proposalsAndRequests.sol\":3177:3188  proposalIds */\n      0x04\n        /* \"contracts/proposalsAndRequests.sol\":3194:3217  historicalProposalCount */\n      sload(0x06)\n        /* \"contracts/proposalsAndRequests.sol\":3177:3218  proposalIds.push(historicalProposalCount) */\n      swap1\n      dup1\n      0x01\n      dup2\n      sload\n      add\n      dup1\n      dup3\n      sstore\n      dup1\n      swap2\n      pop\n      pop\n      0x01\n      swap1\n      sub\n      swap1\n      0x00\n      mstore\n      keccak256(0x00, 0x20)\n      add\n      0x00\n      swap1\n      swap2\n      swap1\n      swap2\n      swap1\n      swap2\n      pop\n      sstore\n        /* \"contracts/proposalsAndRequests.sol\":3224:3241  activeProposalIds */\n      0x07\n        /* \"contracts/proposalsAndRequests.sol\":3247:3270  historicalProposalCount */\n      sload(0x06)\n        /* \"contracts/proposalsAndRequests.sol\":3224:3271  activeProposalIds.push(historicalProposalCount) */\n      swap1\n      dup1\n      0x01\n      dup2\n      sload\n      add\n      dup1\n      dup3\n      sstore\n      dup1\n      swap2\n      pop\n      pop\n      0x01\n      swap1\n      sub\n      swap1\n      0x00\n      mstore\n      keccak256(0x00, 0x20)\n      add\n      0x00\n      swap1\n      swap2\n      swap1\n      swap2\n      swap1\n      swap2\n      pop\n      sstore\n        /* \"contracts/proposalsAndRequests.sol\":3277:3296  activeProposalCount */\n      0x08\n      0x00\n        /* \"contracts/proposalsAndRequests.sol\":3277:3298  activeProposalCount++ */\n      dup2\n      sload\n      dup1\n      swap3\n      swap2\n      swap1\n      tag_402\n      swap1\n      tag_264\n      jump\t// in\n    tag_402:\n      swap2\n      swap1\n      pop\n      sstore\n      pop\n        /* \"contracts/proposalsAndRequests.sol\":3304:3317  proposalCount */\n      0x05\n      0x00\n        /* \"contracts/proposalsAndRequests.sol\":3304:3319  proposalCount++ */\n      dup2\n      sload\n      dup1\n      swap3\n      swap2\n      swap1\n      tag_403\n      swap1\n      tag_264\n      jump\t// in\n    tag_403:\n      swap2\n      swap1\n      pop\n      sstore\n      pop\n        /* \"contracts/proposalsAndRequests.sol\":3325:3348  historicalProposalCount */\n      0x06\n      0x00\n        /* \"contracts/proposalsAndRequests.sol\":3325:3350  historicalProposalCount++ */\n      dup2\n      sload\n      dup1\n      swap3\n      swap2\n      swap1\n      tag_404\n      swap1\n      tag_264\n      jump\t// in\n    tag_404:\n      swap2\n      swap1\n      pop\n      sstore\n      pop\n        /* \"contracts/proposalsAndRequests.sol\":2384:3353  function createProposal(... */\n      pop\n      pop\n      pop\n      pop\n      pop\n      pop\n      pop\n      pop\n      pop\n      jump\t// out\n        /* \"contracts/proposalsAndRequests.sol\":819:847  uint256[] public proposalIds */\n    tag_132:\n      0x04\n      dup2\n      dup2\n      sload\n      dup2\n      lt\n      tag_405\n      jumpi\n      0x00\n      dup1\n      revert\n    tag_405:\n      swap1\n      0x00\n      mstore\n      keccak256(0x00, 0x20)\n      add\n      0x00\n      swap2\n      pop\n      swap1\n      pop\n      sload\n      dup2\n      jump\t// out\n        /* \"contracts/proposalsAndRequests.sol\":8654:9397  function getActiveRequestsByProposal(uint256 proposalId) public view returns (BuyerRequest[] memory) {... */\n    tag_136:\n        /* \"contracts/proposalsAndRequests.sol\":8732:8753  BuyerRequest[] memory */\n      0x60\n        /* \"contracts/proposalsAndRequests.sol\":8761:8775  uint256 length */\n      0x00\n        /* \"contracts/proposalsAndRequests.sol\":8778:8797  buyerRequestsLength */\n      0x0b\n        /* \"contracts/proposalsAndRequests.sol\":8778:8809  buyerRequestsLength[proposalId] */\n      0x00\n        /* \"contracts/proposalsAndRequests.sol\":8798:8808  proposalId */\n      dup5\n        /* \"contracts/proposalsAndRequests.sol\":8778:8809  buyerRequestsLength[proposalId] */\n      dup2\n      mstore\n      0x20\n      add\n      swap1\n      dup2\n      mstore\n      0x20\n      add\n      0x00\n      keccak256\n      sload\n        /* \"contracts/proposalsAndRequests.sol\":8761:8809  uint256 length = buyerRequestsLength[proposalId] */\n      swap1\n      pop\n        /* \"contracts/proposalsAndRequests.sol\":8815:8851  BuyerRequest[] memory activeRequests */\n      0x00\n        /* \"contracts/proposalsAndRequests.sol\":8873:8879  length */\n      dup2\n        /* \"contracts/proposalsAndRequests.sol\":8854:8880  new BuyerRequest[](length) */\n      0xffffffffffffffff\n      dup2\n      gt\n      iszero\n      tag_408\n      jumpi\n      tag_409\n      tag_245\n      jump\t// in\n    tag_409:\n    tag_408:\n      mload(0x40)\n      swap1\n      dup1\n      dup3\n      mstore\n      dup1\n      0x20\n      mul\n      0x20\n      add\n      dup3\n      add\n      0x40\n      mstore\n      dup1\n      iszero\n      tag_410\n      jumpi\n      dup2\n      0x20\n      add\n    tag_411:\n      tag_412\n      tag_249\n      jump\t// in\n    tag_412:\n      dup2\n      mstore\n      0x20\n      add\n      swap1\n      0x01\n      swap1\n      sub\n      swap1\n      dup2\n      tag_411\n      jumpi\n      swap1\n      pop\n    tag_410:\n      pop\n        /* \"contracts/proposalsAndRequests.sol\":8815:8880  BuyerRequest[] memory activeRequests = new BuyerRequest[](length) */\n      swap1\n      pop\n        /* \"contracts/proposalsAndRequests.sol\":8887:8902  uint256 counter */\n      0x00\n        /* \"contracts/proposalsAndRequests.sol\":8917:8926  uint256 i */\n      dup1\n        /* \"contracts/proposalsAndRequests.sol\":8912:9108  for (uint256 i = 0; i < length; i++) {... */\n    tag_413:\n        /* \"contracts/proposalsAndRequests.sol\":8936:8942  length */\n      dup4\n        /* \"contracts/proposalsAndRequests.sol\":8932:8933  i */\n      dup2\n        /* \"contracts/proposalsAndRequests.sol\":8932:8942  i < length */\n      lt\n        /* \"contracts/proposalsAndRequests.sol\":8912:9108  for (uint256 i = 0; i < length; i++) {... */\n      iszero\n      tag_414\n      jumpi\n        /* \"contracts/proposalsAndRequests.sol\":8963:8976  buyerRequests */\n      0x09\n        /* \"contracts/proposalsAndRequests.sol\":8963:8988  buyerRequests[proposalId] */\n      0x00\n        /* \"contracts/proposalsAndRequests.sol\":8977:8987  proposalId */\n      dup8\n        /* \"contracts/proposalsAndRequests.sol\":8963:8988  buyerRequests[proposalId] */\n      dup2\n      mstore\n      0x20\n      add\n      swap1\n      dup2\n      mstore\n      0x20\n      add\n      0x00\n      keccak256\n        /* \"contracts/proposalsAndRequests.sol\":8963:8991  buyerRequests[proposalId][i] */\n      0x00\n        /* \"contracts/proposalsAndRequests.sol\":8989:8990  i */\n      dup3\n        /* \"contracts/proposalsAndRequests.sol\":8963:8991  buyerRequests[proposalId][i] */\n      dup2\n      mstore\n      0x20\n      add\n      swap1\n      dup2\n      mstore\n      0x20\n      add\n      0x00\n      keccak256\n        /* \"contracts/proposalsAndRequests.sol\":8963:8998  buyerRequests[proposalId][i].active */\n      0x04\n      add\n      0x1a\n      swap1\n      sload\n      swap1\n      0x0100\n      exp\n      swap1\n      div\n      0xff\n      and\n        /* \"contracts/proposalsAndRequests.sol\":8959:9102  if (buyerRequests[proposalId][i].active) {... */\n      iszero\n      tag_416\n      jumpi\n        /* \"contracts/proposalsAndRequests.sol\":9040:9053  buyerRequests */\n      0x09\n        /* \"contracts/proposalsAndRequests.sol\":9040:9065  buyerRequests[proposalId] */\n      0x00\n        /* \"contracts/proposalsAndRequests.sol\":9054:9064  proposalId */\n      dup8\n        /* \"contracts/proposalsAndRequests.sol\":9040:9065  buyerRequests[proposalId] */\n      dup2\n      mstore\n      0x20\n      add\n      swap1\n      dup2\n      mstore\n      0x20\n      add\n      0x00\n      keccak256\n        /* \"contracts/proposalsAndRequests.sol\":9040:9068  buyerRequests[proposalId][i] */\n      0x00\n        /* \"contracts/proposalsAndRequests.sol\":9066:9067  i */\n      dup3\n        /* \"contracts/proposalsAndRequests.sol\":9040:9068  buyerRequests[proposalId][i] */\n      dup2\n      mstore\n      0x20\n      add\n      swap1\n      dup2\n      mstore\n      0x20\n      add\n      0x00\n      keccak256\n        /* \"contracts/proposalsAndRequests.sol\":9014:9068  activeRequests[counter] = buyerRequests[proposalId][i] */\n      mload(0x40)\n      dup1\n      0x0180\n      add\n      0x40\n      mstore\n      swap1\n      dup2\n      0x00\n      dup3\n      add\n      sload\n      dup2\n      mstore\n      0x20\n      add\n      0x01\n      dup3\n      add\n      sload\n      dup2\n      mstore\n      0x20\n      add\n      0x02\n      dup3\n      add\n      sload\n      dup2\n      mstore\n      0x20\n      add\n      0x03\n      dup3\n      add\n      sload\n      dup2\n      mstore\n      0x20\n      add\n      0x04\n      dup3\n      add\n      0x00\n      swap1\n      sload\n      swap1\n      0x0100\n      exp\n      swap1\n      div\n      0xffffffffffffffffffffffffffffffffffffffff\n      and\n      0xffffffffffffffffffffffffffffffffffffffff\n      and\n      0xffffffffffffffffffffffffffffffffffffffff\n      and\n      dup2\n      mstore\n      0x20\n      add\n      0x04\n      dup3\n      add\n      0x14\n      swap1\n      sload\n      swap1\n      0x0100\n      exp\n      swap1\n      div\n      0xff\n      and\n      iszero\n      iszero\n      iszero\n      iszero\n      dup2\n      mstore\n      0x20\n      add\n      0x04\n      dup3\n      add\n      0x15\n      swap1\n      sload\n      swap1\n      0x0100\n      exp\n      swap1\n      div\n      0xff\n      and\n      iszero\n      iszero\n      iszero\n      iszero\n      dup2\n      mstore\n      0x20\n      add\n      0x04\n      dup3\n      add\n      0x16\n      swap1\n      sload\n      swap1\n      0x0100\n      exp\n      swap1\n      div\n      0xff\n      and\n      iszero\n      iszero\n      iszero\n      iszero\n      dup2\n      mstore\n      0x20\n      add\n      0x04\n      dup3\n      add\n      0x17\n      swap1\n      sload\n      swap1\n      0x0100\n      exp\n      swap1\n      div\n      0xff\n      and\n      iszero\n      iszero\n      iszero\n      iszero\n      dup2\n      mstore\n      0x20\n      add\n      0x04\n      dup3\n      add\n      0x18\n      swap1\n      sload\n      swap1\n      0x0100\n      exp\n      swap1\n      div\n      0xff\n      and\n      iszero\n      iszero\n      iszero\n      iszero\n      dup2\n      mstore\n      0x20\n      add\n      0x04\n      dup3\n      add\n      0x19\n      swap1\n      sload\n      swap1\n      0x0100\n      exp\n      swap1\n      div\n      0xff\n      and\n      iszero\n      iszero\n      iszero\n      iszero\n      dup2\n      mstore\n      0x20\n      add\n      0x04\n      dup3\n      add\n      0x1a\n      swap1\n      sload\n      swap1\n      0x0100\n      exp\n      swap1\n      div\n      0xff\n      and\n      iszero\n      iszero\n      iszero\n      iszero\n      dup2\n      mstore\n      pop\n      pop\n        /* \"contracts/proposalsAndRequests.sol\":9014:9028  activeRequests */\n      dup4\n        /* \"contracts/proposalsAndRequests.sol\":9029:9036  counter */\n      dup4\n        /* \"contracts/proposalsAndRequests.sol\":9014:9037  activeRequests[counter] */\n      dup2\n      mload\n      dup2\n      lt\n      tag_417\n      jumpi\n      tag_418\n      tag_255\n      jump\t// in\n    tag_418:\n    tag_417:\n      0x20\n      mul\n      0x20\n      add\n      add\n        /* \"contracts/proposalsAndRequests.sol\":9014:9068  activeRequests[counter] = buyerRequests[proposalId][i] */\n      dup2\n      swap1\n      mstore\n      pop\n        /* \"contracts/proposalsAndRequests.sol\":9082:9091  counter++ */\n      dup2\n      dup1\n      tag_419\n      swap1\n      tag_264\n      jump\t// in\n    tag_419:\n      swap3\n      pop\n      pop\n        /* \"contracts/proposalsAndRequests.sol\":8959:9102  if (buyerRequests[proposalId][i].active) {... */\n    tag_416:\n        /* \"contracts/proposalsAndRequests.sol\":8944:8947  i++ */\n      dup1\n      dup1\n      tag_420\n      swap1\n      tag_264\n      jump\t// in\n    tag_420:\n      swap2\n      pop\n      pop\n        /* \"contracts/proposalsAndRequests.sol\":8912:9108  for (uint256 i = 0; i < length; i++) {... */\n      jump(tag_413)\n    tag_414:\n      pop\n        /* \"contracts/proposalsAndRequests.sol\":9182:9225  BuyerRequest[] memory reducedActiveRequests */\n      0x00\n        /* \"contracts/proposalsAndRequests.sol\":9247:9254  counter */\n      dup2\n        /* \"contracts/proposalsAndRequests.sol\":9228:9255  new BuyerRequest[](counter) */\n      0xffffffffffffffff\n      dup2\n      gt\n      iszero\n      tag_421\n      jumpi\n      tag_422\n      tag_245\n      jump\t// in\n    tag_422:\n    tag_421:\n      mload(0x40)\n      swap1\n      dup1\n      dup3\n      mstore\n      dup1\n      0x20\n      mul\n      0x20\n      add\n      dup3\n      add\n      0x40\n      mstore\n      dup1\n      iszero\n      tag_423\n      jumpi\n      dup2\n      0x20\n      add\n    tag_424:\n      tag_425\n      tag_249\n      jump\t// in\n    tag_425:\n      dup2\n      mstore\n      0x20\n      add\n      swap1\n      0x01\n      swap1\n      sub\n      swap1\n      dup2\n      tag_424\n      jumpi\n      swap1\n      pop\n    tag_423:\n      pop\n        /* \"contracts/proposalsAndRequests.sol\":9182:9255  BuyerRequest[] memory reducedActiveRequests = new BuyerRequest[](counter) */\n      swap1\n      pop\n        /* \"contracts/proposalsAndRequests.sol\":9266:9275  uint256 i */\n      0x00\n        /* \"contracts/proposalsAndRequests.sol\":9261:9360  for (uint256 i = 0; i < counter; i++) {... */\n    tag_426:\n        /* \"contracts/proposalsAndRequests.sol\":9285:9292  counter */\n      dup3\n        /* \"contracts/proposalsAndRequests.sol\":9281:9282  i */\n      dup2\n        /* \"contracts/proposalsAndRequests.sol\":9281:9292  i < counter */\n      lt\n        /* \"contracts/proposalsAndRequests.sol\":9261:9360  for (uint256 i = 0; i < counter; i++) {... */\n      iszero\n      tag_427\n      jumpi\n        /* \"contracts/proposalsAndRequests.sol\":9336:9350  activeRequests */\n      dup4\n        /* \"contracts/proposalsAndRequests.sol\":9351:9352  i */\n      dup2\n        /* \"contracts/proposalsAndRequests.sol\":9336:9353  activeRequests[i] */\n      dup2\n      mload\n      dup2\n      lt\n      tag_429\n      jumpi\n      tag_430\n      tag_255\n      jump\t// in\n    tag_430:\n    tag_429:\n      0x20\n      mul\n      0x20\n      add\n      add\n      mload\n        /* \"contracts/proposalsAndRequests.sol\":9309:9330  reducedActiveRequests */\n      dup3\n        /* \"contracts/proposalsAndRequests.sol\":9331:9332  i */\n      dup3\n        /* \"contracts/proposalsAndRequests.sol\":9309:9333  reducedActiveRequests[i] */\n      dup2\n      mload\n      dup2\n      lt\n      tag_431\n      jumpi\n      tag_432\n      tag_255\n      jump\t// in\n    tag_432:\n    tag_431:\n      0x20\n      mul\n      0x20\n      add\n      add\n        /* \"contracts/proposalsAndRequests.sol\":9309:9353  reducedActiveRequests[i] = activeRequests[i] */\n      dup2\n      swap1\n      mstore\n      pop\n        /* \"contracts/proposalsAndRequests.sol\":9294:9297  i++ */\n      dup1\n      dup1\n      tag_433\n      swap1\n      tag_264\n      jump\t// in\n    tag_433:\n      swap2\n      pop\n      pop\n        /* \"contracts/proposalsAndRequests.sol\":9261:9360  for (uint256 i = 0; i < counter; i++) {... */\n      jump(tag_426)\n    tag_427:\n      pop\n        /* \"contracts/proposalsAndRequests.sol\":9373:9394  reducedActiveRequests */\n      dup1\n        /* \"contracts/proposalsAndRequests.sol\":9366:9394  return reducedActiveRequests */\n      swap5\n      pop\n      pop\n      pop\n      pop\n      pop\n        /* \"contracts/proposalsAndRequests.sol\":8654:9397  function getActiveRequestsByProposal(uint256 proposalId) public view returns (BuyerRequest[] memory) {... */\n      swap2\n      swap1\n      pop\n      jump\t// out\n        /* \"contracts/proposalsAndRequests.sol\":327:386  ICompletedTransactions public completedTransactionsContract */\n    tag_139:\n      0x02\n      0x00\n      swap1\n      sload\n      swap1\n      0x0100\n      exp\n      swap1\n      div\n      0xffffffffffffffffffffffffffffffffffffffff\n      and\n      dup2\n      jump\t// out\n        /* \"contracts/proposalsAndRequests.sol\":7373:7553  function getBuyerRequest(uint256 proposalId, uint256 buyerRequestIndex) ... */\n    tag_144:\n        /* \"contracts/proposalsAndRequests.sol\":7471:7490  BuyerRequest memory */\n      tag_434\n      tag_249\n      jump\t// in\n    tag_434:\n        /* \"contracts/proposalsAndRequests.sol\":7506:7519  buyerRequests */\n      0x09\n        /* \"contracts/proposalsAndRequests.sol\":7506:7531  buyerRequests[proposalId] */\n      0x00\n        /* \"contracts/proposalsAndRequests.sol\":7520:7530  proposalId */\n      dup5\n        /* \"contracts/proposalsAndRequests.sol\":7506:7531  buyerRequests[proposalId] */\n      dup2\n      mstore\n      0x20\n      add\n      swap1\n      dup2\n      mstore\n      0x20\n      add\n      0x00\n      keccak256\n        /* \"contracts/proposalsAndRequests.sol\":7506:7550  buyerRequests[proposalId][buyerRequestIndex] */\n      0x00\n        /* \"contracts/proposalsAndRequests.sol\":7532:7549  buyerRequestIndex */\n      dup4\n        /* \"contracts/proposalsAndRequests.sol\":7506:7550  buyerRequests[proposalId][buyerRequestIndex] */\n      dup2\n      mstore\n      0x20\n      add\n      swap1\n      dup2\n      mstore\n      0x20\n      add\n      0x00\n      keccak256\n        /* \"contracts/proposalsAndRequests.sol\":7499:7550  return buyerRequests[proposalId][buyerRequestIndex] */\n      mload(0x40)\n      dup1\n      0x0180\n      add\n      0x40\n      mstore\n      swap1\n      dup2\n      0x00\n      dup3\n      add\n      sload\n      dup2\n      mstore\n      0x20\n      add\n      0x01\n      dup3\n      add\n      sload\n      dup2\n      mstore\n      0x20\n      add\n      0x02\n      dup3\n      add\n      sload\n      dup2\n      mstore\n      0x20\n      add\n      0x03\n      dup3\n      add\n      sload\n      dup2\n      mstore\n      0x20\n      add\n      0x04\n      dup3\n      add\n      0x00\n      swap1\n      sload\n      swap1\n      0x0100\n      exp\n      swap1\n      div\n      0xffffffffffffffffffffffffffffffffffffffff\n      and\n      0xffffffffffffffffffffffffffffffffffffffff\n      and\n      0xffffffffffffffffffffffffffffffffffffffff\n      and\n      dup2\n      mstore\n      0x20\n      add\n      0x04\n      dup3\n      add\n      0x14\n      swap1\n      sload\n      swap1\n      0x0100\n      exp\n      swap1\n      div\n      0xff\n      and\n      iszero\n      iszero\n      iszero\n      iszero\n      dup2\n      mstore\n      0x20\n      add\n      0x04\n      dup3\n      add\n      0x15\n      swap1\n      sload\n      swap1\n      0x0100\n      exp\n      swap1\n      div\n      0xff\n      and\n      iszero\n      iszero\n      iszero\n      iszero\n      dup2\n      mstore\n      0x20\n      add\n      0x04\n      dup3\n      add\n      0x16\n      swap1\n      sload\n      swap1\n      0x0100\n      exp\n      swap1\n      div\n      0xff\n      and\n      iszero\n      iszero\n      iszero\n      iszero\n      dup2\n      mstore\n      0x20\n      add\n      0x04\n      dup3\n      add\n      0x17\n      swap1\n      sload\n      swap1\n      0x0100\n      exp\n      swap1\n      div\n      0xff\n      and\n      iszero\n      iszero\n      iszero\n      iszero\n      dup2\n      mstore\n      0x20\n      add\n      0x04\n      dup3\n      add\n      0x18\n      swap1\n      sload\n      swap1\n      0x0100\n      exp\n      swap1\n      div\n      0xff\n      and\n      iszero\n      iszero\n      iszero\n      iszero\n      dup2\n      mstore\n      0x20\n      add\n      0x04\n      dup3\n      add\n      0x19\n      swap1\n      sload\n      swap1\n      0x0100\n      exp\n      swap1\n      div\n      0xff\n      and\n      iszero\n      iszero\n      iszero\n      iszero\n      dup2\n      mstore\n      0x20\n      add\n      0x04\n      dup3\n      add\n      0x1a\n      swap1\n      sload\n      swap1\n      0x0100\n      exp\n      swap1\n      div\n      0xff\n      and\n      iszero\n      iszero\n      iszero\n      iszero\n      dup2\n      mstore\n      pop\n      pop\n      swap1\n      pop\n        /* \"contracts/proposalsAndRequests.sol\":7373:7553  function getBuyerRequest(uint256 proposalId, uint256 buyerRequestIndex) ... */\n      swap3\n      swap2\n      pop\n      pop\n      jump\t// out\n        /* \"contracts/proposalsAndRequests.sol\":3474:3561  function getProposalCount() public view returns (uint256) {... */\n    tag_148:\n        /* \"contracts/proposalsAndRequests.sol\":3523:3530  uint256 */\n      0x00\n        /* \"contracts/proposalsAndRequests.sol\":3545:3558  proposalCount */\n      sload(0x05)\n        /* \"contracts/proposalsAndRequests.sol\":3538:3558  return proposalCount */\n      swap1\n      pop\n        /* \"contracts/proposalsAndRequests.sol\":3474:3561  function getProposalCount() public view returns (uint256) {... */\n      swap1\n      jump\t// out\n        /* \"contracts/proposalsAndRequests.sol\":3356:3472  function getProposal(uint256 proposalId) public view returns (Proposal memory) {... */\n    tag_152:\n        /* \"contracts/proposalsAndRequests.sol\":3418:3433  Proposal memory */\n      tag_437\n      tag_438\n      jump\t// in\n    tag_437:\n        /* \"contracts/proposalsAndRequests.sol\":3448:3457  proposals */\n      0x03\n        /* \"contracts/proposalsAndRequests.sol\":3448:3469  proposals[proposalId] */\n      0x00\n        /* \"contracts/proposalsAndRequests.sol\":3458:3468  proposalId */\n      dup4\n        /* \"contracts/proposalsAndRequests.sol\":3448:3469  proposals[proposalId] */\n      dup2\n      mstore\n      0x20\n      add\n      swap1\n      dup2\n      mstore\n      0x20\n      add\n      0x00\n      keccak256\n        /* \"contracts/proposalsAndRequests.sol\":3441:3469  return proposals[proposalId] */\n      mload(0x40)\n      dup1\n      0x0180\n      add\n      0x40\n      mstore\n      swap1\n      dup2\n      0x00\n      dup3\n      add\n      sload\n      dup2\n      mstore\n      0x20\n      add\n      0x01\n      dup3\n      add\n      sload\n      dup2\n      mstore\n      0x20\n      add\n      0x02\n      dup3\n      add\n      sload\n      dup2\n      mstore\n      0x20\n      add\n      0x03\n      dup3\n      add\n      sload\n      dup2\n      mstore\n      0x20\n      add\n      0x04\n      dup3\n      add\n      dup1\n      sload\n      tag_440\n      swap1\n      tag_183\n      jump\t// in\n    tag_440:\n      dup1\n      0x1f\n      add\n      0x20\n      dup1\n      swap2\n      div\n      mul\n      0x20\n      add\n      mload(0x40)\n      swap1\n      dup2\n      add\n      0x40\n      mstore\n      dup1\n      swap3\n      swap2\n      swap1\n      dup2\n      dup2\n      mstore\n      0x20\n      add\n      dup3\n      dup1\n      sload\n      tag_441\n      swap1\n      tag_183\n      jump\t// in\n    tag_441:\n      dup1\n      iszero\n      tag_442\n      jumpi\n      dup1\n      0x1f\n      lt\n      tag_443\n      jumpi\n      0x0100\n      dup1\n      dup4\n      sload\n      div\n      mul\n      dup4\n      mstore\n      swap2\n      0x20\n      add\n      swap2\n      jump(tag_442)\n    tag_443:\n      dup3\n      add\n      swap2\n      swap1\n      0x00\n      mstore\n      keccak256(0x00, 0x20)\n      swap1\n    tag_444:\n      dup2\n      sload\n      dup2\n      mstore\n      swap1\n      0x01\n      add\n      swap1\n      0x20\n      add\n      dup1\n      dup4\n      gt\n      tag_444\n      jumpi\n      dup3\n      swap1\n      sub\n      0x1f\n      and\n      dup3\n      add\n      swap2\n    tag_442:\n      pop\n      pop\n      pop\n      pop\n      pop\n      dup2\n      mstore\n      0x20\n      add\n      0x05\n      dup3\n      add\n      sload\n      dup2\n      mstore\n      0x20\n      add\n      0x06\n      dup3\n      add\n      dup1\n      sload\n      tag_445\n      swap1\n      tag_183\n      jump\t// in\n    tag_445:\n      dup1\n      0x1f\n      add\n      0x20\n      dup1\n      swap2\n      div\n      mul\n      0x20\n      add\n      mload(0x40)\n      swap1\n      dup2\n      add\n      0x40\n      mstore\n      dup1\n      swap3\n      swap2\n      swap1\n      dup2\n      dup2\n      mstore\n      0x20\n      add\n      dup3\n      dup1\n      sload\n      tag_446\n      swap1\n      tag_183\n      jump\t// in\n    tag_446:\n      dup1\n      iszero\n      tag_447\n      jumpi\n      dup1\n      0x1f\n      lt\n      tag_448\n      jumpi\n      0x0100\n      dup1\n      dup4\n      sload\n      div\n      mul\n      dup4\n      mstore\n      swap2\n      0x20\n      add\n      swap2\n      jump(tag_447)\n    tag_448:\n      dup3\n      add\n      swap2\n      swap1\n      0x00\n      mstore\n      keccak256(0x00, 0x20)\n      swap1\n    tag_449:\n      dup2\n      sload\n      dup2\n      mstore\n      swap1\n      0x01\n      add\n      swap1\n      0x20\n      add\n      dup1\n      dup4\n      gt\n      tag_449\n      jumpi\n      dup3\n      swap1\n      sub\n      0x1f\n      and\n      dup3\n      add\n      swap2\n    tag_447:\n      pop\n      pop\n      pop\n      pop\n      pop\n      dup2\n      mstore\n      0x20\n      add\n      0x07\n      dup3\n      add\n      dup1\n      sload\n      tag_450\n      swap1\n      tag_183\n      jump\t// in\n    tag_450:\n      dup1\n      0x1f\n      add\n      0x20\n      dup1\n      swap2\n      div\n      mul\n      0x20\n      add\n      mload(0x40)\n      swap1\n      dup2\n      add\n      0x40\n      mstore\n      dup1\n      swap3\n      swap2\n      swap1\n      dup2\n      dup2\n      mstore\n      0x20\n      add\n      dup3\n      dup1\n      sload\n      tag_451\n      swap1\n      tag_183\n      jump\t// in\n    tag_451:\n      dup1\n      iszero\n      tag_452\n      jumpi\n      dup1\n      0x1f\n      lt\n      tag_453\n      jumpi\n      0x0100\n      dup1\n      dup4\n      sload\n      div\n      mul\n      dup4\n      mstore\n      swap2\n      0x20\n      add\n      swap2\n      jump(tag_452)\n    tag_453:\n      dup3\n      add\n      swap2\n      swap1\n      0x00\n      mstore\n      keccak256(0x00, 0x20)\n      swap1\n    tag_454:\n      dup2\n      sload\n      dup2\n      mstore\n      swap1\n      0x01\n      add\n      swap1\n      0x20\n      add\n      dup1\n      dup4\n      gt\n      tag_454\n      jumpi\n      dup3\n      swap1\n      sub\n      0x1f\n      and\n      dup3\n      add\n      swap2\n    tag_452:\n      pop\n      pop\n      pop\n      pop\n      pop\n      dup2\n      mstore\n      0x20\n      add\n      0x08\n      dup3\n      add\n      0x00\n      swap1\n      sload\n      swap1\n      0x0100\n      exp\n      swap1\n      div\n      0xff\n      and\n      iszero\n      iszero\n      iszero\n      iszero\n      dup2\n      mstore\n      0x20\n      add\n      0x08\n      dup3\n      add\n      0x01\n      swap1\n      sload\n      swap1\n      0x0100\n      exp\n      swap1\n      div\n      0xffffffffffffffffffffffffffffffffffffffff\n      and\n      0xffffffffffffffffffffffffffffffffffffffff\n      and\n      0xffffffffffffffffffffffffffffffffffffffff\n      and\n      dup2\n      mstore\n      0x20\n      add\n      0x09\n      dup3\n      add\n      sload\n      dup2\n      mstore\n      0x20\n      add\n      0x0a\n      dup3\n      add\n      sload\n      dup2\n      mstore\n      pop\n      pop\n      swap1\n      pop\n        /* \"contracts/proposalsAndRequests.sol\":3356:3472  function getProposal(uint256 proposalId) public view returns (Proposal memory) {... */\n      swap2\n      swap1\n      pop\n      jump\t// out\n        /* \"contracts/proposalsAndRequests.sol\":6331:7370  function requestToBuy(uint256 proposalId, uint256 amount, address buyer)... */\n    tag_158:\n        /* \"contracts/proposalsAndRequests.sol\":6446:6456  proposalId */\n      dup3\n        /* \"contracts/proposalsAndRequests.sol\":1831:1840  proposals */\n      0x03\n        /* \"contracts/proposalsAndRequests.sol\":1831:1852  proposals[proposalId] */\n      0x00\n        /* \"contracts/proposalsAndRequests.sol\":1841:1851  proposalId */\n      dup3\n        /* \"contracts/proposalsAndRequests.sol\":1831:1852  proposals[proposalId] */\n      dup2\n      mstore\n      0x20\n      add\n      swap1\n      dup2\n      mstore\n      0x20\n      add\n      0x00\n      keccak256\n        /* \"contracts/proposalsAndRequests.sol\":1831:1859  proposals[proposalId].active */\n      0x08\n      add\n      0x00\n      swap1\n      sload\n      swap1\n      0x0100\n      exp\n      swap1\n      div\n      0xff\n      and\n        /* \"contracts/proposalsAndRequests.sol\":1823:1886  require(proposals[proposalId].active, \"Proposal is not active\") */\n      tag_456\n      jumpi\n      mload(0x40)\n      0x08c379a000000000000000000000000000000000000000000000000000000000\n      dup2\n      mstore\n      0x04\n      add\n      tag_457\n      swap1\n      tag_208\n      jump\t// in\n    tag_457:\n      mload(0x40)\n      dup1\n      swap2\n      sub\n      swap1\n      revert\n    tag_456:\n        /* \"contracts/proposalsAndRequests.sol\":1962:1974  mainContract */\n      0x01\n      0x00\n      swap1\n      sload\n      swap1\n      0x0100\n      exp\n      swap1\n      div\n      0xffffffffffffffffffffffffffffffffffffffff\n      and\n        /* \"contracts/proposalsAndRequests.sol\":1948:1974  msg.sender == mainContract */\n      0xffffffffffffffffffffffffffffffffffffffff\n      and\n        /* \"contracts/proposalsAndRequests.sol\":1948:1958  msg.sender */\n      caller\n        /* \"contracts/proposalsAndRequests.sol\":1948:1974  msg.sender == mainContract */\n      0xffffffffffffffffffffffffffffffffffffffff\n      and\n      eq\n        /* \"contracts/proposalsAndRequests.sol\":1940:2010  require(msg.sender == mainContract, \"Caller is not the main contract\") */\n      tag_459\n      jumpi\n      mload(0x40)\n      0x08c379a000000000000000000000000000000000000000000000000000000000\n      dup2\n      mstore\n      0x04\n      add\n      tag_460\n      swap1\n      tag_201\n      jump\t// in\n    tag_460:\n      mload(0x40)\n      dup1\n      swap2\n      sub\n      swap1\n      revert\n    tag_459:\n        /* \"contracts/proposalsAndRequests.sol\":6497:6522  uint256 buyerRequestIndex */\n      0x00\n        /* \"contracts/proposalsAndRequests.sol\":6525:6544  buyerRequestsLength */\n      0x0b\n        /* \"contracts/proposalsAndRequests.sol\":6525:6556  buyerRequestsLength[proposalId] */\n      0x00\n        /* \"contracts/proposalsAndRequests.sol\":6545:6555  proposalId */\n      dup7\n        /* \"contracts/proposalsAndRequests.sol\":6525:6556  buyerRequestsLength[proposalId] */\n      dup2\n      mstore\n      0x20\n      add\n      swap1\n      dup2\n      mstore\n      0x20\n      add\n      0x00\n      keccak256\n      sload\n        /* \"contracts/proposalsAndRequests.sol\":6497:6556  uint256 buyerRequestIndex = buyerRequestsLength[proposalId] */\n      swap1\n      pop\n        /* \"contracts/proposalsAndRequests.sol\":6568:6600  BuyerRequest memory buyerRequest */\n      0x00\n        /* \"contracts/proposalsAndRequests.sol\":6603:7058  BuyerRequest({... */\n      mload(0x40)\n      dup1\n      0x0180\n      add\n      0x40\n      mstore\n      dup1\n        /* \"contracts/proposalsAndRequests.sol\":6649:6666  buyerRequestIndex */\n      dup4\n        /* \"contracts/proposalsAndRequests.sol\":6603:7058  BuyerRequest({... */\n      dup2\n      mstore\n      0x20\n      add\n        /* \"contracts/proposalsAndRequests.sol\":6692:6702  proposalId */\n      dup8\n        /* \"contracts/proposalsAndRequests.sol\":6603:7058  BuyerRequest({... */\n      dup2\n      mstore\n      0x20\n      add\n        /* \"contracts/proposalsAndRequests.sol\":6724:6730  amount */\n      dup7\n        /* \"contracts/proposalsAndRequests.sol\":6603:7058  BuyerRequest({... */\n      dup2\n      mstore\n      0x20\n      add\n        /* \"contracts/proposalsAndRequests.sol\":6750:6765  block.timestamp */\n      timestamp\n        /* \"contracts/proposalsAndRequests.sol\":6603:7058  BuyerRequest({... */\n      dup2\n      mstore\n      0x20\n      add\n        /* \"contracts/proposalsAndRequests.sol\":6786:6791  buyer */\n      dup6\n        /* \"contracts/proposalsAndRequests.sol\":6603:7058  BuyerRequest({... */\n      0xffffffffffffffffffffffffffffffffffffffff\n      and\n      dup2\n      mstore\n      0x20\n      add\n        /* \"contracts/proposalsAndRequests.sol\":6815:6820  false */\n      0x00\n        /* \"contracts/proposalsAndRequests.sol\":6603:7058  BuyerRequest({... */\n      iszero\n      iszero\n      dup2\n      mstore\n      0x20\n      add\n        /* \"contracts/proposalsAndRequests.sol\":6852:6857  false */\n      0x00\n        /* \"contracts/proposalsAndRequests.sol\":6603:7058  BuyerRequest({... */\n      iszero\n      iszero\n      dup2\n      mstore\n      0x20\n      add\n        /* \"contracts/proposalsAndRequests.sol\":6981:6986  false */\n      0x00\n        /* \"contracts/proposalsAndRequests.sol\":6603:7058  BuyerRequest({... */\n      iszero\n      iszero\n      dup2\n      mstore\n      0x20\n      add\n        /* \"contracts/proposalsAndRequests.sol\":6896:6901  false */\n      0x00\n        /* \"contracts/proposalsAndRequests.sol\":6603:7058  BuyerRequest({... */\n      iszero\n      iszero\n      dup2\n      mstore\n      0x20\n      add\n        /* \"contracts/proposalsAndRequests.sol\":6940:6945  false */\n      0x00\n        /* \"contracts/proposalsAndRequests.sol\":6603:7058  BuyerRequest({... */\n      iszero\n      iszero\n      dup2\n      mstore\n      0x20\n      add\n        /* \"contracts/proposalsAndRequests.sol\":7016:7021  false */\n      0x00\n        /* \"contracts/proposalsAndRequests.sol\":6603:7058  BuyerRequest({... */\n      iszero\n      iszero\n      dup2\n      mstore\n      0x20\n      add\n        /* \"contracts/proposalsAndRequests.sol\":7043:7047  true */\n      0x01\n        /* \"contracts/proposalsAndRequests.sol\":6603:7058  BuyerRequest({... */\n      iszero\n      iszero\n      dup2\n      mstore\n      pop\n        /* \"contracts/proposalsAndRequests.sol\":6568:7058  BuyerRequest memory buyerRequest = BuyerRequest({... */\n      swap1\n      pop\n        /* \"contracts/proposalsAndRequests.sol\":7176:7188  buyerRequest */\n      dup1\n        /* \"contracts/proposalsAndRequests.sol\":7129:7142  buyerRequests */\n      0x09\n        /* \"contracts/proposalsAndRequests.sol\":7129:7154  buyerRequests[proposalId] */\n      0x00\n        /* \"contracts/proposalsAndRequests.sol\":7143:7153  proposalId */\n      dup9\n        /* \"contracts/proposalsAndRequests.sol\":7129:7154  buyerRequests[proposalId] */\n      dup2\n      mstore\n      0x20\n      add\n      swap1\n      dup2\n      mstore\n      0x20\n      add\n      0x00\n      keccak256\n        /* \"contracts/proposalsAndRequests.sol\":7129:7173  buyerRequests[proposalId][buyerRequestIndex] */\n      0x00\n        /* \"contracts/proposalsAndRequests.sol\":7155:7172  buyerRequestIndex */\n      dup5\n        /* \"contracts/proposalsAndRequests.sol\":7129:7173  buyerRequests[proposalId][buyerRequestIndex] */\n      dup2\n      mstore\n      0x20\n      add\n      swap1\n      dup2\n      mstore\n      0x20\n      add\n      0x00\n      keccak256\n        /* \"contracts/proposalsAndRequests.sol\":7129:7188  buyerRequests[proposalId][buyerRequestIndex] = buyerRequest */\n      0x00\n      dup3\n      add\n      mload\n      dup2\n      0x00\n      add\n      sstore\n      0x20\n      dup3\n      add\n      mload\n      dup2\n      0x01\n      add\n      sstore\n      0x40\n      dup3\n      add\n      mload\n      dup2\n      0x02\n      add\n      sstore\n      0x60\n      dup3\n      add\n      mload\n      dup2\n      0x03\n      add\n      sstore\n      0x80\n      dup3\n      add\n      mload\n      dup2\n      0x04\n      add\n      exp(0x0100, 0x00)\n      dup2\n      sload\n      dup2\n      0xffffffffffffffffffffffffffffffffffffffff\n      mul\n      not\n      and\n      swap1\n      dup4\n      0xffffffffffffffffffffffffffffffffffffffff\n      and\n      mul\n      or\n      swap1\n      sstore\n      pop\n      0xa0\n      dup3\n      add\n      mload\n      dup2\n      0x04\n      add\n      exp(0x0100, 0x14)\n      dup2\n      sload\n      dup2\n      0xff\n      mul\n      not\n      and\n      swap1\n      dup4\n      iszero\n      iszero\n      mul\n      or\n      swap1\n      sstore\n      pop\n      0xc0\n      dup3\n      add\n      mload\n      dup2\n      0x04\n      add\n      exp(0x0100, 0x15)\n      dup2\n      sload\n      dup2\n      0xff\n      mul\n      not\n      and\n      swap1\n      dup4\n      iszero\n      iszero\n      mul\n      or\n      swap1\n      sstore\n      pop\n      0xe0\n      dup3\n      add\n      mload\n      dup2\n      0x04\n      add\n      exp(0x0100, 0x16)\n      dup2\n      sload\n      dup2\n      0xff\n      mul\n      not\n      and\n      swap1\n      dup4\n      iszero\n      iszero\n      mul\n      or\n      swap1\n      sstore\n      pop\n      0x0100\n      dup3\n      add\n      mload\n      dup2\n      0x04\n      add\n      exp(0x0100, 0x17)\n      dup2\n      sload\n      dup2\n      0xff\n      mul\n      not\n      and\n      swap1\n      dup4\n      iszero\n      iszero\n      mul\n      or\n      swap1\n      sstore\n      pop\n      0x0120\n      dup3\n      add\n      mload\n      dup2\n      0x04\n      add\n      exp(0x0100, 0x18)\n      dup2\n      sload\n      dup2\n      0xff\n      mul\n      not\n      and\n      swap1\n      dup4\n      iszero\n      iszero\n      mul\n      or\n      swap1\n      sstore\n      pop\n      0x0140\n      dup3\n      add\n      mload\n      dup2\n      0x04\n      add\n      exp(0x0100, 0x19)\n      dup2\n      sload\n      dup2\n      0xff\n      mul\n      not\n      and\n      swap1\n      dup4\n      iszero\n      iszero\n      mul\n      or\n      swap1\n      sstore\n      pop\n      0x0160\n      dup3\n      add\n      mload\n      dup2\n      0x04\n      add\n      exp(0x0100, 0x1a)\n      dup2\n      sload\n      dup2\n      0xff\n      mul\n      not\n      and\n      swap1\n      dup4\n      iszero\n      iszero\n      mul\n      or\n      swap1\n      sstore\n      pop\n      swap1\n      pop\n      pop\n        /* \"contracts/proposalsAndRequests.sol\":7198:7224  buyerRequestIndicesByBuyer */\n      0x0a\n        /* \"contracts/proposalsAndRequests.sol\":7198:7231  buyerRequestIndicesByBuyer[buyer] */\n      0x00\n        /* \"contracts/proposalsAndRequests.sol\":7225:7230  buyer */\n      dup6\n        /* \"contracts/proposalsAndRequests.sol\":7198:7231  buyerRequestIndicesByBuyer[buyer] */\n      0xffffffffffffffffffffffffffffffffffffffff\n      and\n      0xffffffffffffffffffffffffffffffffffffffff\n      and\n      dup2\n      mstore\n      0x20\n      add\n      swap1\n      dup2\n      mstore\n      0x20\n      add\n      0x00\n      keccak256\n        /* \"contracts/proposalsAndRequests.sol\":7237:7313  RequestIndex({proposalId: proposalId, buyerRequestIndex: buyerRequestIndex}) */\n      mload(0x40)\n      dup1\n      0x40\n      add\n      0x40\n      mstore\n      dup1\n        /* \"contracts/proposalsAndRequests.sol\":7263:7273  proposalId */\n      dup9\n        /* \"contracts/proposalsAndRequests.sol\":7237:7313  RequestIndex({proposalId: proposalId, buyerRequestIndex: buyerRequestIndex}) */\n      dup2\n      mstore\n      0x20\n      add\n        /* \"contracts/proposalsAndRequests.sol\":7294:7311  buyerRequestIndex */\n      dup5\n        /* \"contracts/proposalsAndRequests.sol\":7237:7313  RequestIndex({proposalId: proposalId, buyerRequestIndex: buyerRequestIndex}) */\n      dup2\n      mstore\n      pop\n        /* \"contracts/proposalsAndRequests.sol\":7198:7314  buyerRequestIndicesByBuyer[buyer].push(RequestIndex({proposalId: proposalId, buyerRequestIndex: buyerRequestIndex})) */\n      swap1\n      dup1\n      0x01\n      dup2\n      sload\n      add\n      dup1\n      dup3\n      sstore\n      dup1\n      swap2\n      pop\n      pop\n      0x01\n      swap1\n      sub\n      swap1\n      0x00\n      mstore\n      keccak256(0x00, 0x20)\n      swap1\n      0x02\n      mul\n      add\n      0x00\n      swap1\n      swap2\n      swap1\n      swap2\n      swap1\n      swap2\n      pop\n      0x00\n      dup3\n      add\n      mload\n      dup2\n      0x00\n      add\n      sstore\n      0x20\n      dup3\n      add\n      mload\n      dup2\n      0x01\n      add\n      sstore\n      pop\n      pop\n        /* \"contracts/proposalsAndRequests.sol\":7324:7343  buyerRequestsLength */\n      0x0b\n        /* \"contracts/proposalsAndRequests.sol\":7324:7355  buyerRequestsLength[proposalId] */\n      0x00\n        /* \"contracts/proposalsAndRequests.sol\":7344:7354  proposalId */\n      dup8\n        /* \"contracts/proposalsAndRequests.sol\":7324:7355  buyerRequestsLength[proposalId] */\n      dup2\n      mstore\n      0x20\n      add\n      swap1\n      dup2\n      mstore\n      0x20\n      add\n      0x00\n      keccak256\n      0x00\n        /* \"contracts/proposalsAndRequests.sol\":7324:7357  buyerRequestsLength[proposalId]++ */\n      dup2\n      sload\n      dup1\n      swap3\n      swap2\n      swap1\n      tag_463\n      swap1\n      tag_264\n      jump\t// in\n    tag_463:\n      swap2\n      swap1\n      pop\n      sstore\n      pop\n        /* \"contracts/proposalsAndRequests.sol\":6487:7370  {... */\n      pop\n      pop\n        /* \"contracts/proposalsAndRequests.sol\":6331:7370  function requestToBuy(uint256 proposalId, uint256 amount, address buyer)... */\n      pop\n      pop\n      pop\n      pop\n      jump\t// out\n        /* \"contracts/proposalsAndRequests.sol\":298:325  address public mainContract */\n    tag_160:\n      0x01\n      0x00\n      swap1\n      sload\n      swap1\n      0x0100\n      exp\n      swap1\n      div\n      0xffffffffffffffffffffffffffffffffffffffff\n      and\n      dup2\n      jump\t// out\n        /* \"contracts/proposalsAndRequests.sol\":1469:1542  mapping(uint256 => mapping(uint256 => BuyerRequest)) public buyerRequests */\n    tag_164:\n      mstore(0x20, 0x09)\n      dup2\n      0x00\n      mstore\n      mstore(0x20, keccak256(0x00, 0x40))\n      dup1\n      0x00\n      mstore\n      keccak256(0x00, 0x40)\n      0x00\n      swap2\n      pop\n      swap2\n      pop\n      pop\n      dup1\n      0x00\n      add\n      sload\n      swap1\n      dup1\n      0x01\n      add\n      sload\n      swap1\n      dup1\n      0x02\n      add\n      sload\n      swap1\n      dup1\n      0x03\n      add\n      sload\n      swap1\n      dup1\n      0x04\n      add\n      0x00\n      swap1\n      sload\n      swap1\n      0x0100\n      exp\n      swap1\n      div\n      0xffffffffffffffffffffffffffffffffffffffff\n      and\n      swap1\n      dup1\n      0x04\n      add\n      0x14\n      swap1\n      sload\n      swap1\n      0x0100\n      exp\n      swap1\n      div\n      0xff\n      and\n      swap1\n      dup1\n      0x04\n      add\n      0x15\n      swap1\n      sload\n      swap1\n      0x0100\n      exp\n      swap1\n      div\n      0xff\n      and\n      swap1\n      dup1\n      0x04\n      add\n      0x16\n      swap1\n      sload\n      swap1\n      0x0100\n      exp\n      swap1\n      div\n      0xff\n      and\n      swap1\n      dup1\n      0x04\n      add\n      0x17\n      swap1\n      sload\n      swap1\n      0x0100\n      exp\n      swap1\n      div\n      0xff\n      and\n      swap1\n      dup1\n      0x04\n      add\n      0x18\n      swap1\n      sload\n      swap1\n      0x0100\n      exp\n      swap1\n      div\n      0xff\n      and\n      swap1\n      dup1\n      0x04\n      add\n      0x19\n      swap1\n      sload\n      swap1\n      0x0100\n      exp\n      swap1\n      div\n      0xff\n      and\n      swap1\n      dup1\n      0x04\n      add\n      0x1a\n      swap1\n      sload\n      swap1\n      0x0100\n      exp\n      swap1\n      div\n      0xff\n      and\n      swap1\n      pop\n      dup13\n      jump\t// out\n        /* \"contracts/proposalsAndRequests.sol\":849:881  uint256 public proposalCount = 0 */\n    tag_168:\n      sload(0x05)\n      dup2\n      jump\t// out\n        /* \"contracts/proposalsAndRequests.sol\":9401:9709  function deactivateBuyerRequest (uint256 proposalId, uint256 buyerRequestIndex) public onlyMainContract {... */\n    tag_172:\n        /* \"contracts/proposalsAndRequests.sol\":1962:1974  mainContract */\n      0x01\n      0x00\n      swap1\n      sload\n      swap1\n      0x0100\n      exp\n      swap1\n      div\n      0xffffffffffffffffffffffffffffffffffffffff\n      and\n        /* \"contracts/proposalsAndRequests.sol\":1948:1974  msg.sender == mainContract */\n      0xffffffffffffffffffffffffffffffffffffffff\n      and\n        /* \"contracts/proposalsAndRequests.sol\":1948:1958  msg.sender */\n      caller\n        /* \"contracts/proposalsAndRequests.sol\":1948:1974  msg.sender == mainContract */\n      0xffffffffffffffffffffffffffffffffffffffff\n      and\n      eq\n        /* \"contracts/proposalsAndRequests.sol\":1940:2010  require(msg.sender == mainContract, \"Caller is not the main contract\") */\n      tag_465\n      jumpi\n      mload(0x40)\n      0x08c379a000000000000000000000000000000000000000000000000000000000\n      dup2\n      mstore\n      0x04\n      add\n      tag_466\n      swap1\n      tag_201\n      jump\t// in\n    tag_466:\n      mload(0x40)\n      dup1\n      swap2\n      sub\n      swap1\n      revert\n    tag_465:\n        /* \"contracts/proposalsAndRequests.sol\":9524:9537  buyerRequests */\n      0x09\n        /* \"contracts/proposalsAndRequests.sol\":9524:9549  buyerRequests[proposalId] */\n      0x00\n        /* \"contracts/proposalsAndRequests.sol\":9538:9548  proposalId */\n      dup4\n        /* \"contracts/proposalsAndRequests.sol\":9524:9549  buyerRequests[proposalId] */\n      dup2\n      mstore\n      0x20\n      add\n      swap1\n      dup2\n      mstore\n      0x20\n      add\n      0x00\n      keccak256\n        /* \"contracts/proposalsAndRequests.sol\":9524:9568  buyerRequests[proposalId][buyerRequestIndex] */\n      0x00\n        /* \"contracts/proposalsAndRequests.sol\":9550:9567  buyerRequestIndex */\n      dup3\n        /* \"contracts/proposalsAndRequests.sol\":9524:9568  buyerRequests[proposalId][buyerRequestIndex] */\n      dup2\n      mstore\n      0x20\n      add\n      swap1\n      dup2\n      mstore\n      0x20\n      add\n      0x00\n      keccak256\n        /* \"contracts/proposalsAndRequests.sol\":9524:9577  buyerRequests[proposalId][buyerRequestIndex].accepted */\n      0x04\n      add\n      0x14\n      swap1\n      sload\n      swap1\n      0x0100\n      exp\n      swap1\n      div\n      0xff\n      and\n        /* \"contracts/proposalsAndRequests.sol\":9523:9577  !buyerRequests[proposalId][buyerRequestIndex].accepted */\n      iszero\n        /* \"contracts/proposalsAndRequests.sol\":9515:9629  require(!buyerRequests[proposalId][buyerRequestIndex].accepted, \"Cannot deactivate request after seller accepted\") */\n      tag_468\n      jumpi\n      mload(0x40)\n      0x08c379a000000000000000000000000000000000000000000000000000000000\n      dup2\n      mstore\n      0x04\n      add\n      tag_469\n      swap1\n      tag_470\n      jump\t// in\n    tag_469:\n      mload(0x40)\n      dup1\n      swap2\n      sub\n      swap1\n      revert\n    tag_468:\n        /* \"contracts/proposalsAndRequests.sol\":9693:9698  false */\n      0x00\n        /* \"contracts/proposalsAndRequests.sol\":9639:9652  buyerRequests */\n      0x09\n        /* \"contracts/proposalsAndRequests.sol\":9639:9664  buyerRequests[proposalId] */\n      0x00\n        /* \"contracts/proposalsAndRequests.sol\":9653:9663  proposalId */\n      dup5\n        /* \"contracts/proposalsAndRequests.sol\":9639:9664  buyerRequests[proposalId] */\n      dup2\n      mstore\n      0x20\n      add\n      swap1\n      dup2\n      mstore\n      0x20\n      add\n      0x00\n      keccak256\n        /* \"contracts/proposalsAndRequests.sol\":9639:9683  buyerRequests[proposalId][buyerRequestIndex] */\n      0x00\n        /* \"contracts/proposalsAndRequests.sol\":9665:9682  buyerRequestIndex */\n      dup4\n        /* \"contracts/proposalsAndRequests.sol\":9639:9683  buyerRequests[proposalId][buyerRequestIndex] */\n      dup2\n      mstore\n      0x20\n      add\n      swap1\n      dup2\n      mstore\n      0x20\n      add\n      0x00\n      keccak256\n        /* \"contracts/proposalsAndRequests.sol\":9639:9690  buyerRequests[proposalId][buyerRequestIndex].active */\n      0x04\n      add\n      0x1a\n        /* \"contracts/proposalsAndRequests.sol\":9639:9698  buyerRequests[proposalId][buyerRequestIndex].active = false */\n      0x0100\n      exp\n      dup2\n      sload\n      dup2\n      0xff\n      mul\n      not\n      and\n      swap1\n      dup4\n      iszero\n      iszero\n      mul\n      or\n      swap1\n      sstore\n      pop\n        /* \"contracts/proposalsAndRequests.sol\":9401:9709  function deactivateBuyerRequest (uint256 proposalId, uint256 buyerRequestIndex) public onlyMainContract {... */\n      pop\n      pop\n      jump\t// out\n        /* \"contracts/proposalsAndRequests.sol\":11107:12285  function changeProposalAndRequestDataUponCryptoRelease(uint256 proposalId, uint256 buyerRequestIndex, uint256 amount)... */\n    tag_175:\n        /* \"contracts/proposalsAndRequests.sol\":11269:11279  proposalId */\n      dup3\n        /* \"contracts/proposalsAndRequests.sol\":1831:1840  proposals */\n      0x03\n        /* \"contracts/proposalsAndRequests.sol\":1831:1852  proposals[proposalId] */\n      0x00\n        /* \"contracts/proposalsAndRequests.sol\":1841:1851  proposalId */\n      dup3\n        /* \"contracts/proposalsAndRequests.sol\":1831:1852  proposals[proposalId] */\n      dup2\n      mstore\n      0x20\n      add\n      swap1\n      dup2\n      mstore\n      0x20\n      add\n      0x00\n      keccak256\n        /* \"contracts/proposalsAndRequests.sol\":1831:1859  proposals[proposalId].active */\n      0x08\n      add\n      0x00\n      swap1\n      sload\n      swap1\n      0x0100\n      exp\n      swap1\n      div\n      0xff\n      and\n        /* \"contracts/proposalsAndRequests.sol\":1823:1886  require(proposals[proposalId].active, \"Proposal is not active\") */\n      tag_472\n      jumpi\n      mload(0x40)\n      0x08c379a000000000000000000000000000000000000000000000000000000000\n      dup2\n      mstore\n      0x04\n      add\n      tag_473\n      swap1\n      tag_208\n      jump\t// in\n    tag_473:\n      mload(0x40)\n      dup1\n      swap2\n      sub\n      swap1\n      revert\n    tag_472:\n        /* \"contracts/proposalsAndRequests.sol\":1962:1974  mainContract */\n      0x01\n      0x00\n      swap1\n      sload\n      swap1\n      0x0100\n      exp\n      swap1\n      div\n      0xffffffffffffffffffffffffffffffffffffffff\n      and\n        /* \"contracts/proposalsAndRequests.sol\":1948:1974  msg.sender == mainContract */\n      0xffffffffffffffffffffffffffffffffffffffff\n      and\n        /* \"contracts/proposalsAndRequests.sol\":1948:1958  msg.sender */\n      caller\n        /* \"contracts/proposalsAndRequests.sol\":1948:1974  msg.sender == mainContract */\n      0xffffffffffffffffffffffffffffffffffffffff\n      and\n      eq\n        /* \"contracts/proposalsAndRequests.sol\":1940:2010  require(msg.sender == mainContract, \"Caller is not the main contract\") */\n      tag_475\n      jumpi\n      mload(0x40)\n      0x08c379a000000000000000000000000000000000000000000000000000000000\n      dup2\n      mstore\n      0x04\n      add\n      tag_476\n      swap1\n      tag_201\n      jump\t// in\n    tag_476:\n      mload(0x40)\n      dup1\n      swap2\n      sub\n      swap1\n      revert\n    tag_475:\n        /* \"contracts/proposalsAndRequests.sol\":11385:11389  true */\n      0x01\n        /* \"contracts/proposalsAndRequests.sol\":11317:11330  buyerRequests */\n      0x09\n        /* \"contracts/proposalsAndRequests.sol\":11317:11342  buyerRequests[proposalId] */\n      0x00\n        /* \"contracts/proposalsAndRequests.sol\":11331:11341  proposalId */\n      dup7\n        /* \"contracts/proposalsAndRequests.sol\":11317:11342  buyerRequests[proposalId] */\n      dup2\n      mstore\n      0x20\n      add\n      swap1\n      dup2\n      mstore\n      0x20\n      add\n      0x00\n      keccak256\n        /* \"contracts/proposalsAndRequests.sol\":11317:11361  buyerRequests[proposalId][buyerRequestIndex] */\n      0x00\n        /* \"contracts/proposalsAndRequests.sol\":11343:11360  buyerRequestIndex */\n      dup6\n        /* \"contracts/proposalsAndRequests.sol\":11317:11361  buyerRequests[proposalId][buyerRequestIndex] */\n      dup2\n      mstore\n      0x20\n      add\n      swap1\n      dup2\n      mstore\n      0x20\n      add\n      0x00\n      keccak256\n        /* \"contracts/proposalsAndRequests.sol\":11317:11382  buyerRequests[proposalId][buyerRequestIndex].transactionCompleted */\n      0x04\n      add\n      0x16\n        /* \"contracts/proposalsAndRequests.sol\":11317:11389  buyerRequests[proposalId][buyerRequestIndex].transactionCompleted = true */\n      0x0100\n      exp\n      dup2\n      sload\n      dup2\n      0xff\n      mul\n      not\n      and\n      swap1\n      dup4\n      iszero\n      iszero\n      mul\n      or\n      swap1\n      sstore\n      pop\n        /* \"contracts/proposalsAndRequests.sol\":11449:11454  false */\n      0x00\n        /* \"contracts/proposalsAndRequests.sol\":11395:11408  buyerRequests */\n      0x09\n        /* \"contracts/proposalsAndRequests.sol\":11395:11420  buyerRequests[proposalId] */\n      0x00\n        /* \"contracts/proposalsAndRequests.sol\":11409:11419  proposalId */\n      dup7\n        /* \"contracts/proposalsAndRequests.sol\":11395:11420  buyerRequests[proposalId] */\n      dup2\n      mstore\n      0x20\n      add\n      swap1\n      dup2\n      mstore\n      0x20\n      add\n      0x00\n      keccak256\n        /* \"contracts/proposalsAndRequests.sol\":11395:11439  buyerRequests[proposalId][buyerRequestIndex] */\n      0x00\n        /* \"contracts/proposalsAndRequests.sol\":11421:11438  buyerRequestIndex */\n      dup6\n        /* \"contracts/proposalsAndRequests.sol\":11395:11439  buyerRequests[proposalId][buyerRequestIndex] */\n      dup2\n      mstore\n      0x20\n      add\n      swap1\n      dup2\n      mstore\n      0x20\n      add\n      0x00\n      keccak256\n        /* \"contracts/proposalsAndRequests.sol\":11395:11446  buyerRequests[proposalId][buyerRequestIndex].active */\n      0x04\n      add\n      0x1a\n        /* \"contracts/proposalsAndRequests.sol\":11395:11454  buyerRequests[proposalId][buyerRequestIndex].active = false */\n      0x0100\n      exp\n      dup2\n      sload\n      dup2\n      0xff\n      mul\n      not\n      and\n      swap1\n      dup4\n      iszero\n      iszero\n      mul\n      or\n      swap1\n      sstore\n      pop\n        /* \"contracts/proposalsAndRequests.sol\":11499:11546  proposals[proposalId].escrowBalance.sub(amount) */\n      tag_478\n        /* \"contracts/proposalsAndRequests.sol\":11539:11545  amount */\n      dup3\n        /* \"contracts/proposalsAndRequests.sol\":11499:11508  proposals */\n      0x03\n        /* \"contracts/proposalsAndRequests.sol\":11499:11520  proposals[proposalId] */\n      0x00\n        /* \"contracts/proposalsAndRequests.sol\":11509:11519  proposalId */\n      dup8\n        /* \"contracts/proposalsAndRequests.sol\":11499:11520  proposals[proposalId] */\n      dup2\n      mstore\n      0x20\n      add\n      swap1\n      dup2\n      mstore\n      0x20\n      add\n      0x00\n      keccak256\n        /* \"contracts/proposalsAndRequests.sol\":11499:11534  proposals[proposalId].escrowBalance */\n      0x01\n      add\n      sload\n        /* \"contracts/proposalsAndRequests.sol\":11499:11538  proposals[proposalId].escrowBalance.sub */\n      tag_214\n      swap1\n        /* \"contracts/proposalsAndRequests.sol\":11499:11546  proposals[proposalId].escrowBalance.sub(amount) */\n      swap2\n      swap1\n      0xffffffff\n      and\n      jump\t// in\n    tag_478:\n        /* \"contracts/proposalsAndRequests.sol\":11461:11470  proposals */\n      0x03\n        /* \"contracts/proposalsAndRequests.sol\":11461:11482  proposals[proposalId] */\n      0x00\n        /* \"contracts/proposalsAndRequests.sol\":11471:11481  proposalId */\n      dup7\n        /* \"contracts/proposalsAndRequests.sol\":11461:11482  proposals[proposalId] */\n      dup2\n      mstore\n      0x20\n      add\n      swap1\n      dup2\n      mstore\n      0x20\n      add\n      0x00\n      keccak256\n        /* \"contracts/proposalsAndRequests.sol\":11461:11496  proposals[proposalId].escrowBalance */\n      0x01\n      add\n        /* \"contracts/proposalsAndRequests.sol\":11461:11546  proposals[proposalId].escrowBalance = proposals[proposalId].escrowBalance.sub(amount) */\n      dup2\n      swap1\n      sstore\n      pop\n        /* \"contracts/proposalsAndRequests.sol\":11609:11638  completedTransactionsContract */\n      0x02\n      0x00\n      swap1\n      sload\n      swap1\n      0x0100\n      exp\n      swap1\n      div\n      0xffffffffffffffffffffffffffffffffffffffff\n      and\n        /* \"contracts/proposalsAndRequests.sol\":11609:11662  completedTransactionsContract.sellerTransactionCounts */\n      0xffffffffffffffffffffffffffffffffffffffff\n      and\n      0xbf03fccc\n        /* \"contracts/proposalsAndRequests.sol\":11664:11673  proposals */\n      0x03\n        /* \"contracts/proposalsAndRequests.sol\":11664:11685  proposals[proposalId] */\n      0x00\n        /* \"contracts/proposalsAndRequests.sol\":11674:11684  proposalId */\n      dup8\n        /* \"contracts/proposalsAndRequests.sol\":11664:11685  proposals[proposalId] */\n      dup2\n      mstore\n      0x20\n      add\n      swap1\n      dup2\n      mstore\n      0x20\n      add\n      0x00\n      keccak256\n        /* \"contracts/proposalsAndRequests.sol\":11664:11692  proposals[proposalId].seller */\n      0x08\n      add\n      0x01\n      swap1\n      sload\n      swap1\n      0x0100\n      exp\n      swap1\n      div\n      0xffffffffffffffffffffffffffffffffffffffff\n      and\n        /* \"contracts/proposalsAndRequests.sol\":11609:11693  completedTransactionsContract.sellerTransactionCounts (proposals[proposalId].seller) */\n      mload(0x40)\n      dup3\n      0xffffffff\n      and\n      0xe0\n      shl\n      dup2\n      mstore\n      0x04\n      add\n      tag_479\n      swap2\n      swap1\n      tag_125\n      jump\t// in\n    tag_479:\n      0x20\n      mload(0x40)\n      dup1\n      dup4\n      sub\n      dup2\n      dup7\n      gas\n      staticcall\n      iszero\n      dup1\n      iszero\n      tag_481\n      jumpi\n      returndatasize\n      0x00\n      dup1\n      returndatacopy\n      revert(0x00, returndatasize)\n    tag_481:\n      pop\n      pop\n      pop\n      pop\n      mload(0x40)\n      returndatasize\n      not(0x1f)\n      0x1f\n      dup3\n      add\n      and\n      dup3\n      add\n      dup1\n      0x40\n      mstore\n      pop\n      dup2\n      add\n      swap1\n      tag_482\n      swap2\n      swap1\n      tag_483\n      jump\t// in\n    tag_482:\n        /* \"contracts/proposalsAndRequests.sol\":11553:11562  proposals */\n      0x03\n        /* \"contracts/proposalsAndRequests.sol\":11553:11574  proposals[proposalId] */\n      0x00\n        /* \"contracts/proposalsAndRequests.sol\":11563:11573  proposalId */\n      dup7\n        /* \"contracts/proposalsAndRequests.sol\":11553:11574  proposals[proposalId] */\n      dup2\n      mstore\n      0x20\n      add\n      swap1\n      dup2\n      mstore\n      0x20\n      add\n      0x00\n      keccak256\n        /* \"contracts/proposalsAndRequests.sol\":11553:11606  proposals[proposalId].sellerTransactionsCountasSeller */\n      0x09\n      add\n        /* \"contracts/proposalsAndRequests.sol\":11553:11693  proposals[proposalId].sellerTransactionsCountasSeller = completedTransactionsContract.sellerTransactionCounts (proposals[proposalId].seller) */\n      dup2\n      swap1\n      sstore\n      pop\n        /* \"contracts/proposalsAndRequests.sol\":11754:11783  completedTransactionsContract */\n      0x02\n      0x00\n      swap1\n      sload\n      swap1\n      0x0100\n      exp\n      swap1\n      div\n      0xffffffffffffffffffffffffffffffffffffffff\n      and\n        /* \"contracts/proposalsAndRequests.sol\":11754:11806  completedTransactionsContract.buyerTransactionCounts */\n      0xffffffffffffffffffffffffffffffffffffffff\n      and\n      0x42a3a9ab\n        /* \"contracts/proposalsAndRequests.sol\":11808:11817  proposals */\n      0x03\n        /* \"contracts/proposalsAndRequests.sol\":11808:11829  proposals[proposalId] */\n      0x00\n        /* \"contracts/proposalsAndRequests.sol\":11818:11828  proposalId */\n      dup8\n        /* \"contracts/proposalsAndRequests.sol\":11808:11829  proposals[proposalId] */\n      dup2\n      mstore\n      0x20\n      add\n      swap1\n      dup2\n      mstore\n      0x20\n      add\n      0x00\n      keccak256\n        /* \"contracts/proposalsAndRequests.sol\":11808:11836  proposals[proposalId].seller */\n      0x08\n      add\n      0x01\n      swap1\n      sload\n      swap1\n      0x0100\n      exp\n      swap1\n      div\n      0xffffffffffffffffffffffffffffffffffffffff\n      and\n        /* \"contracts/proposalsAndRequests.sol\":11754:11837  completedTransactionsContract.buyerTransactionCounts (proposals[proposalId].seller) */\n      mload(0x40)\n      dup3\n      0xffffffff\n      and\n      0xe0\n      shl\n      dup2\n      mstore\n      0x04\n      add\n      tag_484\n      swap2\n      swap1\n      tag_125\n      jump\t// in\n    tag_484:\n      0x20\n      mload(0x40)\n      dup1\n      dup4\n      sub\n      dup2\n      dup7\n      gas\n      staticcall\n      iszero\n      dup1\n      iszero\n      tag_486\n      jumpi\n      returndatasize\n      0x00\n      dup1\n      returndatacopy\n      revert(0x00, returndatasize)\n    tag_486:\n      pop\n      pop\n      pop\n      pop\n      mload(0x40)\n      returndatasize\n      not(0x1f)\n      0x1f\n      dup3\n      add\n      and\n      dup3\n      add\n      dup1\n      0x40\n      mstore\n      pop\n      dup2\n      add\n      swap1\n      tag_487\n      swap2\n      swap1\n      tag_483\n      jump\t// in\n    tag_487:\n        /* \"contracts/proposalsAndRequests.sol\":11699:11708  proposals */\n      0x03\n        /* \"contracts/proposalsAndRequests.sol\":11699:11720  proposals[proposalId] */\n      0x00\n        /* \"contracts/proposalsAndRequests.sol\":11709:11719  proposalId */\n      dup7\n        /* \"contracts/proposalsAndRequests.sol\":11699:11720  proposals[proposalId] */\n      dup2\n      mstore\n      0x20\n      add\n      swap1\n      dup2\n      mstore\n      0x20\n      add\n      0x00\n      keccak256\n        /* \"contracts/proposalsAndRequests.sol\":11699:11751  proposals[proposalId].sellerTransactionsCountasBuyer */\n      0x0a\n      add\n        /* \"contracts/proposalsAndRequests.sol\":11699:11837  proposals[proposalId].sellerTransactionsCountasBuyer = completedTransactionsContract.buyerTransactionCounts (proposals[proposalId].seller) */\n      dup2\n      swap1\n      sstore\n      pop\n        /* \"contracts/proposalsAndRequests.sol\":11951:11952  0 */\n      0x00\n        /* \"contracts/proposalsAndRequests.sol\":11919:11928  proposals */\n      0x03\n        /* \"contracts/proposalsAndRequests.sol\":11919:11940  proposals[proposalId] */\n      0x00\n        /* \"contracts/proposalsAndRequests.sol\":11929:11939  proposalId */\n      dup7\n        /* \"contracts/proposalsAndRequests.sol\":11919:11940  proposals[proposalId] */\n      dup2\n      mstore\n      0x20\n      add\n      swap1\n      dup2\n      mstore\n      0x20\n      add\n      0x00\n      keccak256\n        /* \"contracts/proposalsAndRequests.sol\":11919:11947  proposals[proposalId].amount */\n      0x00\n      add\n      sload\n        /* \"contracts/proposalsAndRequests.sol\":11919:11952  proposals[proposalId].amount == 0 */\n      sub\n        /* \"contracts/proposalsAndRequests.sol\":11915:12283  if (proposals[proposalId].amount == 0) {... */\n      tag_488\n      jumpi\n        /* \"contracts/proposalsAndRequests.sol\":11995:12000  false */\n      0x00\n        /* \"contracts/proposalsAndRequests.sol\":11964:11973  proposals */\n      0x03\n        /* \"contracts/proposalsAndRequests.sol\":11964:11985  proposals[proposalId] */\n      0x00\n        /* \"contracts/proposalsAndRequests.sol\":11974:11984  proposalId */\n      dup7\n        /* \"contracts/proposalsAndRequests.sol\":11964:11985  proposals[proposalId] */\n      dup2\n      mstore\n      0x20\n      add\n      swap1\n      dup2\n      mstore\n      0x20\n      add\n      0x00\n      keccak256\n        /* \"contracts/proposalsAndRequests.sol\":11964:11992  proposals[proposalId].active */\n      0x08\n      add\n      0x00\n        /* \"contracts/proposalsAndRequests.sol\":11964:12000  proposals[proposalId].active = false */\n      0x0100\n      exp\n      dup2\n      sload\n      dup2\n      0xff\n      mul\n      not\n      and\n      swap1\n      dup4\n      iszero\n      iszero\n      mul\n      or\n      swap1\n      sstore\n      pop\n        /* \"contracts/proposalsAndRequests.sol\":12077:12101  uint256 indexToBeDeleted */\n      0x00\n        /* \"contracts/proposalsAndRequests.sol\":12112:12121  uint256 i */\n      dup1\n        /* \"contracts/proposalsAndRequests.sol\":12124:12125  0 */\n      0x00\n        /* \"contracts/proposalsAndRequests.sol\":12112:12125  uint256 i = 0 */\n      swap1\n      pop\n        /* \"contracts/proposalsAndRequests.sol\":12107:12277  for (uint256 i = 0; i < activeProposalCount; i++) {... */\n    tag_489:\n        /* \"contracts/proposalsAndRequests.sol\":12131:12150  activeProposalCount */\n      sload(0x08)\n        /* \"contracts/proposalsAndRequests.sol\":12127:12128  i */\n      dup2\n        /* \"contracts/proposalsAndRequests.sol\":12127:12150  i < activeProposalCount */\n      lt\n        /* \"contracts/proposalsAndRequests.sol\":12107:12277  for (uint256 i = 0; i < activeProposalCount; i++) {... */\n      iszero\n      tag_490\n      jumpi\n        /* \"contracts/proposalsAndRequests.sol\":12195:12205  proposalId */\n      dup6\n        /* \"contracts/proposalsAndRequests.sol\":12171:12188  activeProposalIds */\n      0x07\n        /* \"contracts/proposalsAndRequests.sol\":12189:12190  i */\n      dup3\n        /* \"contracts/proposalsAndRequests.sol\":12171:12191  activeProposalIds[i] */\n      dup2\n      sload\n      dup2\n      lt\n      tag_492\n      jumpi\n      tag_493\n      tag_255\n      jump\t// in\n    tag_493:\n    tag_492:\n      swap1\n      0x00\n      mstore\n      keccak256(0x00, 0x20)\n      add\n      sload\n        /* \"contracts/proposalsAndRequests.sol\":12171:12205  activeProposalIds[i] == proposalId */\n      sub\n        /* \"contracts/proposalsAndRequests.sol\":12167:12271  if (activeProposalIds[i] == proposalId) {... */\n      tag_495\n      jumpi\n        /* \"contracts/proposalsAndRequests.sol\":12240:12241  i */\n      dup1\n        /* \"contracts/proposalsAndRequests.sol\":12221:12241  indexToBeDeleted = i */\n      swap2\n      pop\n        /* \"contracts/proposalsAndRequests.sol\":12255:12260  break */\n      jump(tag_490)\n        /* \"contracts/proposalsAndRequests.sol\":12167:12271  if (activeProposalIds[i] == proposalId) {... */\n    tag_495:\n        /* \"contracts/proposalsAndRequests.sol\":12152:12155  i++ */\n      dup1\n      dup1\n      tag_496\n      swap1\n      tag_264\n      jump\t// in\n    tag_496:\n      swap2\n      pop\n      pop\n        /* \"contracts/proposalsAndRequests.sol\":12107:12277  for (uint256 i = 0; i < activeProposalCount; i++) {... */\n      jump(tag_489)\n    tag_490:\n      pop\n        /* \"contracts/proposalsAndRequests.sol\":11954:12283  {... */\n      pop\n        /* \"contracts/proposalsAndRequests.sol\":11915:12283  if (proposals[proposalId].amount == 0) {... */\n    tag_488:\n        /* \"contracts/proposalsAndRequests.sol\":11107:12285  function changeProposalAndRequestDataUponCryptoRelease(uint256 proposalId, uint256 buyerRequestIndex, uint256 amount)... */\n      pop\n      pop\n      pop\n      pop\n      jump\t// out\n        /* \"contracts/proposalsAndRequests.sol\":3563:3658  function getAllProposalIds() public view returns (uint256[] memory) {... */\n    tag_177:\n        /* \"contracts/proposalsAndRequests.sol\":3613:3629  uint256[] memory */\n      0x60\n        /* \"contracts/proposalsAndRequests.sol\":3644:3655  proposalIds */\n      0x04\n        /* \"contracts/proposalsAndRequests.sol\":3637:3655  return proposalIds */\n      dup1\n      sload\n      dup1\n      0x20\n      mul\n      0x20\n      add\n      mload(0x40)\n      swap1\n      dup2\n      add\n      0x40\n      mstore\n      dup1\n      swap3\n      swap2\n      swap1\n      dup2\n      dup2\n      mstore\n      0x20\n      add\n      dup3\n      dup1\n      sload\n      dup1\n      iszero\n      tag_498\n      jumpi\n      0x20\n      mul\n      dup3\n      add\n      swap2\n      swap1\n      0x00\n      mstore\n      keccak256(0x00, 0x20)\n      swap1\n    tag_499:\n      dup2\n      sload\n      dup2\n      mstore\n      0x20\n      add\n      swap1\n      0x01\n      add\n      swap1\n      dup1\n      dup4\n      gt\n      tag_499\n      jumpi\n    tag_498:\n      pop\n      pop\n      pop\n      pop\n      pop\n      swap1\n      pop\n        /* \"contracts/proposalsAndRequests.sol\":3563:3658  function getAllProposalIds() public view returns (uint256[] memory) {... */\n      swap1\n      jump\t// out\n        /* \"@openzeppelin/contracts/access/Ownable.sol\":2081:2279  function transferOwnership(address newOwner) public virtual onlyOwner {... */\n    tag_181:\n        /* \"@openzeppelin/contracts/access/Ownable.sol\":1094:1107  _checkOwner() */\n      tag_501\n        /* \"@openzeppelin/contracts/access/Ownable.sol\":1094:1105  _checkOwner */\n      tag_219\n        /* \"@openzeppelin/contracts/access/Ownable.sol\":1094:1107  _checkOwner() */\n      jump\t// in\n    tag_501:\n        /* \"@openzeppelin/contracts/access/Ownable.sol\":2189:2190  0 */\n      0x00\n        /* \"@openzeppelin/contracts/access/Ownable.sol\":2169:2191  newOwner != address(0) */\n      0xffffffffffffffffffffffffffffffffffffffff\n      and\n        /* \"@openzeppelin/contracts/access/Ownable.sol\":2169:2177  newOwner */\n      dup2\n        /* \"@openzeppelin/contracts/access/Ownable.sol\":2169:2191  newOwner != address(0) */\n      0xffffffffffffffffffffffffffffffffffffffff\n      and\n      sub\n        /* \"@openzeppelin/contracts/access/Ownable.sol\":2161:2234  require(newOwner != address(0), \"Ownable: new owner is the zero address\") */\n      tag_503\n      jumpi\n      mload(0x40)\n      0x08c379a000000000000000000000000000000000000000000000000000000000\n      dup2\n      mstore\n      0x04\n      add\n      tag_504\n      swap1\n      tag_505\n      jump\t// in\n    tag_504:\n      mload(0x40)\n      dup1\n      swap2\n      sub\n      swap1\n      revert\n    tag_503:\n        /* \"@openzeppelin/contracts/access/Ownable.sol\":2244:2272  _transferOwnership(newOwner) */\n      tag_506\n        /* \"@openzeppelin/contracts/access/Ownable.sol\":2263:2271  newOwner */\n      dup2\n        /* \"@openzeppelin/contracts/access/Ownable.sol\":2244:2262  _transferOwnership */\n      tag_341\n        /* \"@openzeppelin/contracts/access/Ownable.sol\":2244:2272  _transferOwnership(newOwner) */\n      jump\t// in\n    tag_506:\n        /* \"@openzeppelin/contracts/access/Ownable.sol\":2081:2279  function transferOwnership(address newOwner) public virtual onlyOwner {... */\n      pop\n      jump\t// out\n        /* \"@openzeppelin/contracts/utils/math/SafeMath.sol\":3122:3218  function sub(uint256 a, uint256 b) internal pure returns (uint256) {... */\n    tag_214:\n        /* \"@openzeppelin/contracts/utils/math/SafeMath.sol\":3180:3187  uint256 */\n      0x00\n        /* \"@openzeppelin/contracts/utils/math/SafeMath.sol\":3210:3211  b */\n      dup2\n        /* \"@openzeppelin/contracts/utils/math/SafeMath.sol\":3206:3207  a */\n      dup4\n        /* \"@openzeppelin/contracts/utils/math/SafeMath.sol\":3206:3211  a - b */\n      tag_508\n      swap2\n      swap1\n      tag_293\n      jump\t// in\n    tag_508:\n        /* \"@openzeppelin/contracts/utils/math/SafeMath.sol\":3199:3211  return a - b */\n      swap1\n      pop\n        /* \"@openzeppelin/contracts/utils/math/SafeMath.sol\":3122:3218  function sub(uint256 a, uint256 b) internal pure returns (uint256) {... */\n      swap3\n      swap2\n      pop\n      pop\n      jump\t// out\n        /* \"@openzeppelin/contracts/utils/math/SafeMath.sol\":2755:2851  function add(uint256 a, uint256 b) internal pure returns (uint256) {... */\n    tag_216:\n        /* \"@openzeppelin/contracts/utils/math/SafeMath.sol\":2813:2820  uint256 */\n      0x00\n        /* \"@openzeppelin/contracts/utils/math/SafeMath.sol\":2843:2844  b */\n      dup2\n        /* \"@openzeppelin/contracts/utils/math/SafeMath.sol\":2839:2840  a */\n      dup4\n        /* \"@openzeppelin/contracts/utils/math/SafeMath.sol\":2839:2844  a + b */\n      tag_510\n      swap2\n      swap1\n      tag_231\n      jump\t// in\n    tag_510:\n        /* \"@openzeppelin/contracts/utils/math/SafeMath.sol\":2832:2844  return a + b */\n      swap1\n      pop\n        /* \"@openzeppelin/contracts/utils/math/SafeMath.sol\":2755:2851  function add(uint256 a, uint256 b) internal pure returns (uint256) {... */\n      swap3\n      swap2\n      pop\n      pop\n      jump\t// out\n        /* \"@openzeppelin/contracts/access/Ownable.sol\":1359:1489  function _checkOwner() internal view virtual {... */\n    tag_219:\n        /* \"@openzeppelin/contracts/access/Ownable.sol\":1433:1445  _msgSender() */\n      tag_512\n        /* \"@openzeppelin/contracts/access/Ownable.sol\":1433:1443  _msgSender */\n      tag_513\n        /* \"@openzeppelin/contracts/access/Ownable.sol\":1433:1445  _msgSender() */\n      jump\t// in\n    tag_512:\n        /* \"@openzeppelin/contracts/access/Ownable.sol\":1422:1445  owner() == _msgSender() */\n      0xffffffffffffffffffffffffffffffffffffffff\n      and\n        /* \"@openzeppelin/contracts/access/Ownable.sol\":1422:1429  owner() */\n      tag_514\n        /* \"@openzeppelin/contracts/access/Ownable.sol\":1422:1427  owner */\n      tag_123\n        /* \"@openzeppelin/contracts/access/Ownable.sol\":1422:1429  owner() */\n      jump\t// in\n    tag_514:\n        /* \"@openzeppelin/contracts/access/Ownable.sol\":1422:1445  owner() == _msgSender() */\n      0xffffffffffffffffffffffffffffffffffffffff\n      and\n      eq\n        /* \"@openzeppelin/contracts/access/Ownable.sol\":1414:1482  require(owner() == _msgSender(), \"Ownable: caller is not the owner\") */\n      tag_515\n      jumpi\n      mload(0x40)\n      0x08c379a000000000000000000000000000000000000000000000000000000000\n      dup2\n      mstore\n      0x04\n      add\n      tag_516\n      swap1\n      tag_517\n      jump\t// in\n    tag_516:\n      mload(0x40)\n      dup1\n      swap2\n      sub\n      swap1\n      revert\n    tag_515:\n        /* \"@openzeppelin/contracts/access/Ownable.sol\":1359:1489  function _checkOwner() internal view virtual {... */\n      jump\t// out\n        /* \"@openzeppelin/contracts/access/Ownable.sol\":2433:2620  function _transferOwnership(address newOwner) internal virtual {... */\n    tag_341:\n        /* \"@openzeppelin/contracts/access/Ownable.sol\":2506:2522  address oldOwner */\n      0x00\n        /* \"@openzeppelin/contracts/access/Ownable.sol\":2525:2531  _owner */\n      dup1\n      0x00\n      swap1\n      sload\n      swap1\n      0x0100\n      exp\n      swap1\n      div\n      0xffffffffffffffffffffffffffffffffffffffff\n      and\n        /* \"@openzeppelin/contracts/access/Ownable.sol\":2506:2531  address oldOwner = _owner */\n      swap1\n      pop\n        /* \"@openzeppelin/contracts/access/Ownable.sol\":2550:2558  newOwner */\n      dup2\n        /* \"@openzeppelin/contracts/access/Ownable.sol\":2541:2547  _owner */\n      0x00\n      dup1\n        /* \"@openzeppelin/contracts/access/Ownable.sol\":2541:2558  _owner = newOwner */\n      0x0100\n      exp\n      dup2\n      sload\n      dup2\n      0xffffffffffffffffffffffffffffffffffffffff\n      mul\n      not\n      and\n      swap1\n      dup4\n      0xffffffffffffffffffffffffffffffffffffffff\n      and\n      mul\n      or\n      swap1\n      sstore\n      pop\n        /* \"@openzeppelin/contracts/access/Ownable.sol\":2604:2612  newOwner */\n      dup2\n        /* \"@openzeppelin/contracts/access/Ownable.sol\":2573:2613  OwnershipTransferred(oldOwner, newOwner) */\n      0xffffffffffffffffffffffffffffffffffffffff\n      and\n        /* \"@openzeppelin/contracts/access/Ownable.sol\":2594:2602  oldOwner */\n      dup2\n        /* \"@openzeppelin/contracts/access/Ownable.sol\":2573:2613  OwnershipTransferred(oldOwner, newOwner) */\n      0xffffffffffffffffffffffffffffffffffffffff\n      and\n      0x8be0079c531659141344cd1fd0a4f28419497f9722a3daafe3b4186f6b6457e0\n      mload(0x40)\n      mload(0x40)\n      dup1\n      swap2\n      sub\n      swap1\n      log3\n        /* \"@openzeppelin/contracts/access/Ownable.sol\":2496:2620  {... */\n      pop\n        /* \"@openzeppelin/contracts/access/Ownable.sol\":2433:2620  function _transferOwnership(address newOwner) internal virtual {... */\n      pop\n      jump\t// out\n        /* \"@openzeppelin/contracts/utils/Context.sol\":640:736  function _msgSender() internal view virtual returns (address) {... */\n    tag_513:\n        /* \"@openzeppelin/contracts/utils/Context.sol\":693:700  address */\n      0x00\n        /* \"@openzeppelin/contracts/utils/Context.sol\":719:729  msg.sender */\n      caller\n        /* \"@openzeppelin/contracts/utils/Context.sol\":712:729  return msg.sender */\n      swap1\n      pop\n        /* \"@openzeppelin/contracts/utils/Context.sol\":640:736  function _msgSender() internal view virtual returns (address) {... */\n      swap1\n      jump\t// out\n    tag_249:\n      mload(0x40)\n      dup1\n      0x0180\n      add\n      0x40\n      mstore\n      dup1\n      0x00\n      dup2\n      mstore\n      0x20\n      add\n      0x00\n      dup2\n      mstore\n      0x20\n      add\n      0x00\n      dup2\n      mstore\n      0x20\n      add\n      0x00\n      dup2\n      mstore\n      0x20\n      add\n      and(0xffffffffffffffffffffffffffffffffffffffff, 0x00)\n      dup2\n      mstore\n      0x20\n      add\n      iszero(iszero(0x00))\n      dup2\n      mstore\n      0x20\n      add\n      iszero(iszero(0x00))\n      dup2\n      mstore\n      0x20\n      add\n      iszero(iszero(0x00))\n      dup2\n      mstore\n      0x20\n      add\n      iszero(iszero(0x00))\n      dup2\n      mstore\n      0x20\n      add\n      iszero(iszero(0x00))\n      dup2\n      mstore\n      0x20\n      add\n      iszero(iszero(0x00))\n      dup2\n      mstore\n      0x20\n      add\n      iszero(iszero(0x00))\n      dup2\n      mstore\n      pop\n      swap1\n      jump\t// out\n    tag_372:\n      pop\n      dup1\n      sload\n      tag_520\n      swap1\n      tag_183\n      jump\t// in\n    tag_520:\n      0x00\n      dup3\n      sstore\n      dup1\n      0x1f\n      lt\n      tag_522\n      jumpi\n      pop\n      jump(tag_521)\n    tag_522:\n      0x1f\n      add\n      0x20\n      swap1\n      div\n      swap1\n      0x00\n      mstore\n      keccak256(0x00, 0x20)\n      swap1\n      dup2\n      add\n      swap1\n      tag_523\n      swap2\n      swap1\n      tag_524\n      jump\t// in\n    tag_523:\n    tag_521:\n      pop\n      jump\t// out\n    tag_438:\n      mload(0x40)\n      dup1\n      0x0180\n      add\n      0x40\n      mstore\n      dup1\n      0x00\n      dup2\n      mstore\n      0x20\n      add\n      0x00\n      dup2\n      mstore\n      0x20\n      add\n      0x00\n      dup2\n      mstore\n      0x20\n      add\n      0x00\n      dup2\n      mstore\n      0x20\n      add\n      0x60\n      dup2\n      mstore\n      0x20\n      add\n      0x00\n      dup1\n      not\n      and\n      dup2\n      mstore\n      0x20\n      add\n      0x60\n      dup2\n      mstore\n      0x20\n      add\n      0x60\n      dup2\n      mstore\n      0x20\n      add\n      iszero(iszero(0x00))\n      dup2\n      mstore\n      0x20\n      add\n      and(0xffffffffffffffffffffffffffffffffffffffff, 0x00)\n      dup2\n      mstore\n      0x20\n      add\n      0x00\n      dup2\n      mstore\n      0x20\n      add\n      0x00\n      dup2\n      mstore\n      pop\n      swap1\n      jump\t// out\n    tag_524:\n    tag_525:\n      dup1\n      dup3\n      gt\n      iszero\n      tag_526\n      jumpi\n      0x00\n      dup2\n      0x00\n      swap1\n      sstore\n      pop\n      0x01\n      add\n      jump(tag_525)\n    tag_526:\n      pop\n      swap1\n      jump\t// out\n        /* \"#utility.yul\":7:82   */\n    tag_527:\n        /* \"#utility.yul\":40:46   */\n      0x00\n        /* \"#utility.yul\":73:75   */\n      0x40\n        /* \"#utility.yul\":67:76   */\n      mload\n        /* \"#utility.yul\":57:76   */\n      swap1\n      pop\n        /* \"#utility.yul\":7:82   */\n      swap1\n      jump\t// out\n        /* \"#utility.yul\":88:205   */\n    tag_528:\n        /* \"#utility.yul\":197:198   */\n      0x00\n        /* \"#utility.yul\":194:195   */\n      dup1\n        /* \"#utility.yul\":187:199   */\n      revert\n        /* \"#utility.yul\":211:328   */\n    tag_529:\n        /* \"#utility.yul\":320:321   */\n      0x00\n        /* \"#utility.yul\":317:318   */\n      dup1\n        /* \"#utility.yul\":310:322   */\n      revert\n        /* \"#utility.yul\":334:411   */\n    tag_530:\n        /* \"#utility.yul\":371:378   */\n      0x00\n        /* \"#utility.yul\":400:405   */\n      dup2\n        /* \"#utility.yul\":389:405   */\n      swap1\n      pop\n        /* \"#utility.yul\":334:411   */\n      swap2\n      swap1\n      pop\n      jump\t// out\n        /* \"#utility.yul\":417:539   */\n    tag_531:\n        /* \"#utility.yul\":490:514   */\n      tag_625\n        /* \"#utility.yul\":508:513   */\n      dup2\n        /* \"#utility.yul\":490:514   */\n      tag_530\n      jump\t// in\n    tag_625:\n        /* \"#utility.yul\":483:488   */\n      dup2\n        /* \"#utility.yul\":480:515   */\n      eq\n        /* \"#utility.yul\":470:533   */\n      tag_626\n      jumpi\n        /* \"#utility.yul\":529:530   */\n      0x00\n        /* \"#utility.yul\":526:527   */\n      dup1\n        /* \"#utility.yul\":519:531   */\n      revert\n        /* \"#utility.yul\":470:533   */\n    tag_626:\n        /* \"#utility.yul\":417:539   */\n      pop\n      jump\t// out\n        /* \"#utility.yul\":545:684   */\n    tag_532:\n        /* \"#utility.yul\":591:596   */\n      0x00\n        /* \"#utility.yul\":629:635   */\n      dup2\n        /* \"#utility.yul\":616:636   */\n      calldataload\n        /* \"#utility.yul\":607:636   */\n      swap1\n      pop\n        /* \"#utility.yul\":645:678   */\n      tag_628\n        /* \"#utility.yul\":672:677   */\n      dup2\n        /* \"#utility.yul\":645:678   */\n      tag_531\n      jump\t// in\n    tag_628:\n        /* \"#utility.yul\":545:684   */\n      swap3\n      swap2\n      pop\n      pop\n      jump\t// out\n        /* \"#utility.yul\":690:1019   */\n    tag_48:\n        /* \"#utility.yul\":749:755   */\n      0x00\n        /* \"#utility.yul\":798:800   */\n      0x20\n        /* \"#utility.yul\":786:795   */\n      dup3\n        /* \"#utility.yul\":777:784   */\n      dup5\n        /* \"#utility.yul\":773:796   */\n      sub\n        /* \"#utility.yul\":769:801   */\n      slt\n        /* \"#utility.yul\":766:885   */\n      iszero\n      tag_630\n      jumpi\n        /* \"#utility.yul\":804:883   */\n      tag_631\n      tag_528\n      jump\t// in\n    tag_631:\n        /* \"#utility.yul\":766:885   */\n    tag_630:\n        /* \"#utility.yul\":924:925   */\n      0x00\n        /* \"#utility.yul\":949:1002   */\n      tag_632\n        /* \"#utility.yul\":994:1001   */\n      dup5\n        /* \"#utility.yul\":985:991   */\n      dup3\n        /* \"#utility.yul\":974:983   */\n      dup6\n        /* \"#utility.yul\":970:992   */\n      add\n        /* \"#utility.yul\":949:1002   */\n      tag_532\n      jump\t// in\n    tag_632:\n        /* \"#utility.yul\":939:1002   */\n      swap2\n      pop\n        /* \"#utility.yul\":895:1012   */\n      pop\n        /* \"#utility.yul\":690:1019   */\n      swap3\n      swap2\n      pop\n      pop\n      jump\t// out\n        /* \"#utility.yul\":1025:1143   */\n    tag_533:\n        /* \"#utility.yul\":1112:1136   */\n      tag_634\n        /* \"#utility.yul\":1130:1135   */\n      dup2\n        /* \"#utility.yul\":1112:1136   */\n      tag_530\n      jump\t// in\n    tag_634:\n        /* \"#utility.yul\":1107:1110   */\n      dup3\n        /* \"#utility.yul\":1100:1137   */\n      mstore\n        /* \"#utility.yul\":1025:1143   */\n      pop\n      pop\n      jump\t// out\n        /* \"#utility.yul\":1149:1248   */\n    tag_534:\n        /* \"#utility.yul\":1201:1207   */\n      0x00\n        /* \"#utility.yul\":1235:1240   */\n      dup2\n        /* \"#utility.yul\":1229:1241   */\n      mload\n        /* \"#utility.yul\":1219:1241   */\n      swap1\n      pop\n        /* \"#utility.yul\":1149:1248   */\n      swap2\n      swap1\n      pop\n      jump\t// out\n        /* \"#utility.yul\":1254:1423   */\n    tag_535:\n        /* \"#utility.yul\":1338:1349   */\n      0x00\n        /* \"#utility.yul\":1372:1378   */\n      dup3\n        /* \"#utility.yul\":1367:1370   */\n      dup3\n        /* \"#utility.yul\":1360:1379   */\n      mstore\n        /* \"#utility.yul\":1412:1416   */\n      0x20\n        /* \"#utility.yul\":1407:1410   */\n      dup3\n        /* \"#utility.yul\":1403:1417   */\n      add\n        /* \"#utility.yul\":1388:1417   */\n      swap1\n      pop\n        /* \"#utility.yul\":1254:1423   */\n      swap3\n      swap2\n      pop\n      pop\n      jump\t// out\n        /* \"#utility.yul\":1429:1675   */\n    tag_536:\n        /* \"#utility.yul\":1510:1511   */\n      0x00\n        /* \"#utility.yul\":1520:1633   */\n    tag_638:\n        /* \"#utility.yul\":1534:1540   */\n      dup4\n        /* \"#utility.yul\":1531:1532   */\n      dup2\n        /* \"#utility.yul\":1528:1541   */\n      lt\n        /* \"#utility.yul\":1520:1633   */\n      iszero\n      tag_640\n      jumpi\n        /* \"#utility.yul\":1619:1620   */\n      dup1\n        /* \"#utility.yul\":1614:1617   */\n      dup3\n        /* \"#utility.yul\":1610:1621   */\n      add\n        /* \"#utility.yul\":1604:1622   */\n      mload\n        /* \"#utility.yul\":1600:1601   */\n      dup2\n        /* \"#utility.yul\":1595:1598   */\n      dup5\n        /* \"#utility.yul\":1591:1602   */\n      add\n        /* \"#utility.yul\":1584:1623   */\n      mstore\n        /* \"#utility.yul\":1556:1558   */\n      0x20\n        /* \"#utility.yul\":1553:1554   */\n      dup2\n        /* \"#utility.yul\":1549:1559   */\n      add\n        /* \"#utility.yul\":1544:1559   */\n      swap1\n      pop\n        /* \"#utility.yul\":1520:1633   */\n      jump(tag_638)\n    tag_640:\n        /* \"#utility.yul\":1667:1668   */\n      0x00\n        /* \"#utility.yul\":1658:1664   */\n      dup5\n        /* \"#utility.yul\":1653:1656   */\n      dup5\n        /* \"#utility.yul\":1649:1665   */\n      add\n        /* \"#utility.yul\":1642:1669   */\n      mstore\n        /* \"#utility.yul\":1491:1675   */\n      pop\n        /* \"#utility.yul\":1429:1675   */\n      pop\n      pop\n      pop\n      jump\t// out\n        /* \"#utility.yul\":1681:1783   */\n    tag_537:\n        /* \"#utility.yul\":1722:1728   */\n      0x00\n        /* \"#utility.yul\":1773:1775   */\n      0x1f\n        /* \"#utility.yul\":1769:1776   */\n      not\n        /* \"#utility.yul\":1764:1766   */\n      0x1f\n        /* \"#utility.yul\":1757:1762   */\n      dup4\n        /* \"#utility.yul\":1753:1767   */\n      add\n        /* \"#utility.yul\":1749:1777   */\n      and\n        /* \"#utility.yul\":1739:1777   */\n      swap1\n      pop\n        /* \"#utility.yul\":1681:1783   */\n      swap2\n      swap1\n      pop\n      jump\t// out\n        /* \"#utility.yul\":1789:2166   */\n    tag_538:\n        /* \"#utility.yul\":1877:1880   */\n      0x00\n        /* \"#utility.yul\":1905:1944   */\n      tag_643\n        /* \"#utility.yul\":1938:1943   */\n      dup3\n        /* \"#utility.yul\":1905:1944   */\n      tag_534\n      jump\t// in\n    tag_643:\n        /* \"#utility.yul\":1960:2031   */\n      tag_644\n        /* \"#utility.yul\":2024:2030   */\n      dup2\n        /* \"#utility.yul\":2019:2022   */\n      dup6\n        /* \"#utility.yul\":1960:2031   */\n      tag_535\n      jump\t// in\n    tag_644:\n        /* \"#utility.yul\":1953:2031   */\n      swap4\n      pop\n        /* \"#utility.yul\":2040:2105   */\n      tag_645\n        /* \"#utility.yul\":2098:2104   */\n      dup2\n        /* \"#utility.yul\":2093:2096   */\n      dup6\n        /* \"#utility.yul\":2086:2090   */\n      0x20\n        /* \"#utility.yul\":2079:2084   */\n      dup7\n        /* \"#utility.yul\":2075:2091   */\n      add\n        /* \"#utility.yul\":2040:2105   */\n      tag_536\n      jump\t// in\n    tag_645:\n        /* \"#utility.yul\":2130:2159   */\n      tag_646\n        /* \"#utility.yul\":2152:2158   */\n      dup2\n        /* \"#utility.yul\":2130:2159   */\n      tag_537\n      jump\t// in\n    tag_646:\n        /* \"#utility.yul\":2125:2128   */\n      dup5\n        /* \"#utility.yul\":2121:2160   */\n      add\n        /* \"#utility.yul\":2114:2160   */\n      swap2\n      pop\n        /* \"#utility.yul\":1881:2166   */\n      pop\n        /* \"#utility.yul\":1789:2166   */\n      swap3\n      swap2\n      pop\n      pop\n      jump\t// out\n        /* \"#utility.yul\":2172:2249   */\n    tag_539:\n        /* \"#utility.yul\":2209:2216   */\n      0x00\n        /* \"#utility.yul\":2238:2243   */\n      dup2\n        /* \"#utility.yul\":2227:2243   */\n      swap1\n      pop\n        /* \"#utility.yul\":2172:2249   */\n      swap2\n      swap1\n      pop\n      jump\t// out\n        /* \"#utility.yul\":2255:2373   */\n    tag_540:\n        /* \"#utility.yul\":2342:2366   */\n      tag_649\n        /* \"#utility.yul\":2360:2365   */\n      dup2\n        /* \"#utility.yul\":2342:2366   */\n      tag_539\n      jump\t// in\n    tag_649:\n        /* \"#utility.yul\":2337:2340   */\n      dup3\n        /* \"#utility.yul\":2330:2367   */\n      mstore\n        /* \"#utility.yul\":2255:2373   */\n      pop\n      pop\n      jump\t// out\n        /* \"#utility.yul\":2379:2469   */\n    tag_541:\n        /* \"#utility.yul\":2413:2420   */\n      0x00\n        /* \"#utility.yul\":2456:2461   */\n      dup2\n        /* \"#utility.yul\":2449:2462   */\n      iszero\n        /* \"#utility.yul\":2442:2463   */\n      iszero\n        /* \"#utility.yul\":2431:2463   */\n      swap1\n      pop\n        /* \"#utility.yul\":2379:2469   */\n      swap2\n      swap1\n      pop\n      jump\t// out\n        /* \"#utility.yul\":2475:2584   */\n    tag_542:\n        /* \"#utility.yul\":2556:2577   */\n      tag_652\n        /* \"#utility.yul\":2571:2576   */\n      dup2\n        /* \"#utility.yul\":2556:2577   */\n      tag_541\n      jump\t// in\n    tag_652:\n        /* \"#utility.yul\":2551:2554   */\n      dup3\n        /* \"#utility.yul\":2544:2578   */\n      mstore\n        /* \"#utility.yul\":2475:2584   */\n      pop\n      pop\n      jump\t// out\n        /* \"#utility.yul\":2590:2716   */\n    tag_543:\n        /* \"#utility.yul\":2627:2634   */\n      0x00\n        /* \"#utility.yul\":2667:2709   */\n      0xffffffffffffffffffffffffffffffffffffffff\n        /* \"#utility.yul\":2660:2665   */\n      dup3\n        /* \"#utility.yul\":2656:2710   */\n      and\n        /* \"#utility.yul\":2645:2710   */\n      swap1\n      pop\n        /* \"#utility.yul\":2590:2716   */\n      swap2\n      swap1\n      pop\n      jump\t// out\n        /* \"#utility.yul\":2722:2818   */\n    tag_544:\n        /* \"#utility.yul\":2759:2766   */\n      0x00\n        /* \"#utility.yul\":2788:2812   */\n      tag_655\n        /* \"#utility.yul\":2806:2811   */\n      dup3\n        /* \"#utility.yul\":2788:2812   */\n      tag_543\n      jump\t// in\n    tag_655:\n        /* \"#utility.yul\":2777:2812   */\n      swap1\n      pop\n        /* \"#utility.yul\":2722:2818   */\n      swap2\n      swap1\n      pop\n      jump\t// out\n        /* \"#utility.yul\":2824:2942   */\n    tag_545:\n        /* \"#utility.yul\":2911:2935   */\n      tag_657\n        /* \"#utility.yul\":2929:2934   */\n      dup2\n        /* \"#utility.yul\":2911:2935   */\n      tag_544\n      jump\t// in\n    tag_657:\n        /* \"#utility.yul\":2906:2909   */\n      dup3\n        /* \"#utility.yul\":2899:2936   */\n      mstore\n        /* \"#utility.yul\":2824:2942   */\n      pop\n      pop\n      jump\t// out\n        /* \"#utility.yul\":2948:4654   */\n    tag_51:\n        /* \"#utility.yul\":3405:3409   */\n      0x00\n        /* \"#utility.yul\":3443:3446   */\n      0x0180\n        /* \"#utility.yul\":3432:3441   */\n      dup3\n        /* \"#utility.yul\":3428:3447   */\n      add\n        /* \"#utility.yul\":3420:3447   */\n      swap1\n      pop\n        /* \"#utility.yul\":3457:3528   */\n      tag_659\n        /* \"#utility.yul\":3525:3526   */\n      0x00\n        /* \"#utility.yul\":3514:3523   */\n      dup4\n        /* \"#utility.yul\":3510:3527   */\n      add\n        /* \"#utility.yul\":3501:3507   */\n      dup16\n        /* \"#utility.yul\":3457:3528   */\n      tag_533\n      jump\t// in\n    tag_659:\n        /* \"#utility.yul\":3538:3610   */\n      tag_660\n        /* \"#utility.yul\":3606:3608   */\n      0x20\n        /* \"#utility.yul\":3595:3604   */\n      dup4\n        /* \"#utility.yul\":3591:3609   */\n      add\n        /* \"#utility.yul\":3582:3588   */\n      dup15\n        /* \"#utility.yul\":3538:3610   */\n      tag_533\n      jump\t// in\n    tag_660:\n        /* \"#utility.yul\":3620:3692   */\n      tag_661\n        /* \"#utility.yul\":3688:3690   */\n      0x40\n        /* \"#utility.yul\":3677:3686   */\n      dup4\n        /* \"#utility.yul\":3673:3691   */\n      add\n        /* \"#utility.yul\":3664:3670   */\n      dup14\n        /* \"#utility.yul\":3620:3692   */\n      tag_533\n      jump\t// in\n    tag_661:\n        /* \"#utility.yul\":3702:3774   */\n      tag_662\n        /* \"#utility.yul\":3770:3772   */\n      0x60\n        /* \"#utility.yul\":3759:3768   */\n      dup4\n        /* \"#utility.yul\":3755:3773   */\n      add\n        /* \"#utility.yul\":3746:3752   */\n      dup13\n        /* \"#utility.yul\":3702:3774   */\n      tag_533\n      jump\t// in\n    tag_662:\n        /* \"#utility.yul\":3822:3831   */\n      dup2\n        /* \"#utility.yul\":3816:3820   */\n      dup2\n        /* \"#utility.yul\":3812:3832   */\n      sub\n        /* \"#utility.yul\":3806:3809   */\n      0x80\n        /* \"#utility.yul\":3795:3804   */\n      dup4\n        /* \"#utility.yul\":3791:3810   */\n      add\n        /* \"#utility.yul\":3784:3833   */\n      mstore\n        /* \"#utility.yul\":3850:3928   */\n      tag_663\n        /* \"#utility.yul\":3923:3927   */\n      dup2\n        /* \"#utility.yul\":3914:3920   */\n      dup12\n        /* \"#utility.yul\":3850:3928   */\n      tag_538\n      jump\t// in\n    tag_663:\n        /* \"#utility.yul\":3842:3928   */\n      swap1\n      pop\n        /* \"#utility.yul\":3938:4011   */\n      tag_664\n        /* \"#utility.yul\":4006:4009   */\n      0xa0\n        /* \"#utility.yul\":3995:4004   */\n      dup4\n        /* \"#utility.yul\":3991:4010   */\n      add\n        /* \"#utility.yul\":3982:3988   */\n      dup11\n        /* \"#utility.yul\":3938:4011   */\n      tag_540\n      jump\t// in\n    tag_664:\n        /* \"#utility.yul\":4059:4068   */\n      dup2\n        /* \"#utility.yul\":4053:4057   */\n      dup2\n        /* \"#utility.yul\":4049:4069   */\n      sub\n        /* \"#utility.yul\":4043:4046   */\n      0xc0\n        /* \"#utility.yul\":4032:4041   */\n      dup4\n        /* \"#utility.yul\":4028:4047   */\n      add\n        /* \"#utility.yul\":4021:4070   */\n      mstore\n        /* \"#utility.yul\":4087:4165   */\n      tag_665\n        /* \"#utility.yul\":4160:4164   */\n      dup2\n        /* \"#utility.yul\":4151:4157   */\n      dup10\n        /* \"#utility.yul\":4087:4165   */\n      tag_538\n      jump\t// in\n    tag_665:\n        /* \"#utility.yul\":4079:4165   */\n      swap1\n      pop\n        /* \"#utility.yul\":4213:4222   */\n      dup2\n        /* \"#utility.yul\":4207:4211   */\n      dup2\n        /* \"#utility.yul\":4203:4223   */\n      sub\n        /* \"#utility.yul\":4197:4200   */\n      0xe0\n        /* \"#utility.yul\":4186:4195   */\n      dup4\n        /* \"#utility.yul\":4182:4201   */\n      add\n        /* \"#utility.yul\":4175:4224   */\n      mstore\n        /* \"#utility.yul\":4241:4319   */\n      tag_666\n        /* \"#utility.yul\":4314:4318   */\n      dup2\n        /* \"#utility.yul\":4305:4311   */\n      dup9\n        /* \"#utility.yul\":4241:4319   */\n      tag_538\n      jump\t// in\n    tag_666:\n        /* \"#utility.yul\":4233:4319   */\n      swap1\n      pop\n        /* \"#utility.yul\":4329:4396   */\n      tag_667\n        /* \"#utility.yul\":4391:4394   */\n      0x0100\n        /* \"#utility.yul\":4380:4389   */\n      dup4\n        /* \"#utility.yul\":4376:4395   */\n      add\n        /* \"#utility.yul\":4367:4373   */\n      dup8\n        /* \"#utility.yul\":4329:4396   */\n      tag_542\n      jump\t// in\n    tag_667:\n        /* \"#utility.yul\":4406:4479   */\n      tag_668\n        /* \"#utility.yul\":4474:4477   */\n      0x0120\n        /* \"#utility.yul\":4463:4472   */\n      dup4\n        /* \"#utility.yul\":4459:4478   */\n      add\n        /* \"#utility.yul\":4450:4456   */\n      dup7\n        /* \"#utility.yul\":4406:4479   */\n      tag_545\n      jump\t// in\n    tag_668:\n        /* \"#utility.yul\":4489:4563   */\n      tag_669\n        /* \"#utility.yul\":4558:4561   */\n      0x0140\n        /* \"#utility.yul\":4547:4556   */\n      dup4\n        /* \"#utility.yul\":4543:4562   */\n      add\n        /* \"#utility.yul\":4533:4540   */\n      dup6\n        /* \"#utility.yul\":4489:4563   */\n      tag_533\n      jump\t// in\n    tag_669:\n        /* \"#utility.yul\":4573:4647   */\n      tag_670\n        /* \"#utility.yul\":4642:4645   */\n      0x0160\n        /* \"#utility.yul\":4631:4640   */\n      dup4\n        /* \"#utility.yul\":4627:4646   */\n      add\n        /* \"#utility.yul\":4617:4624   */\n      dup5\n        /* \"#utility.yul\":4573:4647   */\n      tag_533\n      jump\t// in\n    tag_670:\n        /* \"#utility.yul\":2948:4654   */\n      swap14\n      swap13\n      pop\n      pop\n      pop\n      pop\n      pop\n      pop\n      pop\n      pop\n      pop\n      pop\n      pop\n      pop\n      pop\n      jump\t// out\n        /* \"#utility.yul\":4660:4776   */\n    tag_546:\n        /* \"#utility.yul\":4730:4751   */\n      tag_672\n        /* \"#utility.yul\":4745:4750   */\n      dup2\n        /* \"#utility.yul\":4730:4751   */\n      tag_541\n      jump\t// in\n    tag_672:\n        /* \"#utility.yul\":4723:4728   */\n      dup2\n        /* \"#utility.yul\":4720:4752   */\n      eq\n        /* \"#utility.yul\":4710:4770   */\n      tag_673\n      jumpi\n        /* \"#utility.yul\":4766:4767   */\n      0x00\n        /* \"#utility.yul\":4763:4764   */\n      dup1\n        /* \"#utility.yul\":4756:4768   */\n      revert\n        /* \"#utility.yul\":4710:4770   */\n    tag_673:\n        /* \"#utility.yul\":4660:4776   */\n      pop\n      jump\t// out\n        /* \"#utility.yul\":4782:4915   */\n    tag_547:\n        /* \"#utility.yul\":4825:4830   */\n      0x00\n        /* \"#utility.yul\":4863:4869   */\n      dup2\n        /* \"#utility.yul\":4850:4870   */\n      calldataload\n        /* \"#utility.yul\":4841:4870   */\n      swap1\n      pop\n        /* \"#utility.yul\":4879:4909   */\n      tag_675\n        /* \"#utility.yul\":4903:4908   */\n      dup2\n        /* \"#utility.yul\":4879:4909   */\n      tag_546\n      jump\t// in\n    tag_675:\n        /* \"#utility.yul\":4782:4915   */\n      swap3\n      swap2\n      pop\n      pop\n      jump\t// out\n        /* \"#utility.yul\":4921:5534   */\n    tag_54:\n        /* \"#utility.yul\":4995:5001   */\n      0x00\n        /* \"#utility.yul\":5003:5009   */\n      dup1\n        /* \"#utility.yul\":5011:5017   */\n      0x00\n        /* \"#utility.yul\":5060:5062   */\n      0x60\n        /* \"#utility.yul\":5048:5057   */\n      dup5\n        /* \"#utility.yul\":5039:5046   */\n      dup7\n        /* \"#utility.yul\":5035:5058   */\n      sub\n        /* \"#utility.yul\":5031:5063   */\n      slt\n        /* \"#utility.yul\":5028:5147   */\n      iszero\n      tag_677\n      jumpi\n        /* \"#utility.yul\":5066:5145   */\n      tag_678\n      tag_528\n      jump\t// in\n    tag_678:\n        /* \"#utility.yul\":5028:5147   */\n    tag_677:\n        /* \"#utility.yul\":5186:5187   */\n      0x00\n        /* \"#utility.yul\":5211:5264   */\n      tag_679\n        /* \"#utility.yul\":5256:5263   */\n      dup7\n        /* \"#utility.yul\":5247:5253   */\n      dup3\n        /* \"#utility.yul\":5236:5245   */\n      dup8\n        /* \"#utility.yul\":5232:5254   */\n      add\n        /* \"#utility.yul\":5211:5264   */\n      tag_532\n      jump\t// in\n    tag_679:\n        /* \"#utility.yul\":5201:5264   */\n      swap4\n      pop\n        /* \"#utility.yul\":5157:5274   */\n      pop\n        /* \"#utility.yul\":5313:5315   */\n      0x20\n        /* \"#utility.yul\":5339:5392   */\n      tag_680\n        /* \"#utility.yul\":5384:5391   */\n      dup7\n        /* \"#utility.yul\":5375:5381   */\n      dup3\n        /* \"#utility.yul\":5364:5373   */\n      dup8\n        /* \"#utility.yul\":5360:5382   */\n      add\n        /* \"#utility.yul\":5339:5392   */\n      tag_532\n      jump\t// in\n    tag_680:\n        /* \"#utility.yul\":5329:5392   */\n      swap3\n      pop\n        /* \"#utility.yul\":5284:5402   */\n      pop\n        /* \"#utility.yul\":5441:5443   */\n      0x40\n        /* \"#utility.yul\":5467:5517   */\n      tag_681\n        /* \"#utility.yul\":5509:5516   */\n      dup7\n        /* \"#utility.yul\":5500:5506   */\n      dup3\n        /* \"#utility.yul\":5489:5498   */\n      dup8\n        /* \"#utility.yul\":5485:5507   */\n      add\n        /* \"#utility.yul\":5467:5517   */\n      tag_547\n      jump\t// in\n    tag_681:\n        /* \"#utility.yul\":5457:5517   */\n      swap2\n      pop\n        /* \"#utility.yul\":5412:5527   */\n      pop\n        /* \"#utility.yul\":4921:5534   */\n      swap3\n      pop\n      swap3\n      pop\n      swap3\n      jump\t// out\n        /* \"#utility.yul\":5540:6159   */\n    tag_58:\n        /* \"#utility.yul\":5617:5623   */\n      0x00\n        /* \"#utility.yul\":5625:5631   */\n      dup1\n        /* \"#utility.yul\":5633:5639   */\n      0x00\n        /* \"#utility.yul\":5682:5684   */\n      0x60\n        /* \"#utility.yul\":5670:5679   */\n      dup5\n        /* \"#utility.yul\":5661:5668   */\n      dup7\n        /* \"#utility.yul\":5657:5680   */\n      sub\n        /* \"#utility.yul\":5653:5685   */\n      slt\n        /* \"#utility.yul\":5650:5769   */\n      iszero\n      tag_683\n      jumpi\n        /* \"#utility.yul\":5688:5767   */\n      tag_684\n      tag_528\n      jump\t// in\n    tag_684:\n        /* \"#utility.yul\":5650:5769   */\n    tag_683:\n        /* \"#utility.yul\":5808:5809   */\n      0x00\n        /* \"#utility.yul\":5833:5886   */\n      tag_685\n        /* \"#utility.yul\":5878:5885   */\n      dup7\n        /* \"#utility.yul\":5869:5875   */\n      dup3\n        /* \"#utility.yul\":5858:5867   */\n      dup8\n        /* \"#utility.yul\":5854:5876   */\n      add\n        /* \"#utility.yul\":5833:5886   */\n      tag_532\n      jump\t// in\n    tag_685:\n        /* \"#utility.yul\":5823:5886   */\n      swap4\n      pop\n        /* \"#utility.yul\":5779:5896   */\n      pop\n        /* \"#utility.yul\":5935:5937   */\n      0x20\n        /* \"#utility.yul\":5961:6014   */\n      tag_686\n        /* \"#utility.yul\":6006:6013   */\n      dup7\n        /* \"#utility.yul\":5997:6003   */\n      dup3\n        /* \"#utility.yul\":5986:5995   */\n      dup8\n        /* \"#utility.yul\":5982:6004   */\n      add\n        /* \"#utility.yul\":5961:6014   */\n      tag_532\n      jump\t// in\n    tag_686:\n        /* \"#utility.yul\":5951:6014   */\n      swap3\n      pop\n        /* \"#utility.yul\":5906:6024   */\n      pop\n        /* \"#utility.yul\":6063:6065   */\n      0x40\n        /* \"#utility.yul\":6089:6142   */\n      tag_687\n        /* \"#utility.yul\":6134:6141   */\n      dup7\n        /* \"#utility.yul\":6125:6131   */\n      dup3\n        /* \"#utility.yul\":6114:6123   */\n      dup8\n        /* \"#utility.yul\":6110:6132   */\n      add\n        /* \"#utility.yul\":6089:6142   */\n      tag_532\n      jump\t// in\n    tag_687:\n        /* \"#utility.yul\":6079:6142   */\n      swap2\n      pop\n        /* \"#utility.yul\":6034:6152   */\n      pop\n        /* \"#utility.yul\":5540:6159   */\n      swap3\n      pop\n      swap3\n      pop\n      swap3\n      jump\t// out\n        /* \"#utility.yul\":6165:6287   */\n    tag_548:\n        /* \"#utility.yul\":6238:6262   */\n      tag_689\n        /* \"#utility.yul\":6256:6261   */\n      dup2\n        /* \"#utility.yul\":6238:6262   */\n      tag_544\n      jump\t// in\n    tag_689:\n        /* \"#utility.yul\":6231:6236   */\n      dup2\n        /* \"#utility.yul\":6228:6263   */\n      eq\n        /* \"#utility.yul\":6218:6281   */\n      tag_690\n      jumpi\n        /* \"#utility.yul\":6277:6278   */\n      0x00\n        /* \"#utility.yul\":6274:6275   */\n      dup1\n        /* \"#utility.yul\":6267:6279   */\n      revert\n        /* \"#utility.yul\":6218:6281   */\n    tag_690:\n        /* \"#utility.yul\":6165:6287   */\n      pop\n      jump\t// out\n        /* \"#utility.yul\":6293:6432   */\n    tag_549:\n        /* \"#utility.yul\":6339:6344   */\n      0x00\n        /* \"#utility.yul\":6377:6383   */\n      dup2\n        /* \"#utility.yul\":6364:6384   */\n      calldataload\n        /* \"#utility.yul\":6355:6384   */\n      swap1\n      pop\n        /* \"#utility.yul\":6393:6426   */\n      tag_692\n        /* \"#utility.yul\":6420:6425   */\n      dup2\n        /* \"#utility.yul\":6393:6426   */\n      tag_548\n      jump\t// in\n    tag_692:\n        /* \"#utility.yul\":6293:6432   */\n      swap3\n      swap2\n      pop\n      pop\n      jump\t// out\n        /* \"#utility.yul\":6438:6767   */\n    tag_62:\n        /* \"#utility.yul\":6497:6503   */\n      0x00\n        /* \"#utility.yul\":6546:6548   */\n      0x20\n        /* \"#utility.yul\":6534:6543   */\n      dup3\n        /* \"#utility.yul\":6525:6532   */\n      dup5\n        /* \"#utility.yul\":6521:6544   */\n      sub\n        /* \"#utility.yul\":6517:6549   */\n      slt\n        /* \"#utility.yul\":6514:6633   */\n      iszero\n      tag_694\n      jumpi\n        /* \"#utility.yul\":6552:6631   */\n      tag_695\n      tag_528\n      jump\t// in\n    tag_695:\n        /* \"#utility.yul\":6514:6633   */\n    tag_694:\n        /* \"#utility.yul\":6672:6673   */\n      0x00\n        /* \"#utility.yul\":6697:6750   */\n      tag_696\n        /* \"#utility.yul\":6742:6749   */\n      dup5\n        /* \"#utility.yul\":6733:6739   */\n      dup3\n        /* \"#utility.yul\":6722:6731   */\n      dup6\n        /* \"#utility.yul\":6718:6740   */\n      add\n        /* \"#utility.yul\":6697:6750   */\n      tag_549\n      jump\t// in\n    tag_696:\n        /* \"#utility.yul\":6687:6750   */\n      swap2\n      pop\n        /* \"#utility.yul\":6643:6760   */\n      pop\n        /* \"#utility.yul\":6438:6767   */\n      swap3\n      swap2\n      pop\n      pop\n      jump\t// out\n        /* \"#utility.yul\":6773:7247   */\n    tag_66:\n        /* \"#utility.yul\":6841:6847   */\n      0x00\n        /* \"#utility.yul\":6849:6855   */\n      dup1\n        /* \"#utility.yul\":6898:6900   */\n      0x40\n        /* \"#utility.yul\":6886:6895   */\n      dup4\n        /* \"#utility.yul\":6877:6884   */\n      dup6\n        /* \"#utility.yul\":6873:6896   */\n      sub\n        /* \"#utility.yul\":6869:6901   */\n      slt\n        /* \"#utility.yul\":6866:6985   */\n      iszero\n      tag_698\n      jumpi\n        /* \"#utility.yul\":6904:6983   */\n      tag_699\n      tag_528\n      jump\t// in\n    tag_699:\n        /* \"#utility.yul\":6866:6985   */\n    tag_698:\n        /* \"#utility.yul\":7024:7025   */\n      0x00\n        /* \"#utility.yul\":7049:7102   */\n      tag_700\n        /* \"#utility.yul\":7094:7101   */\n      dup6\n        /* \"#utility.yul\":7085:7091   */\n      dup3\n        /* \"#utility.yul\":7074:7083   */\n      dup7\n        /* \"#utility.yul\":7070:7092   */\n      add\n        /* \"#utility.yul\":7049:7102   */\n      tag_532\n      jump\t// in\n    tag_700:\n        /* \"#utility.yul\":7039:7102   */\n      swap3\n      pop\n        /* \"#utility.yul\":6995:7112   */\n      pop\n        /* \"#utility.yul\":7151:7153   */\n      0x20\n        /* \"#utility.yul\":7177:7230   */\n      tag_701\n        /* \"#utility.yul\":7222:7229   */\n      dup6\n        /* \"#utility.yul\":7213:7219   */\n      dup3\n        /* \"#utility.yul\":7202:7211   */\n      dup7\n        /* \"#utility.yul\":7198:7220   */\n      add\n        /* \"#utility.yul\":7177:7230   */\n      tag_532\n      jump\t// in\n    tag_701:\n        /* \"#utility.yul\":7167:7230   */\n      swap2\n      pop\n        /* \"#utility.yul\":7122:7240   */\n      pop\n        /* \"#utility.yul\":6773:7247   */\n      swap3\n      pop\n      swap3\n      swap1\n      pop\n      jump\t// out\n        /* \"#utility.yul\":7253:7475   */\n    tag_72:\n        /* \"#utility.yul\":7346:7350   */\n      0x00\n        /* \"#utility.yul\":7384:7386   */\n      0x20\n        /* \"#utility.yul\":7373:7382   */\n      dup3\n        /* \"#utility.yul\":7369:7387   */\n      add\n        /* \"#utility.yul\":7361:7387   */\n      swap1\n      pop\n        /* \"#utility.yul\":7397:7468   */\n      tag_703\n        /* \"#utility.yul\":7465:7466   */\n      0x00\n        /* \"#utility.yul\":7454:7463   */\n      dup4\n        /* \"#utility.yul\":7450:7467   */\n      add\n        /* \"#utility.yul\":7441:7447   */\n      dup5\n        /* \"#utility.yul\":7397:7468   */\n      tag_533\n      jump\t// in\n    tag_703:\n        /* \"#utility.yul\":7253:7475   */\n      swap3\n      swap2\n      pop\n      pop\n      jump\t// out\n        /* \"#utility.yul\":7481:7624   */\n    tag_550:\n        /* \"#utility.yul\":7577:7583   */\n      0x00\n        /* \"#utility.yul\":7611:7616   */\n      dup2\n        /* \"#utility.yul\":7605:7617   */\n      mload\n        /* \"#utility.yul\":7595:7617   */\n      swap1\n      pop\n        /* \"#utility.yul\":7481:7624   */\n      swap2\n      swap1\n      pop\n      jump\t// out\n        /* \"#utility.yul\":7630:7843   */\n    tag_551:\n        /* \"#utility.yul\":7758:7769   */\n      0x00\n        /* \"#utility.yul\":7792:7798   */\n      dup3\n        /* \"#utility.yul\":7787:7790   */\n      dup3\n        /* \"#utility.yul\":7780:7799   */\n      mstore\n        /* \"#utility.yul\":7832:7836   */\n      0x20\n        /* \"#utility.yul\":7827:7830   */\n      dup3\n        /* \"#utility.yul\":7823:7837   */\n      add\n        /* \"#utility.yul\":7808:7837   */\n      swap1\n      pop\n        /* \"#utility.yul\":7630:7843   */\n      swap3\n      swap2\n      pop\n      pop\n      jump\t// out\n        /* \"#utility.yul\":7849:8010   */\n    tag_552:\n        /* \"#utility.yul\":7945:7949   */\n      0x00\n        /* \"#utility.yul\":7968:7971   */\n      dup2\n        /* \"#utility.yul\":7960:7971   */\n      swap1\n      pop\n        /* \"#utility.yul\":7998:8002   */\n      0x20\n        /* \"#utility.yul\":7993:7996   */\n      dup3\n        /* \"#utility.yul\":7989:8003   */\n      add\n        /* \"#utility.yul\":7981:8003   */\n      swap1\n      pop\n        /* \"#utility.yul\":7849:8010   */\n      swap2\n      swap1\n      pop\n      jump\t// out\n        /* \"#utility.yul\":8016:8124   */\n    tag_553:\n        /* \"#utility.yul\":8093:8117   */\n      tag_708\n        /* \"#utility.yul\":8111:8116   */\n      dup2\n        /* \"#utility.yul\":8093:8117   */\n      tag_530\n      jump\t// in\n    tag_708:\n        /* \"#utility.yul\":8088:8091   */\n      dup3\n        /* \"#utility.yul\":8081:8118   */\n      mstore\n        /* \"#utility.yul\":8016:8124   */\n      pop\n      pop\n      jump\t// out\n        /* \"#utility.yul\":8130:8238   */\n    tag_554:\n        /* \"#utility.yul\":8207:8231   */\n      tag_710\n        /* \"#utility.yul\":8225:8230   */\n      dup2\n        /* \"#utility.yul\":8207:8231   */\n      tag_544\n      jump\t// in\n    tag_710:\n        /* \"#utility.yul\":8202:8205   */\n      dup3\n        /* \"#utility.yul\":8195:8232   */\n      mstore\n        /* \"#utility.yul\":8130:8238   */\n      pop\n      pop\n      jump\t// out\n        /* \"#utility.yul\":8244:8343   */\n    tag_555:\n        /* \"#utility.yul\":8315:8336   */\n      tag_712\n        /* \"#utility.yul\":8330:8335   */\n      dup2\n        /* \"#utility.yul\":8315:8336   */\n      tag_541\n      jump\t// in\n    tag_712:\n        /* \"#utility.yul\":8310:8313   */\n      dup3\n        /* \"#utility.yul\":8303:8337   */\n      mstore\n        /* \"#utility.yul\":8244:8343   */\n      pop\n      pop\n      jump\t// out\n        /* \"#utility.yul\":8441:10764   */\n    tag_556:\n        /* \"#utility.yul\":8586:8592   */\n      0x0180\n        /* \"#utility.yul\":8581:8584   */\n      dup3\n        /* \"#utility.yul\":8577:8593   */\n      add\n        /* \"#utility.yul\":8688:8692   */\n      0x00\n        /* \"#utility.yul\":8681:8686   */\n      dup3\n        /* \"#utility.yul\":8677:8693   */\n      add\n        /* \"#utility.yul\":8671:8694   */\n      mload\n        /* \"#utility.yul\":8707:8770   */\n      tag_714\n        /* \"#utility.yul\":8764:8768   */\n      0x00\n        /* \"#utility.yul\":8759:8762   */\n      dup6\n        /* \"#utility.yul\":8755:8769   */\n      add\n        /* \"#utility.yul\":8741:8753   */\n      dup3\n        /* \"#utility.yul\":8707:8770   */\n      tag_553\n      jump\t// in\n    tag_714:\n        /* \"#utility.yul\":8603:8780   */\n      pop\n        /* \"#utility.yul\":8868:8872   */\n      0x20\n        /* \"#utility.yul\":8861:8866   */\n      dup3\n        /* \"#utility.yul\":8857:8873   */\n      add\n        /* \"#utility.yul\":8851:8874   */\n      mload\n        /* \"#utility.yul\":8887:8950   */\n      tag_715\n        /* \"#utility.yul\":8944:8948   */\n      0x20\n        /* \"#utility.yul\":8939:8942   */\n      dup6\n        /* \"#utility.yul\":8935:8949   */\n      add\n        /* \"#utility.yul\":8921:8933   */\n      dup3\n        /* \"#utility.yul\":8887:8950   */\n      tag_553\n      jump\t// in\n    tag_715:\n        /* \"#utility.yul\":8790:8960   */\n      pop\n        /* \"#utility.yul\":9044:9048   */\n      0x40\n        /* \"#utility.yul\":9037:9042   */\n      dup3\n        /* \"#utility.yul\":9033:9049   */\n      add\n        /* \"#utility.yul\":9027:9050   */\n      mload\n        /* \"#utility.yul\":9063:9126   */\n      tag_716\n        /* \"#utility.yul\":9120:9124   */\n      0x40\n        /* \"#utility.yul\":9115:9118   */\n      dup6\n        /* \"#utility.yul\":9111:9125   */\n      add\n        /* \"#utility.yul\":9097:9109   */\n      dup3\n        /* \"#utility.yul\":9063:9126   */\n      tag_553\n      jump\t// in\n    tag_716:\n        /* \"#utility.yul\":8970:9136   */\n      pop\n        /* \"#utility.yul\":9218:9222   */\n      0x60\n        /* \"#utility.yul\":9211:9216   */\n      dup3\n        /* \"#utility.yul\":9207:9223   */\n      add\n        /* \"#utility.yul\":9201:9224   */\n      mload\n        /* \"#utility.yul\":9237:9300   */\n      tag_717\n        /* \"#utility.yul\":9294:9298   */\n      0x60\n        /* \"#utility.yul\":9289:9292   */\n      dup6\n        /* \"#utility.yul\":9285:9299   */\n      add\n        /* \"#utility.yul\":9271:9283   */\n      dup3\n        /* \"#utility.yul\":9237:9300   */\n      tag_553\n      jump\t// in\n    tag_717:\n        /* \"#utility.yul\":9146:9310   */\n      pop\n        /* \"#utility.yul\":9393:9397   */\n      0x80\n        /* \"#utility.yul\":9386:9391   */\n      dup3\n        /* \"#utility.yul\":9382:9398   */\n      add\n        /* \"#utility.yul\":9376:9399   */\n      mload\n        /* \"#utility.yul\":9412:9475   */\n      tag_718\n        /* \"#utility.yul\":9469:9473   */\n      0x80\n        /* \"#utility.yul\":9464:9467   */\n      dup6\n        /* \"#utility.yul\":9460:9474   */\n      add\n        /* \"#utility.yul\":9446:9458   */\n      dup3\n        /* \"#utility.yul\":9412:9475   */\n      tag_554\n      jump\t// in\n    tag_718:\n        /* \"#utility.yul\":9320:9485   */\n      pop\n        /* \"#utility.yul\":9571:9575   */\n      0xa0\n        /* \"#utility.yul\":9564:9569   */\n      dup3\n        /* \"#utility.yul\":9560:9576   */\n      add\n        /* \"#utility.yul\":9554:9577   */\n      mload\n        /* \"#utility.yul\":9590:9647   */\n      tag_719\n        /* \"#utility.yul\":9641:9645   */\n      0xa0\n        /* \"#utility.yul\":9636:9639   */\n      dup6\n        /* \"#utility.yul\":9632:9646   */\n      add\n        /* \"#utility.yul\":9618:9630   */\n      dup3\n        /* \"#utility.yul\":9590:9647   */\n      tag_555\n      jump\t// in\n    tag_719:\n        /* \"#utility.yul\":9495:9657   */\n      pop\n        /* \"#utility.yul\":9750:9754   */\n      0xc0\n        /* \"#utility.yul\":9743:9748   */\n      dup3\n        /* \"#utility.yul\":9739:9755   */\n      add\n        /* \"#utility.yul\":9733:9756   */\n      mload\n        /* \"#utility.yul\":9769:9826   */\n      tag_720\n        /* \"#utility.yul\":9820:9824   */\n      0xc0\n        /* \"#utility.yul\":9815:9818   */\n      dup6\n        /* \"#utility.yul\":9811:9825   */\n      add\n        /* \"#utility.yul\":9797:9809   */\n      dup3\n        /* \"#utility.yul\":9769:9826   */\n      tag_555\n      jump\t// in\n    tag_720:\n        /* \"#utility.yul\":9667:9836   */\n      pop\n        /* \"#utility.yul\":9934:9938   */\n      0xe0\n        /* \"#utility.yul\":9927:9932   */\n      dup3\n        /* \"#utility.yul\":9923:9939   */\n      add\n        /* \"#utility.yul\":9917:9940   */\n      mload\n        /* \"#utility.yul\":9953:10010   */\n      tag_721\n        /* \"#utility.yul\":10004:10008   */\n      0xe0\n        /* \"#utility.yul\":9999:10002   */\n      dup6\n        /* \"#utility.yul\":9995:10009   */\n      add\n        /* \"#utility.yul\":9981:9993   */\n      dup3\n        /* \"#utility.yul\":9953:10010   */\n      tag_555\n      jump\t// in\n    tag_721:\n        /* \"#utility.yul\":9846:10020   */\n      pop\n        /* \"#utility.yul\":10120:10126   */\n      0x0100\n        /* \"#utility.yul\":10113:10118   */\n      dup3\n        /* \"#utility.yul\":10109:10127   */\n      add\n        /* \"#utility.yul\":10103:10128   */\n      mload\n        /* \"#utility.yul\":10141:10200   */\n      tag_722\n        /* \"#utility.yul\":10192:10198   */\n      0x0100\n        /* \"#utility.yul\":10187:10190   */\n      dup6\n        /* \"#utility.yul\":10183:10199   */\n      add\n        /* \"#utility.yul\":10169:10181   */\n      dup3\n        /* \"#utility.yul\":10141:10200   */\n      tag_555\n      jump\t// in\n    tag_722:\n        /* \"#utility.yul\":10030:10210   */\n      pop\n        /* \"#utility.yul\":10311:10317   */\n      0x0120\n        /* \"#utility.yul\":10304:10309   */\n      dup3\n        /* \"#utility.yul\":10300:10318   */\n      add\n        /* \"#utility.yul\":10294:10319   */\n      mload\n        /* \"#utility.yul\":10332:10391   */\n      tag_723\n        /* \"#utility.yul\":10383:10389   */\n      0x0120\n        /* \"#utility.yul\":10378:10381   */\n      dup6\n        /* \"#utility.yul\":10374:10390   */\n      add\n        /* \"#utility.yul\":10360:10372   */\n      dup3\n        /* \"#utility.yul\":10332:10391   */\n      tag_555\n      jump\t// in\n    tag_723:\n        /* \"#utility.yul\":10220:10401   */\n      pop\n        /* \"#utility.yul\":10493:10499   */\n      0x0140\n        /* \"#utility.yul\":10486:10491   */\n      dup3\n        /* \"#utility.yul\":10482:10500   */\n      add\n        /* \"#utility.yul\":10476:10501   */\n      mload\n        /* \"#utility.yul\":10514:10573   */\n      tag_724\n        /* \"#utility.yul\":10565:10571   */\n      0x0140\n        /* \"#utility.yul\":10560:10563   */\n      dup6\n        /* \"#utility.yul\":10556:10572   */\n      add\n        /* \"#utility.yul\":10542:10554   */\n      dup3\n        /* \"#utility.yul\":10514:10573   */\n      tag_555\n      jump\t// in\n    tag_724:\n        /* \"#utility.yul\":10411:10583   */\n      pop\n        /* \"#utility.yul\":10667:10673   */\n      0x0160\n        /* \"#utility.yul\":10660:10665   */\n      dup3\n        /* \"#utility.yul\":10656:10674   */\n      add\n        /* \"#utility.yul\":10650:10675   */\n      mload\n        /* \"#utility.yul\":10688:10747   */\n      tag_725\n        /* \"#utility.yul\":10739:10745   */\n      0x0160\n        /* \"#utility.yul\":10734:10737   */\n      dup6\n        /* \"#utility.yul\":10730:10746   */\n      add\n        /* \"#utility.yul\":10716:10728   */\n      dup3\n        /* \"#utility.yul\":10688:10747   */\n      tag_555\n      jump\t// in\n    tag_725:\n        /* \"#utility.yul\":10593:10757   */\n      pop\n        /* \"#utility.yul\":8555:10764   */\n      pop\n        /* \"#utility.yul\":8441:10764   */\n      pop\n      pop\n      jump\t// out\n        /* \"#utility.yul\":10770:11067   */\n    tag_557:\n        /* \"#utility.yul\":10897:10907   */\n      0x00\n        /* \"#utility.yul\":10918:11022   */\n      tag_727\n        /* \"#utility.yul\":11018:11021   */\n      dup4\n        /* \"#utility.yul\":11010:11016   */\n      dup4\n        /* \"#utility.yul\":10918:11022   */\n      tag_556\n      jump\t// in\n    tag_727:\n        /* \"#utility.yul\":11054:11060   */\n      0x0180\n        /* \"#utility.yul\":11049:11052   */\n      dup4\n        /* \"#utility.yul\":11045:11061   */\n      add\n        /* \"#utility.yul\":11031:11061   */\n      swap1\n      pop\n        /* \"#utility.yul\":10770:11067   */\n      swap3\n      swap2\n      pop\n      pop\n      jump\t// out\n        /* \"#utility.yul\":11073:11215   */\n    tag_558:\n        /* \"#utility.yul\":11172:11176   */\n      0x00\n        /* \"#utility.yul\":11204:11208   */\n      0x20\n        /* \"#utility.yul\":11199:11202   */\n      dup3\n        /* \"#utility.yul\":11195:11209   */\n      add\n        /* \"#utility.yul\":11187:11209   */\n      swap1\n      pop\n        /* \"#utility.yul\":11073:11215   */\n      swap2\n      swap1\n      pop\n      jump\t// out\n        /* \"#utility.yul\":11317:12281   */\n    tag_559:\n        /* \"#utility.yul\":11494:11497   */\n      0x00\n        /* \"#utility.yul\":11523:11606   */\n      tag_730\n        /* \"#utility.yul\":11600:11605   */\n      dup3\n        /* \"#utility.yul\":11523:11606   */\n      tag_550\n      jump\t// in\n    tag_730:\n        /* \"#utility.yul\":11622:11737   */\n      tag_731\n        /* \"#utility.yul\":11730:11736   */\n      dup2\n        /* \"#utility.yul\":11725:11728   */\n      dup6\n        /* \"#utility.yul\":11622:11737   */\n      tag_551\n      jump\t// in\n    tag_731:\n        /* \"#utility.yul\":11615:11737   */\n      swap4\n      pop\n        /* \"#utility.yul\":11761:11846   */\n      tag_732\n        /* \"#utility.yul\":11840:11845   */\n      dup4\n        /* \"#utility.yul\":11761:11846   */\n      tag_552\n      jump\t// in\n    tag_732:\n        /* \"#utility.yul\":11869:11876   */\n      dup1\n        /* \"#utility.yul\":11900:11901   */\n      0x00\n        /* \"#utility.yul\":11885:12256   */\n    tag_733:\n        /* \"#utility.yul\":11910:11916   */\n      dup4\n        /* \"#utility.yul\":11907:11908   */\n      dup2\n        /* \"#utility.yul\":11904:11917   */\n      lt\n        /* \"#utility.yul\":11885:12256   */\n      iszero\n      tag_735\n      jumpi\n        /* \"#utility.yul\":11986:11992   */\n      dup2\n        /* \"#utility.yul\":11980:11993   */\n      mload\n        /* \"#utility.yul\":12013:12134   */\n      tag_736\n        /* \"#utility.yul\":12130:12133   */\n      dup9\n        /* \"#utility.yul\":12115:12128   */\n      dup3\n        /* \"#utility.yul\":12013:12134   */\n      tag_557\n      jump\t// in\n    tag_736:\n        /* \"#utility.yul\":12006:12134   */\n      swap8\n      pop\n        /* \"#utility.yul\":12157:12246   */\n      tag_737\n        /* \"#utility.yul\":12239:12245   */\n      dup4\n        /* \"#utility.yul\":12157:12246   */\n      tag_558\n      jump\t// in\n    tag_737:\n        /* \"#utility.yul\":12147:12246   */\n      swap3\n      pop\n        /* \"#utility.yul\":11945:12256   */\n      pop\n        /* \"#utility.yul\":11932:11933   */\n      0x01\n        /* \"#utility.yul\":11929:11930   */\n      dup2\n        /* \"#utility.yul\":11925:11934   */\n      add\n        /* \"#utility.yul\":11920:11934   */\n      swap1\n      pop\n        /* \"#utility.yul\":11885:12256   */\n      jump(tag_733)\n    tag_735:\n        /* \"#utility.yul\":11889:11903   */\n      pop\n        /* \"#utility.yul\":12272:12275   */\n      dup6\n        /* \"#utility.yul\":12265:12275   */\n      swap4\n      pop\n        /* \"#utility.yul\":11499:12281   */\n      pop\n      pop\n      pop\n        /* \"#utility.yul\":11317:12281   */\n      swap3\n      swap2\n      pop\n      pop\n      jump\t// out\n        /* \"#utility.yul\":12287:12776   */\n    tag_83:\n        /* \"#utility.yul\":12488:12492   */\n      0x00\n        /* \"#utility.yul\":12526:12528   */\n      0x20\n        /* \"#utility.yul\":12515:12524   */\n      dup3\n        /* \"#utility.yul\":12511:12529   */\n      add\n        /* \"#utility.yul\":12503:12529   */\n      swap1\n      pop\n        /* \"#utility.yul\":12575:12584   */\n      dup2\n        /* \"#utility.yul\":12569:12573   */\n      dup2\n        /* \"#utility.yul\":12565:12585   */\n      sub\n        /* \"#utility.yul\":12561:12562   */\n      0x00\n        /* \"#utility.yul\":12550:12559   */\n      dup4\n        /* \"#utility.yul\":12546:12563   */\n      add\n        /* \"#utility.yul\":12539:12586   */\n      mstore\n        /* \"#utility.yul\":12603:12769   */\n      tag_739\n        /* \"#utility.yul\":12764:12768   */\n      dup2\n        /* \"#utility.yul\":12755:12761   */\n      dup5\n        /* \"#utility.yul\":12603:12769   */\n      tag_559\n      jump\t// in\n    tag_739:\n        /* \"#utility.yul\":12595:12769   */\n      swap1\n      pop\n        /* \"#utility.yul\":12287:12776   */\n      swap3\n      swap2\n      pop\n      pop\n      jump\t// out\n        /* \"#utility.yul\":12782:13256   */\n    tag_97:\n        /* \"#utility.yul\":12850:12856   */\n      0x00\n        /* \"#utility.yul\":12858:12864   */\n      dup1\n        /* \"#utility.yul\":12907:12909   */\n      0x40\n        /* \"#utility.yul\":12895:12904   */\n      dup4\n        /* \"#utility.yul\":12886:12893   */\n      dup6\n        /* \"#utility.yul\":12882:12905   */\n      sub\n        /* \"#utility.yul\":12878:12910   */\n      slt\n        /* \"#utility.yul\":12875:12994   */\n      iszero\n      tag_741\n      jumpi\n        /* \"#utility.yul\":12913:12992   */\n      tag_742\n      tag_528\n      jump\t// in\n    tag_742:\n        /* \"#utility.yul\":12875:12994   */\n    tag_741:\n        /* \"#utility.yul\":13033:13034   */\n      0x00\n        /* \"#utility.yul\":13058:13111   */\n      tag_743\n        /* \"#utility.yul\":13103:13110   */\n      dup6\n        /* \"#utility.yul\":13094:13100   */\n      dup3\n        /* \"#utility.yul\":13083:13092   */\n      dup7\n        /* \"#utility.yul\":13079:13101   */\n      add\n        /* \"#utility.yul\":13058:13111   */\n      tag_549\n      jump\t// in\n    tag_743:\n        /* \"#utility.yul\":13048:13111   */\n      swap3\n      pop\n        /* \"#utility.yul\":13004:13121   */\n      pop\n        /* \"#utility.yul\":13160:13162   */\n      0x20\n        /* \"#utility.yul\":13186:13239   */\n      tag_744\n        /* \"#utility.yul\":13231:13238   */\n      dup6\n        /* \"#utility.yul\":13222:13228   */\n      dup3\n        /* \"#utility.yul\":13211:13220   */\n      dup7\n        /* \"#utility.yul\":13207:13229   */\n      add\n        /* \"#utility.yul\":13186:13239   */\n      tag_532\n      jump\t// in\n    tag_744:\n        /* \"#utility.yul\":13176:13239   */\n      swap2\n      pop\n        /* \"#utility.yul\":13131:13249   */\n      pop\n        /* \"#utility.yul\":12782:13256   */\n      swap3\n      pop\n      swap3\n      swap1\n      pop\n      jump\t// out\n        /* \"#utility.yul\":13262:13594   */\n    tag_100:\n        /* \"#utility.yul\":13383:13387   */\n      0x00\n        /* \"#utility.yul\":13421:13423   */\n      0x40\n        /* \"#utility.yul\":13410:13419   */\n      dup3\n        /* \"#utility.yul\":13406:13424   */\n      add\n        /* \"#utility.yul\":13398:13424   */\n      swap1\n      pop\n        /* \"#utility.yul\":13434:13505   */\n      tag_746\n        /* \"#utility.yul\":13502:13503   */\n      0x00\n        /* \"#utility.yul\":13491:13500   */\n      dup4\n        /* \"#utility.yul\":13487:13504   */\n      add\n        /* \"#utility.yul\":13478:13484   */\n      dup6\n        /* \"#utility.yul\":13434:13505   */\n      tag_533\n      jump\t// in\n    tag_746:\n        /* \"#utility.yul\":13515:13587   */\n      tag_747\n        /* \"#utility.yul\":13583:13585   */\n      0x20\n        /* \"#utility.yul\":13572:13581   */\n      dup4\n        /* \"#utility.yul\":13568:13586   */\n      add\n        /* \"#utility.yul\":13559:13565   */\n      dup5\n        /* \"#utility.yul\":13515:13587   */\n      tag_533\n      jump\t// in\n    tag_747:\n        /* \"#utility.yul\":13262:13594   */\n      swap4\n      swap3\n      pop\n      pop\n      pop\n      jump\t// out\n        /* \"#utility.yul\":13600:13714   */\n    tag_560:\n        /* \"#utility.yul\":13667:13673   */\n      0x00\n        /* \"#utility.yul\":13701:13706   */\n      dup2\n        /* \"#utility.yul\":13695:13707   */\n      mload\n        /* \"#utility.yul\":13685:13707   */\n      swap1\n      pop\n        /* \"#utility.yul\":13600:13714   */\n      swap2\n      swap1\n      pop\n      jump\t// out\n        /* \"#utility.yul\":13720:13904   */\n    tag_561:\n        /* \"#utility.yul\":13819:13830   */\n      0x00\n        /* \"#utility.yul\":13853:13859   */\n      dup3\n        /* \"#utility.yul\":13848:13851   */\n      dup3\n        /* \"#utility.yul\":13841:13860   */\n      mstore\n        /* \"#utility.yul\":13893:13897   */\n      0x20\n        /* \"#utility.yul\":13888:13891   */\n      dup3\n        /* \"#utility.yul\":13884:13898   */\n      add\n        /* \"#utility.yul\":13869:13898   */\n      swap1\n      pop\n        /* \"#utility.yul\":13720:13904   */\n      swap3\n      swap2\n      pop\n      pop\n      jump\t// out\n        /* \"#utility.yul\":13910:14042   */\n    tag_562:\n        /* \"#utility.yul\":13977:13981   */\n      0x00\n        /* \"#utility.yul\":14000:14003   */\n      dup2\n        /* \"#utility.yul\":13992:14003   */\n      swap1\n      pop\n        /* \"#utility.yul\":14030:14034   */\n      0x20\n        /* \"#utility.yul\":14025:14028   */\n      dup3\n        /* \"#utility.yul\":14021:14035   */\n      add\n        /* \"#utility.yul\":14013:14035   */\n      swap1\n      pop\n        /* \"#utility.yul\":13910:14042   */\n      swap2\n      swap1\n      pop\n      jump\t// out\n        /* \"#utility.yul\":14048:14227   */\n    tag_563:\n        /* \"#utility.yul\":14117:14127   */\n      0x00\n        /* \"#utility.yul\":14138:14184   */\n      tag_752\n        /* \"#utility.yul\":14180:14183   */\n      dup4\n        /* \"#utility.yul\":14172:14178   */\n      dup4\n        /* \"#utility.yul\":14138:14184   */\n      tag_553\n      jump\t// in\n    tag_752:\n        /* \"#utility.yul\":14216:14220   */\n      0x20\n        /* \"#utility.yul\":14211:14214   */\n      dup4\n        /* \"#utility.yul\":14207:14221   */\n      add\n        /* \"#utility.yul\":14193:14221   */\n      swap1\n      pop\n        /* \"#utility.yul\":14048:14227   */\n      swap3\n      swap2\n      pop\n      pop\n      jump\t// out\n        /* \"#utility.yul\":14233:14346   */\n    tag_564:\n        /* \"#utility.yul\":14303:14307   */\n      0x00\n        /* \"#utility.yul\":14335:14339   */\n      0x20\n        /* \"#utility.yul\":14330:14333   */\n      dup3\n        /* \"#utility.yul\":14326:14340   */\n      add\n        /* \"#utility.yul\":14318:14340   */\n      swap1\n      pop\n        /* \"#utility.yul\":14233:14346   */\n      swap2\n      swap1\n      pop\n      jump\t// out\n        /* \"#utility.yul\":14382:15114   */\n    tag_565:\n        /* \"#utility.yul\":14501:14504   */\n      0x00\n        /* \"#utility.yul\":14530:14584   */\n      tag_755\n        /* \"#utility.yul\":14578:14583   */\n      dup3\n        /* \"#utility.yul\":14530:14584   */\n      tag_560\n      jump\t// in\n    tag_755:\n        /* \"#utility.yul\":14600:14686   */\n      tag_756\n        /* \"#utility.yul\":14679:14685   */\n      dup2\n        /* \"#utility.yul\":14674:14677   */\n      dup6\n        /* \"#utility.yul\":14600:14686   */\n      tag_561\n      jump\t// in\n    tag_756:\n        /* \"#utility.yul\":14593:14686   */\n      swap4\n      pop\n        /* \"#utility.yul\":14710:14766   */\n      tag_757\n        /* \"#utility.yul\":14760:14765   */\n      dup4\n        /* \"#utility.yul\":14710:14766   */\n      tag_562\n      jump\t// in\n    tag_757:\n        /* \"#utility.yul\":14789:14796   */\n      dup1\n        /* \"#utility.yul\":14820:14821   */\n      0x00\n        /* \"#utility.yul\":14805:15089   */\n    tag_758:\n        /* \"#utility.yul\":14830:14836   */\n      dup4\n        /* \"#utility.yul\":14827:14828   */\n      dup2\n        /* \"#utility.yul\":14824:14837   */\n      lt\n        /* \"#utility.yul\":14805:15089   */\n      iszero\n      tag_760\n      jumpi\n        /* \"#utility.yul\":14906:14912   */\n      dup2\n        /* \"#utility.yul\":14900:14913   */\n      mload\n        /* \"#utility.yul\":14933:14996   */\n      tag_761\n        /* \"#utility.yul\":14992:14995   */\n      dup9\n        /* \"#utility.yul\":14977:14990   */\n      dup3\n        /* \"#utility.yul\":14933:14996   */\n      tag_563\n      jump\t// in\n    tag_761:\n        /* \"#utility.yul\":14926:14996   */\n      swap8\n      pop\n        /* \"#utility.yul\":15019:15079   */\n      tag_762\n        /* \"#utility.yul\":15072:15078   */\n      dup4\n        /* \"#utility.yul\":15019:15079   */\n      tag_564\n      jump\t// in\n    tag_762:\n        /* \"#utility.yul\":15009:15079   */\n      swap3\n      pop\n        /* \"#utility.yul\":14865:15089   */\n      pop\n        /* \"#utility.yul\":14852:14853   */\n      0x01\n        /* \"#utility.yul\":14849:14850   */\n      dup2\n        /* \"#utility.yul\":14845:14854   */\n      add\n        /* \"#utility.yul\":14840:14854   */\n      swap1\n      pop\n        /* \"#utility.yul\":14805:15089   */\n      jump(tag_758)\n    tag_760:\n        /* \"#utility.yul\":14809:14823   */\n      pop\n        /* \"#utility.yul\":15105:15108   */\n      dup6\n        /* \"#utility.yul\":15098:15108   */\n      swap4\n      pop\n        /* \"#utility.yul\":14506:15114   */\n      pop\n      pop\n      pop\n        /* \"#utility.yul\":14382:15114   */\n      swap3\n      swap2\n      pop\n      pop\n      jump\t// out\n        /* \"#utility.yul\":15120:15493   */\n    tag_115:\n        /* \"#utility.yul\":15263:15267   */\n      0x00\n        /* \"#utility.yul\":15301:15303   */\n      0x20\n        /* \"#utility.yul\":15290:15299   */\n      dup3\n        /* \"#utility.yul\":15286:15304   */\n      add\n        /* \"#utility.yul\":15278:15304   */\n      swap1\n      pop\n        /* \"#utility.yul\":15350:15359   */\n      dup2\n        /* \"#utility.yul\":15344:15348   */\n      dup2\n        /* \"#utility.yul\":15340:15360   */\n      sub\n        /* \"#utility.yul\":15336:15337   */\n      0x00\n        /* \"#utility.yul\":15325:15334   */\n      dup4\n        /* \"#utility.yul\":15321:15338   */\n      add\n        /* \"#utility.yul\":15314:15361   */\n      mstore\n        /* \"#utility.yul\":15378:15486   */\n      tag_764\n        /* \"#utility.yul\":15481:15485   */\n      dup2\n        /* \"#utility.yul\":15472:15478   */\n      dup5\n        /* \"#utility.yul\":15378:15486   */\n      tag_565\n      jump\t// in\n    tag_764:\n        /* \"#utility.yul\":15370:15486   */\n      swap1\n      pop\n        /* \"#utility.yul\":15120:15493   */\n      swap3\n      swap2\n      pop\n      pop\n      jump\t// out\n        /* \"#utility.yul\":15499:15721   */\n    tag_125:\n        /* \"#utility.yul\":15592:15596   */\n      0x00\n        /* \"#utility.yul\":15630:15632   */\n      0x20\n        /* \"#utility.yul\":15619:15628   */\n      dup3\n        /* \"#utility.yul\":15615:15633   */\n      add\n        /* \"#utility.yul\":15607:15633   */\n      swap1\n      pop\n        /* \"#utility.yul\":15643:15714   */\n      tag_766\n        /* \"#utility.yul\":15711:15712   */\n      0x00\n        /* \"#utility.yul\":15700:15709   */\n      dup4\n        /* \"#utility.yul\":15696:15713   */\n      add\n        /* \"#utility.yul\":15687:15693   */\n      dup5\n        /* \"#utility.yul\":15643:15714   */\n      tag_545\n      jump\t// in\n    tag_766:\n        /* \"#utility.yul\":15499:15721   */\n      swap3\n      swap2\n      pop\n      pop\n      jump\t// out\n        /* \"#utility.yul\":15727:15844   */\n    tag_566:\n        /* \"#utility.yul\":15836:15837   */\n      0x00\n        /* \"#utility.yul\":15833:15834   */\n      dup1\n        /* \"#utility.yul\":15826:15838   */\n      revert\n        /* \"#utility.yul\":15850:15967   */\n    tag_567:\n        /* \"#utility.yul\":15959:15960   */\n      0x00\n        /* \"#utility.yul\":15956:15957   */\n      dup1\n        /* \"#utility.yul\":15949:15961   */\n      revert\n        /* \"#utility.yul\":15973:16153   */\n    tag_245:\n        /* \"#utility.yul\":16021:16098   */\n      0x4e487b7100000000000000000000000000000000000000000000000000000000\n        /* \"#utility.yul\":16018:16019   */\n      0x00\n        /* \"#utility.yul\":16011:16099   */\n      mstore\n        /* \"#utility.yul\":16118:16122   */\n      0x41\n        /* \"#utility.yul\":16115:16116   */\n      0x04\n        /* \"#utility.yul\":16108:16123   */\n      mstore\n        /* \"#utility.yul\":16142:16146   */\n      0x24\n        /* \"#utility.yul\":16139:16140   */\n      0x00\n        /* \"#utility.yul\":16132:16147   */\n      revert\n        /* \"#utility.yul\":16159:16440   */\n    tag_568:\n        /* \"#utility.yul\":16242:16269   */\n      tag_771\n        /* \"#utility.yul\":16264:16268   */\n      dup3\n        /* \"#utility.yul\":16242:16269   */\n      tag_537\n      jump\t// in\n    tag_771:\n        /* \"#utility.yul\":16234:16240   */\n      dup2\n        /* \"#utility.yul\":16230:16270   */\n      add\n        /* \"#utility.yul\":16372:16378   */\n      dup2\n        /* \"#utility.yul\":16360:16370   */\n      dup2\n        /* \"#utility.yul\":16357:16379   */\n      lt\n        /* \"#utility.yul\":16336:16354   */\n      0xffffffffffffffff\n        /* \"#utility.yul\":16324:16334   */\n      dup3\n        /* \"#utility.yul\":16321:16355   */\n      gt\n        /* \"#utility.yul\":16318:16380   */\n      or\n        /* \"#utility.yul\":16315:16403   */\n      iszero\n      tag_772\n      jumpi\n        /* \"#utility.yul\":16383:16401   */\n      tag_773\n      tag_245\n      jump\t// in\n    tag_773:\n        /* \"#utility.yul\":16315:16403   */\n    tag_772:\n        /* \"#utility.yul\":16423:16433   */\n      dup1\n        /* \"#utility.yul\":16419:16421   */\n      0x40\n        /* \"#utility.yul\":16412:16434   */\n      mstore\n        /* \"#utility.yul\":16202:16440   */\n      pop\n        /* \"#utility.yul\":16159:16440   */\n      pop\n      pop\n      jump\t// out\n        /* \"#utility.yul\":16446:16575   */\n    tag_569:\n        /* \"#utility.yul\":16480:16486   */\n      0x00\n        /* \"#utility.yul\":16507:16527   */\n      tag_775\n      tag_527\n      jump\t// in\n    tag_775:\n        /* \"#utility.yul\":16497:16527   */\n      swap1\n      pop\n        /* \"#utility.yul\":16536:16569   */\n      tag_776\n        /* \"#utility.yul\":16564:16568   */\n      dup3\n        /* \"#utility.yul\":16556:16562   */\n      dup3\n        /* \"#utility.yul\":16536:16569   */\n      tag_568\n      jump\t// in\n    tag_776:\n        /* \"#utility.yul\":16446:16575   */\n      swap2\n      swap1\n      pop\n      jump\t// out\n        /* \"#utility.yul\":16581:16889   */\n    tag_570:\n        /* \"#utility.yul\":16643:16647   */\n      0x00\n        /* \"#utility.yul\":16733:16751   */\n      0xffffffffffffffff\n        /* \"#utility.yul\":16725:16731   */\n      dup3\n        /* \"#utility.yul\":16722:16752   */\n      gt\n        /* \"#utility.yul\":16719:16775   */\n      iszero\n      tag_778\n      jumpi\n        /* \"#utility.yul\":16755:16773   */\n      tag_779\n      tag_245\n      jump\t// in\n    tag_779:\n        /* \"#utility.yul\":16719:16775   */\n    tag_778:\n        /* \"#utility.yul\":16793:16822   */\n      tag_780\n        /* \"#utility.yul\":16815:16821   */\n      dup3\n        /* \"#utility.yul\":16793:16822   */\n      tag_537\n      jump\t// in\n    tag_780:\n        /* \"#utility.yul\":16785:16822   */\n      swap1\n      pop\n        /* \"#utility.yul\":16877:16881   */\n      0x20\n        /* \"#utility.yul\":16871:16875   */\n      dup2\n        /* \"#utility.yul\":16867:16882   */\n      add\n        /* \"#utility.yul\":16859:16882   */\n      swap1\n      pop\n        /* \"#utility.yul\":16581:16889   */\n      swap2\n      swap1\n      pop\n      jump\t// out\n        /* \"#utility.yul\":16895:17041   */\n    tag_571:\n        /* \"#utility.yul\":16992:16998   */\n      dup3\n        /* \"#utility.yul\":16987:16990   */\n      dup2\n        /* \"#utility.yul\":16982:16985   */\n      dup4\n        /* \"#utility.yul\":16969:16999   */\n      calldatacopy\n        /* \"#utility.yul\":17033:17034   */\n      0x00\n        /* \"#utility.yul\":17024:17030   */\n      dup4\n        /* \"#utility.yul\":17019:17022   */\n      dup4\n        /* \"#utility.yul\":17015:17031   */\n      add\n        /* \"#utility.yul\":17008:17035   */\n      mstore\n        /* \"#utility.yul\":16895:17041   */\n      pop\n      pop\n      pop\n      jump\t// out\n        /* \"#utility.yul\":17047:17472   */\n    tag_572:\n        /* \"#utility.yul\":17125:17130   */\n      0x00\n        /* \"#utility.yul\":17150:17216   */\n      tag_783\n        /* \"#utility.yul\":17166:17215   */\n      tag_784\n        /* \"#utility.yul\":17208:17214   */\n      dup5\n        /* \"#utility.yul\":17166:17215   */\n      tag_570\n      jump\t// in\n    tag_784:\n        /* \"#utility.yul\":17150:17216   */\n      tag_569\n      jump\t// in\n    tag_783:\n        /* \"#utility.yul\":17141:17216   */\n      swap1\n      pop\n        /* \"#utility.yul\":17239:17245   */\n      dup3\n        /* \"#utility.yul\":17232:17237   */\n      dup2\n        /* \"#utility.yul\":17225:17246   */\n      mstore\n        /* \"#utility.yul\":17277:17281   */\n      0x20\n        /* \"#utility.yul\":17270:17275   */\n      dup2\n        /* \"#utility.yul\":17266:17282   */\n      add\n        /* \"#utility.yul\":17315:17318   */\n      dup5\n        /* \"#utility.yul\":17306:17312   */\n      dup5\n        /* \"#utility.yul\":17301:17304   */\n      dup5\n        /* \"#utility.yul\":17297:17313   */\n      add\n        /* \"#utility.yul\":17294:17319   */\n      gt\n        /* \"#utility.yul\":17291:17403   */\n      iszero\n      tag_785\n      jumpi\n        /* \"#utility.yul\":17322:17401   */\n      tag_786\n      tag_567\n      jump\t// in\n    tag_786:\n        /* \"#utility.yul\":17291:17403   */\n    tag_785:\n        /* \"#utility.yul\":17412:17466   */\n      tag_787\n        /* \"#utility.yul\":17459:17465   */\n      dup5\n        /* \"#utility.yul\":17454:17457   */\n      dup3\n        /* \"#utility.yul\":17449:17452   */\n      dup6\n        /* \"#utility.yul\":17412:17466   */\n      tag_571\n      jump\t// in\n    tag_787:\n        /* \"#utility.yul\":17131:17472   */\n      pop\n        /* \"#utility.yul\":17047:17472   */\n      swap4\n      swap3\n      pop\n      pop\n      pop\n      jump\t// out\n        /* \"#utility.yul\":17492:17832   */\n    tag_573:\n        /* \"#utility.yul\":17548:17553   */\n      0x00\n        /* \"#utility.yul\":17597:17600   */\n      dup3\n        /* \"#utility.yul\":17590:17594   */\n      0x1f\n        /* \"#utility.yul\":17582:17588   */\n      dup4\n        /* \"#utility.yul\":17578:17595   */\n      add\n        /* \"#utility.yul\":17574:17601   */\n      slt\n        /* \"#utility.yul\":17564:17686   */\n      tag_789\n      jumpi\n        /* \"#utility.yul\":17605:17684   */\n      tag_790\n      tag_566\n      jump\t// in\n    tag_790:\n        /* \"#utility.yul\":17564:17686   */\n    tag_789:\n        /* \"#utility.yul\":17722:17728   */\n      dup2\n        /* \"#utility.yul\":17709:17729   */\n      calldataload\n        /* \"#utility.yul\":17747:17826   */\n      tag_791\n        /* \"#utility.yul\":17822:17825   */\n      dup5\n        /* \"#utility.yul\":17814:17820   */\n      dup3\n        /* \"#utility.yul\":17807:17811   */\n      0x20\n        /* \"#utility.yul\":17799:17805   */\n      dup7\n        /* \"#utility.yul\":17795:17812   */\n      add\n        /* \"#utility.yul\":17747:17826   */\n      tag_572\n      jump\t// in\n    tag_791:\n        /* \"#utility.yul\":17738:17826   */\n      swap2\n      pop\n        /* \"#utility.yul\":17554:17832   */\n      pop\n        /* \"#utility.yul\":17492:17832   */\n      swap3\n      swap2\n      pop\n      pop\n      jump\t// out\n        /* \"#utility.yul\":17838:17960   */\n    tag_574:\n        /* \"#utility.yul\":17911:17935   */\n      tag_793\n        /* \"#utility.yul\":17929:17934   */\n      dup2\n        /* \"#utility.yul\":17911:17935   */\n      tag_539\n      jump\t// in\n    tag_793:\n        /* \"#utility.yul\":17904:17909   */\n      dup2\n        /* \"#utility.yul\":17901:17936   */\n      eq\n        /* \"#utility.yul\":17891:17954   */\n      tag_794\n      jumpi\n        /* \"#utility.yul\":17950:17951   */\n      0x00\n        /* \"#utility.yul\":17947:17948   */\n      dup1\n        /* \"#utility.yul\":17940:17952   */\n      revert\n        /* \"#utility.yul\":17891:17954   */\n    tag_794:\n        /* \"#utility.yul\":17838:17960   */\n      pop\n      jump\t// out\n        /* \"#utility.yul\":17966:18105   */\n    tag_575:\n        /* \"#utility.yul\":18012:18017   */\n      0x00\n        /* \"#utility.yul\":18050:18056   */\n      dup2\n        /* \"#utility.yul\":18037:18057   */\n      calldataload\n        /* \"#utility.yul\":18028:18057   */\n      swap1\n      pop\n        /* \"#utility.yul\":18066:18099   */\n      tag_796\n        /* \"#utility.yul\":18093:18098   */\n      dup2\n        /* \"#utility.yul\":18066:18099   */\n      tag_574\n      jump\t// in\n    tag_796:\n        /* \"#utility.yul\":17966:18105   */\n      swap3\n      swap2\n      pop\n      pop\n      jump\t// out\n        /* \"#utility.yul\":18111:20146   */\n    tag_128:\n        /* \"#utility.yul\":18272:18278   */\n      0x00\n        /* \"#utility.yul\":18280:18286   */\n      dup1\n        /* \"#utility.yul\":18288:18294   */\n      0x00\n        /* \"#utility.yul\":18296:18302   */\n      dup1\n        /* \"#utility.yul\":18304:18310   */\n      0x00\n        /* \"#utility.yul\":18312:18318   */\n      dup1\n        /* \"#utility.yul\":18320:18326   */\n      0x00\n        /* \"#utility.yul\":18328:18334   */\n      dup1\n        /* \"#utility.yul\":18336:18342   */\n      0x00\n        /* \"#utility.yul\":18385:18388   */\n      0x0120\n        /* \"#utility.yul\":18373:18382   */\n      dup11\n        /* \"#utility.yul\":18364:18371   */\n      dup13\n        /* \"#utility.yul\":18360:18383   */\n      sub\n        /* \"#utility.yul\":18356:18389   */\n      slt\n        /* \"#utility.yul\":18353:18473   */\n      iszero\n      tag_798\n      jumpi\n        /* \"#utility.yul\":18392:18471   */\n      tag_799\n      tag_528\n      jump\t// in\n    tag_799:\n        /* \"#utility.yul\":18353:18473   */\n    tag_798:\n        /* \"#utility.yul\":18512:18513   */\n      0x00\n        /* \"#utility.yul\":18537:18590   */\n      tag_800\n        /* \"#utility.yul\":18582:18589   */\n      dup13\n        /* \"#utility.yul\":18573:18579   */\n      dup3\n        /* \"#utility.yul\":18562:18571   */\n      dup14\n        /* \"#utility.yul\":18558:18580   */\n      add\n        /* \"#utility.yul\":18537:18590   */\n      tag_532\n      jump\t// in\n    tag_800:\n        /* \"#utility.yul\":18527:18590   */\n      swap10\n      pop\n        /* \"#utility.yul\":18483:18600   */\n      pop\n        /* \"#utility.yul\":18639:18641   */\n      0x20\n        /* \"#utility.yul\":18665:18718   */\n      tag_801\n        /* \"#utility.yul\":18710:18717   */\n      dup13\n        /* \"#utility.yul\":18701:18707   */\n      dup3\n        /* \"#utility.yul\":18690:18699   */\n      dup14\n        /* \"#utility.yul\":18686:18708   */\n      add\n        /* \"#utility.yul\":18665:18718   */\n      tag_532\n      jump\t// in\n    tag_801:\n        /* \"#utility.yul\":18655:18718   */\n      swap9\n      pop\n        /* \"#utility.yul\":18610:18728   */\n      pop\n        /* \"#utility.yul\":18795:18797   */\n      0x40\n        /* \"#utility.yul\":18784:18793   */\n      dup11\n        /* \"#utility.yul\":18780:18798   */\n      add\n        /* \"#utility.yul\":18767:18799   */\n      calldataload\n        /* \"#utility.yul\":18826:18844   */\n      0xffffffffffffffff\n        /* \"#utility.yul\":18818:18824   */\n      dup2\n        /* \"#utility.yul\":18815:18845   */\n      gt\n        /* \"#utility.yul\":18812:18929   */\n      iszero\n      tag_802\n      jumpi\n        /* \"#utility.yul\":18848:18927   */\n      tag_803\n      tag_529\n      jump\t// in\n    tag_803:\n        /* \"#utility.yul\":18812:18929   */\n    tag_802:\n        /* \"#utility.yul\":18953:19016   */\n      tag_804\n        /* \"#utility.yul\":19008:19015   */\n      dup13\n        /* \"#utility.yul\":18999:19005   */\n      dup3\n        /* \"#utility.yul\":18988:18997   */\n      dup14\n        /* \"#utility.yul\":18984:19006   */\n      add\n        /* \"#utility.yul\":18953:19016   */\n      tag_573\n      jump\t// in\n    tag_804:\n        /* \"#utility.yul\":18943:19016   */\n      swap8\n      pop\n        /* \"#utility.yul\":18738:19026   */\n      pop\n        /* \"#utility.yul\":19065:19067   */\n      0x60\n        /* \"#utility.yul\":19091:19144   */\n      tag_805\n        /* \"#utility.yul\":19136:19143   */\n      dup13\n        /* \"#utility.yul\":19127:19133   */\n      dup3\n        /* \"#utility.yul\":19116:19125   */\n      dup14\n        /* \"#utility.yul\":19112:19134   */\n      add\n        /* \"#utility.yul\":19091:19144   */\n      tag_575\n      jump\t// in\n    tag_805:\n        /* \"#utility.yul\":19081:19144   */\n      swap7\n      pop\n        /* \"#utility.yul\":19036:19154   */\n      pop\n        /* \"#utility.yul\":19221:19224   */\n      0x80\n        /* \"#utility.yul\":19210:19219   */\n      dup11\n        /* \"#utility.yul\":19206:19225   */\n      add\n        /* \"#utility.yul\":19193:19226   */\n      calldataload\n        /* \"#utility.yul\":19253:19271   */\n      0xffffffffffffffff\n        /* \"#utility.yul\":19245:19251   */\n      dup2\n        /* \"#utility.yul\":19242:19272   */\n      gt\n        /* \"#utility.yul\":19239:19356   */\n      iszero\n      tag_806\n      jumpi\n        /* \"#utility.yul\":19275:19354   */\n      tag_807\n      tag_529\n      jump\t// in\n    tag_807:\n        /* \"#utility.yul\":19239:19356   */\n    tag_806:\n        /* \"#utility.yul\":19380:19443   */\n      tag_808\n        /* \"#utility.yul\":19435:19442   */\n      dup13\n        /* \"#utility.yul\":19426:19432   */\n      dup3\n        /* \"#utility.yul\":19415:19424   */\n      dup14\n        /* \"#utility.yul\":19411:19433   */\n      add\n        /* \"#utility.yul\":19380:19443   */\n      tag_573\n      jump\t// in\n    tag_808:\n        /* \"#utility.yul\":19370:19443   */\n      swap6\n      pop\n        /* \"#utility.yul\":19164:19453   */\n      pop\n        /* \"#utility.yul\":19520:19523   */\n      0xa0\n        /* \"#utility.yul\":19509:19518   */\n      dup11\n        /* \"#utility.yul\":19505:19524   */\n      add\n        /* \"#utility.yul\":19492:19525   */\n      calldataload\n        /* \"#utility.yul\":19552:19570   */\n      0xffffffffffffffff\n        /* \"#utility.yul\":19544:19550   */\n      dup2\n        /* \"#utility.yul\":19541:19571   */\n      gt\n        /* \"#utility.yul\":19538:19655   */\n      iszero\n      tag_809\n      jumpi\n        /* \"#utility.yul\":19574:19653   */\n      tag_810\n      tag_529\n      jump\t// in\n    tag_810:\n        /* \"#utility.yul\":19538:19655   */\n    tag_809:\n        /* \"#utility.yul\":19679:19742   */\n      tag_811\n        /* \"#utility.yul\":19734:19741   */\n      dup13\n        /* \"#utility.yul\":19725:19731   */\n      dup3\n        /* \"#utility.yul\":19714:19723   */\n      dup14\n        /* \"#utility.yul\":19710:19732   */\n      add\n        /* \"#utility.yul\":19679:19742   */\n      tag_573\n      jump\t// in\n    tag_811:\n        /* \"#utility.yul\":19669:19742   */\n      swap5\n      pop\n        /* \"#utility.yul\":19463:19752   */\n      pop\n        /* \"#utility.yul\":19791:19794   */\n      0xc0\n        /* \"#utility.yul\":19818:19871   */\n      tag_812\n        /* \"#utility.yul\":19863:19870   */\n      dup13\n        /* \"#utility.yul\":19854:19860   */\n      dup3\n        /* \"#utility.yul\":19843:19852   */\n      dup14\n        /* \"#utility.yul\":19839:19861   */\n      add\n        /* \"#utility.yul\":19818:19871   */\n      tag_549\n      jump\t// in\n    tag_812:\n        /* \"#utility.yul\":19808:19871   */\n      swap4\n      pop\n        /* \"#utility.yul\":19762:19881   */\n      pop\n        /* \"#utility.yul\":19920:19923   */\n      0xe0\n        /* \"#utility.yul\":19947:20000   */\n      tag_813\n        /* \"#utility.yul\":19992:19999   */\n      dup13\n        /* \"#utility.yul\":19983:19989   */\n      dup3\n        /* \"#utility.yul\":19972:19981   */\n      dup14\n        /* \"#utility.yul\":19968:19990   */\n      add\n        /* \"#utility.yul\":19947:20000   */\n      tag_532\n      jump\t// in\n    tag_813:\n        /* \"#utility.yul\":19937:20000   */\n      swap3\n      pop\n        /* \"#utility.yul\":19891:20010   */\n      pop\n        /* \"#utility.yul\":20049:20052   */\n      0x0100\n        /* \"#utility.yul\":20076:20129   */\n      tag_814\n        /* \"#utility.yul\":20121:20128   */\n      dup13\n        /* \"#utility.yul\":20112:20118   */\n      dup3\n        /* \"#utility.yul\":20101:20110   */\n      dup14\n        /* \"#utility.yul\":20097:20119   */\n      add\n        /* \"#utility.yul\":20076:20129   */\n      tag_532\n      jump\t// in\n    tag_814:\n        /* \"#utility.yul\":20066:20129   */\n      swap2\n      pop\n        /* \"#utility.yul\":20020:20139   */\n      pop\n        /* \"#utility.yul\":18111:20146   */\n      swap3\n      swap6\n      swap9\n      pop\n      swap3\n      swap6\n      swap9\n      pop\n      swap3\n      swap6\n      swap9\n      jump\t// out\n        /* \"#utility.yul\":20152:20212   */\n    tag_576:\n        /* \"#utility.yul\":20180:20183   */\n      0x00\n        /* \"#utility.yul\":20201:20206   */\n      dup2\n        /* \"#utility.yul\":20194:20206   */\n      swap1\n      pop\n        /* \"#utility.yul\":20152:20212   */\n      swap2\n      swap1\n      pop\n      jump\t// out\n        /* \"#utility.yul\":20218:20360   */\n    tag_577:\n        /* \"#utility.yul\":20268:20277   */\n      0x00\n        /* \"#utility.yul\":20301:20354   */\n      tag_817\n        /* \"#utility.yul\":20319:20353   */\n      tag_818\n        /* \"#utility.yul\":20328:20352   */\n      tag_819\n        /* \"#utility.yul\":20346:20351   */\n      dup5\n        /* \"#utility.yul\":20328:20352   */\n      tag_543\n      jump\t// in\n    tag_819:\n        /* \"#utility.yul\":20319:20353   */\n      tag_576\n      jump\t// in\n    tag_818:\n        /* \"#utility.yul\":20301:20354   */\n      tag_543\n      jump\t// in\n    tag_817:\n        /* \"#utility.yul\":20288:20354   */\n      swap1\n      pop\n        /* \"#utility.yul\":20218:20360   */\n      swap2\n      swap1\n      pop\n      jump\t// out\n        /* \"#utility.yul\":20366:20492   */\n    tag_578:\n        /* \"#utility.yul\":20416:20425   */\n      0x00\n        /* \"#utility.yul\":20449:20486   */\n      tag_821\n        /* \"#utility.yul\":20480:20485   */\n      dup3\n        /* \"#utility.yul\":20449:20486   */\n      tag_577\n      jump\t// in\n    tag_821:\n        /* \"#utility.yul\":20436:20486   */\n      swap1\n      pop\n        /* \"#utility.yul\":20366:20492   */\n      swap2\n      swap1\n      pop\n      jump\t// out\n        /* \"#utility.yul\":20498:20654   */\n    tag_579:\n        /* \"#utility.yul\":20578:20587   */\n      0x00\n        /* \"#utility.yul\":20611:20648   */\n      tag_823\n        /* \"#utility.yul\":20642:20647   */\n      dup3\n        /* \"#utility.yul\":20611:20648   */\n      tag_578\n      jump\t// in\n    tag_823:\n        /* \"#utility.yul\":20598:20648   */\n      swap1\n      pop\n        /* \"#utility.yul\":20498:20654   */\n      swap2\n      swap1\n      pop\n      jump\t// out\n        /* \"#utility.yul\":20660:20851   */\n    tag_580:\n        /* \"#utility.yul\":20777:20844   */\n      tag_825\n        /* \"#utility.yul\":20838:20843   */\n      dup2\n        /* \"#utility.yul\":20777:20844   */\n      tag_579\n      jump\t// in\n    tag_825:\n        /* \"#utility.yul\":20772:20775   */\n      dup3\n        /* \"#utility.yul\":20765:20845   */\n      mstore\n        /* \"#utility.yul\":20660:20851   */\n      pop\n      pop\n      jump\t// out\n        /* \"#utility.yul\":20857:21139   */\n    tag_141:\n        /* \"#utility.yul\":20980:20984   */\n      0x00\n        /* \"#utility.yul\":21018:21020   */\n      0x20\n        /* \"#utility.yul\":21007:21016   */\n      dup3\n        /* \"#utility.yul\":21003:21021   */\n      add\n        /* \"#utility.yul\":20995:21021   */\n      swap1\n      pop\n        /* \"#utility.yul\":21031:21132   */\n      tag_827\n        /* \"#utility.yul\":21129:21130   */\n      0x00\n        /* \"#utility.yul\":21118:21127   */\n      dup4\n        /* \"#utility.yul\":21114:21131   */\n      add\n        /* \"#utility.yul\":21105:21111   */\n      dup5\n        /* \"#utility.yul\":21031:21132   */\n      tag_580\n      jump\t// in\n    tag_827:\n        /* \"#utility.yul\":20857:21139   */\n      swap3\n      swap2\n      pop\n      pop\n      jump\t// out\n        /* \"#utility.yul\":21237:23570   */\n    tag_581:\n        /* \"#utility.yul\":21392:21398   */\n      0x0180\n        /* \"#utility.yul\":21387:21390   */\n      dup3\n        /* \"#utility.yul\":21383:21399   */\n      add\n        /* \"#utility.yul\":21494:21498   */\n      0x00\n        /* \"#utility.yul\":21487:21492   */\n      dup3\n        /* \"#utility.yul\":21483:21499   */\n      add\n        /* \"#utility.yul\":21477:21500   */\n      mload\n        /* \"#utility.yul\":21513:21576   */\n      tag_829\n        /* \"#utility.yul\":21570:21574   */\n      0x00\n        /* \"#utility.yul\":21565:21568   */\n      dup6\n        /* \"#utility.yul\":21561:21575   */\n      add\n        /* \"#utility.yul\":21547:21559   */\n      dup3\n        /* \"#utility.yul\":21513:21576   */\n      tag_553\n      jump\t// in\n    tag_829:\n        /* \"#utility.yul\":21409:21586   */\n      pop\n        /* \"#utility.yul\":21674:21678   */\n      0x20\n        /* \"#utility.yul\":21667:21672   */\n      dup3\n        /* \"#utility.yul\":21663:21679   */\n      add\n        /* \"#utility.yul\":21657:21680   */\n      mload\n        /* \"#utility.yul\":21693:21756   */\n      tag_830\n        /* \"#utility.yul\":21750:21754   */\n      0x20\n        /* \"#utility.yul\":21745:21748   */\n      dup6\n        /* \"#utility.yul\":21741:21755   */\n      add\n        /* \"#utility.yul\":21727:21739   */\n      dup3\n        /* \"#utility.yul\":21693:21756   */\n      tag_553\n      jump\t// in\n    tag_830:\n        /* \"#utility.yul\":21596:21766   */\n      pop\n        /* \"#utility.yul\":21850:21854   */\n      0x40\n        /* \"#utility.yul\":21843:21848   */\n      dup3\n        /* \"#utility.yul\":21839:21855   */\n      add\n        /* \"#utility.yul\":21833:21856   */\n      mload\n        /* \"#utility.yul\":21869:21932   */\n      tag_831\n        /* \"#utility.yul\":21926:21930   */\n      0x40\n        /* \"#utility.yul\":21921:21924   */\n      dup6\n        /* \"#utility.yul\":21917:21931   */\n      add\n        /* \"#utility.yul\":21903:21915   */\n      dup3\n        /* \"#utility.yul\":21869:21932   */\n      tag_553\n      jump\t// in\n    tag_831:\n        /* \"#utility.yul\":21776:21942   */\n      pop\n        /* \"#utility.yul\":22024:22028   */\n      0x60\n        /* \"#utility.yul\":22017:22022   */\n      dup3\n        /* \"#utility.yul\":22013:22029   */\n      add\n        /* \"#utility.yul\":22007:22030   */\n      mload\n        /* \"#utility.yul\":22043:22106   */\n      tag_832\n        /* \"#utility.yul\":22100:22104   */\n      0x60\n        /* \"#utility.yul\":22095:22098   */\n      dup6\n        /* \"#utility.yul\":22091:22105   */\n      add\n        /* \"#utility.yul\":22077:22089   */\n      dup3\n        /* \"#utility.yul\":22043:22106   */\n      tag_553\n      jump\t// in\n    tag_832:\n        /* \"#utility.yul\":21952:22116   */\n      pop\n        /* \"#utility.yul\":22199:22203   */\n      0x80\n        /* \"#utility.yul\":22192:22197   */\n      dup3\n        /* \"#utility.yul\":22188:22204   */\n      add\n        /* \"#utility.yul\":22182:22205   */\n      mload\n        /* \"#utility.yul\":22218:22281   */\n      tag_833\n        /* \"#utility.yul\":22275:22279   */\n      0x80\n        /* \"#utility.yul\":22270:22273   */\n      dup6\n        /* \"#utility.yul\":22266:22280   */\n      add\n        /* \"#utility.yul\":22252:22264   */\n      dup3\n        /* \"#utility.yul\":22218:22281   */\n      tag_554\n      jump\t// in\n    tag_833:\n        /* \"#utility.yul\":22126:22291   */\n      pop\n        /* \"#utility.yul\":22377:22381   */\n      0xa0\n        /* \"#utility.yul\":22370:22375   */\n      dup3\n        /* \"#utility.yul\":22366:22382   */\n      add\n        /* \"#utility.yul\":22360:22383   */\n      mload\n        /* \"#utility.yul\":22396:22453   */\n      tag_834\n        /* \"#utility.yul\":22447:22451   */\n      0xa0\n        /* \"#utility.yul\":22442:22445   */\n      dup6\n        /* \"#utility.yul\":22438:22452   */\n      add\n        /* \"#utility.yul\":22424:22436   */\n      dup3\n        /* \"#utility.yul\":22396:22453   */\n      tag_555\n      jump\t// in\n    tag_834:\n        /* \"#utility.yul\":22301:22463   */\n      pop\n        /* \"#utility.yul\":22556:22560   */\n      0xc0\n        /* \"#utility.yul\":22549:22554   */\n      dup3\n        /* \"#utility.yul\":22545:22561   */\n      add\n        /* \"#utility.yul\":22539:22562   */\n      mload\n        /* \"#utility.yul\":22575:22632   */\n      tag_835\n        /* \"#utility.yul\":22626:22630   */\n      0xc0\n        /* \"#utility.yul\":22621:22624   */\n      dup6\n        /* \"#utility.yul\":22617:22631   */\n      add\n        /* \"#utility.yul\":22603:22615   */\n      dup3\n        /* \"#utility.yul\":22575:22632   */\n      tag_555\n      jump\t// in\n    tag_835:\n        /* \"#utility.yul\":22473:22642   */\n      pop\n        /* \"#utility.yul\":22740:22744   */\n      0xe0\n        /* \"#utility.yul\":22733:22738   */\n      dup3\n        /* \"#utility.yul\":22729:22745   */\n      add\n        /* \"#utility.yul\":22723:22746   */\n      mload\n        /* \"#utility.yul\":22759:22816   */\n      tag_836\n        /* \"#utility.yul\":22810:22814   */\n      0xe0\n        /* \"#utility.yul\":22805:22808   */\n      dup6\n        /* \"#utility.yul\":22801:22815   */\n      add\n        /* \"#utility.yul\":22787:22799   */\n      dup3\n        /* \"#utility.yul\":22759:22816   */\n      tag_555\n      jump\t// in\n    tag_836:\n        /* \"#utility.yul\":22652:22826   */\n      pop\n        /* \"#utility.yul\":22926:22932   */\n      0x0100\n        /* \"#utility.yul\":22919:22924   */\n      dup3\n        /* \"#utility.yul\":22915:22933   */\n      add\n        /* \"#utility.yul\":22909:22934   */\n      mload\n        /* \"#utility.yul\":22947:23006   */\n      tag_837\n        /* \"#utility.yul\":22998:23004   */\n      0x0100\n        /* \"#utility.yul\":22993:22996   */\n      dup6\n        /* \"#utility.yul\":22989:23005   */\n      add\n        /* \"#utility.yul\":22975:22987   */\n      dup3\n        /* \"#utility.yul\":22947:23006   */\n      tag_555\n      jump\t// in\n    tag_837:\n        /* \"#utility.yul\":22836:23016   */\n      pop\n        /* \"#utility.yul\":23117:23123   */\n      0x0120\n        /* \"#utility.yul\":23110:23115   */\n      dup3\n        /* \"#utility.yul\":23106:23124   */\n      add\n        /* \"#utility.yul\":23100:23125   */\n      mload\n        /* \"#utility.yul\":23138:23197   */\n      tag_838\n        /* \"#utility.yul\":23189:23195   */\n      0x0120\n        /* \"#utility.yul\":23184:23187   */\n      dup6\n        /* \"#utility.yul\":23180:23196   */\n      add\n        /* \"#utility.yul\":23166:23178   */\n      dup3\n        /* \"#utility.yul\":23138:23197   */\n      tag_555\n      jump\t// in\n    tag_838:\n        /* \"#utility.yul\":23026:23207   */\n      pop\n        /* \"#utility.yul\":23299:23305   */\n      0x0140\n        /* \"#utility.yul\":23292:23297   */\n      dup3\n        /* \"#utility.yul\":23288:23306   */\n      add\n        /* \"#utility.yul\":23282:23307   */\n      mload\n        /* \"#utility.yul\":23320:23379   */\n      tag_839\n        /* \"#utility.yul\":23371:23377   */\n      0x0140\n        /* \"#utility.yul\":23366:23369   */\n      dup6\n        /* \"#utility.yul\":23362:23378   */\n      add\n        /* \"#utility.yul\":23348:23360   */\n      dup3\n        /* \"#utility.yul\":23320:23379   */\n      tag_555\n      jump\t// in\n    tag_839:\n        /* \"#utility.yul\":23217:23389   */\n      pop\n        /* \"#utility.yul\":23473:23479   */\n      0x0160\n        /* \"#utility.yul\":23466:23471   */\n      dup3\n        /* \"#utility.yul\":23462:23480   */\n      add\n        /* \"#utility.yul\":23456:23481   */\n      mload\n        /* \"#utility.yul\":23494:23553   */\n      tag_840\n        /* \"#utility.yul\":23545:23551   */\n      0x0160\n        /* \"#utility.yul\":23540:23543   */\n      dup6\n        /* \"#utility.yul\":23536:23552   */\n      add\n        /* \"#utility.yul\":23522:23534   */\n      dup3\n        /* \"#utility.yul\":23494:23553   */\n      tag_555\n      jump\t// in\n    tag_840:\n        /* \"#utility.yul\":23399:23563   */\n      pop\n        /* \"#utility.yul\":21361:23570   */\n      pop\n        /* \"#utility.yul\":21237:23570   */\n      pop\n      pop\n      jump\t// out\n        /* \"#utility.yul\":23576:23915   */\n    tag_146:\n        /* \"#utility.yul\":23727:23731   */\n      0x00\n        /* \"#utility.yul\":23765:23768   */\n      0x0180\n        /* \"#utility.yul\":23754:23763   */\n      dup3\n        /* \"#utility.yul\":23750:23769   */\n      add\n        /* \"#utility.yul\":23742:23769   */\n      swap1\n      pop\n        /* \"#utility.yul\":23779:23908   */\n      tag_842\n        /* \"#utility.yul\":23905:23906   */\n      0x00\n        /* \"#utility.yul\":23894:23903   */\n      dup4\n        /* \"#utility.yul\":23890:23907   */\n      add\n        /* \"#utility.yul\":23881:23887   */\n      dup5\n        /* \"#utility.yul\":23779:23908   */\n      tag_581\n      jump\t// in\n    tag_842:\n        /* \"#utility.yul\":23576:23915   */\n      swap3\n      swap2\n      pop\n      pop\n      jump\t// out\n        /* \"#utility.yul\":23921:24080   */\n    tag_582:\n        /* \"#utility.yul\":23995:24006   */\n      0x00\n        /* \"#utility.yul\":24029:24035   */\n      dup3\n        /* \"#utility.yul\":24024:24027   */\n      dup3\n        /* \"#utility.yul\":24017:24036   */\n      mstore\n        /* \"#utility.yul\":24069:24073   */\n      0x20\n        /* \"#utility.yul\":24064:24067   */\n      dup3\n        /* \"#utility.yul\":24060:24074   */\n      add\n        /* \"#utility.yul\":24045:24074   */\n      swap1\n      pop\n        /* \"#utility.yul\":23921:24080   */\n      swap3\n      swap2\n      pop\n      pop\n      jump\t// out\n        /* \"#utility.yul\":24086:24443   */\n    tag_583:\n        /* \"#utility.yul\":24164:24167   */\n      0x00\n        /* \"#utility.yul\":24192:24231   */\n      tag_845\n        /* \"#utility.yul\":24225:24230   */\n      dup3\n        /* \"#utility.yul\":24192:24231   */\n      tag_534\n      jump\t// in\n    tag_845:\n        /* \"#utility.yul\":24247:24308   */\n      tag_846\n        /* \"#utility.yul\":24301:24307   */\n      dup2\n        /* \"#utility.yul\":24296:24299   */\n      dup6\n        /* \"#utility.yul\":24247:24308   */\n      tag_582\n      jump\t// in\n    tag_846:\n        /* \"#utility.yul\":24240:24308   */\n      swap4\n      pop\n        /* \"#utility.yul\":24317:24382   */\n      tag_847\n        /* \"#utility.yul\":24375:24381   */\n      dup2\n        /* \"#utility.yul\":24370:24373   */\n      dup6\n        /* \"#utility.yul\":24363:24367   */\n      0x20\n        /* \"#utility.yul\":24356:24361   */\n      dup7\n        /* \"#utility.yul\":24352:24368   */\n      add\n        /* \"#utility.yul\":24317:24382   */\n      tag_536\n      jump\t// in\n    tag_847:\n        /* \"#utility.yul\":24407:24436   */\n      tag_848\n        /* \"#utility.yul\":24429:24435   */\n      dup2\n        /* \"#utility.yul\":24407:24436   */\n      tag_537\n      jump\t// in\n    tag_848:\n        /* \"#utility.yul\":24402:24405   */\n      dup5\n        /* \"#utility.yul\":24398:24437   */\n      add\n        /* \"#utility.yul\":24391:24437   */\n      swap2\n      pop\n        /* \"#utility.yul\":24168:24443   */\n      pop\n        /* \"#utility.yul\":24086:24443   */\n      swap3\n      swap2\n      pop\n      pop\n      jump\t// out\n        /* \"#utility.yul\":24449:24557   */\n    tag_584:\n        /* \"#utility.yul\":24526:24550   */\n      tag_850\n        /* \"#utility.yul\":24544:24549   */\n      dup2\n        /* \"#utility.yul\":24526:24550   */\n      tag_539\n      jump\t// in\n    tag_850:\n        /* \"#utility.yul\":24521:24524   */\n      dup3\n        /* \"#utility.yul\":24514:24551   */\n      mstore\n        /* \"#utility.yul\":24449:24557   */\n      pop\n      pop\n      jump\t// out\n        /* \"#utility.yul\":24647:27246   */\n    tag_585:\n        /* \"#utility.yul\":24766:24769   */\n      0x00\n        /* \"#utility.yul\":24802:24808   */\n      0x0180\n        /* \"#utility.yul\":24797:24800   */\n      dup4\n        /* \"#utility.yul\":24793:24809   */\n      add\n        /* \"#utility.yul\":24893:24897   */\n      0x00\n        /* \"#utility.yul\":24886:24891   */\n      dup4\n        /* \"#utility.yul\":24882:24898   */\n      add\n        /* \"#utility.yul\":24876:24899   */\n      mload\n        /* \"#utility.yul\":24912:24975   */\n      tag_852\n        /* \"#utility.yul\":24969:24973   */\n      0x00\n        /* \"#utility.yul\":24964:24967   */\n      dup7\n        /* \"#utility.yul\":24960:24974   */\n      add\n        /* \"#utility.yul\":24946:24958   */\n      dup3\n        /* \"#utility.yul\":24912:24975   */\n      tag_553\n      jump\t// in\n    tag_852:\n        /* \"#utility.yul\":24819:24985   */\n      pop\n        /* \"#utility.yul\":25076:25080   */\n      0x20\n        /* \"#utility.yul\":25069:25074   */\n      dup4\n        /* \"#utility.yul\":25065:25081   */\n      add\n        /* \"#utility.yul\":25059:25082   */\n      mload\n        /* \"#utility.yul\":25095:25158   */\n      tag_853\n        /* \"#utility.yul\":25152:25156   */\n      0x20\n        /* \"#utility.yul\":25147:25150   */\n      dup7\n        /* \"#utility.yul\":25143:25157   */\n      add\n        /* \"#utility.yul\":25129:25141   */\n      dup3\n        /* \"#utility.yul\":25095:25158   */\n      tag_553\n      jump\t// in\n    tag_853:\n        /* \"#utility.yul\":24995:25168   */\n      pop\n        /* \"#utility.yul\":25251:25255   */\n      0x40\n        /* \"#utility.yul\":25244:25249   */\n      dup4\n        /* \"#utility.yul\":25240:25256   */\n      add\n        /* \"#utility.yul\":25234:25257   */\n      mload\n        /* \"#utility.yul\":25270:25333   */\n      tag_854\n        /* \"#utility.yul\":25327:25331   */\n      0x40\n        /* \"#utility.yul\":25322:25325   */\n      dup7\n        /* \"#utility.yul\":25318:25332   */\n      add\n        /* \"#utility.yul\":25304:25316   */\n      dup3\n        /* \"#utility.yul\":25270:25333   */\n      tag_553\n      jump\t// in\n    tag_854:\n        /* \"#utility.yul\":25178:25343   */\n      pop\n        /* \"#utility.yul\":25425:25429   */\n      0x60\n        /* \"#utility.yul\":25418:25423   */\n      dup4\n        /* \"#utility.yul\":25414:25430   */\n      add\n        /* \"#utility.yul\":25408:25431   */\n      mload\n        /* \"#utility.yul\":25444:25507   */\n      tag_855\n        /* \"#utility.yul\":25501:25505   */\n      0x60\n        /* \"#utility.yul\":25496:25499   */\n      dup7\n        /* \"#utility.yul\":25492:25506   */\n      add\n        /* \"#utility.yul\":25478:25490   */\n      dup3\n        /* \"#utility.yul\":25444:25507   */\n      tag_553\n      jump\t// in\n    tag_855:\n        /* \"#utility.yul\":25353:25517   */\n      pop\n        /* \"#utility.yul\":25612:25616   */\n      0x80\n        /* \"#utility.yul\":25605:25610   */\n      dup4\n        /* \"#utility.yul\":25601:25617   */\n      add\n        /* \"#utility.yul\":25595:25618   */\n      mload\n        /* \"#utility.yul\":25665:25668   */\n      dup5\n        /* \"#utility.yul\":25659:25663   */\n      dup3\n        /* \"#utility.yul\":25655:25669   */\n      sub\n        /* \"#utility.yul\":25648:25652   */\n      0x80\n        /* \"#utility.yul\":25643:25646   */\n      dup7\n        /* \"#utility.yul\":25639:25653   */\n      add\n        /* \"#utility.yul\":25632:25670   */\n      mstore\n        /* \"#utility.yul\":25691:25764   */\n      tag_856\n        /* \"#utility.yul\":25759:25763   */\n      dup3\n        /* \"#utility.yul\":25745:25757   */\n      dup3\n        /* \"#utility.yul\":25691:25764   */\n      tag_583\n      jump\t// in\n    tag_856:\n        /* \"#utility.yul\":25683:25764   */\n      swap2\n      pop\n        /* \"#utility.yul\":25527:25775   */\n      pop\n        /* \"#utility.yul\":25867:25871   */\n      0xa0\n        /* \"#utility.yul\":25860:25865   */\n      dup4\n        /* \"#utility.yul\":25856:25872   */\n      add\n        /* \"#utility.yul\":25850:25873   */\n      mload\n        /* \"#utility.yul\":25886:25949   */\n      tag_857\n        /* \"#utility.yul\":25943:25947   */\n      0xa0\n        /* \"#utility.yul\":25938:25941   */\n      dup7\n        /* \"#utility.yul\":25934:25948   */\n      add\n        /* \"#utility.yul\":25920:25932   */\n      dup3\n        /* \"#utility.yul\":25886:25949   */\n      tag_584\n      jump\t// in\n    tag_857:\n        /* \"#utility.yul\":25785:25959   */\n      pop\n        /* \"#utility.yul\":26044:26048   */\n      0xc0\n        /* \"#utility.yul\":26037:26042   */\n      dup4\n        /* \"#utility.yul\":26033:26049   */\n      add\n        /* \"#utility.yul\":26027:26050   */\n      mload\n        /* \"#utility.yul\":26097:26100   */\n      dup5\n        /* \"#utility.yul\":26091:26095   */\n      dup3\n        /* \"#utility.yul\":26087:26101   */\n      sub\n        /* \"#utility.yul\":26080:26084   */\n      0xc0\n        /* \"#utility.yul\":26075:26078   */\n      dup7\n        /* \"#utility.yul\":26071:26085   */\n      add\n        /* \"#utility.yul\":26064:26102   */\n      mstore\n        /* \"#utility.yul\":26123:26196   */\n      tag_858\n        /* \"#utility.yul\":26191:26195   */\n      dup3\n        /* \"#utility.yul\":26177:26189   */\n      dup3\n        /* \"#utility.yul\":26123:26196   */\n      tag_583\n      jump\t// in\n    tag_858:\n        /* \"#utility.yul\":26115:26196   */\n      swap2\n      pop\n        /* \"#utility.yul\":25969:26207   */\n      pop\n        /* \"#utility.yul\":26293:26297   */\n      0xe0\n        /* \"#utility.yul\":26286:26291   */\n      dup4\n        /* \"#utility.yul\":26282:26298   */\n      add\n        /* \"#utility.yul\":26276:26299   */\n      mload\n        /* \"#utility.yul\":26346:26349   */\n      dup5\n        /* \"#utility.yul\":26340:26344   */\n      dup3\n        /* \"#utility.yul\":26336:26350   */\n      sub\n        /* \"#utility.yul\":26329:26333   */\n      0xe0\n        /* \"#utility.yul\":26324:26327   */\n      dup7\n        /* \"#utility.yul\":26320:26334   */\n      add\n        /* \"#utility.yul\":26313:26351   */\n      mstore\n        /* \"#utility.yul\":26372:26445   */\n      tag_859\n        /* \"#utility.yul\":26440:26444   */\n      dup3\n        /* \"#utility.yul\":26426:26438   */\n      dup3\n        /* \"#utility.yul\":26372:26445   */\n      tag_583\n      jump\t// in\n    tag_859:\n        /* \"#utility.yul\":26364:26445   */\n      swap2\n      pop\n        /* \"#utility.yul\":26217:26456   */\n      pop\n        /* \"#utility.yul\":26540:26546   */\n      0x0100\n        /* \"#utility.yul\":26533:26538   */\n      dup4\n        /* \"#utility.yul\":26529:26547   */\n      add\n        /* \"#utility.yul\":26523:26548   */\n      mload\n        /* \"#utility.yul\":26561:26620   */\n      tag_860\n        /* \"#utility.yul\":26612:26618   */\n      0x0100\n        /* \"#utility.yul\":26607:26610   */\n      dup7\n        /* \"#utility.yul\":26603:26619   */\n      add\n        /* \"#utility.yul\":26589:26601   */\n      dup3\n        /* \"#utility.yul\":26561:26620   */\n      tag_555\n      jump\t// in\n    tag_860:\n        /* \"#utility.yul\":26466:26630   */\n      pop\n        /* \"#utility.yul\":26714:26720   */\n      0x0120\n        /* \"#utility.yul\":26707:26712   */\n      dup4\n        /* \"#utility.yul\":26703:26721   */\n      add\n        /* \"#utility.yul\":26697:26722   */\n      mload\n        /* \"#utility.yul\":26735:26800   */\n      tag_861\n        /* \"#utility.yul\":26792:26798   */\n      0x0120\n        /* \"#utility.yul\":26787:26790   */\n      dup7\n        /* \"#utility.yul\":26783:26799   */\n      add\n        /* \"#utility.yul\":26769:26781   */\n      dup3\n        /* \"#utility.yul\":26735:26800   */\n      tag_554\n      jump\t// in\n    tag_861:\n        /* \"#utility.yul\":26640:26810   */\n      pop\n        /* \"#utility.yul\":26919:26925   */\n      0x0140\n        /* \"#utility.yul\":26912:26917   */\n      dup4\n        /* \"#utility.yul\":26908:26926   */\n      add\n        /* \"#utility.yul\":26902:26927   */\n      mload\n        /* \"#utility.yul\":26940:27005   */\n      tag_862\n        /* \"#utility.yul\":26997:27003   */\n      0x0140\n        /* \"#utility.yul\":26992:26995   */\n      dup7\n        /* \"#utility.yul\":26988:27004   */\n      add\n        /* \"#utility.yul\":26974:26986   */\n      dup3\n        /* \"#utility.yul\":26940:27005   */\n      tag_553\n      jump\t// in\n    tag_862:\n        /* \"#utility.yul\":26820:27015   */\n      pop\n        /* \"#utility.yul\":27123:27129   */\n      0x0160\n        /* \"#utility.yul\":27116:27121   */\n      dup4\n        /* \"#utility.yul\":27112:27130   */\n      add\n        /* \"#utility.yul\":27106:27131   */\n      mload\n        /* \"#utility.yul\":27144:27209   */\n      tag_863\n        /* \"#utility.yul\":27201:27207   */\n      0x0160\n        /* \"#utility.yul\":27196:27199   */\n      dup7\n        /* \"#utility.yul\":27192:27208   */\n      add\n        /* \"#utility.yul\":27178:27190   */\n      dup3\n        /* \"#utility.yul\":27144:27209   */\n      tag_553\n      jump\t// in\n    tag_863:\n        /* \"#utility.yul\":27025:27219   */\n      pop\n        /* \"#utility.yul\":27236:27240   */\n      dup1\n        /* \"#utility.yul\":27229:27240   */\n      swap2\n      pop\n        /* \"#utility.yul\":24771:27246   */\n      pop\n        /* \"#utility.yul\":24647:27246   */\n      swap3\n      swap2\n      pop\n      pop\n      jump\t// out\n        /* \"#utility.yul\":27252:27625   */\n    tag_154:\n        /* \"#utility.yul\":27395:27399   */\n      0x00\n        /* \"#utility.yul\":27433:27435   */\n      0x20\n        /* \"#utility.yul\":27422:27431   */\n      dup3\n        /* \"#utility.yul\":27418:27436   */\n      add\n        /* \"#utility.yul\":27410:27436   */\n      swap1\n      pop\n        /* \"#utility.yul\":27482:27491   */\n      dup2\n        /* \"#utility.yul\":27476:27480   */\n      dup2\n        /* \"#utility.yul\":27472:27492   */\n      sub\n        /* \"#utility.yul\":27468:27469   */\n      0x00\n        /* \"#utility.yul\":27457:27466   */\n      dup4\n        /* \"#utility.yul\":27453:27470   */\n      add\n        /* \"#utility.yul\":27446:27493   */\n      mstore\n        /* \"#utility.yul\":27510:27618   */\n      tag_865\n        /* \"#utility.yul\":27613:27617   */\n      dup2\n        /* \"#utility.yul\":27604:27610   */\n      dup5\n        /* \"#utility.yul\":27510:27618   */\n      tag_585\n      jump\t// in\n    tag_865:\n        /* \"#utility.yul\":27502:27618   */\n      swap1\n      pop\n        /* \"#utility.yul\":27252:27625   */\n      swap3\n      swap2\n      pop\n      pop\n      jump\t// out\n        /* \"#utility.yul\":27631:28250   */\n    tag_157:\n        /* \"#utility.yul\":27708:27714   */\n      0x00\n        /* \"#utility.yul\":27716:27722   */\n      dup1\n        /* \"#utility.yul\":27724:27730   */\n      0x00\n        /* \"#utility.yul\":27773:27775   */\n      0x60\n        /* \"#utility.yul\":27761:27770   */\n      dup5\n        /* \"#utility.yul\":27752:27759   */\n      dup7\n        /* \"#utility.yul\":27748:27771   */\n      sub\n        /* \"#utility.yul\":27744:27776   */\n      slt\n        /* \"#utility.yul\":27741:27860   */\n      iszero\n      tag_867\n      jumpi\n        /* \"#utility.yul\":27779:27858   */\n      tag_868\n      tag_528\n      jump\t// in\n    tag_868:\n        /* \"#utility.yul\":27741:27860   */\n    tag_867:\n        /* \"#utility.yul\":27899:27900   */\n      0x00\n        /* \"#utility.yul\":27924:27977   */\n      tag_869\n        /* \"#utility.yul\":27969:27976   */\n      dup7\n        /* \"#utility.yul\":27960:27966   */\n      dup3\n        /* \"#utility.yul\":27949:27958   */\n      dup8\n        /* \"#utility.yul\":27945:27967   */\n      add\n        /* \"#utility.yul\":27924:27977   */\n      tag_532\n      jump\t// in\n    tag_869:\n        /* \"#utility.yul\":27914:27977   */\n      swap4\n      pop\n        /* \"#utility.yul\":27870:27987   */\n      pop\n        /* \"#utility.yul\":28026:28028   */\n      0x20\n        /* \"#utility.yul\":28052:28105   */\n      tag_870\n        /* \"#utility.yul\":28097:28104   */\n      dup7\n        /* \"#utility.yul\":28088:28094   */\n      dup3\n        /* \"#utility.yul\":28077:28086   */\n      dup8\n        /* \"#utility.yul\":28073:28095   */\n      add\n        /* \"#utility.yul\":28052:28105   */\n      tag_532\n      jump\t// in\n    tag_870:\n        /* \"#utility.yul\":28042:28105   */\n      swap3\n      pop\n        /* \"#utility.yul\":27997:28115   */\n      pop\n        /* \"#utility.yul\":28154:28156   */\n      0x40\n        /* \"#utility.yul\":28180:28233   */\n      tag_871\n        /* \"#utility.yul\":28225:28232   */\n      dup7\n        /* \"#utility.yul\":28216:28222   */\n      dup3\n        /* \"#utility.yul\":28205:28214   */\n      dup8\n        /* \"#utility.yul\":28201:28223   */\n      add\n        /* \"#utility.yul\":28180:28233   */\n      tag_549\n      jump\t// in\n    tag_871:\n        /* \"#utility.yul\":28170:28233   */\n      swap2\n      pop\n        /* \"#utility.yul\":28125:28243   */\n      pop\n        /* \"#utility.yul\":27631:28250   */\n      swap3\n      pop\n      swap3\n      pop\n      swap3\n      jump\t// out\n        /* \"#utility.yul\":28256:29617   */\n    tag_166:\n        /* \"#utility.yul\":28617:28621   */\n      0x00\n        /* \"#utility.yul\":28655:28658   */\n      0x0180\n        /* \"#utility.yul\":28644:28653   */\n      dup3\n        /* \"#utility.yul\":28640:28659   */\n      add\n        /* \"#utility.yul\":28632:28659   */\n      swap1\n      pop\n        /* \"#utility.yul\":28669:28740   */\n      tag_873\n        /* \"#utility.yul\":28737:28738   */\n      0x00\n        /* \"#utility.yul\":28726:28735   */\n      dup4\n        /* \"#utility.yul\":28722:28739   */\n      add\n        /* \"#utility.yul\":28713:28719   */\n      dup16\n        /* \"#utility.yul\":28669:28740   */\n      tag_533\n      jump\t// in\n    tag_873:\n        /* \"#utility.yul\":28750:28822   */\n      tag_874\n        /* \"#utility.yul\":28818:28820   */\n      0x20\n        /* \"#utility.yul\":28807:28816   */\n      dup4\n        /* \"#utility.yul\":28803:28821   */\n      add\n        /* \"#utility.yul\":28794:28800   */\n      dup15\n        /* \"#utility.yul\":28750:28822   */\n      tag_533\n      jump\t// in\n    tag_874:\n        /* \"#utility.yul\":28832:28904   */\n      tag_875\n        /* \"#utility.yul\":28900:28902   */\n      0x40\n        /* \"#utility.yul\":28889:28898   */\n      dup4\n        /* \"#utility.yul\":28885:28903   */\n      add\n        /* \"#utility.yul\":28876:28882   */\n      dup14\n        /* \"#utility.yul\":28832:28904   */\n      tag_533\n      jump\t// in\n    tag_875:\n        /* \"#utility.yul\":28914:28986   */\n      tag_876\n        /* \"#utility.yul\":28982:28984   */\n      0x60\n        /* \"#utility.yul\":28971:28980   */\n      dup4\n        /* \"#utility.yul\":28967:28985   */\n      add\n        /* \"#utility.yul\":28958:28964   */\n      dup13\n        /* \"#utility.yul\":28914:28986   */\n      tag_533\n      jump\t// in\n    tag_876:\n        /* \"#utility.yul\":28996:29069   */\n      tag_877\n        /* \"#utility.yul\":29064:29067   */\n      0x80\n        /* \"#utility.yul\":29053:29062   */\n      dup4\n        /* \"#utility.yul\":29049:29068   */\n      add\n        /* \"#utility.yul\":29040:29046   */\n      dup12\n        /* \"#utility.yul\":28996:29069   */\n      tag_545\n      jump\t// in\n    tag_877:\n        /* \"#utility.yul\":29079:29146   */\n      tag_878\n        /* \"#utility.yul\":29141:29144   */\n      0xa0\n        /* \"#utility.yul\":29130:29139   */\n      dup4\n        /* \"#utility.yul\":29126:29145   */\n      add\n        /* \"#utility.yul\":29117:29123   */\n      dup11\n        /* \"#utility.yul\":29079:29146   */\n      tag_542\n      jump\t// in\n    tag_878:\n        /* \"#utility.yul\":29156:29223   */\n      tag_879\n        /* \"#utility.yul\":29218:29221   */\n      0xc0\n        /* \"#utility.yul\":29207:29216   */\n      dup4\n        /* \"#utility.yul\":29203:29222   */\n      add\n        /* \"#utility.yul\":29194:29200   */\n      dup10\n        /* \"#utility.yul\":29156:29223   */\n      tag_542\n      jump\t// in\n    tag_879:\n        /* \"#utility.yul\":29233:29300   */\n      tag_880\n        /* \"#utility.yul\":29295:29298   */\n      0xe0\n        /* \"#utility.yul\":29284:29293   */\n      dup4\n        /* \"#utility.yul\":29280:29299   */\n      add\n        /* \"#utility.yul\":29271:29277   */\n      dup9\n        /* \"#utility.yul\":29233:29300   */\n      tag_542\n      jump\t// in\n    tag_880:\n        /* \"#utility.yul\":29310:29377   */\n      tag_881\n        /* \"#utility.yul\":29372:29375   */\n      0x0100\n        /* \"#utility.yul\":29361:29370   */\n      dup4\n        /* \"#utility.yul\":29357:29376   */\n      add\n        /* \"#utility.yul\":29348:29354   */\n      dup8\n        /* \"#utility.yul\":29310:29377   */\n      tag_542\n      jump\t// in\n    tag_881:\n        /* \"#utility.yul\":29387:29454   */\n      tag_882\n        /* \"#utility.yul\":29449:29452   */\n      0x0120\n        /* \"#utility.yul\":29438:29447   */\n      dup4\n        /* \"#utility.yul\":29434:29453   */\n      add\n        /* \"#utility.yul\":29425:29431   */\n      dup7\n        /* \"#utility.yul\":29387:29454   */\n      tag_542\n      jump\t// in\n    tag_882:\n        /* \"#utility.yul\":29464:29532   */\n      tag_883\n        /* \"#utility.yul\":29527:29530   */\n      0x0140\n        /* \"#utility.yul\":29516:29525   */\n      dup4\n        /* \"#utility.yul\":29512:29531   */\n      add\n        /* \"#utility.yul\":29502:29509   */\n      dup6\n        /* \"#utility.yul\":29464:29532   */\n      tag_542\n      jump\t// in\n    tag_883:\n        /* \"#utility.yul\":29542:29610   */\n      tag_884\n        /* \"#utility.yul\":29605:29608   */\n      0x0160\n        /* \"#utility.yul\":29594:29603   */\n      dup4\n        /* \"#utility.yul\":29590:29609   */\n      add\n        /* \"#utility.yul\":29580:29587   */\n      dup5\n        /* \"#utility.yul\":29542:29610   */\n      tag_542\n      jump\t// in\n    tag_884:\n        /* \"#utility.yul\":28256:29617   */\n      swap14\n      swap13\n      pop\n      pop\n      pop\n      pop\n      pop\n      pop\n      pop\n      pop\n      pop\n      pop\n      pop\n      pop\n      pop\n      jump\t// out\n        /* \"#utility.yul\":29623:29803   */\n    tag_586:\n        /* \"#utility.yul\":29671:29748   */\n      0x4e487b7100000000000000000000000000000000000000000000000000000000\n        /* \"#utility.yul\":29668:29669   */\n      0x00\n        /* \"#utility.yul\":29661:29749   */\n      mstore\n        /* \"#utility.yul\":29768:29772   */\n      0x22\n        /* \"#utility.yul\":29765:29766   */\n      0x04\n        /* \"#utility.yul\":29758:29773   */\n      mstore\n        /* \"#utility.yul\":29792:29796   */\n      0x24\n        /* \"#utility.yul\":29789:29790   */\n      0x00\n        /* \"#utility.yul\":29782:29797   */\n      revert\n        /* \"#utility.yul\":29809:30129   */\n    tag_183:\n        /* \"#utility.yul\":29853:29859   */\n      0x00\n        /* \"#utility.yul\":29890:29891   */\n      0x02\n        /* \"#utility.yul\":29884:29888   */\n      dup3\n        /* \"#utility.yul\":29880:29892   */\n      div\n        /* \"#utility.yul\":29870:29892   */\n      swap1\n      pop\n        /* \"#utility.yul\":29937:29938   */\n      0x01\n        /* \"#utility.yul\":29931:29935   */\n      dup3\n        /* \"#utility.yul\":29927:29939   */\n      and\n        /* \"#utility.yul\":29958:29976   */\n      dup1\n        /* \"#utility.yul\":29948:30029   */\n      tag_887\n      jumpi\n        /* \"#utility.yul\":30014:30018   */\n      0x7f\n        /* \"#utility.yul\":30006:30012   */\n      dup3\n        /* \"#utility.yul\":30002:30019   */\n      and\n        /* \"#utility.yul\":29992:30019   */\n      swap2\n      pop\n        /* \"#utility.yul\":29948:30029   */\n    tag_887:\n        /* \"#utility.yul\":30076:30078   */\n      0x20\n        /* \"#utility.yul\":30068:30074   */\n      dup3\n        /* \"#utility.yul\":30065:30079   */\n      lt\n        /* \"#utility.yul\":30045:30063   */\n      dup2\n        /* \"#utility.yul\":30042:30080   */\n      sub\n        /* \"#utility.yul\":30039:30123   */\n      tag_888\n      jumpi\n        /* \"#utility.yul\":30095:30113   */\n      tag_889\n      tag_586\n      jump\t// in\n    tag_889:\n        /* \"#utility.yul\":30039:30123   */\n    tag_888:\n        /* \"#utility.yul\":29860:30129   */\n      pop\n        /* \"#utility.yul\":29809:30129   */\n      swap2\n      swap1\n      pop\n      jump\t// out\n        /* \"#utility.yul\":30135:30316   */\n    tag_587:\n        /* \"#utility.yul\":30275:30308   */\n      0x43616c6c6572206973206e6f7420746865206d61696e20636f6e747261637400\n        /* \"#utility.yul\":30271:30272   */\n      0x00\n        /* \"#utility.yul\":30263:30269   */\n      dup3\n        /* \"#utility.yul\":30259:30273   */\n      add\n        /* \"#utility.yul\":30252:30309   */\n      mstore\n        /* \"#utility.yul\":30135:30316   */\n      pop\n      jump\t// out\n        /* \"#utility.yul\":30322:30688   */\n    tag_588:\n        /* \"#utility.yul\":30464:30467   */\n      0x00\n        /* \"#utility.yul\":30485:30552   */\n      tag_892\n        /* \"#utility.yul\":30549:30551   */\n      0x1f\n        /* \"#utility.yul\":30544:30547   */\n      dup4\n        /* \"#utility.yul\":30485:30552   */\n      tag_535\n      jump\t// in\n    tag_892:\n        /* \"#utility.yul\":30478:30552   */\n      swap2\n      pop\n        /* \"#utility.yul\":30561:30654   */\n      tag_893\n        /* \"#utility.yul\":30650:30653   */\n      dup3\n        /* \"#utility.yul\":30561:30654   */\n      tag_587\n      jump\t// in\n    tag_893:\n        /* \"#utility.yul\":30679:30681   */\n      0x20\n        /* \"#utility.yul\":30674:30677   */\n      dup3\n        /* \"#utility.yul\":30670:30682   */\n      add\n        /* \"#utility.yul\":30663:30682   */\n      swap1\n      pop\n        /* \"#utility.yul\":30322:30688   */\n      swap2\n      swap1\n      pop\n      jump\t// out\n        /* \"#utility.yul\":30694:31113   */\n    tag_201:\n        /* \"#utility.yul\":30860:30864   */\n      0x00\n        /* \"#utility.yul\":30898:30900   */\n      0x20\n        /* \"#utility.yul\":30887:30896   */\n      dup3\n        /* \"#utility.yul\":30883:30901   */\n      add\n        /* \"#utility.yul\":30875:30901   */\n      swap1\n      pop\n        /* \"#utility.yul\":30947:30956   */\n      dup2\n        /* \"#utility.yul\":30941:30945   */\n      dup2\n        /* \"#utility.yul\":30937:30957   */\n      sub\n        /* \"#utility.yul\":30933:30934   */\n      0x00\n        /* \"#utility.yul\":30922:30931   */\n      dup4\n        /* \"#utility.yul\":30918:30935   */\n      add\n        /* \"#utility.yul\":30911:30958   */\n      mstore\n        /* \"#utility.yul\":30975:31106   */\n      tag_895\n        /* \"#utility.yul\":31101:31105   */\n      dup2\n        /* \"#utility.yul\":30975:31106   */\n      tag_588\n      jump\t// in\n    tag_895:\n        /* \"#utility.yul\":30967:31106   */\n      swap1\n      pop\n        /* \"#utility.yul\":30694:31113   */\n      swap2\n      swap1\n      pop\n      jump\t// out\n        /* \"#utility.yul\":31119:31291   */\n    tag_589:\n        /* \"#utility.yul\":31259:31283   */\n      0x50726f706f73616c206973206e6f742061637469766500000000000000000000\n        /* \"#utility.yul\":31255:31256   */\n      0x00\n        /* \"#utility.yul\":31247:31253   */\n      dup3\n        /* \"#utility.yul\":31243:31257   */\n      add\n        /* \"#utility.yul\":31236:31284   */\n      mstore\n        /* \"#utility.yul\":31119:31291   */\n      pop\n      jump\t// out\n        /* \"#utility.yul\":31297:31663   */\n    tag_590:\n        /* \"#utility.yul\":31439:31442   */\n      0x00\n        /* \"#utility.yul\":31460:31527   */\n      tag_898\n        /* \"#utility.yul\":31524:31526   */\n      0x16\n        /* \"#utility.yul\":31519:31522   */\n      dup4\n        /* \"#utility.yul\":31460:31527   */\n      tag_535\n      jump\t// in\n    tag_898:\n        /* \"#utility.yul\":31453:31527   */\n      swap2\n      pop\n        /* \"#utility.yul\":31536:31629   */\n      tag_899\n        /* \"#utility.yul\":31625:31628   */\n      dup3\n        /* \"#utility.yul\":31536:31629   */\n      tag_589\n      jump\t// in\n    tag_899:\n        /* \"#utility.yul\":31654:31656   */\n      0x20\n        /* \"#utility.yul\":31649:31652   */\n      dup3\n        /* \"#utility.yul\":31645:31657   */\n      add\n        /* \"#utility.yul\":31638:31657   */\n      swap1\n      pop\n        /* \"#utility.yul\":31297:31663   */\n      swap2\n      swap1\n      pop\n      jump\t// out\n        /* \"#utility.yul\":31669:32088   */\n    tag_208:\n        /* \"#utility.yul\":31835:31839   */\n      0x00\n        /* \"#utility.yul\":31873:31875   */\n      0x20\n        /* \"#utility.yul\":31862:31871   */\n      dup3\n        /* \"#utility.yul\":31858:31876   */\n      add\n        /* \"#utility.yul\":31850:31876   */\n      swap1\n      pop\n        /* \"#utility.yul\":31922:31931   */\n      dup2\n        /* \"#utility.yul\":31916:31920   */\n      dup2\n        /* \"#utility.yul\":31912:31932   */\n      sub\n        /* \"#utility.yul\":31908:31909   */\n      0x00\n        /* \"#utility.yul\":31897:31906   */\n      dup4\n        /* \"#utility.yul\":31893:31910   */\n      add\n        /* \"#utility.yul\":31886:31933   */\n      mstore\n        /* \"#utility.yul\":31950:32081   */\n      tag_901\n        /* \"#utility.yul\":32076:32080   */\n      dup2\n        /* \"#utility.yul\":31950:32081   */\n      tag_590\n      jump\t// in\n    tag_901:\n        /* \"#utility.yul\":31942:32081   */\n      swap1\n      pop\n        /* \"#utility.yul\":31669:32088   */\n      swap2\n      swap1\n      pop\n      jump\t// out\n        /* \"#utility.yul\":32094:32388   */\n    tag_591:\n        /* \"#utility.yul\":32234:32268   */\n      0x426f74682c20427579657220616e642053656c6c65722073686f756c64207265\n        /* \"#utility.yul\":32230:32231   */\n      0x00\n        /* \"#utility.yul\":32222:32228   */\n      dup3\n        /* \"#utility.yul\":32218:32232   */\n      add\n        /* \"#utility.yul\":32211:32269   */\n      mstore\n        /* \"#utility.yul\":32303:32337   */\n      0x71756573742063616e63656c6c6174696f6e206f662074686973207472616e73\n        /* \"#utility.yul\":32298:32300   */\n      0x20\n        /* \"#utility.yul\":32290:32296   */\n      dup3\n        /* \"#utility.yul\":32286:32301   */\n      add\n        /* \"#utility.yul\":32279:32338   */\n      mstore\n        /* \"#utility.yul\":32372:32380   */\n      0x616374696f6e0000000000000000000000000000000000000000000000000000\n        /* \"#utility.yul\":32367:32369   */\n      0x40\n        /* \"#utility.yul\":32359:32365   */\n      dup3\n        /* \"#utility.yul\":32355:32370   */\n      add\n        /* \"#utility.yul\":32348:32381   */\n      mstore\n        /* \"#utility.yul\":32094:32388   */\n      pop\n      jump\t// out\n        /* \"#utility.yul\":32394:32760   */\n    tag_592:\n        /* \"#utility.yul\":32536:32539   */\n      0x00\n        /* \"#utility.yul\":32557:32624   */\n      tag_904\n        /* \"#utility.yul\":32621:32623   */\n      0x46\n        /* \"#utility.yul\":32616:32619   */\n      dup4\n        /* \"#utility.yul\":32557:32624   */\n      tag_535\n      jump\t// in\n    tag_904:\n        /* \"#utility.yul\":32550:32624   */\n      swap2\n      pop\n        /* \"#utility.yul\":32633:32726   */\n      tag_905\n        /* \"#utility.yul\":32722:32725   */\n      dup3\n        /* \"#utility.yul\":32633:32726   */\n      tag_591\n      jump\t// in\n    tag_905:\n        /* \"#utility.yul\":32751:32753   */\n      0x60\n        /* \"#utility.yul\":32746:32749   */\n      dup3\n        /* \"#utility.yul\":32742:32754   */\n      add\n        /* \"#utility.yul\":32735:32754   */\n      swap1\n      pop\n        /* \"#utility.yul\":32394:32760   */\n      swap2\n      swap1\n      pop\n      jump\t// out\n        /* \"#utility.yul\":32766:33185   */\n    tag_228:\n        /* \"#utility.yul\":32932:32936   */\n      0x00\n        /* \"#utility.yul\":32970:32972   */\n      0x20\n        /* \"#utility.yul\":32959:32968   */\n      dup3\n        /* \"#utility.yul\":32955:32973   */\n      add\n        /* \"#utility.yul\":32947:32973   */\n      swap1\n      pop\n        /* \"#utility.yul\":33019:33028   */\n      dup2\n        /* \"#utility.yul\":33013:33017   */\n      dup2\n        /* \"#utility.yul\":33009:33029   */\n      sub\n        /* \"#utility.yul\":33005:33006   */\n      0x00\n        /* \"#utility.yul\":32994:33003   */\n      dup4\n        /* \"#utility.yul\":32990:33007   */\n      add\n        /* \"#utility.yul\":32983:33030   */\n      mstore\n        /* \"#utility.yul\":33047:33178   */\n      tag_907\n        /* \"#utility.yul\":33173:33177   */\n      dup2\n        /* \"#utility.yul\":33047:33178   */\n      tag_592\n      jump\t// in\n    tag_907:\n        /* \"#utility.yul\":33039:33178   */\n      swap1\n      pop\n        /* \"#utility.yul\":32766:33185   */\n      swap2\n      swap1\n      pop\n      jump\t// out\n        /* \"#utility.yul\":33191:33371   */\n    tag_593:\n        /* \"#utility.yul\":33239:33316   */\n      0x4e487b7100000000000000000000000000000000000000000000000000000000\n        /* \"#utility.yul\":33236:33237   */\n      0x00\n        /* \"#utility.yul\":33229:33317   */\n      mstore\n        /* \"#utility.yul\":33336:33340   */\n      0x11\n        /* \"#utility.yul\":33333:33334   */\n      0x04\n        /* \"#utility.yul\":33326:33341   */\n      mstore\n        /* \"#utility.yul\":33360:33364   */\n      0x24\n        /* \"#utility.yul\":33357:33358   */\n      0x00\n        /* \"#utility.yul\":33350:33365   */\n      revert\n        /* \"#utility.yul\":33377:33568   */\n    tag_231:\n        /* \"#utility.yul\":33417:33420   */\n      0x00\n        /* \"#utility.yul\":33436:33456   */\n      tag_910\n        /* \"#utility.yul\":33454:33455   */\n      dup3\n        /* \"#utility.yul\":33436:33456   */\n      tag_530\n      jump\t// in\n    tag_910:\n        /* \"#utility.yul\":33431:33456   */\n      swap2\n      pop\n        /* \"#utility.yul\":33470:33490   */\n      tag_911\n        /* \"#utility.yul\":33488:33489   */\n      dup4\n        /* \"#utility.yul\":33470:33490   */\n      tag_530\n      jump\t// in\n    tag_911:\n        /* \"#utility.yul\":33465:33490   */\n      swap3\n      pop\n        /* \"#utility.yul\":33513:33514   */\n      dup3\n        /* \"#utility.yul\":33510:33511   */\n      dup3\n        /* \"#utility.yul\":33506:33515   */\n      add\n        /* \"#utility.yul\":33499:33515   */\n      swap1\n      pop\n        /* \"#utility.yul\":33534:33537   */\n      dup1\n        /* \"#utility.yul\":33531:33532   */\n      dup3\n        /* \"#utility.yul\":33528:33538   */\n      gt\n        /* \"#utility.yul\":33525:33561   */\n      iszero\n      tag_912\n      jumpi\n        /* \"#utility.yul\":33541:33559   */\n      tag_913\n      tag_593\n      jump\t// in\n    tag_913:\n        /* \"#utility.yul\":33525:33561   */\n    tag_912:\n        /* \"#utility.yul\":33377:33568   */\n      swap3\n      swap2\n      pop\n      pop\n      jump\t// out\n        /* \"#utility.yul\":33574:33754   */\n    tag_255:\n        /* \"#utility.yul\":33622:33699   */\n      0x4e487b7100000000000000000000000000000000000000000000000000000000\n        /* \"#utility.yul\":33619:33620   */\n      0x00\n        /* \"#utility.yul\":33612:33700   */\n      mstore\n        /* \"#utility.yul\":33719:33723   */\n      0x32\n        /* \"#utility.yul\":33716:33717   */\n      0x04\n        /* \"#utility.yul\":33709:33724   */\n      mstore\n        /* \"#utility.yul\":33743:33747   */\n      0x24\n        /* \"#utility.yul\":33740:33741   */\n      0x00\n        /* \"#utility.yul\":33733:33748   */\n      revert\n        /* \"#utility.yul\":33760:33993   */\n    tag_264:\n        /* \"#utility.yul\":33799:33802   */\n      0x00\n        /* \"#utility.yul\":33822:33846   */\n      tag_916\n        /* \"#utility.yul\":33840:33845   */\n      dup3\n        /* \"#utility.yul\":33822:33846   */\n      tag_530\n      jump\t// in\n    tag_916:\n        /* \"#utility.yul\":33813:33846   */\n      swap2\n      pop\n        /* \"#utility.yul\":33868:33934   */\n      0xffffffffffffffffffffffffffffffffffffffffffffffffffffffffffffffff\n        /* \"#utility.yul\":33861:33866   */\n      dup3\n        /* \"#utility.yul\":33858:33935   */\n      sub\n        /* \"#utility.yul\":33855:33958   */\n      tag_917\n      jumpi\n        /* \"#utility.yul\":33938:33956   */\n      tag_918\n      tag_593\n      jump\t// in\n    tag_918:\n        /* \"#utility.yul\":33855:33958   */\n    tag_917:\n        /* \"#utility.yul\":33985:33986   */\n      0x01\n        /* \"#utility.yul\":33978:33983   */\n      dup3\n        /* \"#utility.yul\":33974:33987   */\n      add\n        /* \"#utility.yul\":33967:33987   */\n      swap1\n      pop\n        /* \"#utility.yul\":33760:33993   */\n      swap2\n      swap1\n      pop\n      jump\t// out\n        /* \"#utility.yul\":33999:34193   */\n    tag_293:\n        /* \"#utility.yul\":34039:34043   */\n      0x00\n        /* \"#utility.yul\":34059:34079   */\n      tag_920\n        /* \"#utility.yul\":34077:34078   */\n      dup3\n        /* \"#utility.yul\":34059:34079   */\n      tag_530\n      jump\t// in\n    tag_920:\n        /* \"#utility.yul\":34054:34079   */\n      swap2\n      pop\n        /* \"#utility.yul\":34093:34113   */\n      tag_921\n        /* \"#utility.yul\":34111:34112   */\n      dup4\n        /* \"#utility.yul\":34093:34113   */\n      tag_530\n      jump\t// in\n    tag_921:\n        /* \"#utility.yul\":34088:34113   */\n      swap3\n      pop\n        /* \"#utility.yul\":34137:34138   */\n      dup3\n        /* \"#utility.yul\":34134:34135   */\n      dup3\n        /* \"#utility.yul\":34130:34139   */\n      sub\n        /* \"#utility.yul\":34122:34139   */\n      swap1\n      pop\n        /* \"#utility.yul\":34161:34162   */\n      dup2\n        /* \"#utility.yul\":34155:34159   */\n      dup2\n        /* \"#utility.yul\":34152:34163   */\n      gt\n        /* \"#utility.yul\":34149:34186   */\n      iszero\n      tag_922\n      jumpi\n        /* \"#utility.yul\":34166:34184   */\n      tag_923\n      tag_593\n      jump\t// in\n    tag_923:\n        /* \"#utility.yul\":34149:34186   */\n    tag_922:\n        /* \"#utility.yul\":33999:34193   */\n      swap3\n      swap2\n      pop\n      pop\n      jump\t// out\n        /* \"#utility.yul\":34199:34504   */\n    tag_594:\n        /* \"#utility.yul\":34339:34373   */\n      0x43616e6e6f742064656c6574652070726f706f73616c20696620612062757965\n        /* \"#utility.yul\":34335:34336   */\n      0x00\n        /* \"#utility.yul\":34327:34333   */\n      dup3\n        /* \"#utility.yul\":34323:34337   */\n      add\n        /* \"#utility.yul\":34316:34374   */\n      mstore\n        /* \"#utility.yul\":34408:34442   */\n      0x72207265717565737420686173206265656e20616363657074656420616e6420\n        /* \"#utility.yul\":34403:34405   */\n      0x20\n        /* \"#utility.yul\":34395:34401   */\n      dup3\n        /* \"#utility.yul\":34391:34406   */\n      add\n        /* \"#utility.yul\":34384:34443   */\n      mstore\n        /* \"#utility.yul\":34477:34496   */\n      0x69742773207374696c6c20616374697665000000000000000000000000000000\n        /* \"#utility.yul\":34472:34474   */\n      0x40\n        /* \"#utility.yul\":34464:34470   */\n      dup3\n        /* \"#utility.yul\":34460:34475   */\n      add\n        /* \"#utility.yul\":34453:34497   */\n      mstore\n        /* \"#utility.yul\":34199:34504   */\n      pop\n      jump\t// out\n        /* \"#utility.yul\":34510:34876   */\n    tag_595:\n        /* \"#utility.yul\":34652:34655   */\n      0x00\n        /* \"#utility.yul\":34673:34740   */\n      tag_926\n        /* \"#utility.yul\":34737:34739   */\n      0x51\n        /* \"#utility.yul\":34732:34735   */\n      dup4\n        /* \"#utility.yul\":34673:34740   */\n      tag_535\n      jump\t// in\n    tag_926:\n        /* \"#utility.yul\":34666:34740   */\n      swap2\n      pop\n        /* \"#utility.yul\":34749:34842   */\n      tag_927\n        /* \"#utility.yul\":34838:34841   */\n      dup3\n        /* \"#utility.yul\":34749:34842   */\n      tag_594\n      jump\t// in\n    tag_927:\n        /* \"#utility.yul\":34867:34869   */\n      0x60\n        /* \"#utility.yul\":34862:34865   */\n      dup3\n        /* \"#utility.yul\":34858:34870   */\n      add\n        /* \"#utility.yul\":34851:34870   */\n      swap1\n      pop\n        /* \"#utility.yul\":34510:34876   */\n      swap2\n      swap1\n      pop\n      jump\t// out\n        /* \"#utility.yul\":34882:35301   */\n    tag_315:\n        /* \"#utility.yul\":35048:35052   */\n      0x00\n        /* \"#utility.yul\":35086:35088   */\n      0x20\n        /* \"#utility.yul\":35075:35084   */\n      dup3\n        /* \"#utility.yul\":35071:35089   */\n      add\n        /* \"#utility.yul\":35063:35089   */\n      swap1\n      pop\n        /* \"#utility.yul\":35135:35144   */\n      dup2\n        /* \"#utility.yul\":35129:35133   */\n      dup2\n        /* \"#utility.yul\":35125:35145   */\n      sub\n        /* \"#utility.yul\":35121:35122   */\n      0x00\n        /* \"#utility.yul\":35110:35119   */\n      dup4\n        /* \"#utility.yul\":35106:35123   */\n      add\n        /* \"#utility.yul\":35099:35146   */\n      mstore\n        /* \"#utility.yul\":35163:35294   */\n      tag_929\n        /* \"#utility.yul\":35289:35293   */\n      dup2\n        /* \"#utility.yul\":35163:35294   */\n      tag_595\n      jump\t// in\n    tag_929:\n        /* \"#utility.yul\":35155:35294   */\n      swap1\n      pop\n        /* \"#utility.yul\":34882:35301   */\n      swap2\n      swap1\n      pop\n      jump\t// out\n        /* \"#utility.yul\":35307:35487   */\n    tag_333:\n        /* \"#utility.yul\":35355:35432   */\n      0x4e487b7100000000000000000000000000000000000000000000000000000000\n        /* \"#utility.yul\":35352:35353   */\n      0x00\n        /* \"#utility.yul\":35345:35433   */\n      mstore\n        /* \"#utility.yul\":35452:35456   */\n      0x31\n        /* \"#utility.yul\":35449:35450   */\n      0x04\n        /* \"#utility.yul\":35442:35457   */\n      mstore\n        /* \"#utility.yul\":35476:35480   */\n      0x24\n        /* \"#utility.yul\":35473:35474   */\n      0x00\n        /* \"#utility.yul\":35466:35481   */\n      revert\n        /* \"#utility.yul\":35493:35664   */\n    tag_336:\n        /* \"#utility.yul\":35532:35535   */\n      0x00\n        /* \"#utility.yul\":35555:35579   */\n      tag_932\n        /* \"#utility.yul\":35573:35578   */\n      dup3\n        /* \"#utility.yul\":35555:35579   */\n      tag_530\n      jump\t// in\n    tag_932:\n        /* \"#utility.yul\":35546:35579   */\n      swap2\n      pop\n        /* \"#utility.yul\":35601:35605   */\n      0x00\n        /* \"#utility.yul\":35594:35599   */\n      dup3\n        /* \"#utility.yul\":35591:35606   */\n      sub\n        /* \"#utility.yul\":35588:35629   */\n      tag_933\n      jumpi\n        /* \"#utility.yul\":35609:35627   */\n      tag_934\n      tag_593\n      jump\t// in\n    tag_934:\n        /* \"#utility.yul\":35588:35629   */\n    tag_933:\n        /* \"#utility.yul\":35656:35657   */\n      0x01\n        /* \"#utility.yul\":35649:35654   */\n      dup3\n        /* \"#utility.yul\":35645:35658   */\n      sub\n        /* \"#utility.yul\":35638:35658   */\n      swap1\n      pop\n        /* \"#utility.yul\":35493:35664   */\n      swap2\n      swap1\n      pop\n      jump\t// out\n        /* \"#utility.yul\":35670:35843   */\n    tag_596:\n        /* \"#utility.yul\":35810:35835   */\n      0x50726f706f73616c20646f6573206e6f74206578697374000000000000000000\n        /* \"#utility.yul\":35806:35807   */\n      0x00\n        /* \"#utility.yul\":35798:35804   */\n      dup3\n        /* \"#utility.yul\":35794:35808   */\n      add\n        /* \"#utility.yul\":35787:35836   */\n      mstore\n        /* \"#utility.yul\":35670:35843   */\n      pop\n      jump\t// out\n        /* \"#utility.yul\":35849:36215   */\n    tag_597:\n        /* \"#utility.yul\":35991:35994   */\n      0x00\n        /* \"#utility.yul\":36012:36079   */\n      tag_937\n        /* \"#utility.yul\":36076:36078   */\n      0x17\n        /* \"#utility.yul\":36071:36074   */\n      dup4\n        /* \"#utility.yul\":36012:36079   */\n      tag_535\n      jump\t// in\n    tag_937:\n        /* \"#utility.yul\":36005:36079   */\n      swap2\n      pop\n        /* \"#utility.yul\":36088:36181   */\n      tag_938\n        /* \"#utility.yul\":36177:36180   */\n      dup3\n        /* \"#utility.yul\":36088:36181   */\n      tag_596\n      jump\t// in\n    tag_938:\n        /* \"#utility.yul\":36206:36208   */\n      0x20\n        /* \"#utility.yul\":36201:36204   */\n      dup3\n        /* \"#utility.yul\":36197:36209   */\n      add\n        /* \"#utility.yul\":36190:36209   */\n      swap1\n      pop\n        /* \"#utility.yul\":35849:36215   */\n      swap2\n      swap1\n      pop\n      jump\t// out\n        /* \"#utility.yul\":36221:36640   */\n    tag_350:\n        /* \"#utility.yul\":36387:36391   */\n      0x00\n        /* \"#utility.yul\":36425:36427   */\n      0x20\n        /* \"#utility.yul\":36414:36423   */\n      dup3\n        /* \"#utility.yul\":36410:36428   */\n      add\n        /* \"#utility.yul\":36402:36428   */\n      swap1\n      pop\n        /* \"#utility.yul\":36474:36483   */\n      dup2\n        /* \"#utility.yul\":36468:36472   */\n      dup2\n        /* \"#utility.yul\":36464:36484   */\n      sub\n        /* \"#utility.yul\":36460:36461   */\n      0x00\n        /* \"#utility.yul\":36449:36458   */\n      dup4\n        /* \"#utility.yul\":36445:36462   */\n      add\n        /* \"#utility.yul\":36438:36485   */\n      mstore\n        /* \"#utility.yul\":36502:36633   */\n      tag_940\n        /* \"#utility.yul\":36628:36632   */\n      dup2\n        /* \"#utility.yul\":36502:36633   */\n      tag_597\n      jump\t// in\n    tag_940:\n        /* \"#utility.yul\":36494:36633   */\n      swap1\n      pop\n        /* \"#utility.yul\":36221:36640   */\n      swap2\n      swap1\n      pop\n      jump\t// out\n        /* \"#utility.yul\":36646:36787   */\n    tag_598:\n        /* \"#utility.yul\":36695:36699   */\n      0x00\n        /* \"#utility.yul\":36718:36721   */\n      dup2\n        /* \"#utility.yul\":36710:36721   */\n      swap1\n      pop\n        /* \"#utility.yul\":36741:36744   */\n      dup2\n        /* \"#utility.yul\":36738:36739   */\n      0x00\n        /* \"#utility.yul\":36731:36745   */\n      mstore\n        /* \"#utility.yul\":36775:36779   */\n      0x20\n        /* \"#utility.yul\":36772:36773   */\n      0x00\n        /* \"#utility.yul\":36762:36780   */\n      keccak256\n        /* \"#utility.yul\":36754:36780   */\n      swap1\n      pop\n        /* \"#utility.yul\":36646:36787   */\n      swap2\n      swap1\n      pop\n      jump\t// out\n        /* \"#utility.yul\":36793:36886   */\n    tag_599:\n        /* \"#utility.yul\":36830:36836   */\n      0x00\n        /* \"#utility.yul\":36877:36879   */\n      0x20\n        /* \"#utility.yul\":36872:36874   */\n      0x1f\n        /* \"#utility.yul\":36865:36870   */\n      dup4\n        /* \"#utility.yul\":36861:36875   */\n      add\n        /* \"#utility.yul\":36857:36880   */\n      div\n        /* \"#utility.yul\":36847:36880   */\n      swap1\n      pop\n        /* \"#utility.yul\":36793:36886   */\n      swap2\n      swap1\n      pop\n      jump\t// out\n        /* \"#utility.yul\":36892:36999   */\n    tag_600:\n        /* \"#utility.yul\":36936:36944   */\n      0x00\n        /* \"#utility.yul\":36986:36991   */\n      dup3\n        /* \"#utility.yul\":36980:36984   */\n      dup3\n        /* \"#utility.yul\":36976:36992   */\n      shl\n        /* \"#utility.yul\":36955:36992   */\n      swap1\n      pop\n        /* \"#utility.yul\":36892:36999   */\n      swap3\n      swap2\n      pop\n      pop\n      jump\t// out\n        /* \"#utility.yul\":37005:37398   */\n    tag_601:\n        /* \"#utility.yul\":37074:37080   */\n      0x00\n        /* \"#utility.yul\":37124:37125   */\n      0x08\n        /* \"#utility.yul\":37112:37122   */\n      dup4\n        /* \"#utility.yul\":37108:37126   */\n      mul\n        /* \"#utility.yul\":37147:37244   */\n      tag_945\n        /* \"#utility.yul\":37177:37243   */\n      0xffffffffffffffffffffffffffffffffffffffffffffffffffffffffffffffff\n        /* \"#utility.yul\":37166:37175   */\n      dup3\n        /* \"#utility.yul\":37147:37244   */\n      tag_600\n      jump\t// in\n    tag_945:\n        /* \"#utility.yul\":37265:37304   */\n      tag_946\n        /* \"#utility.yul\":37295:37303   */\n      dup7\n        /* \"#utility.yul\":37284:37293   */\n      dup4\n        /* \"#utility.yul\":37265:37304   */\n      tag_600\n      jump\t// in\n    tag_946:\n        /* \"#utility.yul\":37253:37304   */\n      swap6\n      pop\n        /* \"#utility.yul\":37337:37341   */\n      dup1\n        /* \"#utility.yul\":37333:37342   */\n      not\n        /* \"#utility.yul\":37326:37331   */\n      dup5\n        /* \"#utility.yul\":37322:37343   */\n      and\n        /* \"#utility.yul\":37313:37343   */\n      swap4\n      pop\n        /* \"#utility.yul\":37386:37390   */\n      dup1\n        /* \"#utility.yul\":37376:37384   */\n      dup7\n        /* \"#utility.yul\":37372:37391   */\n      and\n        /* \"#utility.yul\":37365:37370   */\n      dup5\n        /* \"#utility.yul\":37362:37392   */\n      or\n        /* \"#utility.yul\":37352:37392   */\n      swap3\n      pop\n        /* \"#utility.yul\":37081:37398   */\n      pop\n      pop\n        /* \"#utility.yul\":37005:37398   */\n      swap4\n      swap3\n      pop\n      pop\n      pop\n      jump\t// out\n        /* \"#utility.yul\":37404:37546   */\n    tag_602:\n        /* \"#utility.yul\":37454:37463   */\n      0x00\n        /* \"#utility.yul\":37487:37540   */\n      tag_948\n        /* \"#utility.yul\":37505:37539   */\n      tag_949\n        /* \"#utility.yul\":37514:37538   */\n      tag_950\n        /* \"#utility.yul\":37532:37537   */\n      dup5\n        /* \"#utility.yul\":37514:37538   */\n      tag_530\n      jump\t// in\n    tag_950:\n        /* \"#utility.yul\":37505:37539   */\n      tag_576\n      jump\t// in\n    tag_949:\n        /* \"#utility.yul\":37487:37540   */\n      tag_530\n      jump\t// in\n    tag_948:\n        /* \"#utility.yul\":37474:37540   */\n      swap1\n      pop\n        /* \"#utility.yul\":37404:37546   */\n      swap2\n      swap1\n      pop\n      jump\t// out\n        /* \"#utility.yul\":37552:37627   */\n    tag_603:\n        /* \"#utility.yul\":37595:37598   */\n      0x00\n        /* \"#utility.yul\":37616:37621   */\n      dup2\n        /* \"#utility.yul\":37609:37621   */\n      swap1\n      pop\n        /* \"#utility.yul\":37552:37627   */\n      swap2\n      swap1\n      pop\n      jump\t// out\n        /* \"#utility.yul\":37633:37902   */\n    tag_604:\n        /* \"#utility.yul\":37743:37782   */\n      tag_953\n        /* \"#utility.yul\":37774:37781   */\n      dup4\n        /* \"#utility.yul\":37743:37782   */\n      tag_602\n      jump\t// in\n    tag_953:\n        /* \"#utility.yul\":37804:37895   */\n      tag_954\n        /* \"#utility.yul\":37853:37894   */\n      tag_955\n        /* \"#utility.yul\":37877:37893   */\n      dup3\n        /* \"#utility.yul\":37853:37894   */\n      tag_603\n      jump\t// in\n    tag_955:\n        /* \"#utility.yul\":37845:37851   */\n      dup5\n        /* \"#utility.yul\":37838:37842   */\n      dup5\n        /* \"#utility.yul\":37832:37843   */\n      sload\n        /* \"#utility.yul\":37804:37895   */\n      tag_601\n      jump\t// in\n    tag_954:\n        /* \"#utility.yul\":37798:37802   */\n      dup3\n        /* \"#utility.yul\":37791:37896   */\n      sstore\n        /* \"#utility.yul\":37709:37902   */\n      pop\n        /* \"#utility.yul\":37633:37902   */\n      pop\n      pop\n      pop\n      jump\t// out\n        /* \"#utility.yul\":37908:37981   */\n    tag_605:\n        /* \"#utility.yul\":37953:37956   */\n      0x00\n        /* \"#utility.yul\":37908:37981   */\n      swap1\n      jump\t// out\n        /* \"#utility.yul\":37987:38176   */\n    tag_606:\n        /* \"#utility.yul\":38064:38096   */\n      tag_958\n      tag_605\n      jump\t// in\n    tag_958:\n        /* \"#utility.yul\":38105:38170   */\n      tag_959\n        /* \"#utility.yul\":38163:38169   */\n      dup2\n        /* \"#utility.yul\":38155:38161   */\n      dup5\n        /* \"#utility.yul\":38149:38153   */\n      dup5\n        /* \"#utility.yul\":38105:38170   */\n      tag_604\n      jump\t// in\n    tag_959:\n        /* \"#utility.yul\":38040:38176   */\n      pop\n        /* \"#utility.yul\":37987:38176   */\n      pop\n      pop\n      jump\t// out\n        /* \"#utility.yul\":38182:38368   */\n    tag_607:\n        /* \"#utility.yul\":38242:38362   */\n    tag_961:\n        /* \"#utility.yul\":38259:38262   */\n      dup2\n        /* \"#utility.yul\":38252:38257   */\n      dup2\n        /* \"#utility.yul\":38249:38263   */\n      lt\n        /* \"#utility.yul\":38242:38362   */\n      iszero\n      tag_963\n      jumpi\n        /* \"#utility.yul\":38313:38352   */\n      tag_964\n        /* \"#utility.yul\":38350:38351   */\n      0x00\n        /* \"#utility.yul\":38343:38348   */\n      dup3\n        /* \"#utility.yul\":38313:38352   */\n      tag_606\n      jump\t// in\n    tag_964:\n        /* \"#utility.yul\":38286:38287   */\n      0x01\n        /* \"#utility.yul\":38279:38284   */\n      dup2\n        /* \"#utility.yul\":38275:38288   */\n      add\n        /* \"#utility.yul\":38266:38288   */\n      swap1\n      pop\n        /* \"#utility.yul\":38242:38362   */\n      jump(tag_961)\n    tag_963:\n        /* \"#utility.yul\":38182:38368   */\n      pop\n      pop\n      jump\t// out\n        /* \"#utility.yul\":38374:38917   */\n    tag_608:\n        /* \"#utility.yul\":38475:38477   */\n      0x1f\n        /* \"#utility.yul\":38470:38473   */\n      dup3\n        /* \"#utility.yul\":38467:38478   */\n      gt\n        /* \"#utility.yul\":38464:38910   */\n      iszero\n      tag_966\n      jumpi\n        /* \"#utility.yul\":38509:38547   */\n      tag_967\n        /* \"#utility.yul\":38541:38546   */\n      dup2\n        /* \"#utility.yul\":38509:38547   */\n      tag_598\n      jump\t// in\n    tag_967:\n        /* \"#utility.yul\":38593:38622   */\n      tag_968\n        /* \"#utility.yul\":38611:38621   */\n      dup5\n        /* \"#utility.yul\":38593:38622   */\n      tag_599\n      jump\t// in\n    tag_968:\n        /* \"#utility.yul\":38583:38591   */\n      dup2\n        /* \"#utility.yul\":38579:38623   */\n      add\n        /* \"#utility.yul\":38776:38778   */\n      0x20\n        /* \"#utility.yul\":38764:38774   */\n      dup6\n        /* \"#utility.yul\":38761:38779   */\n      lt\n        /* \"#utility.yul\":38758:38807   */\n      iszero\n      tag_969\n      jumpi\n        /* \"#utility.yul\":38797:38805   */\n      dup2\n        /* \"#utility.yul\":38782:38805   */\n      swap1\n      pop\n        /* \"#utility.yul\":38758:38807   */\n    tag_969:\n        /* \"#utility.yul\":38820:38900   */\n      tag_970\n        /* \"#utility.yul\":38876:38898   */\n      tag_971\n        /* \"#utility.yul\":38894:38897   */\n      dup6\n        /* \"#utility.yul\":38876:38898   */\n      tag_599\n      jump\t// in\n    tag_971:\n        /* \"#utility.yul\":38866:38874   */\n      dup4\n        /* \"#utility.yul\":38862:38899   */\n      add\n        /* \"#utility.yul\":38849:38860   */\n      dup3\n        /* \"#utility.yul\":38820:38900   */\n      tag_607\n      jump\t// in\n    tag_970:\n        /* \"#utility.yul\":38479:38910   */\n      pop\n      pop\n        /* \"#utility.yul\":38464:38910   */\n    tag_966:\n        /* \"#utility.yul\":38374:38917   */\n      pop\n      pop\n      pop\n      jump\t// out\n        /* \"#utility.yul\":38923:39040   */\n    tag_609:\n        /* \"#utility.yul\":38977:38985   */\n      0x00\n        /* \"#utility.yul\":39027:39032   */\n      dup3\n        /* \"#utility.yul\":39021:39025   */\n      dup3\n        /* \"#utility.yul\":39017:39033   */\n      shr\n        /* \"#utility.yul\":38996:39033   */\n      swap1\n      pop\n        /* \"#utility.yul\":38923:39040   */\n      swap3\n      swap2\n      pop\n      pop\n      jump\t// out\n        /* \"#utility.yul\":39046:39215   */\n    tag_610:\n        /* \"#utility.yul\":39090:39096   */\n      0x00\n        /* \"#utility.yul\":39123:39174   */\n      tag_974\n        /* \"#utility.yul\":39171:39172   */\n      0x00\n        /* \"#utility.yul\":39167:39173   */\n      not\n        /* \"#utility.yul\":39159:39164   */\n      dup5\n        /* \"#utility.yul\":39156:39157   */\n      0x08\n        /* \"#utility.yul\":39152:39165   */\n      mul\n        /* \"#utility.yul\":39123:39174   */\n      tag_609\n      jump\t// in\n    tag_974:\n        /* \"#utility.yul\":39119:39175   */\n      not\n        /* \"#utility.yul\":39204:39208   */\n      dup1\n        /* \"#utility.yul\":39198:39202   */\n      dup4\n        /* \"#utility.yul\":39194:39209   */\n      and\n        /* \"#utility.yul\":39184:39209   */\n      swap2\n      pop\n        /* \"#utility.yul\":39097:39215   */\n      pop\n        /* \"#utility.yul\":39046:39215   */\n      swap3\n      swap2\n      pop\n      pop\n      jump\t// out\n        /* \"#utility.yul\":39220:39515   */\n    tag_611:\n        /* \"#utility.yul\":39296:39300   */\n      0x00\n        /* \"#utility.yul\":39442:39471   */\n      tag_976\n        /* \"#utility.yul\":39467:39470   */\n      dup4\n        /* \"#utility.yul\":39461:39465   */\n      dup4\n        /* \"#utility.yul\":39442:39471   */\n      tag_610\n      jump\t// in\n    tag_976:\n        /* \"#utility.yul\":39434:39471   */\n      swap2\n      pop\n        /* \"#utility.yul\":39504:39507   */\n      dup3\n        /* \"#utility.yul\":39501:39502   */\n      0x02\n        /* \"#utility.yul\":39497:39508   */\n      mul\n        /* \"#utility.yul\":39491:39495   */\n      dup3\n        /* \"#utility.yul\":39488:39509   */\n      or\n        /* \"#utility.yul\":39480:39509   */\n      swap1\n      pop\n        /* \"#utility.yul\":39220:39515   */\n      swap3\n      swap2\n      pop\n      pop\n      jump\t// out\n        /* \"#utility.yul\":39520:40915   */\n    tag_397:\n        /* \"#utility.yul\":39637:39674   */\n      tag_978\n        /* \"#utility.yul\":39670:39673   */\n      dup3\n        /* \"#utility.yul\":39637:39674   */\n      tag_534\n      jump\t// in\n    tag_978:\n        /* \"#utility.yul\":39739:39757   */\n      0xffffffffffffffff\n        /* \"#utility.yul\":39731:39737   */\n      dup2\n        /* \"#utility.yul\":39728:39758   */\n      gt\n        /* \"#utility.yul\":39725:39781   */\n      iszero\n      tag_979\n      jumpi\n        /* \"#utility.yul\":39761:39779   */\n      tag_980\n      tag_245\n      jump\t// in\n    tag_980:\n        /* \"#utility.yul\":39725:39781   */\n    tag_979:\n        /* \"#utility.yul\":39805:39843   */\n      tag_981\n        /* \"#utility.yul\":39837:39841   */\n      dup3\n        /* \"#utility.yul\":39831:39842   */\n      sload\n        /* \"#utility.yul\":39805:39843   */\n      tag_183\n      jump\t// in\n    tag_981:\n        /* \"#utility.yul\":39890:39957   */\n      tag_982\n        /* \"#utility.yul\":39950:39956   */\n      dup3\n        /* \"#utility.yul\":39942:39948   */\n      dup3\n        /* \"#utility.yul\":39936:39940   */\n      dup6\n        /* \"#utility.yul\":39890:39957   */\n      tag_608\n      jump\t// in\n    tag_982:\n        /* \"#utility.yul\":39984:39985   */\n      0x00\n        /* \"#utility.yul\":40008:40012   */\n      0x20\n        /* \"#utility.yul\":39995:40012   */\n      swap1\n      pop\n        /* \"#utility.yul\":40040:40042   */\n      0x1f\n        /* \"#utility.yul\":40032:40038   */\n      dup4\n        /* \"#utility.yul\":40029:40043   */\n      gt\n        /* \"#utility.yul\":40057:40058   */\n      0x01\n        /* \"#utility.yul\":40052:40670   */\n      dup2\n      eq\n      tag_984\n      jumpi\n        /* \"#utility.yul\":40714:40715   */\n      0x00\n        /* \"#utility.yul\":40731:40737   */\n      dup5\n        /* \"#utility.yul\":40728:40805   */\n      iszero\n      tag_985\n      jumpi\n        /* \"#utility.yul\":40780:40789   */\n      dup3\n        /* \"#utility.yul\":40775:40778   */\n      dup8\n        /* \"#utility.yul\":40771:40790   */\n      add\n        /* \"#utility.yul\":40765:40791   */\n      mload\n        /* \"#utility.yul\":40756:40791   */\n      swap1\n      pop\n        /* \"#utility.yul\":40728:40805   */\n    tag_985:\n        /* \"#utility.yul\":40831:40898   */\n      tag_986\n        /* \"#utility.yul\":40891:40897   */\n      dup6\n        /* \"#utility.yul\":40884:40889   */\n      dup3\n        /* \"#utility.yul\":40831:40898   */\n      tag_611\n      jump\t// in\n    tag_986:\n        /* \"#utility.yul\":40825:40829   */\n      dup7\n        /* \"#utility.yul\":40818:40899   */\n      sstore\n        /* \"#utility.yul\":40687:40909   */\n      pop\n        /* \"#utility.yul\":40022:40909   */\n      jump(tag_983)\n        /* \"#utility.yul\":40052:40670   */\n    tag_984:\n        /* \"#utility.yul\":40104:40108   */\n      0x1f\n        /* \"#utility.yul\":40100:40109   */\n      not\n        /* \"#utility.yul\":40092:40098   */\n      dup5\n        /* \"#utility.yul\":40088:40110   */\n      and\n        /* \"#utility.yul\":40138:40175   */\n      tag_987\n        /* \"#utility.yul\":40170:40174   */\n      dup7\n        /* \"#utility.yul\":40138:40175   */\n      tag_598\n      jump\t// in\n    tag_987:\n        /* \"#utility.yul\":40197:40198   */\n      0x00\n        /* \"#utility.yul\":40211:40419   */\n    tag_988:\n        /* \"#utility.yul\":40225:40232   */\n      dup3\n        /* \"#utility.yul\":40222:40223   */\n      dup2\n        /* \"#utility.yul\":40219:40233   */\n      lt\n        /* \"#utility.yul\":40211:40419   */\n      iszero\n      tag_990\n      jumpi\n        /* \"#utility.yul\":40304:40313   */\n      dup5\n        /* \"#utility.yul\":40299:40302   */\n      dup10\n        /* \"#utility.yul\":40295:40314   */\n      add\n        /* \"#utility.yul\":40289:40315   */\n      mload\n        /* \"#utility.yul\":40281:40287   */\n      dup3\n        /* \"#utility.yul\":40274:40316   */\n      sstore\n        /* \"#utility.yul\":40355:40356   */\n      0x01\n        /* \"#utility.yul\":40347:40353   */\n      dup3\n        /* \"#utility.yul\":40343:40357   */\n      add\n        /* \"#utility.yul\":40333:40357   */\n      swap2\n      pop\n        /* \"#utility.yul\":40402:40404   */\n      0x20\n        /* \"#utility.yul\":40391:40400   */\n      dup6\n        /* \"#utility.yul\":40387:40405   */\n      add\n        /* \"#utility.yul\":40374:40405   */\n      swap5\n      pop\n        /* \"#utility.yul\":40248:40252   */\n      0x20\n        /* \"#utility.yul\":40245:40246   */\n      dup2\n        /* \"#utility.yul\":40241:40253   */\n      add\n        /* \"#utility.yul\":40236:40253   */\n      swap1\n      pop\n        /* \"#utility.yul\":40211:40419   */\n      jump(tag_988)\n    tag_990:\n        /* \"#utility.yul\":40447:40453   */\n      dup7\n        /* \"#utility.yul\":40438:40445   */\n      dup4\n        /* \"#utility.yul\":40435:40454   */\n      lt\n        /* \"#utility.yul\":40432:40611   */\n      iszero\n      tag_991\n      jumpi\n        /* \"#utility.yul\":40505:40514   */\n      dup5\n        /* \"#utility.yul\":40500:40503   */\n      dup10\n        /* \"#utility.yul\":40496:40515   */\n      add\n        /* \"#utility.yul\":40490:40516   */\n      mload\n        /* \"#utility.yul\":40548:40596   */\n      tag_992\n        /* \"#utility.yul\":40590:40594   */\n      0x1f\n        /* \"#utility.yul\":40582:40588   */\n      dup10\n        /* \"#utility.yul\":40578:40595   */\n      and\n        /* \"#utility.yul\":40567:40576   */\n      dup3\n        /* \"#utility.yul\":40548:40596   */\n      tag_610\n      jump\t// in\n    tag_992:\n        /* \"#utility.yul\":40540:40546   */\n      dup4\n        /* \"#utility.yul\":40533:40597   */\n      sstore\n        /* \"#utility.yul\":40455:40611   */\n      pop\n        /* \"#utility.yul\":40432:40611   */\n    tag_991:\n        /* \"#utility.yul\":40657:40658   */\n      0x01\n        /* \"#utility.yul\":40653:40654   */\n      0x02\n        /* \"#utility.yul\":40645:40651   */\n      dup9\n        /* \"#utility.yul\":40641:40655   */\n      mul\n        /* \"#utility.yul\":40637:40659   */\n      add\n        /* \"#utility.yul\":40631:40635   */\n      dup9\n        /* \"#utility.yul\":40624:40660   */\n      sstore\n        /* \"#utility.yul\":40059:40670   */\n      pop\n      pop\n      pop\n        /* \"#utility.yul\":40022:40909   */\n    tag_983:\n      pop\n        /* \"#utility.yul\":39612:40915   */\n      pop\n      pop\n      pop\n        /* \"#utility.yul\":39520:40915   */\n      pop\n      pop\n      jump\t// out\n        /* \"#utility.yul\":40921:41155   */\n    tag_612:\n        /* \"#utility.yul\":41061:41095   */\n      0x43616e6e6f742064656163746976617465207265717565737420616674657220\n        /* \"#utility.yul\":41057:41058   */\n      0x00\n        /* \"#utility.yul\":41049:41055   */\n      dup3\n        /* \"#utility.yul\":41045:41059   */\n      add\n        /* \"#utility.yul\":41038:41096   */\n      mstore\n        /* \"#utility.yul\":41130:41147   */\n      0x73656c6c65722061636365707465640000000000000000000000000000000000\n        /* \"#utility.yul\":41125:41127   */\n      0x20\n        /* \"#utility.yul\":41117:41123   */\n      dup3\n        /* \"#utility.yul\":41113:41128   */\n      add\n        /* \"#utility.yul\":41106:41148   */\n      mstore\n        /* \"#utility.yul\":40921:41155   */\n      pop\n      jump\t// out\n        /* \"#utility.yul\":41161:41527   */\n    tag_613:\n        /* \"#utility.yul\":41303:41306   */\n      0x00\n        /* \"#utility.yul\":41324:41391   */\n      tag_995\n        /* \"#utility.yul\":41388:41390   */\n      0x2f\n        /* \"#utility.yul\":41383:41386   */\n      dup4\n        /* \"#utility.yul\":41324:41391   */\n      tag_535\n      jump\t// in\n    tag_995:\n        /* \"#utility.yul\":41317:41391   */\n      swap2\n      pop\n        /* \"#utility.yul\":41400:41493   */\n      tag_996\n        /* \"#utility.yul\":41489:41492   */\n      dup3\n        /* \"#utility.yul\":41400:41493   */\n      tag_612\n      jump\t// in\n    tag_996:\n        /* \"#utility.yul\":41518:41520   */\n      0x40\n        /* \"#utility.yul\":41513:41516   */\n      dup3\n        /* \"#utility.yul\":41509:41521   */\n      add\n        /* \"#utility.yul\":41502:41521   */\n      swap1\n      pop\n        /* \"#utility.yul\":41161:41527   */\n      swap2\n      swap1\n      pop\n      jump\t// out\n        /* \"#utility.yul\":41533:41952   */\n    tag_470:\n        /* \"#utility.yul\":41699:41703   */\n      0x00\n        /* \"#utility.yul\":41737:41739   */\n      0x20\n        /* \"#utility.yul\":41726:41735   */\n      dup3\n        /* \"#utility.yul\":41722:41740   */\n      add\n        /* \"#utility.yul\":41714:41740   */\n      swap1\n      pop\n        /* \"#utility.yul\":41786:41795   */\n      dup2\n        /* \"#utility.yul\":41780:41784   */\n      dup2\n        /* \"#utility.yul\":41776:41796   */\n      sub\n        /* \"#utility.yul\":41772:41773   */\n      0x00\n        /* \"#utility.yul\":41761:41770   */\n      dup4\n        /* \"#utility.yul\":41757:41774   */\n      add\n        /* \"#utility.yul\":41750:41797   */\n      mstore\n        /* \"#utility.yul\":41814:41945   */\n      tag_998\n        /* \"#utility.yul\":41940:41944   */\n      dup2\n        /* \"#utility.yul\":41814:41945   */\n      tag_613\n      jump\t// in\n    tag_998:\n        /* \"#utility.yul\":41806:41945   */\n      swap1\n      pop\n        /* \"#utility.yul\":41533:41952   */\n      swap2\n      swap1\n      pop\n      jump\t// out\n        /* \"#utility.yul\":41958:42101   */\n    tag_614:\n        /* \"#utility.yul\":42015:42020   */\n      0x00\n        /* \"#utility.yul\":42046:42052   */\n      dup2\n        /* \"#utility.yul\":42040:42053   */\n      mload\n        /* \"#utility.yul\":42031:42053   */\n      swap1\n      pop\n        /* \"#utility.yul\":42062:42095   */\n      tag_1000\n        /* \"#utility.yul\":42089:42094   */\n      dup2\n        /* \"#utility.yul\":42062:42095   */\n      tag_531\n      jump\t// in\n    tag_1000:\n        /* \"#utility.yul\":41958:42101   */\n      swap3\n      swap2\n      pop\n      pop\n      jump\t// out\n        /* \"#utility.yul\":42107:42458   */\n    tag_483:\n        /* \"#utility.yul\":42177:42183   */\n      0x00\n        /* \"#utility.yul\":42226:42228   */\n      0x20\n        /* \"#utility.yul\":42214:42223   */\n      dup3\n        /* \"#utility.yul\":42205:42212   */\n      dup5\n        /* \"#utility.yul\":42201:42224   */\n      sub\n        /* \"#utility.yul\":42197:42229   */\n      slt\n        /* \"#utility.yul\":42194:42313   */\n      iszero\n      tag_1002\n      jumpi\n        /* \"#utility.yul\":42232:42311   */\n      tag_1003\n      tag_528\n      jump\t// in\n    tag_1003:\n        /* \"#utility.yul\":42194:42313   */\n    tag_1002:\n        /* \"#utility.yul\":42352:42353   */\n      0x00\n        /* \"#utility.yul\":42377:42441   */\n      tag_1004\n        /* \"#utility.yul\":42433:42440   */\n      dup5\n        /* \"#utility.yul\":42424:42430   */\n      dup3\n        /* \"#utility.yul\":42413:42422   */\n      dup6\n        /* \"#utility.yul\":42409:42431   */\n      add\n        /* \"#utility.yul\":42377:42441   */\n      tag_614\n      jump\t// in\n    tag_1004:\n        /* \"#utility.yul\":42367:42441   */\n      swap2\n      pop\n        /* \"#utility.yul\":42323:42451   */\n      pop\n        /* \"#utility.yul\":42107:42458   */\n      swap3\n      swap2\n      pop\n      pop\n      jump\t// out\n        /* \"#utility.yul\":42464:42689   */\n    tag_615:\n        /* \"#utility.yul\":42604:42638   */\n      0x4f776e61626c653a206e6577206f776e657220697320746865207a65726f2061\n        /* \"#utility.yul\":42600:42601   */\n      0x00\n        /* \"#utility.yul\":42592:42598   */\n      dup3\n        /* \"#utility.yul\":42588:42602   */\n      add\n        /* \"#utility.yul\":42581:42639   */\n      mstore\n        /* \"#utility.yul\":42673:42681   */\n      0x6464726573730000000000000000000000000000000000000000000000000000\n        /* \"#utility.yul\":42668:42670   */\n      0x20\n        /* \"#utility.yul\":42660:42666   */\n      dup3\n        /* \"#utility.yul\":42656:42671   */\n      add\n        /* \"#utility.yul\":42649:42682   */\n      mstore\n        /* \"#utility.yul\":42464:42689   */\n      pop\n      jump\t// out\n        /* \"#utility.yul\":42695:43061   */\n    tag_616:\n        /* \"#utility.yul\":42837:42840   */\n      0x00\n        /* \"#utility.yul\":42858:42925   */\n      tag_1007\n        /* \"#utility.yul\":42922:42924   */\n      0x26\n        /* \"#utility.yul\":42917:42920   */\n      dup4\n        /* \"#utility.yul\":42858:42925   */\n      tag_535\n      jump\t// in\n    tag_1007:\n        /* \"#utility.yul\":42851:42925   */\n      swap2\n      pop\n        /* \"#utility.yul\":42934:43027   */\n      tag_1008\n        /* \"#utility.yul\":43023:43026   */\n      dup3\n        /* \"#utility.yul\":42934:43027   */\n      tag_615\n      jump\t// in\n    tag_1008:\n        /* \"#utility.yul\":43052:43054   */\n      0x40\n        /* \"#utility.yul\":43047:43050   */\n      dup3\n        /* \"#utility.yul\":43043:43055   */\n      add\n        /* \"#utility.yul\":43036:43055   */\n      swap1\n      pop\n        /* \"#utility.yul\":42695:43061   */\n      swap2\n      swap1\n      pop\n      jump\t// out\n        /* \"#utility.yul\":43067:43486   */\n    tag_505:\n        /* \"#utility.yul\":43233:43237   */\n      0x00\n        /* \"#utility.yul\":43271:43273   */\n      0x20\n        /* \"#utility.yul\":43260:43269   */\n      dup3\n        /* \"#utility.yul\":43256:43274   */\n      add\n        /* \"#utility.yul\":43248:43274   */\n      swap1\n      pop\n        /* \"#utility.yul\":43320:43329   */\n      dup2\n        /* \"#utility.yul\":43314:43318   */\n      dup2\n        /* \"#utility.yul\":43310:43330   */\n      sub\n        /* \"#utility.yul\":43306:43307   */\n      0x00\n        /* \"#utility.yul\":43295:43304   */\n      dup4\n        /* \"#utility.yul\":43291:43308   */\n      add\n        /* \"#utility.yul\":43284:43331   */\n      mstore\n        /* \"#utility.yul\":43348:43479   */\n      tag_1010\n        /* \"#utility.yul\":43474:43478   */\n      dup2\n        /* \"#utility.yul\":43348:43479   */\n      tag_616\n      jump\t// in\n    tag_1010:\n        /* \"#utility.yul\":43340:43479   */\n      swap1\n      pop\n        /* \"#utility.yul\":43067:43486   */\n      swap2\n      swap1\n      pop\n      jump\t// out\n        /* \"#utility.yul\":43492:43674   */\n    tag_617:\n        /* \"#utility.yul\":43632:43666   */\n      0x4f776e61626c653a2063616c6c6572206973206e6f7420746865206f776e6572\n        /* \"#utility.yul\":43628:43629   */\n      0x00\n        /* \"#utility.yul\":43620:43626   */\n      dup3\n        /* \"#utility.yul\":43616:43630   */\n      add\n        /* \"#utility.yul\":43609:43667   */\n      mstore\n        /* \"#utility.yul\":43492:43674   */\n      pop\n      jump\t// out\n        /* \"#utility.yul\":43680:44046   */\n    tag_618:\n        /* \"#utility.yul\":43822:43825   */\n      0x00\n        /* \"#utility.yul\":43843:43910   */\n      tag_1013\n        /* \"#utility.yul\":43907:43909   */\n      0x20\n        /* \"#utility.yul\":43902:43905   */\n      dup4\n        /* \"#utility.yul\":43843:43910   */\n      tag_535\n      jump\t// in\n    tag_1013:\n        /* \"#utility.yul\":43836:43910   */\n      swap2\n      pop\n        /* \"#utility.yul\":43919:44012   */\n      tag_1014\n        /* \"#utility.yul\":44008:44011   */\n      dup3\n        /* \"#utility.yul\":43919:44012   */\n      tag_617\n      jump\t// in\n    tag_1014:\n        /* \"#utility.yul\":44037:44039   */\n      0x20\n        /* \"#utility.yul\":44032:44035   */\n      dup3\n        /* \"#utility.yul\":44028:44040   */\n      add\n        /* \"#utility.yul\":44021:44040   */\n      swap1\n      pop\n        /* \"#utility.yul\":43680:44046   */\n      swap2\n      swap1\n      pop\n      jump\t// out\n        /* \"#utility.yul\":44052:44471   */\n    tag_517:\n        /* \"#utility.yul\":44218:44222   */\n      0x00\n        /* \"#utility.yul\":44256:44258   */\n      0x20\n        /* \"#utility.yul\":44245:44254   */\n      dup3\n        /* \"#utility.yul\":44241:44259   */\n      add\n        /* \"#utility.yul\":44233:44259   */\n      swap1\n      pop\n        /* \"#utility.yul\":44305:44314   */\n      dup2\n        /* \"#utility.yul\":44299:44303   */\n      dup2\n        /* \"#utility.yul\":44295:44315   */\n      sub\n        /* \"#utility.yul\":44291:44292   */\n      0x00\n        /* \"#utility.yul\":44280:44289   */\n      dup4\n        /* \"#utility.yul\":44276:44293   */\n      add\n        /* \"#utility.yul\":44269:44316   */\n      mstore\n        /* \"#utility.yul\":44333:44464   */\n      tag_1016\n        /* \"#utility.yul\":44459:44463   */\n      dup2\n        /* \"#utility.yul\":44333:44464   */\n      tag_618\n      jump\t// in\n    tag_1016:\n        /* \"#utility.yul\":44325:44464   */\n      swap1\n      pop\n        /* \"#utility.yul\":44052:44471   */\n      swap2\n      swap1\n      pop\n      jump\t// out\n\n    auxdata: 0xa26469706673582212207c8b2e869449f8835678ba539d13dfc24dd0511cf8ff866f8d641dce5923642664736f6c63430008130033\n}\n",
				"bytecode": {
					"linkReferences": {},
					"object": "60806040526000600555600060065560006008553480156200002057600080fd5b5062000041620000356200004760201b60201c565b6200004f60201b60201c565b62000113565b600033905090565b60008060009054906101000a900473ffffffffffffffffffffffffffffffffffffffff169050816000806101000a81548173ffffffffffffffffffffffffffffffffffffffff021916908373ffffffffffffffffffffffffffffffffffffffff1602179055508173ffffffffffffffffffffffffffffffffffffffff168173ffffffffffffffffffffffffffffffffffffffff167f8be0079c531659141344cd1fd0a4f28419497f9722a3daafe3b4186f6b6457e060405160405180910390a35050565b614bbe80620001236000396000f3fe608060405234801561001057600080fd5b506004361061021c5760003560e01c806376e4309911610125578063c7f758a8116100ad578063da35c6641161007c578063da35c66414610674578063dbc718bd14610692578063e08169a5146106ae578063efa90d36146106ca578063f2fde38b146106e85761021c565b8063c7f758a8146105cf578063cf2b98a5146105ff578063d270e7ab1461061b578063d6930c34146106395761021c565b80639b644a23116100f45780639b644a2314610503578063a282ad6c14610533578063b7042e9314610563578063b860671814610581578063c08cc02d146105b15761021c565b806376e430991461048f5780638259d553146104ad5780638da5cb5b146104c95780638de7065c146104e75761021c565b806350c9457c116101a857806361ef719c1161017757806361ef719c146104115780636bff47e61461042d5780636c1aa16514610449578063715018a61461046757806371a1aea7146104715761021c565b806350c9457c14610364578063535e4bd61461039457806353b03389146103c45780635a91d0bb146103e05761021c565b8063306975a0116101ef578063306975a0146102b057806338f49c1f146102cc5780633b3f573a146102fc5780633ded33bc146103185780634a4e108b146103345761021c565b8063013cf08b1461022157806303f0610d1461025c578063100fe0ef146102785780632df15e0d14610294575b600080fd5b61023b60048036038101906102369190613543565b610704565b6040516102539c9b9a99989796959493929190613684565b60405180910390f35b6102766004803603810190610271919061377f565b610929565b005b610292600480360381019061028d91906137d2565b610a4a565b005b6102ae60048036038101906102a99190613851565b610c31565b005b6102ca60048036038101906102c5919061387e565b610c7d565b005b6102e660048036038101906102e19190613543565b610ecd565b6040516102f391906138be565b60405180910390f35b6103166004803603810190610311919061387e565b610ee5565b005b610332600480360381019061032d9190613851565b61101e565b005b61034e60048036038101906103499190613851565b61106a565b60405161035b9190613aac565b60405180910390f35b61037e60048036038101906103799190613543565b6113e8565b60405161038b91906138be565b60405180910390f35b6103ae60048036038101906103a99190613543565b61140c565b6040516103bb91906138be565b60405180910390f35b6103de60048036038101906103d9919061387e565b611429565b005b6103fa60048036038101906103f59190613ace565b6114fd565b604051610408929190613b0e565b60405180910390f35b61042b600480360381019061042691906137d2565b61153e565b005b61044760048036038101906104429190613543565b611709565b005b6104516119a7565b60405161045e91906138be565b60405180910390f35b61046f6119ad565b005b6104796119c1565b6040516104869190613be6565b60405180910390f35b610497611a19565b6040516104a491906138be565b60405180910390f35b6104c760048036038101906104c29190613543565b611a1f565b005b6104d1611d17565b6040516104de9190613c08565b60405180910390f35b61050160048036038101906104fc9190613d84565b611d40565b005b61051d60048036038101906105189190613543565b611f60565b60405161052a91906138be565b60405180910390f35b61054d60048036038101906105489190613543565b611f84565b60405161055a9190613aac565b60405180910390f35b61056b6122a4565b6040516105789190613f01565b60405180910390f35b61059b6004803603810190610596919061387e565b6122ca565b6040516105a89190614012565b60405180910390f35b6105b9612445565b6040516105c691906138be565b60405180910390f35b6105e960048036038101906105e49190613543565b61244f565b6040516105f69190614199565b60405180910390f35b610619600480360381019061061491906141bb565b6126ea565b005b610623612ab6565b6040516106309190613c08565b60405180910390f35b610653600480360381019061064e919061387e565b612adc565b60405161066b9c9b9a9998979695949392919061420e565b60405180910390f35b61067c612bc4565b60405161068991906138be565b60405180910390f35b6106ac60048036038101906106a7919061387e565b612bca565b005b6106c860048036038101906106c391906137d2565b612d13565b005b6106d261314a565b6040516106df9190613be6565b60405180910390f35b61070260048036038101906106fd9190613851565b6131a2565b005b600360205280600052604060002060009150905080600001549080600101549080600201549080600301549080600401805461073f906142f7565b80601f016020809104026020016040519081016040528092919081815260200182805461076b906142f7565b80156107b85780601f1061078d576101008083540402835291602001916107b8565b820191906000526020600020905b81548152906001019060200180831161079b57829003601f168201915b5050505050908060050154908060060180546107d3906142f7565b80601f01602080910402602001604051908101604052809291908181526020018280546107ff906142f7565b801561084c5780601f106108215761010080835404028352916020019161084c565b820191906000526020600020905b81548152906001019060200180831161082f57829003601f168201915b505050505090806007018054610861906142f7565b80601f016020809104026020016040519081016040528092919081815260200182805461088d906142f7565b80156108da5780601f106108af576101008083540402835291602001916108da565b820191906000526020600020905b8154815290600101906020018083116108bd57829003601f168201915b5050505050908060080160009054906101000a900460ff16908060080160019054906101000a900473ffffffffffffffffffffffffffffffffffffffff169080600901549080600a015490508c565b600160009054906101000a900473ffffffffffffffffffffffffffffffffffffffff1673ffffffffffffffffffffffffffffffffffffffff163373ffffffffffffffffffffffffffffffffffffffff16146109b9576040517f08c379a00000000000000000000000000000000000000000000000000000000081526004016109b090614374565b60405180910390fd5b8015610a0457600160096000858152602001908152602001600020600084815260200190815260200160002060040160176101000a81548160ff021916908315150217905550610a45565b600160096000858152602001908152602001600020600084815260200190815260200160002060040160186101000a81548160ff0219169083151502179055505b505050565b826003600082815260200190815260200160002060080160009054906101000a900460ff16610aae576040517f08c379a0000000000000000000000000000000000000000000000000000000008152600401610aa5906143e0565b60405180910390fd5b600160009054906101000a900473ffffffffffffffffffffffffffffffffffffffff1673ffffffffffffffffffffffffffffffffffffffff163373ffffffffffffffffffffffffffffffffffffffff1614610b3e576040517f08c379a0000000000000000000000000000000000000000000000000000000008152600401610b3590614374565b60405180910390fd5b610b8e60096000868152602001908152602001600020600085815260200190815260200160002060020154600360008781526020019081526020016000206000015461322590919063ffffffff16565b6003600086815260200190815260200160002060000181905550600160096000868152602001908152602001600020600085815260200190815260200160002060040160146101000a81548160ff021916908315150217905550610c1182600360008781526020019081526020016000206001015461323b90919063ffffffff16565b600360008681526020019081526020016000206001018190555050505050565b610c39613251565b80600260006101000a81548173ffffffffffffffffffffffffffffffffffffffff021916908373ffffffffffffffffffffffffffffffffffffffff16021790555050565b600160009054906101000a900473ffffffffffffffffffffffffffffffffffffffff1673ffffffffffffffffffffffffffffffffffffffff163373ffffffffffffffffffffffffffffffffffffffff1614610d0d576040517f08c379a0000000000000000000000000000000000000000000000000000000008152600401610d0490614374565b60405180910390fd5b60096000838152602001908152602001600020600082815260200190815260200160002060040160179054906101000a900460ff168015610d7f575060096000838152602001908152602001600020600082815260200190815260200160002060040160189054906101000a900460ff165b610dbe576040517f08c379a0000000000000000000000000000000000000000000000000000000008152600401610db590614498565b60405180910390fd5b6000600960008481526020019081526020016000206000838152602001908152602001600020600401601a6101000a81548160ff0219169083151502179055506000600960008481526020019081526020016000206000838152602001908152602001600020600201549050610e5381600360008681526020019081526020016000206001015461322590919063ffffffff16565b600360008581526020019081526020016000206001018190555080600360008581526020019081526020016000206000016000828254610e9391906144e7565b9250508190555081837f0e82efb8f71a93343b776a7f5af67a694c1d19c6004a7ad1dd4521b475d0f77860405160405180910390a3505050565b600b6020528060005260406000206000915090505481565b816003600082815260200190815260200160002060080160009054906101000a900460ff16610f49576040517f08c379a0000000000000000000000000000000000000000000000000000000008152600401610f40906143e0565b60405180910390fd5b600160009054906101000a900473ffffffffffffffffffffffffffffffffffffffff1673ffffffffffffffffffffffffffffffffffffffff163373ffffffffffffffffffffffffffffffffffffffff1614610fd9576040517f08c379a0000000000000000000000000000000000000000000000000000000008152600401610fd090614374565b60405180910390fd5b600160096000858152602001908152602001600020600084815260200190815260200160002060040160156101000a81548160ff021916908315150217905550505050565b611026613251565b80600160006101000a81548173ffffffffffffffffffffffffffffffffffffffff021916908373ffffffffffffffffffffffffffffffffffffffff16021790555050565b60606000600a60008473ffffffffffffffffffffffffffffffffffffffff1673ffffffffffffffffffffffffffffffffffffffff16815260200190815260200160002090506000818054905067ffffffffffffffff8111156110cf576110ce613c2d565b5b60405190808252806020026020018201604052801561110857816020015b6110f561339b565b8152602001906001900390816110ed5790505b5090506000805b838054905081101561132b576000600960008684815481106111345761113361451b565b5b906000526020600020906002020160000154815260200190815260200160002060008684815481106111695761116861451b565b5b9060005260206000209060020201600101548152602001908152602001600020905080600401601a9054906101000a900460ff1615611317578060405180610180016040529081600082015481526020016001820154815260200160028201548152602001600382015481526020016004820160009054906101000a900473ffffffffffffffffffffffffffffffffffffffff1673ffffffffffffffffffffffffffffffffffffffff1673ffffffffffffffffffffffffffffffffffffffff1681526020016004820160149054906101000a900460ff161515151581526020016004820160159054906101000a900460ff161515151581526020016004820160169054906101000a900460ff161515151581526020016004820160179054906101000a900460ff161515151581526020016004820160189054906101000a900460ff161515151581526020016004820160199054906101000a900460ff1615151515815260200160048201601a9054906101000a900460ff1615151515815250508484815181106112fd576112fc61451b565b5b602002602001018190525082806113139061454a565b9350505b5080806113239061454a565b91505061110f565b5060008167ffffffffffffffff81111561134857611347613c2d565b5b60405190808252806020026020018201604052801561138157816020015b61136e61339b565b8152602001906001900390816113665790505b50905060005b828110156113db578381815181106113a2576113a161451b565b5b60200260200101518282815181106113bd576113bc61451b565b5b602002602001018190525080806113d39061454a565b915050611387565b5080945050505050919050565b600781815481106113f857600080fd5b906000526020600020016000915090505481565b6000600b6000838152602001908152602001600020549050919050565b600160009054906101000a900473ffffffffffffffffffffffffffffffffffffffff1673ffffffffffffffffffffffffffffffffffffffff163373ffffffffffffffffffffffffffffffffffffffff16146114b9576040517f08c379a00000000000000000000000000000000000000000000000000000000081526004016114b090614374565b60405180910390fd5b600160096000848152602001908152602001600020600083815260200190815260200160002060040160196101000a81548160ff0219169083151502179055505050565b600a602052816000526040600020818154811061151957600080fd5b9060005260206000209060020201600091509150508060000154908060010154905082565b600160009054906101000a900473ffffffffffffffffffffffffffffffffffffffff1673ffffffffffffffffffffffffffffffffffffffff163373ffffffffffffffffffffffffffffffffffffffff16146115ce576040517f08c379a00000000000000000000000000000000000000000000000000000000081526004016115c590614374565b60405180910390fd5b8060036000600960008781526020019081526020016000206000868152602001908152602001600020600101548152602001908152602001600020600101600082825461161b9190614592565b9250508190555060006003600085815260200190815260200160002060000154036116c45760006003600085815260200190815260200160002060080160006101000a81548160ff021916908315150217905550600080600090505b6008548110156116c15784600782815481106116965761169561451b565b5b9060005260206000200154036116ae578091506116c1565b80806116b99061454a565b915050611677565b50505b6000600960008581526020019081526020016000206000848152602001908152602001600020600401601a6101000a81548160ff021916908315150217905550505050565b600160009054906101000a900473ffffffffffffffffffffffffffffffffffffffff1673ffffffffffffffffffffffffffffffffffffffff163373ffffffffffffffffffffffffffffffffffffffff1614611799576040517f08c379a000000000000000000000000000000000000000000000000000000000815260040161179090614374565b60405180910390fd5b60006001905060005b600b6000848152602001908152602001600020548110156118505760096000848152602001908152602001600020600082815260200190815260200160002060040160149054906101000a900460ff16801561182f5750600960008481526020019081526020016000206000828152602001908152602001600020600401601a9054906101000a900460ff165b1561183d5760009150611850565b80806118489061454a565b9150506117a2565b5080611891576040517f08c379a00000000000000000000000000000000000000000000000000000000081526004016118889061465e565b60405180910390fd5b60006003600084815260200190815260200160002060080160006101000a81548160ff021916908315150217905550600080600090505b6008548110156119125783600782815481106118e7576118e661451b565b5b9060005260206000200154036118ff57809150611912565b808061190a9061454a565b9150506118c8565b50600760016008546119249190614592565b815481106119355761193461451b565b5b9060005260206000200154600782815481106119545761195361451b565b5b906000526020600020018190555060078054806119745761197361467e565b5b600190038181906000526020600020016000905590556008600081548092919061199d906146ad565b9190505550505050565b60065481565b6119b5613251565b6119bf60006132cf565b565b60606007805480602002602001604051908101604052809291908181526020018280548015611a0f57602002820191906000526020600020905b8154815260200190600101908083116119fb575b5050505050905090565b60085481565b611a27613251565b6005548110611a6b576040517f08c379a0000000000000000000000000000000000000000000000000000000008152600401611a6290614722565b60405180910390fd5b6003600082815260200190815260200160002060080160009054906101000a900460ff1615611b7857600080600090505b600854811015611ae6578260078281548110611abb57611aba61451b565b5b906000526020600020015403611ad357809150611ae6565b8080611ade9061454a565b915050611a9c565b5060076001600854611af89190614592565b81548110611b0957611b0861451b565b5b906000526020600020015460078281548110611b2857611b2761451b565b5b90600052602060002001819055506007805480611b4857611b4761467e565b5b6001900381819060005260206000200160009055905560086000815480929190611b71906146ad565b9190505550505b60036000828152602001908152602001600020600080820160009055600182016000905560028201600090556003820160009055600482016000611bbc9190613420565b6005820160009055600682016000611bd49190613420565b600782016000611be49190613420565b6008820160006101000a81549060ff02191690556008820160016101000a81549073ffffffffffffffffffffffffffffffffffffffff02191690556009820160009055600a8201600090555050600080600090505b600554811015611c83578260048281548110611c5857611c5761451b565b5b906000526020600020015403611c7057809150611c83565b8080611c7b9061454a565b915050611c39565b5060046001600554611c959190614592565b81548110611ca657611ca561451b565b5b906000526020600020015460048281548110611cc557611cc461451b565b5b90600052602060002001819055506004805480611ce557611ce461467e565b5b6001900381819060005260206000200160009055905560056000815480929190611d0e906146ad565b91905055505050565b60008060009054906101000a900473ffffffffffffffffffffffffffffffffffffffff16905090565b6040518061018001604052808a8152602001600081526020018981526020014281526020018881526020018781526020018681526020018581526020016001151581526020018473ffffffffffffffffffffffffffffffffffffffff16815260200183815260200182815250600360006005548152602001908152602001600020600082015181600001556020820151816001015560408201518160020155606082015181600301556080820151816004019081611dfe91906148e4565b5060a0820151816005015560c0820151816006019081611e1e91906148e4565b5060e0820151816007019081611e3491906148e4565b506101008201518160080160006101000a81548160ff0219169083151502179055506101208201518160080160016101000a81548173ffffffffffffffffffffffffffffffffffffffff021916908373ffffffffffffffffffffffffffffffffffffffff160217905550610140820151816009015561016082015181600a0155905050600460065490806001815401808255809150506001900390600052602060002001600090919091909150556007600654908060018154018082558091505060019003906000526020600020016000909190919091505560086000815480929190611f209061454a565b919050555060056000815480929190611f389061454a565b919050555060066000815480929190611f509061454a565b9190505550505050505050505050565b60048181548110611f7057600080fd5b906000526020600020016000915090505481565b60606000600b600084815260200190815260200160002054905060008167ffffffffffffffff811115611fba57611fb9613c2d565b5b604051908082528060200260200182016040528015611ff357816020015b611fe061339b565b815260200190600190039081611fd85790505b5090506000805b838110156121e757600960008781526020019081526020016000206000828152602001908152602001600020600401601a9054906101000a900460ff16156121d45760096000878152602001908152602001600020600082815260200190815260200160002060405180610180016040529081600082015481526020016001820154815260200160028201548152602001600382015481526020016004820160009054906101000a900473ffffffffffffffffffffffffffffffffffffffff1673ffffffffffffffffffffffffffffffffffffffff1673ffffffffffffffffffffffffffffffffffffffff1681526020016004820160149054906101000a900460ff161515151581526020016004820160159054906101000a900460ff161515151581526020016004820160169054906101000a900460ff161515151581526020016004820160179054906101000a900460ff161515151581526020016004820160189054906101000a900460ff161515151581526020016004820160199054906101000a900460ff1615151515815260200160048201601a9054906101000a900460ff1615151515815250508383815181106121ba576121b961451b565b5b602002602001018190525081806121d09061454a565b9250505b80806121df9061454a565b915050611ffa565b5060008167ffffffffffffffff81111561220457612203613c2d565b5b60405190808252806020026020018201604052801561223d57816020015b61222a61339b565b8152602001906001900390816122225790505b50905060005b828110156122975783818151811061225e5761225d61451b565b5b60200260200101518282815181106122795761227861451b565b5b6020026020010181905250808061228f9061454a565b915050612243565b5080945050505050919050565b600260009054906101000a900473ffffffffffffffffffffffffffffffffffffffff1681565b6122d261339b565b60096000848152602001908152602001600020600083815260200190815260200160002060405180610180016040529081600082015481526020016001820154815260200160028201548152602001600382015481526020016004820160009054906101000a900473ffffffffffffffffffffffffffffffffffffffff1673ffffffffffffffffffffffffffffffffffffffff1673ffffffffffffffffffffffffffffffffffffffff1681526020016004820160149054906101000a900460ff161515151581526020016004820160159054906101000a900460ff161515151581526020016004820160169054906101000a900460ff161515151581526020016004820160179054906101000a900460ff161515151581526020016004820160189054906101000a900460ff161515151581526020016004820160199054906101000a900460ff1615151515815260200160048201601a9054906101000a900460ff161515151581525050905092915050565b6000600554905090565b612457613460565b6003600083815260200190815260200160002060405180610180016040529081600082015481526020016001820154815260200160028201548152602001600382015481526020016004820180546124ae906142f7565b80601f01602080910402602001604051908101604052809291908181526020018280546124da906142f7565b80156125275780601f106124fc57610100808354040283529160200191612527565b820191906000526020600020905b81548152906001019060200180831161250a57829003601f168201915b505050505081526020016005820154815260200160068201805461254a906142f7565b80601f0160208091040260200160405190810160405280929190818152602001828054612576906142f7565b80156125c35780601f10612598576101008083540402835291602001916125c3565b820191906000526020600020905b8154815290600101906020018083116125a657829003601f168201915b505050505081526020016007820180546125dc906142f7565b80601f0160208091040260200160405190810160405280929190818152602001828054612608906142f7565b80156126555780601f1061262a57610100808354040283529160200191612655565b820191906000526020600020905b81548152906001019060200180831161263857829003601f168201915b505050505081526020016008820160009054906101000a900460ff161515151581526020016008820160019054906101000a900473ffffffffffffffffffffffffffffffffffffffff1673ffffffffffffffffffffffffffffffffffffffff1673ffffffffffffffffffffffffffffffffffffffff16815260200160098201548152602001600a820154815250509050919050565b826003600082815260200190815260200160002060080160009054906101000a900460ff1661274e576040517f08c379a0000000000000000000000000000000000000000000000000000000008152600401612745906143e0565b60405180910390fd5b600160009054906101000a900473ffffffffffffffffffffffffffffffffffffffff1673ffffffffffffffffffffffffffffffffffffffff163373ffffffffffffffffffffffffffffffffffffffff16146127de576040517f08c379a00000000000000000000000000000000000000000000000000000000081526004016127d590614374565b60405180910390fd5b6000600b600086815260200190815260200160002054905060006040518061018001604052808381526020018781526020018681526020014281526020018573ffffffffffffffffffffffffffffffffffffffff168152602001600015158152602001600015158152602001600015158152602001600015158152602001600015158152602001600015158152602001600115158152509050806009600088815260200190815260200160002060008481526020019081526020016000206000820151816000015560208201518160010155604082015181600201556060820151816003015560808201518160040160006101000a81548173ffffffffffffffffffffffffffffffffffffffff021916908373ffffffffffffffffffffffffffffffffffffffff16021790555060a08201518160040160146101000a81548160ff02191690831515021790555060c08201518160040160156101000a81548160ff02191690831515021790555060e08201518160040160166101000a81548160ff0219169083151502179055506101008201518160040160176101000a81548160ff0219169083151502179055506101208201518160040160186101000a81548160ff0219169083151502179055506101408201518160040160196101000a81548160ff02191690831515021790555061016082015181600401601a6101000a81548160ff021916908315150217905550905050600a60008573ffffffffffffffffffffffffffffffffffffffff1673ffffffffffffffffffffffffffffffffffffffff168152602001908152602001600020604051806040016040528088815260200184815250908060018154018082558091505060019003906000526020600020906002020160009091909190915060008201518160000155602082015181600101555050600b60008781526020019081526020016000206000815480929190612aa99061454a565b9190505550505050505050565b600160009054906101000a900473ffffffffffffffffffffffffffffffffffffffff1681565b6009602052816000526040600020602052806000526040600020600091509150508060000154908060010154908060020154908060030154908060040160009054906101000a900473ffffffffffffffffffffffffffffffffffffffff16908060040160149054906101000a900460ff16908060040160159054906101000a900460ff16908060040160169054906101000a900460ff16908060040160179054906101000a900460ff16908060040160189054906101000a900460ff16908060040160199054906101000a900460ff169080600401601a9054906101000a900460ff1690508c565b60055481565b600160009054906101000a900473ffffffffffffffffffffffffffffffffffffffff1673ffffffffffffffffffffffffffffffffffffffff163373ffffffffffffffffffffffffffffffffffffffff1614612c5a576040517f08c379a0000000000000000000000000000000000000000000000000000000008152600401612c5190614374565b60405180910390fd5b60096000838152602001908152602001600020600082815260200190815260200160002060040160149054906101000a900460ff1615612ccf576040517f08c379a0000000000000000000000000000000000000000000000000000000008152600401612cc690614a28565b60405180910390fd5b6000600960008481526020019081526020016000206000838152602001908152602001600020600401601a6101000a81548160ff0219169083151502179055505050565b826003600082815260200190815260200160002060080160009054906101000a900460ff16612d77576040517f08c379a0000000000000000000000000000000000000000000000000000000008152600401612d6e906143e0565b60405180910390fd5b600160009054906101000a900473ffffffffffffffffffffffffffffffffffffffff1673ffffffffffffffffffffffffffffffffffffffff163373ffffffffffffffffffffffffffffffffffffffff1614612e07576040517f08c379a0000000000000000000000000000000000000000000000000000000008152600401612dfe90614374565b60405180910390fd5b600160096000868152602001908152602001600020600085815260200190815260200160002060040160166101000a81548160ff0219169083151502179055506000600960008681526020019081526020016000206000858152602001908152602001600020600401601a6101000a81548160ff021916908315150217905550612eb082600360008781526020019081526020016000206001015461322590919063ffffffff16565b6003600086815260200190815260200160002060010181905550600260009054906101000a900473ffffffffffffffffffffffffffffffffffffffff1673ffffffffffffffffffffffffffffffffffffffff1663bf03fccc6003600087815260200190815260200160002060080160019054906101000a900473ffffffffffffffffffffffffffffffffffffffff166040518263ffffffff1660e01b8152600401612f5b9190613c08565b602060405180830381865afa158015612f78573d6000803e3d6000fd5b505050506040513d601f19601f82011682018060405250810190612f9c9190614a5d565b6003600086815260200190815260200160002060090181905550600260009054906101000a900473ffffffffffffffffffffffffffffffffffffffff1673ffffffffffffffffffffffffffffffffffffffff166342a3a9ab6003600087815260200190815260200160002060080160019054906101000a900473ffffffffffffffffffffffffffffffffffffffff166040518263ffffffff1660e01b81526004016130479190613c08565b602060405180830381865afa158015613064573d6000803e3d6000fd5b505050506040513d601f19601f820116820180604052508101906130889190614a5d565b60036000868152602001908152602001600020600a018190555060006003600086815260200190815260200160002060000154036131445760006003600086815260200190815260200160002060080160006101000a81548160ff021916908315150217905550600080600090505b6008548110156131415785600782815481106131165761311561451b565b5b90600052602060002001540361312e57809150613141565b80806131399061454a565b9150506130f7565b50505b50505050565b6060600480548060200260200160405190810160405280929190818152602001828054801561319857602002820191906000526020600020905b815481526020019060010190808311613184575b5050505050905090565b6131aa613251565b600073ffffffffffffffffffffffffffffffffffffffff168173ffffffffffffffffffffffffffffffffffffffff1603613219576040517f08c379a000000000000000000000000000000000000000000000000000000000815260040161321090614afc565b60405180910390fd5b613222816132cf565b50565b600081836132339190614592565b905092915050565b6000818361324991906144e7565b905092915050565b613259613393565b73ffffffffffffffffffffffffffffffffffffffff16613277611d17565b73ffffffffffffffffffffffffffffffffffffffff16146132cd576040517f08c379a00000000000000000000000000000000000000000000000000000000081526004016132c490614b68565b60405180910390fd5b565b60008060009054906101000a900473ffffffffffffffffffffffffffffffffffffffff169050816000806101000a81548173ffffffffffffffffffffffffffffffffffffffff021916908373ffffffffffffffffffffffffffffffffffffffff1602179055508173ffffffffffffffffffffffffffffffffffffffff168173ffffffffffffffffffffffffffffffffffffffff167f8be0079c531659141344cd1fd0a4f28419497f9722a3daafe3b4186f6b6457e060405160405180910390a35050565b600033905090565b60405180610180016040528060008152602001600081526020016000815260200160008152602001600073ffffffffffffffffffffffffffffffffffffffff1681526020016000151581526020016000151581526020016000151581526020016000151581526020016000151581526020016000151581526020016000151581525090565b50805461342c906142f7565b6000825580601f1061343e575061345d565b601f01602090049060005260206000209081019061345c91906134dc565b5b50565b6040518061018001604052806000815260200160008152602001600081526020016000815260200160608152602001600080191681526020016060815260200160608152602001600015158152602001600073ffffffffffffffffffffffffffffffffffffffff16815260200160008152602001600081525090565b5b808211156134f55760008160009055506001016134dd565b5090565b6000604051905090565b600080fd5b600080fd5b6000819050919050565b6135208161350d565b811461352b57600080fd5b50565b60008135905061353d81613517565b92915050565b60006020828403121561355957613558613503565b5b60006135678482850161352e565b91505092915050565b6135798161350d565b82525050565b600081519050919050565b600082825260208201905092915050565b60005b838110156135b957808201518184015260208101905061359e565b60008484015250505050565b6000601f19601f8301169050919050565b60006135e18261357f565b6135eb818561358a565b93506135fb81856020860161359b565b613604816135c5565b840191505092915050565b6000819050919050565b6136228161360f565b82525050565b60008115159050919050565b61363d81613628565b82525050565b600073ffffffffffffffffffffffffffffffffffffffff82169050919050565b600061366e82613643565b9050919050565b61367e81613663565b82525050565b60006101808201905061369a600083018f613570565b6136a7602083018e613570565b6136b4604083018d613570565b6136c1606083018c613570565b81810360808301526136d3818b6135d6565b90506136e260a083018a613619565b81810360c08301526136f481896135d6565b905081810360e083015261370881886135d6565b9050613718610100830187613634565b613726610120830186613675565b613734610140830185613570565b613742610160830184613570565b9d9c50505050505050505050505050565b61375c81613628565b811461376757600080fd5b50565b60008135905061377981613753565b92915050565b60008060006060848603121561379857613797613503565b5b60006137a68682870161352e565b93505060206137b78682870161352e565b92505060406137c88682870161376a565b9150509250925092565b6000806000606084860312156137eb576137ea613503565b5b60006137f98682870161352e565b935050602061380a8682870161352e565b925050604061381b8682870161352e565b9150509250925092565b61382e81613663565b811461383957600080fd5b50565b60008135905061384b81613825565b92915050565b60006020828403121561386757613866613503565b5b60006138758482850161383c565b91505092915050565b6000806040838503121561389557613894613503565b5b60006138a38582860161352e565b92505060206138b48582860161352e565b9150509250929050565b60006020820190506138d36000830184613570565b92915050565b600081519050919050565b600082825260208201905092915050565b6000819050602082019050919050565b61390e8161350d565b82525050565b61391d81613663565b82525050565b61392c81613628565b82525050565b610180820160008201516139496000850182613905565b50602082015161395c6020850182613905565b50604082015161396f6040850182613905565b5060608201516139826060850182613905565b5060808201516139956080850182613914565b5060a08201516139a860a0850182613923565b5060c08201516139bb60c0850182613923565b5060e08201516139ce60e0850182613923565b506101008201516139e3610100850182613923565b506101208201516139f8610120850182613923565b50610140820151613a0d610140850182613923565b50610160820151613a22610160850182613923565b50505050565b6000613a348383613932565b6101808301905092915050565b6000602082019050919050565b6000613a59826138d9565b613a6381856138e4565b9350613a6e836138f5565b8060005b83811015613a9f578151613a868882613a28565b9750613a9183613a41565b925050600181019050613a72565b5085935050505092915050565b60006020820190508181036000830152613ac68184613a4e565b905092915050565b60008060408385031215613ae557613ae4613503565b5b6000613af38582860161383c565b9250506020613b048582860161352e565b9150509250929050565b6000604082019050613b236000830185613570565b613b306020830184613570565b9392505050565b600081519050919050565b600082825260208201905092915050565b6000819050602082019050919050565b6000613b6f8383613905565b60208301905092915050565b6000602082019050919050565b6000613b9382613b37565b613b9d8185613b42565b9350613ba883613b53565b8060005b83811015613bd9578151613bc08882613b63565b9750613bcb83613b7b565b925050600181019050613bac565b5085935050505092915050565b60006020820190508181036000830152613c008184613b88565b905092915050565b6000602082019050613c1d6000830184613675565b92915050565b600080fd5b600080fd5b7f4e487b7100000000000000000000000000000000000000000000000000000000600052604160045260246000fd5b613c65826135c5565b810181811067ffffffffffffffff82111715613c8457613c83613c2d565b5b80604052505050565b6000613c976134f9565b9050613ca38282613c5c565b919050565b600067ffffffffffffffff821115613cc357613cc2613c2d565b5b613ccc826135c5565b9050602081019050919050565b82818337600083830152505050565b6000613cfb613cf684613ca8565b613c8d565b905082815260208101848484011115613d1757613d16613c28565b5b613d22848285613cd9565b509392505050565b600082601f830112613d3f57613d3e613c23565b5b8135613d4f848260208601613ce8565b91505092915050565b613d618161360f565b8114613d6c57600080fd5b50565b600081359050613d7e81613d58565b92915050565b60008060008060008060008060006101208a8c031215613da757613da6613503565b5b6000613db58c828d0161352e565b9950506020613dc68c828d0161352e565b98505060408a013567ffffffffffffffff811115613de757613de6613508565b5b613df38c828d01613d2a565b9750506060613e048c828d01613d6f565b96505060808a013567ffffffffffffffff811115613e2557613e24613508565b5b613e318c828d01613d2a565b95505060a08a013567ffffffffffffffff811115613e5257613e51613508565b5b613e5e8c828d01613d2a565b94505060c0613e6f8c828d0161383c565b93505060e0613e808c828d0161352e565b925050610100613e928c828d0161352e565b9150509295985092959850929598565b6000819050919050565b6000613ec7613ec2613ebd84613643565b613ea2565b613643565b9050919050565b6000613ed982613eac565b9050919050565b6000613eeb82613ece565b9050919050565b613efb81613ee0565b82525050565b6000602082019050613f166000830184613ef2565b92915050565b61018082016000820151613f336000850182613905565b506020820151613f466020850182613905565b506040820151613f596040850182613905565b506060820151613f6c6060850182613905565b506080820151613f7f6080850182613914565b5060a0820151613f9260a0850182613923565b5060c0820151613fa560c0850182613923565b5060e0820151613fb860e0850182613923565b50610100820151613fcd610100850182613923565b50610120820151613fe2610120850182613923565b50610140820151613ff7610140850182613923565b5061016082015161400c610160850182613923565b50505050565b6000610180820190506140286000830184613f1c565b92915050565b600082825260208201905092915050565b600061404a8261357f565b614054818561402e565b935061406481856020860161359b565b61406d816135c5565b840191505092915050565b6140818161360f565b82525050565b6000610180830160008301516140a06000860182613905565b5060208301516140b36020860182613905565b5060408301516140c66040860182613905565b5060608301516140d96060860182613905565b50608083015184820360808601526140f1828261403f565b91505060a083015161410660a0860182614078565b5060c083015184820360c086015261411e828261403f565b91505060e083015184820360e0860152614138828261403f565b91505061010083015161414f610100860182613923565b50610120830151614164610120860182613914565b50610140830151614179610140860182613905565b5061016083015161418e610160860182613905565b508091505092915050565b600060208201905081810360008301526141b38184614087565b905092915050565b6000806000606084860312156141d4576141d3613503565b5b60006141e28682870161352e565b93505060206141f38682870161352e565b92505060406142048682870161383c565b9150509250925092565b600061018082019050614224600083018f613570565b614231602083018e613570565b61423e604083018d613570565b61424b606083018c613570565b614258608083018b613675565b61426560a083018a613634565b61427260c0830189613634565b61427f60e0830188613634565b61428d610100830187613634565b61429b610120830186613634565b6142a9610140830185613634565b6142b7610160830184613634565b9d9c50505050505050505050505050565b7f4e487b7100000000000000000000000000000000000000000000000000000000600052602260045260246000fd5b6000600282049050600182168061430f57607f821691505b602082108103614322576143216142c8565b5b50919050565b7f43616c6c6572206973206e6f7420746865206d61696e20636f6e747261637400600082015250565b600061435e601f8361358a565b915061436982614328565b602082019050919050565b6000602082019050818103600083015261438d81614351565b9050919050565b7f50726f706f73616c206973206e6f742061637469766500000000000000000000600082015250565b60006143ca60168361358a565b91506143d582614394565b602082019050919050565b600060208201905081810360008301526143f9816143bd565b9050919050565b7f426f74682c20427579657220616e642053656c6c65722073686f756c6420726560008201527f71756573742063616e63656c6c6174696f6e206f662074686973207472616e7360208201527f616374696f6e0000000000000000000000000000000000000000000000000000604082015250565b600061448260468361358a565b915061448d82614400565b606082019050919050565b600060208201905081810360008301526144b181614475565b9050919050565b7f4e487b7100000000000000000000000000000000000000000000000000000000600052601160045260246000fd5b60006144f28261350d565b91506144fd8361350d565b9250828201905080821115614515576145146144b8565b5b92915050565b7f4e487b7100000000000000000000000000000000000000000000000000000000600052603260045260246000fd5b60006145558261350d565b91507fffffffffffffffffffffffffffffffffffffffffffffffffffffffffffffffff8203614587576145866144b8565b5b600182019050919050565b600061459d8261350d565b91506145a88361350d565b92508282039050818111156145c0576145bf6144b8565b5b92915050565b7f43616e6e6f742064656c6574652070726f706f73616c2069662061206275796560008201527f72207265717565737420686173206265656e20616363657074656420616e642060208201527f69742773207374696c6c20616374697665000000000000000000000000000000604082015250565b600061464860518361358a565b9150614653826145c6565b606082019050919050565b600060208201905081810360008301526146778161463b565b9050919050565b7f4e487b7100000000000000000000000000000000000000000000000000000000600052603160045260246000fd5b60006146b88261350d565b9150600082036146cb576146ca6144b8565b5b600182039050919050565b7f50726f706f73616c20646f6573206e6f74206578697374000000000000000000600082015250565b600061470c60178361358a565b9150614717826146d6565b602082019050919050565b6000602082019050818103600083015261473b816146ff565b9050919050565b60008190508160005260206000209050919050565b60006020601f8301049050919050565b600082821b905092915050565b6000600883026147a47fffffffffffffffffffffffffffffffffffffffffffffffffffffffffffffffff82614767565b6147ae8683614767565b95508019841693508086168417925050509392505050565b60006147e16147dc6147d78461350d565b613ea2565b61350d565b9050919050565b6000819050919050565b6147fb836147c6565b61480f614807826147e8565b848454614774565b825550505050565b600090565b614824614817565b61482f8184846147f2565b505050565b5b818110156148535761484860008261481c565b600181019050614835565b5050565b601f8211156148985761486981614742565b61487284614757565b81016020851015614881578190505b61489561488d85614757565b830182614834565b50505b505050565b600082821c905092915050565b60006148bb6000198460080261489d565b1980831691505092915050565b60006148d483836148aa565b9150826002028217905092915050565b6148ed8261357f565b67ffffffffffffffff81111561490657614905613c2d565b5b61491082546142f7565b61491b828285614857565b600060209050601f83116001811461494e576000841561493c578287015190505b61494685826148c8565b8655506149ae565b601f19841661495c86614742565b60005b828110156149845784890151825560018201915060208501945060208101905061495f565b868310156149a1578489015161499d601f8916826148aa565b8355505b6001600288020188555050505b505050505050565b7f43616e6e6f74206465616374697661746520726571756573742061667465722060008201527f73656c6c65722061636365707465640000000000000000000000000000000000602082015250565b6000614a12602f8361358a565b9150614a1d826149b6565b604082019050919050565b60006020820190508181036000830152614a4181614a05565b9050919050565b600081519050614a5781613517565b92915050565b600060208284031215614a7357614a72613503565b5b6000614a8184828501614a48565b91505092915050565b7f4f776e61626c653a206e6577206f776e657220697320746865207a65726f206160008201527f6464726573730000000000000000000000000000000000000000000000000000602082015250565b6000614ae660268361358a565b9150614af182614a8a565b604082019050919050565b60006020820190508181036000830152614b1581614ad9565b9050919050565b7f4f776e61626c653a2063616c6c6572206973206e6f7420746865206f776e6572600082015250565b6000614b5260208361358a565b9150614b5d82614b1c565b602082019050919050565b60006020820190508181036000830152614b8181614b45565b905091905056fea26469706673582212207c8b2e869449f8835678ba539d13dfc24dd0511cf8ff866f8d641dce5923642664736f6c63430008130033",
					"opcodes": "PUSH1 0x80 PUSH1 0x40 MSTORE PUSH1 0x0 PUSH1 0x5 SSTORE PUSH1 0x0 PUSH1 0x6 SSTORE PUSH1 0x0 PUSH1 0x8 SSTORE CALLVALUE DUP1 ISZERO PUSH3 0x20 JUMPI PUSH1 0x0 DUP1 REVERT JUMPDEST POP PUSH3 0x41 PUSH3 0x35 PUSH3 0x47 PUSH1 0x20 SHL PUSH1 0x20 SHR JUMP JUMPDEST PUSH3 0x4F PUSH1 0x20 SHL PUSH1 0x20 SHR JUMP JUMPDEST PUSH3 0x113 JUMP JUMPDEST PUSH1 0x0 CALLER SWAP1 POP SWAP1 JUMP JUMPDEST PUSH1 0x0 DUP1 PUSH1 0x0 SWAP1 SLOAD SWAP1 PUSH2 0x100 EXP SWAP1 DIV PUSH20 0xFFFFFFFFFFFFFFFFFFFFFFFFFFFFFFFFFFFFFFFF AND SWAP1 POP DUP2 PUSH1 0x0 DUP1 PUSH2 0x100 EXP DUP2 SLOAD DUP2 PUSH20 0xFFFFFFFFFFFFFFFFFFFFFFFFFFFFFFFFFFFFFFFF MUL NOT AND SWAP1 DUP4 PUSH20 0xFFFFFFFFFFFFFFFFFFFFFFFFFFFFFFFFFFFFFFFF AND MUL OR SWAP1 SSTORE POP DUP2 PUSH20 0xFFFFFFFFFFFFFFFFFFFFFFFFFFFFFFFFFFFFFFFF AND DUP2 PUSH20 0xFFFFFFFFFFFFFFFFFFFFFFFFFFFFFFFFFFFFFFFF AND PUSH32 0x8BE0079C531659141344CD1FD0A4F28419497F9722A3DAAFE3B4186F6B6457E0 PUSH1 0x40 MLOAD PUSH1 0x40 MLOAD DUP1 SWAP2 SUB SWAP1 LOG3 POP POP JUMP JUMPDEST PUSH2 0x4BBE DUP1 PUSH3 0x123 PUSH1 0x0 CODECOPY PUSH1 0x0 RETURN INVALID PUSH1 0x80 PUSH1 0x40 MSTORE CALLVALUE DUP1 ISZERO PUSH2 0x10 JUMPI PUSH1 0x0 DUP1 REVERT JUMPDEST POP PUSH1 0x4 CALLDATASIZE LT PUSH2 0x21C JUMPI PUSH1 0x0 CALLDATALOAD PUSH1 0xE0 SHR DUP1 PUSH4 0x76E43099 GT PUSH2 0x125 JUMPI DUP1 PUSH4 0xC7F758A8 GT PUSH2 0xAD JUMPI DUP1 PUSH4 0xDA35C664 GT PUSH2 0x7C JUMPI DUP1 PUSH4 0xDA35C664 EQ PUSH2 0x674 JUMPI DUP1 PUSH4 0xDBC718BD EQ PUSH2 0x692 JUMPI DUP1 PUSH4 0xE08169A5 EQ PUSH2 0x6AE JUMPI DUP1 PUSH4 0xEFA90D36 EQ PUSH2 0x6CA JUMPI DUP1 PUSH4 0xF2FDE38B EQ PUSH2 0x6E8 JUMPI PUSH2 0x21C JUMP JUMPDEST DUP1 PUSH4 0xC7F758A8 EQ PUSH2 0x5CF JUMPI DUP1 PUSH4 0xCF2B98A5 EQ PUSH2 0x5FF JUMPI DUP1 PUSH4 0xD270E7AB EQ PUSH2 0x61B JUMPI DUP1 PUSH4 0xD6930C34 EQ PUSH2 0x639 JUMPI PUSH2 0x21C JUMP JUMPDEST DUP1 PUSH4 0x9B644A23 GT PUSH2 0xF4 JUMPI DUP1 PUSH4 0x9B644A23 EQ PUSH2 0x503 JUMPI DUP1 PUSH4 0xA282AD6C EQ PUSH2 0x533 JUMPI DUP1 PUSH4 0xB7042E93 EQ PUSH2 0x563 JUMPI DUP1 PUSH4 0xB8606718 EQ PUSH2 0x581 JUMPI DUP1 PUSH4 0xC08CC02D EQ PUSH2 0x5B1 JUMPI PUSH2 0x21C JUMP JUMPDEST DUP1 PUSH4 0x76E43099 EQ PUSH2 0x48F JUMPI DUP1 PUSH4 0x8259D553 EQ PUSH2 0x4AD JUMPI DUP1 PUSH4 0x8DA5CB5B EQ PUSH2 0x4C9 JUMPI DUP1 PUSH4 0x8DE7065C EQ PUSH2 0x4E7 JUMPI PUSH2 0x21C JUMP JUMPDEST DUP1 PUSH4 0x50C9457C GT PUSH2 0x1A8 JUMPI DUP1 PUSH4 0x61EF719C GT PUSH2 0x177 JUMPI DUP1 PUSH4 0x61EF719C EQ PUSH2 0x411 JUMPI DUP1 PUSH4 0x6BFF47E6 EQ PUSH2 0x42D JUMPI DUP1 PUSH4 0x6C1AA165 EQ PUSH2 0x449 JUMPI DUP1 PUSH4 0x715018A6 EQ PUSH2 0x467 JUMPI DUP1 PUSH4 0x71A1AEA7 EQ PUSH2 0x471 JUMPI PUSH2 0x21C JUMP JUMPDEST DUP1 PUSH4 0x50C9457C EQ PUSH2 0x364 JUMPI DUP1 PUSH4 0x535E4BD6 EQ PUSH2 0x394 JUMPI DUP1 PUSH4 0x53B03389 EQ PUSH2 0x3C4 JUMPI DUP1 PUSH4 0x5A91D0BB EQ PUSH2 0x3E0 JUMPI PUSH2 0x21C JUMP JUMPDEST DUP1 PUSH4 0x306975A0 GT PUSH2 0x1EF JUMPI DUP1 PUSH4 0x306975A0 EQ PUSH2 0x2B0 JUMPI DUP1 PUSH4 0x38F49C1F EQ PUSH2 0x2CC JUMPI DUP1 PUSH4 0x3B3F573A EQ PUSH2 0x2FC JUMPI DUP1 PUSH4 0x3DED33BC EQ PUSH2 0x318 JUMPI DUP1 PUSH4 0x4A4E108B EQ PUSH2 0x334 JUMPI PUSH2 0x21C JUMP JUMPDEST DUP1 PUSH4 0x13CF08B EQ PUSH2 0x221 JUMPI DUP1 PUSH4 0x3F0610D EQ PUSH2 0x25C JUMPI DUP1 PUSH4 0x100FE0EF EQ PUSH2 0x278 JUMPI DUP1 PUSH4 0x2DF15E0D EQ PUSH2 0x294 JUMPI JUMPDEST PUSH1 0x0 DUP1 REVERT JUMPDEST PUSH2 0x23B PUSH1 0x4 DUP1 CALLDATASIZE SUB DUP2 ADD SWAP1 PUSH2 0x236 SWAP2 SWAP1 PUSH2 0x3543 JUMP JUMPDEST PUSH2 0x704 JUMP JUMPDEST PUSH1 0x40 MLOAD PUSH2 0x253 SWAP13 SWAP12 SWAP11 SWAP10 SWAP9 SWAP8 SWAP7 SWAP6 SWAP5 SWAP4 SWAP3 SWAP2 SWAP1 PUSH2 0x3684 JUMP JUMPDEST PUSH1 0x40 MLOAD DUP1 SWAP2 SUB SWAP1 RETURN JUMPDEST PUSH2 0x276 PUSH1 0x4 DUP1 CALLDATASIZE SUB DUP2 ADD SWAP1 PUSH2 0x271 SWAP2 SWAP1 PUSH2 0x377F JUMP JUMPDEST PUSH2 0x929 JUMP JUMPDEST STOP JUMPDEST PUSH2 0x292 PUSH1 0x4 DUP1 CALLDATASIZE SUB DUP2 ADD SWAP1 PUSH2 0x28D SWAP2 SWAP1 PUSH2 0x37D2 JUMP JUMPDEST PUSH2 0xA4A JUMP JUMPDEST STOP JUMPDEST PUSH2 0x2AE PUSH1 0x4 DUP1 CALLDATASIZE SUB DUP2 ADD SWAP1 PUSH2 0x2A9 SWAP2 SWAP1 PUSH2 0x3851 JUMP JUMPDEST PUSH2 0xC31 JUMP JUMPDEST STOP JUMPDEST PUSH2 0x2CA PUSH1 0x4 DUP1 CALLDATASIZE SUB DUP2 ADD SWAP1 PUSH2 0x2C5 SWAP2 SWAP1 PUSH2 0x387E JUMP JUMPDEST PUSH2 0xC7D JUMP JUMPDEST STOP JUMPDEST PUSH2 0x2E6 PUSH1 0x4 DUP1 CALLDATASIZE SUB DUP2 ADD SWAP1 PUSH2 0x2E1 SWAP2 SWAP1 PUSH2 0x3543 JUMP JUMPDEST PUSH2 0xECD JUMP JUMPDEST PUSH1 0x40 MLOAD PUSH2 0x2F3 SWAP2 SWAP1 PUSH2 0x38BE JUMP JUMPDEST PUSH1 0x40 MLOAD DUP1 SWAP2 SUB SWAP1 RETURN JUMPDEST PUSH2 0x316 PUSH1 0x4 DUP1 CALLDATASIZE SUB DUP2 ADD SWAP1 PUSH2 0x311 SWAP2 SWAP1 PUSH2 0x387E JUMP JUMPDEST PUSH2 0xEE5 JUMP JUMPDEST STOP JUMPDEST PUSH2 0x332 PUSH1 0x4 DUP1 CALLDATASIZE SUB DUP2 ADD SWAP1 PUSH2 0x32D SWAP2 SWAP1 PUSH2 0x3851 JUMP JUMPDEST PUSH2 0x101E JUMP JUMPDEST STOP JUMPDEST PUSH2 0x34E PUSH1 0x4 DUP1 CALLDATASIZE SUB DUP2 ADD SWAP1 PUSH2 0x349 SWAP2 SWAP1 PUSH2 0x3851 JUMP JUMPDEST PUSH2 0x106A JUMP JUMPDEST PUSH1 0x40 MLOAD PUSH2 0x35B SWAP2 SWAP1 PUSH2 0x3AAC JUMP JUMPDEST PUSH1 0x40 MLOAD DUP1 SWAP2 SUB SWAP1 RETURN JUMPDEST PUSH2 0x37E PUSH1 0x4 DUP1 CALLDATASIZE SUB DUP2 ADD SWAP1 PUSH2 0x379 SWAP2 SWAP1 PUSH2 0x3543 JUMP JUMPDEST PUSH2 0x13E8 JUMP JUMPDEST PUSH1 0x40 MLOAD PUSH2 0x38B SWAP2 SWAP1 PUSH2 0x38BE JUMP JUMPDEST PUSH1 0x40 MLOAD DUP1 SWAP2 SUB SWAP1 RETURN JUMPDEST PUSH2 0x3AE PUSH1 0x4 DUP1 CALLDATASIZE SUB DUP2 ADD SWAP1 PUSH2 0x3A9 SWAP2 SWAP1 PUSH2 0x3543 JUMP JUMPDEST PUSH2 0x140C JUMP JUMPDEST PUSH1 0x40 MLOAD PUSH2 0x3BB SWAP2 SWAP1 PUSH2 0x38BE JUMP JUMPDEST PUSH1 0x40 MLOAD DUP1 SWAP2 SUB SWAP1 RETURN JUMPDEST PUSH2 0x3DE PUSH1 0x4 DUP1 CALLDATASIZE SUB DUP2 ADD SWAP1 PUSH2 0x3D9 SWAP2 SWAP1 PUSH2 0x387E JUMP JUMPDEST PUSH2 0x1429 JUMP JUMPDEST STOP JUMPDEST PUSH2 0x3FA PUSH1 0x4 DUP1 CALLDATASIZE SUB DUP2 ADD SWAP1 PUSH2 0x3F5 SWAP2 SWAP1 PUSH2 0x3ACE JUMP JUMPDEST PUSH2 0x14FD JUMP JUMPDEST PUSH1 0x40 MLOAD PUSH2 0x408 SWAP3 SWAP2 SWAP1 PUSH2 0x3B0E JUMP JUMPDEST PUSH1 0x40 MLOAD DUP1 SWAP2 SUB SWAP1 RETURN JUMPDEST PUSH2 0x42B PUSH1 0x4 DUP1 CALLDATASIZE SUB DUP2 ADD SWAP1 PUSH2 0x426 SWAP2 SWAP1 PUSH2 0x37D2 JUMP JUMPDEST PUSH2 0x153E JUMP JUMPDEST STOP JUMPDEST PUSH2 0x447 PUSH1 0x4 DUP1 CALLDATASIZE SUB DUP2 ADD SWAP1 PUSH2 0x442 SWAP2 SWAP1 PUSH2 0x3543 JUMP JUMPDEST PUSH2 0x1709 JUMP JUMPDEST STOP JUMPDEST PUSH2 0x451 PUSH2 0x19A7 JUMP JUMPDEST PUSH1 0x40 MLOAD PUSH2 0x45E SWAP2 SWAP1 PUSH2 0x38BE JUMP JUMPDEST PUSH1 0x40 MLOAD DUP1 SWAP2 SUB SWAP1 RETURN JUMPDEST PUSH2 0x46F PUSH2 0x19AD JUMP JUMPDEST STOP JUMPDEST PUSH2 0x479 PUSH2 0x19C1 JUMP JUMPDEST PUSH1 0x40 MLOAD PUSH2 0x486 SWAP2 SWAP1 PUSH2 0x3BE6 JUMP JUMPDEST PUSH1 0x40 MLOAD DUP1 SWAP2 SUB SWAP1 RETURN JUMPDEST PUSH2 0x497 PUSH2 0x1A19 JUMP JUMPDEST PUSH1 0x40 MLOAD PUSH2 0x4A4 SWAP2 SWAP1 PUSH2 0x38BE JUMP JUMPDEST PUSH1 0x40 MLOAD DUP1 SWAP2 SUB SWAP1 RETURN JUMPDEST PUSH2 0x4C7 PUSH1 0x4 DUP1 CALLDATASIZE SUB DUP2 ADD SWAP1 PUSH2 0x4C2 SWAP2 SWAP1 PUSH2 0x3543 JUMP JUMPDEST PUSH2 0x1A1F JUMP JUMPDEST STOP JUMPDEST PUSH2 0x4D1 PUSH2 0x1D17 JUMP JUMPDEST PUSH1 0x40 MLOAD PUSH2 0x4DE SWAP2 SWAP1 PUSH2 0x3C08 JUMP JUMPDEST PUSH1 0x40 MLOAD DUP1 SWAP2 SUB SWAP1 RETURN JUMPDEST PUSH2 0x501 PUSH1 0x4 DUP1 CALLDATASIZE SUB DUP2 ADD SWAP1 PUSH2 0x4FC SWAP2 SWAP1 PUSH2 0x3D84 JUMP JUMPDEST PUSH2 0x1D40 JUMP JUMPDEST STOP JUMPDEST PUSH2 0x51D PUSH1 0x4 DUP1 CALLDATASIZE SUB DUP2 ADD SWAP1 PUSH2 0x518 SWAP2 SWAP1 PUSH2 0x3543 JUMP JUMPDEST PUSH2 0x1F60 JUMP JUMPDEST PUSH1 0x40 MLOAD PUSH2 0x52A SWAP2 SWAP1 PUSH2 0x38BE JUMP JUMPDEST PUSH1 0x40 MLOAD DUP1 SWAP2 SUB SWAP1 RETURN JUMPDEST PUSH2 0x54D PUSH1 0x4 DUP1 CALLDATASIZE SUB DUP2 ADD SWAP1 PUSH2 0x548 SWAP2 SWAP1 PUSH2 0x3543 JUMP JUMPDEST PUSH2 0x1F84 JUMP JUMPDEST PUSH1 0x40 MLOAD PUSH2 0x55A SWAP2 SWAP1 PUSH2 0x3AAC JUMP JUMPDEST PUSH1 0x40 MLOAD DUP1 SWAP2 SUB SWAP1 RETURN JUMPDEST PUSH2 0x56B PUSH2 0x22A4 JUMP JUMPDEST PUSH1 0x40 MLOAD PUSH2 0x578 SWAP2 SWAP1 PUSH2 0x3F01 JUMP JUMPDEST PUSH1 0x40 MLOAD DUP1 SWAP2 SUB SWAP1 RETURN JUMPDEST PUSH2 0x59B PUSH1 0x4 DUP1 CALLDATASIZE SUB DUP2 ADD SWAP1 PUSH2 0x596 SWAP2 SWAP1 PUSH2 0x387E JUMP JUMPDEST PUSH2 0x22CA JUMP JUMPDEST PUSH1 0x40 MLOAD PUSH2 0x5A8 SWAP2 SWAP1 PUSH2 0x4012 JUMP JUMPDEST PUSH1 0x40 MLOAD DUP1 SWAP2 SUB SWAP1 RETURN JUMPDEST PUSH2 0x5B9 PUSH2 0x2445 JUMP JUMPDEST PUSH1 0x40 MLOAD PUSH2 0x5C6 SWAP2 SWAP1 PUSH2 0x38BE JUMP JUMPDEST PUSH1 0x40 MLOAD DUP1 SWAP2 SUB SWAP1 RETURN JUMPDEST PUSH2 0x5E9 PUSH1 0x4 DUP1 CALLDATASIZE SUB DUP2 ADD SWAP1 PUSH2 0x5E4 SWAP2 SWAP1 PUSH2 0x3543 JUMP JUMPDEST PUSH2 0x244F JUMP JUMPDEST PUSH1 0x40 MLOAD PUSH2 0x5F6 SWAP2 SWAP1 PUSH2 0x4199 JUMP JUMPDEST PUSH1 0x40 MLOAD DUP1 SWAP2 SUB SWAP1 RETURN JUMPDEST PUSH2 0x619 PUSH1 0x4 DUP1 CALLDATASIZE SUB DUP2 ADD SWAP1 PUSH2 0x614 SWAP2 SWAP1 PUSH2 0x41BB JUMP JUMPDEST PUSH2 0x26EA JUMP JUMPDEST STOP JUMPDEST PUSH2 0x623 PUSH2 0x2AB6 JUMP JUMPDEST PUSH1 0x40 MLOAD PUSH2 0x630 SWAP2 SWAP1 PUSH2 0x3C08 JUMP JUMPDEST PUSH1 0x40 MLOAD DUP1 SWAP2 SUB SWAP1 RETURN JUMPDEST PUSH2 0x653 PUSH1 0x4 DUP1 CALLDATASIZE SUB DUP2 ADD SWAP1 PUSH2 0x64E SWAP2 SWAP1 PUSH2 0x387E JUMP JUMPDEST PUSH2 0x2ADC JUMP JUMPDEST PUSH1 0x40 MLOAD PUSH2 0x66B SWAP13 SWAP12 SWAP11 SWAP10 SWAP9 SWAP8 SWAP7 SWAP6 SWAP5 SWAP4 SWAP3 SWAP2 SWAP1 PUSH2 0x420E JUMP JUMPDEST PUSH1 0x40 MLOAD DUP1 SWAP2 SUB SWAP1 RETURN JUMPDEST PUSH2 0x67C PUSH2 0x2BC4 JUMP JUMPDEST PUSH1 0x40 MLOAD PUSH2 0x689 SWAP2 SWAP1 PUSH2 0x38BE JUMP JUMPDEST PUSH1 0x40 MLOAD DUP1 SWAP2 SUB SWAP1 RETURN JUMPDEST PUSH2 0x6AC PUSH1 0x4 DUP1 CALLDATASIZE SUB DUP2 ADD SWAP1 PUSH2 0x6A7 SWAP2 SWAP1 PUSH2 0x387E JUMP JUMPDEST PUSH2 0x2BCA JUMP JUMPDEST STOP JUMPDEST PUSH2 0x6C8 PUSH1 0x4 DUP1 CALLDATASIZE SUB DUP2 ADD SWAP1 PUSH2 0x6C3 SWAP2 SWAP1 PUSH2 0x37D2 JUMP JUMPDEST PUSH2 0x2D13 JUMP JUMPDEST STOP JUMPDEST PUSH2 0x6D2 PUSH2 0x314A JUMP JUMPDEST PUSH1 0x40 MLOAD PUSH2 0x6DF SWAP2 SWAP1 PUSH2 0x3BE6 JUMP JUMPDEST PUSH1 0x40 MLOAD DUP1 SWAP2 SUB SWAP1 RETURN JUMPDEST PUSH2 0x702 PUSH1 0x4 DUP1 CALLDATASIZE SUB DUP2 ADD SWAP1 PUSH2 0x6FD SWAP2 SWAP1 PUSH2 0x3851 JUMP JUMPDEST PUSH2 0x31A2 JUMP JUMPDEST STOP JUMPDEST PUSH1 0x3 PUSH1 0x20 MSTORE DUP1 PUSH1 0x0 MSTORE PUSH1 0x40 PUSH1 0x0 KECCAK256 PUSH1 0x0 SWAP2 POP SWAP1 POP DUP1 PUSH1 0x0 ADD SLOAD SWAP1 DUP1 PUSH1 0x1 ADD SLOAD SWAP1 DUP1 PUSH1 0x2 ADD SLOAD SWAP1 DUP1 PUSH1 0x3 ADD SLOAD SWAP1 DUP1 PUSH1 0x4 ADD DUP1 SLOAD PUSH2 0x73F SWAP1 PUSH2 0x42F7 JUMP JUMPDEST DUP1 PUSH1 0x1F ADD PUSH1 0x20 DUP1 SWAP2 DIV MUL PUSH1 0x20 ADD PUSH1 0x40 MLOAD SWAP1 DUP2 ADD PUSH1 0x40 MSTORE DUP1 SWAP3 SWAP2 SWAP1 DUP2 DUP2 MSTORE PUSH1 0x20 ADD DUP3 DUP1 SLOAD PUSH2 0x76B SWAP1 PUSH2 0x42F7 JUMP JUMPDEST DUP1 ISZERO PUSH2 0x7B8 JUMPI DUP1 PUSH1 0x1F LT PUSH2 0x78D JUMPI PUSH2 0x100 DUP1 DUP4 SLOAD DIV MUL DUP4 MSTORE SWAP2 PUSH1 0x20 ADD SWAP2 PUSH2 0x7B8 JUMP JUMPDEST DUP3 ADD SWAP2 SWAP1 PUSH1 0x0 MSTORE PUSH1 0x20 PUSH1 0x0 KECCAK256 SWAP1 JUMPDEST DUP2 SLOAD DUP2 MSTORE SWAP1 PUSH1 0x1 ADD SWAP1 PUSH1 0x20 ADD DUP1 DUP4 GT PUSH2 0x79B JUMPI DUP3 SWAP1 SUB PUSH1 0x1F AND DUP3 ADD SWAP2 JUMPDEST POP POP POP POP POP SWAP1 DUP1 PUSH1 0x5 ADD SLOAD SWAP1 DUP1 PUSH1 0x6 ADD DUP1 SLOAD PUSH2 0x7D3 SWAP1 PUSH2 0x42F7 JUMP JUMPDEST DUP1 PUSH1 0x1F ADD PUSH1 0x20 DUP1 SWAP2 DIV MUL PUSH1 0x20 ADD PUSH1 0x40 MLOAD SWAP1 DUP2 ADD PUSH1 0x40 MSTORE DUP1 SWAP3 SWAP2 SWAP1 DUP2 DUP2 MSTORE PUSH1 0x20 ADD DUP3 DUP1 SLOAD PUSH2 0x7FF SWAP1 PUSH2 0x42F7 JUMP JUMPDEST DUP1 ISZERO PUSH2 0x84C JUMPI DUP1 PUSH1 0x1F LT PUSH2 0x821 JUMPI PUSH2 0x100 DUP1 DUP4 SLOAD DIV MUL DUP4 MSTORE SWAP2 PUSH1 0x20 ADD SWAP2 PUSH2 0x84C JUMP JUMPDEST DUP3 ADD SWAP2 SWAP1 PUSH1 0x0 MSTORE PUSH1 0x20 PUSH1 0x0 KECCAK256 SWAP1 JUMPDEST DUP2 SLOAD DUP2 MSTORE SWAP1 PUSH1 0x1 ADD SWAP1 PUSH1 0x20 ADD DUP1 DUP4 GT PUSH2 0x82F JUMPI DUP3 SWAP1 SUB PUSH1 0x1F AND DUP3 ADD SWAP2 JUMPDEST POP POP POP POP POP SWAP1 DUP1 PUSH1 0x7 ADD DUP1 SLOAD PUSH2 0x861 SWAP1 PUSH2 0x42F7 JUMP JUMPDEST DUP1 PUSH1 0x1F ADD PUSH1 0x20 DUP1 SWAP2 DIV MUL PUSH1 0x20 ADD PUSH1 0x40 MLOAD SWAP1 DUP2 ADD PUSH1 0x40 MSTORE DUP1 SWAP3 SWAP2 SWAP1 DUP2 DUP2 MSTORE PUSH1 0x20 ADD DUP3 DUP1 SLOAD PUSH2 0x88D SWAP1 PUSH2 0x42F7 JUMP JUMPDEST DUP1 ISZERO PUSH2 0x8DA JUMPI DUP1 PUSH1 0x1F LT PUSH2 0x8AF JUMPI PUSH2 0x100 DUP1 DUP4 SLOAD DIV MUL DUP4 MSTORE SWAP2 PUSH1 0x20 ADD SWAP2 PUSH2 0x8DA JUMP JUMPDEST DUP3 ADD SWAP2 SWAP1 PUSH1 0x0 MSTORE PUSH1 0x20 PUSH1 0x0 KECCAK256 SWAP1 JUMPDEST DUP2 SLOAD DUP2 MSTORE SWAP1 PUSH1 0x1 ADD SWAP1 PUSH1 0x20 ADD DUP1 DUP4 GT PUSH2 0x8BD JUMPI DUP3 SWAP1 SUB PUSH1 0x1F AND DUP3 ADD SWAP2 JUMPDEST POP POP POP POP POP SWAP1 DUP1 PUSH1 0x8 ADD PUSH1 0x0 SWAP1 SLOAD SWAP1 PUSH2 0x100 EXP SWAP1 DIV PUSH1 0xFF AND SWAP1 DUP1 PUSH1 0x8 ADD PUSH1 0x1 SWAP1 SLOAD SWAP1 PUSH2 0x100 EXP SWAP1 DIV PUSH20 0xFFFFFFFFFFFFFFFFFFFFFFFFFFFFFFFFFFFFFFFF AND SWAP1 DUP1 PUSH1 0x9 ADD SLOAD SWAP1 DUP1 PUSH1 0xA ADD SLOAD SWAP1 POP DUP13 JUMP JUMPDEST PUSH1 0x1 PUSH1 0x0 SWAP1 SLOAD SWAP1 PUSH2 0x100 EXP SWAP1 DIV PUSH20 0xFFFFFFFFFFFFFFFFFFFFFFFFFFFFFFFFFFFFFFFF AND PUSH20 0xFFFFFFFFFFFFFFFFFFFFFFFFFFFFFFFFFFFFFFFF AND CALLER PUSH20 0xFFFFFFFFFFFFFFFFFFFFFFFFFFFFFFFFFFFFFFFF AND EQ PUSH2 0x9B9 JUMPI PUSH1 0x40 MLOAD PUSH32 0x8C379A000000000000000000000000000000000000000000000000000000000 DUP2 MSTORE PUSH1 0x4 ADD PUSH2 0x9B0 SWAP1 PUSH2 0x4374 JUMP JUMPDEST PUSH1 0x40 MLOAD DUP1 SWAP2 SUB SWAP1 REVERT JUMPDEST DUP1 ISZERO PUSH2 0xA04 JUMPI PUSH1 0x1 PUSH1 0x9 PUSH1 0x0 DUP6 DUP2 MSTORE PUSH1 0x20 ADD SWAP1 DUP2 MSTORE PUSH1 0x20 ADD PUSH1 0x0 KECCAK256 PUSH1 0x0 DUP5 DUP2 MSTORE PUSH1 0x20 ADD SWAP1 DUP2 MSTORE PUSH1 0x20 ADD PUSH1 0x0 KECCAK256 PUSH1 0x4 ADD PUSH1 0x17 PUSH2 0x100 EXP DUP2 SLOAD DUP2 PUSH1 0xFF MUL NOT AND SWAP1 DUP4 ISZERO ISZERO MUL OR SWAP1 SSTORE POP PUSH2 0xA45 JUMP JUMPDEST PUSH1 0x1 PUSH1 0x9 PUSH1 0x0 DUP6 DUP2 MSTORE PUSH1 0x20 ADD SWAP1 DUP2 MSTORE PUSH1 0x20 ADD PUSH1 0x0 KECCAK256 PUSH1 0x0 DUP5 DUP2 MSTORE PUSH1 0x20 ADD SWAP1 DUP2 MSTORE PUSH1 0x20 ADD PUSH1 0x0 KECCAK256 PUSH1 0x4 ADD PUSH1 0x18 PUSH2 0x100 EXP DUP2 SLOAD DUP2 PUSH1 0xFF MUL NOT AND SWAP1 DUP4 ISZERO ISZERO MUL OR SWAP1 SSTORE POP JUMPDEST POP POP POP JUMP JUMPDEST DUP3 PUSH1 0x3 PUSH1 0x0 DUP3 DUP2 MSTORE PUSH1 0x20 ADD SWAP1 DUP2 MSTORE PUSH1 0x20 ADD PUSH1 0x0 KECCAK256 PUSH1 0x8 ADD PUSH1 0x0 SWAP1 SLOAD SWAP1 PUSH2 0x100 EXP SWAP1 DIV PUSH1 0xFF AND PUSH2 0xAAE JUMPI PUSH1 0x40 MLOAD PUSH32 0x8C379A000000000000000000000000000000000000000000000000000000000 DUP2 MSTORE PUSH1 0x4 ADD PUSH2 0xAA5 SWAP1 PUSH2 0x43E0 JUMP JUMPDEST PUSH1 0x40 MLOAD DUP1 SWAP2 SUB SWAP1 REVERT JUMPDEST PUSH1 0x1 PUSH1 0x0 SWAP1 SLOAD SWAP1 PUSH2 0x100 EXP SWAP1 DIV PUSH20 0xFFFFFFFFFFFFFFFFFFFFFFFFFFFFFFFFFFFFFFFF AND PUSH20 0xFFFFFFFFFFFFFFFFFFFFFFFFFFFFFFFFFFFFFFFF AND CALLER PUSH20 0xFFFFFFFFFFFFFFFFFFFFFFFFFFFFFFFFFFFFFFFF AND EQ PUSH2 0xB3E JUMPI PUSH1 0x40 MLOAD PUSH32 0x8C379A000000000000000000000000000000000000000000000000000000000 DUP2 MSTORE PUSH1 0x4 ADD PUSH2 0xB35 SWAP1 PUSH2 0x4374 JUMP JUMPDEST PUSH1 0x40 MLOAD DUP1 SWAP2 SUB SWAP1 REVERT JUMPDEST PUSH2 0xB8E PUSH1 0x9 PUSH1 0x0 DUP7 DUP2 MSTORE PUSH1 0x20 ADD SWAP1 DUP2 MSTORE PUSH1 0x20 ADD PUSH1 0x0 KECCAK256 PUSH1 0x0 DUP6 DUP2 MSTORE PUSH1 0x20 ADD SWAP1 DUP2 MSTORE PUSH1 0x20 ADD PUSH1 0x0 KECCAK256 PUSH1 0x2 ADD SLOAD PUSH1 0x3 PUSH1 0x0 DUP8 DUP2 MSTORE PUSH1 0x20 ADD SWAP1 DUP2 MSTORE PUSH1 0x20 ADD PUSH1 0x0 KECCAK256 PUSH1 0x0 ADD SLOAD PUSH2 0x3225 SWAP1 SWAP2 SWAP1 PUSH4 0xFFFFFFFF AND JUMP JUMPDEST PUSH1 0x3 PUSH1 0x0 DUP7 DUP2 MSTORE PUSH1 0x20 ADD SWAP1 DUP2 MSTORE PUSH1 0x20 ADD PUSH1 0x0 KECCAK256 PUSH1 0x0 ADD DUP2 SWAP1 SSTORE POP PUSH1 0x1 PUSH1 0x9 PUSH1 0x0 DUP7 DUP2 MSTORE PUSH1 0x20 ADD SWAP1 DUP2 MSTORE PUSH1 0x20 ADD PUSH1 0x0 KECCAK256 PUSH1 0x0 DUP6 DUP2 MSTORE PUSH1 0x20 ADD SWAP1 DUP2 MSTORE PUSH1 0x20 ADD PUSH1 0x0 KECCAK256 PUSH1 0x4 ADD PUSH1 0x14 PUSH2 0x100 EXP DUP2 SLOAD DUP2 PUSH1 0xFF MUL NOT AND SWAP1 DUP4 ISZERO ISZERO MUL OR SWAP1 SSTORE POP PUSH2 0xC11 DUP3 PUSH1 0x3 PUSH1 0x0 DUP8 DUP2 MSTORE PUSH1 0x20 ADD SWAP1 DUP2 MSTORE PUSH1 0x20 ADD PUSH1 0x0 KECCAK256 PUSH1 0x1 ADD SLOAD PUSH2 0x323B SWAP1 SWAP2 SWAP1 PUSH4 0xFFFFFFFF AND JUMP JUMPDEST PUSH1 0x3 PUSH1 0x0 DUP7 DUP2 MSTORE PUSH1 0x20 ADD SWAP1 DUP2 MSTORE PUSH1 0x20 ADD PUSH1 0x0 KECCAK256 PUSH1 0x1 ADD DUP2 SWAP1 SSTORE POP POP POP POP POP JUMP JUMPDEST PUSH2 0xC39 PUSH2 0x3251 JUMP JUMPDEST DUP1 PUSH1 0x2 PUSH1 0x0 PUSH2 0x100 EXP DUP2 SLOAD DUP2 PUSH20 0xFFFFFFFFFFFFFFFFFFFFFFFFFFFFFFFFFFFFFFFF MUL NOT AND SWAP1 DUP4 PUSH20 0xFFFFFFFFFFFFFFFFFFFFFFFFFFFFFFFFFFFFFFFF AND MUL OR SWAP1 SSTORE POP POP JUMP JUMPDEST PUSH1 0x1 PUSH1 0x0 SWAP1 SLOAD SWAP1 PUSH2 0x100 EXP SWAP1 DIV PUSH20 0xFFFFFFFFFFFFFFFFFFFFFFFFFFFFFFFFFFFFFFFF AND PUSH20 0xFFFFFFFFFFFFFFFFFFFFFFFFFFFFFFFFFFFFFFFF AND CALLER PUSH20 0xFFFFFFFFFFFFFFFFFFFFFFFFFFFFFFFFFFFFFFFF AND EQ PUSH2 0xD0D JUMPI PUSH1 0x40 MLOAD PUSH32 0x8C379A000000000000000000000000000000000000000000000000000000000 DUP2 MSTORE PUSH1 0x4 ADD PUSH2 0xD04 SWAP1 PUSH2 0x4374 JUMP JUMPDEST PUSH1 0x40 MLOAD DUP1 SWAP2 SUB SWAP1 REVERT JUMPDEST PUSH1 0x9 PUSH1 0x0 DUP4 DUP2 MSTORE PUSH1 0x20 ADD SWAP1 DUP2 MSTORE PUSH1 0x20 ADD PUSH1 0x0 KECCAK256 PUSH1 0x0 DUP3 DUP2 MSTORE PUSH1 0x20 ADD SWAP1 DUP2 MSTORE PUSH1 0x20 ADD PUSH1 0x0 KECCAK256 PUSH1 0x4 ADD PUSH1 0x17 SWAP1 SLOAD SWAP1 PUSH2 0x100 EXP SWAP1 DIV PUSH1 0xFF AND DUP1 ISZERO PUSH2 0xD7F JUMPI POP PUSH1 0x9 PUSH1 0x0 DUP4 DUP2 MSTORE PUSH1 0x20 ADD SWAP1 DUP2 MSTORE PUSH1 0x20 ADD PUSH1 0x0 KECCAK256 PUSH1 0x0 DUP3 DUP2 MSTORE PUSH1 0x20 ADD SWAP1 DUP2 MSTORE PUSH1 0x20 ADD PUSH1 0x0 KECCAK256 PUSH1 0x4 ADD PUSH1 0x18 SWAP1 SLOAD SWAP1 PUSH2 0x100 EXP SWAP1 DIV PUSH1 0xFF AND JUMPDEST PUSH2 0xDBE JUMPI PUSH1 0x40 MLOAD PUSH32 0x8C379A000000000000000000000000000000000000000000000000000000000 DUP2 MSTORE PUSH1 0x4 ADD PUSH2 0xDB5 SWAP1 PUSH2 0x4498 JUMP JUMPDEST PUSH1 0x40 MLOAD DUP1 SWAP2 SUB SWAP1 REVERT JUMPDEST PUSH1 0x0 PUSH1 0x9 PUSH1 0x0 DUP5 DUP2 MSTORE PUSH1 0x20 ADD SWAP1 DUP2 MSTORE PUSH1 0x20 ADD PUSH1 0x0 KECCAK256 PUSH1 0x0 DUP4 DUP2 MSTORE PUSH1 0x20 ADD SWAP1 DUP2 MSTORE PUSH1 0x20 ADD PUSH1 0x0 KECCAK256 PUSH1 0x4 ADD PUSH1 0x1A PUSH2 0x100 EXP DUP2 SLOAD DUP2 PUSH1 0xFF MUL NOT AND SWAP1 DUP4 ISZERO ISZERO MUL OR SWAP1 SSTORE POP PUSH1 0x0 PUSH1 0x9 PUSH1 0x0 DUP5 DUP2 MSTORE PUSH1 0x20 ADD SWAP1 DUP2 MSTORE PUSH1 0x20 ADD PUSH1 0x0 KECCAK256 PUSH1 0x0 DUP4 DUP2 MSTORE PUSH1 0x20 ADD SWAP1 DUP2 MSTORE PUSH1 0x20 ADD PUSH1 0x0 KECCAK256 PUSH1 0x2 ADD SLOAD SWAP1 POP PUSH2 0xE53 DUP2 PUSH1 0x3 PUSH1 0x0 DUP7 DUP2 MSTORE PUSH1 0x20 ADD SWAP1 DUP2 MSTORE PUSH1 0x20 ADD PUSH1 0x0 KECCAK256 PUSH1 0x1 ADD SLOAD PUSH2 0x3225 SWAP1 SWAP2 SWAP1 PUSH4 0xFFFFFFFF AND JUMP JUMPDEST PUSH1 0x3 PUSH1 0x0 DUP6 DUP2 MSTORE PUSH1 0x20 ADD SWAP1 DUP2 MSTORE PUSH1 0x20 ADD PUSH1 0x0 KECCAK256 PUSH1 0x1 ADD DUP2 SWAP1 SSTORE POP DUP1 PUSH1 0x3 PUSH1 0x0 DUP6 DUP2 MSTORE PUSH1 0x20 ADD SWAP1 DUP2 MSTORE PUSH1 0x20 ADD PUSH1 0x0 KECCAK256 PUSH1 0x0 ADD PUSH1 0x0 DUP3 DUP3 SLOAD PUSH2 0xE93 SWAP2 SWAP1 PUSH2 0x44E7 JUMP JUMPDEST SWAP3 POP POP DUP2 SWAP1 SSTORE POP DUP2 DUP4 PUSH32 0xE82EFB8F71A93343B776A7F5AF67A694C1D19C6004A7AD1DD4521B475D0F778 PUSH1 0x40 MLOAD PUSH1 0x40 MLOAD DUP1 SWAP2 SUB SWAP1 LOG3 POP POP POP JUMP JUMPDEST PUSH1 0xB PUSH1 0x20 MSTORE DUP1 PUSH1 0x0 MSTORE PUSH1 0x40 PUSH1 0x0 KECCAK256 PUSH1 0x0 SWAP2 POP SWAP1 POP SLOAD DUP2 JUMP JUMPDEST DUP2 PUSH1 0x3 PUSH1 0x0 DUP3 DUP2 MSTORE PUSH1 0x20 ADD SWAP1 DUP2 MSTORE PUSH1 0x20 ADD PUSH1 0x0 KECCAK256 PUSH1 0x8 ADD PUSH1 0x0 SWAP1 SLOAD SWAP1 PUSH2 0x100 EXP SWAP1 DIV PUSH1 0xFF AND PUSH2 0xF49 JUMPI PUSH1 0x40 MLOAD PUSH32 0x8C379A000000000000000000000000000000000000000000000000000000000 DUP2 MSTORE PUSH1 0x4 ADD PUSH2 0xF40 SWAP1 PUSH2 0x43E0 JUMP JUMPDEST PUSH1 0x40 MLOAD DUP1 SWAP2 SUB SWAP1 REVERT JUMPDEST PUSH1 0x1 PUSH1 0x0 SWAP1 SLOAD SWAP1 PUSH2 0x100 EXP SWAP1 DIV PUSH20 0xFFFFFFFFFFFFFFFFFFFFFFFFFFFFFFFFFFFFFFFF AND PUSH20 0xFFFFFFFFFFFFFFFFFFFFFFFFFFFFFFFFFFFFFFFF AND CALLER PUSH20 0xFFFFFFFFFFFFFFFFFFFFFFFFFFFFFFFFFFFFFFFF AND EQ PUSH2 0xFD9 JUMPI PUSH1 0x40 MLOAD PUSH32 0x8C379A000000000000000000000000000000000000000000000000000000000 DUP2 MSTORE PUSH1 0x4 ADD PUSH2 0xFD0 SWAP1 PUSH2 0x4374 JUMP JUMPDEST PUSH1 0x40 MLOAD DUP1 SWAP2 SUB SWAP1 REVERT JUMPDEST PUSH1 0x1 PUSH1 0x9 PUSH1 0x0 DUP6 DUP2 MSTORE PUSH1 0x20 ADD SWAP1 DUP2 MSTORE PUSH1 0x20 ADD PUSH1 0x0 KECCAK256 PUSH1 0x0 DUP5 DUP2 MSTORE PUSH1 0x20 ADD SWAP1 DUP2 MSTORE PUSH1 0x20 ADD PUSH1 0x0 KECCAK256 PUSH1 0x4 ADD PUSH1 0x15 PUSH2 0x100 EXP DUP2 SLOAD DUP2 PUSH1 0xFF MUL NOT AND SWAP1 DUP4 ISZERO ISZERO MUL OR SWAP1 SSTORE POP POP POP POP JUMP JUMPDEST PUSH2 0x1026 PUSH2 0x3251 JUMP JUMPDEST DUP1 PUSH1 0x1 PUSH1 0x0 PUSH2 0x100 EXP DUP2 SLOAD DUP2 PUSH20 0xFFFFFFFFFFFFFFFFFFFFFFFFFFFFFFFFFFFFFFFF MUL NOT AND SWAP1 DUP4 PUSH20 0xFFFFFFFFFFFFFFFFFFFFFFFFFFFFFFFFFFFFFFFF AND MUL OR SWAP1 SSTORE POP POP JUMP JUMPDEST PUSH1 0x60 PUSH1 0x0 PUSH1 0xA PUSH1 0x0 DUP5 PUSH20 0xFFFFFFFFFFFFFFFFFFFFFFFFFFFFFFFFFFFFFFFF AND PUSH20 0xFFFFFFFFFFFFFFFFFFFFFFFFFFFFFFFFFFFFFFFF AND DUP2 MSTORE PUSH1 0x20 ADD SWAP1 DUP2 MSTORE PUSH1 0x20 ADD PUSH1 0x0 KECCAK256 SWAP1 POP PUSH1 0x0 DUP2 DUP1 SLOAD SWAP1 POP PUSH8 0xFFFFFFFFFFFFFFFF DUP2 GT ISZERO PUSH2 0x10CF JUMPI PUSH2 0x10CE PUSH2 0x3C2D JUMP JUMPDEST JUMPDEST PUSH1 0x40 MLOAD SWAP1 DUP1 DUP3 MSTORE DUP1 PUSH1 0x20 MUL PUSH1 0x20 ADD DUP3 ADD PUSH1 0x40 MSTORE DUP1 ISZERO PUSH2 0x1108 JUMPI DUP2 PUSH1 0x20 ADD JUMPDEST PUSH2 0x10F5 PUSH2 0x339B JUMP JUMPDEST DUP2 MSTORE PUSH1 0x20 ADD SWAP1 PUSH1 0x1 SWAP1 SUB SWAP1 DUP2 PUSH2 0x10ED JUMPI SWAP1 POP JUMPDEST POP SWAP1 POP PUSH1 0x0 DUP1 JUMPDEST DUP4 DUP1 SLOAD SWAP1 POP DUP2 LT ISZERO PUSH2 0x132B JUMPI PUSH1 0x0 PUSH1 0x9 PUSH1 0x0 DUP7 DUP5 DUP2 SLOAD DUP2 LT PUSH2 0x1134 JUMPI PUSH2 0x1133 PUSH2 0x451B JUMP JUMPDEST JUMPDEST SWAP1 PUSH1 0x0 MSTORE PUSH1 0x20 PUSH1 0x0 KECCAK256 SWAP1 PUSH1 0x2 MUL ADD PUSH1 0x0 ADD SLOAD DUP2 MSTORE PUSH1 0x20 ADD SWAP1 DUP2 MSTORE PUSH1 0x20 ADD PUSH1 0x0 KECCAK256 PUSH1 0x0 DUP7 DUP5 DUP2 SLOAD DUP2 LT PUSH2 0x1169 JUMPI PUSH2 0x1168 PUSH2 0x451B JUMP JUMPDEST JUMPDEST SWAP1 PUSH1 0x0 MSTORE PUSH1 0x20 PUSH1 0x0 KECCAK256 SWAP1 PUSH1 0x2 MUL ADD PUSH1 0x1 ADD SLOAD DUP2 MSTORE PUSH1 0x20 ADD SWAP1 DUP2 MSTORE PUSH1 0x20 ADD PUSH1 0x0 KECCAK256 SWAP1 POP DUP1 PUSH1 0x4 ADD PUSH1 0x1A SWAP1 SLOAD SWAP1 PUSH2 0x100 EXP SWAP1 DIV PUSH1 0xFF AND ISZERO PUSH2 0x1317 JUMPI DUP1 PUSH1 0x40 MLOAD DUP1 PUSH2 0x180 ADD PUSH1 0x40 MSTORE SWAP1 DUP2 PUSH1 0x0 DUP3 ADD SLOAD DUP2 MSTORE PUSH1 0x20 ADD PUSH1 0x1 DUP3 ADD SLOAD DUP2 MSTORE PUSH1 0x20 ADD PUSH1 0x2 DUP3 ADD SLOAD DUP2 MSTORE PUSH1 0x20 ADD PUSH1 0x3 DUP3 ADD SLOAD DUP2 MSTORE PUSH1 0x20 ADD PUSH1 0x4 DUP3 ADD PUSH1 0x0 SWAP1 SLOAD SWAP1 PUSH2 0x100 EXP SWAP1 DIV PUSH20 0xFFFFFFFFFFFFFFFFFFFFFFFFFFFFFFFFFFFFFFFF AND PUSH20 0xFFFFFFFFFFFFFFFFFFFFFFFFFFFFFFFFFFFFFFFF AND PUSH20 0xFFFFFFFFFFFFFFFFFFFFFFFFFFFFFFFFFFFFFFFF AND DUP2 MSTORE PUSH1 0x20 ADD PUSH1 0x4 DUP3 ADD PUSH1 0x14 SWAP1 SLOAD SWAP1 PUSH2 0x100 EXP SWAP1 DIV PUSH1 0xFF AND ISZERO ISZERO ISZERO ISZERO DUP2 MSTORE PUSH1 0x20 ADD PUSH1 0x4 DUP3 ADD PUSH1 0x15 SWAP1 SLOAD SWAP1 PUSH2 0x100 EXP SWAP1 DIV PUSH1 0xFF AND ISZERO ISZERO ISZERO ISZERO DUP2 MSTORE PUSH1 0x20 ADD PUSH1 0x4 DUP3 ADD PUSH1 0x16 SWAP1 SLOAD SWAP1 PUSH2 0x100 EXP SWAP1 DIV PUSH1 0xFF AND ISZERO ISZERO ISZERO ISZERO DUP2 MSTORE PUSH1 0x20 ADD PUSH1 0x4 DUP3 ADD PUSH1 0x17 SWAP1 SLOAD SWAP1 PUSH2 0x100 EXP SWAP1 DIV PUSH1 0xFF AND ISZERO ISZERO ISZERO ISZERO DUP2 MSTORE PUSH1 0x20 ADD PUSH1 0x4 DUP3 ADD PUSH1 0x18 SWAP1 SLOAD SWAP1 PUSH2 0x100 EXP SWAP1 DIV PUSH1 0xFF AND ISZERO ISZERO ISZERO ISZERO DUP2 MSTORE PUSH1 0x20 ADD PUSH1 0x4 DUP3 ADD PUSH1 0x19 SWAP1 SLOAD SWAP1 PUSH2 0x100 EXP SWAP1 DIV PUSH1 0xFF AND ISZERO ISZERO ISZERO ISZERO DUP2 MSTORE PUSH1 0x20 ADD PUSH1 0x4 DUP3 ADD PUSH1 0x1A SWAP1 SLOAD SWAP1 PUSH2 0x100 EXP SWAP1 DIV PUSH1 0xFF AND ISZERO ISZERO ISZERO ISZERO DUP2 MSTORE POP POP DUP5 DUP5 DUP2 MLOAD DUP2 LT PUSH2 0x12FD JUMPI PUSH2 0x12FC PUSH2 0x451B JUMP JUMPDEST JUMPDEST PUSH1 0x20 MUL PUSH1 0x20 ADD ADD DUP2 SWAP1 MSTORE POP DUP3 DUP1 PUSH2 0x1313 SWAP1 PUSH2 0x454A JUMP JUMPDEST SWAP4 POP POP JUMPDEST POP DUP1 DUP1 PUSH2 0x1323 SWAP1 PUSH2 0x454A JUMP JUMPDEST SWAP2 POP POP PUSH2 0x110F JUMP JUMPDEST POP PUSH1 0x0 DUP2 PUSH8 0xFFFFFFFFFFFFFFFF DUP2 GT ISZERO PUSH2 0x1348 JUMPI PUSH2 0x1347 PUSH2 0x3C2D JUMP JUMPDEST JUMPDEST PUSH1 0x40 MLOAD SWAP1 DUP1 DUP3 MSTORE DUP1 PUSH1 0x20 MUL PUSH1 0x20 ADD DUP3 ADD PUSH1 0x40 MSTORE DUP1 ISZERO PUSH2 0x1381 JUMPI DUP2 PUSH1 0x20 ADD JUMPDEST PUSH2 0x136E PUSH2 0x339B JUMP JUMPDEST DUP2 MSTORE PUSH1 0x20 ADD SWAP1 PUSH1 0x1 SWAP1 SUB SWAP1 DUP2 PUSH2 0x1366 JUMPI SWAP1 POP JUMPDEST POP SWAP1 POP PUSH1 0x0 JUMPDEST DUP3 DUP2 LT ISZERO PUSH2 0x13DB JUMPI DUP4 DUP2 DUP2 MLOAD DUP2 LT PUSH2 0x13A2 JUMPI PUSH2 0x13A1 PUSH2 0x451B JUMP JUMPDEST JUMPDEST PUSH1 0x20 MUL PUSH1 0x20 ADD ADD MLOAD DUP3 DUP3 DUP2 MLOAD DUP2 LT PUSH2 0x13BD JUMPI PUSH2 0x13BC PUSH2 0x451B JUMP JUMPDEST JUMPDEST PUSH1 0x20 MUL PUSH1 0x20 ADD ADD DUP2 SWAP1 MSTORE POP DUP1 DUP1 PUSH2 0x13D3 SWAP1 PUSH2 0x454A JUMP JUMPDEST SWAP2 POP POP PUSH2 0x1387 JUMP JUMPDEST POP DUP1 SWAP5 POP POP POP POP POP SWAP2 SWAP1 POP JUMP JUMPDEST PUSH1 0x7 DUP2 DUP2 SLOAD DUP2 LT PUSH2 0x13F8 JUMPI PUSH1 0x0 DUP1 REVERT JUMPDEST SWAP1 PUSH1 0x0 MSTORE PUSH1 0x20 PUSH1 0x0 KECCAK256 ADD PUSH1 0x0 SWAP2 POP SWAP1 POP SLOAD DUP2 JUMP JUMPDEST PUSH1 0x0 PUSH1 0xB PUSH1 0x0 DUP4 DUP2 MSTORE PUSH1 0x20 ADD SWAP1 DUP2 MSTORE PUSH1 0x20 ADD PUSH1 0x0 KECCAK256 SLOAD SWAP1 POP SWAP2 SWAP1 POP JUMP JUMPDEST PUSH1 0x1 PUSH1 0x0 SWAP1 SLOAD SWAP1 PUSH2 0x100 EXP SWAP1 DIV PUSH20 0xFFFFFFFFFFFFFFFFFFFFFFFFFFFFFFFFFFFFFFFF AND PUSH20 0xFFFFFFFFFFFFFFFFFFFFFFFFFFFFFFFFFFFFFFFF AND CALLER PUSH20 0xFFFFFFFFFFFFFFFFFFFFFFFFFFFFFFFFFFFFFFFF AND EQ PUSH2 0x14B9 JUMPI PUSH1 0x40 MLOAD PUSH32 0x8C379A000000000000000000000000000000000000000000000000000000000 DUP2 MSTORE PUSH1 0x4 ADD PUSH2 0x14B0 SWAP1 PUSH2 0x4374 JUMP JUMPDEST PUSH1 0x40 MLOAD DUP1 SWAP2 SUB SWAP1 REVERT JUMPDEST PUSH1 0x1 PUSH1 0x9 PUSH1 0x0 DUP5 DUP2 MSTORE PUSH1 0x20 ADD SWAP1 DUP2 MSTORE PUSH1 0x20 ADD PUSH1 0x0 KECCAK256 PUSH1 0x0 DUP4 DUP2 MSTORE PUSH1 0x20 ADD SWAP1 DUP2 MSTORE PUSH1 0x20 ADD PUSH1 0x0 KECCAK256 PUSH1 0x4 ADD PUSH1 0x19 PUSH2 0x100 EXP DUP2 SLOAD DUP2 PUSH1 0xFF MUL NOT AND SWAP1 DUP4 ISZERO ISZERO MUL OR SWAP1 SSTORE POP POP POP JUMP JUMPDEST PUSH1 0xA PUSH1 0x20 MSTORE DUP2 PUSH1 0x0 MSTORE PUSH1 0x40 PUSH1 0x0 KECCAK256 DUP2 DUP2 SLOAD DUP2 LT PUSH2 0x1519 JUMPI PUSH1 0x0 DUP1 REVERT JUMPDEST SWAP1 PUSH1 0x0 MSTORE PUSH1 0x20 PUSH1 0x0 KECCAK256 SWAP1 PUSH1 0x2 MUL ADD PUSH1 0x0 SWAP2 POP SWAP2 POP POP DUP1 PUSH1 0x0 ADD SLOAD SWAP1 DUP1 PUSH1 0x1 ADD SLOAD SWAP1 POP DUP3 JUMP JUMPDEST PUSH1 0x1 PUSH1 0x0 SWAP1 SLOAD SWAP1 PUSH2 0x100 EXP SWAP1 DIV PUSH20 0xFFFFFFFFFFFFFFFFFFFFFFFFFFFFFFFFFFFFFFFF AND PUSH20 0xFFFFFFFFFFFFFFFFFFFFFFFFFFFFFFFFFFFFFFFF AND CALLER PUSH20 0xFFFFFFFFFFFFFFFFFFFFFFFFFFFFFFFFFFFFFFFF AND EQ PUSH2 0x15CE JUMPI PUSH1 0x40 MLOAD PUSH32 0x8C379A000000000000000000000000000000000000000000000000000000000 DUP2 MSTORE PUSH1 0x4 ADD PUSH2 0x15C5 SWAP1 PUSH2 0x4374 JUMP JUMPDEST PUSH1 0x40 MLOAD DUP1 SWAP2 SUB SWAP1 REVERT JUMPDEST DUP1 PUSH1 0x3 PUSH1 0x0 PUSH1 0x9 PUSH1 0x0 DUP8 DUP2 MSTORE PUSH1 0x20 ADD SWAP1 DUP2 MSTORE PUSH1 0x20 ADD PUSH1 0x0 KECCAK256 PUSH1 0x0 DUP7 DUP2 MSTORE PUSH1 0x20 ADD SWAP1 DUP2 MSTORE PUSH1 0x20 ADD PUSH1 0x0 KECCAK256 PUSH1 0x1 ADD SLOAD DUP2 MSTORE PUSH1 0x20 ADD SWAP1 DUP2 MSTORE PUSH1 0x20 ADD PUSH1 0x0 KECCAK256 PUSH1 0x1 ADD PUSH1 0x0 DUP3 DUP3 SLOAD PUSH2 0x161B SWAP2 SWAP1 PUSH2 0x4592 JUMP JUMPDEST SWAP3 POP POP DUP2 SWAP1 SSTORE POP PUSH1 0x0 PUSH1 0x3 PUSH1 0x0 DUP6 DUP2 MSTORE PUSH1 0x20 ADD SWAP1 DUP2 MSTORE PUSH1 0x20 ADD PUSH1 0x0 KECCAK256 PUSH1 0x0 ADD SLOAD SUB PUSH2 0x16C4 JUMPI PUSH1 0x0 PUSH1 0x3 PUSH1 0x0 DUP6 DUP2 MSTORE PUSH1 0x20 ADD SWAP1 DUP2 MSTORE PUSH1 0x20 ADD PUSH1 0x0 KECCAK256 PUSH1 0x8 ADD PUSH1 0x0 PUSH2 0x100 EXP DUP2 SLOAD DUP2 PUSH1 0xFF MUL NOT AND SWAP1 DUP4 ISZERO ISZERO MUL OR SWAP1 SSTORE POP PUSH1 0x0 DUP1 PUSH1 0x0 SWAP1 POP JUMPDEST PUSH1 0x8 SLOAD DUP2 LT ISZERO PUSH2 0x16C1 JUMPI DUP5 PUSH1 0x7 DUP3 DUP2 SLOAD DUP2 LT PUSH2 0x1696 JUMPI PUSH2 0x1695 PUSH2 0x451B JUMP JUMPDEST JUMPDEST SWAP1 PUSH1 0x0 MSTORE PUSH1 0x20 PUSH1 0x0 KECCAK256 ADD SLOAD SUB PUSH2 0x16AE JUMPI DUP1 SWAP2 POP PUSH2 0x16C1 JUMP JUMPDEST DUP1 DUP1 PUSH2 0x16B9 SWAP1 PUSH2 0x454A JUMP JUMPDEST SWAP2 POP POP PUSH2 0x1677 JUMP JUMPDEST POP POP JUMPDEST PUSH1 0x0 PUSH1 0x9 PUSH1 0x0 DUP6 DUP2 MSTORE PUSH1 0x20 ADD SWAP1 DUP2 MSTORE PUSH1 0x20 ADD PUSH1 0x0 KECCAK256 PUSH1 0x0 DUP5 DUP2 MSTORE PUSH1 0x20 ADD SWAP1 DUP2 MSTORE PUSH1 0x20 ADD PUSH1 0x0 KECCAK256 PUSH1 0x4 ADD PUSH1 0x1A PUSH2 0x100 EXP DUP2 SLOAD DUP2 PUSH1 0xFF MUL NOT AND SWAP1 DUP4 ISZERO ISZERO MUL OR SWAP1 SSTORE POP POP POP POP JUMP JUMPDEST PUSH1 0x1 PUSH1 0x0 SWAP1 SLOAD SWAP1 PUSH2 0x100 EXP SWAP1 DIV PUSH20 0xFFFFFFFFFFFFFFFFFFFFFFFFFFFFFFFFFFFFFFFF AND PUSH20 0xFFFFFFFFFFFFFFFFFFFFFFFFFFFFFFFFFFFFFFFF AND CALLER PUSH20 0xFFFFFFFFFFFFFFFFFFFFFFFFFFFFFFFFFFFFFFFF AND EQ PUSH2 0x1799 JUMPI PUSH1 0x40 MLOAD PUSH32 0x8C379A000000000000000000000000000000000000000000000000000000000 DUP2 MSTORE PUSH1 0x4 ADD PUSH2 0x1790 SWAP1 PUSH2 0x4374 JUMP JUMPDEST PUSH1 0x40 MLOAD DUP1 SWAP2 SUB SWAP1 REVERT JUMPDEST PUSH1 0x0 PUSH1 0x1 SWAP1 POP PUSH1 0x0 JUMPDEST PUSH1 0xB PUSH1 0x0 DUP5 DUP2 MSTORE PUSH1 0x20 ADD SWAP1 DUP2 MSTORE PUSH1 0x20 ADD PUSH1 0x0 KECCAK256 SLOAD DUP2 LT ISZERO PUSH2 0x1850 JUMPI PUSH1 0x9 PUSH1 0x0 DUP5 DUP2 MSTORE PUSH1 0x20 ADD SWAP1 DUP2 MSTORE PUSH1 0x20 ADD PUSH1 0x0 KECCAK256 PUSH1 0x0 DUP3 DUP2 MSTORE PUSH1 0x20 ADD SWAP1 DUP2 MSTORE PUSH1 0x20 ADD PUSH1 0x0 KECCAK256 PUSH1 0x4 ADD PUSH1 0x14 SWAP1 SLOAD SWAP1 PUSH2 0x100 EXP SWAP1 DIV PUSH1 0xFF AND DUP1 ISZERO PUSH2 0x182F JUMPI POP PUSH1 0x9 PUSH1 0x0 DUP5 DUP2 MSTORE PUSH1 0x20 ADD SWAP1 DUP2 MSTORE PUSH1 0x20 ADD PUSH1 0x0 KECCAK256 PUSH1 0x0 DUP3 DUP2 MSTORE PUSH1 0x20 ADD SWAP1 DUP2 MSTORE PUSH1 0x20 ADD PUSH1 0x0 KECCAK256 PUSH1 0x4 ADD PUSH1 0x1A SWAP1 SLOAD SWAP1 PUSH2 0x100 EXP SWAP1 DIV PUSH1 0xFF AND JUMPDEST ISZERO PUSH2 0x183D JUMPI PUSH1 0x0 SWAP2 POP PUSH2 0x1850 JUMP JUMPDEST DUP1 DUP1 PUSH2 0x1848 SWAP1 PUSH2 0x454A JUMP JUMPDEST SWAP2 POP POP PUSH2 0x17A2 JUMP JUMPDEST POP DUP1 PUSH2 0x1891 JUMPI PUSH1 0x40 MLOAD PUSH32 0x8C379A000000000000000000000000000000000000000000000000000000000 DUP2 MSTORE PUSH1 0x4 ADD PUSH2 0x1888 SWAP1 PUSH2 0x465E JUMP JUMPDEST PUSH1 0x40 MLOAD DUP1 SWAP2 SUB SWAP1 REVERT JUMPDEST PUSH1 0x0 PUSH1 0x3 PUSH1 0x0 DUP5 DUP2 MSTORE PUSH1 0x20 ADD SWAP1 DUP2 MSTORE PUSH1 0x20 ADD PUSH1 0x0 KECCAK256 PUSH1 0x8 ADD PUSH1 0x0 PUSH2 0x100 EXP DUP2 SLOAD DUP2 PUSH1 0xFF MUL NOT AND SWAP1 DUP4 ISZERO ISZERO MUL OR SWAP1 SSTORE POP PUSH1 0x0 DUP1 PUSH1 0x0 SWAP1 POP JUMPDEST PUSH1 0x8 SLOAD DUP2 LT ISZERO PUSH2 0x1912 JUMPI DUP4 PUSH1 0x7 DUP3 DUP2 SLOAD DUP2 LT PUSH2 0x18E7 JUMPI PUSH2 0x18E6 PUSH2 0x451B JUMP JUMPDEST JUMPDEST SWAP1 PUSH1 0x0 MSTORE PUSH1 0x20 PUSH1 0x0 KECCAK256 ADD SLOAD SUB PUSH2 0x18FF JUMPI DUP1 SWAP2 POP PUSH2 0x1912 JUMP JUMPDEST DUP1 DUP1 PUSH2 0x190A SWAP1 PUSH2 0x454A JUMP JUMPDEST SWAP2 POP POP PUSH2 0x18C8 JUMP JUMPDEST POP PUSH1 0x7 PUSH1 0x1 PUSH1 0x8 SLOAD PUSH2 0x1924 SWAP2 SWAP1 PUSH2 0x4592 JUMP JUMPDEST DUP2 SLOAD DUP2 LT PUSH2 0x1935 JUMPI PUSH2 0x1934 PUSH2 0x451B JUMP JUMPDEST JUMPDEST SWAP1 PUSH1 0x0 MSTORE PUSH1 0x20 PUSH1 0x0 KECCAK256 ADD SLOAD PUSH1 0x7 DUP3 DUP2 SLOAD DUP2 LT PUSH2 0x1954 JUMPI PUSH2 0x1953 PUSH2 0x451B JUMP JUMPDEST JUMPDEST SWAP1 PUSH1 0x0 MSTORE PUSH1 0x20 PUSH1 0x0 KECCAK256 ADD DUP2 SWAP1 SSTORE POP PUSH1 0x7 DUP1 SLOAD DUP1 PUSH2 0x1974 JUMPI PUSH2 0x1973 PUSH2 0x467E JUMP JUMPDEST JUMPDEST PUSH1 0x1 SWAP1 SUB DUP2 DUP2 SWAP1 PUSH1 0x0 MSTORE PUSH1 0x20 PUSH1 0x0 KECCAK256 ADD PUSH1 0x0 SWAP1 SSTORE SWAP1 SSTORE PUSH1 0x8 PUSH1 0x0 DUP2 SLOAD DUP1 SWAP3 SWAP2 SWAP1 PUSH2 0x199D SWAP1 PUSH2 0x46AD JUMP JUMPDEST SWAP2 SWAP1 POP SSTORE POP POP POP POP JUMP JUMPDEST PUSH1 0x6 SLOAD DUP2 JUMP JUMPDEST PUSH2 0x19B5 PUSH2 0x3251 JUMP JUMPDEST PUSH2 0x19BF PUSH1 0x0 PUSH2 0x32CF JUMP JUMPDEST JUMP JUMPDEST PUSH1 0x60 PUSH1 0x7 DUP1 SLOAD DUP1 PUSH1 0x20 MUL PUSH1 0x20 ADD PUSH1 0x40 MLOAD SWAP1 DUP2 ADD PUSH1 0x40 MSTORE DUP1 SWAP3 SWAP2 SWAP1 DUP2 DUP2 MSTORE PUSH1 0x20 ADD DUP3 DUP1 SLOAD DUP1 ISZERO PUSH2 0x1A0F JUMPI PUSH1 0x20 MUL DUP3 ADD SWAP2 SWAP1 PUSH1 0x0 MSTORE PUSH1 0x20 PUSH1 0x0 KECCAK256 SWAP1 JUMPDEST DUP2 SLOAD DUP2 MSTORE PUSH1 0x20 ADD SWAP1 PUSH1 0x1 ADD SWAP1 DUP1 DUP4 GT PUSH2 0x19FB JUMPI JUMPDEST POP POP POP POP POP SWAP1 POP SWAP1 JUMP JUMPDEST PUSH1 0x8 SLOAD DUP2 JUMP JUMPDEST PUSH2 0x1A27 PUSH2 0x3251 JUMP JUMPDEST PUSH1 0x5 SLOAD DUP2 LT PUSH2 0x1A6B JUMPI PUSH1 0x40 MLOAD PUSH32 0x8C379A000000000000000000000000000000000000000000000000000000000 DUP2 MSTORE PUSH1 0x4 ADD PUSH2 0x1A62 SWAP1 PUSH2 0x4722 JUMP JUMPDEST PUSH1 0x40 MLOAD DUP1 SWAP2 SUB SWAP1 REVERT JUMPDEST PUSH1 0x3 PUSH1 0x0 DUP3 DUP2 MSTORE PUSH1 0x20 ADD SWAP1 DUP2 MSTORE PUSH1 0x20 ADD PUSH1 0x0 KECCAK256 PUSH1 0x8 ADD PUSH1 0x0 SWAP1 SLOAD SWAP1 PUSH2 0x100 EXP SWAP1 DIV PUSH1 0xFF AND ISZERO PUSH2 0x1B78 JUMPI PUSH1 0x0 DUP1 PUSH1 0x0 SWAP1 POP JUMPDEST PUSH1 0x8 SLOAD DUP2 LT ISZERO PUSH2 0x1AE6 JUMPI DUP3 PUSH1 0x7 DUP3 DUP2 SLOAD DUP2 LT PUSH2 0x1ABB JUMPI PUSH2 0x1ABA PUSH2 0x451B JUMP JUMPDEST JUMPDEST SWAP1 PUSH1 0x0 MSTORE PUSH1 0x20 PUSH1 0x0 KECCAK256 ADD SLOAD SUB PUSH2 0x1AD3 JUMPI DUP1 SWAP2 POP PUSH2 0x1AE6 JUMP JUMPDEST DUP1 DUP1 PUSH2 0x1ADE SWAP1 PUSH2 0x454A JUMP JUMPDEST SWAP2 POP POP PUSH2 0x1A9C JUMP JUMPDEST POP PUSH1 0x7 PUSH1 0x1 PUSH1 0x8 SLOAD PUSH2 0x1AF8 SWAP2 SWAP1 PUSH2 0x4592 JUMP JUMPDEST DUP2 SLOAD DUP2 LT PUSH2 0x1B09 JUMPI PUSH2 0x1B08 PUSH2 0x451B JUMP JUMPDEST JUMPDEST SWAP1 PUSH1 0x0 MSTORE PUSH1 0x20 PUSH1 0x0 KECCAK256 ADD SLOAD PUSH1 0x7 DUP3 DUP2 SLOAD DUP2 LT PUSH2 0x1B28 JUMPI PUSH2 0x1B27 PUSH2 0x451B JUMP JUMPDEST JUMPDEST SWAP1 PUSH1 0x0 MSTORE PUSH1 0x20 PUSH1 0x0 KECCAK256 ADD DUP2 SWAP1 SSTORE POP PUSH1 0x7 DUP1 SLOAD DUP1 PUSH2 0x1B48 JUMPI PUSH2 0x1B47 PUSH2 0x467E JUMP JUMPDEST JUMPDEST PUSH1 0x1 SWAP1 SUB DUP2 DUP2 SWAP1 PUSH1 0x0 MSTORE PUSH1 0x20 PUSH1 0x0 KECCAK256 ADD PUSH1 0x0 SWAP1 SSTORE SWAP1 SSTORE PUSH1 0x8 PUSH1 0x0 DUP2 SLOAD DUP1 SWAP3 SWAP2 SWAP1 PUSH2 0x1B71 SWAP1 PUSH2 0x46AD JUMP JUMPDEST SWAP2 SWAP1 POP SSTORE POP POP JUMPDEST PUSH1 0x3 PUSH1 0x0 DUP3 DUP2 MSTORE PUSH1 0x20 ADD SWAP1 DUP2 MSTORE PUSH1 0x20 ADD PUSH1 0x0 KECCAK256 PUSH1 0x0 DUP1 DUP3 ADD PUSH1 0x0 SWAP1 SSTORE PUSH1 0x1 DUP3 ADD PUSH1 0x0 SWAP1 SSTORE PUSH1 0x2 DUP3 ADD PUSH1 0x0 SWAP1 SSTORE PUSH1 0x3 DUP3 ADD PUSH1 0x0 SWAP1 SSTORE PUSH1 0x4 DUP3 ADD PUSH1 0x0 PUSH2 0x1BBC SWAP2 SWAP1 PUSH2 0x3420 JUMP JUMPDEST PUSH1 0x5 DUP3 ADD PUSH1 0x0 SWAP1 SSTORE PUSH1 0x6 DUP3 ADD PUSH1 0x0 PUSH2 0x1BD4 SWAP2 SWAP1 PUSH2 0x3420 JUMP JUMPDEST PUSH1 0x7 DUP3 ADD PUSH1 0x0 PUSH2 0x1BE4 SWAP2 SWAP1 PUSH2 0x3420 JUMP JUMPDEST PUSH1 0x8 DUP3 ADD PUSH1 0x0 PUSH2 0x100 EXP DUP2 SLOAD SWAP1 PUSH1 0xFF MUL NOT AND SWAP1 SSTORE PUSH1 0x8 DUP3 ADD PUSH1 0x1 PUSH2 0x100 EXP DUP2 SLOAD SWAP1 PUSH20 0xFFFFFFFFFFFFFFFFFFFFFFFFFFFFFFFFFFFFFFFF MUL NOT AND SWAP1 SSTORE PUSH1 0x9 DUP3 ADD PUSH1 0x0 SWAP1 SSTORE PUSH1 0xA DUP3 ADD PUSH1 0x0 SWAP1 SSTORE POP POP PUSH1 0x0 DUP1 PUSH1 0x0 SWAP1 POP JUMPDEST PUSH1 0x5 SLOAD DUP2 LT ISZERO PUSH2 0x1C83 JUMPI DUP3 PUSH1 0x4 DUP3 DUP2 SLOAD DUP2 LT PUSH2 0x1C58 JUMPI PUSH2 0x1C57 PUSH2 0x451B JUMP JUMPDEST JUMPDEST SWAP1 PUSH1 0x0 MSTORE PUSH1 0x20 PUSH1 0x0 KECCAK256 ADD SLOAD SUB PUSH2 0x1C70 JUMPI DUP1 SWAP2 POP PUSH2 0x1C83 JUMP JUMPDEST DUP1 DUP1 PUSH2 0x1C7B SWAP1 PUSH2 0x454A JUMP JUMPDEST SWAP2 POP POP PUSH2 0x1C39 JUMP JUMPDEST POP PUSH1 0x4 PUSH1 0x1 PUSH1 0x5 SLOAD PUSH2 0x1C95 SWAP2 SWAP1 PUSH2 0x4592 JUMP JUMPDEST DUP2 SLOAD DUP2 LT PUSH2 0x1CA6 JUMPI PUSH2 0x1CA5 PUSH2 0x451B JUMP JUMPDEST JUMPDEST SWAP1 PUSH1 0x0 MSTORE PUSH1 0x20 PUSH1 0x0 KECCAK256 ADD SLOAD PUSH1 0x4 DUP3 DUP2 SLOAD DUP2 LT PUSH2 0x1CC5 JUMPI PUSH2 0x1CC4 PUSH2 0x451B JUMP JUMPDEST JUMPDEST SWAP1 PUSH1 0x0 MSTORE PUSH1 0x20 PUSH1 0x0 KECCAK256 ADD DUP2 SWAP1 SSTORE POP PUSH1 0x4 DUP1 SLOAD DUP1 PUSH2 0x1CE5 JUMPI PUSH2 0x1CE4 PUSH2 0x467E JUMP JUMPDEST JUMPDEST PUSH1 0x1 SWAP1 SUB DUP2 DUP2 SWAP1 PUSH1 0x0 MSTORE PUSH1 0x20 PUSH1 0x0 KECCAK256 ADD PUSH1 0x0 SWAP1 SSTORE SWAP1 SSTORE PUSH1 0x5 PUSH1 0x0 DUP2 SLOAD DUP1 SWAP3 SWAP2 SWAP1 PUSH2 0x1D0E SWAP1 PUSH2 0x46AD JUMP JUMPDEST SWAP2 SWAP1 POP SSTORE POP POP POP JUMP JUMPDEST PUSH1 0x0 DUP1 PUSH1 0x0 SWAP1 SLOAD SWAP1 PUSH2 0x100 EXP SWAP1 DIV PUSH20 0xFFFFFFFFFFFFFFFFFFFFFFFFFFFFFFFFFFFFFFFF AND SWAP1 POP SWAP1 JUMP JUMPDEST PUSH1 0x40 MLOAD DUP1 PUSH2 0x180 ADD PUSH1 0x40 MSTORE DUP1 DUP11 DUP2 MSTORE PUSH1 0x20 ADD PUSH1 0x0 DUP2 MSTORE PUSH1 0x20 ADD DUP10 DUP2 MSTORE PUSH1 0x20 ADD TIMESTAMP DUP2 MSTORE PUSH1 0x20 ADD DUP9 DUP2 MSTORE PUSH1 0x20 ADD DUP8 DUP2 MSTORE PUSH1 0x20 ADD DUP7 DUP2 MSTORE PUSH1 0x20 ADD DUP6 DUP2 MSTORE PUSH1 0x20 ADD PUSH1 0x1 ISZERO ISZERO DUP2 MSTORE PUSH1 0x20 ADD DUP5 PUSH20 0xFFFFFFFFFFFFFFFFFFFFFFFFFFFFFFFFFFFFFFFF AND DUP2 MSTORE PUSH1 0x20 ADD DUP4 DUP2 MSTORE PUSH1 0x20 ADD DUP3 DUP2 MSTORE POP PUSH1 0x3 PUSH1 0x0 PUSH1 0x5 SLOAD DUP2 MSTORE PUSH1 0x20 ADD SWAP1 DUP2 MSTORE PUSH1 0x20 ADD PUSH1 0x0 KECCAK256 PUSH1 0x0 DUP3 ADD MLOAD DUP2 PUSH1 0x0 ADD SSTORE PUSH1 0x20 DUP3 ADD MLOAD DUP2 PUSH1 0x1 ADD SSTORE PUSH1 0x40 DUP3 ADD MLOAD DUP2 PUSH1 0x2 ADD SSTORE PUSH1 0x60 DUP3 ADD MLOAD DUP2 PUSH1 0x3 ADD SSTORE PUSH1 0x80 DUP3 ADD MLOAD DUP2 PUSH1 0x4 ADD SWAP1 DUP2 PUSH2 0x1DFE SWAP2 SWAP1 PUSH2 0x48E4 JUMP JUMPDEST POP PUSH1 0xA0 DUP3 ADD MLOAD DUP2 PUSH1 0x5 ADD SSTORE PUSH1 0xC0 DUP3 ADD MLOAD DUP2 PUSH1 0x6 ADD SWAP1 DUP2 PUSH2 0x1E1E SWAP2 SWAP1 PUSH2 0x48E4 JUMP JUMPDEST POP PUSH1 0xE0 DUP3 ADD MLOAD DUP2 PUSH1 0x7 ADD SWAP1 DUP2 PUSH2 0x1E34 SWAP2 SWAP1 PUSH2 0x48E4 JUMP JUMPDEST POP PUSH2 0x100 DUP3 ADD MLOAD DUP2 PUSH1 0x8 ADD PUSH1 0x0 PUSH2 0x100 EXP DUP2 SLOAD DUP2 PUSH1 0xFF MUL NOT AND SWAP1 DUP4 ISZERO ISZERO MUL OR SWAP1 SSTORE POP PUSH2 0x120 DUP3 ADD MLOAD DUP2 PUSH1 0x8 ADD PUSH1 0x1 PUSH2 0x100 EXP DUP2 SLOAD DUP2 PUSH20 0xFFFFFFFFFFFFFFFFFFFFFFFFFFFFFFFFFFFFFFFF MUL NOT AND SWAP1 DUP4 PUSH20 0xFFFFFFFFFFFFFFFFFFFFFFFFFFFFFFFFFFFFFFFF AND MUL OR SWAP1 SSTORE POP PUSH2 0x140 DUP3 ADD MLOAD DUP2 PUSH1 0x9 ADD SSTORE PUSH2 0x160 DUP3 ADD MLOAD DUP2 PUSH1 0xA ADD SSTORE SWAP1 POP POP PUSH1 0x4 PUSH1 0x6 SLOAD SWAP1 DUP1 PUSH1 0x1 DUP2 SLOAD ADD DUP1 DUP3 SSTORE DUP1 SWAP2 POP POP PUSH1 0x1 SWAP1 SUB SWAP1 PUSH1 0x0 MSTORE PUSH1 0x20 PUSH1 0x0 KECCAK256 ADD PUSH1 0x0 SWAP1 SWAP2 SWAP1 SWAP2 SWAP1 SWAP2 POP SSTORE PUSH1 0x7 PUSH1 0x6 SLOAD SWAP1 DUP1 PUSH1 0x1 DUP2 SLOAD ADD DUP1 DUP3 SSTORE DUP1 SWAP2 POP POP PUSH1 0x1 SWAP1 SUB SWAP1 PUSH1 0x0 MSTORE PUSH1 0x20 PUSH1 0x0 KECCAK256 ADD PUSH1 0x0 SWAP1 SWAP2 SWAP1 SWAP2 SWAP1 SWAP2 POP SSTORE PUSH1 0x8 PUSH1 0x0 DUP2 SLOAD DUP1 SWAP3 SWAP2 SWAP1 PUSH2 0x1F20 SWAP1 PUSH2 0x454A JUMP JUMPDEST SWAP2 SWAP1 POP SSTORE POP PUSH1 0x5 PUSH1 0x0 DUP2 SLOAD DUP1 SWAP3 SWAP2 SWAP1 PUSH2 0x1F38 SWAP1 PUSH2 0x454A JUMP JUMPDEST SWAP2 SWAP1 POP SSTORE POP PUSH1 0x6 PUSH1 0x0 DUP2 SLOAD DUP1 SWAP3 SWAP2 SWAP1 PUSH2 0x1F50 SWAP1 PUSH2 0x454A JUMP JUMPDEST SWAP2 SWAP1 POP SSTORE POP POP POP POP POP POP POP POP POP POP JUMP JUMPDEST PUSH1 0x4 DUP2 DUP2 SLOAD DUP2 LT PUSH2 0x1F70 JUMPI PUSH1 0x0 DUP1 REVERT JUMPDEST SWAP1 PUSH1 0x0 MSTORE PUSH1 0x20 PUSH1 0x0 KECCAK256 ADD PUSH1 0x0 SWAP2 POP SWAP1 POP SLOAD DUP2 JUMP JUMPDEST PUSH1 0x60 PUSH1 0x0 PUSH1 0xB PUSH1 0x0 DUP5 DUP2 MSTORE PUSH1 0x20 ADD SWAP1 DUP2 MSTORE PUSH1 0x20 ADD PUSH1 0x0 KECCAK256 SLOAD SWAP1 POP PUSH1 0x0 DUP2 PUSH8 0xFFFFFFFFFFFFFFFF DUP2 GT ISZERO PUSH2 0x1FBA JUMPI PUSH2 0x1FB9 PUSH2 0x3C2D JUMP JUMPDEST JUMPDEST PUSH1 0x40 MLOAD SWAP1 DUP1 DUP3 MSTORE DUP1 PUSH1 0x20 MUL PUSH1 0x20 ADD DUP3 ADD PUSH1 0x40 MSTORE DUP1 ISZERO PUSH2 0x1FF3 JUMPI DUP2 PUSH1 0x20 ADD JUMPDEST PUSH2 0x1FE0 PUSH2 0x339B JUMP JUMPDEST DUP2 MSTORE PUSH1 0x20 ADD SWAP1 PUSH1 0x1 SWAP1 SUB SWAP1 DUP2 PUSH2 0x1FD8 JUMPI SWAP1 POP JUMPDEST POP SWAP1 POP PUSH1 0x0 DUP1 JUMPDEST DUP4 DUP2 LT ISZERO PUSH2 0x21E7 JUMPI PUSH1 0x9 PUSH1 0x0 DUP8 DUP2 MSTORE PUSH1 0x20 ADD SWAP1 DUP2 MSTORE PUSH1 0x20 ADD PUSH1 0x0 KECCAK256 PUSH1 0x0 DUP3 DUP2 MSTORE PUSH1 0x20 ADD SWAP1 DUP2 MSTORE PUSH1 0x20 ADD PUSH1 0x0 KECCAK256 PUSH1 0x4 ADD PUSH1 0x1A SWAP1 SLOAD SWAP1 PUSH2 0x100 EXP SWAP1 DIV PUSH1 0xFF AND ISZERO PUSH2 0x21D4 JUMPI PUSH1 0x9 PUSH1 0x0 DUP8 DUP2 MSTORE PUSH1 0x20 ADD SWAP1 DUP2 MSTORE PUSH1 0x20 ADD PUSH1 0x0 KECCAK256 PUSH1 0x0 DUP3 DUP2 MSTORE PUSH1 0x20 ADD SWAP1 DUP2 MSTORE PUSH1 0x20 ADD PUSH1 0x0 KECCAK256 PUSH1 0x40 MLOAD DUP1 PUSH2 0x180 ADD PUSH1 0x40 MSTORE SWAP1 DUP2 PUSH1 0x0 DUP3 ADD SLOAD DUP2 MSTORE PUSH1 0x20 ADD PUSH1 0x1 DUP3 ADD SLOAD DUP2 MSTORE PUSH1 0x20 ADD PUSH1 0x2 DUP3 ADD SLOAD DUP2 MSTORE PUSH1 0x20 ADD PUSH1 0x3 DUP3 ADD SLOAD DUP2 MSTORE PUSH1 0x20 ADD PUSH1 0x4 DUP3 ADD PUSH1 0x0 SWAP1 SLOAD SWAP1 PUSH2 0x100 EXP SWAP1 DIV PUSH20 0xFFFFFFFFFFFFFFFFFFFFFFFFFFFFFFFFFFFFFFFF AND PUSH20 0xFFFFFFFFFFFFFFFFFFFFFFFFFFFFFFFFFFFFFFFF AND PUSH20 0xFFFFFFFFFFFFFFFFFFFFFFFFFFFFFFFFFFFFFFFF AND DUP2 MSTORE PUSH1 0x20 ADD PUSH1 0x4 DUP3 ADD PUSH1 0x14 SWAP1 SLOAD SWAP1 PUSH2 0x100 EXP SWAP1 DIV PUSH1 0xFF AND ISZERO ISZERO ISZERO ISZERO DUP2 MSTORE PUSH1 0x20 ADD PUSH1 0x4 DUP3 ADD PUSH1 0x15 SWAP1 SLOAD SWAP1 PUSH2 0x100 EXP SWAP1 DIV PUSH1 0xFF AND ISZERO ISZERO ISZERO ISZERO DUP2 MSTORE PUSH1 0x20 ADD PUSH1 0x4 DUP3 ADD PUSH1 0x16 SWAP1 SLOAD SWAP1 PUSH2 0x100 EXP SWAP1 DIV PUSH1 0xFF AND ISZERO ISZERO ISZERO ISZERO DUP2 MSTORE PUSH1 0x20 ADD PUSH1 0x4 DUP3 ADD PUSH1 0x17 SWAP1 SLOAD SWAP1 PUSH2 0x100 EXP SWAP1 DIV PUSH1 0xFF AND ISZERO ISZERO ISZERO ISZERO DUP2 MSTORE PUSH1 0x20 ADD PUSH1 0x4 DUP3 ADD PUSH1 0x18 SWAP1 SLOAD SWAP1 PUSH2 0x100 EXP SWAP1 DIV PUSH1 0xFF AND ISZERO ISZERO ISZERO ISZERO DUP2 MSTORE PUSH1 0x20 ADD PUSH1 0x4 DUP3 ADD PUSH1 0x19 SWAP1 SLOAD SWAP1 PUSH2 0x100 EXP SWAP1 DIV PUSH1 0xFF AND ISZERO ISZERO ISZERO ISZERO DUP2 MSTORE PUSH1 0x20 ADD PUSH1 0x4 DUP3 ADD PUSH1 0x1A SWAP1 SLOAD SWAP1 PUSH2 0x100 EXP SWAP1 DIV PUSH1 0xFF AND ISZERO ISZERO ISZERO ISZERO DUP2 MSTORE POP POP DUP4 DUP4 DUP2 MLOAD DUP2 LT PUSH2 0x21BA JUMPI PUSH2 0x21B9 PUSH2 0x451B JUMP JUMPDEST JUMPDEST PUSH1 0x20 MUL PUSH1 0x20 ADD ADD DUP2 SWAP1 MSTORE POP DUP2 DUP1 PUSH2 0x21D0 SWAP1 PUSH2 0x454A JUMP JUMPDEST SWAP3 POP POP JUMPDEST DUP1 DUP1 PUSH2 0x21DF SWAP1 PUSH2 0x454A JUMP JUMPDEST SWAP2 POP POP PUSH2 0x1FFA JUMP JUMPDEST POP PUSH1 0x0 DUP2 PUSH8 0xFFFFFFFFFFFFFFFF DUP2 GT ISZERO PUSH2 0x2204 JUMPI PUSH2 0x2203 PUSH2 0x3C2D JUMP JUMPDEST JUMPDEST PUSH1 0x40 MLOAD SWAP1 DUP1 DUP3 MSTORE DUP1 PUSH1 0x20 MUL PUSH1 0x20 ADD DUP3 ADD PUSH1 0x40 MSTORE DUP1 ISZERO PUSH2 0x223D JUMPI DUP2 PUSH1 0x20 ADD JUMPDEST PUSH2 0x222A PUSH2 0x339B JUMP JUMPDEST DUP2 MSTORE PUSH1 0x20 ADD SWAP1 PUSH1 0x1 SWAP1 SUB SWAP1 DUP2 PUSH2 0x2222 JUMPI SWAP1 POP JUMPDEST POP SWAP1 POP PUSH1 0x0 JUMPDEST DUP3 DUP2 LT ISZERO PUSH2 0x2297 JUMPI DUP4 DUP2 DUP2 MLOAD DUP2 LT PUSH2 0x225E JUMPI PUSH2 0x225D PUSH2 0x451B JUMP JUMPDEST JUMPDEST PUSH1 0x20 MUL PUSH1 0x20 ADD ADD MLOAD DUP3 DUP3 DUP2 MLOAD DUP2 LT PUSH2 0x2279 JUMPI PUSH2 0x2278 PUSH2 0x451B JUMP JUMPDEST JUMPDEST PUSH1 0x20 MUL PUSH1 0x20 ADD ADD DUP2 SWAP1 MSTORE POP DUP1 DUP1 PUSH2 0x228F SWAP1 PUSH2 0x454A JUMP JUMPDEST SWAP2 POP POP PUSH2 0x2243 JUMP JUMPDEST POP DUP1 SWAP5 POP POP POP POP POP SWAP2 SWAP1 POP JUMP JUMPDEST PUSH1 0x2 PUSH1 0x0 SWAP1 SLOAD SWAP1 PUSH2 0x100 EXP SWAP1 DIV PUSH20 0xFFFFFFFFFFFFFFFFFFFFFFFFFFFFFFFFFFFFFFFF AND DUP2 JUMP JUMPDEST PUSH2 0x22D2 PUSH2 0x339B JUMP JUMPDEST PUSH1 0x9 PUSH1 0x0 DUP5 DUP2 MSTORE PUSH1 0x20 ADD SWAP1 DUP2 MSTORE PUSH1 0x20 ADD PUSH1 0x0 KECCAK256 PUSH1 0x0 DUP4 DUP2 MSTORE PUSH1 0x20 ADD SWAP1 DUP2 MSTORE PUSH1 0x20 ADD PUSH1 0x0 KECCAK256 PUSH1 0x40 MLOAD DUP1 PUSH2 0x180 ADD PUSH1 0x40 MSTORE SWAP1 DUP2 PUSH1 0x0 DUP3 ADD SLOAD DUP2 MSTORE PUSH1 0x20 ADD PUSH1 0x1 DUP3 ADD SLOAD DUP2 MSTORE PUSH1 0x20 ADD PUSH1 0x2 DUP3 ADD SLOAD DUP2 MSTORE PUSH1 0x20 ADD PUSH1 0x3 DUP3 ADD SLOAD DUP2 MSTORE PUSH1 0x20 ADD PUSH1 0x4 DUP3 ADD PUSH1 0x0 SWAP1 SLOAD SWAP1 PUSH2 0x100 EXP SWAP1 DIV PUSH20 0xFFFFFFFFFFFFFFFFFFFFFFFFFFFFFFFFFFFFFFFF AND PUSH20 0xFFFFFFFFFFFFFFFFFFFFFFFFFFFFFFFFFFFFFFFF AND PUSH20 0xFFFFFFFFFFFFFFFFFFFFFFFFFFFFFFFFFFFFFFFF AND DUP2 MSTORE PUSH1 0x20 ADD PUSH1 0x4 DUP3 ADD PUSH1 0x14 SWAP1 SLOAD SWAP1 PUSH2 0x100 EXP SWAP1 DIV PUSH1 0xFF AND ISZERO ISZERO ISZERO ISZERO DUP2 MSTORE PUSH1 0x20 ADD PUSH1 0x4 DUP3 ADD PUSH1 0x15 SWAP1 SLOAD SWAP1 PUSH2 0x100 EXP SWAP1 DIV PUSH1 0xFF AND ISZERO ISZERO ISZERO ISZERO DUP2 MSTORE PUSH1 0x20 ADD PUSH1 0x4 DUP3 ADD PUSH1 0x16 SWAP1 SLOAD SWAP1 PUSH2 0x100 EXP SWAP1 DIV PUSH1 0xFF AND ISZERO ISZERO ISZERO ISZERO DUP2 MSTORE PUSH1 0x20 ADD PUSH1 0x4 DUP3 ADD PUSH1 0x17 SWAP1 SLOAD SWAP1 PUSH2 0x100 EXP SWAP1 DIV PUSH1 0xFF AND ISZERO ISZERO ISZERO ISZERO DUP2 MSTORE PUSH1 0x20 ADD PUSH1 0x4 DUP3 ADD PUSH1 0x18 SWAP1 SLOAD SWAP1 PUSH2 0x100 EXP SWAP1 DIV PUSH1 0xFF AND ISZERO ISZERO ISZERO ISZERO DUP2 MSTORE PUSH1 0x20 ADD PUSH1 0x4 DUP3 ADD PUSH1 0x19 SWAP1 SLOAD SWAP1 PUSH2 0x100 EXP SWAP1 DIV PUSH1 0xFF AND ISZERO ISZERO ISZERO ISZERO DUP2 MSTORE PUSH1 0x20 ADD PUSH1 0x4 DUP3 ADD PUSH1 0x1A SWAP1 SLOAD SWAP1 PUSH2 0x100 EXP SWAP1 DIV PUSH1 0xFF AND ISZERO ISZERO ISZERO ISZERO DUP2 MSTORE POP POP SWAP1 POP SWAP3 SWAP2 POP POP JUMP JUMPDEST PUSH1 0x0 PUSH1 0x5 SLOAD SWAP1 POP SWAP1 JUMP JUMPDEST PUSH2 0x2457 PUSH2 0x3460 JUMP JUMPDEST PUSH1 0x3 PUSH1 0x0 DUP4 DUP2 MSTORE PUSH1 0x20 ADD SWAP1 DUP2 MSTORE PUSH1 0x20 ADD PUSH1 0x0 KECCAK256 PUSH1 0x40 MLOAD DUP1 PUSH2 0x180 ADD PUSH1 0x40 MSTORE SWAP1 DUP2 PUSH1 0x0 DUP3 ADD SLOAD DUP2 MSTORE PUSH1 0x20 ADD PUSH1 0x1 DUP3 ADD SLOAD DUP2 MSTORE PUSH1 0x20 ADD PUSH1 0x2 DUP3 ADD SLOAD DUP2 MSTORE PUSH1 0x20 ADD PUSH1 0x3 DUP3 ADD SLOAD DUP2 MSTORE PUSH1 0x20 ADD PUSH1 0x4 DUP3 ADD DUP1 SLOAD PUSH2 0x24AE SWAP1 PUSH2 0x42F7 JUMP JUMPDEST DUP1 PUSH1 0x1F ADD PUSH1 0x20 DUP1 SWAP2 DIV MUL PUSH1 0x20 ADD PUSH1 0x40 MLOAD SWAP1 DUP2 ADD PUSH1 0x40 MSTORE DUP1 SWAP3 SWAP2 SWAP1 DUP2 DUP2 MSTORE PUSH1 0x20 ADD DUP3 DUP1 SLOAD PUSH2 0x24DA SWAP1 PUSH2 0x42F7 JUMP JUMPDEST DUP1 ISZERO PUSH2 0x2527 JUMPI DUP1 PUSH1 0x1F LT PUSH2 0x24FC JUMPI PUSH2 0x100 DUP1 DUP4 SLOAD DIV MUL DUP4 MSTORE SWAP2 PUSH1 0x20 ADD SWAP2 PUSH2 0x2527 JUMP JUMPDEST DUP3 ADD SWAP2 SWAP1 PUSH1 0x0 MSTORE PUSH1 0x20 PUSH1 0x0 KECCAK256 SWAP1 JUMPDEST DUP2 SLOAD DUP2 MSTORE SWAP1 PUSH1 0x1 ADD SWAP1 PUSH1 0x20 ADD DUP1 DUP4 GT PUSH2 0x250A JUMPI DUP3 SWAP1 SUB PUSH1 0x1F AND DUP3 ADD SWAP2 JUMPDEST POP POP POP POP POP DUP2 MSTORE PUSH1 0x20 ADD PUSH1 0x5 DUP3 ADD SLOAD DUP2 MSTORE PUSH1 0x20 ADD PUSH1 0x6 DUP3 ADD DUP1 SLOAD PUSH2 0x254A SWAP1 PUSH2 0x42F7 JUMP JUMPDEST DUP1 PUSH1 0x1F ADD PUSH1 0x20 DUP1 SWAP2 DIV MUL PUSH1 0x20 ADD PUSH1 0x40 MLOAD SWAP1 DUP2 ADD PUSH1 0x40 MSTORE DUP1 SWAP3 SWAP2 SWAP1 DUP2 DUP2 MSTORE PUSH1 0x20 ADD DUP3 DUP1 SLOAD PUSH2 0x2576 SWAP1 PUSH2 0x42F7 JUMP JUMPDEST DUP1 ISZERO PUSH2 0x25C3 JUMPI DUP1 PUSH1 0x1F LT PUSH2 0x2598 JUMPI PUSH2 0x100 DUP1 DUP4 SLOAD DIV MUL DUP4 MSTORE SWAP2 PUSH1 0x20 ADD SWAP2 PUSH2 0x25C3 JUMP JUMPDEST DUP3 ADD SWAP2 SWAP1 PUSH1 0x0 MSTORE PUSH1 0x20 PUSH1 0x0 KECCAK256 SWAP1 JUMPDEST DUP2 SLOAD DUP2 MSTORE SWAP1 PUSH1 0x1 ADD SWAP1 PUSH1 0x20 ADD DUP1 DUP4 GT PUSH2 0x25A6 JUMPI DUP3 SWAP1 SUB PUSH1 0x1F AND DUP3 ADD SWAP2 JUMPDEST POP POP POP POP POP DUP2 MSTORE PUSH1 0x20 ADD PUSH1 0x7 DUP3 ADD DUP1 SLOAD PUSH2 0x25DC SWAP1 PUSH2 0x42F7 JUMP JUMPDEST DUP1 PUSH1 0x1F ADD PUSH1 0x20 DUP1 SWAP2 DIV MUL PUSH1 0x20 ADD PUSH1 0x40 MLOAD SWAP1 DUP2 ADD PUSH1 0x40 MSTORE DUP1 SWAP3 SWAP2 SWAP1 DUP2 DUP2 MSTORE PUSH1 0x20 ADD DUP3 DUP1 SLOAD PUSH2 0x2608 SWAP1 PUSH2 0x42F7 JUMP JUMPDEST DUP1 ISZERO PUSH2 0x2655 JUMPI DUP1 PUSH1 0x1F LT PUSH2 0x262A JUMPI PUSH2 0x100 DUP1 DUP4 SLOAD DIV MUL DUP4 MSTORE SWAP2 PUSH1 0x20 ADD SWAP2 PUSH2 0x2655 JUMP JUMPDEST DUP3 ADD SWAP2 SWAP1 PUSH1 0x0 MSTORE PUSH1 0x20 PUSH1 0x0 KECCAK256 SWAP1 JUMPDEST DUP2 SLOAD DUP2 MSTORE SWAP1 PUSH1 0x1 ADD SWAP1 PUSH1 0x20 ADD DUP1 DUP4 GT PUSH2 0x2638 JUMPI DUP3 SWAP1 SUB PUSH1 0x1F AND DUP3 ADD SWAP2 JUMPDEST POP POP POP POP POP DUP2 MSTORE PUSH1 0x20 ADD PUSH1 0x8 DUP3 ADD PUSH1 0x0 SWAP1 SLOAD SWAP1 PUSH2 0x100 EXP SWAP1 DIV PUSH1 0xFF AND ISZERO ISZERO ISZERO ISZERO DUP2 MSTORE PUSH1 0x20 ADD PUSH1 0x8 DUP3 ADD PUSH1 0x1 SWAP1 SLOAD SWAP1 PUSH2 0x100 EXP SWAP1 DIV PUSH20 0xFFFFFFFFFFFFFFFFFFFFFFFFFFFFFFFFFFFFFFFF AND PUSH20 0xFFFFFFFFFFFFFFFFFFFFFFFFFFFFFFFFFFFFFFFF AND PUSH20 0xFFFFFFFFFFFFFFFFFFFFFFFFFFFFFFFFFFFFFFFF AND DUP2 MSTORE PUSH1 0x20 ADD PUSH1 0x9 DUP3 ADD SLOAD DUP2 MSTORE PUSH1 0x20 ADD PUSH1 0xA DUP3 ADD SLOAD DUP2 MSTORE POP POP SWAP1 POP SWAP2 SWAP1 POP JUMP JUMPDEST DUP3 PUSH1 0x3 PUSH1 0x0 DUP3 DUP2 MSTORE PUSH1 0x20 ADD SWAP1 DUP2 MSTORE PUSH1 0x20 ADD PUSH1 0x0 KECCAK256 PUSH1 0x8 ADD PUSH1 0x0 SWAP1 SLOAD SWAP1 PUSH2 0x100 EXP SWAP1 DIV PUSH1 0xFF AND PUSH2 0x274E JUMPI PUSH1 0x40 MLOAD PUSH32 0x8C379A000000000000000000000000000000000000000000000000000000000 DUP2 MSTORE PUSH1 0x4 ADD PUSH2 0x2745 SWAP1 PUSH2 0x43E0 JUMP JUMPDEST PUSH1 0x40 MLOAD DUP1 SWAP2 SUB SWAP1 REVERT JUMPDEST PUSH1 0x1 PUSH1 0x0 SWAP1 SLOAD SWAP1 PUSH2 0x100 EXP SWAP1 DIV PUSH20 0xFFFFFFFFFFFFFFFFFFFFFFFFFFFFFFFFFFFFFFFF AND PUSH20 0xFFFFFFFFFFFFFFFFFFFFFFFFFFFFFFFFFFFFFFFF AND CALLER PUSH20 0xFFFFFFFFFFFFFFFFFFFFFFFFFFFFFFFFFFFFFFFF AND EQ PUSH2 0x27DE JUMPI PUSH1 0x40 MLOAD PUSH32 0x8C379A000000000000000000000000000000000000000000000000000000000 DUP2 MSTORE PUSH1 0x4 ADD PUSH2 0x27D5 SWAP1 PUSH2 0x4374 JUMP JUMPDEST PUSH1 0x40 MLOAD DUP1 SWAP2 SUB SWAP1 REVERT JUMPDEST PUSH1 0x0 PUSH1 0xB PUSH1 0x0 DUP7 DUP2 MSTORE PUSH1 0x20 ADD SWAP1 DUP2 MSTORE PUSH1 0x20 ADD PUSH1 0x0 KECCAK256 SLOAD SWAP1 POP PUSH1 0x0 PUSH1 0x40 MLOAD DUP1 PUSH2 0x180 ADD PUSH1 0x40 MSTORE DUP1 DUP4 DUP2 MSTORE PUSH1 0x20 ADD DUP8 DUP2 MSTORE PUSH1 0x20 ADD DUP7 DUP2 MSTORE PUSH1 0x20 ADD TIMESTAMP DUP2 MSTORE PUSH1 0x20 ADD DUP6 PUSH20 0xFFFFFFFFFFFFFFFFFFFFFFFFFFFFFFFFFFFFFFFF AND DUP2 MSTORE PUSH1 0x20 ADD PUSH1 0x0 ISZERO ISZERO DUP2 MSTORE PUSH1 0x20 ADD PUSH1 0x0 ISZERO ISZERO DUP2 MSTORE PUSH1 0x20 ADD PUSH1 0x0 ISZERO ISZERO DUP2 MSTORE PUSH1 0x20 ADD PUSH1 0x0 ISZERO ISZERO DUP2 MSTORE PUSH1 0x20 ADD PUSH1 0x0 ISZERO ISZERO DUP2 MSTORE PUSH1 0x20 ADD PUSH1 0x0 ISZERO ISZERO DUP2 MSTORE PUSH1 0x20 ADD PUSH1 0x1 ISZERO ISZERO DUP2 MSTORE POP SWAP1 POP DUP1 PUSH1 0x9 PUSH1 0x0 DUP9 DUP2 MSTORE PUSH1 0x20 ADD SWAP1 DUP2 MSTORE PUSH1 0x20 ADD PUSH1 0x0 KECCAK256 PUSH1 0x0 DUP5 DUP2 MSTORE PUSH1 0x20 ADD SWAP1 DUP2 MSTORE PUSH1 0x20 ADD PUSH1 0x0 KECCAK256 PUSH1 0x0 DUP3 ADD MLOAD DUP2 PUSH1 0x0 ADD SSTORE PUSH1 0x20 DUP3 ADD MLOAD DUP2 PUSH1 0x1 ADD SSTORE PUSH1 0x40 DUP3 ADD MLOAD DUP2 PUSH1 0x2 ADD SSTORE PUSH1 0x60 DUP3 ADD MLOAD DUP2 PUSH1 0x3 ADD SSTORE PUSH1 0x80 DUP3 ADD MLOAD DUP2 PUSH1 0x4 ADD PUSH1 0x0 PUSH2 0x100 EXP DUP2 SLOAD DUP2 PUSH20 0xFFFFFFFFFFFFFFFFFFFFFFFFFFFFFFFFFFFFFFFF MUL NOT AND SWAP1 DUP4 PUSH20 0xFFFFFFFFFFFFFFFFFFFFFFFFFFFFFFFFFFFFFFFF AND MUL OR SWAP1 SSTORE POP PUSH1 0xA0 DUP3 ADD MLOAD DUP2 PUSH1 0x4 ADD PUSH1 0x14 PUSH2 0x100 EXP DUP2 SLOAD DUP2 PUSH1 0xFF MUL NOT AND SWAP1 DUP4 ISZERO ISZERO MUL OR SWAP1 SSTORE POP PUSH1 0xC0 DUP3 ADD MLOAD DUP2 PUSH1 0x4 ADD PUSH1 0x15 PUSH2 0x100 EXP DUP2 SLOAD DUP2 PUSH1 0xFF MUL NOT AND SWAP1 DUP4 ISZERO ISZERO MUL OR SWAP1 SSTORE POP PUSH1 0xE0 DUP3 ADD MLOAD DUP2 PUSH1 0x4 ADD PUSH1 0x16 PUSH2 0x100 EXP DUP2 SLOAD DUP2 PUSH1 0xFF MUL NOT AND SWAP1 DUP4 ISZERO ISZERO MUL OR SWAP1 SSTORE POP PUSH2 0x100 DUP3 ADD MLOAD DUP2 PUSH1 0x4 ADD PUSH1 0x17 PUSH2 0x100 EXP DUP2 SLOAD DUP2 PUSH1 0xFF MUL NOT AND SWAP1 DUP4 ISZERO ISZERO MUL OR SWAP1 SSTORE POP PUSH2 0x120 DUP3 ADD MLOAD DUP2 PUSH1 0x4 ADD PUSH1 0x18 PUSH2 0x100 EXP DUP2 SLOAD DUP2 PUSH1 0xFF MUL NOT AND SWAP1 DUP4 ISZERO ISZERO MUL OR SWAP1 SSTORE POP PUSH2 0x140 DUP3 ADD MLOAD DUP2 PUSH1 0x4 ADD PUSH1 0x19 PUSH2 0x100 EXP DUP2 SLOAD DUP2 PUSH1 0xFF MUL NOT AND SWAP1 DUP4 ISZERO ISZERO MUL OR SWAP1 SSTORE POP PUSH2 0x160 DUP3 ADD MLOAD DUP2 PUSH1 0x4 ADD PUSH1 0x1A PUSH2 0x100 EXP DUP2 SLOAD DUP2 PUSH1 0xFF MUL NOT AND SWAP1 DUP4 ISZERO ISZERO MUL OR SWAP1 SSTORE POP SWAP1 POP POP PUSH1 0xA PUSH1 0x0 DUP6 PUSH20 0xFFFFFFFFFFFFFFFFFFFFFFFFFFFFFFFFFFFFFFFF AND PUSH20 0xFFFFFFFFFFFFFFFFFFFFFFFFFFFFFFFFFFFFFFFF AND DUP2 MSTORE PUSH1 0x20 ADD SWAP1 DUP2 MSTORE PUSH1 0x20 ADD PUSH1 0x0 KECCAK256 PUSH1 0x40 MLOAD DUP1 PUSH1 0x40 ADD PUSH1 0x40 MSTORE DUP1 DUP9 DUP2 MSTORE PUSH1 0x20 ADD DUP5 DUP2 MSTORE POP SWAP1 DUP1 PUSH1 0x1 DUP2 SLOAD ADD DUP1 DUP3 SSTORE DUP1 SWAP2 POP POP PUSH1 0x1 SWAP1 SUB SWAP1 PUSH1 0x0 MSTORE PUSH1 0x20 PUSH1 0x0 KECCAK256 SWAP1 PUSH1 0x2 MUL ADD PUSH1 0x0 SWAP1 SWAP2 SWAP1 SWAP2 SWAP1 SWAP2 POP PUSH1 0x0 DUP3 ADD MLOAD DUP2 PUSH1 0x0 ADD SSTORE PUSH1 0x20 DUP3 ADD MLOAD DUP2 PUSH1 0x1 ADD SSTORE POP POP PUSH1 0xB PUSH1 0x0 DUP8 DUP2 MSTORE PUSH1 0x20 ADD SWAP1 DUP2 MSTORE PUSH1 0x20 ADD PUSH1 0x0 KECCAK256 PUSH1 0x0 DUP2 SLOAD DUP1 SWAP3 SWAP2 SWAP1 PUSH2 0x2AA9 SWAP1 PUSH2 0x454A JUMP JUMPDEST SWAP2 SWAP1 POP SSTORE POP POP POP POP POP POP POP JUMP JUMPDEST PUSH1 0x1 PUSH1 0x0 SWAP1 SLOAD SWAP1 PUSH2 0x100 EXP SWAP1 DIV PUSH20 0xFFFFFFFFFFFFFFFFFFFFFFFFFFFFFFFFFFFFFFFF AND DUP2 JUMP JUMPDEST PUSH1 0x9 PUSH1 0x20 MSTORE DUP2 PUSH1 0x0 MSTORE PUSH1 0x40 PUSH1 0x0 KECCAK256 PUSH1 0x20 MSTORE DUP1 PUSH1 0x0 MSTORE PUSH1 0x40 PUSH1 0x0 KECCAK256 PUSH1 0x0 SWAP2 POP SWAP2 POP POP DUP1 PUSH1 0x0 ADD SLOAD SWAP1 DUP1 PUSH1 0x1 ADD SLOAD SWAP1 DUP1 PUSH1 0x2 ADD SLOAD SWAP1 DUP1 PUSH1 0x3 ADD SLOAD SWAP1 DUP1 PUSH1 0x4 ADD PUSH1 0x0 SWAP1 SLOAD SWAP1 PUSH2 0x100 EXP SWAP1 DIV PUSH20 0xFFFFFFFFFFFFFFFFFFFFFFFFFFFFFFFFFFFFFFFF AND SWAP1 DUP1 PUSH1 0x4 ADD PUSH1 0x14 SWAP1 SLOAD SWAP1 PUSH2 0x100 EXP SWAP1 DIV PUSH1 0xFF AND SWAP1 DUP1 PUSH1 0x4 ADD PUSH1 0x15 SWAP1 SLOAD SWAP1 PUSH2 0x100 EXP SWAP1 DIV PUSH1 0xFF AND SWAP1 DUP1 PUSH1 0x4 ADD PUSH1 0x16 SWAP1 SLOAD SWAP1 PUSH2 0x100 EXP SWAP1 DIV PUSH1 0xFF AND SWAP1 DUP1 PUSH1 0x4 ADD PUSH1 0x17 SWAP1 SLOAD SWAP1 PUSH2 0x100 EXP SWAP1 DIV PUSH1 0xFF AND SWAP1 DUP1 PUSH1 0x4 ADD PUSH1 0x18 SWAP1 SLOAD SWAP1 PUSH2 0x100 EXP SWAP1 DIV PUSH1 0xFF AND SWAP1 DUP1 PUSH1 0x4 ADD PUSH1 0x19 SWAP1 SLOAD SWAP1 PUSH2 0x100 EXP SWAP1 DIV PUSH1 0xFF AND SWAP1 DUP1 PUSH1 0x4 ADD PUSH1 0x1A SWAP1 SLOAD SWAP1 PUSH2 0x100 EXP SWAP1 DIV PUSH1 0xFF AND SWAP1 POP DUP13 JUMP JUMPDEST PUSH1 0x5 SLOAD DUP2 JUMP JUMPDEST PUSH1 0x1 PUSH1 0x0 SWAP1 SLOAD SWAP1 PUSH2 0x100 EXP SWAP1 DIV PUSH20 0xFFFFFFFFFFFFFFFFFFFFFFFFFFFFFFFFFFFFFFFF AND PUSH20 0xFFFFFFFFFFFFFFFFFFFFFFFFFFFFFFFFFFFFFFFF AND CALLER PUSH20 0xFFFFFFFFFFFFFFFFFFFFFFFFFFFFFFFFFFFFFFFF AND EQ PUSH2 0x2C5A JUMPI PUSH1 0x40 MLOAD PUSH32 0x8C379A000000000000000000000000000000000000000000000000000000000 DUP2 MSTORE PUSH1 0x4 ADD PUSH2 0x2C51 SWAP1 PUSH2 0x4374 JUMP JUMPDEST PUSH1 0x40 MLOAD DUP1 SWAP2 SUB SWAP1 REVERT JUMPDEST PUSH1 0x9 PUSH1 0x0 DUP4 DUP2 MSTORE PUSH1 0x20 ADD SWAP1 DUP2 MSTORE PUSH1 0x20 ADD PUSH1 0x0 KECCAK256 PUSH1 0x0 DUP3 DUP2 MSTORE PUSH1 0x20 ADD SWAP1 DUP2 MSTORE PUSH1 0x20 ADD PUSH1 0x0 KECCAK256 PUSH1 0x4 ADD PUSH1 0x14 SWAP1 SLOAD SWAP1 PUSH2 0x100 EXP SWAP1 DIV PUSH1 0xFF AND ISZERO PUSH2 0x2CCF JUMPI PUSH1 0x40 MLOAD PUSH32 0x8C379A000000000000000000000000000000000000000000000000000000000 DUP2 MSTORE PUSH1 0x4 ADD PUSH2 0x2CC6 SWAP1 PUSH2 0x4A28 JUMP JUMPDEST PUSH1 0x40 MLOAD DUP1 SWAP2 SUB SWAP1 REVERT JUMPDEST PUSH1 0x0 PUSH1 0x9 PUSH1 0x0 DUP5 DUP2 MSTORE PUSH1 0x20 ADD SWAP1 DUP2 MSTORE PUSH1 0x20 ADD PUSH1 0x0 KECCAK256 PUSH1 0x0 DUP4 DUP2 MSTORE PUSH1 0x20 ADD SWAP1 DUP2 MSTORE PUSH1 0x20 ADD PUSH1 0x0 KECCAK256 PUSH1 0x4 ADD PUSH1 0x1A PUSH2 0x100 EXP DUP2 SLOAD DUP2 PUSH1 0xFF MUL NOT AND SWAP1 DUP4 ISZERO ISZERO MUL OR SWAP1 SSTORE POP POP POP JUMP JUMPDEST DUP3 PUSH1 0x3 PUSH1 0x0 DUP3 DUP2 MSTORE PUSH1 0x20 ADD SWAP1 DUP2 MSTORE PUSH1 0x20 ADD PUSH1 0x0 KECCAK256 PUSH1 0x8 ADD PUSH1 0x0 SWAP1 SLOAD SWAP1 PUSH2 0x100 EXP SWAP1 DIV PUSH1 0xFF AND PUSH2 0x2D77 JUMPI PUSH1 0x40 MLOAD PUSH32 0x8C379A000000000000000000000000000000000000000000000000000000000 DUP2 MSTORE PUSH1 0x4 ADD PUSH2 0x2D6E SWAP1 PUSH2 0x43E0 JUMP JUMPDEST PUSH1 0x40 MLOAD DUP1 SWAP2 SUB SWAP1 REVERT JUMPDEST PUSH1 0x1 PUSH1 0x0 SWAP1 SLOAD SWAP1 PUSH2 0x100 EXP SWAP1 DIV PUSH20 0xFFFFFFFFFFFFFFFFFFFFFFFFFFFFFFFFFFFFFFFF AND PUSH20 0xFFFFFFFFFFFFFFFFFFFFFFFFFFFFFFFFFFFFFFFF AND CALLER PUSH20 0xFFFFFFFFFFFFFFFFFFFFFFFFFFFFFFFFFFFFFFFF AND EQ PUSH2 0x2E07 JUMPI PUSH1 0x40 MLOAD PUSH32 0x8C379A000000000000000000000000000000000000000000000000000000000 DUP2 MSTORE PUSH1 0x4 ADD PUSH2 0x2DFE SWAP1 PUSH2 0x4374 JUMP JUMPDEST PUSH1 0x40 MLOAD DUP1 SWAP2 SUB SWAP1 REVERT JUMPDEST PUSH1 0x1 PUSH1 0x9 PUSH1 0x0 DUP7 DUP2 MSTORE PUSH1 0x20 ADD SWAP1 DUP2 MSTORE PUSH1 0x20 ADD PUSH1 0x0 KECCAK256 PUSH1 0x0 DUP6 DUP2 MSTORE PUSH1 0x20 ADD SWAP1 DUP2 MSTORE PUSH1 0x20 ADD PUSH1 0x0 KECCAK256 PUSH1 0x4 ADD PUSH1 0x16 PUSH2 0x100 EXP DUP2 SLOAD DUP2 PUSH1 0xFF MUL NOT AND SWAP1 DUP4 ISZERO ISZERO MUL OR SWAP1 SSTORE POP PUSH1 0x0 PUSH1 0x9 PUSH1 0x0 DUP7 DUP2 MSTORE PUSH1 0x20 ADD SWAP1 DUP2 MSTORE PUSH1 0x20 ADD PUSH1 0x0 KECCAK256 PUSH1 0x0 DUP6 DUP2 MSTORE PUSH1 0x20 ADD SWAP1 DUP2 MSTORE PUSH1 0x20 ADD PUSH1 0x0 KECCAK256 PUSH1 0x4 ADD PUSH1 0x1A PUSH2 0x100 EXP DUP2 SLOAD DUP2 PUSH1 0xFF MUL NOT AND SWAP1 DUP4 ISZERO ISZERO MUL OR SWAP1 SSTORE POP PUSH2 0x2EB0 DUP3 PUSH1 0x3 PUSH1 0x0 DUP8 DUP2 MSTORE PUSH1 0x20 ADD SWAP1 DUP2 MSTORE PUSH1 0x20 ADD PUSH1 0x0 KECCAK256 PUSH1 0x1 ADD SLOAD PUSH2 0x3225 SWAP1 SWAP2 SWAP1 PUSH4 0xFFFFFFFF AND JUMP JUMPDEST PUSH1 0x3 PUSH1 0x0 DUP7 DUP2 MSTORE PUSH1 0x20 ADD SWAP1 DUP2 MSTORE PUSH1 0x20 ADD PUSH1 0x0 KECCAK256 PUSH1 0x1 ADD DUP2 SWAP1 SSTORE POP PUSH1 0x2 PUSH1 0x0 SWAP1 SLOAD SWAP1 PUSH2 0x100 EXP SWAP1 DIV PUSH20 0xFFFFFFFFFFFFFFFFFFFFFFFFFFFFFFFFFFFFFFFF AND PUSH20 0xFFFFFFFFFFFFFFFFFFFFFFFFFFFFFFFFFFFFFFFF AND PUSH4 0xBF03FCCC PUSH1 0x3 PUSH1 0x0 DUP8 DUP2 MSTORE PUSH1 0x20 ADD SWAP1 DUP2 MSTORE PUSH1 0x20 ADD PUSH1 0x0 KECCAK256 PUSH1 0x8 ADD PUSH1 0x1 SWAP1 SLOAD SWAP1 PUSH2 0x100 EXP SWAP1 DIV PUSH20 0xFFFFFFFFFFFFFFFFFFFFFFFFFFFFFFFFFFFFFFFF AND PUSH1 0x40 MLOAD DUP3 PUSH4 0xFFFFFFFF AND PUSH1 0xE0 SHL DUP2 MSTORE PUSH1 0x4 ADD PUSH2 0x2F5B SWAP2 SWAP1 PUSH2 0x3C08 JUMP JUMPDEST PUSH1 0x20 PUSH1 0x40 MLOAD DUP1 DUP4 SUB DUP2 DUP7 GAS STATICCALL ISZERO DUP1 ISZERO PUSH2 0x2F78 JUMPI RETURNDATASIZE PUSH1 0x0 DUP1 RETURNDATACOPY RETURNDATASIZE PUSH1 0x0 REVERT JUMPDEST POP POP POP POP PUSH1 0x40 MLOAD RETURNDATASIZE PUSH1 0x1F NOT PUSH1 0x1F DUP3 ADD AND DUP3 ADD DUP1 PUSH1 0x40 MSTORE POP DUP2 ADD SWAP1 PUSH2 0x2F9C SWAP2 SWAP1 PUSH2 0x4A5D JUMP JUMPDEST PUSH1 0x3 PUSH1 0x0 DUP7 DUP2 MSTORE PUSH1 0x20 ADD SWAP1 DUP2 MSTORE PUSH1 0x20 ADD PUSH1 0x0 KECCAK256 PUSH1 0x9 ADD DUP2 SWAP1 SSTORE POP PUSH1 0x2 PUSH1 0x0 SWAP1 SLOAD SWAP1 PUSH2 0x100 EXP SWAP1 DIV PUSH20 0xFFFFFFFFFFFFFFFFFFFFFFFFFFFFFFFFFFFFFFFF AND PUSH20 0xFFFFFFFFFFFFFFFFFFFFFFFFFFFFFFFFFFFFFFFF AND PUSH4 0x42A3A9AB PUSH1 0x3 PUSH1 0x0 DUP8 DUP2 MSTORE PUSH1 0x20 ADD SWAP1 DUP2 MSTORE PUSH1 0x20 ADD PUSH1 0x0 KECCAK256 PUSH1 0x8 ADD PUSH1 0x1 SWAP1 SLOAD SWAP1 PUSH2 0x100 EXP SWAP1 DIV PUSH20 0xFFFFFFFFFFFFFFFFFFFFFFFFFFFFFFFFFFFFFFFF AND PUSH1 0x40 MLOAD DUP3 PUSH4 0xFFFFFFFF AND PUSH1 0xE0 SHL DUP2 MSTORE PUSH1 0x4 ADD PUSH2 0x3047 SWAP2 SWAP1 PUSH2 0x3C08 JUMP JUMPDEST PUSH1 0x20 PUSH1 0x40 MLOAD DUP1 DUP4 SUB DUP2 DUP7 GAS STATICCALL ISZERO DUP1 ISZERO PUSH2 0x3064 JUMPI RETURNDATASIZE PUSH1 0x0 DUP1 RETURNDATACOPY RETURNDATASIZE PUSH1 0x0 REVERT JUMPDEST POP POP POP POP PUSH1 0x40 MLOAD RETURNDATASIZE PUSH1 0x1F NOT PUSH1 0x1F DUP3 ADD AND DUP3 ADD DUP1 PUSH1 0x40 MSTORE POP DUP2 ADD SWAP1 PUSH2 0x3088 SWAP2 SWAP1 PUSH2 0x4A5D JUMP JUMPDEST PUSH1 0x3 PUSH1 0x0 DUP7 DUP2 MSTORE PUSH1 0x20 ADD SWAP1 DUP2 MSTORE PUSH1 0x20 ADD PUSH1 0x0 KECCAK256 PUSH1 0xA ADD DUP2 SWAP1 SSTORE POP PUSH1 0x0 PUSH1 0x3 PUSH1 0x0 DUP7 DUP2 MSTORE PUSH1 0x20 ADD SWAP1 DUP2 MSTORE PUSH1 0x20 ADD PUSH1 0x0 KECCAK256 PUSH1 0x0 ADD SLOAD SUB PUSH2 0x3144 JUMPI PUSH1 0x0 PUSH1 0x3 PUSH1 0x0 DUP7 DUP2 MSTORE PUSH1 0x20 ADD SWAP1 DUP2 MSTORE PUSH1 0x20 ADD PUSH1 0x0 KECCAK256 PUSH1 0x8 ADD PUSH1 0x0 PUSH2 0x100 EXP DUP2 SLOAD DUP2 PUSH1 0xFF MUL NOT AND SWAP1 DUP4 ISZERO ISZERO MUL OR SWAP1 SSTORE POP PUSH1 0x0 DUP1 PUSH1 0x0 SWAP1 POP JUMPDEST PUSH1 0x8 SLOAD DUP2 LT ISZERO PUSH2 0x3141 JUMPI DUP6 PUSH1 0x7 DUP3 DUP2 SLOAD DUP2 LT PUSH2 0x3116 JUMPI PUSH2 0x3115 PUSH2 0x451B JUMP JUMPDEST JUMPDEST SWAP1 PUSH1 0x0 MSTORE PUSH1 0x20 PUSH1 0x0 KECCAK256 ADD SLOAD SUB PUSH2 0x312E JUMPI DUP1 SWAP2 POP PUSH2 0x3141 JUMP JUMPDEST DUP1 DUP1 PUSH2 0x3139 SWAP1 PUSH2 0x454A JUMP JUMPDEST SWAP2 POP POP PUSH2 0x30F7 JUMP JUMPDEST POP POP JUMPDEST POP POP POP POP JUMP JUMPDEST PUSH1 0x60 PUSH1 0x4 DUP1 SLOAD DUP1 PUSH1 0x20 MUL PUSH1 0x20 ADD PUSH1 0x40 MLOAD SWAP1 DUP2 ADD PUSH1 0x40 MSTORE DUP1 SWAP3 SWAP2 SWAP1 DUP2 DUP2 MSTORE PUSH1 0x20 ADD DUP3 DUP1 SLOAD DUP1 ISZERO PUSH2 0x3198 JUMPI PUSH1 0x20 MUL DUP3 ADD SWAP2 SWAP1 PUSH1 0x0 MSTORE PUSH1 0x20 PUSH1 0x0 KECCAK256 SWAP1 JUMPDEST DUP2 SLOAD DUP2 MSTORE PUSH1 0x20 ADD SWAP1 PUSH1 0x1 ADD SWAP1 DUP1 DUP4 GT PUSH2 0x3184 JUMPI JUMPDEST POP POP POP POP POP SWAP1 POP SWAP1 JUMP JUMPDEST PUSH2 0x31AA PUSH2 0x3251 JUMP JUMPDEST PUSH1 0x0 PUSH20 0xFFFFFFFFFFFFFFFFFFFFFFFFFFFFFFFFFFFFFFFF AND DUP2 PUSH20 0xFFFFFFFFFFFFFFFFFFFFFFFFFFFFFFFFFFFFFFFF AND SUB PUSH2 0x3219 JUMPI PUSH1 0x40 MLOAD PUSH32 0x8C379A000000000000000000000000000000000000000000000000000000000 DUP2 MSTORE PUSH1 0x4 ADD PUSH2 0x3210 SWAP1 PUSH2 0x4AFC JUMP JUMPDEST PUSH1 0x40 MLOAD DUP1 SWAP2 SUB SWAP1 REVERT JUMPDEST PUSH2 0x3222 DUP2 PUSH2 0x32CF JUMP JUMPDEST POP JUMP JUMPDEST PUSH1 0x0 DUP2 DUP4 PUSH2 0x3233 SWAP2 SWAP1 PUSH2 0x4592 JUMP JUMPDEST SWAP1 POP SWAP3 SWAP2 POP POP JUMP JUMPDEST PUSH1 0x0 DUP2 DUP4 PUSH2 0x3249 SWAP2 SWAP1 PUSH2 0x44E7 JUMP JUMPDEST SWAP1 POP SWAP3 SWAP2 POP POP JUMP JUMPDEST PUSH2 0x3259 PUSH2 0x3393 JUMP JUMPDEST PUSH20 0xFFFFFFFFFFFFFFFFFFFFFFFFFFFFFFFFFFFFFFFF AND PUSH2 0x3277 PUSH2 0x1D17 JUMP JUMPDEST PUSH20 0xFFFFFFFFFFFFFFFFFFFFFFFFFFFFFFFFFFFFFFFF AND EQ PUSH2 0x32CD JUMPI PUSH1 0x40 MLOAD PUSH32 0x8C379A000000000000000000000000000000000000000000000000000000000 DUP2 MSTORE PUSH1 0x4 ADD PUSH2 0x32C4 SWAP1 PUSH2 0x4B68 JUMP JUMPDEST PUSH1 0x40 MLOAD DUP1 SWAP2 SUB SWAP1 REVERT JUMPDEST JUMP JUMPDEST PUSH1 0x0 DUP1 PUSH1 0x0 SWAP1 SLOAD SWAP1 PUSH2 0x100 EXP SWAP1 DIV PUSH20 0xFFFFFFFFFFFFFFFFFFFFFFFFFFFFFFFFFFFFFFFF AND SWAP1 POP DUP2 PUSH1 0x0 DUP1 PUSH2 0x100 EXP DUP2 SLOAD DUP2 PUSH20 0xFFFFFFFFFFFFFFFFFFFFFFFFFFFFFFFFFFFFFFFF MUL NOT AND SWAP1 DUP4 PUSH20 0xFFFFFFFFFFFFFFFFFFFFFFFFFFFFFFFFFFFFFFFF AND MUL OR SWAP1 SSTORE POP DUP2 PUSH20 0xFFFFFFFFFFFFFFFFFFFFFFFFFFFFFFFFFFFFFFFF AND DUP2 PUSH20 0xFFFFFFFFFFFFFFFFFFFFFFFFFFFFFFFFFFFFFFFF AND PUSH32 0x8BE0079C531659141344CD1FD0A4F28419497F9722A3DAAFE3B4186F6B6457E0 PUSH1 0x40 MLOAD PUSH1 0x40 MLOAD DUP1 SWAP2 SUB SWAP1 LOG3 POP POP JUMP JUMPDEST PUSH1 0x0 CALLER SWAP1 POP SWAP1 JUMP JUMPDEST PUSH1 0x40 MLOAD DUP1 PUSH2 0x180 ADD PUSH1 0x40 MSTORE DUP1 PUSH1 0x0 DUP2 MSTORE PUSH1 0x20 ADD PUSH1 0x0 DUP2 MSTORE PUSH1 0x20 ADD PUSH1 0x0 DUP2 MSTORE PUSH1 0x20 ADD PUSH1 0x0 DUP2 MSTORE PUSH1 0x20 ADD PUSH1 0x0 PUSH20 0xFFFFFFFFFFFFFFFFFFFFFFFFFFFFFFFFFFFFFFFF AND DUP2 MSTORE PUSH1 0x20 ADD PUSH1 0x0 ISZERO ISZERO DUP2 MSTORE PUSH1 0x20 ADD PUSH1 0x0 ISZERO ISZERO DUP2 MSTORE PUSH1 0x20 ADD PUSH1 0x0 ISZERO ISZERO DUP2 MSTORE PUSH1 0x20 ADD PUSH1 0x0 ISZERO ISZERO DUP2 MSTORE PUSH1 0x20 ADD PUSH1 0x0 ISZERO ISZERO DUP2 MSTORE PUSH1 0x20 ADD PUSH1 0x0 ISZERO ISZERO DUP2 MSTORE PUSH1 0x20 ADD PUSH1 0x0 ISZERO ISZERO DUP2 MSTORE POP SWAP1 JUMP JUMPDEST POP DUP1 SLOAD PUSH2 0x342C SWAP1 PUSH2 0x42F7 JUMP JUMPDEST PUSH1 0x0 DUP3 SSTORE DUP1 PUSH1 0x1F LT PUSH2 0x343E JUMPI POP PUSH2 0x345D JUMP JUMPDEST PUSH1 0x1F ADD PUSH1 0x20 SWAP1 DIV SWAP1 PUSH1 0x0 MSTORE PUSH1 0x20 PUSH1 0x0 KECCAK256 SWAP1 DUP2 ADD SWAP1 PUSH2 0x345C SWAP2 SWAP1 PUSH2 0x34DC JUMP JUMPDEST JUMPDEST POP JUMP JUMPDEST PUSH1 0x40 MLOAD DUP1 PUSH2 0x180 ADD PUSH1 0x40 MSTORE DUP1 PUSH1 0x0 DUP2 MSTORE PUSH1 0x20 ADD PUSH1 0x0 DUP2 MSTORE PUSH1 0x20 ADD PUSH1 0x0 DUP2 MSTORE PUSH1 0x20 ADD PUSH1 0x0 DUP2 MSTORE PUSH1 0x20 ADD PUSH1 0x60 DUP2 MSTORE PUSH1 0x20 ADD PUSH1 0x0 DUP1 NOT AND DUP2 MSTORE PUSH1 0x20 ADD PUSH1 0x60 DUP2 MSTORE PUSH1 0x20 ADD PUSH1 0x60 DUP2 MSTORE PUSH1 0x20 ADD PUSH1 0x0 ISZERO ISZERO DUP2 MSTORE PUSH1 0x20 ADD PUSH1 0x0 PUSH20 0xFFFFFFFFFFFFFFFFFFFFFFFFFFFFFFFFFFFFFFFF AND DUP2 MSTORE PUSH1 0x20 ADD PUSH1 0x0 DUP2 MSTORE PUSH1 0x20 ADD PUSH1 0x0 DUP2 MSTORE POP SWAP1 JUMP JUMPDEST JUMPDEST DUP1 DUP3 GT ISZERO PUSH2 0x34F5 JUMPI PUSH1 0x0 DUP2 PUSH1 0x0 SWAP1 SSTORE POP PUSH1 0x1 ADD PUSH2 0x34DD JUMP JUMPDEST POP SWAP1 JUMP JUMPDEST PUSH1 0x0 PUSH1 0x40 MLOAD SWAP1 POP SWAP1 JUMP JUMPDEST PUSH1 0x0 DUP1 REVERT JUMPDEST PUSH1 0x0 DUP1 REVERT JUMPDEST PUSH1 0x0 DUP2 SWAP1 POP SWAP2 SWAP1 POP JUMP JUMPDEST PUSH2 0x3520 DUP2 PUSH2 0x350D JUMP JUMPDEST DUP2 EQ PUSH2 0x352B JUMPI PUSH1 0x0 DUP1 REVERT JUMPDEST POP JUMP JUMPDEST PUSH1 0x0 DUP2 CALLDATALOAD SWAP1 POP PUSH2 0x353D DUP2 PUSH2 0x3517 JUMP JUMPDEST SWAP3 SWAP2 POP POP JUMP JUMPDEST PUSH1 0x0 PUSH1 0x20 DUP3 DUP5 SUB SLT ISZERO PUSH2 0x3559 JUMPI PUSH2 0x3558 PUSH2 0x3503 JUMP JUMPDEST JUMPDEST PUSH1 0x0 PUSH2 0x3567 DUP5 DUP3 DUP6 ADD PUSH2 0x352E JUMP JUMPDEST SWAP2 POP POP SWAP3 SWAP2 POP POP JUMP JUMPDEST PUSH2 0x3579 DUP2 PUSH2 0x350D JUMP JUMPDEST DUP3 MSTORE POP POP JUMP JUMPDEST PUSH1 0x0 DUP2 MLOAD SWAP1 POP SWAP2 SWAP1 POP JUMP JUMPDEST PUSH1 0x0 DUP3 DUP3 MSTORE PUSH1 0x20 DUP3 ADD SWAP1 POP SWAP3 SWAP2 POP POP JUMP JUMPDEST PUSH1 0x0 JUMPDEST DUP4 DUP2 LT ISZERO PUSH2 0x35B9 JUMPI DUP1 DUP3 ADD MLOAD DUP2 DUP5 ADD MSTORE PUSH1 0x20 DUP2 ADD SWAP1 POP PUSH2 0x359E JUMP JUMPDEST PUSH1 0x0 DUP5 DUP5 ADD MSTORE POP POP POP POP JUMP JUMPDEST PUSH1 0x0 PUSH1 0x1F NOT PUSH1 0x1F DUP4 ADD AND SWAP1 POP SWAP2 SWAP1 POP JUMP JUMPDEST PUSH1 0x0 PUSH2 0x35E1 DUP3 PUSH2 0x357F JUMP JUMPDEST PUSH2 0x35EB DUP2 DUP6 PUSH2 0x358A JUMP JUMPDEST SWAP4 POP PUSH2 0x35FB DUP2 DUP6 PUSH1 0x20 DUP7 ADD PUSH2 0x359B JUMP JUMPDEST PUSH2 0x3604 DUP2 PUSH2 0x35C5 JUMP JUMPDEST DUP5 ADD SWAP2 POP POP SWAP3 SWAP2 POP POP JUMP JUMPDEST PUSH1 0x0 DUP2 SWAP1 POP SWAP2 SWAP1 POP JUMP JUMPDEST PUSH2 0x3622 DUP2 PUSH2 0x360F JUMP JUMPDEST DUP3 MSTORE POP POP JUMP JUMPDEST PUSH1 0x0 DUP2 ISZERO ISZERO SWAP1 POP SWAP2 SWAP1 POP JUMP JUMPDEST PUSH2 0x363D DUP2 PUSH2 0x3628 JUMP JUMPDEST DUP3 MSTORE POP POP JUMP JUMPDEST PUSH1 0x0 PUSH20 0xFFFFFFFFFFFFFFFFFFFFFFFFFFFFFFFFFFFFFFFF DUP3 AND SWAP1 POP SWAP2 SWAP1 POP JUMP JUMPDEST PUSH1 0x0 PUSH2 0x366E DUP3 PUSH2 0x3643 JUMP JUMPDEST SWAP1 POP SWAP2 SWAP1 POP JUMP JUMPDEST PUSH2 0x367E DUP2 PUSH2 0x3663 JUMP JUMPDEST DUP3 MSTORE POP POP JUMP JUMPDEST PUSH1 0x0 PUSH2 0x180 DUP3 ADD SWAP1 POP PUSH2 0x369A PUSH1 0x0 DUP4 ADD DUP16 PUSH2 0x3570 JUMP JUMPDEST PUSH2 0x36A7 PUSH1 0x20 DUP4 ADD DUP15 PUSH2 0x3570 JUMP JUMPDEST PUSH2 0x36B4 PUSH1 0x40 DUP4 ADD DUP14 PUSH2 0x3570 JUMP JUMPDEST PUSH2 0x36C1 PUSH1 0x60 DUP4 ADD DUP13 PUSH2 0x3570 JUMP JUMPDEST DUP2 DUP2 SUB PUSH1 0x80 DUP4 ADD MSTORE PUSH2 0x36D3 DUP2 DUP12 PUSH2 0x35D6 JUMP JUMPDEST SWAP1 POP PUSH2 0x36E2 PUSH1 0xA0 DUP4 ADD DUP11 PUSH2 0x3619 JUMP JUMPDEST DUP2 DUP2 SUB PUSH1 0xC0 DUP4 ADD MSTORE PUSH2 0x36F4 DUP2 DUP10 PUSH2 0x35D6 JUMP JUMPDEST SWAP1 POP DUP2 DUP2 SUB PUSH1 0xE0 DUP4 ADD MSTORE PUSH2 0x3708 DUP2 DUP9 PUSH2 0x35D6 JUMP JUMPDEST SWAP1 POP PUSH2 0x3718 PUSH2 0x100 DUP4 ADD DUP8 PUSH2 0x3634 JUMP JUMPDEST PUSH2 0x3726 PUSH2 0x120 DUP4 ADD DUP7 PUSH2 0x3675 JUMP JUMPDEST PUSH2 0x3734 PUSH2 0x140 DUP4 ADD DUP6 PUSH2 0x3570 JUMP JUMPDEST PUSH2 0x3742 PUSH2 0x160 DUP4 ADD DUP5 PUSH2 0x3570 JUMP JUMPDEST SWAP14 SWAP13 POP POP POP POP POP POP POP POP POP POP POP POP POP JUMP JUMPDEST PUSH2 0x375C DUP2 PUSH2 0x3628 JUMP JUMPDEST DUP2 EQ PUSH2 0x3767 JUMPI PUSH1 0x0 DUP1 REVERT JUMPDEST POP JUMP JUMPDEST PUSH1 0x0 DUP2 CALLDATALOAD SWAP1 POP PUSH2 0x3779 DUP2 PUSH2 0x3753 JUMP JUMPDEST SWAP3 SWAP2 POP POP JUMP JUMPDEST PUSH1 0x0 DUP1 PUSH1 0x0 PUSH1 0x60 DUP5 DUP7 SUB SLT ISZERO PUSH2 0x3798 JUMPI PUSH2 0x3797 PUSH2 0x3503 JUMP JUMPDEST JUMPDEST PUSH1 0x0 PUSH2 0x37A6 DUP7 DUP3 DUP8 ADD PUSH2 0x352E JUMP JUMPDEST SWAP4 POP POP PUSH1 0x20 PUSH2 0x37B7 DUP7 DUP3 DUP8 ADD PUSH2 0x352E JUMP JUMPDEST SWAP3 POP POP PUSH1 0x40 PUSH2 0x37C8 DUP7 DUP3 DUP8 ADD PUSH2 0x376A JUMP JUMPDEST SWAP2 POP POP SWAP3 POP SWAP3 POP SWAP3 JUMP JUMPDEST PUSH1 0x0 DUP1 PUSH1 0x0 PUSH1 0x60 DUP5 DUP7 SUB SLT ISZERO PUSH2 0x37EB JUMPI PUSH2 0x37EA PUSH2 0x3503 JUMP JUMPDEST JUMPDEST PUSH1 0x0 PUSH2 0x37F9 DUP7 DUP3 DUP8 ADD PUSH2 0x352E JUMP JUMPDEST SWAP4 POP POP PUSH1 0x20 PUSH2 0x380A DUP7 DUP3 DUP8 ADD PUSH2 0x352E JUMP JUMPDEST SWAP3 POP POP PUSH1 0x40 PUSH2 0x381B DUP7 DUP3 DUP8 ADD PUSH2 0x352E JUMP JUMPDEST SWAP2 POP POP SWAP3 POP SWAP3 POP SWAP3 JUMP JUMPDEST PUSH2 0x382E DUP2 PUSH2 0x3663 JUMP JUMPDEST DUP2 EQ PUSH2 0x3839 JUMPI PUSH1 0x0 DUP1 REVERT JUMPDEST POP JUMP JUMPDEST PUSH1 0x0 DUP2 CALLDATALOAD SWAP1 POP PUSH2 0x384B DUP2 PUSH2 0x3825 JUMP JUMPDEST SWAP3 SWAP2 POP POP JUMP JUMPDEST PUSH1 0x0 PUSH1 0x20 DUP3 DUP5 SUB SLT ISZERO PUSH2 0x3867 JUMPI PUSH2 0x3866 PUSH2 0x3503 JUMP JUMPDEST JUMPDEST PUSH1 0x0 PUSH2 0x3875 DUP5 DUP3 DUP6 ADD PUSH2 0x383C JUMP JUMPDEST SWAP2 POP POP SWAP3 SWAP2 POP POP JUMP JUMPDEST PUSH1 0x0 DUP1 PUSH1 0x40 DUP4 DUP6 SUB SLT ISZERO PUSH2 0x3895 JUMPI PUSH2 0x3894 PUSH2 0x3503 JUMP JUMPDEST JUMPDEST PUSH1 0x0 PUSH2 0x38A3 DUP6 DUP3 DUP7 ADD PUSH2 0x352E JUMP JUMPDEST SWAP3 POP POP PUSH1 0x20 PUSH2 0x38B4 DUP6 DUP3 DUP7 ADD PUSH2 0x352E JUMP JUMPDEST SWAP2 POP POP SWAP3 POP SWAP3 SWAP1 POP JUMP JUMPDEST PUSH1 0x0 PUSH1 0x20 DUP3 ADD SWAP1 POP PUSH2 0x38D3 PUSH1 0x0 DUP4 ADD DUP5 PUSH2 0x3570 JUMP JUMPDEST SWAP3 SWAP2 POP POP JUMP JUMPDEST PUSH1 0x0 DUP2 MLOAD SWAP1 POP SWAP2 SWAP1 POP JUMP JUMPDEST PUSH1 0x0 DUP3 DUP3 MSTORE PUSH1 0x20 DUP3 ADD SWAP1 POP SWAP3 SWAP2 POP POP JUMP JUMPDEST PUSH1 0x0 DUP2 SWAP1 POP PUSH1 0x20 DUP3 ADD SWAP1 POP SWAP2 SWAP1 POP JUMP JUMPDEST PUSH2 0x390E DUP2 PUSH2 0x350D JUMP JUMPDEST DUP3 MSTORE POP POP JUMP JUMPDEST PUSH2 0x391D DUP2 PUSH2 0x3663 JUMP JUMPDEST DUP3 MSTORE POP POP JUMP JUMPDEST PUSH2 0x392C DUP2 PUSH2 0x3628 JUMP JUMPDEST DUP3 MSTORE POP POP JUMP JUMPDEST PUSH2 0x180 DUP3 ADD PUSH1 0x0 DUP3 ADD MLOAD PUSH2 0x3949 PUSH1 0x0 DUP6 ADD DUP3 PUSH2 0x3905 JUMP JUMPDEST POP PUSH1 0x20 DUP3 ADD MLOAD PUSH2 0x395C PUSH1 0x20 DUP6 ADD DUP3 PUSH2 0x3905 JUMP JUMPDEST POP PUSH1 0x40 DUP3 ADD MLOAD PUSH2 0x396F PUSH1 0x40 DUP6 ADD DUP3 PUSH2 0x3905 JUMP JUMPDEST POP PUSH1 0x60 DUP3 ADD MLOAD PUSH2 0x3982 PUSH1 0x60 DUP6 ADD DUP3 PUSH2 0x3905 JUMP JUMPDEST POP PUSH1 0x80 DUP3 ADD MLOAD PUSH2 0x3995 PUSH1 0x80 DUP6 ADD DUP3 PUSH2 0x3914 JUMP JUMPDEST POP PUSH1 0xA0 DUP3 ADD MLOAD PUSH2 0x39A8 PUSH1 0xA0 DUP6 ADD DUP3 PUSH2 0x3923 JUMP JUMPDEST POP PUSH1 0xC0 DUP3 ADD MLOAD PUSH2 0x39BB PUSH1 0xC0 DUP6 ADD DUP3 PUSH2 0x3923 JUMP JUMPDEST POP PUSH1 0xE0 DUP3 ADD MLOAD PUSH2 0x39CE PUSH1 0xE0 DUP6 ADD DUP3 PUSH2 0x3923 JUMP JUMPDEST POP PUSH2 0x100 DUP3 ADD MLOAD PUSH2 0x39E3 PUSH2 0x100 DUP6 ADD DUP3 PUSH2 0x3923 JUMP JUMPDEST POP PUSH2 0x120 DUP3 ADD MLOAD PUSH2 0x39F8 PUSH2 0x120 DUP6 ADD DUP3 PUSH2 0x3923 JUMP JUMPDEST POP PUSH2 0x140 DUP3 ADD MLOAD PUSH2 0x3A0D PUSH2 0x140 DUP6 ADD DUP3 PUSH2 0x3923 JUMP JUMPDEST POP PUSH2 0x160 DUP3 ADD MLOAD PUSH2 0x3A22 PUSH2 0x160 DUP6 ADD DUP3 PUSH2 0x3923 JUMP JUMPDEST POP POP POP POP JUMP JUMPDEST PUSH1 0x0 PUSH2 0x3A34 DUP4 DUP4 PUSH2 0x3932 JUMP JUMPDEST PUSH2 0x180 DUP4 ADD SWAP1 POP SWAP3 SWAP2 POP POP JUMP JUMPDEST PUSH1 0x0 PUSH1 0x20 DUP3 ADD SWAP1 POP SWAP2 SWAP1 POP JUMP JUMPDEST PUSH1 0x0 PUSH2 0x3A59 DUP3 PUSH2 0x38D9 JUMP JUMPDEST PUSH2 0x3A63 DUP2 DUP6 PUSH2 0x38E4 JUMP JUMPDEST SWAP4 POP PUSH2 0x3A6E DUP4 PUSH2 0x38F5 JUMP JUMPDEST DUP1 PUSH1 0x0 JUMPDEST DUP4 DUP2 LT ISZERO PUSH2 0x3A9F JUMPI DUP2 MLOAD PUSH2 0x3A86 DUP9 DUP3 PUSH2 0x3A28 JUMP JUMPDEST SWAP8 POP PUSH2 0x3A91 DUP4 PUSH2 0x3A41 JUMP JUMPDEST SWAP3 POP POP PUSH1 0x1 DUP2 ADD SWAP1 POP PUSH2 0x3A72 JUMP JUMPDEST POP DUP6 SWAP4 POP POP POP POP SWAP3 SWAP2 POP POP JUMP JUMPDEST PUSH1 0x0 PUSH1 0x20 DUP3 ADD SWAP1 POP DUP2 DUP2 SUB PUSH1 0x0 DUP4 ADD MSTORE PUSH2 0x3AC6 DUP2 DUP5 PUSH2 0x3A4E JUMP JUMPDEST SWAP1 POP SWAP3 SWAP2 POP POP JUMP JUMPDEST PUSH1 0x0 DUP1 PUSH1 0x40 DUP4 DUP6 SUB SLT ISZERO PUSH2 0x3AE5 JUMPI PUSH2 0x3AE4 PUSH2 0x3503 JUMP JUMPDEST JUMPDEST PUSH1 0x0 PUSH2 0x3AF3 DUP6 DUP3 DUP7 ADD PUSH2 0x383C JUMP JUMPDEST SWAP3 POP POP PUSH1 0x20 PUSH2 0x3B04 DUP6 DUP3 DUP7 ADD PUSH2 0x352E JUMP JUMPDEST SWAP2 POP POP SWAP3 POP SWAP3 SWAP1 POP JUMP JUMPDEST PUSH1 0x0 PUSH1 0x40 DUP3 ADD SWAP1 POP PUSH2 0x3B23 PUSH1 0x0 DUP4 ADD DUP6 PUSH2 0x3570 JUMP JUMPDEST PUSH2 0x3B30 PUSH1 0x20 DUP4 ADD DUP5 PUSH2 0x3570 JUMP JUMPDEST SWAP4 SWAP3 POP POP POP JUMP JUMPDEST PUSH1 0x0 DUP2 MLOAD SWAP1 POP SWAP2 SWAP1 POP JUMP JUMPDEST PUSH1 0x0 DUP3 DUP3 MSTORE PUSH1 0x20 DUP3 ADD SWAP1 POP SWAP3 SWAP2 POP POP JUMP JUMPDEST PUSH1 0x0 DUP2 SWAP1 POP PUSH1 0x20 DUP3 ADD SWAP1 POP SWAP2 SWAP1 POP JUMP JUMPDEST PUSH1 0x0 PUSH2 0x3B6F DUP4 DUP4 PUSH2 0x3905 JUMP JUMPDEST PUSH1 0x20 DUP4 ADD SWAP1 POP SWAP3 SWAP2 POP POP JUMP JUMPDEST PUSH1 0x0 PUSH1 0x20 DUP3 ADD SWAP1 POP SWAP2 SWAP1 POP JUMP JUMPDEST PUSH1 0x0 PUSH2 0x3B93 DUP3 PUSH2 0x3B37 JUMP JUMPDEST PUSH2 0x3B9D DUP2 DUP6 PUSH2 0x3B42 JUMP JUMPDEST SWAP4 POP PUSH2 0x3BA8 DUP4 PUSH2 0x3B53 JUMP JUMPDEST DUP1 PUSH1 0x0 JUMPDEST DUP4 DUP2 LT ISZERO PUSH2 0x3BD9 JUMPI DUP2 MLOAD PUSH2 0x3BC0 DUP9 DUP3 PUSH2 0x3B63 JUMP JUMPDEST SWAP8 POP PUSH2 0x3BCB DUP4 PUSH2 0x3B7B JUMP JUMPDEST SWAP3 POP POP PUSH1 0x1 DUP2 ADD SWAP1 POP PUSH2 0x3BAC JUMP JUMPDEST POP DUP6 SWAP4 POP POP POP POP SWAP3 SWAP2 POP POP JUMP JUMPDEST PUSH1 0x0 PUSH1 0x20 DUP3 ADD SWAP1 POP DUP2 DUP2 SUB PUSH1 0x0 DUP4 ADD MSTORE PUSH2 0x3C00 DUP2 DUP5 PUSH2 0x3B88 JUMP JUMPDEST SWAP1 POP SWAP3 SWAP2 POP POP JUMP JUMPDEST PUSH1 0x0 PUSH1 0x20 DUP3 ADD SWAP1 POP PUSH2 0x3C1D PUSH1 0x0 DUP4 ADD DUP5 PUSH2 0x3675 JUMP JUMPDEST SWAP3 SWAP2 POP POP JUMP JUMPDEST PUSH1 0x0 DUP1 REVERT JUMPDEST PUSH1 0x0 DUP1 REVERT JUMPDEST PUSH32 0x4E487B7100000000000000000000000000000000000000000000000000000000 PUSH1 0x0 MSTORE PUSH1 0x41 PUSH1 0x4 MSTORE PUSH1 0x24 PUSH1 0x0 REVERT JUMPDEST PUSH2 0x3C65 DUP3 PUSH2 0x35C5 JUMP JUMPDEST DUP2 ADD DUP2 DUP2 LT PUSH8 0xFFFFFFFFFFFFFFFF DUP3 GT OR ISZERO PUSH2 0x3C84 JUMPI PUSH2 0x3C83 PUSH2 0x3C2D JUMP JUMPDEST JUMPDEST DUP1 PUSH1 0x40 MSTORE POP POP POP JUMP JUMPDEST PUSH1 0x0 PUSH2 0x3C97 PUSH2 0x34F9 JUMP JUMPDEST SWAP1 POP PUSH2 0x3CA3 DUP3 DUP3 PUSH2 0x3C5C JUMP JUMPDEST SWAP2 SWAP1 POP JUMP JUMPDEST PUSH1 0x0 PUSH8 0xFFFFFFFFFFFFFFFF DUP3 GT ISZERO PUSH2 0x3CC3 JUMPI PUSH2 0x3CC2 PUSH2 0x3C2D JUMP JUMPDEST JUMPDEST PUSH2 0x3CCC DUP3 PUSH2 0x35C5 JUMP JUMPDEST SWAP1 POP PUSH1 0x20 DUP2 ADD SWAP1 POP SWAP2 SWAP1 POP JUMP JUMPDEST DUP3 DUP2 DUP4 CALLDATACOPY PUSH1 0x0 DUP4 DUP4 ADD MSTORE POP POP POP JUMP JUMPDEST PUSH1 0x0 PUSH2 0x3CFB PUSH2 0x3CF6 DUP5 PUSH2 0x3CA8 JUMP JUMPDEST PUSH2 0x3C8D JUMP JUMPDEST SWAP1 POP DUP3 DUP2 MSTORE PUSH1 0x20 DUP2 ADD DUP5 DUP5 DUP5 ADD GT ISZERO PUSH2 0x3D17 JUMPI PUSH2 0x3D16 PUSH2 0x3C28 JUMP JUMPDEST JUMPDEST PUSH2 0x3D22 DUP5 DUP3 DUP6 PUSH2 0x3CD9 JUMP JUMPDEST POP SWAP4 SWAP3 POP POP POP JUMP JUMPDEST PUSH1 0x0 DUP3 PUSH1 0x1F DUP4 ADD SLT PUSH2 0x3D3F JUMPI PUSH2 0x3D3E PUSH2 0x3C23 JUMP JUMPDEST JUMPDEST DUP2 CALLDATALOAD PUSH2 0x3D4F DUP5 DUP3 PUSH1 0x20 DUP7 ADD PUSH2 0x3CE8 JUMP JUMPDEST SWAP2 POP POP SWAP3 SWAP2 POP POP JUMP JUMPDEST PUSH2 0x3D61 DUP2 PUSH2 0x360F JUMP JUMPDEST DUP2 EQ PUSH2 0x3D6C JUMPI PUSH1 0x0 DUP1 REVERT JUMPDEST POP JUMP JUMPDEST PUSH1 0x0 DUP2 CALLDATALOAD SWAP1 POP PUSH2 0x3D7E DUP2 PUSH2 0x3D58 JUMP JUMPDEST SWAP3 SWAP2 POP POP JUMP JUMPDEST PUSH1 0x0 DUP1 PUSH1 0x0 DUP1 PUSH1 0x0 DUP1 PUSH1 0x0 DUP1 PUSH1 0x0 PUSH2 0x120 DUP11 DUP13 SUB SLT ISZERO PUSH2 0x3DA7 JUMPI PUSH2 0x3DA6 PUSH2 0x3503 JUMP JUMPDEST JUMPDEST PUSH1 0x0 PUSH2 0x3DB5 DUP13 DUP3 DUP14 ADD PUSH2 0x352E JUMP JUMPDEST SWAP10 POP POP PUSH1 0x20 PUSH2 0x3DC6 DUP13 DUP3 DUP14 ADD PUSH2 0x352E JUMP JUMPDEST SWAP9 POP POP PUSH1 0x40 DUP11 ADD CALLDATALOAD PUSH8 0xFFFFFFFFFFFFFFFF DUP2 GT ISZERO PUSH2 0x3DE7 JUMPI PUSH2 0x3DE6 PUSH2 0x3508 JUMP JUMPDEST JUMPDEST PUSH2 0x3DF3 DUP13 DUP3 DUP14 ADD PUSH2 0x3D2A JUMP JUMPDEST SWAP8 POP POP PUSH1 0x60 PUSH2 0x3E04 DUP13 DUP3 DUP14 ADD PUSH2 0x3D6F JUMP JUMPDEST SWAP7 POP POP PUSH1 0x80 DUP11 ADD CALLDATALOAD PUSH8 0xFFFFFFFFFFFFFFFF DUP2 GT ISZERO PUSH2 0x3E25 JUMPI PUSH2 0x3E24 PUSH2 0x3508 JUMP JUMPDEST JUMPDEST PUSH2 0x3E31 DUP13 DUP3 DUP14 ADD PUSH2 0x3D2A JUMP JUMPDEST SWAP6 POP POP PUSH1 0xA0 DUP11 ADD CALLDATALOAD PUSH8 0xFFFFFFFFFFFFFFFF DUP2 GT ISZERO PUSH2 0x3E52 JUMPI PUSH2 0x3E51 PUSH2 0x3508 JUMP JUMPDEST JUMPDEST PUSH2 0x3E5E DUP13 DUP3 DUP14 ADD PUSH2 0x3D2A JUMP JUMPDEST SWAP5 POP POP PUSH1 0xC0 PUSH2 0x3E6F DUP13 DUP3 DUP14 ADD PUSH2 0x383C JUMP JUMPDEST SWAP4 POP POP PUSH1 0xE0 PUSH2 0x3E80 DUP13 DUP3 DUP14 ADD PUSH2 0x352E JUMP JUMPDEST SWAP3 POP POP PUSH2 0x100 PUSH2 0x3E92 DUP13 DUP3 DUP14 ADD PUSH2 0x352E JUMP JUMPDEST SWAP2 POP POP SWAP3 SWAP6 SWAP9 POP SWAP3 SWAP6 SWAP9 POP SWAP3 SWAP6 SWAP9 JUMP JUMPDEST PUSH1 0x0 DUP2 SWAP1 POP SWAP2 SWAP1 POP JUMP JUMPDEST PUSH1 0x0 PUSH2 0x3EC7 PUSH2 0x3EC2 PUSH2 0x3EBD DUP5 PUSH2 0x3643 JUMP JUMPDEST PUSH2 0x3EA2 JUMP JUMPDEST PUSH2 0x3643 JUMP JUMPDEST SWAP1 POP SWAP2 SWAP1 POP JUMP JUMPDEST PUSH1 0x0 PUSH2 0x3ED9 DUP3 PUSH2 0x3EAC JUMP JUMPDEST SWAP1 POP SWAP2 SWAP1 POP JUMP JUMPDEST PUSH1 0x0 PUSH2 0x3EEB DUP3 PUSH2 0x3ECE JUMP JUMPDEST SWAP1 POP SWAP2 SWAP1 POP JUMP JUMPDEST PUSH2 0x3EFB DUP2 PUSH2 0x3EE0 JUMP JUMPDEST DUP3 MSTORE POP POP JUMP JUMPDEST PUSH1 0x0 PUSH1 0x20 DUP3 ADD SWAP1 POP PUSH2 0x3F16 PUSH1 0x0 DUP4 ADD DUP5 PUSH2 0x3EF2 JUMP JUMPDEST SWAP3 SWAP2 POP POP JUMP JUMPDEST PUSH2 0x180 DUP3 ADD PUSH1 0x0 DUP3 ADD MLOAD PUSH2 0x3F33 PUSH1 0x0 DUP6 ADD DUP3 PUSH2 0x3905 JUMP JUMPDEST POP PUSH1 0x20 DUP3 ADD MLOAD PUSH2 0x3F46 PUSH1 0x20 DUP6 ADD DUP3 PUSH2 0x3905 JUMP JUMPDEST POP PUSH1 0x40 DUP3 ADD MLOAD PUSH2 0x3F59 PUSH1 0x40 DUP6 ADD DUP3 PUSH2 0x3905 JUMP JUMPDEST POP PUSH1 0x60 DUP3 ADD MLOAD PUSH2 0x3F6C PUSH1 0x60 DUP6 ADD DUP3 PUSH2 0x3905 JUMP JUMPDEST POP PUSH1 0x80 DUP3 ADD MLOAD PUSH2 0x3F7F PUSH1 0x80 DUP6 ADD DUP3 PUSH2 0x3914 JUMP JUMPDEST POP PUSH1 0xA0 DUP3 ADD MLOAD PUSH2 0x3F92 PUSH1 0xA0 DUP6 ADD DUP3 PUSH2 0x3923 JUMP JUMPDEST POP PUSH1 0xC0 DUP3 ADD MLOAD PUSH2 0x3FA5 PUSH1 0xC0 DUP6 ADD DUP3 PUSH2 0x3923 JUMP JUMPDEST POP PUSH1 0xE0 DUP3 ADD MLOAD PUSH2 0x3FB8 PUSH1 0xE0 DUP6 ADD DUP3 PUSH2 0x3923 JUMP JUMPDEST POP PUSH2 0x100 DUP3 ADD MLOAD PUSH2 0x3FCD PUSH2 0x100 DUP6 ADD DUP3 PUSH2 0x3923 JUMP JUMPDEST POP PUSH2 0x120 DUP3 ADD MLOAD PUSH2 0x3FE2 PUSH2 0x120 DUP6 ADD DUP3 PUSH2 0x3923 JUMP JUMPDEST POP PUSH2 0x140 DUP3 ADD MLOAD PUSH2 0x3FF7 PUSH2 0x140 DUP6 ADD DUP3 PUSH2 0x3923 JUMP JUMPDEST POP PUSH2 0x160 DUP3 ADD MLOAD PUSH2 0x400C PUSH2 0x160 DUP6 ADD DUP3 PUSH2 0x3923 JUMP JUMPDEST POP POP POP POP JUMP JUMPDEST PUSH1 0x0 PUSH2 0x180 DUP3 ADD SWAP1 POP PUSH2 0x4028 PUSH1 0x0 DUP4 ADD DUP5 PUSH2 0x3F1C JUMP JUMPDEST SWAP3 SWAP2 POP POP JUMP JUMPDEST PUSH1 0x0 DUP3 DUP3 MSTORE PUSH1 0x20 DUP3 ADD SWAP1 POP SWAP3 SWAP2 POP POP JUMP JUMPDEST PUSH1 0x0 PUSH2 0x404A DUP3 PUSH2 0x357F JUMP JUMPDEST PUSH2 0x4054 DUP2 DUP6 PUSH2 0x402E JUMP JUMPDEST SWAP4 POP PUSH2 0x4064 DUP2 DUP6 PUSH1 0x20 DUP7 ADD PUSH2 0x359B JUMP JUMPDEST PUSH2 0x406D DUP2 PUSH2 0x35C5 JUMP JUMPDEST DUP5 ADD SWAP2 POP POP SWAP3 SWAP2 POP POP JUMP JUMPDEST PUSH2 0x4081 DUP2 PUSH2 0x360F JUMP JUMPDEST DUP3 MSTORE POP POP JUMP JUMPDEST PUSH1 0x0 PUSH2 0x180 DUP4 ADD PUSH1 0x0 DUP4 ADD MLOAD PUSH2 0x40A0 PUSH1 0x0 DUP7 ADD DUP3 PUSH2 0x3905 JUMP JUMPDEST POP PUSH1 0x20 DUP4 ADD MLOAD PUSH2 0x40B3 PUSH1 0x20 DUP7 ADD DUP3 PUSH2 0x3905 JUMP JUMPDEST POP PUSH1 0x40 DUP4 ADD MLOAD PUSH2 0x40C6 PUSH1 0x40 DUP7 ADD DUP3 PUSH2 0x3905 JUMP JUMPDEST POP PUSH1 0x60 DUP4 ADD MLOAD PUSH2 0x40D9 PUSH1 0x60 DUP7 ADD DUP3 PUSH2 0x3905 JUMP JUMPDEST POP PUSH1 0x80 DUP4 ADD MLOAD DUP5 DUP3 SUB PUSH1 0x80 DUP7 ADD MSTORE PUSH2 0x40F1 DUP3 DUP3 PUSH2 0x403F JUMP JUMPDEST SWAP2 POP POP PUSH1 0xA0 DUP4 ADD MLOAD PUSH2 0x4106 PUSH1 0xA0 DUP7 ADD DUP3 PUSH2 0x4078 JUMP JUMPDEST POP PUSH1 0xC0 DUP4 ADD MLOAD DUP5 DUP3 SUB PUSH1 0xC0 DUP7 ADD MSTORE PUSH2 0x411E DUP3 DUP3 PUSH2 0x403F JUMP JUMPDEST SWAP2 POP POP PUSH1 0xE0 DUP4 ADD MLOAD DUP5 DUP3 SUB PUSH1 0xE0 DUP7 ADD MSTORE PUSH2 0x4138 DUP3 DUP3 PUSH2 0x403F JUMP JUMPDEST SWAP2 POP POP PUSH2 0x100 DUP4 ADD MLOAD PUSH2 0x414F PUSH2 0x100 DUP7 ADD DUP3 PUSH2 0x3923 JUMP JUMPDEST POP PUSH2 0x120 DUP4 ADD MLOAD PUSH2 0x4164 PUSH2 0x120 DUP7 ADD DUP3 PUSH2 0x3914 JUMP JUMPDEST POP PUSH2 0x140 DUP4 ADD MLOAD PUSH2 0x4179 PUSH2 0x140 DUP7 ADD DUP3 PUSH2 0x3905 JUMP JUMPDEST POP PUSH2 0x160 DUP4 ADD MLOAD PUSH2 0x418E PUSH2 0x160 DUP7 ADD DUP3 PUSH2 0x3905 JUMP JUMPDEST POP DUP1 SWAP2 POP POP SWAP3 SWAP2 POP POP JUMP JUMPDEST PUSH1 0x0 PUSH1 0x20 DUP3 ADD SWAP1 POP DUP2 DUP2 SUB PUSH1 0x0 DUP4 ADD MSTORE PUSH2 0x41B3 DUP2 DUP5 PUSH2 0x4087 JUMP JUMPDEST SWAP1 POP SWAP3 SWAP2 POP POP JUMP JUMPDEST PUSH1 0x0 DUP1 PUSH1 0x0 PUSH1 0x60 DUP5 DUP7 SUB SLT ISZERO PUSH2 0x41D4 JUMPI PUSH2 0x41D3 PUSH2 0x3503 JUMP JUMPDEST JUMPDEST PUSH1 0x0 PUSH2 0x41E2 DUP7 DUP3 DUP8 ADD PUSH2 0x352E JUMP JUMPDEST SWAP4 POP POP PUSH1 0x20 PUSH2 0x41F3 DUP7 DUP3 DUP8 ADD PUSH2 0x352E JUMP JUMPDEST SWAP3 POP POP PUSH1 0x40 PUSH2 0x4204 DUP7 DUP3 DUP8 ADD PUSH2 0x383C JUMP JUMPDEST SWAP2 POP POP SWAP3 POP SWAP3 POP SWAP3 JUMP JUMPDEST PUSH1 0x0 PUSH2 0x180 DUP3 ADD SWAP1 POP PUSH2 0x4224 PUSH1 0x0 DUP4 ADD DUP16 PUSH2 0x3570 JUMP JUMPDEST PUSH2 0x4231 PUSH1 0x20 DUP4 ADD DUP15 PUSH2 0x3570 JUMP JUMPDEST PUSH2 0x423E PUSH1 0x40 DUP4 ADD DUP14 PUSH2 0x3570 JUMP JUMPDEST PUSH2 0x424B PUSH1 0x60 DUP4 ADD DUP13 PUSH2 0x3570 JUMP JUMPDEST PUSH2 0x4258 PUSH1 0x80 DUP4 ADD DUP12 PUSH2 0x3675 JUMP JUMPDEST PUSH2 0x4265 PUSH1 0xA0 DUP4 ADD DUP11 PUSH2 0x3634 JUMP JUMPDEST PUSH2 0x4272 PUSH1 0xC0 DUP4 ADD DUP10 PUSH2 0x3634 JUMP JUMPDEST PUSH2 0x427F PUSH1 0xE0 DUP4 ADD DUP9 PUSH2 0x3634 JUMP JUMPDEST PUSH2 0x428D PUSH2 0x100 DUP4 ADD DUP8 PUSH2 0x3634 JUMP JUMPDEST PUSH2 0x429B PUSH2 0x120 DUP4 ADD DUP7 PUSH2 0x3634 JUMP JUMPDEST PUSH2 0x42A9 PUSH2 0x140 DUP4 ADD DUP6 PUSH2 0x3634 JUMP JUMPDEST PUSH2 0x42B7 PUSH2 0x160 DUP4 ADD DUP5 PUSH2 0x3634 JUMP JUMPDEST SWAP14 SWAP13 POP POP POP POP POP POP POP POP POP POP POP POP POP JUMP JUMPDEST PUSH32 0x4E487B7100000000000000000000000000000000000000000000000000000000 PUSH1 0x0 MSTORE PUSH1 0x22 PUSH1 0x4 MSTORE PUSH1 0x24 PUSH1 0x0 REVERT JUMPDEST PUSH1 0x0 PUSH1 0x2 DUP3 DIV SWAP1 POP PUSH1 0x1 DUP3 AND DUP1 PUSH2 0x430F JUMPI PUSH1 0x7F DUP3 AND SWAP2 POP JUMPDEST PUSH1 0x20 DUP3 LT DUP2 SUB PUSH2 0x4322 JUMPI PUSH2 0x4321 PUSH2 0x42C8 JUMP JUMPDEST JUMPDEST POP SWAP2 SWAP1 POP JUMP JUMPDEST PUSH32 0x43616C6C6572206973206E6F7420746865206D61696E20636F6E747261637400 PUSH1 0x0 DUP3 ADD MSTORE POP JUMP JUMPDEST PUSH1 0x0 PUSH2 0x435E PUSH1 0x1F DUP4 PUSH2 0x358A JUMP JUMPDEST SWAP2 POP PUSH2 0x4369 DUP3 PUSH2 0x4328 JUMP JUMPDEST PUSH1 0x20 DUP3 ADD SWAP1 POP SWAP2 SWAP1 POP JUMP JUMPDEST PUSH1 0x0 PUSH1 0x20 DUP3 ADD SWAP1 POP DUP2 DUP2 SUB PUSH1 0x0 DUP4 ADD MSTORE PUSH2 0x438D DUP2 PUSH2 0x4351 JUMP JUMPDEST SWAP1 POP SWAP2 SWAP1 POP JUMP JUMPDEST PUSH32 0x50726F706F73616C206973206E6F742061637469766500000000000000000000 PUSH1 0x0 DUP3 ADD MSTORE POP JUMP JUMPDEST PUSH1 0x0 PUSH2 0x43CA PUSH1 0x16 DUP4 PUSH2 0x358A JUMP JUMPDEST SWAP2 POP PUSH2 0x43D5 DUP3 PUSH2 0x4394 JUMP JUMPDEST PUSH1 0x20 DUP3 ADD SWAP1 POP SWAP2 SWAP1 POP JUMP JUMPDEST PUSH1 0x0 PUSH1 0x20 DUP3 ADD SWAP1 POP DUP2 DUP2 SUB PUSH1 0x0 DUP4 ADD MSTORE PUSH2 0x43F9 DUP2 PUSH2 0x43BD JUMP JUMPDEST SWAP1 POP SWAP2 SWAP1 POP JUMP JUMPDEST PUSH32 0x426F74682C20427579657220616E642053656C6C65722073686F756C64207265 PUSH1 0x0 DUP3 ADD MSTORE PUSH32 0x71756573742063616E63656C6C6174696F6E206F662074686973207472616E73 PUSH1 0x20 DUP3 ADD MSTORE PUSH32 0x616374696F6E0000000000000000000000000000000000000000000000000000 PUSH1 0x40 DUP3 ADD MSTORE POP JUMP JUMPDEST PUSH1 0x0 PUSH2 0x4482 PUSH1 0x46 DUP4 PUSH2 0x358A JUMP JUMPDEST SWAP2 POP PUSH2 0x448D DUP3 PUSH2 0x4400 JUMP JUMPDEST PUSH1 0x60 DUP3 ADD SWAP1 POP SWAP2 SWAP1 POP JUMP JUMPDEST PUSH1 0x0 PUSH1 0x20 DUP3 ADD SWAP1 POP DUP2 DUP2 SUB PUSH1 0x0 DUP4 ADD MSTORE PUSH2 0x44B1 DUP2 PUSH2 0x4475 JUMP JUMPDEST SWAP1 POP SWAP2 SWAP1 POP JUMP JUMPDEST PUSH32 0x4E487B7100000000000000000000000000000000000000000000000000000000 PUSH1 0x0 MSTORE PUSH1 0x11 PUSH1 0x4 MSTORE PUSH1 0x24 PUSH1 0x0 REVERT JUMPDEST PUSH1 0x0 PUSH2 0x44F2 DUP3 PUSH2 0x350D JUMP JUMPDEST SWAP2 POP PUSH2 0x44FD DUP4 PUSH2 0x350D JUMP JUMPDEST SWAP3 POP DUP3 DUP3 ADD SWAP1 POP DUP1 DUP3 GT ISZERO PUSH2 0x4515 JUMPI PUSH2 0x4514 PUSH2 0x44B8 JUMP JUMPDEST JUMPDEST SWAP3 SWAP2 POP POP JUMP JUMPDEST PUSH32 0x4E487B7100000000000000000000000000000000000000000000000000000000 PUSH1 0x0 MSTORE PUSH1 0x32 PUSH1 0x4 MSTORE PUSH1 0x24 PUSH1 0x0 REVERT JUMPDEST PUSH1 0x0 PUSH2 0x4555 DUP3 PUSH2 0x350D JUMP JUMPDEST SWAP2 POP PUSH32 0xFFFFFFFFFFFFFFFFFFFFFFFFFFFFFFFFFFFFFFFFFFFFFFFFFFFFFFFFFFFFFFFF DUP3 SUB PUSH2 0x4587 JUMPI PUSH2 0x4586 PUSH2 0x44B8 JUMP JUMPDEST JUMPDEST PUSH1 0x1 DUP3 ADD SWAP1 POP SWAP2 SWAP1 POP JUMP JUMPDEST PUSH1 0x0 PUSH2 0x459D DUP3 PUSH2 0x350D JUMP JUMPDEST SWAP2 POP PUSH2 0x45A8 DUP4 PUSH2 0x350D JUMP JUMPDEST SWAP3 POP DUP3 DUP3 SUB SWAP1 POP DUP2 DUP2 GT ISZERO PUSH2 0x45C0 JUMPI PUSH2 0x45BF PUSH2 0x44B8 JUMP JUMPDEST JUMPDEST SWAP3 SWAP2 POP POP JUMP JUMPDEST PUSH32 0x43616E6E6F742064656C6574652070726F706F73616C20696620612062757965 PUSH1 0x0 DUP3 ADD MSTORE PUSH32 0x72207265717565737420686173206265656E20616363657074656420616E6420 PUSH1 0x20 DUP3 ADD MSTORE PUSH32 0x69742773207374696C6C20616374697665000000000000000000000000000000 PUSH1 0x40 DUP3 ADD MSTORE POP JUMP JUMPDEST PUSH1 0x0 PUSH2 0x4648 PUSH1 0x51 DUP4 PUSH2 0x358A JUMP JUMPDEST SWAP2 POP PUSH2 0x4653 DUP3 PUSH2 0x45C6 JUMP JUMPDEST PUSH1 0x60 DUP3 ADD SWAP1 POP SWAP2 SWAP1 POP JUMP JUMPDEST PUSH1 0x0 PUSH1 0x20 DUP3 ADD SWAP1 POP DUP2 DUP2 SUB PUSH1 0x0 DUP4 ADD MSTORE PUSH2 0x4677 DUP2 PUSH2 0x463B JUMP JUMPDEST SWAP1 POP SWAP2 SWAP1 POP JUMP JUMPDEST PUSH32 0x4E487B7100000000000000000000000000000000000000000000000000000000 PUSH1 0x0 MSTORE PUSH1 0x31 PUSH1 0x4 MSTORE PUSH1 0x24 PUSH1 0x0 REVERT JUMPDEST PUSH1 0x0 PUSH2 0x46B8 DUP3 PUSH2 0x350D JUMP JUMPDEST SWAP2 POP PUSH1 0x0 DUP3 SUB PUSH2 0x46CB JUMPI PUSH2 0x46CA PUSH2 0x44B8 JUMP JUMPDEST JUMPDEST PUSH1 0x1 DUP3 SUB SWAP1 POP SWAP2 SWAP1 POP JUMP JUMPDEST PUSH32 0x50726F706F73616C20646F6573206E6F74206578697374000000000000000000 PUSH1 0x0 DUP3 ADD MSTORE POP JUMP JUMPDEST PUSH1 0x0 PUSH2 0x470C PUSH1 0x17 DUP4 PUSH2 0x358A JUMP JUMPDEST SWAP2 POP PUSH2 0x4717 DUP3 PUSH2 0x46D6 JUMP JUMPDEST PUSH1 0x20 DUP3 ADD SWAP1 POP SWAP2 SWAP1 POP JUMP JUMPDEST PUSH1 0x0 PUSH1 0x20 DUP3 ADD SWAP1 POP DUP2 DUP2 SUB PUSH1 0x0 DUP4 ADD MSTORE PUSH2 0x473B DUP2 PUSH2 0x46FF JUMP JUMPDEST SWAP1 POP SWAP2 SWAP1 POP JUMP JUMPDEST PUSH1 0x0 DUP2 SWAP1 POP DUP2 PUSH1 0x0 MSTORE PUSH1 0x20 PUSH1 0x0 KECCAK256 SWAP1 POP SWAP2 SWAP1 POP JUMP JUMPDEST PUSH1 0x0 PUSH1 0x20 PUSH1 0x1F DUP4 ADD DIV SWAP1 POP SWAP2 SWAP1 POP JUMP JUMPDEST PUSH1 0x0 DUP3 DUP3 SHL SWAP1 POP SWAP3 SWAP2 POP POP JUMP JUMPDEST PUSH1 0x0 PUSH1 0x8 DUP4 MUL PUSH2 0x47A4 PUSH32 0xFFFFFFFFFFFFFFFFFFFFFFFFFFFFFFFFFFFFFFFFFFFFFFFFFFFFFFFFFFFFFFFF DUP3 PUSH2 0x4767 JUMP JUMPDEST PUSH2 0x47AE DUP7 DUP4 PUSH2 0x4767 JUMP JUMPDEST SWAP6 POP DUP1 NOT DUP5 AND SWAP4 POP DUP1 DUP7 AND DUP5 OR SWAP3 POP POP POP SWAP4 SWAP3 POP POP POP JUMP JUMPDEST PUSH1 0x0 PUSH2 0x47E1 PUSH2 0x47DC PUSH2 0x47D7 DUP5 PUSH2 0x350D JUMP JUMPDEST PUSH2 0x3EA2 JUMP JUMPDEST PUSH2 0x350D JUMP JUMPDEST SWAP1 POP SWAP2 SWAP1 POP JUMP JUMPDEST PUSH1 0x0 DUP2 SWAP1 POP SWAP2 SWAP1 POP JUMP JUMPDEST PUSH2 0x47FB DUP4 PUSH2 0x47C6 JUMP JUMPDEST PUSH2 0x480F PUSH2 0x4807 DUP3 PUSH2 0x47E8 JUMP JUMPDEST DUP5 DUP5 SLOAD PUSH2 0x4774 JUMP JUMPDEST DUP3 SSTORE POP POP POP POP JUMP JUMPDEST PUSH1 0x0 SWAP1 JUMP JUMPDEST PUSH2 0x4824 PUSH2 0x4817 JUMP JUMPDEST PUSH2 0x482F DUP2 DUP5 DUP5 PUSH2 0x47F2 JUMP JUMPDEST POP POP POP JUMP JUMPDEST JUMPDEST DUP2 DUP2 LT ISZERO PUSH2 0x4853 JUMPI PUSH2 0x4848 PUSH1 0x0 DUP3 PUSH2 0x481C JUMP JUMPDEST PUSH1 0x1 DUP2 ADD SWAP1 POP PUSH2 0x4835 JUMP JUMPDEST POP POP JUMP JUMPDEST PUSH1 0x1F DUP3 GT ISZERO PUSH2 0x4898 JUMPI PUSH2 0x4869 DUP2 PUSH2 0x4742 JUMP JUMPDEST PUSH2 0x4872 DUP5 PUSH2 0x4757 JUMP JUMPDEST DUP2 ADD PUSH1 0x20 DUP6 LT ISZERO PUSH2 0x4881 JUMPI DUP2 SWAP1 POP JUMPDEST PUSH2 0x4895 PUSH2 0x488D DUP6 PUSH2 0x4757 JUMP JUMPDEST DUP4 ADD DUP3 PUSH2 0x4834 JUMP JUMPDEST POP POP JUMPDEST POP POP POP JUMP JUMPDEST PUSH1 0x0 DUP3 DUP3 SHR SWAP1 POP SWAP3 SWAP2 POP POP JUMP JUMPDEST PUSH1 0x0 PUSH2 0x48BB PUSH1 0x0 NOT DUP5 PUSH1 0x8 MUL PUSH2 0x489D JUMP JUMPDEST NOT DUP1 DUP4 AND SWAP2 POP POP SWAP3 SWAP2 POP POP JUMP JUMPDEST PUSH1 0x0 PUSH2 0x48D4 DUP4 DUP4 PUSH2 0x48AA JUMP JUMPDEST SWAP2 POP DUP3 PUSH1 0x2 MUL DUP3 OR SWAP1 POP SWAP3 SWAP2 POP POP JUMP JUMPDEST PUSH2 0x48ED DUP3 PUSH2 0x357F JUMP JUMPDEST PUSH8 0xFFFFFFFFFFFFFFFF DUP2 GT ISZERO PUSH2 0x4906 JUMPI PUSH2 0x4905 PUSH2 0x3C2D JUMP JUMPDEST JUMPDEST PUSH2 0x4910 DUP3 SLOAD PUSH2 0x42F7 JUMP JUMPDEST PUSH2 0x491B DUP3 DUP3 DUP6 PUSH2 0x4857 JUMP JUMPDEST PUSH1 0x0 PUSH1 0x20 SWAP1 POP PUSH1 0x1F DUP4 GT PUSH1 0x1 DUP2 EQ PUSH2 0x494E JUMPI PUSH1 0x0 DUP5 ISZERO PUSH2 0x493C JUMPI DUP3 DUP8 ADD MLOAD SWAP1 POP JUMPDEST PUSH2 0x4946 DUP6 DUP3 PUSH2 0x48C8 JUMP JUMPDEST DUP7 SSTORE POP PUSH2 0x49AE JUMP JUMPDEST PUSH1 0x1F NOT DUP5 AND PUSH2 0x495C DUP7 PUSH2 0x4742 JUMP JUMPDEST PUSH1 0x0 JUMPDEST DUP3 DUP2 LT ISZERO PUSH2 0x4984 JUMPI DUP5 DUP10 ADD MLOAD DUP3 SSTORE PUSH1 0x1 DUP3 ADD SWAP2 POP PUSH1 0x20 DUP6 ADD SWAP5 POP PUSH1 0x20 DUP2 ADD SWAP1 POP PUSH2 0x495F JUMP JUMPDEST DUP7 DUP4 LT ISZERO PUSH2 0x49A1 JUMPI DUP5 DUP10 ADD MLOAD PUSH2 0x499D PUSH1 0x1F DUP10 AND DUP3 PUSH2 0x48AA JUMP JUMPDEST DUP4 SSTORE POP JUMPDEST PUSH1 0x1 PUSH1 0x2 DUP9 MUL ADD DUP9 SSTORE POP POP POP JUMPDEST POP POP POP POP POP POP JUMP JUMPDEST PUSH32 0x43616E6E6F742064656163746976617465207265717565737420616674657220 PUSH1 0x0 DUP3 ADD MSTORE PUSH32 0x73656C6C65722061636365707465640000000000000000000000000000000000 PUSH1 0x20 DUP3 ADD MSTORE POP JUMP JUMPDEST PUSH1 0x0 PUSH2 0x4A12 PUSH1 0x2F DUP4 PUSH2 0x358A JUMP JUMPDEST SWAP2 POP PUSH2 0x4A1D DUP3 PUSH2 0x49B6 JUMP JUMPDEST PUSH1 0x40 DUP3 ADD SWAP1 POP SWAP2 SWAP1 POP JUMP JUMPDEST PUSH1 0x0 PUSH1 0x20 DUP3 ADD SWAP1 POP DUP2 DUP2 SUB PUSH1 0x0 DUP4 ADD MSTORE PUSH2 0x4A41 DUP2 PUSH2 0x4A05 JUMP JUMPDEST SWAP1 POP SWAP2 SWAP1 POP JUMP JUMPDEST PUSH1 0x0 DUP2 MLOAD SWAP1 POP PUSH2 0x4A57 DUP2 PUSH2 0x3517 JUMP JUMPDEST SWAP3 SWAP2 POP POP JUMP JUMPDEST PUSH1 0x0 PUSH1 0x20 DUP3 DUP5 SUB SLT ISZERO PUSH2 0x4A73 JUMPI PUSH2 0x4A72 PUSH2 0x3503 JUMP JUMPDEST JUMPDEST PUSH1 0x0 PUSH2 0x4A81 DUP5 DUP3 DUP6 ADD PUSH2 0x4A48 JUMP JUMPDEST SWAP2 POP POP SWAP3 SWAP2 POP POP JUMP JUMPDEST PUSH32 0x4F776E61626C653A206E6577206F776E657220697320746865207A65726F2061 PUSH1 0x0 DUP3 ADD MSTORE PUSH32 0x6464726573730000000000000000000000000000000000000000000000000000 PUSH1 0x20 DUP3 ADD MSTORE POP JUMP JUMPDEST PUSH1 0x0 PUSH2 0x4AE6 PUSH1 0x26 DUP4 PUSH2 0x358A JUMP JUMPDEST SWAP2 POP PUSH2 0x4AF1 DUP3 PUSH2 0x4A8A JUMP JUMPDEST PUSH1 0x40 DUP3 ADD SWAP1 POP SWAP2 SWAP1 POP JUMP JUMPDEST PUSH1 0x0 PUSH1 0x20 DUP3 ADD SWAP1 POP DUP2 DUP2 SUB PUSH1 0x0 DUP4 ADD MSTORE PUSH2 0x4B15 DUP2 PUSH2 0x4AD9 JUMP JUMPDEST SWAP1 POP SWAP2 SWAP1 POP JUMP JUMPDEST PUSH32 0x4F776E61626C653A2063616C6C6572206973206E6F7420746865206F776E6572 PUSH1 0x0 DUP3 ADD MSTORE POP JUMP JUMPDEST PUSH1 0x0 PUSH2 0x4B52 PUSH1 0x20 DUP4 PUSH2 0x358A JUMP JUMPDEST SWAP2 POP PUSH2 0x4B5D DUP3 PUSH2 0x4B1C JUMP JUMPDEST PUSH1 0x20 DUP3 ADD SWAP1 POP SWAP2 SWAP1 POP JUMP JUMPDEST PUSH1 0x0 PUSH1 0x20 DUP3 ADD SWAP1 POP DUP2 DUP2 SUB PUSH1 0x0 DUP4 ADD MSTORE PUSH2 0x4B81 DUP2 PUSH2 0x4B45 JUMP JUMPDEST SWAP1 POP SWAP2 SWAP1 POP JUMP INVALID LOG2 PUSH5 0x6970667358 0x22 SLT KECCAK256 PUSH29 0x8B2E869449F8835678BA539D13DFC24DD0511CF8FF866F8D641DCE5923 PUSH5 0x2664736F6C PUSH4 0x43000813 STOP CALLER "
				},
				"gasEstimates": {
					"creation": {
						"codeDepositCost": "3878000",
						"executionCost": "infinite",
						"totalCost": "infinite"
					},
					"external": {
						"acceptBuyerRequest(uint256,uint256,uint256)": "infinite",
						"activeProposalCount()": "2475",
						"activeProposalIds(uint256)": "infinite",
						"buyerRequestIndicesByBuyer(address,uint256)": "infinite",
						"buyerRequests(uint256,uint256)": "infinite",
						"buyerRequestsLength(uint256)": "infinite",
						"changeProposalAndRequestDataUponCryptoRelease(uint256,uint256,uint256)": "infinite",
						"completedTransactionsContract()": "infinite",
						"confirmFiatPayment(uint256,uint256)": "infinite",
						"createProposal(uint256,uint256,string,bytes32,string,string,address,uint256,uint256)": "infinite",
						"deactivateBuyerRequest(uint256,uint256)": "infinite",
						"deactivateProposal(uint256)": "infinite",
						"deleteProposal(uint256)": "infinite",
						"getActiveProposalIds()": "infinite",
						"getActiveRequestsByBuyer(address)": "infinite",
						"getActiveRequestsByProposal(uint256)": "infinite",
						"getAllProposalIds()": "infinite",
						"getBuyerRequest(uint256,uint256)": "infinite",
						"getProposal(uint256)": "infinite",
						"getProposalCount()": "2570",
						"getRequestCountByProposal(uint256)": "infinite",
						"historicalProposalCount()": "2518",
						"mainContract()": "2603",
						"owner()": "2612",
						"processCancellation(uint256,uint256)": "infinite",
						"proposalCount()": "2473",
						"proposalIds(uint256)": "infinite",
						"proposals(uint256)": "infinite",
						"recordDisputeCreation(uint256,uint256)": "infinite",
						"recordEscrowReleaseAfterDispute(uint256,uint256,uint256)": "infinite",
						"recordRequestCancellation(uint256,uint256,bool)": "infinite",
						"renounceOwnership()": "30509",
						"requestToBuy(uint256,uint256,address)": "infinite",
						"setCompletedTransactionsContract(address)": "27099",
						"setMainContract(address)": "27098",
						"transferOwnership(address)": "30876"
					}
				},
				"methodIdentifiers": {
					"acceptBuyerRequest(uint256,uint256,uint256)": "100fe0ef",
					"activeProposalCount()": "76e43099",
					"activeProposalIds(uint256)": "50c9457c",
					"buyerRequestIndicesByBuyer(address,uint256)": "5a91d0bb",
					"buyerRequests(uint256,uint256)": "d6930c34",
					"buyerRequestsLength(uint256)": "38f49c1f",
					"changeProposalAndRequestDataUponCryptoRelease(uint256,uint256,uint256)": "e08169a5",
					"completedTransactionsContract()": "b7042e93",
					"confirmFiatPayment(uint256,uint256)": "3b3f573a",
					"createProposal(uint256,uint256,string,bytes32,string,string,address,uint256,uint256)": "8de7065c",
					"deactivateBuyerRequest(uint256,uint256)": "dbc718bd",
					"deactivateProposal(uint256)": "6bff47e6",
					"deleteProposal(uint256)": "8259d553",
					"getActiveProposalIds()": "71a1aea7",
					"getActiveRequestsByBuyer(address)": "4a4e108b",
					"getActiveRequestsByProposal(uint256)": "a282ad6c",
					"getAllProposalIds()": "efa90d36",
					"getBuyerRequest(uint256,uint256)": "b8606718",
					"getProposal(uint256)": "c7f758a8",
					"getProposalCount()": "c08cc02d",
					"getRequestCountByProposal(uint256)": "535e4bd6",
					"historicalProposalCount()": "6c1aa165",
					"mainContract()": "d270e7ab",
					"owner()": "8da5cb5b",
					"processCancellation(uint256,uint256)": "306975a0",
					"proposalCount()": "da35c664",
					"proposalIds(uint256)": "9b644a23",
					"proposals(uint256)": "013cf08b",
					"recordDisputeCreation(uint256,uint256)": "53b03389",
					"recordEscrowReleaseAfterDispute(uint256,uint256,uint256)": "61ef719c",
					"recordRequestCancellation(uint256,uint256,bool)": "03f0610d",
					"renounceOwnership()": "715018a6",
					"requestToBuy(uint256,uint256,address)": "cf2b98a5",
					"setCompletedTransactionsContract(address)": "2df15e0d",
					"setMainContract(address)": "3ded33bc",
					"transferOwnership(address)": "f2fde38b"
				}
			},
			"storageLayout": {
				"storage": [
					{
						"astId": 7,
						"contract": "contracts/proposalsAndRequests.sol:ProposalsAndRequests",
						"label": "_owner",
						"offset": 0,
						"slot": "0",
						"type": "t_address"
					},
					{
						"astId": 482,
						"contract": "contracts/proposalsAndRequests.sol:ProposalsAndRequests",
						"label": "mainContract",
						"offset": 0,
						"slot": "1",
						"type": "t_address"
					},
					{
						"astId": 485,
						"contract": "contracts/proposalsAndRequests.sol:ProposalsAndRequests",
						"label": "completedTransactionsContract",
						"offset": 0,
						"slot": "2",
						"type": "t_contract(ICompletedTransactions)470"
					},
					{
						"astId": 515,
						"contract": "contracts/proposalsAndRequests.sol:ProposalsAndRequests",
						"label": "proposals",
						"offset": 0,
						"slot": "3",
						"type": "t_mapping(t_uint256,t_struct(Proposal)510_storage)"
					},
					{
						"astId": 518,
						"contract": "contracts/proposalsAndRequests.sol:ProposalsAndRequests",
						"label": "proposalIds",
						"offset": 0,
						"slot": "4",
						"type": "t_array(t_uint256)dyn_storage"
					},
					{
						"astId": 521,
						"contract": "contracts/proposalsAndRequests.sol:ProposalsAndRequests",
						"label": "proposalCount",
						"offset": 0,
						"slot": "5",
						"type": "t_uint256"
					},
					{
						"astId": 524,
						"contract": "contracts/proposalsAndRequests.sol:ProposalsAndRequests",
						"label": "historicalProposalCount",
						"offset": 0,
						"slot": "6",
						"type": "t_uint256"
					},
					{
						"astId": 527,
						"contract": "contracts/proposalsAndRequests.sol:ProposalsAndRequests",
						"label": "activeProposalIds",
						"offset": 0,
						"slot": "7",
						"type": "t_array(t_uint256)dyn_storage"
					},
					{
						"astId": 530,
						"contract": "contracts/proposalsAndRequests.sol:ProposalsAndRequests",
						"label": "activeProposalCount",
						"offset": 0,
						"slot": "8",
						"type": "t_uint256"
					},
					{
						"astId": 567,
						"contract": "contracts/proposalsAndRequests.sol:ProposalsAndRequests",
						"label": "buyerRequests",
						"offset": 0,
						"slot": "9",
						"type": "t_mapping(t_uint256,t_mapping(t_uint256,t_struct(BuyerRequest)555_storage))"
					},
					{
						"astId": 573,
						"contract": "contracts/proposalsAndRequests.sol:ProposalsAndRequests",
						"label": "buyerRequestIndicesByBuyer",
						"offset": 0,
						"slot": "10",
						"type": "t_mapping(t_address,t_array(t_struct(RequestIndex)560_storage)dyn_storage)"
					},
					{
						"astId": 577,
						"contract": "contracts/proposalsAndRequests.sol:ProposalsAndRequests",
						"label": "buyerRequestsLength",
						"offset": 0,
						"slot": "11",
						"type": "t_mapping(t_uint256,t_uint256)"
					}
				],
				"types": {
					"t_address": {
						"encoding": "inplace",
						"label": "address",
						"numberOfBytes": "20"
					},
					"t_array(t_struct(RequestIndex)560_storage)dyn_storage": {
						"base": "t_struct(RequestIndex)560_storage",
						"encoding": "dynamic_array",
						"label": "struct ProposalsAndRequests.RequestIndex[]",
						"numberOfBytes": "32"
					},
					"t_array(t_uint256)dyn_storage": {
						"base": "t_uint256",
						"encoding": "dynamic_array",
						"label": "uint256[]",
						"numberOfBytes": "32"
					},
					"t_bool": {
						"encoding": "inplace",
						"label": "bool",
						"numberOfBytes": "1"
					},
					"t_bytes32": {
						"encoding": "inplace",
						"label": "bytes32",
						"numberOfBytes": "32"
					},
					"t_contract(ICompletedTransactions)470": {
						"encoding": "inplace",
						"label": "contract ICompletedTransactions",
						"numberOfBytes": "20"
					},
					"t_mapping(t_address,t_array(t_struct(RequestIndex)560_storage)dyn_storage)": {
						"encoding": "mapping",
						"key": "t_address",
						"label": "mapping(address => struct ProposalsAndRequests.RequestIndex[])",
						"numberOfBytes": "32",
						"value": "t_array(t_struct(RequestIndex)560_storage)dyn_storage"
					},
					"t_mapping(t_uint256,t_mapping(t_uint256,t_struct(BuyerRequest)555_storage))": {
						"encoding": "mapping",
						"key": "t_uint256",
						"label": "mapping(uint256 => mapping(uint256 => struct ProposalsAndRequests.BuyerRequest))",
						"numberOfBytes": "32",
						"value": "t_mapping(t_uint256,t_struct(BuyerRequest)555_storage)"
					},
					"t_mapping(t_uint256,t_struct(BuyerRequest)555_storage)": {
						"encoding": "mapping",
						"key": "t_uint256",
						"label": "mapping(uint256 => struct ProposalsAndRequests.BuyerRequest)",
						"numberOfBytes": "32",
						"value": "t_struct(BuyerRequest)555_storage"
					},
					"t_mapping(t_uint256,t_struct(Proposal)510_storage)": {
						"encoding": "mapping",
						"key": "t_uint256",
						"label": "mapping(uint256 => struct ProposalsAndRequests.Proposal)",
						"numberOfBytes": "32",
						"value": "t_struct(Proposal)510_storage"
					},
					"t_mapping(t_uint256,t_uint256)": {
						"encoding": "mapping",
						"key": "t_uint256",
						"label": "mapping(uint256 => uint256)",
						"numberOfBytes": "32",
						"value": "t_uint256"
					},
					"t_string_storage": {
						"encoding": "bytes",
						"label": "string",
						"numberOfBytes": "32"
					},
					"t_struct(BuyerRequest)555_storage": {
						"encoding": "inplace",
						"label": "struct ProposalsAndRequests.BuyerRequest",
						"members": [
							{
								"astId": 532,
								"contract": "contracts/proposalsAndRequests.sol:ProposalsAndRequests",
								"label": "buyerRequestIndex",
								"offset": 0,
								"slot": "0",
								"type": "t_uint256"
							},
							{
								"astId": 534,
								"contract": "contracts/proposalsAndRequests.sol:ProposalsAndRequests",
								"label": "proposalId",
								"offset": 0,
								"slot": "1",
								"type": "t_uint256"
							},
							{
								"astId": 536,
								"contract": "contracts/proposalsAndRequests.sol:ProposalsAndRequests",
								"label": "amount",
								"offset": 0,
								"slot": "2",
								"type": "t_uint256"
							},
							{
								"astId": 538,
								"contract": "contracts/proposalsAndRequests.sol:ProposalsAndRequests",
								"label": "date",
								"offset": 0,
								"slot": "3",
								"type": "t_uint256"
							},
							{
								"astId": 540,
								"contract": "contracts/proposalsAndRequests.sol:ProposalsAndRequests",
								"label": "buyer",
								"offset": 0,
								"slot": "4",
								"type": "t_address"
							},
							{
								"astId": 542,
								"contract": "contracts/proposalsAndRequests.sol:ProposalsAndRequests",
								"label": "accepted",
								"offset": 20,
								"slot": "4",
								"type": "t_bool"
							},
							{
								"astId": 544,
								"contract": "contracts/proposalsAndRequests.sol:ProposalsAndRequests",
								"label": "paymentDeclared",
								"offset": 21,
								"slot": "4",
								"type": "t_bool"
							},
							{
								"astId": 546,
								"contract": "contracts/proposalsAndRequests.sol:ProposalsAndRequests",
								"label": "transactionCompleted",
								"offset": 22,
								"slot": "4",
								"type": "t_bool"
							},
							{
								"astId": 548,
								"contract": "contracts/proposalsAndRequests.sol:ProposalsAndRequests",
								"label": "buyerRequestedtoCancel",
								"offset": 23,
								"slot": "4",
								"type": "t_bool"
							},
							{
								"astId": 550,
								"contract": "contracts/proposalsAndRequests.sol:ProposalsAndRequests",
								"label": "sellerRequestedtoCancel",
								"offset": 24,
								"slot": "4",
								"type": "t_bool"
							},
							{
								"astId": 552,
								"contract": "contracts/proposalsAndRequests.sol:ProposalsAndRequests",
								"label": "disputeCreated",
								"offset": 25,
								"slot": "4",
								"type": "t_bool"
							},
							{
								"astId": 554,
								"contract": "contracts/proposalsAndRequests.sol:ProposalsAndRequests",
								"label": "active",
								"offset": 26,
								"slot": "4",
								"type": "t_bool"
							}
						],
						"numberOfBytes": "160"
					},
					"t_struct(Proposal)510_storage": {
						"encoding": "inplace",
						"label": "struct ProposalsAndRequests.Proposal",
						"members": [
							{
								"astId": 487,
								"contract": "contracts/proposalsAndRequests.sol:ProposalsAndRequests",
								"label": "amount",
								"offset": 0,
								"slot": "0",
								"type": "t_uint256"
							},
							{
								"astId": 489,
								"contract": "contracts/proposalsAndRequests.sol:ProposalsAndRequests",
								"label": "escrowBalance",
								"offset": 0,
								"slot": "1",
								"type": "t_uint256"
							},
							{
								"astId": 491,
								"contract": "contracts/proposalsAndRequests.sol:ProposalsAndRequests",
								"label": "price",
								"offset": 0,
								"slot": "2",
								"type": "t_uint256"
							},
							{
								"astId": 493,
								"contract": "contracts/proposalsAndRequests.sol:ProposalsAndRequests",
								"label": "date",
								"offset": 0,
								"slot": "3",
								"type": "t_uint256"
							},
							{
								"astId": 495,
								"contract": "contracts/proposalsAndRequests.sol:ProposalsAndRequests",
								"label": "paymentMethodName",
								"offset": 0,
								"slot": "4",
								"type": "t_string_storage"
							},
							{
								"astId": 497,
								"contract": "contracts/proposalsAndRequests.sol:ProposalsAndRequests",
								"label": "paymentDetails",
								"offset": 0,
								"slot": "5",
								"type": "t_bytes32"
							},
							{
								"astId": 499,
								"contract": "contracts/proposalsAndRequests.sol:ProposalsAndRequests",
								"label": "comment",
								"offset": 0,
								"slot": "6",
								"type": "t_string_storage"
							},
							{
								"astId": 501,
								"contract": "contracts/proposalsAndRequests.sol:ProposalsAndRequests",
								"label": "username",
								"offset": 0,
								"slot": "7",
								"type": "t_string_storage"
							},
							{
								"astId": 503,
								"contract": "contracts/proposalsAndRequests.sol:ProposalsAndRequests",
								"label": "active",
								"offset": 0,
								"slot": "8",
								"type": "t_bool"
							},
							{
								"astId": 505,
								"contract": "contracts/proposalsAndRequests.sol:ProposalsAndRequests",
								"label": "seller",
								"offset": 1,
								"slot": "8",
								"type": "t_address"
							},
							{
								"astId": 507,
								"contract": "contracts/proposalsAndRequests.sol:ProposalsAndRequests",
								"label": "sellerTransactionsCountasSeller",
								"offset": 0,
								"slot": "9",
								"type": "t_uint256"
							},
							{
								"astId": 509,
								"contract": "contracts/proposalsAndRequests.sol:ProposalsAndRequests",
								"label": "sellerTransactionsCountasBuyer",
								"offset": 0,
								"slot": "10",
								"type": "t_uint256"
							}
						],
						"numberOfBytes": "352"
					},
					"t_struct(RequestIndex)560_storage": {
						"encoding": "inplace",
						"label": "struct ProposalsAndRequests.RequestIndex",
						"members": [
							{
								"astId": 557,
								"contract": "contracts/proposalsAndRequests.sol:ProposalsAndRequests",
								"label": "proposalId",
								"offset": 0,
								"slot": "0",
								"type": "t_uint256"
							},
							{
								"astId": 559,
								"contract": "contracts/proposalsAndRequests.sol:ProposalsAndRequests",
								"label": "buyerRequestIndex",
								"offset": 0,
								"slot": "1",
								"type": "t_uint256"
							}
						],
						"numberOfBytes": "64"
					},
					"t_uint256": {
						"encoding": "inplace",
						"label": "uint256",
						"numberOfBytes": "32"
					}
				}
			},
			"userdoc": {
				"kind": "user",
				"methods": {},
				"version": 1
			}
		}
	}
}